{"abi":[{"inputs":[{"internalType":"address","name":"_implementation","type":"address"}],"stateMutability":"nonpayable","type":"constructor"},{"stateMutability":"payable","type":"fallback"},{"inputs":[{"internalType":"uint256","name":"","type":"uint256"}],"name":"allProjects","outputs":[{"internalType":"uint256","name":"id","type":"uint256"},{"internalType":"string","name":"name","type":"string"},{"internalType":"string","name":"field","type":"string"},{"internalType":"string","name":"mission","type":"string"},{"internalType":"uint256","name":"membersCount","type":"uint256"},{"internalType":"uint256","name":"pendingRequests","type":"uint256"}],"stateMutability":"view","type":"function"},{"inputs":[{"internalType":"uint256","name":"","type":"uint256"}],"name":"allUsers","outputs":[{"internalType":"uint256","name":"id","type":"uint256"},{"internalType":"address","name":"userAddress","type":"address"},{"internalType":"string","name":"codename","type":"string"},{"internalType":"string","name":"profession","type":"string"},{"internalType":"string","name":"description","type":"string"},{"internalType":"uint256","name":"projectsInvolved","type":"uint256"},{"internalType":"uint256","name":"pendingRequestsCount","type":"uint256"},{"internalType":"string","name":"mongoNotificationsId","type":"string"}],"stateMutability":"view","type":"function"},{"inputs":[{"internalType":"address","name":"userAddress","type":"address"},{"internalType":"uint256","name":"projectId","type":"uint256"},{"internalType":"uint256","name":"requestId","type":"uint256"},{"internalType":"bool","name":"approved","type":"bool"}],"name":"answerJoinRequest","outputs":[],"stateMutability":"payable","type":"function"},{"inputs":[{"internalType":"address","name":"recruitAddress","type":"address"},{"internalType":"uint256","name":"projectId","type":"uint256"},{"internalType":"uint256","name":"requestId","type":"uint256"},{"internalType":"bool","name":"approved","type":"bool"}],"name":"answerRecruitRequest","outputs":[],"stateMutability":"payable","type":"function"},{"inputs":[{"internalType":"string","name":"","type":"string"}],"name":"codenameTaken","outputs":[{"internalType":"bool","name":"","type":"bool"}],"stateMutability":"view","type":"function"},{"inputs":[{"internalType":"address","name":"userAddress","type":"address"},{"internalType":"string","name":"projectName","type":"string"},{"internalType":"string","name":"projectMission","type":"string"},{"internalType":"string","name":"field","type":"string"}],"name":"createProject","outputs":[],"stateMutability":"payable","type":"function"},{"inputs":[{"internalType":"address","name":"userAddress","type":"address"},{"internalType":"string","name":"cname","type":"string"},{"internalType":"string","name":"prof","type":"string"},{"internalType":"string","name":"desc","type":"string"}],"name":"createUser","outputs":[],"stateMutability":"payable","type":"function"},{"inputs":[{"internalType":"uint256","name":"","type":"uint256"}],"name":"featuredProfiles","outputs":[{"internalType":"uint256","name":"id","type":"uint256"},{"internalType":"address","name":"userAddress","type":"address"},{"internalType":"string","name":"codename","type":"string"},{"internalType":"string","name":"profession","type":"string"},{"internalType":"string","name":"description","type":"string"},{"internalType":"uint256","name":"projectsInvolved","type":"uint256"},{"internalType":"uint256","name":"pendingRequestsCount","type":"uint256"},{"internalType":"string","name":"mongoNotificationsId","type":"string"}],"stateMutability":"view","type":"function"},{"inputs":[{"internalType":"uint256","name":"","type":"uint256"}],"name":"featuredProjects","outputs":[{"internalType":"uint256","name":"id","type":"uint256"},{"internalType":"string","name":"name","type":"string"},{"internalType":"string","name":"field","type":"string"},{"internalType":"string","name":"mission","type":"string"},{"internalType":"uint256","name":"membersCount","type":"uint256"},{"internalType":"uint256","name":"pendingRequests","type":"uint256"}],"stateMutability":"view","type":"function"},{"inputs":[{"internalType":"string","name":"","type":"string"}],"name":"fieldCount","outputs":[{"internalType":"uint256","name":"","type":"uint256"}],"stateMutability":"view","type":"function"},{"inputs":[{"internalType":"string","name":"","type":"string"}],"name":"getProjectByName","outputs":[{"internalType":"uint256","name":"id","type":"uint256"},{"internalType":"string","name":"name","type":"string"},{"internalType":"string","name":"field","type":"string"},{"internalType":"string","name":"mission","type":"string"},{"internalType":"uint256","name":"membersCount","type":"uint256"},{"internalType":"uint256","name":"pendingRequests","type":"uint256"}],"stateMutability":"view","type":"function"},{"inputs":[{"internalType":"string","name":"","type":"string"}],"name":"getUserByCodename","outputs":[{"internalType":"uint256","name":"id","type":"uint256"},{"internalType":"address","name":"userAddress","type":"address"},{"internalType":"string","name":"codename","type":"string"},{"internalType":"string","name":"profession","type":"string"},{"internalType":"string","name":"description","type":"string"},{"internalType":"uint256","name":"projectsInvolved","type":"uint256"},{"internalType":"uint256","name":"pendingRequestsCount","type":"uint256"},{"internalType":"string","name":"mongoNotificationsId","type":"string"}],"stateMutability":"view","type":"function"},{"inputs":[],"name":"manager","outputs":[{"internalType":"address","name":"","type":"address"}],"stateMutability":"view","type":"function"},{"inputs":[{"internalType":"address[]","name":"userFeaturedAddress","type":"address[]"}],"name":"modifyFeaturedProfiles","outputs":[],"stateMutability":"payable","type":"function"},{"inputs":[{"internalType":"uint256[]","name":"projectIds","type":"uint256[]"}],"name":"modifyFeaturedProjects","outputs":[],"stateMutability":"payable","type":"function"},{"inputs":[{"internalType":"string","name":"cname","type":"string"},{"internalType":"string","name":"prof","type":"string"},{"internalType":"string","name":"desc","type":"string"}],"name":"modifyUser","outputs":[],"stateMutability":"payable","type":"function"},{"inputs":[{"internalType":"string","name":"","type":"string"}],"name":"profCount","outputs":[{"internalType":"uint256","name":"","type":"uint256"}],"stateMutability":"view","type":"function"},{"inputs":[{"internalType":"address","name":"userAddress","type":"address"},{"internalType":"uint256","name":"projectId","type":"uint256"}],"name":"projectJoinRequest","outputs":[],"stateMutability":"payable","type":"function"},{"inputs":[{"internalType":"uint256","name":"","type":"uint256"},{"internalType":"uint256","name":"","type":"uint256"}],"name":"projectMembers","outputs":[{"internalType":"uint256","name":"id","type":"uint256"},{"internalType":"address","name":"userAddress","type":"address"},{"internalType":"string","name":"codename","type":"string"},{"internalType":"string","name":"profession","type":"string"},{"internalType":"string","name":"description","type":"string"},{"internalType":"uint256","name":"projectsInvolved","type":"uint256"},{"internalType":"uint256","name":"pendingRequestsCount","type":"uint256"},{"internalType":"string","name":"mongoNotificationsId","type":"string"}],"stateMutability":"view","type":"function"},{"inputs":[{"internalType":"uint256","name":"","type":"uint256"}],"name":"projectMembersLength","outputs":[{"internalType":"uint256","name":"","type":"uint256"}],"stateMutability":"view","type":"function"},{"inputs":[{"internalType":"string","name":"","type":"string"}],"name":"projectNameTaken","outputs":[{"internalType":"bool","name":"","type":"bool"}],"stateMutability":"view","type":"function"},{"inputs":[{"internalType":"uint256","name":"","type":"uint256"},{"internalType":"uint256","name":"","type":"uint256"}],"name":"projectPendingRequests","outputs":[{"internalType":"uint256","name":"id","type":"uint256"},{"internalType":"address","name":"userAddress","type":"address"},{"internalType":"string","name":"codename","type":"string"},{"internalType":"string","name":"profession","type":"string"},{"internalType":"string","name":"description","type":"string"},{"internalType":"uint256","name":"projectsInvolved","type":"uint256"},{"internalType":"uint256","name":"pendingRequestsCount","type":"uint256"},{"internalType":"string","name":"mongoNotificationsId","type":"string"}],"stateMutability":"view","type":"function"},{"inputs":[],"name":"projectsCount","outputs":[{"internalType":"uint256","name":"","type":"uint256"}],"stateMutability":"view","type":"function"},{"inputs":[{"internalType":"address","name":"recruitAddress","type":"address"},{"internalType":"uint256","name":"projectId","type":"uint256"}],"name":"recruitJoinRequest","outputs":[],"stateMutability":"payable","type":"function"},{"inputs":[{"internalType":"address","name":"","type":"address"},{"internalType":"uint256","name":"","type":"uint256"}],"name":"recruitPendingRequests","outputs":[{"internalType":"uint256","name":"id","type":"uint256"},{"internalType":"string","name":"name","type":"string"},{"internalType":"string","name":"field","type":"string"},{"internalType":"string","name":"mission","type":"string"},{"internalType":"uint256","name":"membersCount","type":"uint256"},{"internalType":"uint256","name":"pendingRequests","type":"uint256"}],"stateMutability":"view","type":"function"},{"inputs":[{"internalType":"uint256","name":"projectId","type":"uint256"},{"internalType":"address","name":"userAddress","type":"address"},{"internalType":"uint256","name":"projectElementId","type":"uint256"},{"internalType":"uint256","name":"userElementId","type":"uint256"}],"name":"removeUserFromProject","outputs":[],"stateMutability":"payable","type":"function"},{"inputs":[{"internalType":"string","name":"mongoId","type":"string"}],"name":"subscribeToNotifications","outputs":[],"stateMutability":"payable","type":"function"},{"inputs":[{"internalType":"address payable","name":"recipient","type":"address"}],"name":"transferEther","outputs":[],"stateMutability":"nonpayable","type":"function"},{"inputs":[],"name":"transferEtherToImplementation","outputs":[],"stateMutability":"nonpayable","type":"function"},{"inputs":[{"internalType":"address","name":"_newImplementation","type":"address"}],"name":"upgradeImplementation","outputs":[],"stateMutability":"nonpayable","type":"function"},{"inputs":[{"internalType":"address","name":"","type":"address"}],"name":"users","outputs":[{"internalType":"uint256","name":"id","type":"uint256"},{"internalType":"address","name":"userAddress","type":"address"},{"internalType":"string","name":"codename","type":"string"},{"internalType":"string","name":"profession","type":"string"},{"internalType":"string","name":"description","type":"string"},{"internalType":"uint256","name":"projectsInvolved","type":"uint256"},{"internalType":"uint256","name":"pendingRequestsCount","type":"uint256"},{"internalType":"string","name":"mongoNotificationsId","type":"string"}],"stateMutability":"view","type":"function"},{"inputs":[],"name":"usersCount","outputs":[{"internalType":"uint256","name":"","type":"uint256"}],"stateMutability":"view","type":"function"},{"inputs":[{"internalType":"address","name":"","type":"address"},{"internalType":"uint256","name":"","type":"uint256"}],"name":"usersProjects","outputs":[{"internalType":"uint256","name":"id","type":"uint256"},{"internalType":"string","name":"name","type":"string"},{"internalType":"string","name":"field","type":"string"},{"internalType":"string","name":"mission","type":"string"},{"internalType":"uint256","name":"membersCount","type":"uint256"},{"internalType":"uint256","name":"pendingRequests","type":"uint256"}],"stateMutability":"view","type":"function"},{"inputs":[{"internalType":"address","name":"","type":"address"}],"name":"usersProjectsLength","outputs":[{"internalType":"uint256","name":"","type":"uint256"}],"stateMutability":"view","type":"function"},{"inputs":[{"internalType":"address","name":"","type":"address"}],"name":"walletRegistered","outputs":[{"internalType":"bool","name":"","type":"bool"}],"stateMutability":"view","type":"function"},{"stateMutability":"payable","type":"receive"}],"devdoc":{"kind":"dev","methods":{},"version":1},"evm":{"assembly":"    /* \"UsersProxy.sol\":115:1322  contract UsersProxy is UsersStorage, UsersMixin {... */\n  mstore(0x40, 0x80)\n    /* \"UsersProxy.sol\":206:322  constructor(address _implementation) {... */\n  callvalue\n  dup1\n  iszero\n  tag_1\n  jumpi\n  0x00\n  dup1\n  revert\ntag_1:\n  pop\n  mload(0x40)\n  sub(codesize, bytecodeSize)\n  dup1\n  bytecodeSize\n  dup4\n  codecopy\n  dup2\n  dup2\n  add\n  0x40\n  mstore\n  dup2\n  add\n  swap1\n  tag_2\n  swap2\n  swap1\n  tag_3\n  jump\t// in\ntag_2:\n    /* \"UsersMixin.sol\":164:174   */\n  caller\n    /* \"UsersMixin.sol\":154:161   */\n  0x00\n  dup1\n    /* \"UsersMixin.sol\":154:174   */\n  0x0100\n  exp\n  dup2\n  sload\n  dup2\n  0xffffffffffffffffffffffffffffffffffffffff\n  mul\n  not\n  and\n  swap1\n  dup4\n  0xffffffffffffffffffffffffffffffffffffffff\n  and\n  mul\n  or\n  swap1\n  sstore\n  pop\n    /* \"UsersProxy.sol\":263:273  msg.sender */\n  caller\n    /* \"UsersProxy.sol\":253:260  manager */\n  0x00\n  dup1\n    /* \"UsersProxy.sol\":253:273  manager = msg.sender */\n  0x0100\n  exp\n  dup2\n  sload\n  dup2\n  0xffffffffffffffffffffffffffffffffffffffff\n  mul\n  not\n  and\n  swap1\n  dup4\n  0xffffffffffffffffffffffffffffffffffffffff\n  and\n  mul\n  or\n  swap1\n  sstore\n  pop\n    /* \"UsersProxy.sol\":300:315  _implementation */\n  dup1\n    /* \"UsersProxy.sol\":283:297  implementation */\n  0x15\n  0x00\n    /* \"UsersProxy.sol\":283:315  implementation = _implementation */\n  0x0100\n  exp\n  dup2\n  sload\n  dup2\n  0xffffffffffffffffffffffffffffffffffffffff\n  mul\n  not\n  and\n  swap1\n  dup4\n  0xffffffffffffffffffffffffffffffffffffffff\n  and\n  mul\n  or\n  swap1\n  sstore\n  pop\n    /* \"UsersProxy.sol\":206:322  constructor(address _implementation) {... */\n  pop\n    /* \"UsersProxy.sol\":115:1322  contract UsersProxy is UsersStorage, UsersMixin {... */\n  jump(tag_8)\n    /* \"#utility.yul\":88:205   */\ntag_10:\n    /* \"#utility.yul\":197:198   */\n  0x00\n    /* \"#utility.yul\":194:195   */\n  dup1\n    /* \"#utility.yul\":187:199   */\n  revert\n    /* \"#utility.yul\":334:460   */\ntag_12:\n    /* \"#utility.yul\":371:378   */\n  0x00\n    /* \"#utility.yul\":411:453   */\n  0xffffffffffffffffffffffffffffffffffffffff\n    /* \"#utility.yul\":404:409   */\n  dup3\n    /* \"#utility.yul\":400:454   */\n  and\n    /* \"#utility.yul\":389:454   */\n  swap1\n  pop\n    /* \"#utility.yul\":334:460   */\n  swap2\n  swap1\n  pop\n  jump\t// out\n    /* \"#utility.yul\":466:562   */\ntag_13:\n    /* \"#utility.yul\":503:510   */\n  0x00\n    /* \"#utility.yul\":532:556   */\n  tag_22\n    /* \"#utility.yul\":550:555   */\n  dup3\n    /* \"#utility.yul\":532:556   */\n  tag_12\n  jump\t// in\ntag_22:\n    /* \"#utility.yul\":521:556   */\n  swap1\n  pop\n    /* \"#utility.yul\":466:562   */\n  swap2\n  swap1\n  pop\n  jump\t// out\n    /* \"#utility.yul\":568:690   */\ntag_14:\n    /* \"#utility.yul\":641:665   */\n  tag_24\n    /* \"#utility.yul\":659:664   */\n  dup2\n    /* \"#utility.yul\":641:665   */\n  tag_13\n  jump\t// in\ntag_24:\n    /* \"#utility.yul\":634:639   */\n  dup2\n    /* \"#utility.yul\":631:666   */\n  eq\n    /* \"#utility.yul\":621:684   */\n  tag_25\n  jumpi\n    /* \"#utility.yul\":680:681   */\n  0x00\n    /* \"#utility.yul\":677:678   */\n  dup1\n    /* \"#utility.yul\":670:682   */\n  revert\n    /* \"#utility.yul\":621:684   */\ntag_25:\n    /* \"#utility.yul\":568:690   */\n  pop\n  jump\t// out\n    /* \"#utility.yul\":696:839   */\ntag_15:\n    /* \"#utility.yul\":753:758   */\n  0x00\n    /* \"#utility.yul\":784:790   */\n  dup2\n    /* \"#utility.yul\":778:791   */\n  mload\n    /* \"#utility.yul\":769:791   */\n  swap1\n  pop\n    /* \"#utility.yul\":800:833   */\n  tag_27\n    /* \"#utility.yul\":827:832   */\n  dup2\n    /* \"#utility.yul\":800:833   */\n  tag_14\n  jump\t// in\ntag_27:\n    /* \"#utility.yul\":696:839   */\n  swap3\n  swap2\n  pop\n  pop\n  jump\t// out\n    /* \"#utility.yul\":845:1196   */\ntag_3:\n    /* \"#utility.yul\":915:921   */\n  0x00\n    /* \"#utility.yul\":964:966   */\n  0x20\n    /* \"#utility.yul\":952:961   */\n  dup3\n    /* \"#utility.yul\":943:950   */\n  dup5\n    /* \"#utility.yul\":939:962   */\n  sub\n    /* \"#utility.yul\":935:967   */\n  slt\n    /* \"#utility.yul\":932:1051   */\n  iszero\n  tag_29\n  jumpi\n    /* \"#utility.yul\":970:1049   */\n  tag_30\n  tag_10\n  jump\t// in\ntag_30:\n    /* \"#utility.yul\":932:1051   */\ntag_29:\n    /* \"#utility.yul\":1090:1091   */\n  0x00\n    /* \"#utility.yul\":1115:1179   */\n  tag_31\n    /* \"#utility.yul\":1171:1178   */\n  dup5\n    /* \"#utility.yul\":1162:1168   */\n  dup3\n    /* \"#utility.yul\":1151:1160   */\n  dup6\n    /* \"#utility.yul\":1147:1169   */\n  add\n    /* \"#utility.yul\":1115:1179   */\n  tag_15\n  jump\t// in\ntag_31:\n    /* \"#utility.yul\":1105:1179   */\n  swap2\n  pop\n    /* \"#utility.yul\":1061:1189   */\n  pop\n    /* \"#utility.yul\":845:1196   */\n  swap3\n  swap2\n  pop\n  pop\n  jump\t// out\n    /* \"UsersProxy.sol\":115:1322  contract UsersProxy is UsersStorage, UsersMixin {... */\ntag_8:\n  dataSize(sub_0)\n  dup1\n  dataOffset(sub_0)\n  0x00\n  codecopy\n  0x00\n  return\nstop\n\nsub_0: assembly {\n        /* \"UsersProxy.sol\":115:1322  contract UsersProxy is UsersStorage, UsersMixin {... */\n      mstore(0x40, 0x80)\n      jumpi(tag_1, lt(calldatasize, 0x04))\n      shr(0xe0, calldataload(0x00))\n      dup1\n      0x56c720c3\n      gt\n      tag_38\n      jumpi\n      dup1\n      0xc6242a8f\n      gt\n      tag_39\n      jumpi\n      dup1\n      0xd6f775c0\n      gt\n      tag_40\n      jumpi\n      dup1\n      0xd6f775c0\n      eq\n      tag_33\n      jumpi\n      dup1\n      0xe365a29f\n      eq\n      tag_34\n      jumpi\n      dup1\n      0xf5ab5dde\n      eq\n      tag_35\n      jumpi\n      dup1\n      0xf778d27b\n      eq\n      tag_36\n      jumpi\n      dup1\n      0xfeef5e91\n      eq\n      tag_37\n      jumpi\n      jump(tag_2)\n    tag_40:\n      dup1\n      0xc6242a8f\n      eq\n      tag_29\n      jumpi\n      dup1\n      0xc723bf86\n      eq\n      tag_30\n      jumpi\n      dup1\n      0xc73b302e\n      eq\n      tag_31\n      jumpi\n      dup1\n      0xd05857e0\n      eq\n      tag_32\n      jumpi\n      jump(tag_2)\n    tag_39:\n      dup1\n      0x9039b99e\n      gt\n      tag_41\n      jumpi\n      dup1\n      0x9039b99e\n      eq\n      tag_24\n      jumpi\n      dup1\n      0xa2bdedf4\n      eq\n      tag_25\n      jumpi\n      dup1\n      0xa87430ba\n      eq\n      tag_26\n      jumpi\n      dup1\n      0xac2c9c0f\n      eq\n      tag_27\n      jumpi\n      dup1\n      0xc610d2ce\n      eq\n      tag_28\n      jumpi\n      jump(tag_2)\n    tag_41:\n      dup1\n      0x56c720c3\n      eq\n      tag_20\n      jumpi\n      dup1\n      0x6b55e991\n      eq\n      tag_21\n      jumpi\n      dup1\n      0x6ba13a82\n      eq\n      tag_22\n      jumpi\n      dup1\n      0x83f94db7\n      eq\n      tag_23\n      jumpi\n      jump(tag_2)\n    tag_38:\n      dup1\n      0x2f3f680c\n      gt\n      tag_42\n      jumpi\n      dup1\n      0x448cd56e\n      gt\n      tag_43\n      jumpi\n      dup1\n      0x448cd56e\n      eq\n      tag_15\n      jumpi\n      dup1\n      0x481c6a75\n      eq\n      tag_16\n      jumpi\n      dup1\n      0x4b77f269\n      eq\n      tag_17\n      jumpi\n      dup1\n      0x4fc0f8ba\n      eq\n      tag_18\n      jumpi\n      dup1\n      0x53b3194c\n      eq\n      tag_19\n      jumpi\n      jump(tag_2)\n    tag_43:\n      dup1\n      0x2f3f680c\n      eq\n      tag_11\n      jumpi\n      dup1\n      0x30314fee\n      eq\n      tag_12\n      jumpi\n      dup1\n      0x37d3f4fa\n      eq\n      tag_13\n      jumpi\n      dup1\n      0x3a4017b4\n      eq\n      tag_14\n      jumpi\n      jump(tag_2)\n    tag_42:\n      dup1\n      0x1453d9f2\n      gt\n      tag_44\n      jumpi\n      dup1\n      0x1453d9f2\n      eq\n      tag_7\n      jumpi\n      dup1\n      0x19266c51\n      eq\n      tag_8\n      jumpi\n      dup1\n      0x1b0004d9\n      eq\n      tag_9\n      jumpi\n      dup1\n      0x1ec7d4ad\n      eq\n      tag_10\n      jumpi\n      jump(tag_2)\n    tag_44:\n      dup1\n      0x3bd288\n      eq\n      tag_3\n      jumpi\n      dup1\n      0x01f2b011\n      eq\n      tag_4\n      jumpi\n      dup1\n      0x04c2eaab\n      eq\n      tag_5\n      jumpi\n      dup1\n      0x13c050ca\n      eq\n      tag_6\n      jumpi\n      jump(tag_2)\n    tag_1:\n      jumpi(tag_2, calldatasize)\n      stop\n    tag_2:\n        /* \"UsersProxy.sol\":798:810  address impl */\n      0x00\n        /* \"UsersProxy.sol\":813:827  implementation */\n      0x15\n      0x00\n      swap1\n      sload\n      swap1\n      0x0100\n      exp\n      swap1\n      div\n      0xffffffffffffffffffffffffffffffffffffffff\n      and\n        /* \"UsersProxy.sol\":798:827  address impl = implementation */\n      swap1\n      pop\n        /* \"UsersProxy.sol\":877:881  0x40 */\n      0x40\n        /* \"UsersProxy.sol\":871:882  mload(0x40) */\n      mload\n        /* \"UsersProxy.sol\":916:930  calldatasize() */\n      calldatasize\n        /* \"UsersProxy.sol\":913:914  0 */\n      0x00\n        /* \"UsersProxy.sol\":908:911  ptr */\n      dup3\n        /* \"UsersProxy.sol\":895:931  calldatacopy(ptr, 0, calldatasize()) */\n      calldatacopy\n        /* \"UsersProxy.sol\":1008:1009  0 */\n      0x00\n        /* \"UsersProxy.sol\":1005:1006  0 */\n      dup1\n        /* \"UsersProxy.sol\":989:1003  calldatasize() */\n      calldatasize\n        /* \"UsersProxy.sol\":984:987  ptr */\n      dup4\n        /* \"UsersProxy.sol\":978:982  impl */\n      dup6\n        /* \"UsersProxy.sol\":971:976  gas() */\n      gas\n        /* \"UsersProxy.sol\":958:1010  delegatecall(gas(), impl, ptr, calldatasize(), 0, 0) */\n      delegatecall\n        /* \"UsersProxy.sol\":1035:1051  returndatasize() */\n      returndatasize\n        /* \"UsersProxy.sol\":1087:1091  size */\n      dup1\n        /* \"UsersProxy.sol\":1084:1085  0 */\n      0x00\n        /* \"UsersProxy.sol\":1079:1082  ptr */\n      dup5\n        /* \"UsersProxy.sol\":1064:1092  returndatacopy(ptr, 0, size) */\n      returndatacopy\n        /* \"UsersProxy.sol\":1113:1119  result */\n      dup2\n        /* \"UsersProxy.sol\":1137:1138  0 */\n      0x00\n        /* \"UsersProxy.sol\":1132:1160  case 0 { revert(ptr, size) } */\n      dup2\n      eq\n      tag_50\n      jumpi\n        /* \"UsersProxy.sol\":1195:1199  size */\n      dup2\n        /* \"UsersProxy.sol\":1190:1193  ptr */\n      dup5\n        /* \"UsersProxy.sol\":1183:1200  return(ptr, size) */\n      return\n        /* \"UsersProxy.sol\":1132:1160  case 0 { revert(ptr, size) } */\n    tag_50:\n        /* \"UsersProxy.sol\":1153:1157  size */\n      dup2\n        /* \"UsersProxy.sol\":1148:1151  ptr */\n      dup5\n        /* \"UsersProxy.sol\":1141:1158  revert(ptr, size) */\n      revert\n        /* \"UsersStorage.sol\":1421:1470   */\n    tag_3:\n      callvalue\n      dup1\n      iszero\n      tag_51\n      jumpi\n      0x00\n      dup1\n      revert\n    tag_51:\n      pop\n      tag_52\n      0x04\n      dup1\n      calldatasize\n      sub\n      dup2\n      add\n      swap1\n      tag_53\n      swap2\n      swap1\n      tag_54\n      jump\t// in\n    tag_53:\n      tag_55\n      jump\t// in\n    tag_52:\n      mload(0x40)\n      tag_56\n      swap2\n      swap1\n      tag_57\n      jump\t// in\n    tag_56:\n      mload(0x40)\n      dup1\n      swap2\n      sub\n      swap1\n      return\n        /* \"UsersMixin.sol\":4755:4997   */\n    tag_4:\n      tag_58\n      0x04\n      dup1\n      calldatasize\n      sub\n      dup2\n      add\n      swap1\n      tag_59\n      swap2\n      swap1\n      tag_60\n      jump\t// in\n    tag_59:\n      tag_61\n      jump\t// in\n    tag_58:\n      stop\n        /* \"UsersMixin.sol\":5236:5843   */\n    tag_5:\n      tag_62\n      0x04\n      dup1\n      calldatasize\n      sub\n      dup2\n      add\n      swap1\n      tag_63\n      swap2\n      swap1\n      tag_64\n      jump\t// in\n    tag_63:\n      tag_65\n      jump\t// in\n    tag_62:\n      stop\n        /* \"UsersProxy.sol\":544:754  function transferEtherToImplementation() public {... */\n    tag_6:\n      callvalue\n      dup1\n      iszero\n      tag_66\n      jumpi\n      0x00\n      dup1\n      revert\n    tag_66:\n      pop\n      tag_67\n      tag_68\n      jump\t// in\n    tag_67:\n      stop\n        /* \"UsersMixin.sol\":5003:5230   */\n    tag_7:\n      tag_69\n      0x04\n      dup1\n      calldatasize\n      sub\n      dup2\n      add\n      swap1\n      tag_70\n      swap2\n      swap1\n      tag_71\n      jump\t// in\n    tag_70:\n      tag_72\n      jump\t// in\n    tag_69:\n      stop\n        /* \"UsersMixin.sol\":1514:1746   */\n    tag_8:\n      tag_73\n      0x04\n      dup1\n      calldatasize\n      sub\n      dup2\n      add\n      swap1\n      tag_74\n      swap2\n      swap1\n      tag_75\n      jump\t// in\n    tag_74:\n      tag_76\n      jump\t// in\n    tag_73:\n      stop\n        /* \"UsersStorage.sol\":1114:1154   */\n    tag_9:\n      callvalue\n      dup1\n      iszero\n      tag_77\n      jumpi\n      0x00\n      dup1\n      revert\n    tag_77:\n      pop\n      tag_78\n      0x04\n      dup1\n      calldatasize\n      sub\n      dup2\n      add\n      swap1\n      tag_79\n      swap2\n      swap1\n      tag_75\n      jump\t// in\n    tag_79:\n      tag_80\n      jump\t// in\n    tag_78:\n      mload(0x40)\n      tag_81\n      swap2\n      swap1\n      tag_57\n      jump\t// in\n    tag_81:\n      mload(0x40)\n      dup1\n      swap2\n      sub\n      swap1\n      return\n        /* \"UsersStorage.sol\":1364:1415   */\n    tag_10:\n      callvalue\n      dup1\n      iszero\n      tag_82\n      jumpi\n      0x00\n      dup1\n      revert\n    tag_82:\n      pop\n      tag_83\n      0x04\n      dup1\n      calldatasize\n      sub\n      dup2\n      add\n      swap1\n      tag_84\n      swap2\n      swap1\n      tag_85\n      jump\t// in\n    tag_84:\n      tag_86\n      jump\t// in\n    tag_83:\n      mload(0x40)\n      tag_87\n      swap2\n      swap1\n      tag_57\n      jump\t// in\n    tag_87:\n      mload(0x40)\n      dup1\n      swap2\n      sub\n      swap1\n      return\n        /* \"UsersStorage.sol\":1261:1305   */\n    tag_11:\n      callvalue\n      dup1\n      iszero\n      tag_88\n      jumpi\n      0x00\n      dup1\n      revert\n    tag_88:\n      pop\n      tag_89\n      0x04\n      dup1\n      calldatasize\n      sub\n      dup2\n      add\n      swap1\n      tag_90\n      swap2\n      swap1\n      tag_75\n      jump\t// in\n    tag_90:\n      tag_91\n      jump\t// in\n    tag_89:\n      mload(0x40)\n      tag_92\n      swap2\n      swap1\n      tag_93\n      jump\t// in\n    tag_92:\n      mload(0x40)\n      dup1\n      swap2\n      sub\n      swap1\n      return\n        /* \"UsersMixin.sol\":1752:2639   */\n    tag_12:\n      tag_94\n      0x04\n      dup1\n      calldatasize\n      sub\n      dup2\n      add\n      swap1\n      tag_95\n      swap2\n      swap1\n      tag_96\n      jump\t// in\n    tag_95:\n      tag_97\n      jump\t// in\n    tag_94:\n      stop\n        /* \"UsersStorage.sol\":885:930   */\n    tag_13:\n      callvalue\n      dup1\n      iszero\n      tag_98\n      jumpi\n      0x00\n      dup1\n      revert\n    tag_98:\n      pop\n      tag_99\n      0x04\n      dup1\n      calldatasize\n      sub\n      dup2\n      add\n      swap1\n      tag_100\n      swap2\n      swap1\n      tag_101\n      jump\t// in\n    tag_100:\n      tag_102\n      jump\t// in\n    tag_99:\n      mload(0x40)\n      tag_103\n      swap9\n      swap8\n      swap7\n      swap6\n      swap5\n      swap4\n      swap3\n      swap2\n      swap1\n      tag_104\n      jump\t// in\n    tag_103:\n      mload(0x40)\n      dup1\n      swap2\n      sub\n      swap1\n      return\n        /* \"UsersMixin.sol\":3344:4017   */\n    tag_14:\n      tag_105\n      0x04\n      dup1\n      calldatasize\n      sub\n      dup2\n      add\n      swap1\n      tag_106\n      swap2\n      swap1\n      tag_107\n      jump\t// in\n    tag_106:\n      tag_108\n      jump\t// in\n    tag_105:\n      stop\n        /* \"UsersStorage.sol\":936:989   */\n    tag_15:\n      callvalue\n      dup1\n      iszero\n      tag_109\n      jumpi\n      0x00\n      dup1\n      revert\n    tag_109:\n      pop\n      tag_110\n      0x04\n      dup1\n      calldatasize\n      sub\n      dup2\n      add\n      swap1\n      tag_111\n      swap2\n      swap1\n      tag_101\n      jump\t// in\n    tag_111:\n      tag_112\n      jump\t// in\n    tag_110:\n      mload(0x40)\n      tag_113\n      swap9\n      swap8\n      swap7\n      swap6\n      swap5\n      swap4\n      swap3\n      swap2\n      swap1\n      tag_104\n      jump\t// in\n    tag_113:\n      mload(0x40)\n      dup1\n      swap2\n      sub\n      swap1\n      return\n        /* \"UsersStorage.sol\":86:108   */\n    tag_16:\n      callvalue\n      dup1\n      iszero\n      tag_114\n      jumpi\n      0x00\n      dup1\n      revert\n    tag_114:\n      pop\n      tag_115\n      tag_116\n      jump\t// in\n    tag_115:\n      mload(0x40)\n      tag_117\n      swap2\n      swap1\n      tag_118\n      jump\t// in\n    tag_117:\n      mload(0x40)\n      dup1\n      swap2\n      sub\n      swap1\n      return\n        /* \"UsersStorage.sol\":829:879   */\n    tag_17:\n      callvalue\n      dup1\n      iszero\n      tag_119\n      jumpi\n      0x00\n      dup1\n      revert\n    tag_119:\n      pop\n      tag_120\n      0x04\n      dup1\n      calldatasize\n      sub\n      dup2\n      add\n      swap1\n      tag_121\n      swap2\n      swap1\n      tag_75\n      jump\t// in\n    tag_121:\n      tag_122\n      jump\t// in\n    tag_120:\n      mload(0x40)\n      tag_123\n      swap7\n      swap6\n      swap5\n      swap4\n      swap3\n      swap2\n      swap1\n      tag_124\n      jump\t// in\n    tag_123:\n      mload(0x40)\n      dup1\n      swap2\n      sub\n      swap1\n      return\n        /* \"UsersMixin.sol\":2645:2965   */\n    tag_18:\n      tag_125\n      0x04\n      dup1\n      calldatasize\n      sub\n      dup2\n      add\n      swap1\n      tag_126\n      swap2\n      swap1\n      tag_127\n      jump\t// in\n    tag_126:\n      tag_128\n      jump\t// in\n    tag_125:\n      stop\n        /* \"UsersStorage.sol\":621:649   */\n    tag_19:\n      callvalue\n      dup1\n      iszero\n      tag_129\n      jumpi\n      0x00\n      dup1\n      revert\n    tag_129:\n      pop\n      tag_130\n      0x04\n      dup1\n      calldatasize\n      sub\n      dup2\n      add\n      swap1\n      tag_131\n      swap2\n      swap1\n      tag_54\n      jump\t// in\n    tag_131:\n      tag_132\n      jump\t// in\n    tag_130:\n      mload(0x40)\n      tag_133\n      swap7\n      swap6\n      swap5\n      swap4\n      swap3\n      swap2\n      swap1\n      tag_124\n      jump\t// in\n    tag_133:\n      mload(0x40)\n      dup1\n      swap2\n      sub\n      swap1\n      return\n        /* \"UsersMixin.sol\":2971:3338   */\n    tag_20:\n      tag_134\n      0x04\n      dup1\n      calldatasize\n      sub\n      dup2\n      add\n      swap1\n      tag_135\n      swap2\n      swap1\n      tag_127\n      jump\t// in\n    tag_135:\n      tag_136\n      jump\t// in\n    tag_134:\n      stop\n        /* \"UsersMixin.sol\":273:470   */\n    tag_21:\n      callvalue\n      dup1\n      iszero\n      tag_137\n      jumpi\n      0x00\n      dup1\n      revert\n    tag_137:\n      pop\n      tag_138\n      0x04\n      dup1\n      calldatasize\n      sub\n      dup2\n      add\n      swap1\n      tag_139\n      swap2\n      swap1\n      tag_140\n      jump\t// in\n    tag_139:\n      tag_141\n      jump\t// in\n    tag_138:\n      stop\n        /* \"UsersStorage.sol\":1476:1498   */\n    tag_22:\n      callvalue\n      dup1\n      iszero\n      tag_142\n      jumpi\n      0x00\n      dup1\n      revert\n    tag_142:\n      pop\n      tag_143\n      tag_144\n      jump\t// in\n    tag_143:\n      mload(0x40)\n      tag_145\n      swap2\n      swap1\n      tag_57\n      jump\t// in\n    tag_145:\n      mload(0x40)\n      dup1\n      swap2\n      sub\n      swap1\n      return\n        /* \"UsersProxy.sol\":328:538  function upgradeImplementation(address _newImplementation) public {... */\n    tag_23:\n      callvalue\n      dup1\n      iszero\n      tag_146\n      jumpi\n      0x00\n      dup1\n      revert\n    tag_146:\n      pop\n      tag_147\n      0x04\n      dup1\n      calldatasize\n      sub\n      dup2\n      add\n      swap1\n      tag_148\n      swap2\n      swap1\n      tag_85\n      jump\t// in\n    tag_148:\n      tag_149\n      jump\t// in\n    tag_147:\n      stop\n        /* \"UsersStorage.sol\":1160:1201   */\n    tag_24:\n      callvalue\n      dup1\n      iszero\n      tag_150\n      jumpi\n      0x00\n      dup1\n      revert\n    tag_150:\n      pop\n      tag_151\n      0x04\n      dup1\n      calldatasize\n      sub\n      dup2\n      add\n      swap1\n      tag_152\n      swap2\n      swap1\n      tag_75\n      jump\t// in\n    tag_152:\n      tag_153\n      jump\t// in\n    tag_151:\n      mload(0x40)\n      tag_154\n      swap2\n      swap1\n      tag_57\n      jump\t// in\n    tag_154:\n      mload(0x40)\n      dup1\n      swap2\n      sub\n      swap1\n      return\n        /* \"UsersStorage.sol\":593:615   */\n    tag_25:\n      callvalue\n      dup1\n      iszero\n      tag_155\n      jumpi\n      0x00\n      dup1\n      revert\n    tag_155:\n      pop\n      tag_156\n      0x04\n      dup1\n      calldatasize\n      sub\n      dup2\n      add\n      swap1\n      tag_157\n      swap2\n      swap1\n      tag_54\n      jump\t// in\n    tag_157:\n      tag_158\n      jump\t// in\n    tag_156:\n      mload(0x40)\n      tag_159\n      swap9\n      swap8\n      swap7\n      swap6\n      swap5\n      swap4\n      swap3\n      swap2\n      swap1\n      tag_104\n      jump\t// in\n    tag_159:\n      mload(0x40)\n      dup1\n      swap2\n      sub\n      swap1\n      return\n        /* \"UsersStorage.sol\":730:767   */\n    tag_26:\n      callvalue\n      dup1\n      iszero\n      tag_160\n      jumpi\n      0x00\n      dup1\n      revert\n    tag_160:\n      pop\n      tag_161\n      0x04\n      dup1\n      calldatasize\n      sub\n      dup2\n      add\n      swap1\n      tag_162\n      swap2\n      swap1\n      tag_85\n      jump\t// in\n    tag_162:\n      tag_163\n      jump\t// in\n    tag_161:\n      mload(0x40)\n      tag_164\n      swap9\n      swap8\n      swap7\n      swap6\n      swap5\n      swap4\n      swap3\n      swap2\n      swap1\n      tag_104\n      jump\t// in\n    tag_164:\n      mload(0x40)\n      dup1\n      swap2\n      sub\n      swap1\n      return\n        /* \"UsersStorage.sol\":1207:1255   */\n    tag_27:\n      callvalue\n      dup1\n      iszero\n      tag_165\n      jumpi\n      0x00\n      dup1\n      revert\n    tag_165:\n      pop\n      tag_166\n      0x04\n      dup1\n      calldatasize\n      sub\n      dup2\n      add\n      swap1\n      tag_167\n      swap2\n      swap1\n      tag_85\n      jump\t// in\n    tag_167:\n      tag_168\n      jump\t// in\n    tag_166:\n      mload(0x40)\n      tag_169\n      swap2\n      swap1\n      tag_93\n      jump\t// in\n    tag_169:\n      mload(0x40)\n      dup1\n      swap2\n      sub\n      swap1\n      return\n        /* \"UsersMixin.sol\":476:1165   */\n    tag_28:\n      tag_170\n      0x04\n      dup1\n      calldatasize\n      sub\n      dup2\n      add\n      swap1\n      tag_171\n      swap2\n      swap1\n      tag_96\n      jump\t// in\n    tag_171:\n      tag_172\n      jump\t// in\n    tag_170:\n      stop\n        /* \"UsersStorage.sol\":691:724   */\n    tag_29:\n      callvalue\n      dup1\n      iszero\n      tag_173\n      jumpi\n      0x00\n      dup1\n      revert\n    tag_173:\n      pop\n      tag_174\n      0x04\n      dup1\n      calldatasize\n      sub\n      dup2\n      add\n      swap1\n      tag_175\n      swap2\n      swap1\n      tag_54\n      jump\t// in\n    tag_175:\n      tag_176\n      jump\t// in\n    tag_174:\n      mload(0x40)\n      tag_177\n      swap7\n      swap6\n      swap5\n      swap4\n      swap3\n      swap2\n      swap1\n      tag_124\n      jump\t// in\n    tag_177:\n      mload(0x40)\n      dup1\n      swap2\n      sub\n      swap1\n      return\n        /* \"UsersStorage.sol\":773:823   */\n    tag_30:\n      callvalue\n      dup1\n      iszero\n      tag_178\n      jumpi\n      0x00\n      dup1\n      revert\n    tag_178:\n      pop\n      tag_179\n      0x04\n      dup1\n      calldatasize\n      sub\n      dup2\n      add\n      swap1\n      tag_180\n      swap2\n      swap1\n      tag_127\n      jump\t// in\n    tag_180:\n      tag_181\n      jump\t// in\n    tag_179:\n      mload(0x40)\n      tag_182\n      swap7\n      swap6\n      swap5\n      swap4\n      swap3\n      swap2\n      swap1\n      tag_124\n      jump\t// in\n    tag_182:\n      mload(0x40)\n      dup1\n      swap2\n      sub\n      swap1\n      return\n        /* \"UsersStorage.sol\":1504:1529   */\n    tag_31:\n      callvalue\n      dup1\n      iszero\n      tag_183\n      jumpi\n      0x00\n      dup1\n      revert\n    tag_183:\n      pop\n      tag_184\n      tag_185\n      jump\t// in\n    tag_184:\n      mload(0x40)\n      tag_186\n      swap2\n      swap1\n      tag_57\n      jump\t// in\n    tag_186:\n      mload(0x40)\n      dup1\n      swap2\n      sub\n      swap1\n      return\n        /* \"UsersMixin.sol\":1171:1508   */\n    tag_32:\n      tag_187\n      0x04\n      dup1\n      calldatasize\n      sub\n      dup2\n      add\n      swap1\n      tag_188\n      swap2\n      swap1\n      tag_189\n      jump\t// in\n    tag_188:\n      tag_190\n      jump\t// in\n    tag_187:\n      stop\n        /* \"UsersStorage.sol\":655:685   */\n    tag_33:\n      callvalue\n      dup1\n      iszero\n      tag_191\n      jumpi\n      0x00\n      dup1\n      revert\n    tag_191:\n      pop\n      tag_192\n      0x04\n      dup1\n      calldatasize\n      sub\n      dup2\n      add\n      swap1\n      tag_193\n      swap2\n      swap1\n      tag_54\n      jump\t// in\n    tag_193:\n      tag_194\n      jump\t// in\n    tag_192:\n      mload(0x40)\n      tag_195\n      swap9\n      swap8\n      swap7\n      swap6\n      swap5\n      swap4\n      swap3\n      swap2\n      swap1\n      tag_104\n      jump\t// in\n    tag_195:\n      mload(0x40)\n      dup1\n      swap2\n      sub\n      swap1\n      return\n        /* \"UsersStorage.sol\":1311:1358   */\n    tag_34:\n      callvalue\n      dup1\n      iszero\n      tag_196\n      jumpi\n      0x00\n      dup1\n      revert\n    tag_196:\n      pop\n      tag_197\n      0x04\n      dup1\n      calldatasize\n      sub\n      dup2\n      add\n      swap1\n      tag_198\n      swap2\n      swap1\n      tag_75\n      jump\t// in\n    tag_198:\n      tag_199\n      jump\t// in\n    tag_197:\n      mload(0x40)\n      tag_200\n      swap2\n      swap1\n      tag_93\n      jump\t// in\n    tag_200:\n      mload(0x40)\n      dup1\n      swap2\n      sub\n      swap1\n      return\n        /* \"UsersMixin.sol\":4023:4749   */\n    tag_35:\n      tag_201\n      0x04\n      dup1\n      calldatasize\n      sub\n      dup2\n      add\n      swap1\n      tag_202\n      swap2\n      swap1\n      tag_107\n      jump\t// in\n    tag_202:\n      tag_203\n      jump\t// in\n    tag_201:\n      stop\n        /* \"UsersStorage.sol\":1060:1108   */\n    tag_36:\n      callvalue\n      dup1\n      iszero\n      tag_204\n      jumpi\n      0x00\n      dup1\n      revert\n    tag_204:\n      pop\n      tag_205\n      0x04\n      dup1\n      calldatasize\n      sub\n      dup2\n      add\n      swap1\n      tag_206\n      swap2\n      swap1\n      tag_75\n      jump\t// in\n    tag_206:\n      tag_207\n      jump\t// in\n    tag_205:\n      mload(0x40)\n      tag_208\n      swap9\n      swap8\n      swap7\n      swap6\n      swap5\n      swap4\n      swap3\n      swap2\n      swap1\n      tag_104\n      jump\t// in\n    tag_208:\n      mload(0x40)\n      dup1\n      swap2\n      sub\n      swap1\n      return\n        /* \"UsersStorage.sol\":995:1054   */\n    tag_37:\n      callvalue\n      dup1\n      iszero\n      tag_209\n      jumpi\n      0x00\n      dup1\n      revert\n    tag_209:\n      pop\n      tag_210\n      0x04\n      dup1\n      calldatasize\n      sub\n      dup2\n      add\n      swap1\n      tag_211\n      swap2\n      swap1\n      tag_127\n      jump\t// in\n    tag_211:\n      tag_212\n      jump\t// in\n    tag_210:\n      mload(0x40)\n      tag_213\n      swap7\n      swap6\n      swap5\n      swap4\n      swap3\n      swap2\n      swap1\n      tag_124\n      jump\t// in\n    tag_213:\n      mload(0x40)\n      dup1\n      swap2\n      sub\n      swap1\n      return\n        /* \"UsersStorage.sol\":1421:1470   */\n    tag_55:\n      mstore(0x20, 0x12)\n      dup1\n      0x00\n      mstore\n      keccak256(0x00, 0x40)\n      0x00\n      swap2\n      pop\n      swap1\n      pop\n      sload\n      dup2\n      jump\t// out\n        /* \"UsersMixin.sol\":4755:4997   */\n    tag_61:\n        /* \"UsersMixin.sol\":241:248   */\n      0x00\n      dup1\n      sload\n      swap1\n      0x0100\n      exp\n      swap1\n      div\n      0xffffffffffffffffffffffffffffffffffffffff\n      and\n        /* \"UsersMixin.sol\":227:248   */\n      0xffffffffffffffffffffffffffffffffffffffff\n      and\n        /* \"UsersMixin.sol\":227:237   */\n      caller\n        /* \"UsersMixin.sol\":227:248   */\n      0xffffffffffffffffffffffffffffffffffffffff\n      and\n      eq\n        /* \"UsersMixin.sol\":219:249   */\n      tag_215\n      jumpi\n      0x00\n      dup1\n      revert\n    tag_215:\n        /* \"UsersMixin.sol\":4866:4882   */\n      0x03\n      0x00\n        /* \"UsersMixin.sol\":4859:4882   */\n      tag_217\n      swap2\n      swap1\n      tag_218\n      jump\t// in\n    tag_217:\n        /* \"UsersMixin.sol\":4896:4902   */\n      0x00\n        /* \"UsersMixin.sol\":4891:4991   */\n    tag_219:\n        /* \"UsersMixin.sol\":4912:4913   */\n      0x05\n        /* \"UsersMixin.sol\":4908:4909   */\n      dup2\n        /* \"UsersMixin.sol\":4908:4913   */\n      lt\n        /* \"UsersMixin.sol\":4891:4991   */\n      iszero\n      tag_220\n      jumpi\n        /* \"UsersMixin.sol\":4930:4946   */\n      0x03\n        /* \"UsersMixin.sol\":4952:4957   */\n      0x05\n        /* \"UsersMixin.sol\":4952:4981   */\n      0x00\n        /* \"UsersMixin.sol\":4958:4977   */\n      dup5\n        /* \"UsersMixin.sol\":4978:4979   */\n      dup5\n        /* \"UsersMixin.sol\":4958:4980   */\n      dup2\n      mload\n      dup2\n      lt\n      tag_222\n      jumpi\n      tag_223\n      tag_224\n      jump\t// in\n    tag_223:\n    tag_222:\n      0x20\n      mul\n      0x20\n      add\n      add\n      mload\n        /* \"UsersMixin.sol\":4952:4981   */\n      0xffffffffffffffffffffffffffffffffffffffff\n      and\n      0xffffffffffffffffffffffffffffffffffffffff\n      and\n      dup2\n      mstore\n      0x20\n      add\n      swap1\n      dup2\n      mstore\n      0x20\n      add\n      0x00\n      keccak256\n        /* \"UsersMixin.sol\":4930:4982   */\n      swap1\n      dup1\n      0x01\n      dup2\n      sload\n      add\n      dup1\n      dup3\n      sstore\n      dup1\n      swap2\n      pop\n      pop\n      0x01\n      swap1\n      sub\n      swap1\n      0x00\n      mstore\n      keccak256(0x00, 0x20)\n      swap1\n      0x08\n      mul\n      add\n      0x00\n      swap1\n      swap2\n      swap1\n      swap2\n      swap1\n      swap2\n      pop\n      0x00\n      dup3\n      add\n      sload\n      dup2\n      0x00\n      add\n      sstore\n      0x01\n      dup3\n      add\n      0x00\n      swap1\n      sload\n      swap1\n      0x0100\n      exp\n      swap1\n      div\n      0xffffffffffffffffffffffffffffffffffffffff\n      and\n      dup2\n      0x01\n      add\n      exp(0x0100, 0x00)\n      dup2\n      sload\n      dup2\n      0xffffffffffffffffffffffffffffffffffffffff\n      mul\n      not\n      and\n      swap1\n      dup4\n      0xffffffffffffffffffffffffffffffffffffffff\n      and\n      mul\n      or\n      swap1\n      sstore\n      pop\n      0x02\n      dup3\n      add\n      dup2\n      0x02\n      add\n      swap1\n      dup2\n      tag_226\n      swap2\n      swap1\n      tag_227\n      jump\t// in\n    tag_226:\n      pop\n      0x03\n      dup3\n      add\n      dup2\n      0x03\n      add\n      swap1\n      dup2\n      tag_228\n      swap2\n      swap1\n      tag_227\n      jump\t// in\n    tag_228:\n      pop\n      0x04\n      dup3\n      add\n      dup2\n      0x04\n      add\n      swap1\n      dup2\n      tag_229\n      swap2\n      swap1\n      tag_227\n      jump\t// in\n    tag_229:\n      pop\n      0x05\n      dup3\n      add\n      sload\n      dup2\n      0x05\n      add\n      sstore\n      0x06\n      dup3\n      add\n      sload\n      dup2\n      0x06\n      add\n      sstore\n      0x07\n      dup3\n      add\n      dup2\n      0x07\n      add\n      swap1\n      dup2\n      tag_230\n      swap2\n      swap1\n      tag_227\n      jump\t// in\n    tag_230:\n      pop\n      pop\n      pop\n        /* \"UsersMixin.sol\":4915:4918   */\n      dup1\n      dup1\n      tag_231\n      swap1\n      tag_232\n      jump\t// in\n    tag_231:\n      swap2\n      pop\n      pop\n        /* \"UsersMixin.sol\":4891:4991   */\n      jump(tag_219)\n    tag_220:\n      pop\n        /* \"UsersMixin.sol\":4755:4997   */\n      pop\n      jump\t// out\n        /* \"UsersMixin.sol\":5236:5843   */\n    tag_65:\n        /* \"UsersMixin.sol\":5378:5394   */\n      0x0e\n        /* \"UsersMixin.sol\":5378:5406   */\n      0x00\n        /* \"UsersMixin.sol\":5395:5405   */\n      caller\n        /* \"UsersMixin.sol\":5378:5406   */\n      0xffffffffffffffffffffffffffffffffffffffff\n      and\n      0xffffffffffffffffffffffffffffffffffffffff\n      and\n      dup2\n      mstore\n      0x20\n      add\n      swap1\n      dup2\n      mstore\n      0x20\n      add\n      0x00\n      keccak256\n      0x00\n      swap1\n      sload\n      swap1\n      0x0100\n      exp\n      swap1\n      div\n      0xff\n      and\n        /* \"UsersMixin.sol\":5370:5407   */\n      tag_234\n      jumpi\n      0x00\n      dup1\n      revert\n    tag_234:\n        /* \"UsersMixin.sol\":5415:5438   */\n      0x00\n        /* \"UsersMixin.sol\":5441:5452   */\n      0x02\n        /* \"UsersMixin.sol\":5453:5462   */\n      dup6\n        /* \"UsersMixin.sol\":5441:5463   */\n      dup2\n      sload\n      dup2\n      lt\n      tag_235\n      jumpi\n      tag_236\n      tag_224\n      jump\t// in\n    tag_236:\n    tag_235:\n      swap1\n      0x00\n      mstore\n      keccak256(0x00, 0x20)\n      swap1\n      0x06\n      mul\n      add\n        /* \"UsersMixin.sol\":5415:5463   */\n      swap1\n      pop\n        /* \"UsersMixin.sol\":5471:5488   */\n      0x00\n        /* \"UsersMixin.sol\":5491:5496   */\n      0x05\n        /* \"UsersMixin.sol\":5491:5509   */\n      0x00\n        /* \"UsersMixin.sol\":5497:5508   */\n      dup7\n        /* \"UsersMixin.sol\":5491:5509   */\n      0xffffffffffffffffffffffffffffffffffffffff\n      and\n      0xffffffffffffffffffffffffffffffffffffffff\n      and\n      dup2\n      mstore\n      0x20\n      add\n      swap1\n      dup2\n      mstore\n      0x20\n      add\n      0x00\n      keccak256\n        /* \"UsersMixin.sol\":5471:5509   */\n      swap1\n      pop\n        /* \"UsersMixin.sol\":5518:5522   */\n      dup1\n        /* \"UsersMixin.sol\":5518:5539   */\n      0x05\n      add\n      0x00\n        /* \"UsersMixin.sol\":5518:5541   */\n      dup2\n      sload\n      dup1\n      swap3\n      swap2\n      swap1\n      tag_238\n      swap1\n      tag_239\n      jump\t// in\n    tag_238:\n      swap2\n      swap1\n      pop\n      sstore\n      pop\n        /* \"UsersMixin.sol\":5549:5562   */\n      0x06\n        /* \"UsersMixin.sol\":5549:5575   */\n      0x00\n        /* \"UsersMixin.sol\":5563:5574   */\n      dup7\n        /* \"UsersMixin.sol\":5549:5575   */\n      0xffffffffffffffffffffffffffffffffffffffff\n      and\n      0xffffffffffffffffffffffffffffffffffffffff\n      and\n      dup2\n      mstore\n      0x20\n      add\n      swap1\n      dup2\n      mstore\n      0x20\n      add\n      0x00\n      keccak256\n      pop\n        /* \"UsersMixin.sol\":5583:5602   */\n      0x11\n        /* \"UsersMixin.sol\":5583:5615   */\n      0x00\n        /* \"UsersMixin.sol\":5603:5614   */\n      dup7\n        /* \"UsersMixin.sol\":5583:5615   */\n      0xffffffffffffffffffffffffffffffffffffffff\n      and\n      0xffffffffffffffffffffffffffffffffffffffff\n      and\n      dup2\n      mstore\n      0x20\n      add\n      swap1\n      dup2\n      mstore\n      0x20\n      add\n      0x00\n      keccak256\n      0x00\n        /* \"UsersMixin.sol\":5583:5617   */\n      dup2\n      sload\n      dup1\n      swap3\n      swap2\n      swap1\n      tag_240\n      swap1\n      tag_239\n      jump\t// in\n    tag_240:\n      swap2\n      swap1\n      pop\n      sstore\n      pop\n        /* \"UsersMixin.sol\":5645:5649   */\n      dup1\n        /* \"UsersMixin.sol\":5625:5633   */\n      0x01\n        /* \"UsersMixin.sol\":5634:5638   */\n      dup3\n        /* \"UsersMixin.sol\":5634:5641   */\n      0x00\n      add\n      sload\n        /* \"UsersMixin.sol\":5625:5642   */\n      dup2\n      sload\n      dup2\n      lt\n      tag_241\n      jumpi\n      tag_242\n      tag_224\n      jump\t// in\n    tag_242:\n    tag_241:\n      swap1\n      0x00\n      mstore\n      keccak256(0x00, 0x20)\n      swap1\n      0x08\n      mul\n      add\n        /* \"UsersMixin.sol\":5625:5649   */\n      0x00\n      dup3\n      add\n      sload\n      dup2\n      0x00\n      add\n      sstore\n      0x01\n      dup3\n      add\n      0x00\n      swap1\n      sload\n      swap1\n      0x0100\n      exp\n      swap1\n      div\n      0xffffffffffffffffffffffffffffffffffffffff\n      and\n      dup2\n      0x01\n      add\n      exp(0x0100, 0x00)\n      dup2\n      sload\n      dup2\n      0xffffffffffffffffffffffffffffffffffffffff\n      mul\n      not\n      and\n      swap1\n      dup4\n      0xffffffffffffffffffffffffffffffffffffffff\n      and\n      mul\n      or\n      swap1\n      sstore\n      pop\n      0x02\n      dup3\n      add\n      dup2\n      0x02\n      add\n      swap1\n      dup2\n      tag_244\n      swap2\n      swap1\n      tag_227\n      jump\t// in\n    tag_244:\n      pop\n      0x03\n      dup3\n      add\n      dup2\n      0x03\n      add\n      swap1\n      dup2\n      tag_245\n      swap2\n      swap1\n      tag_227\n      jump\t// in\n    tag_245:\n      pop\n      0x04\n      dup3\n      add\n      dup2\n      0x04\n      add\n      swap1\n      dup2\n      tag_246\n      swap2\n      swap1\n      tag_227\n      jump\t// in\n    tag_246:\n      pop\n      0x05\n      dup3\n      add\n      sload\n      dup2\n      0x05\n      add\n      sstore\n      0x06\n      dup3\n      add\n      sload\n      dup2\n      0x06\n      add\n      sstore\n      0x07\n      dup3\n      add\n      dup2\n      0x07\n      add\n      swap1\n      dup2\n      tag_247\n      swap2\n      swap1\n      tag_227\n      jump\t// in\n    tag_247:\n      pop\n      swap1\n      pop\n      pop\n        /* \"UsersMixin.sol\":5658:5665   */\n      dup2\n        /* \"UsersMixin.sol\":5658:5678   */\n      0x04\n      add\n      0x00\n        /* \"UsersMixin.sol\":5658:5680   */\n      dup2\n      sload\n      dup1\n      swap3\n      swap2\n      swap1\n      tag_248\n      swap1\n      tag_239\n      jump\t// in\n    tag_248:\n      swap2\n      swap1\n      pop\n      sstore\n      pop\n        /* \"UsersMixin.sol\":5688:5708   */\n      0x12\n        /* \"UsersMixin.sol\":5688:5719   */\n      0x00\n        /* \"UsersMixin.sol\":5709:5718   */\n      dup8\n        /* \"UsersMixin.sol\":5688:5719   */\n      dup2\n      mstore\n      0x20\n      add\n      swap1\n      dup2\n      mstore\n      0x20\n      add\n      0x00\n      keccak256\n      0x00\n        /* \"UsersMixin.sol\":5688:5721   */\n      dup2\n      sload\n      dup1\n      swap3\n      swap2\n      swap1\n      tag_249\n      swap1\n      tag_239\n      jump\t// in\n    tag_249:\n      swap2\n      swap1\n      pop\n      sstore\n      pop\n        /* \"UsersMixin.sol\":5737:5750   */\n      0x06\n        /* \"UsersMixin.sol\":5737:5763   */\n      0x00\n        /* \"UsersMixin.sol\":5751:5762   */\n      dup7\n        /* \"UsersMixin.sol\":5737:5763   */\n      0xffffffffffffffffffffffffffffffffffffffff\n      and\n      0xffffffffffffffffffffffffffffffffffffffff\n      and\n      dup2\n      mstore\n      0x20\n      add\n      swap1\n      dup2\n      mstore\n      0x20\n      add\n      0x00\n      keccak256\n        /* \"UsersMixin.sol\":5764:5780   */\n      dup5\n        /* \"UsersMixin.sol\":5737:5781   */\n      dup2\n      sload\n      dup2\n      lt\n      tag_250\n      jumpi\n      tag_251\n      tag_224\n      jump\t// in\n    tag_251:\n    tag_250:\n      swap1\n      0x00\n      mstore\n      keccak256(0x00, 0x20)\n      swap1\n      0x06\n      mul\n      add\n      0x00\n        /* \"UsersMixin.sol\":5730:5781   */\n      dup1\n      dup3\n      add\n      0x00\n      swap1\n      sstore\n      0x01\n      dup3\n      add\n      0x00\n      tag_253\n      swap2\n      swap1\n      tag_254\n      jump\t// in\n    tag_253:\n      0x02\n      dup3\n      add\n      0x00\n      tag_255\n      swap2\n      swap1\n      tag_254\n      jump\t// in\n    tag_255:\n      0x03\n      dup3\n      add\n      0x00\n      tag_256\n      swap2\n      swap1\n      tag_254\n      jump\t// in\n    tag_256:\n      0x04\n      dup3\n      add\n      0x00\n      swap1\n      sstore\n      0x05\n      dup3\n      add\n      0x00\n      swap1\n      sstore\n      pop\n      pop\n        /* \"UsersMixin.sol\":5796:5810   */\n      0x08\n        /* \"UsersMixin.sol\":5796:5821   */\n      0x00\n        /* \"UsersMixin.sol\":5811:5820   */\n      dup8\n        /* \"UsersMixin.sol\":5796:5821   */\n      dup2\n      mstore\n      0x20\n      add\n      swap1\n      dup2\n      mstore\n      0x20\n      add\n      0x00\n      keccak256\n        /* \"UsersMixin.sol\":5822:5835   */\n      dup4\n        /* \"UsersMixin.sol\":5796:5836   */\n      dup2\n      sload\n      dup2\n      lt\n      tag_257\n      jumpi\n      tag_258\n      tag_224\n      jump\t// in\n    tag_258:\n    tag_257:\n      swap1\n      0x00\n      mstore\n      keccak256(0x00, 0x20)\n      swap1\n      0x08\n      mul\n      add\n      0x00\n        /* \"UsersMixin.sol\":5789:5836   */\n      dup1\n      dup3\n      add\n      0x00\n      swap1\n      sstore\n      0x01\n      dup3\n      add\n      exp(0x0100, 0x00)\n      dup2\n      sload\n      swap1\n      0xffffffffffffffffffffffffffffffffffffffff\n      mul\n      not\n      and\n      swap1\n      sstore\n      0x02\n      dup3\n      add\n      0x00\n      tag_260\n      swap2\n      swap1\n      tag_254\n      jump\t// in\n    tag_260:\n      0x03\n      dup3\n      add\n      0x00\n      tag_261\n      swap2\n      swap1\n      tag_254\n      jump\t// in\n    tag_261:\n      0x04\n      dup3\n      add\n      0x00\n      tag_262\n      swap2\n      swap1\n      tag_254\n      jump\t// in\n    tag_262:\n      0x05\n      dup3\n      add\n      0x00\n      swap1\n      sstore\n      0x06\n      dup3\n      add\n      0x00\n      swap1\n      sstore\n      0x07\n      dup3\n      add\n      0x00\n      tag_263\n      swap2\n      swap1\n      tag_254\n      jump\t// in\n    tag_263:\n      pop\n      pop\n        /* \"UsersMixin.sol\":5362:5843   */\n      pop\n      pop\n        /* \"UsersMixin.sol\":5236:5843   */\n      pop\n      pop\n      pop\n      pop\n      jump\t// out\n        /* \"UsersProxy.sol\":544:754  function transferEtherToImplementation() public {... */\n    tag_68:\n        /* \"UsersProxy.sol\":624:631  manager */\n      0x00\n      dup1\n      sload\n      swap1\n      0x0100\n      exp\n      swap1\n      div\n      0xffffffffffffffffffffffffffffffffffffffff\n      and\n        /* \"UsersProxy.sol\":610:631  msg.sender == manager */\n      0xffffffffffffffffffffffffffffffffffffffff\n      and\n        /* \"UsersProxy.sol\":610:620  msg.sender */\n      caller\n        /* \"UsersProxy.sol\":610:631  msg.sender == manager */\n      0xffffffffffffffffffffffffffffffffffffffff\n      and\n      eq\n        /* \"UsersProxy.sol\":602:672  require(msg.sender == manager, \"Only the manager can transfer Ether.\") */\n      tag_265\n      jumpi\n      mload(0x40)\n      0x08c379a000000000000000000000000000000000000000000000000000000000\n      dup2\n      mstore\n      0x04\n      add\n      tag_266\n      swap1\n      tag_267\n      jump\t// in\n    tag_266:\n      mload(0x40)\n      dup1\n      swap2\n      sub\n      swap1\n      revert\n    tag_265:\n        /* \"UsersProxy.sol\":693:707  implementation */\n      0x15\n      0x00\n      swap1\n      sload\n      swap1\n      0x0100\n      exp\n      swap1\n      div\n      0xffffffffffffffffffffffffffffffffffffffff\n      and\n        /* \"UsersProxy.sol\":682:722  UsersMixin(implementation).transferEther */\n      0xffffffffffffffffffffffffffffffffffffffff\n      and\n      0x6b55e991\n        /* \"UsersProxy.sol\":731:745  implementation */\n      0x15\n      0x00\n      swap1\n      sload\n      swap1\n      0x0100\n      exp\n      swap1\n      div\n      0xffffffffffffffffffffffffffffffffffffffff\n      and\n        /* \"UsersProxy.sol\":682:747  UsersMixin(implementation).transferEther(payable(implementation)) */\n      mload(0x40)\n      dup3\n      0xffffffff\n      and\n      0xe0\n      shl\n      dup2\n      mstore\n      0x04\n      add\n      tag_268\n      swap2\n      swap1\n      tag_269\n      jump\t// in\n    tag_268:\n      0x00\n      mload(0x40)\n      dup1\n      dup4\n      sub\n      dup2\n      0x00\n      dup8\n      dup1\n      extcodesize\n      iszero\n      dup1\n      iszero\n      tag_270\n      jumpi\n      0x00\n      dup1\n      revert\n    tag_270:\n      pop\n      gas\n      call\n      iszero\n      dup1\n      iszero\n      tag_272\n      jumpi\n      returndatasize\n      0x00\n      dup1\n      returndatacopy\n      revert(0x00, returndatasize)\n    tag_272:\n      pop\n      pop\n      pop\n      pop\n        /* \"UsersProxy.sol\":544:754  function transferEtherToImplementation() public {... */\n      jump\t// out\n        /* \"UsersMixin.sol\":5003:5230   */\n    tag_72:\n        /* \"UsersMixin.sol\":241:248   */\n      0x00\n      dup1\n      sload\n      swap1\n      0x0100\n      exp\n      swap1\n      div\n      0xffffffffffffffffffffffffffffffffffffffff\n      and\n        /* \"UsersMixin.sol\":227:248   */\n      0xffffffffffffffffffffffffffffffffffffffff\n      and\n        /* \"UsersMixin.sol\":227:237   */\n      caller\n        /* \"UsersMixin.sol\":227:248   */\n      0xffffffffffffffffffffffffffffffffffffffff\n      and\n      eq\n        /* \"UsersMixin.sol\":219:249   */\n      tag_274\n      jumpi\n      0x00\n      dup1\n      revert\n    tag_274:\n        /* \"UsersMixin.sol\":5102:5118   */\n      0x04\n      0x00\n        /* \"UsersMixin.sol\":5095:5118   */\n      tag_276\n      swap2\n      swap1\n      tag_277\n      jump\t// in\n    tag_276:\n        /* \"UsersMixin.sol\":5132:5138   */\n      0x00\n        /* \"UsersMixin.sol\":5127:5224   */\n    tag_278:\n        /* \"UsersMixin.sol\":5148:5149   */\n      0x05\n        /* \"UsersMixin.sol\":5144:5145   */\n      dup2\n        /* \"UsersMixin.sol\":5144:5149   */\n      lt\n        /* \"UsersMixin.sol\":5127:5224   */\n      iszero\n      tag_279\n      jumpi\n        /* \"UsersMixin.sol\":5166:5182   */\n      0x04\n        /* \"UsersMixin.sol\":5188:5199   */\n      0x02\n        /* \"UsersMixin.sol\":5200:5210   */\n      dup4\n        /* \"UsersMixin.sol\":5211:5212   */\n      dup4\n        /* \"UsersMixin.sol\":5200:5213   */\n      dup2\n      mload\n      dup2\n      lt\n      tag_281\n      jumpi\n      tag_282\n      tag_224\n      jump\t// in\n    tag_282:\n    tag_281:\n      0x20\n      mul\n      0x20\n      add\n      add\n      mload\n        /* \"UsersMixin.sol\":5188:5214   */\n      dup2\n      sload\n      dup2\n      lt\n      tag_283\n      jumpi\n      tag_284\n      tag_224\n      jump\t// in\n    tag_284:\n    tag_283:\n      swap1\n      0x00\n      mstore\n      keccak256(0x00, 0x20)\n      swap1\n      0x06\n      mul\n      add\n        /* \"UsersMixin.sol\":5166:5215   */\n      swap1\n      dup1\n      0x01\n      dup2\n      sload\n      add\n      dup1\n      dup3\n      sstore\n      dup1\n      swap2\n      pop\n      pop\n      0x01\n      swap1\n      sub\n      swap1\n      0x00\n      mstore\n      keccak256(0x00, 0x20)\n      swap1\n      0x06\n      mul\n      add\n      0x00\n      swap1\n      swap2\n      swap1\n      swap2\n      swap1\n      swap2\n      pop\n      0x00\n      dup3\n      add\n      sload\n      dup2\n      0x00\n      add\n      sstore\n      0x01\n      dup3\n      add\n      dup2\n      0x01\n      add\n      swap1\n      dup2\n      tag_287\n      swap2\n      swap1\n      tag_227\n      jump\t// in\n    tag_287:\n      pop\n      0x02\n      dup3\n      add\n      dup2\n      0x02\n      add\n      swap1\n      dup2\n      tag_288\n      swap2\n      swap1\n      tag_227\n      jump\t// in\n    tag_288:\n      pop\n      0x03\n      dup3\n      add\n      dup2\n      0x03\n      add\n      swap1\n      dup2\n      tag_289\n      swap2\n      swap1\n      tag_227\n      jump\t// in\n    tag_289:\n      pop\n      0x04\n      dup3\n      add\n      sload\n      dup2\n      0x04\n      add\n      sstore\n      0x05\n      dup3\n      add\n      sload\n      dup2\n      0x05\n      add\n      sstore\n      pop\n      pop\n        /* \"UsersMixin.sol\":5151:5154   */\n      dup1\n      dup1\n      tag_290\n      swap1\n      tag_232\n      jump\t// in\n    tag_290:\n      swap2\n      pop\n      pop\n        /* \"UsersMixin.sol\":5127:5224   */\n      jump(tag_278)\n    tag_279:\n      pop\n        /* \"UsersMixin.sol\":5003:5230   */\n      pop\n      jump\t// out\n        /* \"UsersMixin.sol\":1514:1746   */\n    tag_76:\n        /* \"UsersMixin.sol\":1602:1618   */\n      0x0e\n        /* \"UsersMixin.sol\":1602:1630   */\n      0x00\n        /* \"UsersMixin.sol\":1619:1629   */\n      caller\n        /* \"UsersMixin.sol\":1602:1630   */\n      0xffffffffffffffffffffffffffffffffffffffff\n      and\n      0xffffffffffffffffffffffffffffffffffffffff\n      and\n      dup2\n      mstore\n      0x20\n      add\n      swap1\n      dup2\n      mstore\n      0x20\n      add\n      0x00\n      keccak256\n      0x00\n      swap1\n      sload\n      swap1\n      0x0100\n      exp\n      swap1\n      div\n      0xff\n      and\n        /* \"UsersMixin.sol\":1594:1631   */\n      tag_292\n      jumpi\n      0x00\n      dup1\n      revert\n    tag_292:\n        /* \"UsersMixin.sol\":1639:1653   */\n      0x00\n        /* \"UsersMixin.sol\":1656:1661   */\n      0x05\n        /* \"UsersMixin.sol\":1656:1673   */\n      0x00\n        /* \"UsersMixin.sol\":1662:1672   */\n      caller\n        /* \"UsersMixin.sol\":1656:1673   */\n      0xffffffffffffffffffffffffffffffffffffffff\n      and\n      0xffffffffffffffffffffffffffffffffffffffff\n      and\n      dup2\n      mstore\n      0x20\n      add\n      swap1\n      dup2\n      mstore\n      0x20\n      add\n      0x00\n      keccak256\n        /* \"UsersMixin.sol\":1639:1673   */\n      swap1\n      pop\n        /* \"UsersMixin.sol\":1706:1713   */\n      dup2\n        /* \"UsersMixin.sol\":1681:1682   */\n      dup2\n        /* \"UsersMixin.sol\":1681:1703   */\n      0x07\n      add\n        /* \"UsersMixin.sol\":1681:1713   */\n      swap1\n      dup2\n      tag_293\n      swap2\n      swap1\n      tag_294\n      jump\t// in\n    tag_293:\n      pop\n        /* \"UsersMixin.sol\":1738:1739   */\n      dup1\n        /* \"UsersMixin.sol\":1721:1729   */\n      0x01\n        /* \"UsersMixin.sol\":1730:1731   */\n      dup3\n        /* \"UsersMixin.sol\":1730:1734   */\n      0x00\n      add\n      sload\n        /* \"UsersMixin.sol\":1721:1735   */\n      dup2\n      sload\n      dup2\n      lt\n      tag_295\n      jumpi\n      tag_296\n      tag_224\n      jump\t// in\n    tag_296:\n    tag_295:\n      swap1\n      0x00\n      mstore\n      keccak256(0x00, 0x20)\n      swap1\n      0x08\n      mul\n      add\n        /* \"UsersMixin.sol\":1721:1739   */\n      0x00\n      dup3\n      add\n      sload\n      dup2\n      0x00\n      add\n      sstore\n      0x01\n      dup3\n      add\n      0x00\n      swap1\n      sload\n      swap1\n      0x0100\n      exp\n      swap1\n      div\n      0xffffffffffffffffffffffffffffffffffffffff\n      and\n      dup2\n      0x01\n      add\n      exp(0x0100, 0x00)\n      dup2\n      sload\n      dup2\n      0xffffffffffffffffffffffffffffffffffffffff\n      mul\n      not\n      and\n      swap1\n      dup4\n      0xffffffffffffffffffffffffffffffffffffffff\n      and\n      mul\n      or\n      swap1\n      sstore\n      pop\n      0x02\n      dup3\n      add\n      dup2\n      0x02\n      add\n      swap1\n      dup2\n      tag_298\n      swap2\n      swap1\n      tag_227\n      jump\t// in\n    tag_298:\n      pop\n      0x03\n      dup3\n      add\n      dup2\n      0x03\n      add\n      swap1\n      dup2\n      tag_299\n      swap2\n      swap1\n      tag_227\n      jump\t// in\n    tag_299:\n      pop\n      0x04\n      dup3\n      add\n      dup2\n      0x04\n      add\n      swap1\n      dup2\n      tag_300\n      swap2\n      swap1\n      tag_227\n      jump\t// in\n    tag_300:\n      pop\n      0x05\n      dup3\n      add\n      sload\n      dup2\n      0x05\n      add\n      sstore\n      0x06\n      dup3\n      add\n      sload\n      dup2\n      0x06\n      add\n      sstore\n      0x07\n      dup3\n      add\n      dup2\n      0x07\n      add\n      swap1\n      dup2\n      tag_301\n      swap2\n      swap1\n      tag_227\n      jump\t// in\n    tag_301:\n      pop\n      swap1\n      pop\n      pop\n        /* \"UsersMixin.sol\":1586:1746   */\n      pop\n        /* \"UsersMixin.sol\":1514:1746   */\n      pop\n      jump\t// out\n        /* \"UsersStorage.sol\":1114:1154   */\n    tag_80:\n      0x0c\n      dup2\n      dup1\n      mload\n      0x20\n      dup2\n      add\n      dup3\n      add\n      dup1\n      mload\n      dup5\n      dup3\n      mstore\n      0x20\n      dup4\n      add\n      0x20\n      dup6\n      add\n      keccak256\n      dup2\n      dup4\n      mstore\n      dup1\n      swap6\n      pop\n      pop\n      pop\n      pop\n      pop\n      pop\n      0x00\n      swap2\n      pop\n      swap1\n      pop\n      sload\n      dup2\n      jump\t// out\n        /* \"UsersStorage.sol\":1364:1415   */\n    tag_86:\n      mstore(0x20, 0x11)\n      dup1\n      0x00\n      mstore\n      keccak256(0x00, 0x40)\n      0x00\n      swap2\n      pop\n      swap1\n      pop\n      sload\n      dup2\n      jump\t// out\n        /* \"UsersStorage.sol\":1261:1305   */\n    tag_91:\n      0x0f\n      dup2\n      dup1\n      mload\n      0x20\n      dup2\n      add\n      dup3\n      add\n      dup1\n      mload\n      dup5\n      dup3\n      mstore\n      0x20\n      dup4\n      add\n      0x20\n      dup6\n      add\n      keccak256\n      dup2\n      dup4\n      mstore\n      dup1\n      swap6\n      pop\n      pop\n      pop\n      pop\n      pop\n      pop\n      0x00\n      swap2\n      pop\n      sload\n      swap1\n      0x0100\n      exp\n      swap1\n      div\n      0xff\n      and\n      dup2\n      jump\t// out\n        /* \"UsersMixin.sol\":1752:2639   */\n    tag_97:\n        /* \"UsersMixin.sol\":1908:1924   */\n      0x10\n        /* \"UsersMixin.sol\":1925:1936   */\n      dup4\n        /* \"UsersMixin.sol\":1908:1937   */\n      mload(0x40)\n      tag_303\n      swap2\n      swap1\n      tag_304\n      jump\t// in\n    tag_303:\n      swap1\n      dup2\n      mstore\n      0x20\n      add\n      mload(0x40)\n      dup1\n      swap2\n      sub\n      swap1\n      keccak256\n      0x00\n      swap1\n      sload\n      swap1\n      0x0100\n      exp\n      swap1\n      div\n      0xff\n      and\n        /* \"UsersMixin.sol\":1907:1937   */\n      iszero\n        /* \"UsersMixin.sol\":1899:1938   */\n      tag_305\n      jumpi\n      0x00\n      dup1\n      revert\n    tag_305:\n        /* \"UsersMixin.sol\":1948:1965   */\n      0x00\n        /* \"UsersMixin.sol\":1968:1973   */\n      0x05\n        /* \"UsersMixin.sol\":1968:1986   */\n      0x00\n        /* \"UsersMixin.sol\":1974:1985   */\n      dup7\n        /* \"UsersMixin.sol\":1968:1986   */\n      0xffffffffffffffffffffffffffffffffffffffff\n      and\n      0xffffffffffffffffffffffffffffffffffffffff\n      and\n      dup2\n      mstore\n      0x20\n      add\n      swap1\n      dup2\n      mstore\n      0x20\n      add\n      0x00\n      keccak256\n        /* \"UsersMixin.sol\":1948:1986   */\n      swap1\n      pop\n        /* \"UsersMixin.sol\":1996:2000   */\n      dup1\n        /* \"UsersMixin.sol\":1996:2017   */\n      0x05\n      add\n      0x00\n        /* \"UsersMixin.sol\":1996:2019   */\n      dup2\n      sload\n      dup1\n      swap3\n      swap2\n      swap1\n      tag_306\n      swap1\n      tag_232\n      jump\t// in\n    tag_306:\n      swap2\n      swap1\n      pop\n      sstore\n      pop\n        /* \"UsersMixin.sol\":2030:2053   */\n      0x00\n        /* \"UsersMixin.sol\":2056:2067   */\n      0x02\n        /* \"UsersMixin.sol\":2056:2074   */\n      0x01\n      dup2\n      0x01\n      dup2\n      sload\n      add\n      dup1\n      dup3\n      sstore\n      dup1\n      swap2\n      pop\n      pop\n      sub\n      swap1\n      0x00\n      mstore\n      keccak256(0x00, 0x20)\n      swap1\n      0x06\n      mul\n      add\n        /* \"UsersMixin.sol\":2030:2074   */\n      swap1\n      pop\n        /* \"UsersMixin.sol\":2098:2111   */\n      sload(0x14)\n        /* \"UsersMixin.sol\":2085:2092   */\n      dup2\n        /* \"UsersMixin.sol\":2085:2095   */\n      0x00\n      add\n        /* \"UsersMixin.sol\":2085:2111   */\n      dup2\n      swap1\n      sstore\n      pop\n        /* \"UsersMixin.sol\":2136:2147   */\n      dup5\n        /* \"UsersMixin.sol\":2121:2128   */\n      dup2\n        /* \"UsersMixin.sol\":2121:2133   */\n      0x01\n      add\n        /* \"UsersMixin.sol\":2121:2147   */\n      swap1\n      dup2\n      tag_308\n      swap2\n      swap1\n      tag_294\n      jump\t// in\n    tag_308:\n      pop\n        /* \"UsersMixin.sol\":2175:2189   */\n      dup4\n        /* \"UsersMixin.sol\":2157:2164   */\n      dup2\n        /* \"UsersMixin.sol\":2157:2172   */\n      0x03\n      add\n        /* \"UsersMixin.sol\":2157:2189   */\n      swap1\n      dup2\n      tag_309\n      swap2\n      swap1\n      tag_294\n      jump\t// in\n    tag_309:\n      pop\n        /* \"UsersMixin.sol\":2215:2220   */\n      dup3\n        /* \"UsersMixin.sol\":2199:2206   */\n      dup2\n        /* \"UsersMixin.sol\":2199:2212   */\n      0x02\n      add\n        /* \"UsersMixin.sol\":2199:2220   */\n      swap1\n      dup2\n      tag_310\n      swap2\n      swap1\n      tag_294\n      jump\t// in\n    tag_310:\n      pop\n        /* \"UsersMixin.sol\":2230:2237   */\n      dup1\n        /* \"UsersMixin.sol\":2230:2250   */\n      0x04\n      add\n      0x00\n        /* \"UsersMixin.sol\":2230:2252   */\n      dup2\n      sload\n      dup1\n      swap3\n      swap2\n      swap1\n      tag_311\n      swap1\n      tag_232\n      jump\t// in\n    tag_311:\n      swap2\n      swap1\n      pop\n      sstore\n      pop\n        /* \"UsersMixin.sol\":2295:2299   */\n      0x01\n        /* \"UsersMixin.sol\":2263:2279   */\n      0x10\n        /* \"UsersMixin.sol\":2280:2291   */\n      dup7\n        /* \"UsersMixin.sol\":2263:2292   */\n      mload(0x40)\n      tag_312\n      swap2\n      swap1\n      tag_304\n      jump\t// in\n    tag_312:\n      swap1\n      dup2\n      mstore\n      0x20\n      add\n      mload(0x40)\n      dup1\n      swap2\n      sub\n      swap1\n      keccak256\n      0x00\n        /* \"UsersMixin.sol\":2263:2299   */\n      0x0100\n      exp\n      dup2\n      sload\n      dup2\n      0xff\n      mul\n      not\n      and\n      swap1\n      dup4\n      iszero\n      iszero\n      mul\n      or\n      swap1\n      sstore\n      pop\n        /* \"UsersMixin.sol\":2341:2348   */\n      dup1\n        /* \"UsersMixin.sol\":2309:2325   */\n      0x07\n        /* \"UsersMixin.sol\":2326:2337   */\n      dup7\n        /* \"UsersMixin.sol\":2309:2338   */\n      mload(0x40)\n      tag_313\n      swap2\n      swap1\n      tag_304\n      jump\t// in\n    tag_313:\n      swap1\n      dup2\n      mstore\n      0x20\n      add\n      mload(0x40)\n      dup1\n      swap2\n      sub\n      swap1\n      keccak256\n        /* \"UsersMixin.sol\":2309:2348   */\n      0x00\n      dup3\n      add\n      sload\n      dup2\n      0x00\n      add\n      sstore\n      0x01\n      dup3\n      add\n      dup2\n      0x01\n      add\n      swap1\n      dup2\n      tag_314\n      swap2\n      swap1\n      tag_227\n      jump\t// in\n    tag_314:\n      pop\n      0x02\n      dup3\n      add\n      dup2\n      0x02\n      add\n      swap1\n      dup2\n      tag_315\n      swap2\n      swap1\n      tag_227\n      jump\t// in\n    tag_315:\n      pop\n      0x03\n      dup3\n      add\n      dup2\n      0x03\n      add\n      swap1\n      dup2\n      tag_316\n      swap2\n      swap1\n      tag_227\n      jump\t// in\n    tag_316:\n      pop\n      0x04\n      dup3\n      add\n      sload\n      dup2\n      0x04\n      add\n      sstore\n      0x05\n      dup3\n      add\n      sload\n      dup2\n      0x05\n      add\n      sstore\n      swap1\n      pop\n      pop\n        /* \"UsersMixin.sol\":2379:2383   */\n      dup2\n        /* \"UsersMixin.sol\":2359:2367   */\n      0x01\n        /* \"UsersMixin.sol\":2368:2372   */\n      dup4\n        /* \"UsersMixin.sol\":2368:2375   */\n      0x00\n      add\n      sload\n        /* \"UsersMixin.sol\":2359:2376   */\n      dup2\n      sload\n      dup2\n      lt\n      tag_317\n      jumpi\n      tag_318\n      tag_224\n      jump\t// in\n    tag_318:\n    tag_317:\n      swap1\n      0x00\n      mstore\n      keccak256(0x00, 0x20)\n      swap1\n      0x08\n      mul\n      add\n        /* \"UsersMixin.sol\":2359:2383   */\n      0x00\n      dup3\n      add\n      sload\n      dup2\n      0x00\n      add\n      sstore\n      0x01\n      dup3\n      add\n      0x00\n      swap1\n      sload\n      swap1\n      0x0100\n      exp\n      swap1\n      div\n      0xffffffffffffffffffffffffffffffffffffffff\n      and\n      dup2\n      0x01\n      add\n      exp(0x0100, 0x00)\n      dup2\n      sload\n      dup2\n      0xffffffffffffffffffffffffffffffffffffffff\n      mul\n      not\n      and\n      swap1\n      dup4\n      0xffffffffffffffffffffffffffffffffffffffff\n      and\n      mul\n      or\n      swap1\n      sstore\n      pop\n      0x02\n      dup3\n      add\n      dup2\n      0x02\n      add\n      swap1\n      dup2\n      tag_320\n      swap2\n      swap1\n      tag_227\n      jump\t// in\n    tag_320:\n      pop\n      0x03\n      dup3\n      add\n      dup2\n      0x03\n      add\n      swap1\n      dup2\n      tag_321\n      swap2\n      swap1\n      tag_227\n      jump\t// in\n    tag_321:\n      pop\n      0x04\n      dup3\n      add\n      dup2\n      0x04\n      add\n      swap1\n      dup2\n      tag_322\n      swap2\n      swap1\n      tag_227\n      jump\t// in\n    tag_322:\n      pop\n      0x05\n      dup3\n      add\n      sload\n      dup2\n      0x05\n      add\n      sstore\n      0x06\n      dup3\n      add\n      sload\n      dup2\n      0x06\n      add\n      sstore\n      0x07\n      dup3\n      add\n      dup2\n      0x07\n      add\n      swap1\n      dup2\n      tag_323\n      swap2\n      swap1\n      tag_227\n      jump\t// in\n    tag_323:\n      pop\n      swap1\n      pop\n      pop\n        /* \"UsersMixin.sol\":2394:2414   */\n      0x12\n        /* \"UsersMixin.sol\":2394:2429   */\n      0x00\n        /* \"UsersMixin.sol\":2415:2428   */\n      sload(0x14)\n        /* \"UsersMixin.sol\":2394:2429   */\n      dup2\n      mstore\n      0x20\n      add\n      swap1\n      dup2\n      mstore\n      0x20\n      add\n      0x00\n      keccak256\n      0x00\n        /* \"UsersMixin.sol\":2394:2431   */\n      dup2\n      sload\n      dup1\n      swap3\n      swap2\n      swap1\n      tag_324\n      swap1\n      tag_232\n      jump\t// in\n    tag_324:\n      swap2\n      swap1\n      pop\n      sstore\n      pop\n        /* \"UsersMixin.sol\":2441:2460   */\n      0x11\n        /* \"UsersMixin.sol\":2441:2473   */\n      0x00\n        /* \"UsersMixin.sol\":2461:2472   */\n      dup8\n        /* \"UsersMixin.sol\":2441:2473   */\n      0xffffffffffffffffffffffffffffffffffffffff\n      and\n      0xffffffffffffffffffffffffffffffffffffffff\n      and\n      dup2\n      mstore\n      0x20\n      add\n      swap1\n      dup2\n      mstore\n      0x20\n      add\n      0x00\n      keccak256\n      0x00\n        /* \"UsersMixin.sol\":2441:2475   */\n      dup2\n      sload\n      dup1\n      swap3\n      swap2\n      swap1\n      tag_325\n      swap1\n      tag_232\n      jump\t// in\n    tag_325:\n      swap2\n      swap1\n      pop\n      sstore\n      pop\n        /* \"UsersMixin.sol\":2485:2498   */\n      0x06\n        /* \"UsersMixin.sol\":2485:2511   */\n      0x00\n        /* \"UsersMixin.sol\":2499:2510   */\n      dup8\n        /* \"UsersMixin.sol\":2485:2511   */\n      0xffffffffffffffffffffffffffffffffffffffff\n      and\n      0xffffffffffffffffffffffffffffffffffffffff\n      and\n      dup2\n      mstore\n      0x20\n      add\n      swap1\n      dup2\n      mstore\n      0x20\n      add\n      0x00\n      keccak256\n        /* \"UsersMixin.sol\":2517:2524   */\n      dup2\n        /* \"UsersMixin.sol\":2485:2525   */\n      swap1\n      dup1\n      0x01\n      dup2\n      sload\n      add\n      dup1\n      dup3\n      sstore\n      dup1\n      swap2\n      pop\n      pop\n      0x01\n      swap1\n      sub\n      swap1\n      0x00\n      mstore\n      keccak256(0x00, 0x20)\n      swap1\n      0x06\n      mul\n      add\n      0x00\n      swap1\n      swap2\n      swap1\n      swap2\n      swap1\n      swap2\n      pop\n      0x00\n      dup3\n      add\n      sload\n      dup2\n      0x00\n      add\n      sstore\n      0x01\n      dup3\n      add\n      dup2\n      0x01\n      add\n      swap1\n      dup2\n      tag_327\n      swap2\n      swap1\n      tag_227\n      jump\t// in\n    tag_327:\n      pop\n      0x02\n      dup3\n      add\n      dup2\n      0x02\n      add\n      swap1\n      dup2\n      tag_328\n      swap2\n      swap1\n      tag_227\n      jump\t// in\n    tag_328:\n      pop\n      0x03\n      dup3\n      add\n      dup2\n      0x03\n      add\n      swap1\n      dup2\n      tag_329\n      swap2\n      swap1\n      tag_227\n      jump\t// in\n    tag_329:\n      pop\n      0x04\n      dup3\n      add\n      sload\n      dup2\n      0x04\n      add\n      sstore\n      0x05\n      dup3\n      add\n      sload\n      dup2\n      0x05\n      add\n      sstore\n      pop\n      pop\n        /* \"UsersMixin.sol\":2535:2549   */\n      0x08\n        /* \"UsersMixin.sol\":2535:2564   */\n      0x00\n        /* \"UsersMixin.sol\":2550:2563   */\n      sload(0x14)\n        /* \"UsersMixin.sol\":2535:2564   */\n      dup2\n      mstore\n      0x20\n      add\n      swap1\n      dup2\n      mstore\n      0x20\n      add\n      0x00\n      keccak256\n        /* \"UsersMixin.sol\":2570:2574   */\n      dup3\n        /* \"UsersMixin.sol\":2535:2575   */\n      swap1\n      dup1\n      0x01\n      dup2\n      sload\n      add\n      dup1\n      dup3\n      sstore\n      dup1\n      swap2\n      pop\n      pop\n      0x01\n      swap1\n      sub\n      swap1\n      0x00\n      mstore\n      keccak256(0x00, 0x20)\n      swap1\n      0x08\n      mul\n      add\n      0x00\n      swap1\n      swap2\n      swap1\n      swap2\n      swap1\n      swap2\n      pop\n      0x00\n      dup3\n      add\n      sload\n      dup2\n      0x00\n      add\n      sstore\n      0x01\n      dup3\n      add\n      0x00\n      swap1\n      sload\n      swap1\n      0x0100\n      exp\n      swap1\n      div\n      0xffffffffffffffffffffffffffffffffffffffff\n      and\n      dup2\n      0x01\n      add\n      exp(0x0100, 0x00)\n      dup2\n      sload\n      dup2\n      0xffffffffffffffffffffffffffffffffffffffff\n      mul\n      not\n      and\n      swap1\n      dup4\n      0xffffffffffffffffffffffffffffffffffffffff\n      and\n      mul\n      or\n      swap1\n      sstore\n      pop\n      0x02\n      dup3\n      add\n      dup2\n      0x02\n      add\n      swap1\n      dup2\n      tag_331\n      swap2\n      swap1\n      tag_227\n      jump\t// in\n    tag_331:\n      pop\n      0x03\n      dup3\n      add\n      dup2\n      0x03\n      add\n      swap1\n      dup2\n      tag_332\n      swap2\n      swap1\n      tag_227\n      jump\t// in\n    tag_332:\n      pop\n      0x04\n      dup3\n      add\n      dup2\n      0x04\n      add\n      swap1\n      dup2\n      tag_333\n      swap2\n      swap1\n      tag_227\n      jump\t// in\n    tag_333:\n      pop\n      0x05\n      dup3\n      add\n      sload\n      dup2\n      0x05\n      add\n      sstore\n      0x06\n      dup3\n      add\n      sload\n      dup2\n      0x06\n      add\n      sstore\n      0x07\n      dup3\n      add\n      dup2\n      0x07\n      add\n      swap1\n      dup2\n      tag_334\n      swap2\n      swap1\n      tag_227\n      jump\t// in\n    tag_334:\n      pop\n      pop\n      pop\n        /* \"UsersMixin.sol\":2606:2607   */\n      0x01\n        /* \"UsersMixin.sol\":2585:2595   */\n      0x0d\n        /* \"UsersMixin.sol\":2596:2601   */\n      dup5\n        /* \"UsersMixin.sol\":2585:2602   */\n      mload(0x40)\n      tag_335\n      swap2\n      swap1\n      tag_304\n      jump\t// in\n    tag_335:\n      swap1\n      dup2\n      mstore\n      0x20\n      add\n      mload(0x40)\n      dup1\n      swap2\n      sub\n      swap1\n      keccak256\n      0x00\n        /* \"UsersMixin.sol\":2585:2607   */\n      dup3\n      dup3\n      sload\n      tag_336\n      swap2\n      swap1\n      tag_337\n      jump\t// in\n    tag_336:\n      swap3\n      pop\n      pop\n      dup2\n      swap1\n      sstore\n      pop\n        /* \"UsersMixin.sol\":2617:2630   */\n      0x14\n      0x00\n        /* \"UsersMixin.sol\":2617:2632   */\n      dup2\n      sload\n      dup1\n      swap3\n      swap2\n      swap1\n      tag_338\n      swap1\n      tag_232\n      jump\t// in\n    tag_338:\n      swap2\n      swap1\n      pop\n      sstore\n      pop\n        /* \"UsersMixin.sol\":1889:2639   */\n      pop\n      pop\n        /* \"UsersMixin.sol\":1752:2639   */\n      pop\n      pop\n      pop\n      pop\n      jump\t// out\n        /* \"UsersStorage.sol\":885:930   */\n    tag_102:\n      mstore(0x20, 0x08)\n      dup2\n      0x00\n      mstore\n      keccak256(0x00, 0x40)\n      dup2\n      dup2\n      sload\n      dup2\n      lt\n      tag_339\n      jumpi\n      0x00\n      dup1\n      revert\n    tag_339:\n      swap1\n      0x00\n      mstore\n      keccak256(0x00, 0x20)\n      swap1\n      0x08\n      mul\n      add\n      0x00\n      swap2\n      pop\n      swap2\n      pop\n      pop\n      dup1\n      0x00\n      add\n      sload\n      swap1\n      dup1\n      0x01\n      add\n      0x00\n      swap1\n      sload\n      swap1\n      0x0100\n      exp\n      swap1\n      div\n      0xffffffffffffffffffffffffffffffffffffffff\n      and\n      swap1\n      dup1\n      0x02\n      add\n      dup1\n      sload\n      tag_341\n      swap1\n      tag_342\n      jump\t// in\n    tag_341:\n      dup1\n      0x1f\n      add\n      0x20\n      dup1\n      swap2\n      div\n      mul\n      0x20\n      add\n      mload(0x40)\n      swap1\n      dup2\n      add\n      0x40\n      mstore\n      dup1\n      swap3\n      swap2\n      swap1\n      dup2\n      dup2\n      mstore\n      0x20\n      add\n      dup3\n      dup1\n      sload\n      tag_343\n      swap1\n      tag_342\n      jump\t// in\n    tag_343:\n      dup1\n      iszero\n      tag_344\n      jumpi\n      dup1\n      0x1f\n      lt\n      tag_345\n      jumpi\n      0x0100\n      dup1\n      dup4\n      sload\n      div\n      mul\n      dup4\n      mstore\n      swap2\n      0x20\n      add\n      swap2\n      jump(tag_344)\n    tag_345:\n      dup3\n      add\n      swap2\n      swap1\n      0x00\n      mstore\n      keccak256(0x00, 0x20)\n      swap1\n    tag_346:\n      dup2\n      sload\n      dup2\n      mstore\n      swap1\n      0x01\n      add\n      swap1\n      0x20\n      add\n      dup1\n      dup4\n      gt\n      tag_346\n      jumpi\n      dup3\n      swap1\n      sub\n      0x1f\n      and\n      dup3\n      add\n      swap2\n    tag_344:\n      pop\n      pop\n      pop\n      pop\n      pop\n      swap1\n      dup1\n      0x03\n      add\n      dup1\n      sload\n      tag_347\n      swap1\n      tag_342\n      jump\t// in\n    tag_347:\n      dup1\n      0x1f\n      add\n      0x20\n      dup1\n      swap2\n      div\n      mul\n      0x20\n      add\n      mload(0x40)\n      swap1\n      dup2\n      add\n      0x40\n      mstore\n      dup1\n      swap3\n      swap2\n      swap1\n      dup2\n      dup2\n      mstore\n      0x20\n      add\n      dup3\n      dup1\n      sload\n      tag_348\n      swap1\n      tag_342\n      jump\t// in\n    tag_348:\n      dup1\n      iszero\n      tag_349\n      jumpi\n      dup1\n      0x1f\n      lt\n      tag_350\n      jumpi\n      0x0100\n      dup1\n      dup4\n      sload\n      div\n      mul\n      dup4\n      mstore\n      swap2\n      0x20\n      add\n      swap2\n      jump(tag_349)\n    tag_350:\n      dup3\n      add\n      swap2\n      swap1\n      0x00\n      mstore\n      keccak256(0x00, 0x20)\n      swap1\n    tag_351:\n      dup2\n      sload\n      dup2\n      mstore\n      swap1\n      0x01\n      add\n      swap1\n      0x20\n      add\n      dup1\n      dup4\n      gt\n      tag_351\n      jumpi\n      dup3\n      swap1\n      sub\n      0x1f\n      and\n      dup3\n      add\n      swap2\n    tag_349:\n      pop\n      pop\n      pop\n      pop\n      pop\n      swap1\n      dup1\n      0x04\n      add\n      dup1\n      sload\n      tag_352\n      swap1\n      tag_342\n      jump\t// in\n    tag_352:\n      dup1\n      0x1f\n      add\n      0x20\n      dup1\n      swap2\n      div\n      mul\n      0x20\n      add\n      mload(0x40)\n      swap1\n      dup2\n      add\n      0x40\n      mstore\n      dup1\n      swap3\n      swap2\n      swap1\n      dup2\n      dup2\n      mstore\n      0x20\n      add\n      dup3\n      dup1\n      sload\n      tag_353\n      swap1\n      tag_342\n      jump\t// in\n    tag_353:\n      dup1\n      iszero\n      tag_354\n      jumpi\n      dup1\n      0x1f\n      lt\n      tag_355\n      jumpi\n      0x0100\n      dup1\n      dup4\n      sload\n      div\n      mul\n      dup4\n      mstore\n      swap2\n      0x20\n      add\n      swap2\n      jump(tag_354)\n    tag_355:\n      dup3\n      add\n      swap2\n      swap1\n      0x00\n      mstore\n      keccak256(0x00, 0x20)\n      swap1\n    tag_356:\n      dup2\n      sload\n      dup2\n      mstore\n      swap1\n      0x01\n      add\n      swap1\n      0x20\n      add\n      dup1\n      dup4\n      gt\n      tag_356\n      jumpi\n      dup3\n      swap1\n      sub\n      0x1f\n      and\n      dup3\n      add\n      swap2\n    tag_354:\n      pop\n      pop\n      pop\n      pop\n      pop\n      swap1\n      dup1\n      0x05\n      add\n      sload\n      swap1\n      dup1\n      0x06\n      add\n      sload\n      swap1\n      dup1\n      0x07\n      add\n      dup1\n      sload\n      tag_357\n      swap1\n      tag_342\n      jump\t// in\n    tag_357:\n      dup1\n      0x1f\n      add\n      0x20\n      dup1\n      swap2\n      div\n      mul\n      0x20\n      add\n      mload(0x40)\n      swap1\n      dup2\n      add\n      0x40\n      mstore\n      dup1\n      swap3\n      swap2\n      swap1\n      dup2\n      dup2\n      mstore\n      0x20\n      add\n      dup3\n      dup1\n      sload\n      tag_358\n      swap1\n      tag_342\n      jump\t// in\n    tag_358:\n      dup1\n      iszero\n      tag_359\n      jumpi\n      dup1\n      0x1f\n      lt\n      tag_360\n      jumpi\n      0x0100\n      dup1\n      dup4\n      sload\n      div\n      mul\n      dup4\n      mstore\n      swap2\n      0x20\n      add\n      swap2\n      jump(tag_359)\n    tag_360:\n      dup3\n      add\n      swap2\n      swap1\n      0x00\n      mstore\n      keccak256(0x00, 0x20)\n      swap1\n    tag_361:\n      dup2\n      sload\n      dup2\n      mstore\n      swap1\n      0x01\n      add\n      swap1\n      0x20\n      add\n      dup1\n      dup4\n      gt\n      tag_361\n      jumpi\n      dup3\n      swap1\n      sub\n      0x1f\n      and\n      dup3\n      add\n      swap2\n    tag_359:\n      pop\n      pop\n      pop\n      pop\n      pop\n      swap1\n      pop\n      dup9\n      jump\t// out\n        /* \"UsersMixin.sol\":3344:4017   */\n    tag_108:\n        /* \"UsersMixin.sol\":3470:3486   */\n      0x0e\n        /* \"UsersMixin.sol\":3470:3499   */\n      0x00\n        /* \"UsersMixin.sol\":3487:3498   */\n      dup6\n        /* \"UsersMixin.sol\":3470:3499   */\n      0xffffffffffffffffffffffffffffffffffffffff\n      and\n      0xffffffffffffffffffffffffffffffffffffffff\n      and\n      dup2\n      mstore\n      0x20\n      add\n      swap1\n      dup2\n      mstore\n      0x20\n      add\n      0x00\n      keccak256\n      0x00\n      swap1\n      sload\n      swap1\n      0x0100\n      exp\n      swap1\n      div\n      0xff\n      and\n        /* \"UsersMixin.sol\":3462:3500   */\n      tag_363\n      jumpi\n      0x00\n      dup1\n      revert\n    tag_363:\n        /* \"UsersMixin.sol\":3508:3531   */\n      0x00\n        /* \"UsersMixin.sol\":3534:3545   */\n      0x02\n        /* \"UsersMixin.sol\":3546:3555   */\n      dup5\n        /* \"UsersMixin.sol\":3534:3556   */\n      dup2\n      sload\n      dup2\n      lt\n      tag_364\n      jumpi\n      tag_365\n      tag_224\n      jump\t// in\n    tag_365:\n    tag_364:\n      swap1\n      0x00\n      mstore\n      keccak256(0x00, 0x20)\n      swap1\n      0x06\n      mul\n      add\n        /* \"UsersMixin.sol\":3508:3556   */\n      swap1\n      pop\n        /* \"UsersMixin.sol\":3564:3581   */\n      0x00\n        /* \"UsersMixin.sol\":3584:3589   */\n      0x05\n        /* \"UsersMixin.sol\":3584:3602   */\n      0x00\n        /* \"UsersMixin.sol\":3590:3601   */\n      dup8\n        /* \"UsersMixin.sol\":3584:3602   */\n      0xffffffffffffffffffffffffffffffffffffffff\n      and\n      0xffffffffffffffffffffffffffffffffffffffff\n      and\n      dup2\n      mstore\n      0x20\n      add\n      swap1\n      dup2\n      mstore\n      0x20\n      add\n      0x00\n      keccak256\n        /* \"UsersMixin.sol\":3564:3602   */\n      swap1\n      pop\n        /* \"UsersMixin.sol\":3613:3621   */\n      dup3\n        /* \"UsersMixin.sol\":3610:3919   */\n      iszero\n      tag_367\n      jumpi\n        /* \"UsersMixin.sol\":3633:3637   */\n      dup1\n        /* \"UsersMixin.sol\":3633:3654   */\n      0x05\n      add\n      0x00\n        /* \"UsersMixin.sol\":3633:3656   */\n      dup2\n      sload\n      dup1\n      swap3\n      swap2\n      swap1\n      tag_368\n      swap1\n      tag_232\n      jump\t// in\n    tag_368:\n      swap2\n      swap1\n      pop\n      sstore\n      pop\n        /* \"UsersMixin.sol\":3666:3679   */\n      0x06\n        /* \"UsersMixin.sol\":3666:3692   */\n      0x00\n        /* \"UsersMixin.sol\":3680:3691   */\n      dup8\n        /* \"UsersMixin.sol\":3666:3692   */\n      0xffffffffffffffffffffffffffffffffffffffff\n      and\n      0xffffffffffffffffffffffffffffffffffffffff\n      and\n      dup2\n      mstore\n      0x20\n      add\n      swap1\n      dup2\n      mstore\n      0x20\n      add\n      0x00\n      keccak256\n        /* \"UsersMixin.sol\":3698:3705   */\n      dup3\n        /* \"UsersMixin.sol\":3666:3706   */\n      swap1\n      dup1\n      0x01\n      dup2\n      sload\n      add\n      dup1\n      dup3\n      sstore\n      dup1\n      swap2\n      pop\n      pop\n      0x01\n      swap1\n      sub\n      swap1\n      0x00\n      mstore\n      keccak256(0x00, 0x20)\n      swap1\n      0x06\n      mul\n      add\n      0x00\n      swap1\n      swap2\n      swap1\n      swap2\n      swap1\n      swap2\n      pop\n      0x00\n      dup3\n      add\n      sload\n      dup2\n      0x00\n      add\n      sstore\n      0x01\n      dup3\n      add\n      dup2\n      0x01\n      add\n      swap1\n      dup2\n      tag_370\n      swap2\n      swap1\n      tag_227\n      jump\t// in\n    tag_370:\n      pop\n      0x02\n      dup3\n      add\n      dup2\n      0x02\n      add\n      swap1\n      dup2\n      tag_371\n      swap2\n      swap1\n      tag_227\n      jump\t// in\n    tag_371:\n      pop\n      0x03\n      dup3\n      add\n      dup2\n      0x03\n      add\n      swap1\n      dup2\n      tag_372\n      swap2\n      swap1\n      tag_227\n      jump\t// in\n    tag_372:\n      pop\n      0x04\n      dup3\n      add\n      sload\n      dup2\n      0x04\n      add\n      sstore\n      0x05\n      dup3\n      add\n      sload\n      dup2\n      0x05\n      add\n      sstore\n      pop\n      pop\n        /* \"UsersMixin.sol\":3716:3723   */\n      dup2\n        /* \"UsersMixin.sol\":3716:3736   */\n      0x04\n      add\n      0x00\n        /* \"UsersMixin.sol\":3716:3738   */\n      dup2\n      sload\n      dup1\n      swap3\n      swap2\n      swap1\n      tag_373\n      swap1\n      tag_232\n      jump\t// in\n    tag_373:\n      swap2\n      swap1\n      pop\n      sstore\n      pop\n        /* \"UsersMixin.sol\":3748:3762   */\n      0x08\n        /* \"UsersMixin.sol\":3748:3773   */\n      0x00\n        /* \"UsersMixin.sol\":3763:3772   */\n      dup7\n        /* \"UsersMixin.sol\":3748:3773   */\n      dup2\n      mstore\n      0x20\n      add\n      swap1\n      dup2\n      mstore\n      0x20\n      add\n      0x00\n      keccak256\n        /* \"UsersMixin.sol\":3779:3783   */\n      dup2\n        /* \"UsersMixin.sol\":3748:3784   */\n      swap1\n      dup1\n      0x01\n      dup2\n      sload\n      add\n      dup1\n      dup3\n      sstore\n      dup1\n      swap2\n      pop\n      pop\n      0x01\n      swap1\n      sub\n      swap1\n      0x00\n      mstore\n      keccak256(0x00, 0x20)\n      swap1\n      0x08\n      mul\n      add\n      0x00\n      swap1\n      swap2\n      swap1\n      swap2\n      swap1\n      swap2\n      pop\n      0x00\n      dup3\n      add\n      sload\n      dup2\n      0x00\n      add\n      sstore\n      0x01\n      dup3\n      add\n      0x00\n      swap1\n      sload\n      swap1\n      0x0100\n      exp\n      swap1\n      div\n      0xffffffffffffffffffffffffffffffffffffffff\n      and\n      dup2\n      0x01\n      add\n      exp(0x0100, 0x00)\n      dup2\n      sload\n      dup2\n      0xffffffffffffffffffffffffffffffffffffffff\n      mul\n      not\n      and\n      swap1\n      dup4\n      0xffffffffffffffffffffffffffffffffffffffff\n      and\n      mul\n      or\n      swap1\n      sstore\n      pop\n      0x02\n      dup3\n      add\n      dup2\n      0x02\n      add\n      swap1\n      dup2\n      tag_375\n      swap2\n      swap1\n      tag_227\n      jump\t// in\n    tag_375:\n      pop\n      0x03\n      dup3\n      add\n      dup2\n      0x03\n      add\n      swap1\n      dup2\n      tag_376\n      swap2\n      swap1\n      tag_227\n      jump\t// in\n    tag_376:\n      pop\n      0x04\n      dup3\n      add\n      dup2\n      0x04\n      add\n      swap1\n      dup2\n      tag_377\n      swap2\n      swap1\n      tag_227\n      jump\t// in\n    tag_377:\n      pop\n      0x05\n      dup3\n      add\n      sload\n      dup2\n      0x05\n      add\n      sstore\n      0x06\n      dup3\n      add\n      sload\n      dup2\n      0x06\n      add\n      sstore\n      0x07\n      dup3\n      add\n      dup2\n      0x07\n      add\n      swap1\n      dup2\n      tag_378\n      swap2\n      swap1\n      tag_227\n      jump\t// in\n    tag_378:\n      pop\n      pop\n      pop\n        /* \"UsersMixin.sol\":3794:3813   */\n      0x11\n        /* \"UsersMixin.sol\":3794:3831   */\n      0x00\n        /* \"UsersMixin.sol\":3814:3818   */\n      dup3\n        /* \"UsersMixin.sol\":3814:3830   */\n      0x01\n      add\n      0x00\n      swap1\n      sload\n      swap1\n      0x0100\n      exp\n      swap1\n      div\n      0xffffffffffffffffffffffffffffffffffffffff\n      and\n        /* \"UsersMixin.sol\":3794:3831   */\n      0xffffffffffffffffffffffffffffffffffffffff\n      and\n      0xffffffffffffffffffffffffffffffffffffffff\n      and\n      dup2\n      mstore\n      0x20\n      add\n      swap1\n      dup2\n      mstore\n      0x20\n      add\n      0x00\n      keccak256\n      0x00\n        /* \"UsersMixin.sol\":3794:3833   */\n      dup2\n      sload\n      dup1\n      swap3\n      swap2\n      swap1\n      tag_379\n      swap1\n      tag_232\n      jump\t// in\n    tag_379:\n      swap2\n      swap1\n      pop\n      sstore\n      pop\n        /* \"UsersMixin.sol\":3843:3863   */\n      0x12\n        /* \"UsersMixin.sol\":3843:3874   */\n      0x00\n        /* \"UsersMixin.sol\":3864:3873   */\n      dup7\n        /* \"UsersMixin.sol\":3843:3874   */\n      dup2\n      mstore\n      0x20\n      add\n      swap1\n      dup2\n      mstore\n      0x20\n      add\n      0x00\n      keccak256\n      0x00\n        /* \"UsersMixin.sol\":3843:3876   */\n      dup2\n      sload\n      dup1\n      swap3\n      swap2\n      swap1\n      tag_380\n      swap1\n      tag_232\n      jump\t// in\n    tag_380:\n      swap2\n      swap1\n      pop\n      sstore\n      pop\n        /* \"UsersMixin.sol\":3906:3910   */\n      dup1\n        /* \"UsersMixin.sol\":3886:3894   */\n      0x01\n        /* \"UsersMixin.sol\":3895:3899   */\n      dup3\n        /* \"UsersMixin.sol\":3895:3902   */\n      0x00\n      add\n      sload\n        /* \"UsersMixin.sol\":3886:3903   */\n      dup2\n      sload\n      dup2\n      lt\n      tag_381\n      jumpi\n      tag_382\n      tag_224\n      jump\t// in\n    tag_382:\n    tag_381:\n      swap1\n      0x00\n      mstore\n      keccak256(0x00, 0x20)\n      swap1\n      0x08\n      mul\n      add\n        /* \"UsersMixin.sol\":3886:3910   */\n      0x00\n      dup3\n      add\n      sload\n      dup2\n      0x00\n      add\n      sstore\n      0x01\n      dup3\n      add\n      0x00\n      swap1\n      sload\n      swap1\n      0x0100\n      exp\n      swap1\n      div\n      0xffffffffffffffffffffffffffffffffffffffff\n      and\n      dup2\n      0x01\n      add\n      exp(0x0100, 0x00)\n      dup2\n      sload\n      dup2\n      0xffffffffffffffffffffffffffffffffffffffff\n      mul\n      not\n      and\n      swap1\n      dup4\n      0xffffffffffffffffffffffffffffffffffffffff\n      and\n      mul\n      or\n      swap1\n      sstore\n      pop\n      0x02\n      dup3\n      add\n      dup2\n      0x02\n      add\n      swap1\n      dup2\n      tag_384\n      swap2\n      swap1\n      tag_227\n      jump\t// in\n    tag_384:\n      pop\n      0x03\n      dup3\n      add\n      dup2\n      0x03\n      add\n      swap1\n      dup2\n      tag_385\n      swap2\n      swap1\n      tag_227\n      jump\t// in\n    tag_385:\n      pop\n      0x04\n      dup3\n      add\n      dup2\n      0x04\n      add\n      swap1\n      dup2\n      tag_386\n      swap2\n      swap1\n      tag_227\n      jump\t// in\n    tag_386:\n      pop\n      0x05\n      dup3\n      add\n      sload\n      dup2\n      0x05\n      add\n      sstore\n      0x06\n      dup3\n      add\n      sload\n      dup2\n      0x06\n      add\n      sstore\n      0x07\n      dup3\n      add\n      dup2\n      0x07\n      add\n      swap1\n      dup2\n      tag_387\n      swap2\n      swap1\n      tag_227\n      jump\t// in\n    tag_387:\n      pop\n      swap1\n      pop\n      pop\n        /* \"UsersMixin.sol\":3610:3919   */\n    tag_367:\n        /* \"UsersMixin.sol\":3926:3933   */\n      dup2\n        /* \"UsersMixin.sol\":3926:3949   */\n      0x05\n      add\n      0x00\n        /* \"UsersMixin.sol\":3926:3951   */\n      dup2\n      sload\n      dup1\n      swap3\n      swap2\n      swap1\n      tag_388\n      swap1\n      tag_239\n      jump\t// in\n    tag_388:\n      swap2\n      swap1\n      pop\n      sstore\n      pop\n        /* \"UsersMixin.sol\":3966:3988   */\n      0x09\n        /* \"UsersMixin.sol\":3966:3999   */\n      0x00\n        /* \"UsersMixin.sol\":3989:3998   */\n      dup7\n        /* \"UsersMixin.sol\":3966:3999   */\n      dup2\n      mstore\n      0x20\n      add\n      swap1\n      dup2\n      mstore\n      0x20\n      add\n      0x00\n      keccak256\n        /* \"UsersMixin.sol\":4000:4009   */\n      dup5\n        /* \"UsersMixin.sol\":3966:4010   */\n      dup2\n      sload\n      dup2\n      lt\n      tag_389\n      jumpi\n      tag_390\n      tag_224\n      jump\t// in\n    tag_390:\n    tag_389:\n      swap1\n      0x00\n      mstore\n      keccak256(0x00, 0x20)\n      swap1\n      0x08\n      mul\n      add\n      0x00\n        /* \"UsersMixin.sol\":3959:4010   */\n      dup1\n      dup3\n      add\n      0x00\n      swap1\n      sstore\n      0x01\n      dup3\n      add\n      exp(0x0100, 0x00)\n      dup2\n      sload\n      swap1\n      0xffffffffffffffffffffffffffffffffffffffff\n      mul\n      not\n      and\n      swap1\n      sstore\n      0x02\n      dup3\n      add\n      0x00\n      tag_392\n      swap2\n      swap1\n      tag_254\n      jump\t// in\n    tag_392:\n      0x03\n      dup3\n      add\n      0x00\n      tag_393\n      swap2\n      swap1\n      tag_254\n      jump\t// in\n    tag_393:\n      0x04\n      dup3\n      add\n      0x00\n      tag_394\n      swap2\n      swap1\n      tag_254\n      jump\t// in\n    tag_394:\n      0x05\n      dup3\n      add\n      0x00\n      swap1\n      sstore\n      0x06\n      dup3\n      add\n      0x00\n      swap1\n      sstore\n      0x07\n      dup3\n      add\n      0x00\n      tag_395\n      swap2\n      swap1\n      tag_254\n      jump\t// in\n    tag_395:\n      pop\n      pop\n        /* \"UsersMixin.sol\":3454:4017   */\n      pop\n      pop\n        /* \"UsersMixin.sol\":3344:4017   */\n      pop\n      pop\n      pop\n      pop\n      jump\t// out\n        /* \"UsersStorage.sol\":936:989   */\n    tag_112:\n      mstore(0x20, 0x09)\n      dup2\n      0x00\n      mstore\n      keccak256(0x00, 0x40)\n      dup2\n      dup2\n      sload\n      dup2\n      lt\n      tag_396\n      jumpi\n      0x00\n      dup1\n      revert\n    tag_396:\n      swap1\n      0x00\n      mstore\n      keccak256(0x00, 0x20)\n      swap1\n      0x08\n      mul\n      add\n      0x00\n      swap2\n      pop\n      swap2\n      pop\n      pop\n      dup1\n      0x00\n      add\n      sload\n      swap1\n      dup1\n      0x01\n      add\n      0x00\n      swap1\n      sload\n      swap1\n      0x0100\n      exp\n      swap1\n      div\n      0xffffffffffffffffffffffffffffffffffffffff\n      and\n      swap1\n      dup1\n      0x02\n      add\n      dup1\n      sload\n      tag_398\n      swap1\n      tag_342\n      jump\t// in\n    tag_398:\n      dup1\n      0x1f\n      add\n      0x20\n      dup1\n      swap2\n      div\n      mul\n      0x20\n      add\n      mload(0x40)\n      swap1\n      dup2\n      add\n      0x40\n      mstore\n      dup1\n      swap3\n      swap2\n      swap1\n      dup2\n      dup2\n      mstore\n      0x20\n      add\n      dup3\n      dup1\n      sload\n      tag_399\n      swap1\n      tag_342\n      jump\t// in\n    tag_399:\n      dup1\n      iszero\n      tag_400\n      jumpi\n      dup1\n      0x1f\n      lt\n      tag_401\n      jumpi\n      0x0100\n      dup1\n      dup4\n      sload\n      div\n      mul\n      dup4\n      mstore\n      swap2\n      0x20\n      add\n      swap2\n      jump(tag_400)\n    tag_401:\n      dup3\n      add\n      swap2\n      swap1\n      0x00\n      mstore\n      keccak256(0x00, 0x20)\n      swap1\n    tag_402:\n      dup2\n      sload\n      dup2\n      mstore\n      swap1\n      0x01\n      add\n      swap1\n      0x20\n      add\n      dup1\n      dup4\n      gt\n      tag_402\n      jumpi\n      dup3\n      swap1\n      sub\n      0x1f\n      and\n      dup3\n      add\n      swap2\n    tag_400:\n      pop\n      pop\n      pop\n      pop\n      pop\n      swap1\n      dup1\n      0x03\n      add\n      dup1\n      sload\n      tag_403\n      swap1\n      tag_342\n      jump\t// in\n    tag_403:\n      dup1\n      0x1f\n      add\n      0x20\n      dup1\n      swap2\n      div\n      mul\n      0x20\n      add\n      mload(0x40)\n      swap1\n      dup2\n      add\n      0x40\n      mstore\n      dup1\n      swap3\n      swap2\n      swap1\n      dup2\n      dup2\n      mstore\n      0x20\n      add\n      dup3\n      dup1\n      sload\n      tag_404\n      swap1\n      tag_342\n      jump\t// in\n    tag_404:\n      dup1\n      iszero\n      tag_405\n      jumpi\n      dup1\n      0x1f\n      lt\n      tag_406\n      jumpi\n      0x0100\n      dup1\n      dup4\n      sload\n      div\n      mul\n      dup4\n      mstore\n      swap2\n      0x20\n      add\n      swap2\n      jump(tag_405)\n    tag_406:\n      dup3\n      add\n      swap2\n      swap1\n      0x00\n      mstore\n      keccak256(0x00, 0x20)\n      swap1\n    tag_407:\n      dup2\n      sload\n      dup2\n      mstore\n      swap1\n      0x01\n      add\n      swap1\n      0x20\n      add\n      dup1\n      dup4\n      gt\n      tag_407\n      jumpi\n      dup3\n      swap1\n      sub\n      0x1f\n      and\n      dup3\n      add\n      swap2\n    tag_405:\n      pop\n      pop\n      pop\n      pop\n      pop\n      swap1\n      dup1\n      0x04\n      add\n      dup1\n      sload\n      tag_408\n      swap1\n      tag_342\n      jump\t// in\n    tag_408:\n      dup1\n      0x1f\n      add\n      0x20\n      dup1\n      swap2\n      div\n      mul\n      0x20\n      add\n      mload(0x40)\n      swap1\n      dup2\n      add\n      0x40\n      mstore\n      dup1\n      swap3\n      swap2\n      swap1\n      dup2\n      dup2\n      mstore\n      0x20\n      add\n      dup3\n      dup1\n      sload\n      tag_409\n      swap1\n      tag_342\n      jump\t// in\n    tag_409:\n      dup1\n      iszero\n      tag_410\n      jumpi\n      dup1\n      0x1f\n      lt\n      tag_411\n      jumpi\n      0x0100\n      dup1\n      dup4\n      sload\n      div\n      mul\n      dup4\n      mstore\n      swap2\n      0x20\n      add\n      swap2\n      jump(tag_410)\n    tag_411:\n      dup3\n      add\n      swap2\n      swap1\n      0x00\n      mstore\n      keccak256(0x00, 0x20)\n      swap1\n    tag_412:\n      dup2\n      sload\n      dup2\n      mstore\n      swap1\n      0x01\n      add\n      swap1\n      0x20\n      add\n      dup1\n      dup4\n      gt\n      tag_412\n      jumpi\n      dup3\n      swap1\n      sub\n      0x1f\n      and\n      dup3\n      add\n      swap2\n    tag_410:\n      pop\n      pop\n      pop\n      pop\n      pop\n      swap1\n      dup1\n      0x05\n      add\n      sload\n      swap1\n      dup1\n      0x06\n      add\n      sload\n      swap1\n      dup1\n      0x07\n      add\n      dup1\n      sload\n      tag_413\n      swap1\n      tag_342\n      jump\t// in\n    tag_413:\n      dup1\n      0x1f\n      add\n      0x20\n      dup1\n      swap2\n      div\n      mul\n      0x20\n      add\n      mload(0x40)\n      swap1\n      dup2\n      add\n      0x40\n      mstore\n      dup1\n      swap3\n      swap2\n      swap1\n      dup2\n      dup2\n      mstore\n      0x20\n      add\n      dup3\n      dup1\n      sload\n      tag_414\n      swap1\n      tag_342\n      jump\t// in\n    tag_414:\n      dup1\n      iszero\n      tag_415\n      jumpi\n      dup1\n      0x1f\n      lt\n      tag_416\n      jumpi\n      0x0100\n      dup1\n      dup4\n      sload\n      div\n      mul\n      dup4\n      mstore\n      swap2\n      0x20\n      add\n      swap2\n      jump(tag_415)\n    tag_416:\n      dup3\n      add\n      swap2\n      swap1\n      0x00\n      mstore\n      keccak256(0x00, 0x20)\n      swap1\n    tag_417:\n      dup2\n      sload\n      dup2\n      mstore\n      swap1\n      0x01\n      add\n      swap1\n      0x20\n      add\n      dup1\n      dup4\n      gt\n      tag_417\n      jumpi\n      dup3\n      swap1\n      sub\n      0x1f\n      and\n      dup3\n      add\n      swap2\n    tag_415:\n      pop\n      pop\n      pop\n      pop\n      pop\n      swap1\n      pop\n      dup9\n      jump\t// out\n        /* \"UsersStorage.sol\":86:108   */\n    tag_116:\n      0x00\n      dup1\n      sload\n      swap1\n      0x0100\n      exp\n      swap1\n      div\n      0xffffffffffffffffffffffffffffffffffffffff\n      and\n      dup2\n      jump\t// out\n        /* \"UsersStorage.sol\":829:879   */\n    tag_122:\n      0x07\n      dup2\n      dup1\n      mload\n      0x20\n      dup2\n      add\n      dup3\n      add\n      dup1\n      mload\n      dup5\n      dup3\n      mstore\n      0x20\n      dup4\n      add\n      0x20\n      dup6\n      add\n      keccak256\n      dup2\n      dup4\n      mstore\n      dup1\n      swap6\n      pop\n      pop\n      pop\n      pop\n      pop\n      pop\n      0x00\n      swap2\n      pop\n      swap1\n      pop\n      dup1\n      0x00\n      add\n      sload\n      swap1\n      dup1\n      0x01\n      add\n      dup1\n      sload\n      tag_418\n      swap1\n      tag_342\n      jump\t// in\n    tag_418:\n      dup1\n      0x1f\n      add\n      0x20\n      dup1\n      swap2\n      div\n      mul\n      0x20\n      add\n      mload(0x40)\n      swap1\n      dup2\n      add\n      0x40\n      mstore\n      dup1\n      swap3\n      swap2\n      swap1\n      dup2\n      dup2\n      mstore\n      0x20\n      add\n      dup3\n      dup1\n      sload\n      tag_419\n      swap1\n      tag_342\n      jump\t// in\n    tag_419:\n      dup1\n      iszero\n      tag_420\n      jumpi\n      dup1\n      0x1f\n      lt\n      tag_421\n      jumpi\n      0x0100\n      dup1\n      dup4\n      sload\n      div\n      mul\n      dup4\n      mstore\n      swap2\n      0x20\n      add\n      swap2\n      jump(tag_420)\n    tag_421:\n      dup3\n      add\n      swap2\n      swap1\n      0x00\n      mstore\n      keccak256(0x00, 0x20)\n      swap1\n    tag_422:\n      dup2\n      sload\n      dup2\n      mstore\n      swap1\n      0x01\n      add\n      swap1\n      0x20\n      add\n      dup1\n      dup4\n      gt\n      tag_422\n      jumpi\n      dup3\n      swap1\n      sub\n      0x1f\n      and\n      dup3\n      add\n      swap2\n    tag_420:\n      pop\n      pop\n      pop\n      pop\n      pop\n      swap1\n      dup1\n      0x02\n      add\n      dup1\n      sload\n      tag_423\n      swap1\n      tag_342\n      jump\t// in\n    tag_423:\n      dup1\n      0x1f\n      add\n      0x20\n      dup1\n      swap2\n      div\n      mul\n      0x20\n      add\n      mload(0x40)\n      swap1\n      dup2\n      add\n      0x40\n      mstore\n      dup1\n      swap3\n      swap2\n      swap1\n      dup2\n      dup2\n      mstore\n      0x20\n      add\n      dup3\n      dup1\n      sload\n      tag_424\n      swap1\n      tag_342\n      jump\t// in\n    tag_424:\n      dup1\n      iszero\n      tag_425\n      jumpi\n      dup1\n      0x1f\n      lt\n      tag_426\n      jumpi\n      0x0100\n      dup1\n      dup4\n      sload\n      div\n      mul\n      dup4\n      mstore\n      swap2\n      0x20\n      add\n      swap2\n      jump(tag_425)\n    tag_426:\n      dup3\n      add\n      swap2\n      swap1\n      0x00\n      mstore\n      keccak256(0x00, 0x20)\n      swap1\n    tag_427:\n      dup2\n      sload\n      dup2\n      mstore\n      swap1\n      0x01\n      add\n      swap1\n      0x20\n      add\n      dup1\n      dup4\n      gt\n      tag_427\n      jumpi\n      dup3\n      swap1\n      sub\n      0x1f\n      and\n      dup3\n      add\n      swap2\n    tag_425:\n      pop\n      pop\n      pop\n      pop\n      pop\n      swap1\n      dup1\n      0x03\n      add\n      dup1\n      sload\n      tag_428\n      swap1\n      tag_342\n      jump\t// in\n    tag_428:\n      dup1\n      0x1f\n      add\n      0x20\n      dup1\n      swap2\n      div\n      mul\n      0x20\n      add\n      mload(0x40)\n      swap1\n      dup2\n      add\n      0x40\n      mstore\n      dup1\n      swap3\n      swap2\n      swap1\n      dup2\n      dup2\n      mstore\n      0x20\n      add\n      dup3\n      dup1\n      sload\n      tag_429\n      swap1\n      tag_342\n      jump\t// in\n    tag_429:\n      dup1\n      iszero\n      tag_430\n      jumpi\n      dup1\n      0x1f\n      lt\n      tag_431\n      jumpi\n      0x0100\n      dup1\n      dup4\n      sload\n      div\n      mul\n      dup4\n      mstore\n      swap2\n      0x20\n      add\n      swap2\n      jump(tag_430)\n    tag_431:\n      dup3\n      add\n      swap2\n      swap1\n      0x00\n      mstore\n      keccak256(0x00, 0x20)\n      swap1\n    tag_432:\n      dup2\n      sload\n      dup2\n      mstore\n      swap1\n      0x01\n      add\n      swap1\n      0x20\n      add\n      dup1\n      dup4\n      gt\n      tag_432\n      jumpi\n      dup3\n      swap1\n      sub\n      0x1f\n      and\n      dup3\n      add\n      swap2\n    tag_430:\n      pop\n      pop\n      pop\n      pop\n      pop\n      swap1\n      dup1\n      0x04\n      add\n      sload\n      swap1\n      dup1\n      0x05\n      add\n      sload\n      swap1\n      pop\n      dup7\n      jump\t// out\n        /* \"UsersMixin.sol\":2645:2965   */\n    tag_128:\n        /* \"UsersMixin.sol\":2741:2757   */\n      0x0e\n        /* \"UsersMixin.sol\":2741:2770   */\n      0x00\n        /* \"UsersMixin.sol\":2758:2769   */\n      dup4\n        /* \"UsersMixin.sol\":2741:2770   */\n      0xffffffffffffffffffffffffffffffffffffffff\n      and\n      0xffffffffffffffffffffffffffffffffffffffff\n      and\n      dup2\n      mstore\n      0x20\n      add\n      swap1\n      dup2\n      mstore\n      0x20\n      add\n      0x00\n      keccak256\n      0x00\n      swap1\n      sload\n      swap1\n      0x0100\n      exp\n      swap1\n      div\n      0xff\n      and\n        /* \"UsersMixin.sol\":2733:2771   */\n      tag_434\n      jumpi\n      0x00\n      dup1\n      revert\n    tag_434:\n        /* \"UsersMixin.sol\":2779:2796   */\n      0x00\n        /* \"UsersMixin.sol\":2799:2804   */\n      0x05\n        /* \"UsersMixin.sol\":2799:2817   */\n      0x00\n        /* \"UsersMixin.sol\":2805:2816   */\n      dup5\n        /* \"UsersMixin.sol\":2799:2817   */\n      0xffffffffffffffffffffffffffffffffffffffff\n      and\n      0xffffffffffffffffffffffffffffffffffffffff\n      and\n      dup2\n      mstore\n      0x20\n      add\n      swap1\n      dup2\n      mstore\n      0x20\n      add\n      0x00\n      keccak256\n        /* \"UsersMixin.sol\":2779:2817   */\n      swap1\n      pop\n        /* \"UsersMixin.sol\":2825:2848   */\n      0x00\n        /* \"UsersMixin.sol\":2851:2862   */\n      0x02\n        /* \"UsersMixin.sol\":2863:2872   */\n      dup4\n        /* \"UsersMixin.sol\":2851:2873   */\n      dup2\n      sload\n      dup2\n      lt\n      tag_435\n      jumpi\n      tag_436\n      tag_224\n      jump\t// in\n    tag_436:\n    tag_435:\n      swap1\n      0x00\n      mstore\n      keccak256(0x00, 0x20)\n      swap1\n      0x06\n      mul\n      add\n        /* \"UsersMixin.sol\":2825:2873   */\n      swap1\n      pop\n        /* \"UsersMixin.sol\":2881:2888   */\n      dup1\n        /* \"UsersMixin.sol\":2881:2904   */\n      0x05\n      add\n      0x00\n        /* \"UsersMixin.sol\":2881:2906   */\n      dup2\n      sload\n      dup1\n      swap3\n      swap2\n      swap1\n      tag_438\n      swap1\n      tag_232\n      jump\t// in\n    tag_438:\n      swap2\n      swap1\n      pop\n      sstore\n      pop\n        /* \"UsersMixin.sol\":2914:2936   */\n      0x09\n        /* \"UsersMixin.sol\":2914:2947   */\n      0x00\n        /* \"UsersMixin.sol\":2937:2946   */\n      dup5\n        /* \"UsersMixin.sol\":2914:2947   */\n      dup2\n      mstore\n      0x20\n      add\n      swap1\n      dup2\n      mstore\n      0x20\n      add\n      0x00\n      keccak256\n        /* \"UsersMixin.sol\":2953:2957   */\n      dup3\n        /* \"UsersMixin.sol\":2914:2958   */\n      swap1\n      dup1\n      0x01\n      dup2\n      sload\n      add\n      dup1\n      dup3\n      sstore\n      dup1\n      swap2\n      pop\n      pop\n      0x01\n      swap1\n      sub\n      swap1\n      0x00\n      mstore\n      keccak256(0x00, 0x20)\n      swap1\n      0x08\n      mul\n      add\n      0x00\n      swap1\n      swap2\n      swap1\n      swap2\n      swap1\n      swap2\n      pop\n      0x00\n      dup3\n      add\n      sload\n      dup2\n      0x00\n      add\n      sstore\n      0x01\n      dup3\n      add\n      0x00\n      swap1\n      sload\n      swap1\n      0x0100\n      exp\n      swap1\n      div\n      0xffffffffffffffffffffffffffffffffffffffff\n      and\n      dup2\n      0x01\n      add\n      exp(0x0100, 0x00)\n      dup2\n      sload\n      dup2\n      0xffffffffffffffffffffffffffffffffffffffff\n      mul\n      not\n      and\n      swap1\n      dup4\n      0xffffffffffffffffffffffffffffffffffffffff\n      and\n      mul\n      or\n      swap1\n      sstore\n      pop\n      0x02\n      dup3\n      add\n      dup2\n      0x02\n      add\n      swap1\n      dup2\n      tag_440\n      swap2\n      swap1\n      tag_227\n      jump\t// in\n    tag_440:\n      pop\n      0x03\n      dup3\n      add\n      dup2\n      0x03\n      add\n      swap1\n      dup2\n      tag_441\n      swap2\n      swap1\n      tag_227\n      jump\t// in\n    tag_441:\n      pop\n      0x04\n      dup3\n      add\n      dup2\n      0x04\n      add\n      swap1\n      dup2\n      tag_442\n      swap2\n      swap1\n      tag_227\n      jump\t// in\n    tag_442:\n      pop\n      0x05\n      dup3\n      add\n      sload\n      dup2\n      0x05\n      add\n      sstore\n      0x06\n      dup3\n      add\n      sload\n      dup2\n      0x06\n      add\n      sstore\n      0x07\n      dup3\n      add\n      dup2\n      0x07\n      add\n      swap1\n      dup2\n      tag_443\n      swap2\n      swap1\n      tag_227\n      jump\t// in\n    tag_443:\n      pop\n      pop\n      pop\n        /* \"UsersMixin.sol\":2725:2965   */\n      pop\n      pop\n        /* \"UsersMixin.sol\":2645:2965   */\n      pop\n      pop\n      jump\t// out\n        /* \"UsersStorage.sol\":621:649   */\n    tag_132:\n      0x02\n      dup2\n      dup2\n      sload\n      dup2\n      lt\n      tag_444\n      jumpi\n      0x00\n      dup1\n      revert\n    tag_444:\n      swap1\n      0x00\n      mstore\n      keccak256(0x00, 0x20)\n      swap1\n      0x06\n      mul\n      add\n      0x00\n      swap2\n      pop\n      swap1\n      pop\n      dup1\n      0x00\n      add\n      sload\n      swap1\n      dup1\n      0x01\n      add\n      dup1\n      sload\n      tag_446\n      swap1\n      tag_342\n      jump\t// in\n    tag_446:\n      dup1\n      0x1f\n      add\n      0x20\n      dup1\n      swap2\n      div\n      mul\n      0x20\n      add\n      mload(0x40)\n      swap1\n      dup2\n      add\n      0x40\n      mstore\n      dup1\n      swap3\n      swap2\n      swap1\n      dup2\n      dup2\n      mstore\n      0x20\n      add\n      dup3\n      dup1\n      sload\n      tag_447\n      swap1\n      tag_342\n      jump\t// in\n    tag_447:\n      dup1\n      iszero\n      tag_448\n      jumpi\n      dup1\n      0x1f\n      lt\n      tag_449\n      jumpi\n      0x0100\n      dup1\n      dup4\n      sload\n      div\n      mul\n      dup4\n      mstore\n      swap2\n      0x20\n      add\n      swap2\n      jump(tag_448)\n    tag_449:\n      dup3\n      add\n      swap2\n      swap1\n      0x00\n      mstore\n      keccak256(0x00, 0x20)\n      swap1\n    tag_450:\n      dup2\n      sload\n      dup2\n      mstore\n      swap1\n      0x01\n      add\n      swap1\n      0x20\n      add\n      dup1\n      dup4\n      gt\n      tag_450\n      jumpi\n      dup3\n      swap1\n      sub\n      0x1f\n      and\n      dup3\n      add\n      swap2\n    tag_448:\n      pop\n      pop\n      pop\n      pop\n      pop\n      swap1\n      dup1\n      0x02\n      add\n      dup1\n      sload\n      tag_451\n      swap1\n      tag_342\n      jump\t// in\n    tag_451:\n      dup1\n      0x1f\n      add\n      0x20\n      dup1\n      swap2\n      div\n      mul\n      0x20\n      add\n      mload(0x40)\n      swap1\n      dup2\n      add\n      0x40\n      mstore\n      dup1\n      swap3\n      swap2\n      swap1\n      dup2\n      dup2\n      mstore\n      0x20\n      add\n      dup3\n      dup1\n      sload\n      tag_452\n      swap1\n      tag_342\n      jump\t// in\n    tag_452:\n      dup1\n      iszero\n      tag_453\n      jumpi\n      dup1\n      0x1f\n      lt\n      tag_454\n      jumpi\n      0x0100\n      dup1\n      dup4\n      sload\n      div\n      mul\n      dup4\n      mstore\n      swap2\n      0x20\n      add\n      swap2\n      jump(tag_453)\n    tag_454:\n      dup3\n      add\n      swap2\n      swap1\n      0x00\n      mstore\n      keccak256(0x00, 0x20)\n      swap1\n    tag_455:\n      dup2\n      sload\n      dup2\n      mstore\n      swap1\n      0x01\n      add\n      swap1\n      0x20\n      add\n      dup1\n      dup4\n      gt\n      tag_455\n      jumpi\n      dup3\n      swap1\n      sub\n      0x1f\n      and\n      dup3\n      add\n      swap2\n    tag_453:\n      pop\n      pop\n      pop\n      pop\n      pop\n      swap1\n      dup1\n      0x03\n      add\n      dup1\n      sload\n      tag_456\n      swap1\n      tag_342\n      jump\t// in\n    tag_456:\n      dup1\n      0x1f\n      add\n      0x20\n      dup1\n      swap2\n      div\n      mul\n      0x20\n      add\n      mload(0x40)\n      swap1\n      dup2\n      add\n      0x40\n      mstore\n      dup1\n      swap3\n      swap2\n      swap1\n      dup2\n      dup2\n      mstore\n      0x20\n      add\n      dup3\n      dup1\n      sload\n      tag_457\n      swap1\n      tag_342\n      jump\t// in\n    tag_457:\n      dup1\n      iszero\n      tag_458\n      jumpi\n      dup1\n      0x1f\n      lt\n      tag_459\n      jumpi\n      0x0100\n      dup1\n      dup4\n      sload\n      div\n      mul\n      dup4\n      mstore\n      swap2\n      0x20\n      add\n      swap2\n      jump(tag_458)\n    tag_459:\n      dup3\n      add\n      swap2\n      swap1\n      0x00\n      mstore\n      keccak256(0x00, 0x20)\n      swap1\n    tag_460:\n      dup2\n      sload\n      dup2\n      mstore\n      swap1\n      0x01\n      add\n      swap1\n      0x20\n      add\n      dup1\n      dup4\n      gt\n      tag_460\n      jumpi\n      dup3\n      swap1\n      sub\n      0x1f\n      and\n      dup3\n      add\n      swap2\n    tag_458:\n      pop\n      pop\n      pop\n      pop\n      pop\n      swap1\n      dup1\n      0x04\n      add\n      sload\n      swap1\n      dup1\n      0x05\n      add\n      sload\n      swap1\n      pop\n      dup7\n      jump\t// out\n        /* \"UsersMixin.sol\":2971:3338   */\n    tag_136:\n        /* \"UsersMixin.sol\":3070:3086   */\n      0x0e\n        /* \"UsersMixin.sol\":3070:3098   */\n      0x00\n        /* \"UsersMixin.sol\":3087:3097   */\n      caller\n        /* \"UsersMixin.sol\":3070:3098   */\n      0xffffffffffffffffffffffffffffffffffffffff\n      and\n      0xffffffffffffffffffffffffffffffffffffffff\n      and\n      dup2\n      mstore\n      0x20\n      add\n      swap1\n      dup2\n      mstore\n      0x20\n      add\n      0x00\n      keccak256\n      0x00\n      swap1\n      sload\n      swap1\n      0x0100\n      exp\n      swap1\n      div\n      0xff\n      and\n        /* \"UsersMixin.sol\":3062:3099   */\n      tag_462\n      jumpi\n      0x00\n      dup1\n      revert\n    tag_462:\n        /* \"UsersMixin.sol\":3107:3124   */\n      0x00\n        /* \"UsersMixin.sol\":3127:3132   */\n      0x05\n        /* \"UsersMixin.sol\":3127:3148   */\n      0x00\n        /* \"UsersMixin.sol\":3133:3147   */\n      dup5\n        /* \"UsersMixin.sol\":3127:3148   */\n      0xffffffffffffffffffffffffffffffffffffffff\n      and\n      0xffffffffffffffffffffffffffffffffffffffff\n      and\n      dup2\n      mstore\n      0x20\n      add\n      swap1\n      dup2\n      mstore\n      0x20\n      add\n      0x00\n      keccak256\n        /* \"UsersMixin.sol\":3107:3148   */\n      swap1\n      pop\n        /* \"UsersMixin.sol\":3156:3179   */\n      0x00\n        /* \"UsersMixin.sol\":3182:3193   */\n      0x02\n        /* \"UsersMixin.sol\":3194:3203   */\n      dup4\n        /* \"UsersMixin.sol\":3182:3204   */\n      dup2\n      sload\n      dup2\n      lt\n      tag_463\n      jumpi\n      tag_464\n      tag_224\n      jump\t// in\n    tag_464:\n    tag_463:\n      swap1\n      0x00\n      mstore\n      keccak256(0x00, 0x20)\n      swap1\n      0x06\n      mul\n      add\n        /* \"UsersMixin.sol\":3156:3204   */\n      swap1\n      pop\n        /* \"UsersMixin.sol\":3212:3216   */\n      dup2\n        /* \"UsersMixin.sol\":3212:3237   */\n      0x06\n      add\n      0x00\n        /* \"UsersMixin.sol\":3212:3239   */\n      dup2\n      sload\n      dup1\n      swap3\n      swap2\n      swap1\n      tag_466\n      swap1\n      tag_232\n      jump\t// in\n    tag_466:\n      swap2\n      swap1\n      pop\n      sstore\n      pop\n        /* \"UsersMixin.sol\":3267:3271   */\n      dup2\n        /* \"UsersMixin.sol\":3247:3255   */\n      0x01\n        /* \"UsersMixin.sol\":3256:3260   */\n      dup4\n        /* \"UsersMixin.sol\":3256:3263   */\n      0x00\n      add\n      sload\n        /* \"UsersMixin.sol\":3247:3264   */\n      dup2\n      sload\n      dup2\n      lt\n      tag_467\n      jumpi\n      tag_468\n      tag_224\n      jump\t// in\n    tag_468:\n    tag_467:\n      swap1\n      0x00\n      mstore\n      keccak256(0x00, 0x20)\n      swap1\n      0x08\n      mul\n      add\n        /* \"UsersMixin.sol\":3247:3271   */\n      0x00\n      dup3\n      add\n      sload\n      dup2\n      0x00\n      add\n      sstore\n      0x01\n      dup3\n      add\n      0x00\n      swap1\n      sload\n      swap1\n      0x0100\n      exp\n      swap1\n      div\n      0xffffffffffffffffffffffffffffffffffffffff\n      and\n      dup2\n      0x01\n      add\n      exp(0x0100, 0x00)\n      dup2\n      sload\n      dup2\n      0xffffffffffffffffffffffffffffffffffffffff\n      mul\n      not\n      and\n      swap1\n      dup4\n      0xffffffffffffffffffffffffffffffffffffffff\n      and\n      mul\n      or\n      swap1\n      sstore\n      pop\n      0x02\n      dup3\n      add\n      dup2\n      0x02\n      add\n      swap1\n      dup2\n      tag_470\n      swap2\n      swap1\n      tag_227\n      jump\t// in\n    tag_470:\n      pop\n      0x03\n      dup3\n      add\n      dup2\n      0x03\n      add\n      swap1\n      dup2\n      tag_471\n      swap2\n      swap1\n      tag_227\n      jump\t// in\n    tag_471:\n      pop\n      0x04\n      dup3\n      add\n      dup2\n      0x04\n      add\n      swap1\n      dup2\n      tag_472\n      swap2\n      swap1\n      tag_227\n      jump\t// in\n    tag_472:\n      pop\n      0x05\n      dup3\n      add\n      sload\n      dup2\n      0x05\n      add\n      sstore\n      0x06\n      dup3\n      add\n      sload\n      dup2\n      0x06\n      add\n      sstore\n      0x07\n      dup3\n      add\n      dup2\n      0x07\n      add\n      swap1\n      dup2\n      tag_473\n      swap2\n      swap1\n      tag_227\n      jump\t// in\n    tag_473:\n      pop\n      swap1\n      pop\n      pop\n        /* \"UsersMixin.sol\":3279:3301   */\n      0x0a\n        /* \"UsersMixin.sol\":3279:3317   */\n      0x00\n        /* \"UsersMixin.sol\":3302:3316   */\n      dup6\n        /* \"UsersMixin.sol\":3279:3317   */\n      0xffffffffffffffffffffffffffffffffffffffff\n      and\n      0xffffffffffffffffffffffffffffffffffffffff\n      and\n      dup2\n      mstore\n      0x20\n      add\n      swap1\n      dup2\n      mstore\n      0x20\n      add\n      0x00\n      keccak256\n        /* \"UsersMixin.sol\":3323:3330   */\n      dup2\n        /* \"UsersMixin.sol\":3279:3331   */\n      swap1\n      dup1\n      0x01\n      dup2\n      sload\n      add\n      dup1\n      dup3\n      sstore\n      dup1\n      swap2\n      pop\n      pop\n      0x01\n      swap1\n      sub\n      swap1\n      0x00\n      mstore\n      keccak256(0x00, 0x20)\n      swap1\n      0x06\n      mul\n      add\n      0x00\n      swap1\n      swap2\n      swap1\n      swap2\n      swap1\n      swap2\n      pop\n      0x00\n      dup3\n      add\n      sload\n      dup2\n      0x00\n      add\n      sstore\n      0x01\n      dup3\n      add\n      dup2\n      0x01\n      add\n      swap1\n      dup2\n      tag_475\n      swap2\n      swap1\n      tag_227\n      jump\t// in\n    tag_475:\n      pop\n      0x02\n      dup3\n      add\n      dup2\n      0x02\n      add\n      swap1\n      dup2\n      tag_476\n      swap2\n      swap1\n      tag_227\n      jump\t// in\n    tag_476:\n      pop\n      0x03\n      dup3\n      add\n      dup2\n      0x03\n      add\n      swap1\n      dup2\n      tag_477\n      swap2\n      swap1\n      tag_227\n      jump\t// in\n    tag_477:\n      pop\n      0x04\n      dup3\n      add\n      sload\n      dup2\n      0x04\n      add\n      sstore\n      0x05\n      dup3\n      add\n      sload\n      dup2\n      0x05\n      add\n      sstore\n      pop\n      pop\n        /* \"UsersMixin.sol\":3054:3338   */\n      pop\n      pop\n        /* \"UsersMixin.sol\":2971:3338   */\n      pop\n      pop\n      jump\t// out\n        /* \"UsersMixin.sol\":273:470   */\n    tag_141:\n        /* \"UsersMixin.sol\":364:371   */\n      0x00\n      dup1\n      sload\n      swap1\n      0x0100\n      exp\n      swap1\n      div\n      0xffffffffffffffffffffffffffffffffffffffff\n      and\n        /* \"UsersMixin.sol\":350:371   */\n      0xffffffffffffffffffffffffffffffffffffffff\n      and\n        /* \"UsersMixin.sol\":350:360   */\n      caller\n        /* \"UsersMixin.sol\":350:371   */\n      0xffffffffffffffffffffffffffffffffffffffff\n      and\n      eq\n        /* \"UsersMixin.sol\":342:412   */\n      tag_479\n      jumpi\n      mload(0x40)\n      0x08c379a000000000000000000000000000000000000000000000000000000000\n      dup2\n      mstore\n      0x04\n      add\n      tag_480\n      swap1\n      tag_267\n      jump\t// in\n    tag_480:\n      mload(0x40)\n      dup1\n      swap2\n      sub\n      swap1\n      revert\n    tag_479:\n        /* \"UsersMixin.sol\":422:431   */\n      dup1\n        /* \"UsersMixin.sol\":422:440   */\n      0xffffffffffffffffffffffffffffffffffffffff\n      and\n        /* \"UsersMixin.sol\":422:463   */\n      0x08fc\n        /* \"UsersMixin.sol\":441:462   */\n      selfbalance\n        /* \"UsersMixin.sol\":422:463   */\n      swap1\n      dup2\n      iszero\n      mul\n      swap1\n      mload(0x40)\n      0x00\n      mload(0x40)\n      dup1\n      dup4\n      sub\n      dup2\n      dup6\n      dup9\n      dup9\n      call\n      swap4\n      pop\n      pop\n      pop\n      pop\n      iszero\n      dup1\n      iszero\n      tag_482\n      jumpi\n      returndatasize\n      0x00\n      dup1\n      returndatacopy\n      revert(0x00, returndatasize)\n    tag_482:\n      pop\n        /* \"UsersMixin.sol\":273:470   */\n      pop\n      jump\t// out\n        /* \"UsersStorage.sol\":1476:1498   */\n    tag_144:\n      sload(0x13)\n      dup2\n      jump\t// out\n        /* \"UsersProxy.sol\":328:538  function upgradeImplementation(address _newImplementation) public {... */\n    tag_149:\n        /* \"UsersProxy.sol\":426:433  manager */\n      0x00\n      dup1\n      sload\n      swap1\n      0x0100\n      exp\n      swap1\n      div\n      0xffffffffffffffffffffffffffffffffffffffff\n      and\n        /* \"UsersProxy.sol\":412:433  msg.sender == manager */\n      0xffffffffffffffffffffffffffffffffffffffff\n      and\n        /* \"UsersProxy.sol\":412:422  msg.sender */\n      caller\n        /* \"UsersProxy.sol\":412:433  msg.sender == manager */\n      0xffffffffffffffffffffffffffffffffffffffff\n      and\n      eq\n        /* \"UsersProxy.sol\":404:486  require(msg.sender == manager, \"Only the manager can upgrade the implementation.\") */\n      tag_484\n      jumpi\n      mload(0x40)\n      0x08c379a000000000000000000000000000000000000000000000000000000000\n      dup2\n      mstore\n      0x04\n      add\n      tag_485\n      swap1\n      tag_486\n      jump\t// in\n    tag_485:\n      mload(0x40)\n      dup1\n      swap2\n      sub\n      swap1\n      revert\n    tag_484:\n        /* \"UsersProxy.sol\":513:531  _newImplementation */\n      dup1\n        /* \"UsersProxy.sol\":496:510  implementation */\n      0x15\n      0x00\n        /* \"UsersProxy.sol\":496:531  implementation = _newImplementation */\n      0x0100\n      exp\n      dup2\n      sload\n      dup2\n      0xffffffffffffffffffffffffffffffffffffffff\n      mul\n      not\n      and\n      swap1\n      dup4\n      0xffffffffffffffffffffffffffffffffffffffff\n      and\n      mul\n      or\n      swap1\n      sstore\n      pop\n        /* \"UsersProxy.sol\":328:538  function upgradeImplementation(address _newImplementation) public {... */\n      pop\n      jump\t// out\n        /* \"UsersStorage.sol\":1160:1201   */\n    tag_153:\n      0x0d\n      dup2\n      dup1\n      mload\n      0x20\n      dup2\n      add\n      dup3\n      add\n      dup1\n      mload\n      dup5\n      dup3\n      mstore\n      0x20\n      dup4\n      add\n      0x20\n      dup6\n      add\n      keccak256\n      dup2\n      dup4\n      mstore\n      dup1\n      swap6\n      pop\n      pop\n      pop\n      pop\n      pop\n      pop\n      0x00\n      swap2\n      pop\n      swap1\n      pop\n      sload\n      dup2\n      jump\t// out\n        /* \"UsersStorage.sol\":593:615   */\n    tag_158:\n      0x01\n      dup2\n      dup2\n      sload\n      dup2\n      lt\n      tag_487\n      jumpi\n      0x00\n      dup1\n      revert\n    tag_487:\n      swap1\n      0x00\n      mstore\n      keccak256(0x00, 0x20)\n      swap1\n      0x08\n      mul\n      add\n      0x00\n      swap2\n      pop\n      swap1\n      pop\n      dup1\n      0x00\n      add\n      sload\n      swap1\n      dup1\n      0x01\n      add\n      0x00\n      swap1\n      sload\n      swap1\n      0x0100\n      exp\n      swap1\n      div\n      0xffffffffffffffffffffffffffffffffffffffff\n      and\n      swap1\n      dup1\n      0x02\n      add\n      dup1\n      sload\n      tag_489\n      swap1\n      tag_342\n      jump\t// in\n    tag_489:\n      dup1\n      0x1f\n      add\n      0x20\n      dup1\n      swap2\n      div\n      mul\n      0x20\n      add\n      mload(0x40)\n      swap1\n      dup2\n      add\n      0x40\n      mstore\n      dup1\n      swap3\n      swap2\n      swap1\n      dup2\n      dup2\n      mstore\n      0x20\n      add\n      dup3\n      dup1\n      sload\n      tag_490\n      swap1\n      tag_342\n      jump\t// in\n    tag_490:\n      dup1\n      iszero\n      tag_491\n      jumpi\n      dup1\n      0x1f\n      lt\n      tag_492\n      jumpi\n      0x0100\n      dup1\n      dup4\n      sload\n      div\n      mul\n      dup4\n      mstore\n      swap2\n      0x20\n      add\n      swap2\n      jump(tag_491)\n    tag_492:\n      dup3\n      add\n      swap2\n      swap1\n      0x00\n      mstore\n      keccak256(0x00, 0x20)\n      swap1\n    tag_493:\n      dup2\n      sload\n      dup2\n      mstore\n      swap1\n      0x01\n      add\n      swap1\n      0x20\n      add\n      dup1\n      dup4\n      gt\n      tag_493\n      jumpi\n      dup3\n      swap1\n      sub\n      0x1f\n      and\n      dup3\n      add\n      swap2\n    tag_491:\n      pop\n      pop\n      pop\n      pop\n      pop\n      swap1\n      dup1\n      0x03\n      add\n      dup1\n      sload\n      tag_494\n      swap1\n      tag_342\n      jump\t// in\n    tag_494:\n      dup1\n      0x1f\n      add\n      0x20\n      dup1\n      swap2\n      div\n      mul\n      0x20\n      add\n      mload(0x40)\n      swap1\n      dup2\n      add\n      0x40\n      mstore\n      dup1\n      swap3\n      swap2\n      swap1\n      dup2\n      dup2\n      mstore\n      0x20\n      add\n      dup3\n      dup1\n      sload\n      tag_495\n      swap1\n      tag_342\n      jump\t// in\n    tag_495:\n      dup1\n      iszero\n      tag_496\n      jumpi\n      dup1\n      0x1f\n      lt\n      tag_497\n      jumpi\n      0x0100\n      dup1\n      dup4\n      sload\n      div\n      mul\n      dup4\n      mstore\n      swap2\n      0x20\n      add\n      swap2\n      jump(tag_496)\n    tag_497:\n      dup3\n      add\n      swap2\n      swap1\n      0x00\n      mstore\n      keccak256(0x00, 0x20)\n      swap1\n    tag_498:\n      dup2\n      sload\n      dup2\n      mstore\n      swap1\n      0x01\n      add\n      swap1\n      0x20\n      add\n      dup1\n      dup4\n      gt\n      tag_498\n      jumpi\n      dup3\n      swap1\n      sub\n      0x1f\n      and\n      dup3\n      add\n      swap2\n    tag_496:\n      pop\n      pop\n      pop\n      pop\n      pop\n      swap1\n      dup1\n      0x04\n      add\n      dup1\n      sload\n      tag_499\n      swap1\n      tag_342\n      jump\t// in\n    tag_499:\n      dup1\n      0x1f\n      add\n      0x20\n      dup1\n      swap2\n      div\n      mul\n      0x20\n      add\n      mload(0x40)\n      swap1\n      dup2\n      add\n      0x40\n      mstore\n      dup1\n      swap3\n      swap2\n      swap1\n      dup2\n      dup2\n      mstore\n      0x20\n      add\n      dup3\n      dup1\n      sload\n      tag_500\n      swap1\n      tag_342\n      jump\t// in\n    tag_500:\n      dup1\n      iszero\n      tag_501\n      jumpi\n      dup1\n      0x1f\n      lt\n      tag_502\n      jumpi\n      0x0100\n      dup1\n      dup4\n      sload\n      div\n      mul\n      dup4\n      mstore\n      swap2\n      0x20\n      add\n      swap2\n      jump(tag_501)\n    tag_502:\n      dup3\n      add\n      swap2\n      swap1\n      0x00\n      mstore\n      keccak256(0x00, 0x20)\n      swap1\n    tag_503:\n      dup2\n      sload\n      dup2\n      mstore\n      swap1\n      0x01\n      add\n      swap1\n      0x20\n      add\n      dup1\n      dup4\n      gt\n      tag_503\n      jumpi\n      dup3\n      swap1\n      sub\n      0x1f\n      and\n      dup3\n      add\n      swap2\n    tag_501:\n      pop\n      pop\n      pop\n      pop\n      pop\n      swap1\n      dup1\n      0x05\n      add\n      sload\n      swap1\n      dup1\n      0x06\n      add\n      sload\n      swap1\n      dup1\n      0x07\n      add\n      dup1\n      sload\n      tag_504\n      swap1\n      tag_342\n      jump\t// in\n    tag_504:\n      dup1\n      0x1f\n      add\n      0x20\n      dup1\n      swap2\n      div\n      mul\n      0x20\n      add\n      mload(0x40)\n      swap1\n      dup2\n      add\n      0x40\n      mstore\n      dup1\n      swap3\n      swap2\n      swap1\n      dup2\n      dup2\n      mstore\n      0x20\n      add\n      dup3\n      dup1\n      sload\n      tag_505\n      swap1\n      tag_342\n      jump\t// in\n    tag_505:\n      dup1\n      iszero\n      tag_506\n      jumpi\n      dup1\n      0x1f\n      lt\n      tag_507\n      jumpi\n      0x0100\n      dup1\n      dup4\n      sload\n      div\n      mul\n      dup4\n      mstore\n      swap2\n      0x20\n      add\n      swap2\n      jump(tag_506)\n    tag_507:\n      dup3\n      add\n      swap2\n      swap1\n      0x00\n      mstore\n      keccak256(0x00, 0x20)\n      swap1\n    tag_508:\n      dup2\n      sload\n      dup2\n      mstore\n      swap1\n      0x01\n      add\n      swap1\n      0x20\n      add\n      dup1\n      dup4\n      gt\n      tag_508\n      jumpi\n      dup3\n      swap1\n      sub\n      0x1f\n      and\n      dup3\n      add\n      swap2\n    tag_506:\n      pop\n      pop\n      pop\n      pop\n      pop\n      swap1\n      pop\n      dup9\n      jump\t// out\n        /* \"UsersStorage.sol\":730:767   */\n    tag_163:\n      mstore(0x20, 0x05)\n      dup1\n      0x00\n      mstore\n      keccak256(0x00, 0x40)\n      0x00\n      swap2\n      pop\n      swap1\n      pop\n      dup1\n      0x00\n      add\n      sload\n      swap1\n      dup1\n      0x01\n      add\n      0x00\n      swap1\n      sload\n      swap1\n      0x0100\n      exp\n      swap1\n      div\n      0xffffffffffffffffffffffffffffffffffffffff\n      and\n      swap1\n      dup1\n      0x02\n      add\n      dup1\n      sload\n      tag_509\n      swap1\n      tag_342\n      jump\t// in\n    tag_509:\n      dup1\n      0x1f\n      add\n      0x20\n      dup1\n      swap2\n      div\n      mul\n      0x20\n      add\n      mload(0x40)\n      swap1\n      dup2\n      add\n      0x40\n      mstore\n      dup1\n      swap3\n      swap2\n      swap1\n      dup2\n      dup2\n      mstore\n      0x20\n      add\n      dup3\n      dup1\n      sload\n      tag_510\n      swap1\n      tag_342\n      jump\t// in\n    tag_510:\n      dup1\n      iszero\n      tag_511\n      jumpi\n      dup1\n      0x1f\n      lt\n      tag_512\n      jumpi\n      0x0100\n      dup1\n      dup4\n      sload\n      div\n      mul\n      dup4\n      mstore\n      swap2\n      0x20\n      add\n      swap2\n      jump(tag_511)\n    tag_512:\n      dup3\n      add\n      swap2\n      swap1\n      0x00\n      mstore\n      keccak256(0x00, 0x20)\n      swap1\n    tag_513:\n      dup2\n      sload\n      dup2\n      mstore\n      swap1\n      0x01\n      add\n      swap1\n      0x20\n      add\n      dup1\n      dup4\n      gt\n      tag_513\n      jumpi\n      dup3\n      swap1\n      sub\n      0x1f\n      and\n      dup3\n      add\n      swap2\n    tag_511:\n      pop\n      pop\n      pop\n      pop\n      pop\n      swap1\n      dup1\n      0x03\n      add\n      dup1\n      sload\n      tag_514\n      swap1\n      tag_342\n      jump\t// in\n    tag_514:\n      dup1\n      0x1f\n      add\n      0x20\n      dup1\n      swap2\n      div\n      mul\n      0x20\n      add\n      mload(0x40)\n      swap1\n      dup2\n      add\n      0x40\n      mstore\n      dup1\n      swap3\n      swap2\n      swap1\n      dup2\n      dup2\n      mstore\n      0x20\n      add\n      dup3\n      dup1\n      sload\n      tag_515\n      swap1\n      tag_342\n      jump\t// in\n    tag_515:\n      dup1\n      iszero\n      tag_516\n      jumpi\n      dup1\n      0x1f\n      lt\n      tag_517\n      jumpi\n      0x0100\n      dup1\n      dup4\n      sload\n      div\n      mul\n      dup4\n      mstore\n      swap2\n      0x20\n      add\n      swap2\n      jump(tag_516)\n    tag_517:\n      dup3\n      add\n      swap2\n      swap1\n      0x00\n      mstore\n      keccak256(0x00, 0x20)\n      swap1\n    tag_518:\n      dup2\n      sload\n      dup2\n      mstore\n      swap1\n      0x01\n      add\n      swap1\n      0x20\n      add\n      dup1\n      dup4\n      gt\n      tag_518\n      jumpi\n      dup3\n      swap1\n      sub\n      0x1f\n      and\n      dup3\n      add\n      swap2\n    tag_516:\n      pop\n      pop\n      pop\n      pop\n      pop\n      swap1\n      dup1\n      0x04\n      add\n      dup1\n      sload\n      tag_519\n      swap1\n      tag_342\n      jump\t// in\n    tag_519:\n      dup1\n      0x1f\n      add\n      0x20\n      dup1\n      swap2\n      div\n      mul\n      0x20\n      add\n      mload(0x40)\n      swap1\n      dup2\n      add\n      0x40\n      mstore\n      dup1\n      swap3\n      swap2\n      swap1\n      dup2\n      dup2\n      mstore\n      0x20\n      add\n      dup3\n      dup1\n      sload\n      tag_520\n      swap1\n      tag_342\n      jump\t// in\n    tag_520:\n      dup1\n      iszero\n      tag_521\n      jumpi\n      dup1\n      0x1f\n      lt\n      tag_522\n      jumpi\n      0x0100\n      dup1\n      dup4\n      sload\n      div\n      mul\n      dup4\n      mstore\n      swap2\n      0x20\n      add\n      swap2\n      jump(tag_521)\n    tag_522:\n      dup3\n      add\n      swap2\n      swap1\n      0x00\n      mstore\n      keccak256(0x00, 0x20)\n      swap1\n    tag_523:\n      dup2\n      sload\n      dup2\n      mstore\n      swap1\n      0x01\n      add\n      swap1\n      0x20\n      add\n      dup1\n      dup4\n      gt\n      tag_523\n      jumpi\n      dup3\n      swap1\n      sub\n      0x1f\n      and\n      dup3\n      add\n      swap2\n    tag_521:\n      pop\n      pop\n      pop\n      pop\n      pop\n      swap1\n      dup1\n      0x05\n      add\n      sload\n      swap1\n      dup1\n      0x06\n      add\n      sload\n      swap1\n      dup1\n      0x07\n      add\n      dup1\n      sload\n      tag_524\n      swap1\n      tag_342\n      jump\t// in\n    tag_524:\n      dup1\n      0x1f\n      add\n      0x20\n      dup1\n      swap2\n      div\n      mul\n      0x20\n      add\n      mload(0x40)\n      swap1\n      dup2\n      add\n      0x40\n      mstore\n      dup1\n      swap3\n      swap2\n      swap1\n      dup2\n      dup2\n      mstore\n      0x20\n      add\n      dup3\n      dup1\n      sload\n      tag_525\n      swap1\n      tag_342\n      jump\t// in\n    tag_525:\n      dup1\n      iszero\n      tag_526\n      jumpi\n      dup1\n      0x1f\n      lt\n      tag_527\n      jumpi\n      0x0100\n      dup1\n      dup4\n      sload\n      div\n      mul\n      dup4\n      mstore\n      swap2\n      0x20\n      add\n      swap2\n      jump(tag_526)\n    tag_527:\n      dup3\n      add\n      swap2\n      swap1\n      0x00\n      mstore\n      keccak256(0x00, 0x20)\n      swap1\n    tag_528:\n      dup2\n      sload\n      dup2\n      mstore\n      swap1\n      0x01\n      add\n      swap1\n      0x20\n      add\n      dup1\n      dup4\n      gt\n      tag_528\n      jumpi\n      dup3\n      swap1\n      sub\n      0x1f\n      and\n      dup3\n      add\n      swap2\n    tag_526:\n      pop\n      pop\n      pop\n      pop\n      pop\n      swap1\n      pop\n      dup9\n      jump\t// out\n        /* \"UsersStorage.sol\":1207:1255   */\n    tag_168:\n      mstore(0x20, 0x0e)\n      dup1\n      0x00\n      mstore\n      keccak256(0x00, 0x40)\n      0x00\n      swap2\n      pop\n      sload\n      swap1\n      0x0100\n      exp\n      swap1\n      div\n      0xff\n      and\n      dup2\n      jump\t// out\n        /* \"UsersMixin.sol\":476:1165   */\n    tag_172:\n        /* \"UsersMixin.sol\":610:626   */\n      0x0e\n        /* \"UsersMixin.sol\":610:639   */\n      0x00\n        /* \"UsersMixin.sol\":627:638   */\n      dup6\n        /* \"UsersMixin.sol\":610:639   */\n      0xffffffffffffffffffffffffffffffffffffffff\n      and\n      0xffffffffffffffffffffffffffffffffffffffff\n      and\n      dup2\n      mstore\n      0x20\n      add\n      swap1\n      dup2\n      mstore\n      0x20\n      add\n      0x00\n      keccak256\n      0x00\n      swap1\n      sload\n      swap1\n      0x0100\n      exp\n      swap1\n      div\n      0xff\n      and\n        /* \"UsersMixin.sol\":609:639   */\n      iszero\n        /* \"UsersMixin.sol\":601:640   */\n      tag_530\n      jumpi\n      0x00\n      dup1\n      revert\n    tag_530:\n        /* \"UsersMixin.sol\":657:670   */\n      0x0f\n        /* \"UsersMixin.sol\":671:676   */\n      dup4\n        /* \"UsersMixin.sol\":657:677   */\n      mload(0x40)\n      tag_531\n      swap2\n      swap1\n      tag_304\n      jump\t// in\n    tag_531:\n      swap1\n      dup2\n      mstore\n      0x20\n      add\n      mload(0x40)\n      dup1\n      swap2\n      sub\n      swap1\n      keccak256\n      0x00\n      swap1\n      sload\n      swap1\n      0x0100\n      exp\n      swap1\n      div\n      0xff\n      and\n        /* \"UsersMixin.sol\":656:677   */\n      iszero\n        /* \"UsersMixin.sol\":648:678   */\n      tag_532\n      jumpi\n      0x00\n      dup1\n      revert\n    tag_532:\n        /* \"UsersMixin.sol\":687:704   */\n      0x00\n        /* \"UsersMixin.sol\":707:715   */\n      0x01\n        /* \"UsersMixin.sol\":707:722   */\n      dup1\n      dup2\n      0x01\n      dup2\n      sload\n      add\n      dup1\n      dup3\n      sstore\n      dup1\n      swap2\n      pop\n      pop\n      sub\n      swap1\n      0x00\n      mstore\n      keccak256(0x00, 0x20)\n      swap1\n      0x08\n      mul\n      add\n        /* \"UsersMixin.sol\":687:722   */\n      swap1\n      pop\n        /* \"UsersMixin.sol\":741:751   */\n      sload(0x13)\n        /* \"UsersMixin.sol\":731:735   */\n      dup2\n        /* \"UsersMixin.sol\":731:738   */\n      0x00\n      add\n        /* \"UsersMixin.sol\":731:751   */\n      dup2\n      swap1\n      sstore\n      pop\n        /* \"UsersMixin.sol\":778:789   */\n      dup5\n        /* \"UsersMixin.sol\":759:763   */\n      dup2\n        /* \"UsersMixin.sol\":759:775   */\n      0x01\n      add\n      0x00\n        /* \"UsersMixin.sol\":759:789   */\n      0x0100\n      exp\n      dup2\n      sload\n      dup2\n      0xffffffffffffffffffffffffffffffffffffffff\n      mul\n      not\n      and\n      swap1\n      dup4\n      0xffffffffffffffffffffffffffffffffffffffff\n      and\n      mul\n      or\n      swap1\n      sstore\n      pop\n        /* \"UsersMixin.sol\":813:818   */\n      dup4\n        /* \"UsersMixin.sol\":797:801   */\n      dup2\n        /* \"UsersMixin.sol\":797:810   */\n      0x02\n      add\n        /* \"UsersMixin.sol\":797:818   */\n      swap1\n      dup2\n      tag_534\n      swap2\n      swap1\n      tag_294\n      jump\t// in\n    tag_534:\n      pop\n        /* \"UsersMixin.sol\":844:848   */\n      dup3\n        /* \"UsersMixin.sol\":826:830   */\n      dup2\n        /* \"UsersMixin.sol\":826:841   */\n      0x03\n      add\n        /* \"UsersMixin.sol\":826:848   */\n      swap1\n      dup2\n      tag_535\n      swap2\n      swap1\n      tag_294\n      jump\t// in\n    tag_535:\n      pop\n        /* \"UsersMixin.sol\":875:879   */\n      dup2\n        /* \"UsersMixin.sol\":856:860   */\n      dup2\n        /* \"UsersMixin.sol\":856:872   */\n      0x04\n      add\n        /* \"UsersMixin.sol\":856:879   */\n      swap1\n      dup2\n      tag_536\n      swap2\n      swap1\n      tag_294\n      jump\t// in\n    tag_536:\n      pop\n        /* \"UsersMixin.sol\":915:916   */\n      0x00\n        /* \"UsersMixin.sol\":887:891   */\n      dup2\n        /* \"UsersMixin.sol\":887:912   */\n      0x06\n      add\n        /* \"UsersMixin.sol\":887:916   */\n      dup2\n      swap1\n      sstore\n      pop\n        /* \"UsersMixin.sol\":924:955   */\n      mload(0x40)\n      dup1\n      0x40\n      add\n      0x40\n      mstore\n      dup1\n      0x01\n      dup2\n      mstore\n      0x20\n      add\n      0x3000000000000000000000000000000000000000000000000000000000000000\n      dup2\n      mstore\n      pop\n        /* \"UsersMixin.sol\":924:928   */\n      dup2\n        /* \"UsersMixin.sol\":924:949   */\n      0x07\n      add\n        /* \"UsersMixin.sol\":924:955   */\n      swap1\n      dup2\n      tag_537\n      swap2\n      swap1\n      tag_294\n      jump\t// in\n    tag_537:\n      pop\n        /* \"UsersMixin.sol\":985:989   */\n      dup1\n        /* \"UsersMixin.sol\":964:969   */\n      0x05\n        /* \"UsersMixin.sol\":964:982   */\n      0x00\n        /* \"UsersMixin.sol\":970:981   */\n      dup8\n        /* \"UsersMixin.sol\":964:982   */\n      0xffffffffffffffffffffffffffffffffffffffff\n      and\n      0xffffffffffffffffffffffffffffffffffffffff\n      and\n      dup2\n      mstore\n      0x20\n      add\n      swap1\n      dup2\n      mstore\n      0x20\n      add\n      0x00\n      keccak256\n        /* \"UsersMixin.sol\":964:989   */\n      0x00\n      dup3\n      add\n      sload\n      dup2\n      0x00\n      add\n      sstore\n      0x01\n      dup3\n      add\n      0x00\n      swap1\n      sload\n      swap1\n      0x0100\n      exp\n      swap1\n      div\n      0xffffffffffffffffffffffffffffffffffffffff\n      and\n      dup2\n      0x01\n      add\n      exp(0x0100, 0x00)\n      dup2\n      sload\n      dup2\n      0xffffffffffffffffffffffffffffffffffffffff\n      mul\n      not\n      and\n      swap1\n      dup4\n      0xffffffffffffffffffffffffffffffffffffffff\n      and\n      mul\n      or\n      swap1\n      sstore\n      pop\n      0x02\n      dup3\n      add\n      dup2\n      0x02\n      add\n      swap1\n      dup2\n      tag_538\n      swap2\n      swap1\n      tag_227\n      jump\t// in\n    tag_538:\n      pop\n      0x03\n      dup3\n      add\n      dup2\n      0x03\n      add\n      swap1\n      dup2\n      tag_539\n      swap2\n      swap1\n      tag_227\n      jump\t// in\n    tag_539:\n      pop\n      0x04\n      dup3\n      add\n      dup2\n      0x04\n      add\n      swap1\n      dup2\n      tag_540\n      swap2\n      swap1\n      tag_227\n      jump\t// in\n    tag_540:\n      pop\n      0x05\n      dup3\n      add\n      sload\n      dup2\n      0x05\n      add\n      sstore\n      0x06\n      dup3\n      add\n      sload\n      dup2\n      0x06\n      add\n      sstore\n      0x07\n      dup3\n      add\n      dup2\n      0x07\n      add\n      swap1\n      dup2\n      tag_541\n      swap2\n      swap1\n      tag_227\n      jump\t// in\n    tag_541:\n      pop\n      swap1\n      pop\n      pop\n        /* \"UsersMixin.sol\":1024:1028   */\n      dup1\n        /* \"UsersMixin.sol\":997:1014   */\n      0x0b\n        /* \"UsersMixin.sol\":1015:1020   */\n      dup6\n        /* \"UsersMixin.sol\":997:1021   */\n      mload(0x40)\n      tag_542\n      swap2\n      swap1\n      tag_304\n      jump\t// in\n    tag_542:\n      swap1\n      dup2\n      mstore\n      0x20\n      add\n      mload(0x40)\n      dup1\n      swap2\n      sub\n      swap1\n      keccak256\n        /* \"UsersMixin.sol\":997:1028   */\n      0x00\n      dup3\n      add\n      sload\n      dup2\n      0x00\n      add\n      sstore\n      0x01\n      dup3\n      add\n      0x00\n      swap1\n      sload\n      swap1\n      0x0100\n      exp\n      swap1\n      div\n      0xffffffffffffffffffffffffffffffffffffffff\n      and\n      dup2\n      0x01\n      add\n      exp(0x0100, 0x00)\n      dup2\n      sload\n      dup2\n      0xffffffffffffffffffffffffffffffffffffffff\n      mul\n      not\n      and\n      swap1\n      dup4\n      0xffffffffffffffffffffffffffffffffffffffff\n      and\n      mul\n      or\n      swap1\n      sstore\n      pop\n      0x02\n      dup3\n      add\n      dup2\n      0x02\n      add\n      swap1\n      dup2\n      tag_543\n      swap2\n      swap1\n      tag_227\n      jump\t// in\n    tag_543:\n      pop\n      0x03\n      dup3\n      add\n      dup2\n      0x03\n      add\n      swap1\n      dup2\n      tag_544\n      swap2\n      swap1\n      tag_227\n      jump\t// in\n    tag_544:\n      pop\n      0x04\n      dup3\n      add\n      dup2\n      0x04\n      add\n      swap1\n      dup2\n      tag_545\n      swap2\n      swap1\n      tag_227\n      jump\t// in\n    tag_545:\n      pop\n      0x05\n      dup3\n      add\n      sload\n      dup2\n      0x05\n      add\n      sstore\n      0x06\n      dup3\n      add\n      sload\n      dup2\n      0x06\n      add\n      sstore\n      0x07\n      dup3\n      add\n      dup2\n      0x07\n      add\n      swap1\n      dup2\n      tag_546\n      swap2\n      swap1\n      tag_227\n      jump\t// in\n    tag_546:\n      pop\n      swap1\n      pop\n      pop\n        /* \"UsersMixin.sol\":1068:1072   */\n      0x01\n        /* \"UsersMixin.sol\":1036:1052   */\n      0x0e\n        /* \"UsersMixin.sol\":1036:1065   */\n      0x00\n        /* \"UsersMixin.sol\":1053:1064   */\n      dup8\n        /* \"UsersMixin.sol\":1036:1065   */\n      0xffffffffffffffffffffffffffffffffffffffff\n      and\n      0xffffffffffffffffffffffffffffffffffffffff\n      and\n      dup2\n      mstore\n      0x20\n      add\n      swap1\n      dup2\n      mstore\n      0x20\n      add\n      0x00\n      keccak256\n      0x00\n        /* \"UsersMixin.sol\":1036:1072   */\n      0x0100\n      exp\n      dup2\n      sload\n      dup2\n      0xff\n      mul\n      not\n      and\n      swap1\n      dup4\n      iszero\n      iszero\n      mul\n      or\n      swap1\n      sstore\n      pop\n        /* \"UsersMixin.sol\":1103:1107   */\n      0x01\n        /* \"UsersMixin.sol\":1080:1093   */\n      0x0f\n        /* \"UsersMixin.sol\":1094:1099   */\n      dup6\n        /* \"UsersMixin.sol\":1080:1100   */\n      mload(0x40)\n      tag_547\n      swap2\n      swap1\n      tag_304\n      jump\t// in\n    tag_547:\n      swap1\n      dup2\n      mstore\n      0x20\n      add\n      mload(0x40)\n      dup1\n      swap2\n      sub\n      swap1\n      keccak256\n      0x00\n        /* \"UsersMixin.sol\":1080:1107   */\n      0x0100\n      exp\n      dup2\n      sload\n      dup2\n      0xff\n      mul\n      not\n      and\n      swap1\n      dup4\n      iszero\n      iszero\n      mul\n      or\n      swap1\n      sstore\n      pop\n        /* \"UsersMixin.sol\":1134:1135   */\n      0x01\n        /* \"UsersMixin.sol\":1115:1124   */\n      0x0c\n        /* \"UsersMixin.sol\":1125:1129   */\n      dup5\n        /* \"UsersMixin.sol\":1115:1130   */\n      mload(0x40)\n      tag_548\n      swap2\n      swap1\n      tag_304\n      jump\t// in\n    tag_548:\n      swap1\n      dup2\n      mstore\n      0x20\n      add\n      mload(0x40)\n      dup1\n      swap2\n      sub\n      swap1\n      keccak256\n      0x00\n        /* \"UsersMixin.sol\":1115:1135   */\n      dup3\n      dup3\n      sload\n      tag_549\n      swap2\n      swap1\n      tag_337\n      jump\t// in\n    tag_549:\n      swap3\n      pop\n      pop\n      dup2\n      swap1\n      sstore\n      pop\n        /* \"UsersMixin.sol\":1157:1158   */\n      0x01\n        /* \"UsersMixin.sol\":1143:1153   */\n      0x13\n      0x00\n        /* \"UsersMixin.sol\":1143:1158   */\n      dup3\n      dup3\n      sload\n      tag_550\n      swap2\n      swap1\n      tag_337\n      jump\t// in\n    tag_550:\n      swap3\n      pop\n      pop\n      dup2\n      swap1\n      sstore\n      pop\n        /* \"UsersMixin.sol\":593:1165   */\n      pop\n        /* \"UsersMixin.sol\":476:1165   */\n      pop\n      pop\n      pop\n      pop\n      jump\t// out\n        /* \"UsersStorage.sol\":691:724   */\n    tag_176:\n      0x04\n      dup2\n      dup2\n      sload\n      dup2\n      lt\n      tag_551\n      jumpi\n      0x00\n      dup1\n      revert\n    tag_551:\n      swap1\n      0x00\n      mstore\n      keccak256(0x00, 0x20)\n      swap1\n      0x06\n      mul\n      add\n      0x00\n      swap2\n      pop\n      swap1\n      pop\n      dup1\n      0x00\n      add\n      sload\n      swap1\n      dup1\n      0x01\n      add\n      dup1\n      sload\n      tag_553\n      swap1\n      tag_342\n      jump\t// in\n    tag_553:\n      dup1\n      0x1f\n      add\n      0x20\n      dup1\n      swap2\n      div\n      mul\n      0x20\n      add\n      mload(0x40)\n      swap1\n      dup2\n      add\n      0x40\n      mstore\n      dup1\n      swap3\n      swap2\n      swap1\n      dup2\n      dup2\n      mstore\n      0x20\n      add\n      dup3\n      dup1\n      sload\n      tag_554\n      swap1\n      tag_342\n      jump\t// in\n    tag_554:\n      dup1\n      iszero\n      tag_555\n      jumpi\n      dup1\n      0x1f\n      lt\n      tag_556\n      jumpi\n      0x0100\n      dup1\n      dup4\n      sload\n      div\n      mul\n      dup4\n      mstore\n      swap2\n      0x20\n      add\n      swap2\n      jump(tag_555)\n    tag_556:\n      dup3\n      add\n      swap2\n      swap1\n      0x00\n      mstore\n      keccak256(0x00, 0x20)\n      swap1\n    tag_557:\n      dup2\n      sload\n      dup2\n      mstore\n      swap1\n      0x01\n      add\n      swap1\n      0x20\n      add\n      dup1\n      dup4\n      gt\n      tag_557\n      jumpi\n      dup3\n      swap1\n      sub\n      0x1f\n      and\n      dup3\n      add\n      swap2\n    tag_555:\n      pop\n      pop\n      pop\n      pop\n      pop\n      swap1\n      dup1\n      0x02\n      add\n      dup1\n      sload\n      tag_558\n      swap1\n      tag_342\n      jump\t// in\n    tag_558:\n      dup1\n      0x1f\n      add\n      0x20\n      dup1\n      swap2\n      div\n      mul\n      0x20\n      add\n      mload(0x40)\n      swap1\n      dup2\n      add\n      0x40\n      mstore\n      dup1\n      swap3\n      swap2\n      swap1\n      dup2\n      dup2\n      mstore\n      0x20\n      add\n      dup3\n      dup1\n      sload\n      tag_559\n      swap1\n      tag_342\n      jump\t// in\n    tag_559:\n      dup1\n      iszero\n      tag_560\n      jumpi\n      dup1\n      0x1f\n      lt\n      tag_561\n      jumpi\n      0x0100\n      dup1\n      dup4\n      sload\n      div\n      mul\n      dup4\n      mstore\n      swap2\n      0x20\n      add\n      swap2\n      jump(tag_560)\n    tag_561:\n      dup3\n      add\n      swap2\n      swap1\n      0x00\n      mstore\n      keccak256(0x00, 0x20)\n      swap1\n    tag_562:\n      dup2\n      sload\n      dup2\n      mstore\n      swap1\n      0x01\n      add\n      swap1\n      0x20\n      add\n      dup1\n      dup4\n      gt\n      tag_562\n      jumpi\n      dup3\n      swap1\n      sub\n      0x1f\n      and\n      dup3\n      add\n      swap2\n    tag_560:\n      pop\n      pop\n      pop\n      pop\n      pop\n      swap1\n      dup1\n      0x03\n      add\n      dup1\n      sload\n      tag_563\n      swap1\n      tag_342\n      jump\t// in\n    tag_563:\n      dup1\n      0x1f\n      add\n      0x20\n      dup1\n      swap2\n      div\n      mul\n      0x20\n      add\n      mload(0x40)\n      swap1\n      dup2\n      add\n      0x40\n      mstore\n      dup1\n      swap3\n      swap2\n      swap1\n      dup2\n      dup2\n      mstore\n      0x20\n      add\n      dup3\n      dup1\n      sload\n      tag_564\n      swap1\n      tag_342\n      jump\t// in\n    tag_564:\n      dup1\n      iszero\n      tag_565\n      jumpi\n      dup1\n      0x1f\n      lt\n      tag_566\n      jumpi\n      0x0100\n      dup1\n      dup4\n      sload\n      div\n      mul\n      dup4\n      mstore\n      swap2\n      0x20\n      add\n      swap2\n      jump(tag_565)\n    tag_566:\n      dup3\n      add\n      swap2\n      swap1\n      0x00\n      mstore\n      keccak256(0x00, 0x20)\n      swap1\n    tag_567:\n      dup2\n      sload\n      dup2\n      mstore\n      swap1\n      0x01\n      add\n      swap1\n      0x20\n      add\n      dup1\n      dup4\n      gt\n      tag_567\n      jumpi\n      dup3\n      swap1\n      sub\n      0x1f\n      and\n      dup3\n      add\n      swap2\n    tag_565:\n      pop\n      pop\n      pop\n      pop\n      pop\n      swap1\n      dup1\n      0x04\n      add\n      sload\n      swap1\n      dup1\n      0x05\n      add\n      sload\n      swap1\n      pop\n      dup7\n      jump\t// out\n        /* \"UsersStorage.sol\":773:823   */\n    tag_181:\n      mstore(0x20, 0x06)\n      dup2\n      0x00\n      mstore\n      keccak256(0x00, 0x40)\n      dup2\n      dup2\n      sload\n      dup2\n      lt\n      tag_568\n      jumpi\n      0x00\n      dup1\n      revert\n    tag_568:\n      swap1\n      0x00\n      mstore\n      keccak256(0x00, 0x20)\n      swap1\n      0x06\n      mul\n      add\n      0x00\n      swap2\n      pop\n      swap2\n      pop\n      pop\n      dup1\n      0x00\n      add\n      sload\n      swap1\n      dup1\n      0x01\n      add\n      dup1\n      sload\n      tag_570\n      swap1\n      tag_342\n      jump\t// in\n    tag_570:\n      dup1\n      0x1f\n      add\n      0x20\n      dup1\n      swap2\n      div\n      mul\n      0x20\n      add\n      mload(0x40)\n      swap1\n      dup2\n      add\n      0x40\n      mstore\n      dup1\n      swap3\n      swap2\n      swap1\n      dup2\n      dup2\n      mstore\n      0x20\n      add\n      dup3\n      dup1\n      sload\n      tag_571\n      swap1\n      tag_342\n      jump\t// in\n    tag_571:\n      dup1\n      iszero\n      tag_572\n      jumpi\n      dup1\n      0x1f\n      lt\n      tag_573\n      jumpi\n      0x0100\n      dup1\n      dup4\n      sload\n      div\n      mul\n      dup4\n      mstore\n      swap2\n      0x20\n      add\n      swap2\n      jump(tag_572)\n    tag_573:\n      dup3\n      add\n      swap2\n      swap1\n      0x00\n      mstore\n      keccak256(0x00, 0x20)\n      swap1\n    tag_574:\n      dup2\n      sload\n      dup2\n      mstore\n      swap1\n      0x01\n      add\n      swap1\n      0x20\n      add\n      dup1\n      dup4\n      gt\n      tag_574\n      jumpi\n      dup3\n      swap1\n      sub\n      0x1f\n      and\n      dup3\n      add\n      swap2\n    tag_572:\n      pop\n      pop\n      pop\n      pop\n      pop\n      swap1\n      dup1\n      0x02\n      add\n      dup1\n      sload\n      tag_575\n      swap1\n      tag_342\n      jump\t// in\n    tag_575:\n      dup1\n      0x1f\n      add\n      0x20\n      dup1\n      swap2\n      div\n      mul\n      0x20\n      add\n      mload(0x40)\n      swap1\n      dup2\n      add\n      0x40\n      mstore\n      dup1\n      swap3\n      swap2\n      swap1\n      dup2\n      dup2\n      mstore\n      0x20\n      add\n      dup3\n      dup1\n      sload\n      tag_576\n      swap1\n      tag_342\n      jump\t// in\n    tag_576:\n      dup1\n      iszero\n      tag_577\n      jumpi\n      dup1\n      0x1f\n      lt\n      tag_578\n      jumpi\n      0x0100\n      dup1\n      dup4\n      sload\n      div\n      mul\n      dup4\n      mstore\n      swap2\n      0x20\n      add\n      swap2\n      jump(tag_577)\n    tag_578:\n      dup3\n      add\n      swap2\n      swap1\n      0x00\n      mstore\n      keccak256(0x00, 0x20)\n      swap1\n    tag_579:\n      dup2\n      sload\n      dup2\n      mstore\n      swap1\n      0x01\n      add\n      swap1\n      0x20\n      add\n      dup1\n      dup4\n      gt\n      tag_579\n      jumpi\n      dup3\n      swap1\n      sub\n      0x1f\n      and\n      dup3\n      add\n      swap2\n    tag_577:\n      pop\n      pop\n      pop\n      pop\n      pop\n      swap1\n      dup1\n      0x03\n      add\n      dup1\n      sload\n      tag_580\n      swap1\n      tag_342\n      jump\t// in\n    tag_580:\n      dup1\n      0x1f\n      add\n      0x20\n      dup1\n      swap2\n      div\n      mul\n      0x20\n      add\n      mload(0x40)\n      swap1\n      dup2\n      add\n      0x40\n      mstore\n      dup1\n      swap3\n      swap2\n      swap1\n      dup2\n      dup2\n      mstore\n      0x20\n      add\n      dup3\n      dup1\n      sload\n      tag_581\n      swap1\n      tag_342\n      jump\t// in\n    tag_581:\n      dup1\n      iszero\n      tag_582\n      jumpi\n      dup1\n      0x1f\n      lt\n      tag_583\n      jumpi\n      0x0100\n      dup1\n      dup4\n      sload\n      div\n      mul\n      dup4\n      mstore\n      swap2\n      0x20\n      add\n      swap2\n      jump(tag_582)\n    tag_583:\n      dup3\n      add\n      swap2\n      swap1\n      0x00\n      mstore\n      keccak256(0x00, 0x20)\n      swap1\n    tag_584:\n      dup2\n      sload\n      dup2\n      mstore\n      swap1\n      0x01\n      add\n      swap1\n      0x20\n      add\n      dup1\n      dup4\n      gt\n      tag_584\n      jumpi\n      dup3\n      swap1\n      sub\n      0x1f\n      and\n      dup3\n      add\n      swap2\n    tag_582:\n      pop\n      pop\n      pop\n      pop\n      pop\n      swap1\n      dup1\n      0x04\n      add\n      sload\n      swap1\n      dup1\n      0x05\n      add\n      sload\n      swap1\n      pop\n      dup7\n      jump\t// out\n        /* \"UsersStorage.sol\":1504:1529   */\n    tag_185:\n      sload(0x14)\n      dup2\n      jump\t// out\n        /* \"UsersMixin.sol\":1171:1508   */\n    tag_190:\n        /* \"UsersMixin.sol\":1283:1299   */\n      0x0e\n        /* \"UsersMixin.sol\":1283:1311   */\n      0x00\n        /* \"UsersMixin.sol\":1300:1310   */\n      caller\n        /* \"UsersMixin.sol\":1283:1311   */\n      0xffffffffffffffffffffffffffffffffffffffff\n      and\n      0xffffffffffffffffffffffffffffffffffffffff\n      and\n      dup2\n      mstore\n      0x20\n      add\n      swap1\n      dup2\n      mstore\n      0x20\n      add\n      0x00\n      keccak256\n      0x00\n      swap1\n      sload\n      swap1\n      0x0100\n      exp\n      swap1\n      div\n      0xff\n      and\n        /* \"UsersMixin.sol\":1275:1312   */\n      tag_586\n      jumpi\n      0x00\n      dup1\n      revert\n    tag_586:\n        /* \"UsersMixin.sol\":1329:1342   */\n      0x0f\n        /* \"UsersMixin.sol\":1343:1348   */\n      dup4\n        /* \"UsersMixin.sol\":1329:1349   */\n      mload(0x40)\n      tag_587\n      swap2\n      swap1\n      tag_304\n      jump\t// in\n    tag_587:\n      swap1\n      dup2\n      mstore\n      0x20\n      add\n      mload(0x40)\n      dup1\n      swap2\n      sub\n      swap1\n      keccak256\n      0x00\n      swap1\n      sload\n      swap1\n      0x0100\n      exp\n      swap1\n      div\n      0xff\n      and\n        /* \"UsersMixin.sol\":1328:1349   */\n      iszero\n        /* \"UsersMixin.sol\":1320:1350   */\n      tag_588\n      jumpi\n      0x00\n      dup1\n      revert\n    tag_588:\n        /* \"UsersMixin.sol\":1358:1372   */\n      0x00\n        /* \"UsersMixin.sol\":1375:1380   */\n      0x05\n        /* \"UsersMixin.sol\":1375:1392   */\n      0x00\n        /* \"UsersMixin.sol\":1381:1391   */\n      caller\n        /* \"UsersMixin.sol\":1375:1392   */\n      0xffffffffffffffffffffffffffffffffffffffff\n      and\n      0xffffffffffffffffffffffffffffffffffffffff\n      and\n      dup2\n      mstore\n      0x20\n      add\n      swap1\n      dup2\n      mstore\n      0x20\n      add\n      0x00\n      keccak256\n        /* \"UsersMixin.sol\":1358:1392   */\n      swap1\n      pop\n        /* \"UsersMixin.sol\":1414:1419   */\n      dup4\n        /* \"UsersMixin.sol\":1401:1402   */\n      dup2\n        /* \"UsersMixin.sol\":1401:1411   */\n      0x02\n      add\n        /* \"UsersMixin.sol\":1401:1419   */\n      swap1\n      dup2\n      tag_589\n      swap2\n      swap1\n      tag_294\n      jump\t// in\n    tag_589:\n      pop\n        /* \"UsersMixin.sol\":1442:1446   */\n      dup3\n        /* \"UsersMixin.sol\":1427:1428   */\n      dup2\n        /* \"UsersMixin.sol\":1427:1439   */\n      0x03\n      add\n        /* \"UsersMixin.sol\":1427:1446   */\n      swap1\n      dup2\n      tag_590\n      swap2\n      swap1\n      tag_294\n      jump\t// in\n    tag_590:\n      pop\n        /* \"UsersMixin.sol\":1470:1474   */\n      dup2\n        /* \"UsersMixin.sol\":1454:1455   */\n      dup2\n        /* \"UsersMixin.sol\":1454:1467   */\n      0x04\n      add\n        /* \"UsersMixin.sol\":1454:1474   */\n      swap1\n      dup2\n      tag_591\n      swap2\n      swap1\n      tag_294\n      jump\t// in\n    tag_591:\n      pop\n        /* \"UsersMixin.sol\":1500:1501   */\n      dup1\n        /* \"UsersMixin.sol\":1483:1491   */\n      0x01\n        /* \"UsersMixin.sol\":1492:1493   */\n      dup3\n        /* \"UsersMixin.sol\":1492:1496   */\n      0x00\n      add\n      sload\n        /* \"UsersMixin.sol\":1483:1497   */\n      dup2\n      sload\n      dup2\n      lt\n      tag_592\n      jumpi\n      tag_593\n      tag_224\n      jump\t// in\n    tag_593:\n    tag_592:\n      swap1\n      0x00\n      mstore\n      keccak256(0x00, 0x20)\n      swap1\n      0x08\n      mul\n      add\n        /* \"UsersMixin.sol\":1483:1501   */\n      0x00\n      dup3\n      add\n      sload\n      dup2\n      0x00\n      add\n      sstore\n      0x01\n      dup3\n      add\n      0x00\n      swap1\n      sload\n      swap1\n      0x0100\n      exp\n      swap1\n      div\n      0xffffffffffffffffffffffffffffffffffffffff\n      and\n      dup2\n      0x01\n      add\n      exp(0x0100, 0x00)\n      dup2\n      sload\n      dup2\n      0xffffffffffffffffffffffffffffffffffffffff\n      mul\n      not\n      and\n      swap1\n      dup4\n      0xffffffffffffffffffffffffffffffffffffffff\n      and\n      mul\n      or\n      swap1\n      sstore\n      pop\n      0x02\n      dup3\n      add\n      dup2\n      0x02\n      add\n      swap1\n      dup2\n      tag_595\n      swap2\n      swap1\n      tag_227\n      jump\t// in\n    tag_595:\n      pop\n      0x03\n      dup3\n      add\n      dup2\n      0x03\n      add\n      swap1\n      dup2\n      tag_596\n      swap2\n      swap1\n      tag_227\n      jump\t// in\n    tag_596:\n      pop\n      0x04\n      dup3\n      add\n      dup2\n      0x04\n      add\n      swap1\n      dup2\n      tag_597\n      swap2\n      swap1\n      tag_227\n      jump\t// in\n    tag_597:\n      pop\n      0x05\n      dup3\n      add\n      sload\n      dup2\n      0x05\n      add\n      sstore\n      0x06\n      dup3\n      add\n      sload\n      dup2\n      0x06\n      add\n      sstore\n      0x07\n      dup3\n      add\n      dup2\n      0x07\n      add\n      swap1\n      dup2\n      tag_598\n      swap2\n      swap1\n      tag_227\n      jump\t// in\n    tag_598:\n      pop\n      swap1\n      pop\n      pop\n        /* \"UsersMixin.sol\":1267:1508   */\n      pop\n        /* \"UsersMixin.sol\":1171:1508   */\n      pop\n      pop\n      pop\n      jump\t// out\n        /* \"UsersStorage.sol\":655:685   */\n    tag_194:\n      0x03\n      dup2\n      dup2\n      sload\n      dup2\n      lt\n      tag_599\n      jumpi\n      0x00\n      dup1\n      revert\n    tag_599:\n      swap1\n      0x00\n      mstore\n      keccak256(0x00, 0x20)\n      swap1\n      0x08\n      mul\n      add\n      0x00\n      swap2\n      pop\n      swap1\n      pop\n      dup1\n      0x00\n      add\n      sload\n      swap1\n      dup1\n      0x01\n      add\n      0x00\n      swap1\n      sload\n      swap1\n      0x0100\n      exp\n      swap1\n      div\n      0xffffffffffffffffffffffffffffffffffffffff\n      and\n      swap1\n      dup1\n      0x02\n      add\n      dup1\n      sload\n      tag_601\n      swap1\n      tag_342\n      jump\t// in\n    tag_601:\n      dup1\n      0x1f\n      add\n      0x20\n      dup1\n      swap2\n      div\n      mul\n      0x20\n      add\n      mload(0x40)\n      swap1\n      dup2\n      add\n      0x40\n      mstore\n      dup1\n      swap3\n      swap2\n      swap1\n      dup2\n      dup2\n      mstore\n      0x20\n      add\n      dup3\n      dup1\n      sload\n      tag_602\n      swap1\n      tag_342\n      jump\t// in\n    tag_602:\n      dup1\n      iszero\n      tag_603\n      jumpi\n      dup1\n      0x1f\n      lt\n      tag_604\n      jumpi\n      0x0100\n      dup1\n      dup4\n      sload\n      div\n      mul\n      dup4\n      mstore\n      swap2\n      0x20\n      add\n      swap2\n      jump(tag_603)\n    tag_604:\n      dup3\n      add\n      swap2\n      swap1\n      0x00\n      mstore\n      keccak256(0x00, 0x20)\n      swap1\n    tag_605:\n      dup2\n      sload\n      dup2\n      mstore\n      swap1\n      0x01\n      add\n      swap1\n      0x20\n      add\n      dup1\n      dup4\n      gt\n      tag_605\n      jumpi\n      dup3\n      swap1\n      sub\n      0x1f\n      and\n      dup3\n      add\n      swap2\n    tag_603:\n      pop\n      pop\n      pop\n      pop\n      pop\n      swap1\n      dup1\n      0x03\n      add\n      dup1\n      sload\n      tag_606\n      swap1\n      tag_342\n      jump\t// in\n    tag_606:\n      dup1\n      0x1f\n      add\n      0x20\n      dup1\n      swap2\n      div\n      mul\n      0x20\n      add\n      mload(0x40)\n      swap1\n      dup2\n      add\n      0x40\n      mstore\n      dup1\n      swap3\n      swap2\n      swap1\n      dup2\n      dup2\n      mstore\n      0x20\n      add\n      dup3\n      dup1\n      sload\n      tag_607\n      swap1\n      tag_342\n      jump\t// in\n    tag_607:\n      dup1\n      iszero\n      tag_608\n      jumpi\n      dup1\n      0x1f\n      lt\n      tag_609\n      jumpi\n      0x0100\n      dup1\n      dup4\n      sload\n      div\n      mul\n      dup4\n      mstore\n      swap2\n      0x20\n      add\n      swap2\n      jump(tag_608)\n    tag_609:\n      dup3\n      add\n      swap2\n      swap1\n      0x00\n      mstore\n      keccak256(0x00, 0x20)\n      swap1\n    tag_610:\n      dup2\n      sload\n      dup2\n      mstore\n      swap1\n      0x01\n      add\n      swap1\n      0x20\n      add\n      dup1\n      dup4\n      gt\n      tag_610\n      jumpi\n      dup3\n      swap1\n      sub\n      0x1f\n      and\n      dup3\n      add\n      swap2\n    tag_608:\n      pop\n      pop\n      pop\n      pop\n      pop\n      swap1\n      dup1\n      0x04\n      add\n      dup1\n      sload\n      tag_611\n      swap1\n      tag_342\n      jump\t// in\n    tag_611:\n      dup1\n      0x1f\n      add\n      0x20\n      dup1\n      swap2\n      div\n      mul\n      0x20\n      add\n      mload(0x40)\n      swap1\n      dup2\n      add\n      0x40\n      mstore\n      dup1\n      swap3\n      swap2\n      swap1\n      dup2\n      dup2\n      mstore\n      0x20\n      add\n      dup3\n      dup1\n      sload\n      tag_612\n      swap1\n      tag_342\n      jump\t// in\n    tag_612:\n      dup1\n      iszero\n      tag_613\n      jumpi\n      dup1\n      0x1f\n      lt\n      tag_614\n      jumpi\n      0x0100\n      dup1\n      dup4\n      sload\n      div\n      mul\n      dup4\n      mstore\n      swap2\n      0x20\n      add\n      swap2\n      jump(tag_613)\n    tag_614:\n      dup3\n      add\n      swap2\n      swap1\n      0x00\n      mstore\n      keccak256(0x00, 0x20)\n      swap1\n    tag_615:\n      dup2\n      sload\n      dup2\n      mstore\n      swap1\n      0x01\n      add\n      swap1\n      0x20\n      add\n      dup1\n      dup4\n      gt\n      tag_615\n      jumpi\n      dup3\n      swap1\n      sub\n      0x1f\n      and\n      dup3\n      add\n      swap2\n    tag_613:\n      pop\n      pop\n      pop\n      pop\n      pop\n      swap1\n      dup1\n      0x05\n      add\n      sload\n      swap1\n      dup1\n      0x06\n      add\n      sload\n      swap1\n      dup1\n      0x07\n      add\n      dup1\n      sload\n      tag_616\n      swap1\n      tag_342\n      jump\t// in\n    tag_616:\n      dup1\n      0x1f\n      add\n      0x20\n      dup1\n      swap2\n      div\n      mul\n      0x20\n      add\n      mload(0x40)\n      swap1\n      dup2\n      add\n      0x40\n      mstore\n      dup1\n      swap3\n      swap2\n      swap1\n      dup2\n      dup2\n      mstore\n      0x20\n      add\n      dup3\n      dup1\n      sload\n      tag_617\n      swap1\n      tag_342\n      jump\t// in\n    tag_617:\n      dup1\n      iszero\n      tag_618\n      jumpi\n      dup1\n      0x1f\n      lt\n      tag_619\n      jumpi\n      0x0100\n      dup1\n      dup4\n      sload\n      div\n      mul\n      dup4\n      mstore\n      swap2\n      0x20\n      add\n      swap2\n      jump(tag_618)\n    tag_619:\n      dup3\n      add\n      swap2\n      swap1\n      0x00\n      mstore\n      keccak256(0x00, 0x20)\n      swap1\n    tag_620:\n      dup2\n      sload\n      dup2\n      mstore\n      swap1\n      0x01\n      add\n      swap1\n      0x20\n      add\n      dup1\n      dup4\n      gt\n      tag_620\n      jumpi\n      dup3\n      swap1\n      sub\n      0x1f\n      and\n      dup3\n      add\n      swap2\n    tag_618:\n      pop\n      pop\n      pop\n      pop\n      pop\n      swap1\n      pop\n      dup9\n      jump\t// out\n        /* \"UsersStorage.sol\":1311:1358   */\n    tag_199:\n      0x10\n      dup2\n      dup1\n      mload\n      0x20\n      dup2\n      add\n      dup3\n      add\n      dup1\n      mload\n      dup5\n      dup3\n      mstore\n      0x20\n      dup4\n      add\n      0x20\n      dup6\n      add\n      keccak256\n      dup2\n      dup4\n      mstore\n      dup1\n      swap6\n      pop\n      pop\n      pop\n      pop\n      pop\n      pop\n      0x00\n      swap2\n      pop\n      sload\n      swap1\n      0x0100\n      exp\n      swap1\n      div\n      0xff\n      and\n      dup2\n      jump\t// out\n        /* \"UsersMixin.sol\":4023:4749   */\n    tag_203:\n        /* \"UsersMixin.sol\":4155:4171   */\n      0x0e\n        /* \"UsersMixin.sol\":4155:4187   */\n      0x00\n        /* \"UsersMixin.sol\":4172:4186   */\n      dup6\n        /* \"UsersMixin.sol\":4155:4187   */\n      0xffffffffffffffffffffffffffffffffffffffff\n      and\n      0xffffffffffffffffffffffffffffffffffffffff\n      and\n      dup2\n      mstore\n      0x20\n      add\n      swap1\n      dup2\n      mstore\n      0x20\n      add\n      0x00\n      keccak256\n      0x00\n      swap1\n      sload\n      swap1\n      0x0100\n      exp\n      swap1\n      div\n      0xff\n      and\n        /* \"UsersMixin.sol\":4147:4188   */\n      tag_622\n      jumpi\n      0x00\n      dup1\n      revert\n    tag_622:\n        /* \"UsersMixin.sol\":4196:4213   */\n      0x00\n        /* \"UsersMixin.sol\":4216:4221   */\n      0x05\n        /* \"UsersMixin.sol\":4216:4237   */\n      0x00\n        /* \"UsersMixin.sol\":4222:4236   */\n      dup7\n        /* \"UsersMixin.sol\":4216:4237   */\n      0xffffffffffffffffffffffffffffffffffffffff\n      and\n      0xffffffffffffffffffffffffffffffffffffffff\n      and\n      dup2\n      mstore\n      0x20\n      add\n      swap1\n      dup2\n      mstore\n      0x20\n      add\n      0x00\n      keccak256\n        /* \"UsersMixin.sol\":4196:4237   */\n      swap1\n      pop\n        /* \"UsersMixin.sol\":4245:4268   */\n      0x00\n        /* \"UsersMixin.sol\":4271:4282   */\n      0x02\n        /* \"UsersMixin.sol\":4283:4292   */\n      dup6\n        /* \"UsersMixin.sol\":4271:4293   */\n      dup2\n      sload\n      dup2\n      lt\n      tag_623\n      jumpi\n      tag_624\n      tag_224\n      jump\t// in\n    tag_624:\n    tag_623:\n      swap1\n      0x00\n      mstore\n      keccak256(0x00, 0x20)\n      swap1\n      0x06\n      mul\n      add\n        /* \"UsersMixin.sol\":4245:4293   */\n      swap1\n      pop\n        /* \"UsersMixin.sol\":4304:4312   */\n      dup3\n        /* \"UsersMixin.sol\":4301:4612   */\n      iszero\n      tag_626\n      jumpi\n        /* \"UsersMixin.sol\":4323:4327   */\n      dup2\n        /* \"UsersMixin.sol\":4323:4344   */\n      0x05\n      add\n      0x00\n        /* \"UsersMixin.sol\":4323:4346   */\n      dup2\n      sload\n      dup1\n      swap3\n      swap2\n      swap1\n      tag_627\n      swap1\n      tag_232\n      jump\t// in\n    tag_627:\n      swap2\n      swap1\n      pop\n      sstore\n      pop\n        /* \"UsersMixin.sol\":4356:4369   */\n      0x06\n        /* \"UsersMixin.sol\":4356:4385   */\n      0x00\n        /* \"UsersMixin.sol\":4370:4384   */\n      dup8\n        /* \"UsersMixin.sol\":4356:4385   */\n      0xffffffffffffffffffffffffffffffffffffffff\n      and\n      0xffffffffffffffffffffffffffffffffffffffff\n      and\n      dup2\n      mstore\n      0x20\n      add\n      swap1\n      dup2\n      mstore\n      0x20\n      add\n      0x00\n      keccak256\n        /* \"UsersMixin.sol\":4391:4398   */\n      dup2\n        /* \"UsersMixin.sol\":4356:4399   */\n      swap1\n      dup1\n      0x01\n      dup2\n      sload\n      add\n      dup1\n      dup3\n      sstore\n      dup1\n      swap2\n      pop\n      pop\n      0x01\n      swap1\n      sub\n      swap1\n      0x00\n      mstore\n      keccak256(0x00, 0x20)\n      swap1\n      0x06\n      mul\n      add\n      0x00\n      swap1\n      swap2\n      swap1\n      swap2\n      swap1\n      swap2\n      pop\n      0x00\n      dup3\n      add\n      sload\n      dup2\n      0x00\n      add\n      sstore\n      0x01\n      dup3\n      add\n      dup2\n      0x01\n      add\n      swap1\n      dup2\n      tag_629\n      swap2\n      swap1\n      tag_227\n      jump\t// in\n    tag_629:\n      pop\n      0x02\n      dup3\n      add\n      dup2\n      0x02\n      add\n      swap1\n      dup2\n      tag_630\n      swap2\n      swap1\n      tag_227\n      jump\t// in\n    tag_630:\n      pop\n      0x03\n      dup3\n      add\n      dup2\n      0x03\n      add\n      swap1\n      dup2\n      tag_631\n      swap2\n      swap1\n      tag_227\n      jump\t// in\n    tag_631:\n      pop\n      0x04\n      dup3\n      add\n      sload\n      dup2\n      0x04\n      add\n      sstore\n      0x05\n      dup3\n      add\n      sload\n      dup2\n      0x05\n      add\n      sstore\n      pop\n      pop\n        /* \"UsersMixin.sol\":4409:4416   */\n      dup1\n        /* \"UsersMixin.sol\":4409:4429   */\n      0x04\n      add\n      0x00\n        /* \"UsersMixin.sol\":4409:4431   */\n      dup2\n      sload\n      dup1\n      swap3\n      swap2\n      swap1\n      tag_632\n      swap1\n      tag_232\n      jump\t// in\n    tag_632:\n      swap2\n      swap1\n      pop\n      sstore\n      pop\n        /* \"UsersMixin.sol\":4441:4455   */\n      0x08\n        /* \"UsersMixin.sol\":4441:4466   */\n      0x00\n        /* \"UsersMixin.sol\":4456:4465   */\n      dup7\n        /* \"UsersMixin.sol\":4441:4466   */\n      dup2\n      mstore\n      0x20\n      add\n      swap1\n      dup2\n      mstore\n      0x20\n      add\n      0x00\n      keccak256\n        /* \"UsersMixin.sol\":4472:4476   */\n      dup3\n        /* \"UsersMixin.sol\":4441:4477   */\n      swap1\n      dup1\n      0x01\n      dup2\n      sload\n      add\n      dup1\n      dup3\n      sstore\n      dup1\n      swap2\n      pop\n      pop\n      0x01\n      swap1\n      sub\n      swap1\n      0x00\n      mstore\n      keccak256(0x00, 0x20)\n      swap1\n      0x08\n      mul\n      add\n      0x00\n      swap1\n      swap2\n      swap1\n      swap2\n      swap1\n      swap2\n      pop\n      0x00\n      dup3\n      add\n      sload\n      dup2\n      0x00\n      add\n      sstore\n      0x01\n      dup3\n      add\n      0x00\n      swap1\n      sload\n      swap1\n      0x0100\n      exp\n      swap1\n      div\n      0xffffffffffffffffffffffffffffffffffffffff\n      and\n      dup2\n      0x01\n      add\n      exp(0x0100, 0x00)\n      dup2\n      sload\n      dup2\n      0xffffffffffffffffffffffffffffffffffffffff\n      mul\n      not\n      and\n      swap1\n      dup4\n      0xffffffffffffffffffffffffffffffffffffffff\n      and\n      mul\n      or\n      swap1\n      sstore\n      pop\n      0x02\n      dup3\n      add\n      dup2\n      0x02\n      add\n      swap1\n      dup2\n      tag_634\n      swap2\n      swap1\n      tag_227\n      jump\t// in\n    tag_634:\n      pop\n      0x03\n      dup3\n      add\n      dup2\n      0x03\n      add\n      swap1\n      dup2\n      tag_635\n      swap2\n      swap1\n      tag_227\n      jump\t// in\n    tag_635:\n      pop\n      0x04\n      dup3\n      add\n      dup2\n      0x04\n      add\n      swap1\n      dup2\n      tag_636\n      swap2\n      swap1\n      tag_227\n      jump\t// in\n    tag_636:\n      pop\n      0x05\n      dup3\n      add\n      sload\n      dup2\n      0x05\n      add\n      sstore\n      0x06\n      dup3\n      add\n      sload\n      dup2\n      0x06\n      add\n      sstore\n      0x07\n      dup3\n      add\n      dup2\n      0x07\n      add\n      swap1\n      dup2\n      tag_637\n      swap2\n      swap1\n      tag_227\n      jump\t// in\n    tag_637:\n      pop\n      pop\n      pop\n        /* \"UsersMixin.sol\":4487:4506   */\n      0x11\n        /* \"UsersMixin.sol\":4487:4524   */\n      0x00\n        /* \"UsersMixin.sol\":4507:4511   */\n      dup4\n        /* \"UsersMixin.sol\":4507:4523   */\n      0x01\n      add\n      0x00\n      swap1\n      sload\n      swap1\n      0x0100\n      exp\n      swap1\n      div\n      0xffffffffffffffffffffffffffffffffffffffff\n      and\n        /* \"UsersMixin.sol\":4487:4524   */\n      0xffffffffffffffffffffffffffffffffffffffff\n      and\n      0xffffffffffffffffffffffffffffffffffffffff\n      and\n      dup2\n      mstore\n      0x20\n      add\n      swap1\n      dup2\n      mstore\n      0x20\n      add\n      0x00\n      keccak256\n      0x00\n        /* \"UsersMixin.sol\":4487:4526   */\n      dup2\n      sload\n      dup1\n      swap3\n      swap2\n      swap1\n      tag_638\n      swap1\n      tag_232\n      jump\t// in\n    tag_638:\n      swap2\n      swap1\n      pop\n      sstore\n      pop\n        /* \"UsersMixin.sol\":4536:4556   */\n      0x12\n        /* \"UsersMixin.sol\":4536:4567   */\n      0x00\n        /* \"UsersMixin.sol\":4557:4566   */\n      dup7\n        /* \"UsersMixin.sol\":4536:4567   */\n      dup2\n      mstore\n      0x20\n      add\n      swap1\n      dup2\n      mstore\n      0x20\n      add\n      0x00\n      keccak256\n      0x00\n        /* \"UsersMixin.sol\":4536:4569   */\n      dup2\n      sload\n      dup1\n      swap3\n      swap2\n      swap1\n      tag_639\n      swap1\n      tag_232\n      jump\t// in\n    tag_639:\n      swap2\n      swap1\n      pop\n      sstore\n      pop\n        /* \"UsersMixin.sol\":4599:4603   */\n      dup2\n        /* \"UsersMixin.sol\":4579:4587   */\n      0x01\n        /* \"UsersMixin.sol\":4588:4592   */\n      dup4\n        /* \"UsersMixin.sol\":4588:4595   */\n      0x00\n      add\n      sload\n        /* \"UsersMixin.sol\":4579:4596   */\n      dup2\n      sload\n      dup2\n      lt\n      tag_640\n      jumpi\n      tag_641\n      tag_224\n      jump\t// in\n    tag_641:\n    tag_640:\n      swap1\n      0x00\n      mstore\n      keccak256(0x00, 0x20)\n      swap1\n      0x08\n      mul\n      add\n        /* \"UsersMixin.sol\":4579:4603   */\n      0x00\n      dup3\n      add\n      sload\n      dup2\n      0x00\n      add\n      sstore\n      0x01\n      dup3\n      add\n      0x00\n      swap1\n      sload\n      swap1\n      0x0100\n      exp\n      swap1\n      div\n      0xffffffffffffffffffffffffffffffffffffffff\n      and\n      dup2\n      0x01\n      add\n      exp(0x0100, 0x00)\n      dup2\n      sload\n      dup2\n      0xffffffffffffffffffffffffffffffffffffffff\n      mul\n      not\n      and\n      swap1\n      dup4\n      0xffffffffffffffffffffffffffffffffffffffff\n      and\n      mul\n      or\n      swap1\n      sstore\n      pop\n      0x02\n      dup3\n      add\n      dup2\n      0x02\n      add\n      swap1\n      dup2\n      tag_643\n      swap2\n      swap1\n      tag_227\n      jump\t// in\n    tag_643:\n      pop\n      0x03\n      dup3\n      add\n      dup2\n      0x03\n      add\n      swap1\n      dup2\n      tag_644\n      swap2\n      swap1\n      tag_227\n      jump\t// in\n    tag_644:\n      pop\n      0x04\n      dup3\n      add\n      dup2\n      0x04\n      add\n      swap1\n      dup2\n      tag_645\n      swap2\n      swap1\n      tag_227\n      jump\t// in\n    tag_645:\n      pop\n      0x05\n      dup3\n      add\n      sload\n      dup2\n      0x05\n      add\n      sstore\n      0x06\n      dup3\n      add\n      sload\n      dup2\n      0x06\n      add\n      sstore\n      0x07\n      dup3\n      add\n      dup2\n      0x07\n      add\n      swap1\n      dup2\n      tag_646\n      swap2\n      swap1\n      tag_227\n      jump\t// in\n    tag_646:\n      pop\n      swap1\n      pop\n      pop\n        /* \"UsersMixin.sol\":4301:4612   */\n    tag_626:\n        /* \"UsersMixin.sol\":4619:4623   */\n      dup2\n        /* \"UsersMixin.sol\":4619:4644   */\n      0x06\n      add\n      0x00\n        /* \"UsersMixin.sol\":4619:4646   */\n      dup2\n      sload\n      dup1\n      swap3\n      swap2\n      swap1\n      tag_647\n      swap1\n      tag_239\n      jump\t// in\n    tag_647:\n      swap2\n      swap1\n      pop\n      sstore\n      pop\n        /* \"UsersMixin.sol\":4674:4678   */\n      dup2\n        /* \"UsersMixin.sol\":4654:4662   */\n      0x01\n        /* \"UsersMixin.sol\":4663:4667   */\n      dup4\n        /* \"UsersMixin.sol\":4663:4670   */\n      0x00\n      add\n      sload\n        /* \"UsersMixin.sol\":4654:4671   */\n      dup2\n      sload\n      dup2\n      lt\n      tag_648\n      jumpi\n      tag_649\n      tag_224\n      jump\t// in\n    tag_649:\n    tag_648:\n      swap1\n      0x00\n      mstore\n      keccak256(0x00, 0x20)\n      swap1\n      0x08\n      mul\n      add\n        /* \"UsersMixin.sol\":4654:4678   */\n      0x00\n      dup3\n      add\n      sload\n      dup2\n      0x00\n      add\n      sstore\n      0x01\n      dup3\n      add\n      0x00\n      swap1\n      sload\n      swap1\n      0x0100\n      exp\n      swap1\n      div\n      0xffffffffffffffffffffffffffffffffffffffff\n      and\n      dup2\n      0x01\n      add\n      exp(0x0100, 0x00)\n      dup2\n      sload\n      dup2\n      0xffffffffffffffffffffffffffffffffffffffff\n      mul\n      not\n      and\n      swap1\n      dup4\n      0xffffffffffffffffffffffffffffffffffffffff\n      and\n      mul\n      or\n      swap1\n      sstore\n      pop\n      0x02\n      dup3\n      add\n      dup2\n      0x02\n      add\n      swap1\n      dup2\n      tag_651\n      swap2\n      swap1\n      tag_227\n      jump\t// in\n    tag_651:\n      pop\n      0x03\n      dup3\n      add\n      dup2\n      0x03\n      add\n      swap1\n      dup2\n      tag_652\n      swap2\n      swap1\n      tag_227\n      jump\t// in\n    tag_652:\n      pop\n      0x04\n      dup3\n      add\n      dup2\n      0x04\n      add\n      swap1\n      dup2\n      tag_653\n      swap2\n      swap1\n      tag_227\n      jump\t// in\n    tag_653:\n      pop\n      0x05\n      dup3\n      add\n      sload\n      dup2\n      0x05\n      add\n      sstore\n      0x06\n      dup3\n      add\n      sload\n      dup2\n      0x06\n      add\n      sstore\n      0x07\n      dup3\n      add\n      dup2\n      0x07\n      add\n      swap1\n      dup2\n      tag_654\n      swap2\n      swap1\n      tag_227\n      jump\t// in\n    tag_654:\n      pop\n      swap1\n      pop\n      pop\n        /* \"UsersMixin.sol\":4693:4715   */\n      0x0a\n        /* \"UsersMixin.sol\":4693:4731   */\n      0x00\n        /* \"UsersMixin.sol\":4716:4730   */\n      dup8\n        /* \"UsersMixin.sol\":4693:4731   */\n      0xffffffffffffffffffffffffffffffffffffffff\n      and\n      0xffffffffffffffffffffffffffffffffffffffff\n      and\n      dup2\n      mstore\n      0x20\n      add\n      swap1\n      dup2\n      mstore\n      0x20\n      add\n      0x00\n      keccak256\n        /* \"UsersMixin.sol\":4732:4741   */\n      dup5\n        /* \"UsersMixin.sol\":4693:4742   */\n      dup2\n      sload\n      dup2\n      lt\n      tag_655\n      jumpi\n      tag_656\n      tag_224\n      jump\t// in\n    tag_656:\n    tag_655:\n      swap1\n      0x00\n      mstore\n      keccak256(0x00, 0x20)\n      swap1\n      0x06\n      mul\n      add\n      0x00\n        /* \"UsersMixin.sol\":4686:4742   */\n      dup1\n      dup3\n      add\n      0x00\n      swap1\n      sstore\n      0x01\n      dup3\n      add\n      0x00\n      tag_658\n      swap2\n      swap1\n      tag_254\n      jump\t// in\n    tag_658:\n      0x02\n      dup3\n      add\n      0x00\n      tag_659\n      swap2\n      swap1\n      tag_254\n      jump\t// in\n    tag_659:\n      0x03\n      dup3\n      add\n      0x00\n      tag_660\n      swap2\n      swap1\n      tag_254\n      jump\t// in\n    tag_660:\n      0x04\n      dup3\n      add\n      0x00\n      swap1\n      sstore\n      0x05\n      dup3\n      add\n      0x00\n      swap1\n      sstore\n      pop\n      pop\n        /* \"UsersMixin.sol\":4139:4749   */\n      pop\n      pop\n        /* \"UsersMixin.sol\":4023:4749   */\n      pop\n      pop\n      pop\n      pop\n      jump\t// out\n        /* \"UsersStorage.sol\":1060:1108   */\n    tag_207:\n      0x0b\n      dup2\n      dup1\n      mload\n      0x20\n      dup2\n      add\n      dup3\n      add\n      dup1\n      mload\n      dup5\n      dup3\n      mstore\n      0x20\n      dup4\n      add\n      0x20\n      dup6\n      add\n      keccak256\n      dup2\n      dup4\n      mstore\n      dup1\n      swap6\n      pop\n      pop\n      pop\n      pop\n      pop\n      pop\n      0x00\n      swap2\n      pop\n      swap1\n      pop\n      dup1\n      0x00\n      add\n      sload\n      swap1\n      dup1\n      0x01\n      add\n      0x00\n      swap1\n      sload\n      swap1\n      0x0100\n      exp\n      swap1\n      div\n      0xffffffffffffffffffffffffffffffffffffffff\n      and\n      swap1\n      dup1\n      0x02\n      add\n      dup1\n      sload\n      tag_661\n      swap1\n      tag_342\n      jump\t// in\n    tag_661:\n      dup1\n      0x1f\n      add\n      0x20\n      dup1\n      swap2\n      div\n      mul\n      0x20\n      add\n      mload(0x40)\n      swap1\n      dup2\n      add\n      0x40\n      mstore\n      dup1\n      swap3\n      swap2\n      swap1\n      dup2\n      dup2\n      mstore\n      0x20\n      add\n      dup3\n      dup1\n      sload\n      tag_662\n      swap1\n      tag_342\n      jump\t// in\n    tag_662:\n      dup1\n      iszero\n      tag_663\n      jumpi\n      dup1\n      0x1f\n      lt\n      tag_664\n      jumpi\n      0x0100\n      dup1\n      dup4\n      sload\n      div\n      mul\n      dup4\n      mstore\n      swap2\n      0x20\n      add\n      swap2\n      jump(tag_663)\n    tag_664:\n      dup3\n      add\n      swap2\n      swap1\n      0x00\n      mstore\n      keccak256(0x00, 0x20)\n      swap1\n    tag_665:\n      dup2\n      sload\n      dup2\n      mstore\n      swap1\n      0x01\n      add\n      swap1\n      0x20\n      add\n      dup1\n      dup4\n      gt\n      tag_665\n      jumpi\n      dup3\n      swap1\n      sub\n      0x1f\n      and\n      dup3\n      add\n      swap2\n    tag_663:\n      pop\n      pop\n      pop\n      pop\n      pop\n      swap1\n      dup1\n      0x03\n      add\n      dup1\n      sload\n      tag_666\n      swap1\n      tag_342\n      jump\t// in\n    tag_666:\n      dup1\n      0x1f\n      add\n      0x20\n      dup1\n      swap2\n      div\n      mul\n      0x20\n      add\n      mload(0x40)\n      swap1\n      dup2\n      add\n      0x40\n      mstore\n      dup1\n      swap3\n      swap2\n      swap1\n      dup2\n      dup2\n      mstore\n      0x20\n      add\n      dup3\n      dup1\n      sload\n      tag_667\n      swap1\n      tag_342\n      jump\t// in\n    tag_667:\n      dup1\n      iszero\n      tag_668\n      jumpi\n      dup1\n      0x1f\n      lt\n      tag_669\n      jumpi\n      0x0100\n      dup1\n      dup4\n      sload\n      div\n      mul\n      dup4\n      mstore\n      swap2\n      0x20\n      add\n      swap2\n      jump(tag_668)\n    tag_669:\n      dup3\n      add\n      swap2\n      swap1\n      0x00\n      mstore\n      keccak256(0x00, 0x20)\n      swap1\n    tag_670:\n      dup2\n      sload\n      dup2\n      mstore\n      swap1\n      0x01\n      add\n      swap1\n      0x20\n      add\n      dup1\n      dup4\n      gt\n      tag_670\n      jumpi\n      dup3\n      swap1\n      sub\n      0x1f\n      and\n      dup3\n      add\n      swap2\n    tag_668:\n      pop\n      pop\n      pop\n      pop\n      pop\n      swap1\n      dup1\n      0x04\n      add\n      dup1\n      sload\n      tag_671\n      swap1\n      tag_342\n      jump\t// in\n    tag_671:\n      dup1\n      0x1f\n      add\n      0x20\n      dup1\n      swap2\n      div\n      mul\n      0x20\n      add\n      mload(0x40)\n      swap1\n      dup2\n      add\n      0x40\n      mstore\n      dup1\n      swap3\n      swap2\n      swap1\n      dup2\n      dup2\n      mstore\n      0x20\n      add\n      dup3\n      dup1\n      sload\n      tag_672\n      swap1\n      tag_342\n      jump\t// in\n    tag_672:\n      dup1\n      iszero\n      tag_673\n      jumpi\n      dup1\n      0x1f\n      lt\n      tag_674\n      jumpi\n      0x0100\n      dup1\n      dup4\n      sload\n      div\n      mul\n      dup4\n      mstore\n      swap2\n      0x20\n      add\n      swap2\n      jump(tag_673)\n    tag_674:\n      dup3\n      add\n      swap2\n      swap1\n      0x00\n      mstore\n      keccak256(0x00, 0x20)\n      swap1\n    tag_675:\n      dup2\n      sload\n      dup2\n      mstore\n      swap1\n      0x01\n      add\n      swap1\n      0x20\n      add\n      dup1\n      dup4\n      gt\n      tag_675\n      jumpi\n      dup3\n      swap1\n      sub\n      0x1f\n      and\n      dup3\n      add\n      swap2\n    tag_673:\n      pop\n      pop\n      pop\n      pop\n      pop\n      swap1\n      dup1\n      0x05\n      add\n      sload\n      swap1\n      dup1\n      0x06\n      add\n      sload\n      swap1\n      dup1\n      0x07\n      add\n      dup1\n      sload\n      tag_676\n      swap1\n      tag_342\n      jump\t// in\n    tag_676:\n      dup1\n      0x1f\n      add\n      0x20\n      dup1\n      swap2\n      div\n      mul\n      0x20\n      add\n      mload(0x40)\n      swap1\n      dup2\n      add\n      0x40\n      mstore\n      dup1\n      swap3\n      swap2\n      swap1\n      dup2\n      dup2\n      mstore\n      0x20\n      add\n      dup3\n      dup1\n      sload\n      tag_677\n      swap1\n      tag_342\n      jump\t// in\n    tag_677:\n      dup1\n      iszero\n      tag_678\n      jumpi\n      dup1\n      0x1f\n      lt\n      tag_679\n      jumpi\n      0x0100\n      dup1\n      dup4\n      sload\n      div\n      mul\n      dup4\n      mstore\n      swap2\n      0x20\n      add\n      swap2\n      jump(tag_678)\n    tag_679:\n      dup3\n      add\n      swap2\n      swap1\n      0x00\n      mstore\n      keccak256(0x00, 0x20)\n      swap1\n    tag_680:\n      dup2\n      sload\n      dup2\n      mstore\n      swap1\n      0x01\n      add\n      swap1\n      0x20\n      add\n      dup1\n      dup4\n      gt\n      tag_680\n      jumpi\n      dup3\n      swap1\n      sub\n      0x1f\n      and\n      dup3\n      add\n      swap2\n    tag_678:\n      pop\n      pop\n      pop\n      pop\n      pop\n      swap1\n      pop\n      dup9\n      jump\t// out\n        /* \"UsersStorage.sol\":995:1054   */\n    tag_212:\n      mstore(0x20, 0x0a)\n      dup2\n      0x00\n      mstore\n      keccak256(0x00, 0x40)\n      dup2\n      dup2\n      sload\n      dup2\n      lt\n      tag_681\n      jumpi\n      0x00\n      dup1\n      revert\n    tag_681:\n      swap1\n      0x00\n      mstore\n      keccak256(0x00, 0x20)\n      swap1\n      0x06\n      mul\n      add\n      0x00\n      swap2\n      pop\n      swap2\n      pop\n      pop\n      dup1\n      0x00\n      add\n      sload\n      swap1\n      dup1\n      0x01\n      add\n      dup1\n      sload\n      tag_683\n      swap1\n      tag_342\n      jump\t// in\n    tag_683:\n      dup1\n      0x1f\n      add\n      0x20\n      dup1\n      swap2\n      div\n      mul\n      0x20\n      add\n      mload(0x40)\n      swap1\n      dup2\n      add\n      0x40\n      mstore\n      dup1\n      swap3\n      swap2\n      swap1\n      dup2\n      dup2\n      mstore\n      0x20\n      add\n      dup3\n      dup1\n      sload\n      tag_684\n      swap1\n      tag_342\n      jump\t// in\n    tag_684:\n      dup1\n      iszero\n      tag_685\n      jumpi\n      dup1\n      0x1f\n      lt\n      tag_686\n      jumpi\n      0x0100\n      dup1\n      dup4\n      sload\n      div\n      mul\n      dup4\n      mstore\n      swap2\n      0x20\n      add\n      swap2\n      jump(tag_685)\n    tag_686:\n      dup3\n      add\n      swap2\n      swap1\n      0x00\n      mstore\n      keccak256(0x00, 0x20)\n      swap1\n    tag_687:\n      dup2\n      sload\n      dup2\n      mstore\n      swap1\n      0x01\n      add\n      swap1\n      0x20\n      add\n      dup1\n      dup4\n      gt\n      tag_687\n      jumpi\n      dup3\n      swap1\n      sub\n      0x1f\n      and\n      dup3\n      add\n      swap2\n    tag_685:\n      pop\n      pop\n      pop\n      pop\n      pop\n      swap1\n      dup1\n      0x02\n      add\n      dup1\n      sload\n      tag_688\n      swap1\n      tag_342\n      jump\t// in\n    tag_688:\n      dup1\n      0x1f\n      add\n      0x20\n      dup1\n      swap2\n      div\n      mul\n      0x20\n      add\n      mload(0x40)\n      swap1\n      dup2\n      add\n      0x40\n      mstore\n      dup1\n      swap3\n      swap2\n      swap1\n      dup2\n      dup2\n      mstore\n      0x20\n      add\n      dup3\n      dup1\n      sload\n      tag_689\n      swap1\n      tag_342\n      jump\t// in\n    tag_689:\n      dup1\n      iszero\n      tag_690\n      jumpi\n      dup1\n      0x1f\n      lt\n      tag_691\n      jumpi\n      0x0100\n      dup1\n      dup4\n      sload\n      div\n      mul\n      dup4\n      mstore\n      swap2\n      0x20\n      add\n      swap2\n      jump(tag_690)\n    tag_691:\n      dup3\n      add\n      swap2\n      swap1\n      0x00\n      mstore\n      keccak256(0x00, 0x20)\n      swap1\n    tag_692:\n      dup2\n      sload\n      dup2\n      mstore\n      swap1\n      0x01\n      add\n      swap1\n      0x20\n      add\n      dup1\n      dup4\n      gt\n      tag_692\n      jumpi\n      dup3\n      swap1\n      sub\n      0x1f\n      and\n      dup3\n      add\n      swap2\n    tag_690:\n      pop\n      pop\n      pop\n      pop\n      pop\n      swap1\n      dup1\n      0x03\n      add\n      dup1\n      sload\n      tag_693\n      swap1\n      tag_342\n      jump\t// in\n    tag_693:\n      dup1\n      0x1f\n      add\n      0x20\n      dup1\n      swap2\n      div\n      mul\n      0x20\n      add\n      mload(0x40)\n      swap1\n      dup2\n      add\n      0x40\n      mstore\n      dup1\n      swap3\n      swap2\n      swap1\n      dup2\n      dup2\n      mstore\n      0x20\n      add\n      dup3\n      dup1\n      sload\n      tag_694\n      swap1\n      tag_342\n      jump\t// in\n    tag_694:\n      dup1\n      iszero\n      tag_695\n      jumpi\n      dup1\n      0x1f\n      lt\n      tag_696\n      jumpi\n      0x0100\n      dup1\n      dup4\n      sload\n      div\n      mul\n      dup4\n      mstore\n      swap2\n      0x20\n      add\n      swap2\n      jump(tag_695)\n    tag_696:\n      dup3\n      add\n      swap2\n      swap1\n      0x00\n      mstore\n      keccak256(0x00, 0x20)\n      swap1\n    tag_697:\n      dup2\n      sload\n      dup2\n      mstore\n      swap1\n      0x01\n      add\n      swap1\n      0x20\n      add\n      dup1\n      dup4\n      gt\n      tag_697\n      jumpi\n      dup3\n      swap1\n      sub\n      0x1f\n      and\n      dup3\n      add\n      swap2\n    tag_695:\n      pop\n      pop\n      pop\n      pop\n      pop\n      swap1\n      dup1\n      0x04\n      add\n      sload\n      swap1\n      dup1\n      0x05\n      add\n      sload\n      swap1\n      pop\n      dup7\n      jump\t// out\n    tag_218:\n      pop\n      dup1\n      sload\n      0x00\n      dup3\n      sstore\n      0x08\n      mul\n      swap1\n      0x00\n      mstore\n      keccak256(0x00, 0x20)\n      swap1\n      dup2\n      add\n      swap1\n      tag_699\n      swap2\n      swap1\n      tag_700\n      jump\t// in\n    tag_699:\n      pop\n      jump\t// out\n    tag_254:\n      pop\n      dup1\n      sload\n      tag_701\n      swap1\n      tag_342\n      jump\t// in\n    tag_701:\n      0x00\n      dup3\n      sstore\n      dup1\n      0x1f\n      lt\n      tag_703\n      jumpi\n      pop\n      jump(tag_702)\n    tag_703:\n      0x1f\n      add\n      0x20\n      swap1\n      div\n      swap1\n      0x00\n      mstore\n      keccak256(0x00, 0x20)\n      swap1\n      dup2\n      add\n      swap1\n      tag_704\n      swap2\n      swap1\n      tag_705\n      jump\t// in\n    tag_704:\n    tag_702:\n      pop\n      jump\t// out\n    tag_277:\n      pop\n      dup1\n      sload\n      0x00\n      dup3\n      sstore\n      0x06\n      mul\n      swap1\n      0x00\n      mstore\n      keccak256(0x00, 0x20)\n      swap1\n      dup2\n      add\n      swap1\n      tag_707\n      swap2\n      swap1\n      tag_708\n      jump\t// in\n    tag_707:\n      pop\n      jump\t// out\n    tag_700:\n    tag_709:\n      dup1\n      dup3\n      gt\n      iszero\n      tag_710\n      jumpi\n      0x00\n      dup1\n      dup3\n      add\n      0x00\n      swap1\n      sstore\n      0x01\n      dup3\n      add\n      exp(0x0100, 0x00)\n      dup2\n      sload\n      swap1\n      0xffffffffffffffffffffffffffffffffffffffff\n      mul\n      not\n      and\n      swap1\n      sstore\n      0x02\n      dup3\n      add\n      0x00\n      tag_711\n      swap2\n      swap1\n      tag_254\n      jump\t// in\n    tag_711:\n      0x03\n      dup3\n      add\n      0x00\n      tag_712\n      swap2\n      swap1\n      tag_254\n      jump\t// in\n    tag_712:\n      0x04\n      dup3\n      add\n      0x00\n      tag_713\n      swap2\n      swap1\n      tag_254\n      jump\t// in\n    tag_713:\n      0x05\n      dup3\n      add\n      0x00\n      swap1\n      sstore\n      0x06\n      dup3\n      add\n      0x00\n      swap1\n      sstore\n      0x07\n      dup3\n      add\n      0x00\n      tag_714\n      swap2\n      swap1\n      tag_254\n      jump\t// in\n    tag_714:\n      pop\n      0x08\n      add\n      jump(tag_709)\n    tag_710:\n      pop\n      swap1\n      jump\t// out\n    tag_705:\n    tag_715:\n      dup1\n      dup3\n      gt\n      iszero\n      tag_716\n      jumpi\n      0x00\n      dup2\n      0x00\n      swap1\n      sstore\n      pop\n      0x01\n      add\n      jump(tag_715)\n    tag_716:\n      pop\n      swap1\n      jump\t// out\n    tag_708:\n    tag_717:\n      dup1\n      dup3\n      gt\n      iszero\n      tag_718\n      jumpi\n      0x00\n      dup1\n      dup3\n      add\n      0x00\n      swap1\n      sstore\n      0x01\n      dup3\n      add\n      0x00\n      tag_719\n      swap2\n      swap1\n      tag_254\n      jump\t// in\n    tag_719:\n      0x02\n      dup3\n      add\n      0x00\n      tag_720\n      swap2\n      swap1\n      tag_254\n      jump\t// in\n    tag_720:\n      0x03\n      dup3\n      add\n      0x00\n      tag_721\n      swap2\n      swap1\n      tag_254\n      jump\t// in\n    tag_721:\n      0x04\n      dup3\n      add\n      0x00\n      swap1\n      sstore\n      0x05\n      dup3\n      add\n      0x00\n      swap1\n      sstore\n      pop\n      0x06\n      add\n      jump(tag_717)\n    tag_718:\n      pop\n      swap1\n      jump\t// out\n        /* \"#utility.yul\":7:82   */\n    tag_722:\n        /* \"#utility.yul\":40:46   */\n      0x00\n        /* \"#utility.yul\":73:75   */\n      0x40\n        /* \"#utility.yul\":67:76   */\n      mload\n        /* \"#utility.yul\":57:76   */\n      swap1\n      pop\n        /* \"#utility.yul\":7:82   */\n      swap1\n      jump\t// out\n        /* \"#utility.yul\":88:205   */\n    tag_723:\n        /* \"#utility.yul\":197:198   */\n      0x00\n        /* \"#utility.yul\":194:195   */\n      dup1\n        /* \"#utility.yul\":187:199   */\n      revert\n        /* \"#utility.yul\":211:328   */\n    tag_724:\n        /* \"#utility.yul\":320:321   */\n      0x00\n        /* \"#utility.yul\":317:318   */\n      dup1\n        /* \"#utility.yul\":310:322   */\n      revert\n        /* \"#utility.yul\":334:411   */\n    tag_725:\n        /* \"#utility.yul\":371:378   */\n      0x00\n        /* \"#utility.yul\":400:405   */\n      dup2\n        /* \"#utility.yul\":389:405   */\n      swap1\n      pop\n        /* \"#utility.yul\":334:411   */\n      swap2\n      swap1\n      pop\n      jump\t// out\n        /* \"#utility.yul\":417:539   */\n    tag_726:\n        /* \"#utility.yul\":490:514   */\n      tag_793\n        /* \"#utility.yul\":508:513   */\n      dup2\n        /* \"#utility.yul\":490:514   */\n      tag_725\n      jump\t// in\n    tag_793:\n        /* \"#utility.yul\":483:488   */\n      dup2\n        /* \"#utility.yul\":480:515   */\n      eq\n        /* \"#utility.yul\":470:533   */\n      tag_794\n      jumpi\n        /* \"#utility.yul\":529:530   */\n      0x00\n        /* \"#utility.yul\":526:527   */\n      dup1\n        /* \"#utility.yul\":519:531   */\n      revert\n        /* \"#utility.yul\":470:533   */\n    tag_794:\n        /* \"#utility.yul\":417:539   */\n      pop\n      jump\t// out\n        /* \"#utility.yul\":545:684   */\n    tag_727:\n        /* \"#utility.yul\":591:596   */\n      0x00\n        /* \"#utility.yul\":629:635   */\n      dup2\n        /* \"#utility.yul\":616:636   */\n      calldataload\n        /* \"#utility.yul\":607:636   */\n      swap1\n      pop\n        /* \"#utility.yul\":645:678   */\n      tag_796\n        /* \"#utility.yul\":672:677   */\n      dup2\n        /* \"#utility.yul\":645:678   */\n      tag_726\n      jump\t// in\n    tag_796:\n        /* \"#utility.yul\":545:684   */\n      swap3\n      swap2\n      pop\n      pop\n      jump\t// out\n        /* \"#utility.yul\":690:1019   */\n    tag_54:\n        /* \"#utility.yul\":749:755   */\n      0x00\n        /* \"#utility.yul\":798:800   */\n      0x20\n        /* \"#utility.yul\":786:795   */\n      dup3\n        /* \"#utility.yul\":777:784   */\n      dup5\n        /* \"#utility.yul\":773:796   */\n      sub\n        /* \"#utility.yul\":769:801   */\n      slt\n        /* \"#utility.yul\":766:885   */\n      iszero\n      tag_798\n      jumpi\n        /* \"#utility.yul\":804:883   */\n      tag_799\n      tag_723\n      jump\t// in\n    tag_799:\n        /* \"#utility.yul\":766:885   */\n    tag_798:\n        /* \"#utility.yul\":924:925   */\n      0x00\n        /* \"#utility.yul\":949:1002   */\n      tag_800\n        /* \"#utility.yul\":994:1001   */\n      dup5\n        /* \"#utility.yul\":985:991   */\n      dup3\n        /* \"#utility.yul\":974:983   */\n      dup6\n        /* \"#utility.yul\":970:992   */\n      add\n        /* \"#utility.yul\":949:1002   */\n      tag_727\n      jump\t// in\n    tag_800:\n        /* \"#utility.yul\":939:1002   */\n      swap2\n      pop\n        /* \"#utility.yul\":895:1012   */\n      pop\n        /* \"#utility.yul\":690:1019   */\n      swap3\n      swap2\n      pop\n      pop\n      jump\t// out\n        /* \"#utility.yul\":1025:1143   */\n    tag_728:\n        /* \"#utility.yul\":1112:1136   */\n      tag_802\n        /* \"#utility.yul\":1130:1135   */\n      dup2\n        /* \"#utility.yul\":1112:1136   */\n      tag_725\n      jump\t// in\n    tag_802:\n        /* \"#utility.yul\":1107:1110   */\n      dup3\n        /* \"#utility.yul\":1100:1137   */\n      mstore\n        /* \"#utility.yul\":1025:1143   */\n      pop\n      pop\n      jump\t// out\n        /* \"#utility.yul\":1149:1371   */\n    tag_57:\n        /* \"#utility.yul\":1242:1246   */\n      0x00\n        /* \"#utility.yul\":1280:1282   */\n      0x20\n        /* \"#utility.yul\":1269:1278   */\n      dup3\n        /* \"#utility.yul\":1265:1283   */\n      add\n        /* \"#utility.yul\":1257:1283   */\n      swap1\n      pop\n        /* \"#utility.yul\":1293:1364   */\n      tag_804\n        /* \"#utility.yul\":1361:1362   */\n      0x00\n        /* \"#utility.yul\":1350:1359   */\n      dup4\n        /* \"#utility.yul\":1346:1363   */\n      add\n        /* \"#utility.yul\":1337:1343   */\n      dup5\n        /* \"#utility.yul\":1293:1364   */\n      tag_728\n      jump\t// in\n    tag_804:\n        /* \"#utility.yul\":1149:1371   */\n      swap3\n      swap2\n      pop\n      pop\n      jump\t// out\n        /* \"#utility.yul\":1377:1494   */\n    tag_729:\n        /* \"#utility.yul\":1486:1487   */\n      0x00\n        /* \"#utility.yul\":1483:1484   */\n      dup1\n        /* \"#utility.yul\":1476:1488   */\n      revert\n        /* \"#utility.yul\":1500:1602   */\n    tag_730:\n        /* \"#utility.yul\":1541:1547   */\n      0x00\n        /* \"#utility.yul\":1592:1594   */\n      0x1f\n        /* \"#utility.yul\":1588:1595   */\n      not\n        /* \"#utility.yul\":1583:1585   */\n      0x1f\n        /* \"#utility.yul\":1576:1581   */\n      dup4\n        /* \"#utility.yul\":1572:1586   */\n      add\n        /* \"#utility.yul\":1568:1596   */\n      and\n        /* \"#utility.yul\":1558:1596   */\n      swap1\n      pop\n        /* \"#utility.yul\":1500:1602   */\n      swap2\n      swap1\n      pop\n      jump\t// out\n        /* \"#utility.yul\":1608:1788   */\n    tag_731:\n        /* \"#utility.yul\":1656:1733   */\n      0x4e487b7100000000000000000000000000000000000000000000000000000000\n        /* \"#utility.yul\":1653:1654   */\n      0x00\n        /* \"#utility.yul\":1646:1734   */\n      mstore\n        /* \"#utility.yul\":1753:1757   */\n      0x41\n        /* \"#utility.yul\":1750:1751   */\n      0x04\n        /* \"#utility.yul\":1743:1758   */\n      mstore\n        /* \"#utility.yul\":1777:1781   */\n      0x24\n        /* \"#utility.yul\":1774:1775   */\n      0x00\n        /* \"#utility.yul\":1767:1782   */\n      revert\n        /* \"#utility.yul\":1794:2075   */\n    tag_732:\n        /* \"#utility.yul\":1877:1904   */\n      tag_809\n        /* \"#utility.yul\":1899:1903   */\n      dup3\n        /* \"#utility.yul\":1877:1904   */\n      tag_730\n      jump\t// in\n    tag_809:\n        /* \"#utility.yul\":1869:1875   */\n      dup2\n        /* \"#utility.yul\":1865:1905   */\n      add\n        /* \"#utility.yul\":2007:2013   */\n      dup2\n        /* \"#utility.yul\":1995:2005   */\n      dup2\n        /* \"#utility.yul\":1992:2014   */\n      lt\n        /* \"#utility.yul\":1971:1989   */\n      0xffffffffffffffff\n        /* \"#utility.yul\":1959:1969   */\n      dup3\n        /* \"#utility.yul\":1956:1990   */\n      gt\n        /* \"#utility.yul\":1953:2015   */\n      or\n        /* \"#utility.yul\":1950:2038   */\n      iszero\n      tag_810\n      jumpi\n        /* \"#utility.yul\":2018:2036   */\n      tag_811\n      tag_731\n      jump\t// in\n    tag_811:\n        /* \"#utility.yul\":1950:2038   */\n    tag_810:\n        /* \"#utility.yul\":2058:2068   */\n      dup1\n        /* \"#utility.yul\":2054:2056   */\n      0x40\n        /* \"#utility.yul\":2047:2069   */\n      mstore\n        /* \"#utility.yul\":1837:2075   */\n      pop\n        /* \"#utility.yul\":1794:2075   */\n      pop\n      pop\n      jump\t// out\n        /* \"#utility.yul\":2081:2210   */\n    tag_733:\n        /* \"#utility.yul\":2115:2121   */\n      0x00\n        /* \"#utility.yul\":2142:2162   */\n      tag_813\n      tag_722\n      jump\t// in\n    tag_813:\n        /* \"#utility.yul\":2132:2162   */\n      swap1\n      pop\n        /* \"#utility.yul\":2171:2204   */\n      tag_814\n        /* \"#utility.yul\":2199:2203   */\n      dup3\n        /* \"#utility.yul\":2191:2197   */\n      dup3\n        /* \"#utility.yul\":2171:2204   */\n      tag_732\n      jump\t// in\n    tag_814:\n        /* \"#utility.yul\":2081:2210   */\n      swap2\n      swap1\n      pop\n      jump\t// out\n        /* \"#utility.yul\":2216:2527   */\n    tag_734:\n        /* \"#utility.yul\":2293:2297   */\n      0x00\n        /* \"#utility.yul\":2383:2401   */\n      0xffffffffffffffff\n        /* \"#utility.yul\":2375:2381   */\n      dup3\n        /* \"#utility.yul\":2372:2402   */\n      gt\n        /* \"#utility.yul\":2369:2425   */\n      iszero\n      tag_816\n      jumpi\n        /* \"#utility.yul\":2405:2423   */\n      tag_817\n      tag_731\n      jump\t// in\n    tag_817:\n        /* \"#utility.yul\":2369:2425   */\n    tag_816:\n        /* \"#utility.yul\":2455:2459   */\n      0x20\n        /* \"#utility.yul\":2447:2453   */\n      dup3\n        /* \"#utility.yul\":2443:2460   */\n      mul\n        /* \"#utility.yul\":2435:2460   */\n      swap1\n      pop\n        /* \"#utility.yul\":2515:2519   */\n      0x20\n        /* \"#utility.yul\":2509:2513   */\n      dup2\n        /* \"#utility.yul\":2505:2520   */\n      add\n        /* \"#utility.yul\":2497:2520   */\n      swap1\n      pop\n        /* \"#utility.yul\":2216:2527   */\n      swap2\n      swap1\n      pop\n      jump\t// out\n        /* \"#utility.yul\":2533:2650   */\n    tag_735:\n        /* \"#utility.yul\":2642:2643   */\n      0x00\n        /* \"#utility.yul\":2639:2640   */\n      dup1\n        /* \"#utility.yul\":2632:2644   */\n      revert\n        /* \"#utility.yul\":2656:2782   */\n    tag_736:\n        /* \"#utility.yul\":2693:2700   */\n      0x00\n        /* \"#utility.yul\":2733:2775   */\n      0xffffffffffffffffffffffffffffffffffffffff\n        /* \"#utility.yul\":2726:2731   */\n      dup3\n        /* \"#utility.yul\":2722:2776   */\n      and\n        /* \"#utility.yul\":2711:2776   */\n      swap1\n      pop\n        /* \"#utility.yul\":2656:2782   */\n      swap2\n      swap1\n      pop\n      jump\t// out\n        /* \"#utility.yul\":2788:2884   */\n    tag_737:\n        /* \"#utility.yul\":2825:2832   */\n      0x00\n        /* \"#utility.yul\":2854:2878   */\n      tag_821\n        /* \"#utility.yul\":2872:2877   */\n      dup3\n        /* \"#utility.yul\":2854:2878   */\n      tag_736\n      jump\t// in\n    tag_821:\n        /* \"#utility.yul\":2843:2878   */\n      swap1\n      pop\n        /* \"#utility.yul\":2788:2884   */\n      swap2\n      swap1\n      pop\n      jump\t// out\n        /* \"#utility.yul\":2890:3012   */\n    tag_738:\n        /* \"#utility.yul\":2963:2987   */\n      tag_823\n        /* \"#utility.yul\":2981:2986   */\n      dup2\n        /* \"#utility.yul\":2963:2987   */\n      tag_737\n      jump\t// in\n    tag_823:\n        /* \"#utility.yul\":2956:2961   */\n      dup2\n        /* \"#utility.yul\":2953:2988   */\n      eq\n        /* \"#utility.yul\":2943:3006   */\n      tag_824\n      jumpi\n        /* \"#utility.yul\":3002:3003   */\n      0x00\n        /* \"#utility.yul\":2999:3000   */\n      dup1\n        /* \"#utility.yul\":2992:3004   */\n      revert\n        /* \"#utility.yul\":2943:3006   */\n    tag_824:\n        /* \"#utility.yul\":2890:3012   */\n      pop\n      jump\t// out\n        /* \"#utility.yul\":3018:3157   */\n    tag_739:\n        /* \"#utility.yul\":3064:3069   */\n      0x00\n        /* \"#utility.yul\":3102:3108   */\n      dup2\n        /* \"#utility.yul\":3089:3109   */\n      calldataload\n        /* \"#utility.yul\":3080:3109   */\n      swap1\n      pop\n        /* \"#utility.yul\":3118:3151   */\n      tag_826\n        /* \"#utility.yul\":3145:3150   */\n      dup2\n        /* \"#utility.yul\":3118:3151   */\n      tag_738\n      jump\t// in\n    tag_826:\n        /* \"#utility.yul\":3018:3157   */\n      swap3\n      swap2\n      pop\n      pop\n      jump\t// out\n        /* \"#utility.yul\":3180:3890   */\n    tag_740:\n        /* \"#utility.yul\":3276:3281   */\n      0x00\n        /* \"#utility.yul\":3301:3382   */\n      tag_828\n        /* \"#utility.yul\":3317:3381   */\n      tag_829\n        /* \"#utility.yul\":3374:3380   */\n      dup5\n        /* \"#utility.yul\":3317:3381   */\n      tag_734\n      jump\t// in\n    tag_829:\n        /* \"#utility.yul\":3301:3382   */\n      tag_733\n      jump\t// in\n    tag_828:\n        /* \"#utility.yul\":3292:3382   */\n      swap1\n      pop\n        /* \"#utility.yul\":3402:3407   */\n      dup1\n        /* \"#utility.yul\":3431:3437   */\n      dup4\n        /* \"#utility.yul\":3424:3429   */\n      dup3\n        /* \"#utility.yul\":3417:3438   */\n      mstore\n        /* \"#utility.yul\":3465:3469   */\n      0x20\n        /* \"#utility.yul\":3458:3463   */\n      dup3\n        /* \"#utility.yul\":3454:3470   */\n      add\n        /* \"#utility.yul\":3447:3470   */\n      swap1\n      pop\n        /* \"#utility.yul\":3518:3522   */\n      0x20\n        /* \"#utility.yul\":3510:3516   */\n      dup5\n        /* \"#utility.yul\":3506:3523   */\n      mul\n        /* \"#utility.yul\":3498:3504   */\n      dup4\n        /* \"#utility.yul\":3494:3524   */\n      add\n        /* \"#utility.yul\":3547:3550   */\n      dup6\n        /* \"#utility.yul\":3539:3545   */\n      dup2\n        /* \"#utility.yul\":3536:3551   */\n      gt\n        /* \"#utility.yul\":3533:3655   */\n      iszero\n      tag_830\n      jumpi\n        /* \"#utility.yul\":3566:3645   */\n      tag_831\n      tag_735\n      jump\t// in\n    tag_831:\n        /* \"#utility.yul\":3533:3655   */\n    tag_830:\n        /* \"#utility.yul\":3681:3687   */\n      dup4\n        /* \"#utility.yul\":3664:3884   */\n    tag_832:\n        /* \"#utility.yul\":3698:3704   */\n      dup2\n        /* \"#utility.yul\":3693:3696   */\n      dup2\n        /* \"#utility.yul\":3690:3705   */\n      lt\n        /* \"#utility.yul\":3664:3884   */\n      iszero\n      tag_834\n      jumpi\n        /* \"#utility.yul\":3773:3776   */\n      dup1\n        /* \"#utility.yul\":3802:3839   */\n      tag_835\n        /* \"#utility.yul\":3835:3838   */\n      dup9\n        /* \"#utility.yul\":3823:3833   */\n      dup3\n        /* \"#utility.yul\":3802:3839   */\n      tag_739\n      jump\t// in\n    tag_835:\n        /* \"#utility.yul\":3797:3800   */\n      dup5\n        /* \"#utility.yul\":3790:3840   */\n      mstore\n        /* \"#utility.yul\":3869:3873   */\n      0x20\n        /* \"#utility.yul\":3864:3867   */\n      dup5\n        /* \"#utility.yul\":3860:3874   */\n      add\n        /* \"#utility.yul\":3853:3874   */\n      swap4\n      pop\n        /* \"#utility.yul\":3740:3884   */\n      pop\n        /* \"#utility.yul\":3724:3728   */\n      0x20\n        /* \"#utility.yul\":3719:3722   */\n      dup2\n        /* \"#utility.yul\":3715:3729   */\n      add\n        /* \"#utility.yul\":3708:3729   */\n      swap1\n      pop\n        /* \"#utility.yul\":3664:3884   */\n      jump(tag_832)\n    tag_834:\n        /* \"#utility.yul\":3668:3689   */\n      pop\n        /* \"#utility.yul\":3282:3890   */\n      pop\n      pop\n        /* \"#utility.yul\":3180:3890   */\n      swap4\n      swap3\n      pop\n      pop\n      pop\n      jump\t// out\n        /* \"#utility.yul\":3913:4283   */\n    tag_741:\n        /* \"#utility.yul\":3984:3989   */\n      0x00\n        /* \"#utility.yul\":4033:4036   */\n      dup3\n        /* \"#utility.yul\":4026:4030   */\n      0x1f\n        /* \"#utility.yul\":4018:4024   */\n      dup4\n        /* \"#utility.yul\":4014:4031   */\n      add\n        /* \"#utility.yul\":4010:4037   */\n      slt\n        /* \"#utility.yul\":4000:4122   */\n      tag_837\n      jumpi\n        /* \"#utility.yul\":4041:4120   */\n      tag_838\n      tag_729\n      jump\t// in\n    tag_838:\n        /* \"#utility.yul\":4000:4122   */\n    tag_837:\n        /* \"#utility.yul\":4158:4164   */\n      dup2\n        /* \"#utility.yul\":4145:4165   */\n      calldataload\n        /* \"#utility.yul\":4183:4277   */\n      tag_839\n        /* \"#utility.yul\":4273:4276   */\n      dup5\n        /* \"#utility.yul\":4265:4271   */\n      dup3\n        /* \"#utility.yul\":4258:4262   */\n      0x20\n        /* \"#utility.yul\":4250:4256   */\n      dup7\n        /* \"#utility.yul\":4246:4263   */\n      add\n        /* \"#utility.yul\":4183:4277   */\n      tag_740\n      jump\t// in\n    tag_839:\n        /* \"#utility.yul\":4174:4277   */\n      swap2\n      pop\n        /* \"#utility.yul\":3990:4283   */\n      pop\n        /* \"#utility.yul\":3913:4283   */\n      swap3\n      swap2\n      pop\n      pop\n      jump\t// out\n        /* \"#utility.yul\":4289:4828   */\n    tag_60:\n        /* \"#utility.yul\":4373:4379   */\n      0x00\n        /* \"#utility.yul\":4422:4424   */\n      0x20\n        /* \"#utility.yul\":4410:4419   */\n      dup3\n        /* \"#utility.yul\":4401:4408   */\n      dup5\n        /* \"#utility.yul\":4397:4420   */\n      sub\n        /* \"#utility.yul\":4393:4425   */\n      slt\n        /* \"#utility.yul\":4390:4509   */\n      iszero\n      tag_841\n      jumpi\n        /* \"#utility.yul\":4428:4507   */\n      tag_842\n      tag_723\n      jump\t// in\n    tag_842:\n        /* \"#utility.yul\":4390:4509   */\n    tag_841:\n        /* \"#utility.yul\":4576:4577   */\n      0x00\n        /* \"#utility.yul\":4565:4574   */\n      dup3\n        /* \"#utility.yul\":4561:4578   */\n      add\n        /* \"#utility.yul\":4548:4579   */\n      calldataload\n        /* \"#utility.yul\":4606:4624   */\n      0xffffffffffffffff\n        /* \"#utility.yul\":4598:4604   */\n      dup2\n        /* \"#utility.yul\":4595:4625   */\n      gt\n        /* \"#utility.yul\":4592:4709   */\n      iszero\n      tag_843\n      jumpi\n        /* \"#utility.yul\":4628:4707   */\n      tag_844\n      tag_724\n      jump\t// in\n    tag_844:\n        /* \"#utility.yul\":4592:4709   */\n    tag_843:\n        /* \"#utility.yul\":4733:4811   */\n      tag_845\n        /* \"#utility.yul\":4803:4810   */\n      dup5\n        /* \"#utility.yul\":4794:4800   */\n      dup3\n        /* \"#utility.yul\":4783:4792   */\n      dup6\n        /* \"#utility.yul\":4779:4801   */\n      add\n        /* \"#utility.yul\":4733:4811   */\n      tag_741\n      jump\t// in\n    tag_845:\n        /* \"#utility.yul\":4723:4811   */\n      swap2\n      pop\n        /* \"#utility.yul\":4519:4821   */\n      pop\n        /* \"#utility.yul\":4289:4828   */\n      swap3\n      swap2\n      pop\n      pop\n      jump\t// out\n        /* \"#utility.yul\":4834:5599   */\n    tag_64:\n        /* \"#utility.yul\":4920:4926   */\n      0x00\n        /* \"#utility.yul\":4928:4934   */\n      dup1\n        /* \"#utility.yul\":4936:4942   */\n      0x00\n        /* \"#utility.yul\":4944:4950   */\n      dup1\n        /* \"#utility.yul\":4993:4996   */\n      0x80\n        /* \"#utility.yul\":4981:4990   */\n      dup6\n        /* \"#utility.yul\":4972:4979   */\n      dup8\n        /* \"#utility.yul\":4968:4991   */\n      sub\n        /* \"#utility.yul\":4964:4997   */\n      slt\n        /* \"#utility.yul\":4961:5081   */\n      iszero\n      tag_847\n      jumpi\n        /* \"#utility.yul\":5000:5079   */\n      tag_848\n      tag_723\n      jump\t// in\n    tag_848:\n        /* \"#utility.yul\":4961:5081   */\n    tag_847:\n        /* \"#utility.yul\":5120:5121   */\n      0x00\n        /* \"#utility.yul\":5145:5198   */\n      tag_849\n        /* \"#utility.yul\":5190:5197   */\n      dup8\n        /* \"#utility.yul\":5181:5187   */\n      dup3\n        /* \"#utility.yul\":5170:5179   */\n      dup9\n        /* \"#utility.yul\":5166:5188   */\n      add\n        /* \"#utility.yul\":5145:5198   */\n      tag_727\n      jump\t// in\n    tag_849:\n        /* \"#utility.yul\":5135:5198   */\n      swap5\n      pop\n        /* \"#utility.yul\":5091:5208   */\n      pop\n        /* \"#utility.yul\":5247:5249   */\n      0x20\n        /* \"#utility.yul\":5273:5326   */\n      tag_850\n        /* \"#utility.yul\":5318:5325   */\n      dup8\n        /* \"#utility.yul\":5309:5315   */\n      dup3\n        /* \"#utility.yul\":5298:5307   */\n      dup9\n        /* \"#utility.yul\":5294:5316   */\n      add\n        /* \"#utility.yul\":5273:5326   */\n      tag_739\n      jump\t// in\n    tag_850:\n        /* \"#utility.yul\":5263:5326   */\n      swap4\n      pop\n        /* \"#utility.yul\":5218:5336   */\n      pop\n        /* \"#utility.yul\":5375:5377   */\n      0x40\n        /* \"#utility.yul\":5401:5454   */\n      tag_851\n        /* \"#utility.yul\":5446:5453   */\n      dup8\n        /* \"#utility.yul\":5437:5443   */\n      dup3\n        /* \"#utility.yul\":5426:5435   */\n      dup9\n        /* \"#utility.yul\":5422:5444   */\n      add\n        /* \"#utility.yul\":5401:5454   */\n      tag_727\n      jump\t// in\n    tag_851:\n        /* \"#utility.yul\":5391:5454   */\n      swap3\n      pop\n        /* \"#utility.yul\":5346:5464   */\n      pop\n        /* \"#utility.yul\":5503:5505   */\n      0x60\n        /* \"#utility.yul\":5529:5582   */\n      tag_852\n        /* \"#utility.yul\":5574:5581   */\n      dup8\n        /* \"#utility.yul\":5565:5571   */\n      dup3\n        /* \"#utility.yul\":5554:5563   */\n      dup9\n        /* \"#utility.yul\":5550:5572   */\n      add\n        /* \"#utility.yul\":5529:5582   */\n      tag_727\n      jump\t// in\n    tag_852:\n        /* \"#utility.yul\":5519:5582   */\n      swap2\n      pop\n        /* \"#utility.yul\":5474:5592   */\n      pop\n        /* \"#utility.yul\":4834:5599   */\n      swap3\n      swap6\n      swap2\n      swap5\n      pop\n      swap3\n      pop\n      jump\t// out\n        /* \"#utility.yul\":5605:5916   */\n    tag_742:\n        /* \"#utility.yul\":5682:5686   */\n      0x00\n        /* \"#utility.yul\":5772:5790   */\n      0xffffffffffffffff\n        /* \"#utility.yul\":5764:5770   */\n      dup3\n        /* \"#utility.yul\":5761:5791   */\n      gt\n        /* \"#utility.yul\":5758:5814   */\n      iszero\n      tag_854\n      jumpi\n        /* \"#utility.yul\":5794:5812   */\n      tag_855\n      tag_731\n      jump\t// in\n    tag_855:\n        /* \"#utility.yul\":5758:5814   */\n    tag_854:\n        /* \"#utility.yul\":5844:5848   */\n      0x20\n        /* \"#utility.yul\":5836:5842   */\n      dup3\n        /* \"#utility.yul\":5832:5849   */\n      mul\n        /* \"#utility.yul\":5824:5849   */\n      swap1\n      pop\n        /* \"#utility.yul\":5904:5908   */\n      0x20\n        /* \"#utility.yul\":5898:5902   */\n      dup2\n        /* \"#utility.yul\":5894:5909   */\n      add\n        /* \"#utility.yul\":5886:5909   */\n      swap1\n      pop\n        /* \"#utility.yul\":5605:5916   */\n      swap2\n      swap1\n      pop\n      jump\t// out\n        /* \"#utility.yul\":5939:6649   */\n    tag_743:\n        /* \"#utility.yul\":6035:6040   */\n      0x00\n        /* \"#utility.yul\":6060:6141   */\n      tag_857\n        /* \"#utility.yul\":6076:6140   */\n      tag_858\n        /* \"#utility.yul\":6133:6139   */\n      dup5\n        /* \"#utility.yul\":6076:6140   */\n      tag_742\n      jump\t// in\n    tag_858:\n        /* \"#utility.yul\":6060:6141   */\n      tag_733\n      jump\t// in\n    tag_857:\n        /* \"#utility.yul\":6051:6141   */\n      swap1\n      pop\n        /* \"#utility.yul\":6161:6166   */\n      dup1\n        /* \"#utility.yul\":6190:6196   */\n      dup4\n        /* \"#utility.yul\":6183:6188   */\n      dup3\n        /* \"#utility.yul\":6176:6197   */\n      mstore\n        /* \"#utility.yul\":6224:6228   */\n      0x20\n        /* \"#utility.yul\":6217:6222   */\n      dup3\n        /* \"#utility.yul\":6213:6229   */\n      add\n        /* \"#utility.yul\":6206:6229   */\n      swap1\n      pop\n        /* \"#utility.yul\":6277:6281   */\n      0x20\n        /* \"#utility.yul\":6269:6275   */\n      dup5\n        /* \"#utility.yul\":6265:6282   */\n      mul\n        /* \"#utility.yul\":6257:6263   */\n      dup4\n        /* \"#utility.yul\":6253:6283   */\n      add\n        /* \"#utility.yul\":6306:6309   */\n      dup6\n        /* \"#utility.yul\":6298:6304   */\n      dup2\n        /* \"#utility.yul\":6295:6310   */\n      gt\n        /* \"#utility.yul\":6292:6414   */\n      iszero\n      tag_859\n      jumpi\n        /* \"#utility.yul\":6325:6404   */\n      tag_860\n      tag_735\n      jump\t// in\n    tag_860:\n        /* \"#utility.yul\":6292:6414   */\n    tag_859:\n        /* \"#utility.yul\":6440:6446   */\n      dup4\n        /* \"#utility.yul\":6423:6643   */\n    tag_861:\n        /* \"#utility.yul\":6457:6463   */\n      dup2\n        /* \"#utility.yul\":6452:6455   */\n      dup2\n        /* \"#utility.yul\":6449:6464   */\n      lt\n        /* \"#utility.yul\":6423:6643   */\n      iszero\n      tag_863\n      jumpi\n        /* \"#utility.yul\":6532:6535   */\n      dup1\n        /* \"#utility.yul\":6561:6598   */\n      tag_864\n        /* \"#utility.yul\":6594:6597   */\n      dup9\n        /* \"#utility.yul\":6582:6592   */\n      dup3\n        /* \"#utility.yul\":6561:6598   */\n      tag_727\n      jump\t// in\n    tag_864:\n        /* \"#utility.yul\":6556:6559   */\n      dup5\n        /* \"#utility.yul\":6549:6599   */\n      mstore\n        /* \"#utility.yul\":6628:6632   */\n      0x20\n        /* \"#utility.yul\":6623:6626   */\n      dup5\n        /* \"#utility.yul\":6619:6633   */\n      add\n        /* \"#utility.yul\":6612:6633   */\n      swap4\n      pop\n        /* \"#utility.yul\":6499:6643   */\n      pop\n        /* \"#utility.yul\":6483:6487   */\n      0x20\n        /* \"#utility.yul\":6478:6481   */\n      dup2\n        /* \"#utility.yul\":6474:6488   */\n      add\n        /* \"#utility.yul\":6467:6488   */\n      swap1\n      pop\n        /* \"#utility.yul\":6423:6643   */\n      jump(tag_861)\n    tag_863:\n        /* \"#utility.yul\":6427:6448   */\n      pop\n        /* \"#utility.yul\":6041:6649   */\n      pop\n      pop\n        /* \"#utility.yul\":5939:6649   */\n      swap4\n      swap3\n      pop\n      pop\n      pop\n      jump\t// out\n        /* \"#utility.yul\":6672:7042   */\n    tag_744:\n        /* \"#utility.yul\":6743:6748   */\n      0x00\n        /* \"#utility.yul\":6792:6795   */\n      dup3\n        /* \"#utility.yul\":6785:6789   */\n      0x1f\n        /* \"#utility.yul\":6777:6783   */\n      dup4\n        /* \"#utility.yul\":6773:6790   */\n      add\n        /* \"#utility.yul\":6769:6796   */\n      slt\n        /* \"#utility.yul\":6759:6881   */\n      tag_866\n      jumpi\n        /* \"#utility.yul\":6800:6879   */\n      tag_867\n      tag_729\n      jump\t// in\n    tag_867:\n        /* \"#utility.yul\":6759:6881   */\n    tag_866:\n        /* \"#utility.yul\":6917:6923   */\n      dup2\n        /* \"#utility.yul\":6904:6924   */\n      calldataload\n        /* \"#utility.yul\":6942:7036   */\n      tag_868\n        /* \"#utility.yul\":7032:7035   */\n      dup5\n        /* \"#utility.yul\":7024:7030   */\n      dup3\n        /* \"#utility.yul\":7017:7021   */\n      0x20\n        /* \"#utility.yul\":7009:7015   */\n      dup7\n        /* \"#utility.yul\":7005:7022   */\n      add\n        /* \"#utility.yul\":6942:7036   */\n      tag_743\n      jump\t// in\n    tag_868:\n        /* \"#utility.yul\":6933:7036   */\n      swap2\n      pop\n        /* \"#utility.yul\":6749:7042   */\n      pop\n        /* \"#utility.yul\":6672:7042   */\n      swap3\n      swap2\n      pop\n      pop\n      jump\t// out\n        /* \"#utility.yul\":7048:7587   */\n    tag_71:\n        /* \"#utility.yul\":7132:7138   */\n      0x00\n        /* \"#utility.yul\":7181:7183   */\n      0x20\n        /* \"#utility.yul\":7169:7178   */\n      dup3\n        /* \"#utility.yul\":7160:7167   */\n      dup5\n        /* \"#utility.yul\":7156:7179   */\n      sub\n        /* \"#utility.yul\":7152:7184   */\n      slt\n        /* \"#utility.yul\":7149:7268   */\n      iszero\n      tag_870\n      jumpi\n        /* \"#utility.yul\":7187:7266   */\n      tag_871\n      tag_723\n      jump\t// in\n    tag_871:\n        /* \"#utility.yul\":7149:7268   */\n    tag_870:\n        /* \"#utility.yul\":7335:7336   */\n      0x00\n        /* \"#utility.yul\":7324:7333   */\n      dup3\n        /* \"#utility.yul\":7320:7337   */\n      add\n        /* \"#utility.yul\":7307:7338   */\n      calldataload\n        /* \"#utility.yul\":7365:7383   */\n      0xffffffffffffffff\n        /* \"#utility.yul\":7357:7363   */\n      dup2\n        /* \"#utility.yul\":7354:7384   */\n      gt\n        /* \"#utility.yul\":7351:7468   */\n      iszero\n      tag_872\n      jumpi\n        /* \"#utility.yul\":7387:7466   */\n      tag_873\n      tag_724\n      jump\t// in\n    tag_873:\n        /* \"#utility.yul\":7351:7468   */\n    tag_872:\n        /* \"#utility.yul\":7492:7570   */\n      tag_874\n        /* \"#utility.yul\":7562:7569   */\n      dup5\n        /* \"#utility.yul\":7553:7559   */\n      dup3\n        /* \"#utility.yul\":7542:7551   */\n      dup6\n        /* \"#utility.yul\":7538:7560   */\n      add\n        /* \"#utility.yul\":7492:7570   */\n      tag_744\n      jump\t// in\n    tag_874:\n        /* \"#utility.yul\":7482:7570   */\n      swap2\n      pop\n        /* \"#utility.yul\":7278:7580   */\n      pop\n        /* \"#utility.yul\":7048:7587   */\n      swap3\n      swap2\n      pop\n      pop\n      jump\t// out\n        /* \"#utility.yul\":7593:7710   */\n    tag_745:\n        /* \"#utility.yul\":7702:7703   */\n      0x00\n        /* \"#utility.yul\":7699:7700   */\n      dup1\n        /* \"#utility.yul\":7692:7704   */\n      revert\n        /* \"#utility.yul\":7716:8024   */\n    tag_746:\n        /* \"#utility.yul\":7778:7782   */\n      0x00\n        /* \"#utility.yul\":7868:7886   */\n      0xffffffffffffffff\n        /* \"#utility.yul\":7860:7866   */\n      dup3\n        /* \"#utility.yul\":7857:7887   */\n      gt\n        /* \"#utility.yul\":7854:7910   */\n      iszero\n      tag_877\n      jumpi\n        /* \"#utility.yul\":7890:7908   */\n      tag_878\n      tag_731\n      jump\t// in\n    tag_878:\n        /* \"#utility.yul\":7854:7910   */\n    tag_877:\n        /* \"#utility.yul\":7928:7957   */\n      tag_879\n        /* \"#utility.yul\":7950:7956   */\n      dup3\n        /* \"#utility.yul\":7928:7957   */\n      tag_730\n      jump\t// in\n    tag_879:\n        /* \"#utility.yul\":7920:7957   */\n      swap1\n      pop\n        /* \"#utility.yul\":8012:8016   */\n      0x20\n        /* \"#utility.yul\":8006:8010   */\n      dup2\n        /* \"#utility.yul\":8002:8017   */\n      add\n        /* \"#utility.yul\":7994:8017   */\n      swap1\n      pop\n        /* \"#utility.yul\":7716:8024   */\n      swap2\n      swap1\n      pop\n      jump\t// out\n        /* \"#utility.yul\":8030:8176   */\n    tag_747:\n        /* \"#utility.yul\":8127:8133   */\n      dup3\n        /* \"#utility.yul\":8122:8125   */\n      dup2\n        /* \"#utility.yul\":8117:8120   */\n      dup4\n        /* \"#utility.yul\":8104:8134   */\n      calldatacopy\n        /* \"#utility.yul\":8168:8169   */\n      0x00\n        /* \"#utility.yul\":8159:8165   */\n      dup4\n        /* \"#utility.yul\":8154:8157   */\n      dup4\n        /* \"#utility.yul\":8150:8166   */\n      add\n        /* \"#utility.yul\":8143:8170   */\n      mstore\n        /* \"#utility.yul\":8030:8176   */\n      pop\n      pop\n      pop\n      jump\t// out\n        /* \"#utility.yul\":8182:8607   */\n    tag_748:\n        /* \"#utility.yul\":8260:8265   */\n      0x00\n        /* \"#utility.yul\":8285:8351   */\n      tag_882\n        /* \"#utility.yul\":8301:8350   */\n      tag_883\n        /* \"#utility.yul\":8343:8349   */\n      dup5\n        /* \"#utility.yul\":8301:8350   */\n      tag_746\n      jump\t// in\n    tag_883:\n        /* \"#utility.yul\":8285:8351   */\n      tag_733\n      jump\t// in\n    tag_882:\n        /* \"#utility.yul\":8276:8351   */\n      swap1\n      pop\n        /* \"#utility.yul\":8374:8380   */\n      dup3\n        /* \"#utility.yul\":8367:8372   */\n      dup2\n        /* \"#utility.yul\":8360:8381   */\n      mstore\n        /* \"#utility.yul\":8412:8416   */\n      0x20\n        /* \"#utility.yul\":8405:8410   */\n      dup2\n        /* \"#utility.yul\":8401:8417   */\n      add\n        /* \"#utility.yul\":8450:8453   */\n      dup5\n        /* \"#utility.yul\":8441:8447   */\n      dup5\n        /* \"#utility.yul\":8436:8439   */\n      dup5\n        /* \"#utility.yul\":8432:8448   */\n      add\n        /* \"#utility.yul\":8429:8454   */\n      gt\n        /* \"#utility.yul\":8426:8538   */\n      iszero\n      tag_884\n      jumpi\n        /* \"#utility.yul\":8457:8536   */\n      tag_885\n      tag_745\n      jump\t// in\n    tag_885:\n        /* \"#utility.yul\":8426:8538   */\n    tag_884:\n        /* \"#utility.yul\":8547:8601   */\n      tag_886\n        /* \"#utility.yul\":8594:8600   */\n      dup5\n        /* \"#utility.yul\":8589:8592   */\n      dup3\n        /* \"#utility.yul\":8584:8587   */\n      dup6\n        /* \"#utility.yul\":8547:8601   */\n      tag_747\n      jump\t// in\n    tag_886:\n        /* \"#utility.yul\":8266:8607   */\n      pop\n        /* \"#utility.yul\":8182:8607   */\n      swap4\n      swap3\n      pop\n      pop\n      pop\n      jump\t// out\n        /* \"#utility.yul\":8627:8967   */\n    tag_749:\n        /* \"#utility.yul\":8683:8688   */\n      0x00\n        /* \"#utility.yul\":8732:8735   */\n      dup3\n        /* \"#utility.yul\":8725:8729   */\n      0x1f\n        /* \"#utility.yul\":8717:8723   */\n      dup4\n        /* \"#utility.yul\":8713:8730   */\n      add\n        /* \"#utility.yul\":8709:8736   */\n      slt\n        /* \"#utility.yul\":8699:8821   */\n      tag_888\n      jumpi\n        /* \"#utility.yul\":8740:8819   */\n      tag_889\n      tag_729\n      jump\t// in\n    tag_889:\n        /* \"#utility.yul\":8699:8821   */\n    tag_888:\n        /* \"#utility.yul\":8857:8863   */\n      dup2\n        /* \"#utility.yul\":8844:8864   */\n      calldataload\n        /* \"#utility.yul\":8882:8961   */\n      tag_890\n        /* \"#utility.yul\":8957:8960   */\n      dup5\n        /* \"#utility.yul\":8949:8955   */\n      dup3\n        /* \"#utility.yul\":8942:8946   */\n      0x20\n        /* \"#utility.yul\":8934:8940   */\n      dup7\n        /* \"#utility.yul\":8930:8947   */\n      add\n        /* \"#utility.yul\":8882:8961   */\n      tag_748\n      jump\t// in\n    tag_890:\n        /* \"#utility.yul\":8873:8961   */\n      swap2\n      pop\n        /* \"#utility.yul\":8689:8967   */\n      pop\n        /* \"#utility.yul\":8627:8967   */\n      swap3\n      swap2\n      pop\n      pop\n      jump\t// out\n        /* \"#utility.yul\":8973:9482   */\n    tag_75:\n        /* \"#utility.yul\":9042:9048   */\n      0x00\n        /* \"#utility.yul\":9091:9093   */\n      0x20\n        /* \"#utility.yul\":9079:9088   */\n      dup3\n        /* \"#utility.yul\":9070:9077   */\n      dup5\n        /* \"#utility.yul\":9066:9089   */\n      sub\n        /* \"#utility.yul\":9062:9094   */\n      slt\n        /* \"#utility.yul\":9059:9178   */\n      iszero\n      tag_892\n      jumpi\n        /* \"#utility.yul\":9097:9176   */\n      tag_893\n      tag_723\n      jump\t// in\n    tag_893:\n        /* \"#utility.yul\":9059:9178   */\n    tag_892:\n        /* \"#utility.yul\":9245:9246   */\n      0x00\n        /* \"#utility.yul\":9234:9243   */\n      dup3\n        /* \"#utility.yul\":9230:9247   */\n      add\n        /* \"#utility.yul\":9217:9248   */\n      calldataload\n        /* \"#utility.yul\":9275:9293   */\n      0xffffffffffffffff\n        /* \"#utility.yul\":9267:9273   */\n      dup2\n        /* \"#utility.yul\":9264:9294   */\n      gt\n        /* \"#utility.yul\":9261:9378   */\n      iszero\n      tag_894\n      jumpi\n        /* \"#utility.yul\":9297:9376   */\n      tag_895\n      tag_724\n      jump\t// in\n    tag_895:\n        /* \"#utility.yul\":9261:9378   */\n    tag_894:\n        /* \"#utility.yul\":9402:9465   */\n      tag_896\n        /* \"#utility.yul\":9457:9464   */\n      dup5\n        /* \"#utility.yul\":9448:9454   */\n      dup3\n        /* \"#utility.yul\":9437:9446   */\n      dup6\n        /* \"#utility.yul\":9433:9455   */\n      add\n        /* \"#utility.yul\":9402:9465   */\n      tag_749\n      jump\t// in\n    tag_896:\n        /* \"#utility.yul\":9392:9465   */\n      swap2\n      pop\n        /* \"#utility.yul\":9188:9475   */\n      pop\n        /* \"#utility.yul\":8973:9482   */\n      swap3\n      swap2\n      pop\n      pop\n      jump\t// out\n        /* \"#utility.yul\":9488:9817   */\n    tag_85:\n        /* \"#utility.yul\":9547:9553   */\n      0x00\n        /* \"#utility.yul\":9596:9598   */\n      0x20\n        /* \"#utility.yul\":9584:9593   */\n      dup3\n        /* \"#utility.yul\":9575:9582   */\n      dup5\n        /* \"#utility.yul\":9571:9594   */\n      sub\n        /* \"#utility.yul\":9567:9599   */\n      slt\n        /* \"#utility.yul\":9564:9683   */\n      iszero\n      tag_898\n      jumpi\n        /* \"#utility.yul\":9602:9681   */\n      tag_899\n      tag_723\n      jump\t// in\n    tag_899:\n        /* \"#utility.yul\":9564:9683   */\n    tag_898:\n        /* \"#utility.yul\":9722:9723   */\n      0x00\n        /* \"#utility.yul\":9747:9800   */\n      tag_900\n        /* \"#utility.yul\":9792:9799   */\n      dup5\n        /* \"#utility.yul\":9783:9789   */\n      dup3\n        /* \"#utility.yul\":9772:9781   */\n      dup6\n        /* \"#utility.yul\":9768:9790   */\n      add\n        /* \"#utility.yul\":9747:9800   */\n      tag_739\n      jump\t// in\n    tag_900:\n        /* \"#utility.yul\":9737:9800   */\n      swap2\n      pop\n        /* \"#utility.yul\":9693:9810   */\n      pop\n        /* \"#utility.yul\":9488:9817   */\n      swap3\n      swap2\n      pop\n      pop\n      jump\t// out\n        /* \"#utility.yul\":9823:9913   */\n    tag_750:\n        /* \"#utility.yul\":9857:9864   */\n      0x00\n        /* \"#utility.yul\":9900:9905   */\n      dup2\n        /* \"#utility.yul\":9893:9906   */\n      iszero\n        /* \"#utility.yul\":9886:9907   */\n      iszero\n        /* \"#utility.yul\":9875:9907   */\n      swap1\n      pop\n        /* \"#utility.yul\":9823:9913   */\n      swap2\n      swap1\n      pop\n      jump\t// out\n        /* \"#utility.yul\":9919:10028   */\n    tag_751:\n        /* \"#utility.yul\":10000:10021   */\n      tag_903\n        /* \"#utility.yul\":10015:10020   */\n      dup2\n        /* \"#utility.yul\":10000:10021   */\n      tag_750\n      jump\t// in\n    tag_903:\n        /* \"#utility.yul\":9995:9998   */\n      dup3\n        /* \"#utility.yul\":9988:10022   */\n      mstore\n        /* \"#utility.yul\":9919:10028   */\n      pop\n      pop\n      jump\t// out\n        /* \"#utility.yul\":10034:10244   */\n    tag_93:\n        /* \"#utility.yul\":10121:10125   */\n      0x00\n        /* \"#utility.yul\":10159:10161   */\n      0x20\n        /* \"#utility.yul\":10148:10157   */\n      dup3\n        /* \"#utility.yul\":10144:10162   */\n      add\n        /* \"#utility.yul\":10136:10162   */\n      swap1\n      pop\n        /* \"#utility.yul\":10172:10237   */\n      tag_905\n        /* \"#utility.yul\":10234:10235   */\n      0x00\n        /* \"#utility.yul\":10223:10232   */\n      dup4\n        /* \"#utility.yul\":10219:10236   */\n      add\n        /* \"#utility.yul\":10210:10216   */\n      dup5\n        /* \"#utility.yul\":10172:10237   */\n      tag_751\n      jump\t// in\n    tag_905:\n        /* \"#utility.yul\":10034:10244   */\n      swap3\n      swap2\n      pop\n      pop\n      jump\t// out\n        /* \"#utility.yul\":10250:11555   */\n    tag_96:\n        /* \"#utility.yul\":10366:10372   */\n      0x00\n        /* \"#utility.yul\":10374:10380   */\n      dup1\n        /* \"#utility.yul\":10382:10388   */\n      0x00\n        /* \"#utility.yul\":10390:10396   */\n      dup1\n        /* \"#utility.yul\":10439:10442   */\n      0x80\n        /* \"#utility.yul\":10427:10436   */\n      dup6\n        /* \"#utility.yul\":10418:10425   */\n      dup8\n        /* \"#utility.yul\":10414:10437   */\n      sub\n        /* \"#utility.yul\":10410:10443   */\n      slt\n        /* \"#utility.yul\":10407:10527   */\n      iszero\n      tag_907\n      jumpi\n        /* \"#utility.yul\":10446:10525   */\n      tag_908\n      tag_723\n      jump\t// in\n    tag_908:\n        /* \"#utility.yul\":10407:10527   */\n    tag_907:\n        /* \"#utility.yul\":10566:10567   */\n      0x00\n        /* \"#utility.yul\":10591:10644   */\n      tag_909\n        /* \"#utility.yul\":10636:10643   */\n      dup8\n        /* \"#utility.yul\":10627:10633   */\n      dup3\n        /* \"#utility.yul\":10616:10625   */\n      dup9\n        /* \"#utility.yul\":10612:10634   */\n      add\n        /* \"#utility.yul\":10591:10644   */\n      tag_739\n      jump\t// in\n    tag_909:\n        /* \"#utility.yul\":10581:10644   */\n      swap5\n      pop\n        /* \"#utility.yul\":10537:10654   */\n      pop\n        /* \"#utility.yul\":10721:10723   */\n      0x20\n        /* \"#utility.yul\":10710:10719   */\n      dup6\n        /* \"#utility.yul\":10706:10724   */\n      add\n        /* \"#utility.yul\":10693:10725   */\n      calldataload\n        /* \"#utility.yul\":10752:10770   */\n      0xffffffffffffffff\n        /* \"#utility.yul\":10744:10750   */\n      dup2\n        /* \"#utility.yul\":10741:10771   */\n      gt\n        /* \"#utility.yul\":10738:10855   */\n      iszero\n      tag_910\n      jumpi\n        /* \"#utility.yul\":10774:10853   */\n      tag_911\n      tag_724\n      jump\t// in\n    tag_911:\n        /* \"#utility.yul\":10738:10855   */\n    tag_910:\n        /* \"#utility.yul\":10879:10942   */\n      tag_912\n        /* \"#utility.yul\":10934:10941   */\n      dup8\n        /* \"#utility.yul\":10925:10931   */\n      dup3\n        /* \"#utility.yul\":10914:10923   */\n      dup9\n        /* \"#utility.yul\":10910:10932   */\n      add\n        /* \"#utility.yul\":10879:10942   */\n      tag_749\n      jump\t// in\n    tag_912:\n        /* \"#utility.yul\":10869:10942   */\n      swap4\n      pop\n        /* \"#utility.yul\":10664:10952   */\n      pop\n        /* \"#utility.yul\":11019:11021   */\n      0x40\n        /* \"#utility.yul\":11008:11017   */\n      dup6\n        /* \"#utility.yul\":11004:11022   */\n      add\n        /* \"#utility.yul\":10991:11023   */\n      calldataload\n        /* \"#utility.yul\":11050:11068   */\n      0xffffffffffffffff\n        /* \"#utility.yul\":11042:11048   */\n      dup2\n        /* \"#utility.yul\":11039:11069   */\n      gt\n        /* \"#utility.yul\":11036:11153   */\n      iszero\n      tag_913\n      jumpi\n        /* \"#utility.yul\":11072:11151   */\n      tag_914\n      tag_724\n      jump\t// in\n    tag_914:\n        /* \"#utility.yul\":11036:11153   */\n    tag_913:\n        /* \"#utility.yul\":11177:11240   */\n      tag_915\n        /* \"#utility.yul\":11232:11239   */\n      dup8\n        /* \"#utility.yul\":11223:11229   */\n      dup3\n        /* \"#utility.yul\":11212:11221   */\n      dup9\n        /* \"#utility.yul\":11208:11230   */\n      add\n        /* \"#utility.yul\":11177:11240   */\n      tag_749\n      jump\t// in\n    tag_915:\n        /* \"#utility.yul\":11167:11240   */\n      swap3\n      pop\n        /* \"#utility.yul\":10962:11250   */\n      pop\n        /* \"#utility.yul\":11317:11319   */\n      0x60\n        /* \"#utility.yul\":11306:11315   */\n      dup6\n        /* \"#utility.yul\":11302:11320   */\n      add\n        /* \"#utility.yul\":11289:11321   */\n      calldataload\n        /* \"#utility.yul\":11348:11366   */\n      0xffffffffffffffff\n        /* \"#utility.yul\":11340:11346   */\n      dup2\n        /* \"#utility.yul\":11337:11367   */\n      gt\n        /* \"#utility.yul\":11334:11451   */\n      iszero\n      tag_916\n      jumpi\n        /* \"#utility.yul\":11370:11449   */\n      tag_917\n      tag_724\n      jump\t// in\n    tag_917:\n        /* \"#utility.yul\":11334:11451   */\n    tag_916:\n        /* \"#utility.yul\":11475:11538   */\n      tag_918\n        /* \"#utility.yul\":11530:11537   */\n      dup8\n        /* \"#utility.yul\":11521:11527   */\n      dup3\n        /* \"#utility.yul\":11510:11519   */\n      dup9\n        /* \"#utility.yul\":11506:11528   */\n      add\n        /* \"#utility.yul\":11475:11538   */\n      tag_749\n      jump\t// in\n    tag_918:\n        /* \"#utility.yul\":11465:11538   */\n      swap2\n      pop\n        /* \"#utility.yul\":11260:11548   */\n      pop\n        /* \"#utility.yul\":10250:11555   */\n      swap3\n      swap6\n      swap2\n      swap5\n      pop\n      swap3\n      pop\n      jump\t// out\n        /* \"#utility.yul\":11561:12035   */\n    tag_101:\n        /* \"#utility.yul\":11629:11635   */\n      0x00\n        /* \"#utility.yul\":11637:11643   */\n      dup1\n        /* \"#utility.yul\":11686:11688   */\n      0x40\n        /* \"#utility.yul\":11674:11683   */\n      dup4\n        /* \"#utility.yul\":11665:11672   */\n      dup6\n        /* \"#utility.yul\":11661:11684   */\n      sub\n        /* \"#utility.yul\":11657:11689   */\n      slt\n        /* \"#utility.yul\":11654:11773   */\n      iszero\n      tag_920\n      jumpi\n        /* \"#utility.yul\":11692:11771   */\n      tag_921\n      tag_723\n      jump\t// in\n    tag_921:\n        /* \"#utility.yul\":11654:11773   */\n    tag_920:\n        /* \"#utility.yul\":11812:11813   */\n      0x00\n        /* \"#utility.yul\":11837:11890   */\n      tag_922\n        /* \"#utility.yul\":11882:11889   */\n      dup6\n        /* \"#utility.yul\":11873:11879   */\n      dup3\n        /* \"#utility.yul\":11862:11871   */\n      dup7\n        /* \"#utility.yul\":11858:11880   */\n      add\n        /* \"#utility.yul\":11837:11890   */\n      tag_727\n      jump\t// in\n    tag_922:\n        /* \"#utility.yul\":11827:11890   */\n      swap3\n      pop\n        /* \"#utility.yul\":11783:11900   */\n      pop\n        /* \"#utility.yul\":11939:11941   */\n      0x20\n        /* \"#utility.yul\":11965:12018   */\n      tag_923\n        /* \"#utility.yul\":12010:12017   */\n      dup6\n        /* \"#utility.yul\":12001:12007   */\n      dup3\n        /* \"#utility.yul\":11990:11999   */\n      dup7\n        /* \"#utility.yul\":11986:12008   */\n      add\n        /* \"#utility.yul\":11965:12018   */\n      tag_727\n      jump\t// in\n    tag_923:\n        /* \"#utility.yul\":11955:12018   */\n      swap2\n      pop\n        /* \"#utility.yul\":11910:12028   */\n      pop\n        /* \"#utility.yul\":11561:12035   */\n      swap3\n      pop\n      swap3\n      swap1\n      pop\n      jump\t// out\n        /* \"#utility.yul\":12041:12159   */\n    tag_752:\n        /* \"#utility.yul\":12128:12152   */\n      tag_925\n        /* \"#utility.yul\":12146:12151   */\n      dup2\n        /* \"#utility.yul\":12128:12152   */\n      tag_737\n      jump\t// in\n    tag_925:\n        /* \"#utility.yul\":12123:12126   */\n      dup3\n        /* \"#utility.yul\":12116:12153   */\n      mstore\n        /* \"#utility.yul\":12041:12159   */\n      pop\n      pop\n      jump\t// out\n        /* \"#utility.yul\":12165:12264   */\n    tag_753:\n        /* \"#utility.yul\":12217:12223   */\n      0x00\n        /* \"#utility.yul\":12251:12256   */\n      dup2\n        /* \"#utility.yul\":12245:12257   */\n      mload\n        /* \"#utility.yul\":12235:12257   */\n      swap1\n      pop\n        /* \"#utility.yul\":12165:12264   */\n      swap2\n      swap1\n      pop\n      jump\t// out\n        /* \"#utility.yul\":12270:12439   */\n    tag_754:\n        /* \"#utility.yul\":12354:12365   */\n      0x00\n        /* \"#utility.yul\":12388:12394   */\n      dup3\n        /* \"#utility.yul\":12383:12386   */\n      dup3\n        /* \"#utility.yul\":12376:12395   */\n      mstore\n        /* \"#utility.yul\":12428:12432   */\n      0x20\n        /* \"#utility.yul\":12423:12426   */\n      dup3\n        /* \"#utility.yul\":12419:12433   */\n      add\n        /* \"#utility.yul\":12404:12433   */\n      swap1\n      pop\n        /* \"#utility.yul\":12270:12439   */\n      swap3\n      swap2\n      pop\n      pop\n      jump\t// out\n        /* \"#utility.yul\":12445:12691   */\n    tag_755:\n        /* \"#utility.yul\":12526:12527   */\n      0x00\n        /* \"#utility.yul\":12536:12649   */\n    tag_929:\n        /* \"#utility.yul\":12550:12556   */\n      dup4\n        /* \"#utility.yul\":12547:12548   */\n      dup2\n        /* \"#utility.yul\":12544:12557   */\n      lt\n        /* \"#utility.yul\":12536:12649   */\n      iszero\n      tag_931\n      jumpi\n        /* \"#utility.yul\":12635:12636   */\n      dup1\n        /* \"#utility.yul\":12630:12633   */\n      dup3\n        /* \"#utility.yul\":12626:12637   */\n      add\n        /* \"#utility.yul\":12620:12638   */\n      mload\n        /* \"#utility.yul\":12616:12617   */\n      dup2\n        /* \"#utility.yul\":12611:12614   */\n      dup5\n        /* \"#utility.yul\":12607:12618   */\n      add\n        /* \"#utility.yul\":12600:12639   */\n      mstore\n        /* \"#utility.yul\":12572:12574   */\n      0x20\n        /* \"#utility.yul\":12569:12570   */\n      dup2\n        /* \"#utility.yul\":12565:12575   */\n      add\n        /* \"#utility.yul\":12560:12575   */\n      swap1\n      pop\n        /* \"#utility.yul\":12536:12649   */\n      jump(tag_929)\n    tag_931:\n        /* \"#utility.yul\":12683:12684   */\n      0x00\n        /* \"#utility.yul\":12674:12680   */\n      dup5\n        /* \"#utility.yul\":12669:12672   */\n      dup5\n        /* \"#utility.yul\":12665:12681   */\n      add\n        /* \"#utility.yul\":12658:12685   */\n      mstore\n        /* \"#utility.yul\":12507:12691   */\n      pop\n        /* \"#utility.yul\":12445:12691   */\n      pop\n      pop\n      pop\n      jump\t// out\n        /* \"#utility.yul\":12697:13074   */\n    tag_756:\n        /* \"#utility.yul\":12785:12788   */\n      0x00\n        /* \"#utility.yul\":12813:12852   */\n      tag_933\n        /* \"#utility.yul\":12846:12851   */\n      dup3\n        /* \"#utility.yul\":12813:12852   */\n      tag_753\n      jump\t// in\n    tag_933:\n        /* \"#utility.yul\":12868:12939   */\n      tag_934\n        /* \"#utility.yul\":12932:12938   */\n      dup2\n        /* \"#utility.yul\":12927:12930   */\n      dup6\n        /* \"#utility.yul\":12868:12939   */\n      tag_754\n      jump\t// in\n    tag_934:\n        /* \"#utility.yul\":12861:12939   */\n      swap4\n      pop\n        /* \"#utility.yul\":12948:13013   */\n      tag_935\n        /* \"#utility.yul\":13006:13012   */\n      dup2\n        /* \"#utility.yul\":13001:13004   */\n      dup6\n        /* \"#utility.yul\":12994:12998   */\n      0x20\n        /* \"#utility.yul\":12987:12992   */\n      dup7\n        /* \"#utility.yul\":12983:12999   */\n      add\n        /* \"#utility.yul\":12948:13013   */\n      tag_755\n      jump\t// in\n    tag_935:\n        /* \"#utility.yul\":13038:13067   */\n      tag_936\n        /* \"#utility.yul\":13060:13066   */\n      dup2\n        /* \"#utility.yul\":13038:13067   */\n      tag_730\n      jump\t// in\n    tag_936:\n        /* \"#utility.yul\":13033:13036   */\n      dup5\n        /* \"#utility.yul\":13029:13068   */\n      add\n        /* \"#utility.yul\":13022:13068   */\n      swap2\n      pop\n        /* \"#utility.yul\":12789:13074   */\n      pop\n        /* \"#utility.yul\":12697:13074   */\n      swap3\n      swap2\n      pop\n      pop\n      jump\t// out\n        /* \"#utility.yul\":13080:14441   */\n    tag_104:\n        /* \"#utility.yul\":13449:13453   */\n      0x00\n        /* \"#utility.yul\":13487:13490   */\n      0x0100\n        /* \"#utility.yul\":13476:13485   */\n      dup3\n        /* \"#utility.yul\":13472:13491   */\n      add\n        /* \"#utility.yul\":13464:13491   */\n      swap1\n      pop\n        /* \"#utility.yul\":13501:13572   */\n      tag_938\n        /* \"#utility.yul\":13569:13570   */\n      0x00\n        /* \"#utility.yul\":13558:13567   */\n      dup4\n        /* \"#utility.yul\":13554:13571   */\n      add\n        /* \"#utility.yul\":13545:13551   */\n      dup12\n        /* \"#utility.yul\":13501:13572   */\n      tag_728\n      jump\t// in\n    tag_938:\n        /* \"#utility.yul\":13582:13654   */\n      tag_939\n        /* \"#utility.yul\":13650:13652   */\n      0x20\n        /* \"#utility.yul\":13639:13648   */\n      dup4\n        /* \"#utility.yul\":13635:13653   */\n      add\n        /* \"#utility.yul\":13626:13632   */\n      dup11\n        /* \"#utility.yul\":13582:13654   */\n      tag_752\n      jump\t// in\n    tag_939:\n        /* \"#utility.yul\":13701:13710   */\n      dup2\n        /* \"#utility.yul\":13695:13699   */\n      dup2\n        /* \"#utility.yul\":13691:13711   */\n      sub\n        /* \"#utility.yul\":13686:13688   */\n      0x40\n        /* \"#utility.yul\":13675:13684   */\n      dup4\n        /* \"#utility.yul\":13671:13689   */\n      add\n        /* \"#utility.yul\":13664:13712   */\n      mstore\n        /* \"#utility.yul\":13729:13807   */\n      tag_940\n        /* \"#utility.yul\":13802:13806   */\n      dup2\n        /* \"#utility.yul\":13793:13799   */\n      dup10\n        /* \"#utility.yul\":13729:13807   */\n      tag_756\n      jump\t// in\n    tag_940:\n        /* \"#utility.yul\":13721:13807   */\n      swap1\n      pop\n        /* \"#utility.yul\":13854:13863   */\n      dup2\n        /* \"#utility.yul\":13848:13852   */\n      dup2\n        /* \"#utility.yul\":13844:13864   */\n      sub\n        /* \"#utility.yul\":13839:13841   */\n      0x60\n        /* \"#utility.yul\":13828:13837   */\n      dup4\n        /* \"#utility.yul\":13824:13842   */\n      add\n        /* \"#utility.yul\":13817:13865   */\n      mstore\n        /* \"#utility.yul\":13882:13960   */\n      tag_941\n        /* \"#utility.yul\":13955:13959   */\n      dup2\n        /* \"#utility.yul\":13946:13952   */\n      dup9\n        /* \"#utility.yul\":13882:13960   */\n      tag_756\n      jump\t// in\n    tag_941:\n        /* \"#utility.yul\":13874:13960   */\n      swap1\n      pop\n        /* \"#utility.yul\":14008:14017   */\n      dup2\n        /* \"#utility.yul\":14002:14006   */\n      dup2\n        /* \"#utility.yul\":13998:14018   */\n      sub\n        /* \"#utility.yul\":13992:13995   */\n      0x80\n        /* \"#utility.yul\":13981:13990   */\n      dup4\n        /* \"#utility.yul\":13977:13996   */\n      add\n        /* \"#utility.yul\":13970:14019   */\n      mstore\n        /* \"#utility.yul\":14036:14114   */\n      tag_942\n        /* \"#utility.yul\":14109:14113   */\n      dup2\n        /* \"#utility.yul\":14100:14106   */\n      dup8\n        /* \"#utility.yul\":14036:14114   */\n      tag_756\n      jump\t// in\n    tag_942:\n        /* \"#utility.yul\":14028:14114   */\n      swap1\n      pop\n        /* \"#utility.yul\":14124:14197   */\n      tag_943\n        /* \"#utility.yul\":14192:14195   */\n      0xa0\n        /* \"#utility.yul\":14181:14190   */\n      dup4\n        /* \"#utility.yul\":14177:14196   */\n      add\n        /* \"#utility.yul\":14168:14174   */\n      dup7\n        /* \"#utility.yul\":14124:14197   */\n      tag_728\n      jump\t// in\n    tag_943:\n        /* \"#utility.yul\":14207:14280   */\n      tag_944\n        /* \"#utility.yul\":14275:14278   */\n      0xc0\n        /* \"#utility.yul\":14264:14273   */\n      dup4\n        /* \"#utility.yul\":14260:14279   */\n      add\n        /* \"#utility.yul\":14251:14257   */\n      dup6\n        /* \"#utility.yul\":14207:14280   */\n      tag_728\n      jump\t// in\n    tag_944:\n        /* \"#utility.yul\":14328:14337   */\n      dup2\n        /* \"#utility.yul\":14322:14326   */\n      dup2\n        /* \"#utility.yul\":14318:14338   */\n      sub\n        /* \"#utility.yul\":14312:14315   */\n      0xe0\n        /* \"#utility.yul\":14301:14310   */\n      dup4\n        /* \"#utility.yul\":14297:14316   */\n      add\n        /* \"#utility.yul\":14290:14339   */\n      mstore\n        /* \"#utility.yul\":14356:14434   */\n      tag_945\n        /* \"#utility.yul\":14429:14433   */\n      dup2\n        /* \"#utility.yul\":14420:14426   */\n      dup5\n        /* \"#utility.yul\":14356:14434   */\n      tag_756\n      jump\t// in\n    tag_945:\n        /* \"#utility.yul\":14348:14434   */\n      swap1\n      pop\n        /* \"#utility.yul\":13080:14441   */\n      swap10\n      swap9\n      pop\n      pop\n      pop\n      pop\n      pop\n      pop\n      pop\n      pop\n      pop\n      jump\t// out\n        /* \"#utility.yul\":14447:14563   */\n    tag_757:\n        /* \"#utility.yul\":14517:14538   */\n      tag_947\n        /* \"#utility.yul\":14532:14537   */\n      dup2\n        /* \"#utility.yul\":14517:14538   */\n      tag_750\n      jump\t// in\n    tag_947:\n        /* \"#utility.yul\":14510:14515   */\n      dup2\n        /* \"#utility.yul\":14507:14539   */\n      eq\n        /* \"#utility.yul\":14497:14557   */\n      tag_948\n      jumpi\n        /* \"#utility.yul\":14553:14554   */\n      0x00\n        /* \"#utility.yul\":14550:14551   */\n      dup1\n        /* \"#utility.yul\":14543:14555   */\n      revert\n        /* \"#utility.yul\":14497:14557   */\n    tag_948:\n        /* \"#utility.yul\":14447:14563   */\n      pop\n      jump\t// out\n        /* \"#utility.yul\":14569:14702   */\n    tag_758:\n        /* \"#utility.yul\":14612:14617   */\n      0x00\n        /* \"#utility.yul\":14650:14656   */\n      dup2\n        /* \"#utility.yul\":14637:14657   */\n      calldataload\n        /* \"#utility.yul\":14628:14657   */\n      swap1\n      pop\n        /* \"#utility.yul\":14666:14696   */\n      tag_950\n        /* \"#utility.yul\":14690:14695   */\n      dup2\n        /* \"#utility.yul\":14666:14696   */\n      tag_757\n      jump\t// in\n    tag_950:\n        /* \"#utility.yul\":14569:14702   */\n      swap3\n      swap2\n      pop\n      pop\n      jump\t// out\n        /* \"#utility.yul\":14708:15467   */\n    tag_107:\n        /* \"#utility.yul\":14791:14797   */\n      0x00\n        /* \"#utility.yul\":14799:14805   */\n      dup1\n        /* \"#utility.yul\":14807:14813   */\n      0x00\n        /* \"#utility.yul\":14815:14821   */\n      dup1\n        /* \"#utility.yul\":14864:14867   */\n      0x80\n        /* \"#utility.yul\":14852:14861   */\n      dup6\n        /* \"#utility.yul\":14843:14850   */\n      dup8\n        /* \"#utility.yul\":14839:14862   */\n      sub\n        /* \"#utility.yul\":14835:14868   */\n      slt\n        /* \"#utility.yul\":14832:14952   */\n      iszero\n      tag_952\n      jumpi\n        /* \"#utility.yul\":14871:14950   */\n      tag_953\n      tag_723\n      jump\t// in\n    tag_953:\n        /* \"#utility.yul\":14832:14952   */\n    tag_952:\n        /* \"#utility.yul\":14991:14992   */\n      0x00\n        /* \"#utility.yul\":15016:15069   */\n      tag_954\n        /* \"#utility.yul\":15061:15068   */\n      dup8\n        /* \"#utility.yul\":15052:15058   */\n      dup3\n        /* \"#utility.yul\":15041:15050   */\n      dup9\n        /* \"#utility.yul\":15037:15059   */\n      add\n        /* \"#utility.yul\":15016:15069   */\n      tag_739\n      jump\t// in\n    tag_954:\n        /* \"#utility.yul\":15006:15069   */\n      swap5\n      pop\n        /* \"#utility.yul\":14962:15079   */\n      pop\n        /* \"#utility.yul\":15118:15120   */\n      0x20\n        /* \"#utility.yul\":15144:15197   */\n      tag_955\n        /* \"#utility.yul\":15189:15196   */\n      dup8\n        /* \"#utility.yul\":15180:15186   */\n      dup3\n        /* \"#utility.yul\":15169:15178   */\n      dup9\n        /* \"#utility.yul\":15165:15187   */\n      add\n        /* \"#utility.yul\":15144:15197   */\n      tag_727\n      jump\t// in\n    tag_955:\n        /* \"#utility.yul\":15134:15197   */\n      swap4\n      pop\n        /* \"#utility.yul\":15089:15207   */\n      pop\n        /* \"#utility.yul\":15246:15248   */\n      0x40\n        /* \"#utility.yul\":15272:15325   */\n      tag_956\n        /* \"#utility.yul\":15317:15324   */\n      dup8\n        /* \"#utility.yul\":15308:15314   */\n      dup3\n        /* \"#utility.yul\":15297:15306   */\n      dup9\n        /* \"#utility.yul\":15293:15315   */\n      add\n        /* \"#utility.yul\":15272:15325   */\n      tag_727\n      jump\t// in\n    tag_956:\n        /* \"#utility.yul\":15262:15325   */\n      swap3\n      pop\n        /* \"#utility.yul\":15217:15335   */\n      pop\n        /* \"#utility.yul\":15374:15376   */\n      0x60\n        /* \"#utility.yul\":15400:15450   */\n      tag_957\n        /* \"#utility.yul\":15442:15449   */\n      dup8\n        /* \"#utility.yul\":15433:15439   */\n      dup3\n        /* \"#utility.yul\":15422:15431   */\n      dup9\n        /* \"#utility.yul\":15418:15440   */\n      add\n        /* \"#utility.yul\":15400:15450   */\n      tag_758\n      jump\t// in\n    tag_957:\n        /* \"#utility.yul\":15390:15450   */\n      swap2\n      pop\n        /* \"#utility.yul\":15345:15460   */\n      pop\n        /* \"#utility.yul\":14708:15467   */\n      swap3\n      swap6\n      swap2\n      swap5\n      pop\n      swap3\n      pop\n      jump\t// out\n        /* \"#utility.yul\":15473:15695   */\n    tag_118:\n        /* \"#utility.yul\":15566:15570   */\n      0x00\n        /* \"#utility.yul\":15604:15606   */\n      0x20\n        /* \"#utility.yul\":15593:15602   */\n      dup3\n        /* \"#utility.yul\":15589:15607   */\n      add\n        /* \"#utility.yul\":15581:15607   */\n      swap1\n      pop\n        /* \"#utility.yul\":15617:15688   */\n      tag_959\n        /* \"#utility.yul\":15685:15686   */\n      0x00\n        /* \"#utility.yul\":15674:15683   */\n      dup4\n        /* \"#utility.yul\":15670:15687   */\n      add\n        /* \"#utility.yul\":15661:15667   */\n      dup5\n        /* \"#utility.yul\":15617:15688   */\n      tag_752\n      jump\t// in\n    tag_959:\n        /* \"#utility.yul\":15473:15695   */\n      swap3\n      swap2\n      pop\n      pop\n      jump\t// out\n        /* \"#utility.yul\":15701:16749   */\n    tag_124:\n        /* \"#utility.yul\":15994:15998   */\n      0x00\n        /* \"#utility.yul\":16032:16035   */\n      0xc0\n        /* \"#utility.yul\":16021:16030   */\n      dup3\n        /* \"#utility.yul\":16017:16036   */\n      add\n        /* \"#utility.yul\":16009:16036   */\n      swap1\n      pop\n        /* \"#utility.yul\":16046:16117   */\n      tag_961\n        /* \"#utility.yul\":16114:16115   */\n      0x00\n        /* \"#utility.yul\":16103:16112   */\n      dup4\n        /* \"#utility.yul\":16099:16116   */\n      add\n        /* \"#utility.yul\":16090:16096   */\n      dup10\n        /* \"#utility.yul\":16046:16117   */\n      tag_728\n      jump\t// in\n    tag_961:\n        /* \"#utility.yul\":16164:16173   */\n      dup2\n        /* \"#utility.yul\":16158:16162   */\n      dup2\n        /* \"#utility.yul\":16154:16174   */\n      sub\n        /* \"#utility.yul\":16149:16151   */\n      0x20\n        /* \"#utility.yul\":16138:16147   */\n      dup4\n        /* \"#utility.yul\":16134:16152   */\n      add\n        /* \"#utility.yul\":16127:16175   */\n      mstore\n        /* \"#utility.yul\":16192:16270   */\n      tag_962\n        /* \"#utility.yul\":16265:16269   */\n      dup2\n        /* \"#utility.yul\":16256:16262   */\n      dup9\n        /* \"#utility.yul\":16192:16270   */\n      tag_756\n      jump\t// in\n    tag_962:\n        /* \"#utility.yul\":16184:16270   */\n      swap1\n      pop\n        /* \"#utility.yul\":16317:16326   */\n      dup2\n        /* \"#utility.yul\":16311:16315   */\n      dup2\n        /* \"#utility.yul\":16307:16327   */\n      sub\n        /* \"#utility.yul\":16302:16304   */\n      0x40\n        /* \"#utility.yul\":16291:16300   */\n      dup4\n        /* \"#utility.yul\":16287:16305   */\n      add\n        /* \"#utility.yul\":16280:16328   */\n      mstore\n        /* \"#utility.yul\":16345:16423   */\n      tag_963\n        /* \"#utility.yul\":16418:16422   */\n      dup2\n        /* \"#utility.yul\":16409:16415   */\n      dup8\n        /* \"#utility.yul\":16345:16423   */\n      tag_756\n      jump\t// in\n    tag_963:\n        /* \"#utility.yul\":16337:16423   */\n      swap1\n      pop\n        /* \"#utility.yul\":16470:16479   */\n      dup2\n        /* \"#utility.yul\":16464:16468   */\n      dup2\n        /* \"#utility.yul\":16460:16480   */\n      sub\n        /* \"#utility.yul\":16455:16457   */\n      0x60\n        /* \"#utility.yul\":16444:16453   */\n      dup4\n        /* \"#utility.yul\":16440:16458   */\n      add\n        /* \"#utility.yul\":16433:16481   */\n      mstore\n        /* \"#utility.yul\":16498:16576   */\n      tag_964\n        /* \"#utility.yul\":16571:16575   */\n      dup2\n        /* \"#utility.yul\":16562:16568   */\n      dup7\n        /* \"#utility.yul\":16498:16576   */\n      tag_756\n      jump\t// in\n    tag_964:\n        /* \"#utility.yul\":16490:16576   */\n      swap1\n      pop\n        /* \"#utility.yul\":16586:16659   */\n      tag_965\n        /* \"#utility.yul\":16654:16657   */\n      0x80\n        /* \"#utility.yul\":16643:16652   */\n      dup4\n        /* \"#utility.yul\":16639:16658   */\n      add\n        /* \"#utility.yul\":16630:16636   */\n      dup6\n        /* \"#utility.yul\":16586:16659   */\n      tag_728\n      jump\t// in\n    tag_965:\n        /* \"#utility.yul\":16669:16742   */\n      tag_966\n        /* \"#utility.yul\":16737:16740   */\n      0xa0\n        /* \"#utility.yul\":16726:16735   */\n      dup4\n        /* \"#utility.yul\":16722:16741   */\n      add\n        /* \"#utility.yul\":16713:16719   */\n      dup5\n        /* \"#utility.yul\":16669:16742   */\n      tag_728\n      jump\t// in\n    tag_966:\n        /* \"#utility.yul\":15701:16749   */\n      swap8\n      swap7\n      pop\n      pop\n      pop\n      pop\n      pop\n      pop\n      pop\n      jump\t// out\n        /* \"#utility.yul\":16755:17229   */\n    tag_127:\n        /* \"#utility.yul\":16823:16829   */\n      0x00\n        /* \"#utility.yul\":16831:16837   */\n      dup1\n        /* \"#utility.yul\":16880:16882   */\n      0x40\n        /* \"#utility.yul\":16868:16877   */\n      dup4\n        /* \"#utility.yul\":16859:16866   */\n      dup6\n        /* \"#utility.yul\":16855:16878   */\n      sub\n        /* \"#utility.yul\":16851:16883   */\n      slt\n        /* \"#utility.yul\":16848:16967   */\n      iszero\n      tag_968\n      jumpi\n        /* \"#utility.yul\":16886:16965   */\n      tag_969\n      tag_723\n      jump\t// in\n    tag_969:\n        /* \"#utility.yul\":16848:16967   */\n    tag_968:\n        /* \"#utility.yul\":17006:17007   */\n      0x00\n        /* \"#utility.yul\":17031:17084   */\n      tag_970\n        /* \"#utility.yul\":17076:17083   */\n      dup6\n        /* \"#utility.yul\":17067:17073   */\n      dup3\n        /* \"#utility.yul\":17056:17065   */\n      dup7\n        /* \"#utility.yul\":17052:17074   */\n      add\n        /* \"#utility.yul\":17031:17084   */\n      tag_739\n      jump\t// in\n    tag_970:\n        /* \"#utility.yul\":17021:17084   */\n      swap3\n      pop\n        /* \"#utility.yul\":16977:17094   */\n      pop\n        /* \"#utility.yul\":17133:17135   */\n      0x20\n        /* \"#utility.yul\":17159:17212   */\n      tag_971\n        /* \"#utility.yul\":17204:17211   */\n      dup6\n        /* \"#utility.yul\":17195:17201   */\n      dup3\n        /* \"#utility.yul\":17184:17193   */\n      dup7\n        /* \"#utility.yul\":17180:17202   */\n      add\n        /* \"#utility.yul\":17159:17212   */\n      tag_727\n      jump\t// in\n    tag_971:\n        /* \"#utility.yul\":17149:17212   */\n      swap2\n      pop\n        /* \"#utility.yul\":17104:17222   */\n      pop\n        /* \"#utility.yul\":16755:17229   */\n      swap3\n      pop\n      swap3\n      swap1\n      pop\n      jump\t// out\n        /* \"#utility.yul\":17235:17339   */\n    tag_759:\n        /* \"#utility.yul\":17280:17287   */\n      0x00\n        /* \"#utility.yul\":17309:17333   */\n      tag_973\n        /* \"#utility.yul\":17327:17332   */\n      dup3\n        /* \"#utility.yul\":17309:17333   */\n      tag_736\n      jump\t// in\n    tag_973:\n        /* \"#utility.yul\":17298:17333   */\n      swap1\n      pop\n        /* \"#utility.yul\":17235:17339   */\n      swap2\n      swap1\n      pop\n      jump\t// out\n        /* \"#utility.yul\":17345:17483   */\n    tag_760:\n        /* \"#utility.yul\":17426:17458   */\n      tag_975\n        /* \"#utility.yul\":17452:17457   */\n      dup2\n        /* \"#utility.yul\":17426:17458   */\n      tag_759\n      jump\t// in\n    tag_975:\n        /* \"#utility.yul\":17419:17424   */\n      dup2\n        /* \"#utility.yul\":17416:17459   */\n      eq\n        /* \"#utility.yul\":17406:17477   */\n      tag_976\n      jumpi\n        /* \"#utility.yul\":17473:17474   */\n      0x00\n        /* \"#utility.yul\":17470:17471   */\n      dup1\n        /* \"#utility.yul\":17463:17475   */\n      revert\n        /* \"#utility.yul\":17406:17477   */\n    tag_976:\n        /* \"#utility.yul\":17345:17483   */\n      pop\n      jump\t// out\n        /* \"#utility.yul\":17489:17644   */\n    tag_761:\n        /* \"#utility.yul\":17543:17548   */\n      0x00\n        /* \"#utility.yul\":17581:17587   */\n      dup2\n        /* \"#utility.yul\":17568:17588   */\n      calldataload\n        /* \"#utility.yul\":17559:17588   */\n      swap1\n      pop\n        /* \"#utility.yul\":17597:17638   */\n      tag_978\n        /* \"#utility.yul\":17632:17637   */\n      dup2\n        /* \"#utility.yul\":17597:17638   */\n      tag_760\n      jump\t// in\n    tag_978:\n        /* \"#utility.yul\":17489:17644   */\n      swap3\n      swap2\n      pop\n      pop\n      jump\t// out\n        /* \"#utility.yul\":17650:17995   */\n    tag_140:\n        /* \"#utility.yul\":17717:17723   */\n      0x00\n        /* \"#utility.yul\":17766:17768   */\n      0x20\n        /* \"#utility.yul\":17754:17763   */\n      dup3\n        /* \"#utility.yul\":17745:17752   */\n      dup5\n        /* \"#utility.yul\":17741:17764   */\n      sub\n        /* \"#utility.yul\":17737:17769   */\n      slt\n        /* \"#utility.yul\":17734:17853   */\n      iszero\n      tag_980\n      jumpi\n        /* \"#utility.yul\":17772:17851   */\n      tag_981\n      tag_723\n      jump\t// in\n    tag_981:\n        /* \"#utility.yul\":17734:17853   */\n    tag_980:\n        /* \"#utility.yul\":17892:17893   */\n      0x00\n        /* \"#utility.yul\":17917:17978   */\n      tag_982\n        /* \"#utility.yul\":17970:17977   */\n      dup5\n        /* \"#utility.yul\":17961:17967   */\n      dup3\n        /* \"#utility.yul\":17950:17959   */\n      dup6\n        /* \"#utility.yul\":17946:17968   */\n      add\n        /* \"#utility.yul\":17917:17978   */\n      tag_761\n      jump\t// in\n    tag_982:\n        /* \"#utility.yul\":17907:17978   */\n      swap2\n      pop\n        /* \"#utility.yul\":17863:17988   */\n      pop\n        /* \"#utility.yul\":17650:17995   */\n      swap3\n      swap2\n      pop\n      pop\n      jump\t// out\n        /* \"#utility.yul\":18001:19160   */\n    tag_189:\n        /* \"#utility.yul\":18108:18114   */\n      0x00\n        /* \"#utility.yul\":18116:18122   */\n      dup1\n        /* \"#utility.yul\":18124:18130   */\n      0x00\n        /* \"#utility.yul\":18173:18175   */\n      0x60\n        /* \"#utility.yul\":18161:18170   */\n      dup5\n        /* \"#utility.yul\":18152:18159   */\n      dup7\n        /* \"#utility.yul\":18148:18171   */\n      sub\n        /* \"#utility.yul\":18144:18176   */\n      slt\n        /* \"#utility.yul\":18141:18260   */\n      iszero\n      tag_984\n      jumpi\n        /* \"#utility.yul\":18179:18258   */\n      tag_985\n      tag_723\n      jump\t// in\n    tag_985:\n        /* \"#utility.yul\":18141:18260   */\n    tag_984:\n        /* \"#utility.yul\":18327:18328   */\n      0x00\n        /* \"#utility.yul\":18316:18325   */\n      dup5\n        /* \"#utility.yul\":18312:18329   */\n      add\n        /* \"#utility.yul\":18299:18330   */\n      calldataload\n        /* \"#utility.yul\":18357:18375   */\n      0xffffffffffffffff\n        /* \"#utility.yul\":18349:18355   */\n      dup2\n        /* \"#utility.yul\":18346:18376   */\n      gt\n        /* \"#utility.yul\":18343:18460   */\n      iszero\n      tag_986\n      jumpi\n        /* \"#utility.yul\":18379:18458   */\n      tag_987\n      tag_724\n      jump\t// in\n    tag_987:\n        /* \"#utility.yul\":18343:18460   */\n    tag_986:\n        /* \"#utility.yul\":18484:18547   */\n      tag_988\n        /* \"#utility.yul\":18539:18546   */\n      dup7\n        /* \"#utility.yul\":18530:18536   */\n      dup3\n        /* \"#utility.yul\":18519:18528   */\n      dup8\n        /* \"#utility.yul\":18515:18537   */\n      add\n        /* \"#utility.yul\":18484:18547   */\n      tag_749\n      jump\t// in\n    tag_988:\n        /* \"#utility.yul\":18474:18547   */\n      swap4\n      pop\n        /* \"#utility.yul\":18270:18557   */\n      pop\n        /* \"#utility.yul\":18624:18626   */\n      0x20\n        /* \"#utility.yul\":18613:18622   */\n      dup5\n        /* \"#utility.yul\":18609:18627   */\n      add\n        /* \"#utility.yul\":18596:18628   */\n      calldataload\n        /* \"#utility.yul\":18655:18673   */\n      0xffffffffffffffff\n        /* \"#utility.yul\":18647:18653   */\n      dup2\n        /* \"#utility.yul\":18644:18674   */\n      gt\n        /* \"#utility.yul\":18641:18758   */\n      iszero\n      tag_989\n      jumpi\n        /* \"#utility.yul\":18677:18756   */\n      tag_990\n      tag_724\n      jump\t// in\n    tag_990:\n        /* \"#utility.yul\":18641:18758   */\n    tag_989:\n        /* \"#utility.yul\":18782:18845   */\n      tag_991\n        /* \"#utility.yul\":18837:18844   */\n      dup7\n        /* \"#utility.yul\":18828:18834   */\n      dup3\n        /* \"#utility.yul\":18817:18826   */\n      dup8\n        /* \"#utility.yul\":18813:18835   */\n      add\n        /* \"#utility.yul\":18782:18845   */\n      tag_749\n      jump\t// in\n    tag_991:\n        /* \"#utility.yul\":18772:18845   */\n      swap3\n      pop\n        /* \"#utility.yul\":18567:18855   */\n      pop\n        /* \"#utility.yul\":18922:18924   */\n      0x40\n        /* \"#utility.yul\":18911:18920   */\n      dup5\n        /* \"#utility.yul\":18907:18925   */\n      add\n        /* \"#utility.yul\":18894:18926   */\n      calldataload\n        /* \"#utility.yul\":18953:18971   */\n      0xffffffffffffffff\n        /* \"#utility.yul\":18945:18951   */\n      dup2\n        /* \"#utility.yul\":18942:18972   */\n      gt\n        /* \"#utility.yul\":18939:19056   */\n      iszero\n      tag_992\n      jumpi\n        /* \"#utility.yul\":18975:19054   */\n      tag_993\n      tag_724\n      jump\t// in\n    tag_993:\n        /* \"#utility.yul\":18939:19056   */\n    tag_992:\n        /* \"#utility.yul\":19080:19143   */\n      tag_994\n        /* \"#utility.yul\":19135:19142   */\n      dup7\n        /* \"#utility.yul\":19126:19132   */\n      dup3\n        /* \"#utility.yul\":19115:19124   */\n      dup8\n        /* \"#utility.yul\":19111:19133   */\n      add\n        /* \"#utility.yul\":19080:19143   */\n      tag_749\n      jump\t// in\n    tag_994:\n        /* \"#utility.yul\":19070:19143   */\n      swap2\n      pop\n        /* \"#utility.yul\":18865:19153   */\n      pop\n        /* \"#utility.yul\":18001:19160   */\n      swap3\n      pop\n      swap3\n      pop\n      swap3\n      jump\t// out\n        /* \"#utility.yul\":19166:19346   */\n    tag_224:\n        /* \"#utility.yul\":19214:19291   */\n      0x4e487b7100000000000000000000000000000000000000000000000000000000\n        /* \"#utility.yul\":19211:19212   */\n      0x00\n        /* \"#utility.yul\":19204:19292   */\n      mstore\n        /* \"#utility.yul\":19311:19315   */\n      0x32\n        /* \"#utility.yul\":19308:19309   */\n      0x04\n        /* \"#utility.yul\":19301:19316   */\n      mstore\n        /* \"#utility.yul\":19335:19339   */\n      0x24\n        /* \"#utility.yul\":19332:19333   */\n      0x00\n        /* \"#utility.yul\":19325:19340   */\n      revert\n        /* \"#utility.yul\":19352:19532   */\n    tag_762:\n        /* \"#utility.yul\":19400:19477   */\n      0x4e487b7100000000000000000000000000000000000000000000000000000000\n        /* \"#utility.yul\":19397:19398   */\n      0x00\n        /* \"#utility.yul\":19390:19478   */\n      mstore\n        /* \"#utility.yul\":19497:19501   */\n      0x22\n        /* \"#utility.yul\":19494:19495   */\n      0x04\n        /* \"#utility.yul\":19487:19502   */\n      mstore\n        /* \"#utility.yul\":19521:19525   */\n      0x24\n        /* \"#utility.yul\":19518:19519   */\n      0x00\n        /* \"#utility.yul\":19511:19526   */\n      revert\n        /* \"#utility.yul\":19538:19858   */\n    tag_342:\n        /* \"#utility.yul\":19582:19588   */\n      0x00\n        /* \"#utility.yul\":19619:19620   */\n      0x02\n        /* \"#utility.yul\":19613:19617   */\n      dup3\n        /* \"#utility.yul\":19609:19621   */\n      div\n        /* \"#utility.yul\":19599:19621   */\n      swap1\n      pop\n        /* \"#utility.yul\":19666:19667   */\n      0x01\n        /* \"#utility.yul\":19660:19664   */\n      dup3\n        /* \"#utility.yul\":19656:19668   */\n      and\n        /* \"#utility.yul\":19687:19705   */\n      dup1\n        /* \"#utility.yul\":19677:19758   */\n      tag_998\n      jumpi\n        /* \"#utility.yul\":19743:19747   */\n      0x7f\n        /* \"#utility.yul\":19735:19741   */\n      dup3\n        /* \"#utility.yul\":19731:19748   */\n      and\n        /* \"#utility.yul\":19721:19748   */\n      swap2\n      pop\n        /* \"#utility.yul\":19677:19758   */\n    tag_998:\n        /* \"#utility.yul\":19805:19807   */\n      0x20\n        /* \"#utility.yul\":19797:19803   */\n      dup3\n        /* \"#utility.yul\":19794:19808   */\n      lt\n        /* \"#utility.yul\":19774:19792   */\n      dup2\n        /* \"#utility.yul\":19771:19809   */\n      sub\n        /* \"#utility.yul\":19768:19852   */\n      tag_999\n      jumpi\n        /* \"#utility.yul\":19824:19842   */\n      tag_1000\n      tag_762\n      jump\t// in\n    tag_1000:\n        /* \"#utility.yul\":19768:19852   */\n    tag_999:\n        /* \"#utility.yul\":19589:19858   */\n      pop\n        /* \"#utility.yul\":19538:19858   */\n      swap2\n      swap1\n      pop\n      jump\t// out\n        /* \"#utility.yul\":19864:20013   */\n    tag_763:\n        /* \"#utility.yul\":19913:19919   */\n      0x00\n        /* \"#utility.yul\":19947:19952   */\n      dup2\n        /* \"#utility.yul\":19941:19953   */\n      sload\n        /* \"#utility.yul\":19931:19953   */\n      swap1\n      pop\n        /* \"#utility.yul\":19973:20006   */\n      tag_1002\n        /* \"#utility.yul\":19999:20005   */\n      dup2\n        /* \"#utility.yul\":19973:20006   */\n      tag_342\n      jump\t// in\n    tag_1002:\n        /* \"#utility.yul\":19963:20006   */\n      swap1\n      pop\n        /* \"#utility.yul\":19864:20013   */\n      swap2\n      swap1\n      pop\n      jump\t// out\n        /* \"#utility.yul\":20019:20160   */\n    tag_764:\n        /* \"#utility.yul\":20068:20072   */\n      0x00\n        /* \"#utility.yul\":20091:20094   */\n      dup2\n        /* \"#utility.yul\":20083:20094   */\n      swap1\n      pop\n        /* \"#utility.yul\":20114:20117   */\n      dup2\n        /* \"#utility.yul\":20111:20112   */\n      0x00\n        /* \"#utility.yul\":20104:20118   */\n      mstore\n        /* \"#utility.yul\":20148:20152   */\n      0x20\n        /* \"#utility.yul\":20145:20146   */\n      0x00\n        /* \"#utility.yul\":20135:20153   */\n      keccak256\n        /* \"#utility.yul\":20127:20153   */\n      swap1\n      pop\n        /* \"#utility.yul\":20019:20160   */\n      swap2\n      swap1\n      pop\n      jump\t// out\n        /* \"#utility.yul\":20166:20259   */\n    tag_765:\n        /* \"#utility.yul\":20203:20209   */\n      0x00\n        /* \"#utility.yul\":20250:20252   */\n      0x20\n        /* \"#utility.yul\":20245:20247   */\n      0x1f\n        /* \"#utility.yul\":20238:20243   */\n      dup4\n        /* \"#utility.yul\":20234:20248   */\n      add\n        /* \"#utility.yul\":20230:20253   */\n      div\n        /* \"#utility.yul\":20220:20253   */\n      swap1\n      pop\n        /* \"#utility.yul\":20166:20259   */\n      swap2\n      swap1\n      pop\n      jump\t// out\n        /* \"#utility.yul\":20265:20372   */\n    tag_766:\n        /* \"#utility.yul\":20309:20317   */\n      0x00\n        /* \"#utility.yul\":20359:20364   */\n      dup3\n        /* \"#utility.yul\":20353:20357   */\n      dup3\n        /* \"#utility.yul\":20349:20365   */\n      shl\n        /* \"#utility.yul\":20328:20365   */\n      swap1\n      pop\n        /* \"#utility.yul\":20265:20372   */\n      swap3\n      swap2\n      pop\n      pop\n      jump\t// out\n        /* \"#utility.yul\":20378:20771   */\n    tag_767:\n        /* \"#utility.yul\":20447:20453   */\n      0x00\n        /* \"#utility.yul\":20497:20498   */\n      0x08\n        /* \"#utility.yul\":20485:20495   */\n      dup4\n        /* \"#utility.yul\":20481:20499   */\n      mul\n        /* \"#utility.yul\":20520:20617   */\n      tag_1007\n        /* \"#utility.yul\":20550:20616   */\n      0xffffffffffffffffffffffffffffffffffffffffffffffffffffffffffffffff\n        /* \"#utility.yul\":20539:20548   */\n      dup3\n        /* \"#utility.yul\":20520:20617   */\n      tag_766\n      jump\t// in\n    tag_1007:\n        /* \"#utility.yul\":20638:20677   */\n      tag_1008\n        /* \"#utility.yul\":20668:20676   */\n      dup7\n        /* \"#utility.yul\":20657:20666   */\n      dup4\n        /* \"#utility.yul\":20638:20677   */\n      tag_766\n      jump\t// in\n    tag_1008:\n        /* \"#utility.yul\":20626:20677   */\n      swap6\n      pop\n        /* \"#utility.yul\":20710:20714   */\n      dup1\n        /* \"#utility.yul\":20706:20715   */\n      not\n        /* \"#utility.yul\":20699:20704   */\n      dup5\n        /* \"#utility.yul\":20695:20716   */\n      and\n        /* \"#utility.yul\":20686:20716   */\n      swap4\n      pop\n        /* \"#utility.yul\":20759:20763   */\n      dup1\n        /* \"#utility.yul\":20749:20757   */\n      dup7\n        /* \"#utility.yul\":20745:20764   */\n      and\n        /* \"#utility.yul\":20738:20743   */\n      dup5\n        /* \"#utility.yul\":20735:20765   */\n      or\n        /* \"#utility.yul\":20725:20765   */\n      swap3\n      pop\n        /* \"#utility.yul\":20454:20771   */\n      pop\n      pop\n        /* \"#utility.yul\":20378:20771   */\n      swap4\n      swap3\n      pop\n      pop\n      pop\n      jump\t// out\n        /* \"#utility.yul\":20777:20837   */\n    tag_768:\n        /* \"#utility.yul\":20805:20808   */\n      0x00\n        /* \"#utility.yul\":20826:20831   */\n      dup2\n        /* \"#utility.yul\":20819:20831   */\n      swap1\n      pop\n        /* \"#utility.yul\":20777:20837   */\n      swap2\n      swap1\n      pop\n      jump\t// out\n        /* \"#utility.yul\":20843:20985   */\n    tag_769:\n        /* \"#utility.yul\":20893:20902   */\n      0x00\n        /* \"#utility.yul\":20926:20979   */\n      tag_1011\n        /* \"#utility.yul\":20944:20978   */\n      tag_1012\n        /* \"#utility.yul\":20953:20977   */\n      tag_1013\n        /* \"#utility.yul\":20971:20976   */\n      dup5\n        /* \"#utility.yul\":20953:20977   */\n      tag_725\n      jump\t// in\n    tag_1013:\n        /* \"#utility.yul\":20944:20978   */\n      tag_768\n      jump\t// in\n    tag_1012:\n        /* \"#utility.yul\":20926:20979   */\n      tag_725\n      jump\t// in\n    tag_1011:\n        /* \"#utility.yul\":20913:20979   */\n      swap1\n      pop\n        /* \"#utility.yul\":20843:20985   */\n      swap2\n      swap1\n      pop\n      jump\t// out\n        /* \"#utility.yul\":20991:21066   */\n    tag_770:\n        /* \"#utility.yul\":21034:21037   */\n      0x00\n        /* \"#utility.yul\":21055:21060   */\n      dup2\n        /* \"#utility.yul\":21048:21060   */\n      swap1\n      pop\n        /* \"#utility.yul\":20991:21066   */\n      swap2\n      swap1\n      pop\n      jump\t// out\n        /* \"#utility.yul\":21072:21341   */\n    tag_771:\n        /* \"#utility.yul\":21182:21221   */\n      tag_1016\n        /* \"#utility.yul\":21213:21220   */\n      dup4\n        /* \"#utility.yul\":21182:21221   */\n      tag_769\n      jump\t// in\n    tag_1016:\n        /* \"#utility.yul\":21243:21334   */\n      tag_1017\n        /* \"#utility.yul\":21292:21333   */\n      tag_1018\n        /* \"#utility.yul\":21316:21332   */\n      dup3\n        /* \"#utility.yul\":21292:21333   */\n      tag_770\n      jump\t// in\n    tag_1018:\n        /* \"#utility.yul\":21284:21290   */\n      dup5\n        /* \"#utility.yul\":21277:21281   */\n      dup5\n        /* \"#utility.yul\":21271:21282   */\n      sload\n        /* \"#utility.yul\":21243:21334   */\n      tag_767\n      jump\t// in\n    tag_1017:\n        /* \"#utility.yul\":21237:21241   */\n      dup3\n        /* \"#utility.yul\":21230:21335   */\n      sstore\n        /* \"#utility.yul\":21148:21341   */\n      pop\n        /* \"#utility.yul\":21072:21341   */\n      pop\n      pop\n      pop\n      jump\t// out\n        /* \"#utility.yul\":21347:21420   */\n    tag_772:\n        /* \"#utility.yul\":21392:21395   */\n      0x00\n        /* \"#utility.yul\":21347:21420   */\n      swap1\n      jump\t// out\n        /* \"#utility.yul\":21426:21615   */\n    tag_773:\n        /* \"#utility.yul\":21503:21535   */\n      tag_1021\n      tag_772\n      jump\t// in\n    tag_1021:\n        /* \"#utility.yul\":21544:21609   */\n      tag_1022\n        /* \"#utility.yul\":21602:21608   */\n      dup2\n        /* \"#utility.yul\":21594:21600   */\n      dup5\n        /* \"#utility.yul\":21588:21592   */\n      dup5\n        /* \"#utility.yul\":21544:21609   */\n      tag_771\n      jump\t// in\n    tag_1022:\n        /* \"#utility.yul\":21479:21615   */\n      pop\n        /* \"#utility.yul\":21426:21615   */\n      pop\n      pop\n      jump\t// out\n        /* \"#utility.yul\":21621:21807   */\n    tag_774:\n        /* \"#utility.yul\":21681:21801   */\n    tag_1024:\n        /* \"#utility.yul\":21698:21701   */\n      dup2\n        /* \"#utility.yul\":21691:21696   */\n      dup2\n        /* \"#utility.yul\":21688:21702   */\n      lt\n        /* \"#utility.yul\":21681:21801   */\n      iszero\n      tag_1026\n      jumpi\n        /* \"#utility.yul\":21752:21791   */\n      tag_1027\n        /* \"#utility.yul\":21789:21790   */\n      0x00\n        /* \"#utility.yul\":21782:21787   */\n      dup3\n        /* \"#utility.yul\":21752:21791   */\n      tag_773\n      jump\t// in\n    tag_1027:\n        /* \"#utility.yul\":21725:21726   */\n      0x01\n        /* \"#utility.yul\":21718:21723   */\n      dup2\n        /* \"#utility.yul\":21714:21727   */\n      add\n        /* \"#utility.yul\":21705:21727   */\n      swap1\n      pop\n        /* \"#utility.yul\":21681:21801   */\n      jump(tag_1024)\n    tag_1026:\n        /* \"#utility.yul\":21621:21807   */\n      pop\n      pop\n      jump\t// out\n        /* \"#utility.yul\":21813:22356   */\n    tag_775:\n        /* \"#utility.yul\":21914:21916   */\n      0x1f\n        /* \"#utility.yul\":21909:21912   */\n      dup3\n        /* \"#utility.yul\":21906:21917   */\n      gt\n        /* \"#utility.yul\":21903:22349   */\n      iszero\n      tag_1029\n      jumpi\n        /* \"#utility.yul\":21948:21986   */\n      tag_1030\n        /* \"#utility.yul\":21980:21985   */\n      dup2\n        /* \"#utility.yul\":21948:21986   */\n      tag_764\n      jump\t// in\n    tag_1030:\n        /* \"#utility.yul\":22032:22061   */\n      tag_1031\n        /* \"#utility.yul\":22050:22060   */\n      dup5\n        /* \"#utility.yul\":22032:22061   */\n      tag_765\n      jump\t// in\n    tag_1031:\n        /* \"#utility.yul\":22022:22030   */\n      dup2\n        /* \"#utility.yul\":22018:22062   */\n      add\n        /* \"#utility.yul\":22215:22217   */\n      0x20\n        /* \"#utility.yul\":22203:22213   */\n      dup6\n        /* \"#utility.yul\":22200:22218   */\n      lt\n        /* \"#utility.yul\":22197:22246   */\n      iszero\n      tag_1032\n      jumpi\n        /* \"#utility.yul\":22236:22244   */\n      dup2\n        /* \"#utility.yul\":22221:22244   */\n      swap1\n      pop\n        /* \"#utility.yul\":22197:22246   */\n    tag_1032:\n        /* \"#utility.yul\":22259:22339   */\n      tag_1033\n        /* \"#utility.yul\":22315:22337   */\n      tag_1034\n        /* \"#utility.yul\":22333:22336   */\n      dup6\n        /* \"#utility.yul\":22315:22337   */\n      tag_765\n      jump\t// in\n    tag_1034:\n        /* \"#utility.yul\":22305:22313   */\n      dup4\n        /* \"#utility.yul\":22301:22338   */\n      add\n        /* \"#utility.yul\":22288:22299   */\n      dup3\n        /* \"#utility.yul\":22259:22339   */\n      tag_774\n      jump\t// in\n    tag_1033:\n        /* \"#utility.yul\":21918:22349   */\n      pop\n      pop\n        /* \"#utility.yul\":21903:22349   */\n    tag_1029:\n        /* \"#utility.yul\":21813:22356   */\n      pop\n      pop\n      pop\n      jump\t// out\n        /* \"#utility.yul\":22362:22479   */\n    tag_776:\n        /* \"#utility.yul\":22416:22424   */\n      0x00\n        /* \"#utility.yul\":22466:22471   */\n      dup3\n        /* \"#utility.yul\":22460:22464   */\n      dup3\n        /* \"#utility.yul\":22456:22472   */\n      shr\n        /* \"#utility.yul\":22435:22472   */\n      swap1\n      pop\n        /* \"#utility.yul\":22362:22479   */\n      swap3\n      swap2\n      pop\n      pop\n      jump\t// out\n        /* \"#utility.yul\":22485:22654   */\n    tag_777:\n        /* \"#utility.yul\":22529:22535   */\n      0x00\n        /* \"#utility.yul\":22562:22613   */\n      tag_1037\n        /* \"#utility.yul\":22610:22611   */\n      0x00\n        /* \"#utility.yul\":22606:22612   */\n      not\n        /* \"#utility.yul\":22598:22603   */\n      dup5\n        /* \"#utility.yul\":22595:22596   */\n      0x08\n        /* \"#utility.yul\":22591:22604   */\n      mul\n        /* \"#utility.yul\":22562:22613   */\n      tag_776\n      jump\t// in\n    tag_1037:\n        /* \"#utility.yul\":22558:22614   */\n      not\n        /* \"#utility.yul\":22643:22647   */\n      dup1\n        /* \"#utility.yul\":22637:22641   */\n      dup4\n        /* \"#utility.yul\":22633:22648   */\n      and\n        /* \"#utility.yul\":22623:22648   */\n      swap2\n      pop\n        /* \"#utility.yul\":22536:22654   */\n      pop\n        /* \"#utility.yul\":22485:22654   */\n      swap3\n      swap2\n      pop\n      pop\n      jump\t// out\n        /* \"#utility.yul\":22659:22954   */\n    tag_778:\n        /* \"#utility.yul\":22735:22739   */\n      0x00\n        /* \"#utility.yul\":22881:22910   */\n      tag_1039\n        /* \"#utility.yul\":22906:22909   */\n      dup4\n        /* \"#utility.yul\":22900:22904   */\n      dup4\n        /* \"#utility.yul\":22881:22910   */\n      tag_777\n      jump\t// in\n    tag_1039:\n        /* \"#utility.yul\":22873:22910   */\n      swap2\n      pop\n        /* \"#utility.yul\":22943:22946   */\n      dup3\n        /* \"#utility.yul\":22940:22941   */\n      0x02\n        /* \"#utility.yul\":22936:22947   */\n      mul\n        /* \"#utility.yul\":22930:22934   */\n      dup3\n        /* \"#utility.yul\":22927:22948   */\n      or\n        /* \"#utility.yul\":22919:22948   */\n      swap1\n      pop\n        /* \"#utility.yul\":22659:22954   */\n      swap3\n      swap2\n      pop\n      pop\n      jump\t// out\n        /* \"#utility.yul\":22959:24410   */\n    tag_227:\n        /* \"#utility.yul\":23070:23073   */\n      dup2\n        /* \"#utility.yul\":23064:23068   */\n      dup2\n        /* \"#utility.yul\":23061:23074   */\n      sub\n        /* \"#utility.yul\":23058:23084   */\n      tag_1041\n      jumpi\n        /* \"#utility.yul\":23077:23082   */\n      pop\n      pop\n      jump(tag_1040)\n        /* \"#utility.yul\":23058:23084   */\n    tag_1041:\n        /* \"#utility.yul\":23108:23142   */\n      tag_1042\n        /* \"#utility.yul\":23138:23141   */\n      dup3\n        /* \"#utility.yul\":23108:23142   */\n      tag_763\n      jump\t// in\n    tag_1042:\n        /* \"#utility.yul\":23207:23225   */\n      0xffffffffffffffff\n        /* \"#utility.yul\":23199:23205   */\n      dup2\n        /* \"#utility.yul\":23196:23226   */\n      gt\n        /* \"#utility.yul\":23193:23249   */\n      iszero\n      tag_1043\n      jumpi\n        /* \"#utility.yul\":23229:23247   */\n      tag_1044\n      tag_731\n      jump\t// in\n    tag_1044:\n        /* \"#utility.yul\":23193:23249   */\n    tag_1043:\n        /* \"#utility.yul\":23273:23311   */\n      tag_1045\n        /* \"#utility.yul\":23305:23309   */\n      dup3\n        /* \"#utility.yul\":23299:23310   */\n      sload\n        /* \"#utility.yul\":23273:23311   */\n      tag_342\n      jump\t// in\n    tag_1045:\n        /* \"#utility.yul\":23358:23425   */\n      tag_1046\n        /* \"#utility.yul\":23418:23424   */\n      dup3\n        /* \"#utility.yul\":23410:23416   */\n      dup3\n        /* \"#utility.yul\":23404:23408   */\n      dup6\n        /* \"#utility.yul\":23358:23425   */\n      tag_775\n      jump\t// in\n    tag_1046:\n        /* \"#utility.yul\":23452:23453   */\n      0x00\n        /* \"#utility.yul\":23481:23483   */\n      0x1f\n        /* \"#utility.yul\":23473:23479   */\n      dup4\n        /* \"#utility.yul\":23470:23484   */\n      gt\n        /* \"#utility.yul\":23498:23499   */\n      0x01\n        /* \"#utility.yul\":23493:24165   */\n      dup2\n      eq\n      tag_1048\n      jumpi\n        /* \"#utility.yul\":24209:24210   */\n      0x00\n        /* \"#utility.yul\":24226:24232   */\n      dup5\n        /* \"#utility.yul\":24223:24300   */\n      iszero\n      tag_1049\n      jumpi\n        /* \"#utility.yul\":24275:24284   */\n      dup3\n        /* \"#utility.yul\":24270:24273   */\n      dup8\n        /* \"#utility.yul\":24266:24285   */\n      add\n        /* \"#utility.yul\":24260:24286   */\n      sload\n        /* \"#utility.yul\":24251:24286   */\n      swap1\n      pop\n        /* \"#utility.yul\":24223:24300   */\n    tag_1049:\n        /* \"#utility.yul\":24326:24393   */\n      tag_1050\n        /* \"#utility.yul\":24386:24392   */\n      dup6\n        /* \"#utility.yul\":24379:24384   */\n      dup3\n        /* \"#utility.yul\":24326:24393   */\n      tag_778\n      jump\t// in\n    tag_1050:\n        /* \"#utility.yul\":24320:24324   */\n      dup7\n        /* \"#utility.yul\":24313:24394   */\n      sstore\n        /* \"#utility.yul\":24182:24404   */\n      pop\n        /* \"#utility.yul\":23463:24404   */\n      jump(tag_1047)\n        /* \"#utility.yul\":23493:24165   */\n    tag_1048:\n        /* \"#utility.yul\":23545:23549   */\n      0x1f\n        /* \"#utility.yul\":23541:23550   */\n      not\n        /* \"#utility.yul\":23533:23539   */\n      dup5\n        /* \"#utility.yul\":23529:23551   */\n      and\n        /* \"#utility.yul\":23571:23607   */\n      tag_1051\n        /* \"#utility.yul\":23603:23606   */\n      dup8\n        /* \"#utility.yul\":23571:23607   */\n      tag_764\n      jump\t// in\n    tag_1051:\n        /* \"#utility.yul\":23564:23607   */\n      swap7\n      pop\n        /* \"#utility.yul\":23634:23671   */\n      tag_1052\n        /* \"#utility.yul\":23666:23670   */\n      dup7\n        /* \"#utility.yul\":23634:23671   */\n      tag_764\n      jump\t// in\n    tag_1052:\n        /* \"#utility.yul\":23693:23694   */\n      0x00\n        /* \"#utility.yul\":23707:23914   */\n    tag_1053:\n        /* \"#utility.yul\":23721:23728   */\n      dup3\n        /* \"#utility.yul\":23718:23719   */\n      dup2\n        /* \"#utility.yul\":23715:23729   */\n      lt\n        /* \"#utility.yul\":23707:23914   */\n      iszero\n      tag_1055\n      jumpi\n        /* \"#utility.yul\":23800:23809   */\n      dup5\n        /* \"#utility.yul\":23795:23798   */\n      dup10\n        /* \"#utility.yul\":23791:23810   */\n      add\n        /* \"#utility.yul\":23785:23811   */\n      sload\n        /* \"#utility.yul\":23777:23783   */\n      dup3\n        /* \"#utility.yul\":23770:23812   */\n      sstore\n        /* \"#utility.yul\":23851:23852   */\n      0x01\n        /* \"#utility.yul\":23843:23849   */\n      dup3\n        /* \"#utility.yul\":23839:23853   */\n      add\n        /* \"#utility.yul\":23829:23853   */\n      swap2\n      pop\n        /* \"#utility.yul\":23898:23899   */\n      0x01\n        /* \"#utility.yul\":23887:23896   */\n      dup6\n        /* \"#utility.yul\":23883:23900   */\n      add\n        /* \"#utility.yul\":23870:23900   */\n      swap5\n      pop\n        /* \"#utility.yul\":23744:23748   */\n      0x20\n        /* \"#utility.yul\":23741:23742   */\n      dup2\n        /* \"#utility.yul\":23737:23749   */\n      add\n        /* \"#utility.yul\":23732:23749   */\n      swap1\n      pop\n        /* \"#utility.yul\":23707:23914   */\n      jump(tag_1053)\n    tag_1055:\n        /* \"#utility.yul\":23942:23948   */\n      dup7\n        /* \"#utility.yul\":23933:23940   */\n      dup4\n        /* \"#utility.yul\":23930:23949   */\n      lt\n        /* \"#utility.yul\":23927:24106   */\n      iszero\n      tag_1056\n      jumpi\n        /* \"#utility.yul\":24000:24009   */\n      dup5\n        /* \"#utility.yul\":23995:23998   */\n      dup10\n        /* \"#utility.yul\":23991:24010   */\n      add\n        /* \"#utility.yul\":23985:24011   */\n      sload\n        /* \"#utility.yul\":24043:24091   */\n      tag_1057\n        /* \"#utility.yul\":24085:24089   */\n      0x1f\n        /* \"#utility.yul\":24077:24083   */\n      dup10\n        /* \"#utility.yul\":24073:24090   */\n      and\n        /* \"#utility.yul\":24062:24071   */\n      dup3\n        /* \"#utility.yul\":24043:24091   */\n      tag_777\n      jump\t// in\n    tag_1057:\n        /* \"#utility.yul\":24035:24041   */\n      dup4\n        /* \"#utility.yul\":24028:24092   */\n      sstore\n        /* \"#utility.yul\":23950:24106   */\n      pop\n        /* \"#utility.yul\":23927:24106   */\n    tag_1056:\n        /* \"#utility.yul\":24152:24153   */\n      0x01\n        /* \"#utility.yul\":24148:24149   */\n      0x02\n        /* \"#utility.yul\":24140:24146   */\n      dup9\n        /* \"#utility.yul\":24136:24150   */\n      mul\n        /* \"#utility.yul\":24132:24154   */\n      add\n        /* \"#utility.yul\":24126:24130   */\n      dup9\n        /* \"#utility.yul\":24119:24155   */\n      sstore\n        /* \"#utility.yul\":23500:24165   */\n      pop\n      pop\n      pop\n        /* \"#utility.yul\":23463:24404   */\n    tag_1047:\n      pop\n        /* \"#utility.yul\":23048:24410   */\n      pop\n      pop\n      pop\n        /* \"#utility.yul\":22959:24410   */\n      pop\n      pop\n    tag_1040:\n      jump\t// out\n        /* \"#utility.yul\":24416:24596   */\n    tag_779:\n        /* \"#utility.yul\":24464:24541   */\n      0x4e487b7100000000000000000000000000000000000000000000000000000000\n        /* \"#utility.yul\":24461:24462   */\n      0x00\n        /* \"#utility.yul\":24454:24542   */\n      mstore\n        /* \"#utility.yul\":24561:24565   */\n      0x11\n        /* \"#utility.yul\":24558:24559   */\n      0x04\n        /* \"#utility.yul\":24551:24566   */\n      mstore\n        /* \"#utility.yul\":24585:24589   */\n      0x24\n        /* \"#utility.yul\":24582:24583   */\n      0x00\n        /* \"#utility.yul\":24575:24590   */\n      revert\n        /* \"#utility.yul\":24602:24835   */\n    tag_232:\n        /* \"#utility.yul\":24641:24644   */\n      0x00\n        /* \"#utility.yul\":24664:24688   */\n      tag_1060\n        /* \"#utility.yul\":24682:24687   */\n      dup3\n        /* \"#utility.yul\":24664:24688   */\n      tag_725\n      jump\t// in\n    tag_1060:\n        /* \"#utility.yul\":24655:24688   */\n      swap2\n      pop\n        /* \"#utility.yul\":24710:24776   */\n      0xffffffffffffffffffffffffffffffffffffffffffffffffffffffffffffffff\n        /* \"#utility.yul\":24703:24708   */\n      dup3\n        /* \"#utility.yul\":24700:24777   */\n      sub\n        /* \"#utility.yul\":24697:24800   */\n      tag_1061\n      jumpi\n        /* \"#utility.yul\":24780:24798   */\n      tag_1062\n      tag_779\n      jump\t// in\n    tag_1062:\n        /* \"#utility.yul\":24697:24800   */\n    tag_1061:\n        /* \"#utility.yul\":24827:24828   */\n      0x01\n        /* \"#utility.yul\":24820:24825   */\n      dup3\n        /* \"#utility.yul\":24816:24829   */\n      add\n        /* \"#utility.yul\":24809:24829   */\n      swap1\n      pop\n        /* \"#utility.yul\":24602:24835   */\n      swap2\n      swap1\n      pop\n      jump\t// out\n        /* \"#utility.yul\":24841:25012   */\n    tag_239:\n        /* \"#utility.yul\":24880:24883   */\n      0x00\n        /* \"#utility.yul\":24903:24927   */\n      tag_1064\n        /* \"#utility.yul\":24921:24926   */\n      dup3\n        /* \"#utility.yul\":24903:24927   */\n      tag_725\n      jump\t// in\n    tag_1064:\n        /* \"#utility.yul\":24894:24927   */\n      swap2\n      pop\n        /* \"#utility.yul\":24949:24953   */\n      0x00\n        /* \"#utility.yul\":24942:24947   */\n      dup3\n        /* \"#utility.yul\":24939:24954   */\n      sub\n        /* \"#utility.yul\":24936:24977   */\n      tag_1065\n      jumpi\n        /* \"#utility.yul\":24957:24975   */\n      tag_1066\n      tag_779\n      jump\t// in\n    tag_1066:\n        /* \"#utility.yul\":24936:24977   */\n    tag_1065:\n        /* \"#utility.yul\":25004:25005   */\n      0x01\n        /* \"#utility.yul\":24997:25002   */\n      dup3\n        /* \"#utility.yul\":24993:25006   */\n      sub\n        /* \"#utility.yul\":24986:25006   */\n      swap1\n      pop\n        /* \"#utility.yul\":24841:25012   */\n      swap2\n      swap1\n      pop\n      jump\t// out\n        /* \"#utility.yul\":25018:25241   */\n    tag_780:\n        /* \"#utility.yul\":25158:25192   */\n      0x4f6e6c7920746865206d616e616765722063616e207472616e73666572204574\n        /* \"#utility.yul\":25154:25155   */\n      0x00\n        /* \"#utility.yul\":25146:25152   */\n      dup3\n        /* \"#utility.yul\":25142:25156   */\n      add\n        /* \"#utility.yul\":25135:25193   */\n      mstore\n        /* \"#utility.yul\":25227:25233   */\n      0x6865722e00000000000000000000000000000000000000000000000000000000\n        /* \"#utility.yul\":25222:25224   */\n      0x20\n        /* \"#utility.yul\":25214:25220   */\n      dup3\n        /* \"#utility.yul\":25210:25225   */\n      add\n        /* \"#utility.yul\":25203:25234   */\n      mstore\n        /* \"#utility.yul\":25018:25241   */\n      pop\n      jump\t// out\n        /* \"#utility.yul\":25247:25613   */\n    tag_781:\n        /* \"#utility.yul\":25389:25392   */\n      0x00\n        /* \"#utility.yul\":25410:25477   */\n      tag_1069\n        /* \"#utility.yul\":25474:25476   */\n      0x24\n        /* \"#utility.yul\":25469:25472   */\n      dup4\n        /* \"#utility.yul\":25410:25477   */\n      tag_754\n      jump\t// in\n    tag_1069:\n        /* \"#utility.yul\":25403:25477   */\n      swap2\n      pop\n        /* \"#utility.yul\":25486:25579   */\n      tag_1070\n        /* \"#utility.yul\":25575:25578   */\n      dup3\n        /* \"#utility.yul\":25486:25579   */\n      tag_780\n      jump\t// in\n    tag_1070:\n        /* \"#utility.yul\":25604:25606   */\n      0x40\n        /* \"#utility.yul\":25599:25602   */\n      dup3\n        /* \"#utility.yul\":25595:25607   */\n      add\n        /* \"#utility.yul\":25588:25607   */\n      swap1\n      pop\n        /* \"#utility.yul\":25247:25613   */\n      swap2\n      swap1\n      pop\n      jump\t// out\n        /* \"#utility.yul\":25619:26038   */\n    tag_267:\n        /* \"#utility.yul\":25785:25789   */\n      0x00\n        /* \"#utility.yul\":25823:25825   */\n      0x20\n        /* \"#utility.yul\":25812:25821   */\n      dup3\n        /* \"#utility.yul\":25808:25826   */\n      add\n        /* \"#utility.yul\":25800:25826   */\n      swap1\n      pop\n        /* \"#utility.yul\":25872:25881   */\n      dup2\n        /* \"#utility.yul\":25866:25870   */\n      dup2\n        /* \"#utility.yul\":25862:25882   */\n      sub\n        /* \"#utility.yul\":25858:25859   */\n      0x00\n        /* \"#utility.yul\":25847:25856   */\n      dup4\n        /* \"#utility.yul\":25843:25860   */\n      add\n        /* \"#utility.yul\":25836:25883   */\n      mstore\n        /* \"#utility.yul\":25900:26031   */\n      tag_1072\n        /* \"#utility.yul\":26026:26030   */\n      dup2\n        /* \"#utility.yul\":25900:26031   */\n      tag_781\n      jump\t// in\n    tag_1072:\n        /* \"#utility.yul\":25892:26031   */\n      swap1\n      pop\n        /* \"#utility.yul\":25619:26038   */\n      swap2\n      swap1\n      pop\n      jump\t// out\n        /* \"#utility.yul\":26044:26186   */\n    tag_782:\n        /* \"#utility.yul\":26147:26179   */\n      tag_1074\n        /* \"#utility.yul\":26173:26178   */\n      dup2\n        /* \"#utility.yul\":26147:26179   */\n      tag_759\n      jump\t// in\n    tag_1074:\n        /* \"#utility.yul\":26142:26145   */\n      dup3\n        /* \"#utility.yul\":26135:26180   */\n      mstore\n        /* \"#utility.yul\":26044:26186   */\n      pop\n      pop\n      jump\t// out\n        /* \"#utility.yul\":26192:26446   */\n    tag_269:\n        /* \"#utility.yul\":26301:26305   */\n      0x00\n        /* \"#utility.yul\":26339:26341   */\n      0x20\n        /* \"#utility.yul\":26328:26337   */\n      dup3\n        /* \"#utility.yul\":26324:26342   */\n      add\n        /* \"#utility.yul\":26316:26342   */\n      swap1\n      pop\n        /* \"#utility.yul\":26352:26439   */\n      tag_1076\n        /* \"#utility.yul\":26436:26437   */\n      0x00\n        /* \"#utility.yul\":26425:26434   */\n      dup4\n        /* \"#utility.yul\":26421:26438   */\n      add\n        /* \"#utility.yul\":26412:26418   */\n      dup5\n        /* \"#utility.yul\":26352:26439   */\n      tag_782\n      jump\t// in\n    tag_1076:\n        /* \"#utility.yul\":26192:26446   */\n      swap3\n      swap2\n      pop\n      pop\n      jump\t// out\n        /* \"#utility.yul\":26452:27847   */\n    tag_294:\n        /* \"#utility.yul\":26569:26606   */\n      tag_1078\n        /* \"#utility.yul\":26602:26605   */\n      dup3\n        /* \"#utility.yul\":26569:26606   */\n      tag_753\n      jump\t// in\n    tag_1078:\n        /* \"#utility.yul\":26671:26689   */\n      0xffffffffffffffff\n        /* \"#utility.yul\":26663:26669   */\n      dup2\n        /* \"#utility.yul\":26660:26690   */\n      gt\n        /* \"#utility.yul\":26657:26713   */\n      iszero\n      tag_1079\n      jumpi\n        /* \"#utility.yul\":26693:26711   */\n      tag_1080\n      tag_731\n      jump\t// in\n    tag_1080:\n        /* \"#utility.yul\":26657:26713   */\n    tag_1079:\n        /* \"#utility.yul\":26737:26775   */\n      tag_1081\n        /* \"#utility.yul\":26769:26773   */\n      dup3\n        /* \"#utility.yul\":26763:26774   */\n      sload\n        /* \"#utility.yul\":26737:26775   */\n      tag_342\n      jump\t// in\n    tag_1081:\n        /* \"#utility.yul\":26822:26889   */\n      tag_1082\n        /* \"#utility.yul\":26882:26888   */\n      dup3\n        /* \"#utility.yul\":26874:26880   */\n      dup3\n        /* \"#utility.yul\":26868:26872   */\n      dup6\n        /* \"#utility.yul\":26822:26889   */\n      tag_775\n      jump\t// in\n    tag_1082:\n        /* \"#utility.yul\":26916:26917   */\n      0x00\n        /* \"#utility.yul\":26940:26944   */\n      0x20\n        /* \"#utility.yul\":26927:26944   */\n      swap1\n      pop\n        /* \"#utility.yul\":26972:26974   */\n      0x1f\n        /* \"#utility.yul\":26964:26970   */\n      dup4\n        /* \"#utility.yul\":26961:26975   */\n      gt\n        /* \"#utility.yul\":26989:26990   */\n      0x01\n        /* \"#utility.yul\":26984:27602   */\n      dup2\n      eq\n      tag_1084\n      jumpi\n        /* \"#utility.yul\":27646:27647   */\n      0x00\n        /* \"#utility.yul\":27663:27669   */\n      dup5\n        /* \"#utility.yul\":27660:27737   */\n      iszero\n      tag_1085\n      jumpi\n        /* \"#utility.yul\":27712:27721   */\n      dup3\n        /* \"#utility.yul\":27707:27710   */\n      dup8\n        /* \"#utility.yul\":27703:27722   */\n      add\n        /* \"#utility.yul\":27697:27723   */\n      mload\n        /* \"#utility.yul\":27688:27723   */\n      swap1\n      pop\n        /* \"#utility.yul\":27660:27737   */\n    tag_1085:\n        /* \"#utility.yul\":27763:27830   */\n      tag_1086\n        /* \"#utility.yul\":27823:27829   */\n      dup6\n        /* \"#utility.yul\":27816:27821   */\n      dup3\n        /* \"#utility.yul\":27763:27830   */\n      tag_778\n      jump\t// in\n    tag_1086:\n        /* \"#utility.yul\":27757:27761   */\n      dup7\n        /* \"#utility.yul\":27750:27831   */\n      sstore\n        /* \"#utility.yul\":27619:27841   */\n      pop\n        /* \"#utility.yul\":26954:27841   */\n      jump(tag_1083)\n        /* \"#utility.yul\":26984:27602   */\n    tag_1084:\n        /* \"#utility.yul\":27036:27040   */\n      0x1f\n        /* \"#utility.yul\":27032:27041   */\n      not\n        /* \"#utility.yul\":27024:27030   */\n      dup5\n        /* \"#utility.yul\":27020:27042   */\n      and\n        /* \"#utility.yul\":27070:27107   */\n      tag_1087\n        /* \"#utility.yul\":27102:27106   */\n      dup7\n        /* \"#utility.yul\":27070:27107   */\n      tag_764\n      jump\t// in\n    tag_1087:\n        /* \"#utility.yul\":27129:27130   */\n      0x00\n        /* \"#utility.yul\":27143:27351   */\n    tag_1088:\n        /* \"#utility.yul\":27157:27164   */\n      dup3\n        /* \"#utility.yul\":27154:27155   */\n      dup2\n        /* \"#utility.yul\":27151:27165   */\n      lt\n        /* \"#utility.yul\":27143:27351   */\n      iszero\n      tag_1090\n      jumpi\n        /* \"#utility.yul\":27236:27245   */\n      dup5\n        /* \"#utility.yul\":27231:27234   */\n      dup10\n        /* \"#utility.yul\":27227:27246   */\n      add\n        /* \"#utility.yul\":27221:27247   */\n      mload\n        /* \"#utility.yul\":27213:27219   */\n      dup3\n        /* \"#utility.yul\":27206:27248   */\n      sstore\n        /* \"#utility.yul\":27287:27288   */\n      0x01\n        /* \"#utility.yul\":27279:27285   */\n      dup3\n        /* \"#utility.yul\":27275:27289   */\n      add\n        /* \"#utility.yul\":27265:27289   */\n      swap2\n      pop\n        /* \"#utility.yul\":27334:27336   */\n      0x20\n        /* \"#utility.yul\":27323:27332   */\n      dup6\n        /* \"#utility.yul\":27319:27337   */\n      add\n        /* \"#utility.yul\":27306:27337   */\n      swap5\n      pop\n        /* \"#utility.yul\":27180:27184   */\n      0x20\n        /* \"#utility.yul\":27177:27178   */\n      dup2\n        /* \"#utility.yul\":27173:27185   */\n      add\n        /* \"#utility.yul\":27168:27185   */\n      swap1\n      pop\n        /* \"#utility.yul\":27143:27351   */\n      jump(tag_1088)\n    tag_1090:\n        /* \"#utility.yul\":27379:27385   */\n      dup7\n        /* \"#utility.yul\":27370:27377   */\n      dup4\n        /* \"#utility.yul\":27367:27386   */\n      lt\n        /* \"#utility.yul\":27364:27543   */\n      iszero\n      tag_1091\n      jumpi\n        /* \"#utility.yul\":27437:27446   */\n      dup5\n        /* \"#utility.yul\":27432:27435   */\n      dup10\n        /* \"#utility.yul\":27428:27447   */\n      add\n        /* \"#utility.yul\":27422:27448   */\n      mload\n        /* \"#utility.yul\":27480:27528   */\n      tag_1092\n        /* \"#utility.yul\":27522:27526   */\n      0x1f\n        /* \"#utility.yul\":27514:27520   */\n      dup10\n        /* \"#utility.yul\":27510:27527   */\n      and\n        /* \"#utility.yul\":27499:27508   */\n      dup3\n        /* \"#utility.yul\":27480:27528   */\n      tag_777\n      jump\t// in\n    tag_1092:\n        /* \"#utility.yul\":27472:27478   */\n      dup4\n        /* \"#utility.yul\":27465:27529   */\n      sstore\n        /* \"#utility.yul\":27387:27543   */\n      pop\n        /* \"#utility.yul\":27364:27543   */\n    tag_1091:\n        /* \"#utility.yul\":27589:27590   */\n      0x01\n        /* \"#utility.yul\":27585:27586   */\n      0x02\n        /* \"#utility.yul\":27577:27583   */\n      dup9\n        /* \"#utility.yul\":27573:27587   */\n      mul\n        /* \"#utility.yul\":27569:27591   */\n      add\n        /* \"#utility.yul\":27563:27567   */\n      dup9\n        /* \"#utility.yul\":27556:27592   */\n      sstore\n        /* \"#utility.yul\":26991:27602   */\n      pop\n      pop\n      pop\n        /* \"#utility.yul\":26954:27841   */\n    tag_1083:\n      pop\n        /* \"#utility.yul\":26544:27847   */\n      pop\n      pop\n      pop\n        /* \"#utility.yul\":26452:27847   */\n      pop\n      pop\n      jump\t// out\n        /* \"#utility.yul\":27853:28001   */\n    tag_783:\n        /* \"#utility.yul\":27955:27966   */\n      0x00\n        /* \"#utility.yul\":27992:27995   */\n      dup2\n        /* \"#utility.yul\":27977:27995   */\n      swap1\n      pop\n        /* \"#utility.yul\":27853:28001   */\n      swap3\n      swap2\n      pop\n      pop\n      jump\t// out\n        /* \"#utility.yul\":28007:28397   */\n    tag_784:\n        /* \"#utility.yul\":28113:28116   */\n      0x00\n        /* \"#utility.yul\":28141:28180   */\n      tag_1095\n        /* \"#utility.yul\":28174:28179   */\n      dup3\n        /* \"#utility.yul\":28141:28180   */\n      tag_753\n      jump\t// in\n    tag_1095:\n        /* \"#utility.yul\":28196:28285   */\n      tag_1096\n        /* \"#utility.yul\":28278:28284   */\n      dup2\n        /* \"#utility.yul\":28273:28276   */\n      dup6\n        /* \"#utility.yul\":28196:28285   */\n      tag_783\n      jump\t// in\n    tag_1096:\n        /* \"#utility.yul\":28189:28285   */\n      swap4\n      pop\n        /* \"#utility.yul\":28294:28359   */\n      tag_1097\n        /* \"#utility.yul\":28352:28358   */\n      dup2\n        /* \"#utility.yul\":28347:28350   */\n      dup6\n        /* \"#utility.yul\":28340:28344   */\n      0x20\n        /* \"#utility.yul\":28333:28338   */\n      dup7\n        /* \"#utility.yul\":28329:28345   */\n      add\n        /* \"#utility.yul\":28294:28359   */\n      tag_755\n      jump\t// in\n    tag_1097:\n        /* \"#utility.yul\":28384:28390   */\n      dup1\n        /* \"#utility.yul\":28379:28382   */\n      dup5\n        /* \"#utility.yul\":28375:28391   */\n      add\n        /* \"#utility.yul\":28368:28391   */\n      swap2\n      pop\n        /* \"#utility.yul\":28117:28397   */\n      pop\n        /* \"#utility.yul\":28007:28397   */\n      swap3\n      swap2\n      pop\n      pop\n      jump\t// out\n        /* \"#utility.yul\":28403:28678   */\n    tag_304:\n        /* \"#utility.yul\":28535:28538   */\n      0x00\n        /* \"#utility.yul\":28557:28652   */\n      tag_1099\n        /* \"#utility.yul\":28648:28651   */\n      dup3\n        /* \"#utility.yul\":28639:28645   */\n      dup5\n        /* \"#utility.yul\":28557:28652   */\n      tag_784\n      jump\t// in\n    tag_1099:\n        /* \"#utility.yul\":28550:28652   */\n      swap2\n      pop\n        /* \"#utility.yul\":28669:28672   */\n      dup2\n        /* \"#utility.yul\":28662:28672   */\n      swap1\n      pop\n        /* \"#utility.yul\":28403:28678   */\n      swap3\n      swap2\n      pop\n      pop\n      jump\t// out\n        /* \"#utility.yul\":28684:28875   */\n    tag_337:\n        /* \"#utility.yul\":28724:28727   */\n      0x00\n        /* \"#utility.yul\":28743:28763   */\n      tag_1101\n        /* \"#utility.yul\":28761:28762   */\n      dup3\n        /* \"#utility.yul\":28743:28763   */\n      tag_725\n      jump\t// in\n    tag_1101:\n        /* \"#utility.yul\":28738:28763   */\n      swap2\n      pop\n        /* \"#utility.yul\":28777:28797   */\n      tag_1102\n        /* \"#utility.yul\":28795:28796   */\n      dup4\n        /* \"#utility.yul\":28777:28797   */\n      tag_725\n      jump\t// in\n    tag_1102:\n        /* \"#utility.yul\":28772:28797   */\n      swap3\n      pop\n        /* \"#utility.yul\":28820:28821   */\n      dup3\n        /* \"#utility.yul\":28817:28818   */\n      dup3\n        /* \"#utility.yul\":28813:28822   */\n      add\n        /* \"#utility.yul\":28806:28822   */\n      swap1\n      pop\n        /* \"#utility.yul\":28841:28844   */\n      dup1\n        /* \"#utility.yul\":28838:28839   */\n      dup3\n        /* \"#utility.yul\":28835:28845   */\n      gt\n        /* \"#utility.yul\":28832:28868   */\n      iszero\n      tag_1103\n      jumpi\n        /* \"#utility.yul\":28848:28866   */\n      tag_1104\n      tag_779\n      jump\t// in\n    tag_1104:\n        /* \"#utility.yul\":28832:28868   */\n    tag_1103:\n        /* \"#utility.yul\":28684:28875   */\n      swap3\n      swap2\n      pop\n      pop\n      jump\t// out\n        /* \"#utility.yul\":28881:29116   */\n    tag_785:\n        /* \"#utility.yul\":29021:29055   */\n      0x4f6e6c7920746865206d616e616765722063616e207570677261646520746865\n        /* \"#utility.yul\":29017:29018   */\n      0x00\n        /* \"#utility.yul\":29009:29015   */\n      dup3\n        /* \"#utility.yul\":29005:29019   */\n      add\n        /* \"#utility.yul\":28998:29056   */\n      mstore\n        /* \"#utility.yul\":29090:29108   */\n      0x20696d706c656d656e746174696f6e2e00000000000000000000000000000000\n        /* \"#utility.yul\":29085:29087   */\n      0x20\n        /* \"#utility.yul\":29077:29083   */\n      dup3\n        /* \"#utility.yul\":29073:29088   */\n      add\n        /* \"#utility.yul\":29066:29109   */\n      mstore\n        /* \"#utility.yul\":28881:29116   */\n      pop\n      jump\t// out\n        /* \"#utility.yul\":29122:29488   */\n    tag_786:\n        /* \"#utility.yul\":29264:29267   */\n      0x00\n        /* \"#utility.yul\":29285:29352   */\n      tag_1107\n        /* \"#utility.yul\":29349:29351   */\n      0x30\n        /* \"#utility.yul\":29344:29347   */\n      dup4\n        /* \"#utility.yul\":29285:29352   */\n      tag_754\n      jump\t// in\n    tag_1107:\n        /* \"#utility.yul\":29278:29352   */\n      swap2\n      pop\n        /* \"#utility.yul\":29361:29454   */\n      tag_1108\n        /* \"#utility.yul\":29450:29453   */\n      dup3\n        /* \"#utility.yul\":29361:29454   */\n      tag_785\n      jump\t// in\n    tag_1108:\n        /* \"#utility.yul\":29479:29481   */\n      0x40\n        /* \"#utility.yul\":29474:29477   */\n      dup3\n        /* \"#utility.yul\":29470:29482   */\n      add\n        /* \"#utility.yul\":29463:29482   */\n      swap1\n      pop\n        /* \"#utility.yul\":29122:29488   */\n      swap2\n      swap1\n      pop\n      jump\t// out\n        /* \"#utility.yul\":29494:29913   */\n    tag_486:\n        /* \"#utility.yul\":29660:29664   */\n      0x00\n        /* \"#utility.yul\":29698:29700   */\n      0x20\n        /* \"#utility.yul\":29687:29696   */\n      dup3\n        /* \"#utility.yul\":29683:29701   */\n      add\n        /* \"#utility.yul\":29675:29701   */\n      swap1\n      pop\n        /* \"#utility.yul\":29747:29756   */\n      dup2\n        /* \"#utility.yul\":29741:29745   */\n      dup2\n        /* \"#utility.yul\":29737:29757   */\n      sub\n        /* \"#utility.yul\":29733:29734   */\n      0x00\n        /* \"#utility.yul\":29722:29731   */\n      dup4\n        /* \"#utility.yul\":29718:29735   */\n      add\n        /* \"#utility.yul\":29711:29758   */\n      mstore\n        /* \"#utility.yul\":29775:29906   */\n      tag_1110\n        /* \"#utility.yul\":29901:29905   */\n      dup2\n        /* \"#utility.yul\":29775:29906   */\n      tag_786\n      jump\t// in\n    tag_1110:\n        /* \"#utility.yul\":29767:29906   */\n      swap1\n      pop\n        /* \"#utility.yul\":29494:29913   */\n      swap2\n      swap1\n      pop\n      jump\t// out\n\n    auxdata: 0xa264697066735822122080f52a625726cb40f691c23454850d0493b4444b9fb7697cf69f9390a726965a64736f6c63430008120033\n}\n","bytecode":{"linkReferences":{},"object":"60806040523480156200001157600080fd5b5060405162005fd138038062005fd1833981810160405281019062000037919062000169565b336000806101000a81548173ffffffffffffffffffffffffffffffffffffffff021916908373ffffffffffffffffffffffffffffffffffffffff160217905550336000806101000a81548173ffffffffffffffffffffffffffffffffffffffff021916908373ffffffffffffffffffffffffffffffffffffffff16021790555080601560006101000a81548173ffffffffffffffffffffffffffffffffffffffff021916908373ffffffffffffffffffffffffffffffffffffffff160217905550506200019b565b600080fd5b600073ffffffffffffffffffffffffffffffffffffffff82169050919050565b6000620001318262000104565b9050919050565b620001438162000124565b81146200014f57600080fd5b50565b600081519050620001638162000138565b92915050565b600060208284031215620001825762000181620000ff565b5b6000620001928482850162000152565b91505092915050565b615e2680620001ab6000396000f3fe6080604052600436106102075760003560e01c806356c720c311610118578063c6242a8f116100a0578063d6f775c01161006f578063d6f775c0146107e4578063e365a29f14610828578063f5ab5dde14610865578063f778d27b14610881578063feef5e91146108c55761020e565b8063c6242a8f14610719578063c723bf861461075b578063c73b302e1461079d578063d05857e0146107c85761020e565b80639039b99e116100e75780639039b99e146105fb578063a2bdedf414610638578063a87430ba1461067c578063ac2c9c0f146106c0578063c610d2ce146106fd5761020e565b806356c720c3146105625780636b55e9911461057e5780636ba13a82146105a757806383f94db7146105d25761020e565b80632f3f680c1161019b578063448cd56e1161016a578063448cd56e14610453578063481c6a75146104975780634b77f269146104c25780634fc0f8ba1461050457806353b3194c146105205761020e565b80632f3f680c1461039a57806330314fee146103d757806337d3f4fa146103f35780633a4017b4146104375761020e565b80631453d9f2116101d75780631453d9f2146102e857806319266c51146103045780631b0004d9146103205780631ec7d4ad1461035d5761020e565b80623bd2881461025c57806301f2b0111461029957806304c2eaab146102b557806313c050ca146102d15761020e565b3661020e57005b6000601560009054906101000a900473ffffffffffffffffffffffffffffffffffffffff16905060405136600082376000803683855af43d806000843e8160008114610258578184f35b8184fd5b34801561026857600080fd5b50610283600480360381019061027e9190614dac565b610907565b6040516102909190614de8565b60405180910390f35b6102b360048036038101906102ae9190614fba565b61091f565b005b6102cf60048036038101906102ca9190615003565b610b07565b005b3480156102dd57600080fd5b506102e6610f22565b005b61030260048036038101906102fd919061512d565b611061565b005b61031e6004803603810190610319919061522b565b6111b0565b005b34801561032c57600080fd5b506103476004803603810190610342919061522b565b611362565b6040516103549190614de8565b60405180910390f35b34801561036957600080fd5b50610384600480360381019061037f9190615274565b611390565b6040516103919190614de8565b60405180910390f35b3480156103a657600080fd5b506103c160048036038101906103bc919061522b565b6113a8565b6040516103ce91906152bc565b60405180910390f35b6103f160048036038101906103ec91906152d7565b6113de565b005b3480156103ff57600080fd5b5061041a60048036038101906104159190615392565b611961565b60405161042e989796959493929190615460565b60405180910390f35b610451600480360381019061044c9190615526565b611c06565b005b34801561045f57600080fd5b5061047a60048036038101906104759190615392565b61215c565b60405161048e989796959493929190615460565b60405180910390f35b3480156104a357600080fd5b506104ac612401565b6040516104b9919061558d565b60405180910390f35b3480156104ce57600080fd5b506104e960048036038101906104e4919061522b565b612425565b6040516104fb969594939291906155a8565b60405180910390f35b61051e6004803603810190610519919061561e565b61260f565b005b34801561052c57600080fd5b5061054760048036038101906105429190614dac565b612806565b604051610559969594939291906155a8565b60405180910390f35b61057c6004803603810190610577919061561e565b6129ea565b005b34801561058a57600080fd5b506105a560048036038101906105a0919061569c565b612c94565b005b3480156105b357600080fd5b506105bc612d6c565b6040516105c99190614de8565b60405180910390f35b3480156105de57600080fd5b506105f960048036038101906105f49190615274565b612d72565b005b34801561060757600080fd5b50610622600480360381019061061d919061522b565b612e44565b60405161062f9190614de8565b60405180910390f35b34801561064457600080fd5b5061065f600480360381019061065a9190614dac565b612e72565b604051610673989796959493929190615460565b60405180910390f35b34801561068857600080fd5b506106a3600480360381019061069e9190615274565b61310a565b6040516106b7989796959493929190615460565b60405180910390f35b3480156106cc57600080fd5b506106e760048036038101906106e29190615274565b613392565b6040516106f491906152bc565b60405180910390f35b610717600480360381019061071291906152d7565b6133b2565b005b34801561072557600080fd5b50610740600480360381019061073b9190614dac565b613834565b604051610752969594939291906155a8565b60405180910390f35b34801561076757600080fd5b50610782600480360381019061077d919061561e565b613a18565b604051610794969594939291906155a8565b60405180910390f35b3480156107a957600080fd5b506107b2613c09565b6040516107bf9190614de8565b60405180910390f35b6107e260048036038101906107dd91906156c9565b613c0f565b005b3480156107f057600080fd5b5061080b60048036038101906108069190614dac565b613e1d565b60405161081f989796959493929190615460565b60405180910390f35b34801561083457600080fd5b5061084f600480360381019061084a919061522b565b6140b5565b60405161085c91906152bc565b60405180910390f35b61087f600480360381019061087a9190615526565b6140eb565b005b34801561088d57600080fd5b506108a860048036038101906108a3919061522b565b614739565b6040516108bc989796959493929190615460565b60405180910390f35b3480156108d157600080fd5b506108ec60048036038101906108e7919061561e565b6149d7565b6040516108fe969594939291906155a8565b60405180910390f35b60126020528060005260406000206000915090505481565b60008054906101000a900473ffffffffffffffffffffffffffffffffffffffff1673ffffffffffffffffffffffffffffffffffffffff163373ffffffffffffffffffffffffffffffffffffffff161461097757600080fd5b600360006109859190614bc8565b60005b6005811015610b03576003600560008484815181106109aa576109a9615770565b5b602002602001015173ffffffffffffffffffffffffffffffffffffffff1673ffffffffffffffffffffffffffffffffffffffff1681526020019081526020016000209080600181540180825580915050600190039060005260206000209060080201600090919091909150600082015481600001556001820160009054906101000a900473ffffffffffffffffffffffffffffffffffffffff168160010160006101000a81548173ffffffffffffffffffffffffffffffffffffffff021916908373ffffffffffffffffffffffffffffffffffffffff16021790555060028201816002019081610a9a91906159c1565b5060038201816003019081610aaf91906159c1565b5060048201816004019081610ac491906159c1565b50600582015481600501556006820154816006015560078201816007019081610aed91906159c1565b5050508080610afb90615ad8565b915050610988565b5050565b600e60003373ffffffffffffffffffffffffffffffffffffffff1673ffffffffffffffffffffffffffffffffffffffff16815260200190815260200160002060009054906101000a900460ff16610b5d57600080fd5b600060028581548110610b7357610b72615770565b5b906000526020600020906006020190506000600560008673ffffffffffffffffffffffffffffffffffffffff1673ffffffffffffffffffffffffffffffffffffffff1681526020019081526020016000209050806005016000815480929190610bdb90615b20565b9190505550600660008673ffffffffffffffffffffffffffffffffffffffff1673ffffffffffffffffffffffffffffffffffffffff16815260200190815260200160002050601160008673ffffffffffffffffffffffffffffffffffffffff1673ffffffffffffffffffffffffffffffffffffffff1681526020019081526020016000206000815480929190610c7090615b20565b9190505550806001826000015481548110610c8e57610c8d615770565b5b9060005260206000209060080201600082015481600001556001820160009054906101000a900473ffffffffffffffffffffffffffffffffffffffff168160010160006101000a81548173ffffffffffffffffffffffffffffffffffffffff021916908373ffffffffffffffffffffffffffffffffffffffff16021790555060028201816002019081610d2191906159c1565b5060038201816003019081610d3691906159c1565b5060048201816004019081610d4b91906159c1565b50600582015481600501556006820154816006015560078201816007019081610d7491906159c1565b50905050816004016000815480929190610d8d90615b20565b9190505550601260008781526020019081526020016000206000815480929190610db690615b20565b9190505550600660008673ffffffffffffffffffffffffffffffffffffffff1673ffffffffffffffffffffffffffffffffffffffff1681526020019081526020016000208481548110610e0c57610e0b615770565b5b9060005260206000209060060201600080820160009055600182016000610e339190614bec565b600282016000610e439190614bec565b600382016000610e539190614bec565b600482016000905560058201600090555050600860008781526020019081526020016000208381548110610e8a57610e89615770565b5b90600052602060002090600802016000808201600090556001820160006101000a81549073ffffffffffffffffffffffffffffffffffffffff0219169055600282016000610ed89190614bec565b600382016000610ee89190614bec565b600482016000610ef89190614bec565b60058201600090556006820160009055600782016000610f189190614bec565b5050505050505050565b60008054906101000a900473ffffffffffffffffffffffffffffffffffffffff1673ffffffffffffffffffffffffffffffffffffffff163373ffffffffffffffffffffffffffffffffffffffff1614610fb0576040517f08c379a0000000000000000000000000000000000000000000000000000000008152600401610fa790615bbb565b60405180910390fd5b601560009054906101000a900473ffffffffffffffffffffffffffffffffffffffff1673ffffffffffffffffffffffffffffffffffffffff16636b55e991601560009054906101000a900473ffffffffffffffffffffffffffffffffffffffff166040518263ffffffff1660e01b815260040161102d9190615bea565b600060405180830381600087803b15801561104757600080fd5b505af115801561105b573d6000803e3d6000fd5b50505050565b60008054906101000a900473ffffffffffffffffffffffffffffffffffffffff1673ffffffffffffffffffffffffffffffffffffffff163373ffffffffffffffffffffffffffffffffffffffff16146110b957600080fd5b600460006110c79190614c2c565b60005b60058110156111ac57600460028383815181106110ea576110e9615770565b5b60200260200101518154811061110357611102615770565b5b90600052602060002090600602019080600181540180825580915050600190039060005260206000209060060201600090919091909150600082015481600001556001820181600101908161115891906159c1565b506002820181600201908161116d91906159c1565b506003820181600301908161118291906159c1565b506004820154816004015560058201548160050155505080806111a490615ad8565b9150506110ca565b5050565b600e60003373ffffffffffffffffffffffffffffffffffffffff1673ffffffffffffffffffffffffffffffffffffffff16815260200190815260200160002060009054906101000a900460ff1661120657600080fd5b6000600560003373ffffffffffffffffffffffffffffffffffffffff1673ffffffffffffffffffffffffffffffffffffffff16815260200190815260200160002090508181600701908161125a9190615c05565b5080600182600001548154811061127457611273615770565b5b9060005260206000209060080201600082015481600001556001820160009054906101000a900473ffffffffffffffffffffffffffffffffffffffff168160010160006101000a81548173ffffffffffffffffffffffffffffffffffffffff021916908373ffffffffffffffffffffffffffffffffffffffff1602179055506002820181600201908161130791906159c1565b506003820181600301908161131c91906159c1565b506004820181600401908161133191906159c1565b5060058201548160050155600682015481600601556007820181600701908161135a91906159c1565b509050505050565b600c818051602081018201805184825260208301602085012081835280955050505050506000915090505481565b60116020528060005260406000206000915090505481565b600f818051602081018201805184825260208301602085012081835280955050505050506000915054906101000a900460ff1681565b6010836040516113ee9190615d13565b908152602001604051809103902060009054906101000a900460ff161561141457600080fd5b6000600560008673ffffffffffffffffffffffffffffffffffffffff1673ffffffffffffffffffffffffffffffffffffffff168152602001908152602001600020905080600501600081548092919061146c90615ad8565b91905055506000600260018160018154018082558091505003906000526020600020906006020190506014548160000181905550848160010190816114b19190615c05565b50838160030190816114c39190615c05565b50828160020190816114d59190615c05565b508060040160008154809291906114eb90615ad8565b919050555060016010866040516115029190615d13565b908152602001604051809103902060006101000a81548160ff021916908315150217905550806007866040516115389190615d13565b9081526020016040518091039020600082015481600001556001820181600101908161156491906159c1565b506002820181600201908161157991906159c1565b506003820181600301908161158e91906159c1565b5060048201548160040155600582015481600501559050508160018360000154815481106115bf576115be615770565b5b9060005260206000209060080201600082015481600001556001820160009054906101000a900473ffffffffffffffffffffffffffffffffffffffff168160010160006101000a81548173ffffffffffffffffffffffffffffffffffffffff021916908373ffffffffffffffffffffffffffffffffffffffff1602179055506002820181600201908161165291906159c1565b506003820181600301908161166791906159c1565b506004820181600401908161167c91906159c1565b506005820154816005015560068201548160060155600782018160070190816116a591906159c1565b5090505060126000601454815260200190815260200160002060008154809291906116cf90615ad8565b9190505550601160008773ffffffffffffffffffffffffffffffffffffffff1673ffffffffffffffffffffffffffffffffffffffff168152602001908152602001600020600081548092919061172490615ad8565b9190505550600660008773ffffffffffffffffffffffffffffffffffffffff1673ffffffffffffffffffffffffffffffffffffffff16815260200190815260200160002081908060018154018082558091505060019003906000526020600020906006020160009091909190915060008201548160000155600182018160010190816117b091906159c1565b50600282018160020190816117c591906159c1565b50600382018160030190816117da91906159c1565b5060048201548160040155600582015481600501555050600860006014548152602001908152602001600020829080600181540180825580915050600190039060005260206000209060080201600090919091909150600082015481600001556001820160009054906101000a900473ffffffffffffffffffffffffffffffffffffffff168160010160006101000a81548173ffffffffffffffffffffffffffffffffffffffff021916908373ffffffffffffffffffffffffffffffffffffffff160217905550600282018160020190816118b591906159c1565b50600382018160030190816118ca91906159c1565b50600482018160040190816118df91906159c1565b5060058201548160050155600682015481600601556007820181600701908161190891906159c1565b5050506001600d8460405161191d9190615d13565b9081526020016040518091039020600082825461193a9190615d2a565b925050819055506014600081548092919061195490615ad8565b9190505550505050505050565b6008602052816000526040600020818154811061197d57600080fd5b9060005260206000209060080201600091509150508060000154908060010160009054906101000a900473ffffffffffffffffffffffffffffffffffffffff16908060020180546119cd906157ce565b80601f01602080910402602001604051908101604052809291908181526020018280546119f9906157ce565b8015611a465780601f10611a1b57610100808354040283529160200191611a46565b820191906000526020600020905b815481529060010190602001808311611a2957829003601f168201915b505050505090806003018054611a5b906157ce565b80601f0160208091040260200160405190810160405280929190818152602001828054611a87906157ce565b8015611ad45780601f10611aa957610100808354040283529160200191611ad4565b820191906000526020600020905b815481529060010190602001808311611ab757829003601f168201915b505050505090806004018054611ae9906157ce565b80601f0160208091040260200160405190810160405280929190818152602001828054611b15906157ce565b8015611b625780601f10611b3757610100808354040283529160200191611b62565b820191906000526020600020905b815481529060010190602001808311611b4557829003601f168201915b505050505090806005015490806006015490806007018054611b83906157ce565b80601f0160208091040260200160405190810160405280929190818152602001828054611baf906157ce565b8015611bfc5780601f10611bd157610100808354040283529160200191611bfc565b820191906000526020600020905b815481529060010190602001808311611bdf57829003601f168201915b5050505050905088565b600e60008573ffffffffffffffffffffffffffffffffffffffff1673ffffffffffffffffffffffffffffffffffffffff16815260200190815260200160002060009054906101000a900460ff16611c5c57600080fd5b600060028481548110611c7257611c71615770565b5b906000526020600020906006020190506000600560008773ffffffffffffffffffffffffffffffffffffffff1673ffffffffffffffffffffffffffffffffffffffff1681526020019081526020016000209050821561208557806005016000815480929190611ce090615ad8565b9190505550600660008773ffffffffffffffffffffffffffffffffffffffff1673ffffffffffffffffffffffffffffffffffffffff1681526020019081526020016000208290806001815401808255809150506001900390600052602060002090600602016000909190919091506000820154816000015560018201816001019081611d6c91906159c1565b5060028201816002019081611d8191906159c1565b5060038201816003019081611d9691906159c1565b5060048201548160040155600582015481600501555050816004016000815480929190611dc290615ad8565b919050555060086000868152602001908152602001600020819080600181540180825580915050600190039060005260206000209060080201600090919091909150600082015481600001556001820160009054906101000a900473ffffffffffffffffffffffffffffffffffffffff168160010160006101000a81548173ffffffffffffffffffffffffffffffffffffffff021916908373ffffffffffffffffffffffffffffffffffffffff16021790555060028201816002019081611e8991906159c1565b5060038201816003019081611e9e91906159c1565b5060048201816004019081611eb391906159c1565b50600582015481600501556006820154816006015560078201816007019081611edc91906159c1565b505050601160008260010160009054906101000a900473ffffffffffffffffffffffffffffffffffffffff1673ffffffffffffffffffffffffffffffffffffffff1673ffffffffffffffffffffffffffffffffffffffff1681526020019081526020016000206000815480929190611f5390615ad8565b9190505550601260008681526020019081526020016000206000815480929190611f7c90615ad8565b9190505550806001826000015481548110611f9a57611f99615770565b5b9060005260206000209060080201600082015481600001556001820160009054906101000a900473ffffffffffffffffffffffffffffffffffffffff168160010160006101000a81548173ffffffffffffffffffffffffffffffffffffffff021916908373ffffffffffffffffffffffffffffffffffffffff1602179055506002820181600201908161202d91906159c1565b506003820181600301908161204291906159c1565b506004820181600401908161205791906159c1565b5060058201548160050155600682015481600601556007820181600701908161208091906159c1565b509050505b81600501600081548092919061209a90615b20565b91905055506009600086815260200190815260200160002084815481106120c4576120c3615770565b5b90600052602060002090600802016000808201600090556001820160006101000a81549073ffffffffffffffffffffffffffffffffffffffff02191690556002820160006121129190614bec565b6003820160006121229190614bec565b6004820160006121329190614bec565b600582016000905560068201600090556007820160006121529190614bec565b5050505050505050565b6009602052816000526040600020818154811061217857600080fd5b9060005260206000209060080201600091509150508060000154908060010160009054906101000a900473ffffffffffffffffffffffffffffffffffffffff16908060020180546121c8906157ce565b80601f01602080910402602001604051908101604052809291908181526020018280546121f4906157ce565b80156122415780601f1061221657610100808354040283529160200191612241565b820191906000526020600020905b81548152906001019060200180831161222457829003601f168201915b505050505090806003018054612256906157ce565b80601f0160208091040260200160405190810160405280929190818152602001828054612282906157ce565b80156122cf5780601f106122a4576101008083540402835291602001916122cf565b820191906000526020600020905b8154815290600101906020018083116122b257829003601f168201915b5050505050908060040180546122e4906157ce565b80601f0160208091040260200160405190810160405280929190818152602001828054612310906157ce565b801561235d5780601f106123325761010080835404028352916020019161235d565b820191906000526020600020905b81548152906001019060200180831161234057829003601f168201915b50505050509080600501549080600601549080600701805461237e906157ce565b80601f01602080910402602001604051908101604052809291908181526020018280546123aa906157ce565b80156123f75780601f106123cc576101008083540402835291602001916123f7565b820191906000526020600020905b8154815290600101906020018083116123da57829003601f168201915b5050505050905088565b60008054906101000a900473ffffffffffffffffffffffffffffffffffffffff1681565b600781805160208101820180518482526020830160208501208183528095505050505050600091509050806000015490806001018054612464906157ce565b80601f0160208091040260200160405190810160405280929190818152602001828054612490906157ce565b80156124dd5780601f106124b2576101008083540402835291602001916124dd565b820191906000526020600020905b8154815290600101906020018083116124c057829003601f168201915b5050505050908060020180546124f2906157ce565b80601f016020809104026020016040519081016040528092919081815260200182805461251e906157ce565b801561256b5780601f106125405761010080835404028352916020019161256b565b820191906000526020600020905b81548152906001019060200180831161254e57829003601f168201915b505050505090806003018054612580906157ce565b80601f01602080910402602001604051908101604052809291908181526020018280546125ac906157ce565b80156125f95780601f106125ce576101008083540402835291602001916125f9565b820191906000526020600020905b8154815290600101906020018083116125dc57829003601f168201915b5050505050908060040154908060050154905086565b600e60008373ffffffffffffffffffffffffffffffffffffffff1673ffffffffffffffffffffffffffffffffffffffff16815260200190815260200160002060009054906101000a900460ff1661266557600080fd5b6000600560008473ffffffffffffffffffffffffffffffffffffffff1673ffffffffffffffffffffffffffffffffffffffff16815260200190815260200160002090506000600283815481106126be576126bd615770565b5b906000526020600020906006020190508060050160008154809291906126e390615ad8565b919050555060096000848152602001908152602001600020829080600181540180825580915050600190039060005260206000209060080201600090919091909150600082015481600001556001820160009054906101000a900473ffffffffffffffffffffffffffffffffffffffff168160010160006101000a81548173ffffffffffffffffffffffffffffffffffffffff021916908373ffffffffffffffffffffffffffffffffffffffff160217905550600282018160020190816127aa91906159c1565b50600382018160030190816127bf91906159c1565b50600482018160040190816127d491906159c1565b506005820154816005015560068201548160060155600782018160070190816127fd91906159c1565b50505050505050565b6002818154811061281657600080fd5b906000526020600020906006020160009150905080600001549080600101805461283f906157ce565b80601f016020809104026020016040519081016040528092919081815260200182805461286b906157ce565b80156128b85780601f1061288d576101008083540402835291602001916128b8565b820191906000526020600020905b81548152906001019060200180831161289b57829003601f168201915b5050505050908060020180546128cd906157ce565b80601f01602080910402602001604051908101604052809291908181526020018280546128f9906157ce565b80156129465780601f1061291b57610100808354040283529160200191612946565b820191906000526020600020905b81548152906001019060200180831161292957829003601f168201915b50505050509080600301805461295b906157ce565b80601f0160208091040260200160405190810160405280929190818152602001828054612987906157ce565b80156129d45780601f106129a9576101008083540402835291602001916129d4565b820191906000526020600020905b8154815290600101906020018083116129b757829003601f168201915b5050505050908060040154908060050154905086565b600e60003373ffffffffffffffffffffffffffffffffffffffff1673ffffffffffffffffffffffffffffffffffffffff16815260200190815260200160002060009054906101000a900460ff16612a4057600080fd5b6000600560008473ffffffffffffffffffffffffffffffffffffffff1673ffffffffffffffffffffffffffffffffffffffff1681526020019081526020016000209050600060028381548110612a9957612a98615770565b5b90600052602060002090600602019050816006016000815480929190612abe90615ad8565b9190505550816001836000015481548110612adc57612adb615770565b5b9060005260206000209060080201600082015481600001556001820160009054906101000a900473ffffffffffffffffffffffffffffffffffffffff168160010160006101000a81548173ffffffffffffffffffffffffffffffffffffffff021916908373ffffffffffffffffffffffffffffffffffffffff16021790555060028201816002019081612b6f91906159c1565b5060038201816003019081612b8491906159c1565b5060048201816004019081612b9991906159c1565b50600582015481600501556006820154816006015560078201816007019081612bc291906159c1565b50905050600a60008573ffffffffffffffffffffffffffffffffffffffff1673ffffffffffffffffffffffffffffffffffffffff1681526020019081526020016000208190806001815401808255809150506001900390600052602060002090600602016000909190919091506000820154816000015560018201816001019081612c4d91906159c1565b5060028201816002019081612c6291906159c1565b5060038201816003019081612c7791906159c1565b506004820154816004015560058201548160050155505050505050565b60008054906101000a900473ffffffffffffffffffffffffffffffffffffffff1673ffffffffffffffffffffffffffffffffffffffff163373ffffffffffffffffffffffffffffffffffffffff1614612d22576040517f08c379a0000000000000000000000000000000000000000000000000000000008152600401612d1990615bbb565b60405180910390fd5b8073ffffffffffffffffffffffffffffffffffffffff166108fc479081150290604051600060405180830381858888f19350505050158015612d68573d6000803e3d6000fd5b5050565b60135481565b60008054906101000a900473ffffffffffffffffffffffffffffffffffffffff1673ffffffffffffffffffffffffffffffffffffffff163373ffffffffffffffffffffffffffffffffffffffff1614612e00576040517f08c379a0000000000000000000000000000000000000000000000000000000008152600401612df790615dd0565b60405180910390fd5b80601560006101000a81548173ffffffffffffffffffffffffffffffffffffffff021916908373ffffffffffffffffffffffffffffffffffffffff16021790555050565b600d818051602081018201805184825260208301602085012081835280955050505050506000915090505481565b60018181548110612e8257600080fd5b90600052602060002090600802016000915090508060000154908060010160009054906101000a900473ffffffffffffffffffffffffffffffffffffffff1690806002018054612ed1906157ce565b80601f0160208091040260200160405190810160405280929190818152602001828054612efd906157ce565b8015612f4a5780601f10612f1f57610100808354040283529160200191612f4a565b820191906000526020600020905b815481529060010190602001808311612f2d57829003601f168201915b505050505090806003018054612f5f906157ce565b80601f0160208091040260200160405190810160405280929190818152602001828054612f8b906157ce565b8015612fd85780601f10612fad57610100808354040283529160200191612fd8565b820191906000526020600020905b815481529060010190602001808311612fbb57829003601f168201915b505050505090806004018054612fed906157ce565b80601f0160208091040260200160405190810160405280929190818152602001828054613019906157ce565b80156130665780601f1061303b57610100808354040283529160200191613066565b820191906000526020600020905b81548152906001019060200180831161304957829003601f168201915b505050505090806005015490806006015490806007018054613087906157ce565b80601f01602080910402602001604051908101604052809291908181526020018280546130b3906157ce565b80156131005780601f106130d557610100808354040283529160200191613100565b820191906000526020600020905b8154815290600101906020018083116130e357829003601f168201915b5050505050905088565b60056020528060005260406000206000915090508060000154908060010160009054906101000a900473ffffffffffffffffffffffffffffffffffffffff1690806002018054613159906157ce565b80601f0160208091040260200160405190810160405280929190818152602001828054613185906157ce565b80156131d25780601f106131a7576101008083540402835291602001916131d2565b820191906000526020600020905b8154815290600101906020018083116131b557829003601f168201915b5050505050908060030180546131e7906157ce565b80601f0160208091040260200160405190810160405280929190818152602001828054613213906157ce565b80156132605780601f1061323557610100808354040283529160200191613260565b820191906000526020600020905b81548152906001019060200180831161324357829003601f168201915b505050505090806004018054613275906157ce565b80601f01602080910402602001604051908101604052809291908181526020018280546132a1906157ce565b80156132ee5780601f106132c3576101008083540402835291602001916132ee565b820191906000526020600020905b8154815290600101906020018083116132d157829003601f168201915b50505050509080600501549080600601549080600701805461330f906157ce565b80601f016020809104026020016040519081016040528092919081815260200182805461333b906157ce565b80156133885780601f1061335d57610100808354040283529160200191613388565b820191906000526020600020905b81548152906001019060200180831161336b57829003601f168201915b5050505050905088565b600e6020528060005260406000206000915054906101000a900460ff1681565b600e60008573ffffffffffffffffffffffffffffffffffffffff1673ffffffffffffffffffffffffffffffffffffffff16815260200190815260200160002060009054906101000a900460ff161561340957600080fd5b600f836040516134199190615d13565b908152602001604051809103902060009054906101000a900460ff161561343f57600080fd5b60006001808160018154018082558091505003906000526020600020906008020190506013548160000181905550848160010160006101000a81548173ffffffffffffffffffffffffffffffffffffffff021916908373ffffffffffffffffffffffffffffffffffffffff160217905550838160020190816134c19190615c05565b50828160030190816134d39190615c05565b50818160040190816134e59190615c05565b50600081600601819055506040518060400160405280600181526020017f30000000000000000000000000000000000000000000000000000000000000008152508160070190816135369190615c05565b5080600560008773ffffffffffffffffffffffffffffffffffffffff1673ffffffffffffffffffffffffffffffffffffffff168152602001908152602001600020600082015481600001556001820160009054906101000a900473ffffffffffffffffffffffffffffffffffffffff168160010160006101000a81548173ffffffffffffffffffffffffffffffffffffffff021916908373ffffffffffffffffffffffffffffffffffffffff160217905550600282018160020190816135fc91906159c1565b506003820181600301908161361191906159c1565b506004820181600401908161362691906159c1565b5060058201548160050155600682015481600601556007820181600701908161364f91906159c1565b5090505080600b856040516136649190615d13565b9081526020016040518091039020600082015481600001556001820160009054906101000a900473ffffffffffffffffffffffffffffffffffffffff168160010160006101000a81548173ffffffffffffffffffffffffffffffffffffffff021916908373ffffffffffffffffffffffffffffffffffffffff160217905550600282018160020190816136f791906159c1565b506003820181600301908161370c91906159c1565b506004820181600401908161372191906159c1565b5060058201548160050155600682015481600601556007820181600701908161374a91906159c1565b509050506001600e60008773ffffffffffffffffffffffffffffffffffffffff1673ffffffffffffffffffffffffffffffffffffffff16815260200190815260200160002060006101000a81548160ff0219169083151502179055506001600f856040516137b89190615d13565b908152602001604051809103902060006101000a81548160ff0219169083151502179055506001600c846040516137ef9190615d13565b9081526020016040518091039020600082825461380c9190615d2a565b925050819055506001601360008282546138269190615d2a565b925050819055505050505050565b6004818154811061384457600080fd5b906000526020600020906006020160009150905080600001549080600101805461386d906157ce565b80601f0160208091040260200160405190810160405280929190818152602001828054613899906157ce565b80156138e65780601f106138bb576101008083540402835291602001916138e6565b820191906000526020600020905b8154815290600101906020018083116138c957829003601f168201915b5050505050908060020180546138fb906157ce565b80601f0160208091040260200160405190810160405280929190818152602001828054613927906157ce565b80156139745780601f1061394957610100808354040283529160200191613974565b820191906000526020600020905b81548152906001019060200180831161395757829003601f168201915b505050505090806003018054613989906157ce565b80601f01602080910402602001604051908101604052809291908181526020018280546139b5906157ce565b8015613a025780601f106139d757610100808354040283529160200191613a02565b820191906000526020600020905b8154815290600101906020018083116139e557829003601f168201915b5050505050908060040154908060050154905086565b60066020528160005260406000208181548110613a3457600080fd5b906000526020600020906006020160009150915050806000015490806001018054613a5e906157ce565b80601f0160208091040260200160405190810160405280929190818152602001828054613a8a906157ce565b8015613ad75780601f10613aac57610100808354040283529160200191613ad7565b820191906000526020600020905b815481529060010190602001808311613aba57829003601f168201915b505050505090806002018054613aec906157ce565b80601f0160208091040260200160405190810160405280929190818152602001828054613b18906157ce565b8015613b655780601f10613b3a57610100808354040283529160200191613b65565b820191906000526020600020905b815481529060010190602001808311613b4857829003601f168201915b505050505090806003018054613b7a906157ce565b80601f0160208091040260200160405190810160405280929190818152602001828054613ba6906157ce565b8015613bf35780601f10613bc857610100808354040283529160200191613bf3565b820191906000526020600020905b815481529060010190602001808311613bd657829003601f168201915b5050505050908060040154908060050154905086565b60145481565b600e60003373ffffffffffffffffffffffffffffffffffffffff1673ffffffffffffffffffffffffffffffffffffffff16815260200190815260200160002060009054906101000a900460ff16613c6557600080fd5b600f83604051613c759190615d13565b908152602001604051809103902060009054906101000a900460ff1615613c9b57600080fd5b6000600560003373ffffffffffffffffffffffffffffffffffffffff1673ffffffffffffffffffffffffffffffffffffffff168152602001908152602001600020905083816002019081613cef9190615c05565b5082816003019081613d019190615c05565b5081816004019081613d139190615c05565b50806001826000015481548110613d2d57613d2c615770565b5b9060005260206000209060080201600082015481600001556001820160009054906101000a900473ffffffffffffffffffffffffffffffffffffffff168160010160006101000a81548173ffffffffffffffffffffffffffffffffffffffff021916908373ffffffffffffffffffffffffffffffffffffffff16021790555060028201816002019081613dc091906159c1565b5060038201816003019081613dd591906159c1565b5060048201816004019081613dea91906159c1565b50600582015481600501556006820154816006015560078201816007019081613e1391906159c1565b5090505050505050565b60038181548110613e2d57600080fd5b90600052602060002090600802016000915090508060000154908060010160009054906101000a900473ffffffffffffffffffffffffffffffffffffffff1690806002018054613e7c906157ce565b80601f0160208091040260200160405190810160405280929190818152602001828054613ea8906157ce565b8015613ef55780601f10613eca57610100808354040283529160200191613ef5565b820191906000526020600020905b815481529060010190602001808311613ed857829003601f168201915b505050505090806003018054613f0a906157ce565b80601f0160208091040260200160405190810160405280929190818152602001828054613f36906157ce565b8015613f835780601f10613f5857610100808354040283529160200191613f83565b820191906000526020600020905b815481529060010190602001808311613f6657829003601f168201915b505050505090806004018054613f98906157ce565b80601f0160208091040260200160405190810160405280929190818152602001828054613fc4906157ce565b80156140115780601f10613fe657610100808354040283529160200191614011565b820191906000526020600020905b815481529060010190602001808311613ff457829003601f168201915b505050505090806005015490806006015490806007018054614032906157ce565b80601f016020809104026020016040519081016040528092919081815260200182805461405e906157ce565b80156140ab5780601f10614080576101008083540402835291602001916140ab565b820191906000526020600020905b81548152906001019060200180831161408e57829003601f168201915b5050505050905088565b6010818051602081018201805184825260208301602085012081835280955050505050506000915054906101000a900460ff1681565b600e60008573ffffffffffffffffffffffffffffffffffffffff1673ffffffffffffffffffffffffffffffffffffffff16815260200190815260200160002060009054906101000a900460ff1661414157600080fd5b6000600560008673ffffffffffffffffffffffffffffffffffffffff1673ffffffffffffffffffffffffffffffffffffffff168152602001908152602001600020905060006002858154811061419a57614199615770565b5b90600052602060002090600602019050821561456a578160050160008154809291906141c590615ad8565b9190505550600660008773ffffffffffffffffffffffffffffffffffffffff1673ffffffffffffffffffffffffffffffffffffffff168152602001908152602001600020819080600181540180825580915050600190039060005260206000209060060201600090919091909150600082015481600001556001820181600101908161425191906159c1565b506002820181600201908161426691906159c1565b506003820181600301908161427b91906159c1565b50600482015481600401556005820154816005015550508060040160008154809291906142a790615ad8565b919050555060086000868152602001908152602001600020829080600181540180825580915050600190039060005260206000209060080201600090919091909150600082015481600001556001820160009054906101000a900473ffffffffffffffffffffffffffffffffffffffff168160010160006101000a81548173ffffffffffffffffffffffffffffffffffffffff021916908373ffffffffffffffffffffffffffffffffffffffff1602179055506002820181600201908161436e91906159c1565b506003820181600301908161438391906159c1565b506004820181600401908161439891906159c1565b506005820154816005015560068201548160060155600782018160070190816143c191906159c1565b505050601160008360010160009054906101000a900473ffffffffffffffffffffffffffffffffffffffff1673ffffffffffffffffffffffffffffffffffffffff1673ffffffffffffffffffffffffffffffffffffffff168152602001908152602001600020600081548092919061443890615ad8565b919050555060126000868152602001908152602001600020600081548092919061446190615ad8565b919050555081600183600001548154811061447f5761447e615770565b5b9060005260206000209060080201600082015481600001556001820160009054906101000a900473ffffffffffffffffffffffffffffffffffffffff168160010160006101000a81548173ffffffffffffffffffffffffffffffffffffffff021916908373ffffffffffffffffffffffffffffffffffffffff1602179055506002820181600201908161451291906159c1565b506003820181600301908161452791906159c1565b506004820181600401908161453c91906159c1565b5060058201548160050155600682015481600601556007820181600701908161456591906159c1565b509050505b81600601600081548092919061457f90615b20565b919050555081600183600001548154811061459d5761459c615770565b5b9060005260206000209060080201600082015481600001556001820160009054906101000a900473ffffffffffffffffffffffffffffffffffffffff168160010160006101000a81548173ffffffffffffffffffffffffffffffffffffffff021916908373ffffffffffffffffffffffffffffffffffffffff1602179055506002820181600201908161463091906159c1565b506003820181600301908161464591906159c1565b506004820181600401908161465a91906159c1565b5060058201548160050155600682015481600601556007820181600701908161468391906159c1565b50905050600a60008773ffffffffffffffffffffffffffffffffffffffff1673ffffffffffffffffffffffffffffffffffffffff16815260200190815260200160002084815481106146d8576146d7615770565b5b90600052602060002090600602016000808201600090556001820160006146ff9190614bec565b60028201600061470f9190614bec565b60038201600061471f9190614bec565b600482016000905560058201600090555050505050505050565b600b818051602081018201805184825260208301602085012081835280955050505050506000915090508060000154908060010160009054906101000a900473ffffffffffffffffffffffffffffffffffffffff169080600201805461479e906157ce565b80601f01602080910402602001604051908101604052809291908181526020018280546147ca906157ce565b80156148175780601f106147ec57610100808354040283529160200191614817565b820191906000526020600020905b8154815290600101906020018083116147fa57829003601f168201915b50505050509080600301805461482c906157ce565b80601f0160208091040260200160405190810160405280929190818152602001828054614858906157ce565b80156148a55780601f1061487a576101008083540402835291602001916148a5565b820191906000526020600020905b81548152906001019060200180831161488857829003601f168201915b5050505050908060040180546148ba906157ce565b80601f01602080910402602001604051908101604052809291908181526020018280546148e6906157ce565b80156149335780601f1061490857610100808354040283529160200191614933565b820191906000526020600020905b81548152906001019060200180831161491657829003601f168201915b505050505090806005015490806006015490806007018054614954906157ce565b80601f0160208091040260200160405190810160405280929190818152602001828054614980906157ce565b80156149cd5780601f106149a2576101008083540402835291602001916149cd565b820191906000526020600020905b8154815290600101906020018083116149b057829003601f168201915b5050505050905088565b600a60205281600052604060002081815481106149f357600080fd5b906000526020600020906006020160009150915050806000015490806001018054614a1d906157ce565b80601f0160208091040260200160405190810160405280929190818152602001828054614a49906157ce565b8015614a965780601f10614a6b57610100808354040283529160200191614a96565b820191906000526020600020905b815481529060010190602001808311614a7957829003601f168201915b505050505090806002018054614aab906157ce565b80601f0160208091040260200160405190810160405280929190818152602001828054614ad7906157ce565b8015614b245780601f10614af957610100808354040283529160200191614b24565b820191906000526020600020905b815481529060010190602001808311614b0757829003601f168201915b505050505090806003018054614b39906157ce565b80601f0160208091040260200160405190810160405280929190818152602001828054614b65906157ce565b8015614bb25780601f10614b8757610100808354040283529160200191614bb2565b820191906000526020600020905b815481529060010190602001808311614b9557829003601f168201915b5050505050908060040154908060050154905086565b5080546000825560080290600052602060002090810190614be99190614c50565b50565b508054614bf8906157ce565b6000825580601f10614c0a5750614c29565b601f016020900490600052602060002090810190614c289190614ce6565b5b50565b5080546000825560060290600052602060002090810190614c4d9190614d03565b50565b5b80821115614ce2576000808201600090556001820160006101000a81549073ffffffffffffffffffffffffffffffffffffffff0219169055600282016000614c999190614bec565b600382016000614ca99190614bec565b600482016000614cb99190614bec565b60058201600090556006820160009055600782016000614cd99190614bec565b50600801614c51565b5090565b5b80821115614cff576000816000905550600101614ce7565b5090565b5b80821115614d5e57600080820160009055600182016000614d259190614bec565b600282016000614d359190614bec565b600382016000614d459190614bec565b6004820160009055600582016000905550600601614d04565b5090565b6000604051905090565b600080fd5b600080fd5b6000819050919050565b614d8981614d76565b8114614d9457600080fd5b50565b600081359050614da681614d80565b92915050565b600060208284031215614dc257614dc1614d6c565b5b6000614dd084828501614d97565b91505092915050565b614de281614d76565b82525050565b6000602082019050614dfd6000830184614dd9565b92915050565b600080fd5b6000601f19601f8301169050919050565b7f4e487b7100000000000000000000000000000000000000000000000000000000600052604160045260246000fd5b614e5182614e08565b810181811067ffffffffffffffff82111715614e7057614e6f614e19565b5b80604052505050565b6000614e83614d62565b9050614e8f8282614e48565b919050565b600067ffffffffffffffff821115614eaf57614eae614e19565b5b602082029050602081019050919050565b600080fd5b600073ffffffffffffffffffffffffffffffffffffffff82169050919050565b6000614ef082614ec5565b9050919050565b614f0081614ee5565b8114614f0b57600080fd5b50565b600081359050614f1d81614ef7565b92915050565b6000614f36614f3184614e94565b614e79565b90508083825260208201905060208402830185811115614f5957614f58614ec0565b5b835b81811015614f825780614f6e8882614f0e565b845260208401935050602081019050614f5b565b5050509392505050565b600082601f830112614fa157614fa0614e03565b5b8135614fb1848260208601614f23565b91505092915050565b600060208284031215614fd057614fcf614d6c565b5b600082013567ffffffffffffffff811115614fee57614fed614d71565b5b614ffa84828501614f8c565b91505092915050565b6000806000806080858703121561501d5761501c614d6c565b5b600061502b87828801614d97565b945050602061503c87828801614f0e565b935050604061504d87828801614d97565b925050606061505e87828801614d97565b91505092959194509250565b600067ffffffffffffffff82111561508557615084614e19565b5b602082029050602081019050919050565b60006150a96150a48461506a565b614e79565b905080838252602082019050602084028301858111156150cc576150cb614ec0565b5b835b818110156150f557806150e18882614d97565b8452602084019350506020810190506150ce565b5050509392505050565b600082601f83011261511457615113614e03565b5b8135615124848260208601615096565b91505092915050565b60006020828403121561514357615142614d6c565b5b600082013567ffffffffffffffff81111561516157615160614d71565b5b61516d848285016150ff565b91505092915050565b600080fd5b600067ffffffffffffffff82111561519657615195614e19565b5b61519f82614e08565b9050602081019050919050565b82818337600083830152505050565b60006151ce6151c98461517b565b614e79565b9050828152602081018484840111156151ea576151e9615176565b5b6151f58482856151ac565b509392505050565b600082601f83011261521257615211614e03565b5b81356152228482602086016151bb565b91505092915050565b60006020828403121561524157615240614d6c565b5b600082013567ffffffffffffffff81111561525f5761525e614d71565b5b61526b848285016151fd565b91505092915050565b60006020828403121561528a57615289614d6c565b5b600061529884828501614f0e565b91505092915050565b60008115159050919050565b6152b6816152a1565b82525050565b60006020820190506152d160008301846152ad565b92915050565b600080600080608085870312156152f1576152f0614d6c565b5b60006152ff87828801614f0e565b945050602085013567ffffffffffffffff8111156153205761531f614d71565b5b61532c878288016151fd565b935050604085013567ffffffffffffffff81111561534d5761534c614d71565b5b615359878288016151fd565b925050606085013567ffffffffffffffff81111561537a57615379614d71565b5b615386878288016151fd565b91505092959194509250565b600080604083850312156153a9576153a8614d6c565b5b60006153b785828601614d97565b92505060206153c885828601614d97565b9150509250929050565b6153db81614ee5565b82525050565b600081519050919050565b600082825260208201905092915050565b60005b8381101561541b578082015181840152602081019050615400565b60008484015250505050565b6000615432826153e1565b61543c81856153ec565b935061544c8185602086016153fd565b61545581614e08565b840191505092915050565b600061010082019050615476600083018b614dd9565b615483602083018a6153d2565b81810360408301526154958189615427565b905081810360608301526154a98188615427565b905081810360808301526154bd8187615427565b90506154cc60a0830186614dd9565b6154d960c0830185614dd9565b81810360e08301526154eb8184615427565b90509998505050505050505050565b615503816152a1565b811461550e57600080fd5b50565b600081359050615520816154fa565b92915050565b600080600080608085870312156155405761553f614d6c565b5b600061554e87828801614f0e565b945050602061555f87828801614d97565b935050604061557087828801614d97565b925050606061558187828801615511565b91505092959194509250565b60006020820190506155a260008301846153d2565b92915050565b600060c0820190506155bd6000830189614dd9565b81810360208301526155cf8188615427565b905081810360408301526155e38187615427565b905081810360608301526155f78186615427565b90506156066080830185614dd9565b61561360a0830184614dd9565b979650505050505050565b6000806040838503121561563557615634614d6c565b5b600061564385828601614f0e565b925050602061565485828601614d97565b9150509250929050565b600061566982614ec5565b9050919050565b6156798161565e565b811461568457600080fd5b50565b60008135905061569681615670565b92915050565b6000602082840312156156b2576156b1614d6c565b5b60006156c084828501615687565b91505092915050565b6000806000606084860312156156e2576156e1614d6c565b5b600084013567ffffffffffffffff811115615700576156ff614d71565b5b61570c868287016151fd565b935050602084013567ffffffffffffffff81111561572d5761572c614d71565b5b615739868287016151fd565b925050604084013567ffffffffffffffff81111561575a57615759614d71565b5b615766868287016151fd565b9150509250925092565b7f4e487b7100000000000000000000000000000000000000000000000000000000600052603260045260246000fd5b7f4e487b7100000000000000000000000000000000000000000000000000000000600052602260045260246000fd5b600060028204905060018216806157e657607f821691505b6020821081036157f9576157f861579f565b5b50919050565b60008154905061580e816157ce565b9050919050565b60008190508160005260206000209050919050565b60006020601f8301049050919050565b600082821b905092915050565b6000600883026158777fffffffffffffffffffffffffffffffffffffffffffffffffffffffffffffffff8261583a565b615881868361583a565b95508019841693508086168417925050509392505050565b6000819050919050565b60006158be6158b96158b484614d76565b615899565b614d76565b9050919050565b6000819050919050565b6158d8836158a3565b6158ec6158e4826158c5565b848454615847565b825550505050565b600090565b6159016158f4565b61590c8184846158cf565b505050565b5b81811015615930576159256000826158f9565b600181019050615912565b5050565b601f8211156159755761594681615815565b61594f8461582a565b8101602085101561595e578190505b61597261596a8561582a565b830182615911565b50505b505050565b600082821c905092915050565b60006159986000198460080261597a565b1980831691505092915050565b60006159b18383615987565b9150826002028217905092915050565b8181036159cf575050615aa7565b6159d8826157ff565b67ffffffffffffffff8111156159f1576159f0614e19565b5b6159fb82546157ce565b615a06828285615934565b6000601f831160018114615a355760008415615a23578287015490505b615a2d85826159a5565b865550615aa0565b601f198416615a4387615815565b9650615a4e86615815565b60005b82811015615a7657848901548255600182019150600185019450602081019050615a51565b86831015615a935784890154615a8f601f891682615987565b8355505b6001600288020188555050505b5050505050505b565b7f4e487b7100000000000000000000000000000000000000000000000000000000600052601160045260246000fd5b6000615ae382614d76565b91507fffffffffffffffffffffffffffffffffffffffffffffffffffffffffffffffff8203615b1557615b14615aa9565b5b600182019050919050565b6000615b2b82614d76565b915060008203615b3e57615b3d615aa9565b5b600182039050919050565b7f4f6e6c7920746865206d616e616765722063616e207472616e7366657220457460008201527f6865722e00000000000000000000000000000000000000000000000000000000602082015250565b6000615ba56024836153ec565b9150615bb082615b49565b604082019050919050565b60006020820190508181036000830152615bd481615b98565b9050919050565b615be48161565e565b82525050565b6000602082019050615bff6000830184615bdb565b92915050565b615c0e826153e1565b67ffffffffffffffff811115615c2757615c26614e19565b5b615c3182546157ce565b615c3c828285615934565b600060209050601f831160018114615c6f5760008415615c5d578287015190505b615c6785826159a5565b865550615ccf565b601f198416615c7d86615815565b60005b82811015615ca557848901518255600182019150602085019450602081019050615c80565b86831015615cc25784890151615cbe601f891682615987565b8355505b6001600288020188555050505b505050505050565b600081905092915050565b6000615ced826153e1565b615cf78185615cd7565b9350615d078185602086016153fd565b80840191505092915050565b6000615d1f8284615ce2565b915081905092915050565b6000615d3582614d76565b9150615d4083614d76565b9250828201905080821115615d5857615d57615aa9565b5b92915050565b7f4f6e6c7920746865206d616e616765722063616e20757067726164652074686560008201527f20696d706c656d656e746174696f6e2e00000000000000000000000000000000602082015250565b6000615dba6030836153ec565b9150615dc582615d5e565b604082019050919050565b60006020820190508181036000830152615de981615dad565b905091905056fea264697066735822122080f52a625726cb40f691c23454850d0493b4444b9fb7697cf69f9390a726965a64736f6c63430008120033","opcodes":"PUSH1 0x80 PUSH1 0x40 MSTORE CALLVALUE DUP1 ISZERO PUSH3 0x11 JUMPI PUSH1 0x0 DUP1 REVERT JUMPDEST POP PUSH1 0x40 MLOAD PUSH3 0x5FD1 CODESIZE SUB DUP1 PUSH3 0x5FD1 DUP4 CODECOPY DUP2 DUP2 ADD PUSH1 0x40 MSTORE DUP2 ADD SWAP1 PUSH3 0x37 SWAP2 SWAP1 PUSH3 0x169 JUMP JUMPDEST CALLER PUSH1 0x0 DUP1 PUSH2 0x100 EXP DUP2 SLOAD DUP2 PUSH20 0xFFFFFFFFFFFFFFFFFFFFFFFFFFFFFFFFFFFFFFFF MUL NOT AND SWAP1 DUP4 PUSH20 0xFFFFFFFFFFFFFFFFFFFFFFFFFFFFFFFFFFFFFFFF AND MUL OR SWAP1 SSTORE POP CALLER PUSH1 0x0 DUP1 PUSH2 0x100 EXP DUP2 SLOAD DUP2 PUSH20 0xFFFFFFFFFFFFFFFFFFFFFFFFFFFFFFFFFFFFFFFF MUL NOT AND SWAP1 DUP4 PUSH20 0xFFFFFFFFFFFFFFFFFFFFFFFFFFFFFFFFFFFFFFFF AND MUL OR SWAP1 SSTORE POP DUP1 PUSH1 0x15 PUSH1 0x0 PUSH2 0x100 EXP DUP2 SLOAD DUP2 PUSH20 0xFFFFFFFFFFFFFFFFFFFFFFFFFFFFFFFFFFFFFFFF MUL NOT AND SWAP1 DUP4 PUSH20 0xFFFFFFFFFFFFFFFFFFFFFFFFFFFFFFFFFFFFFFFF AND MUL OR SWAP1 SSTORE POP POP PUSH3 0x19B JUMP JUMPDEST PUSH1 0x0 DUP1 REVERT JUMPDEST PUSH1 0x0 PUSH20 0xFFFFFFFFFFFFFFFFFFFFFFFFFFFFFFFFFFFFFFFF DUP3 AND SWAP1 POP SWAP2 SWAP1 POP JUMP JUMPDEST PUSH1 0x0 PUSH3 0x131 DUP3 PUSH3 0x104 JUMP JUMPDEST SWAP1 POP SWAP2 SWAP1 POP JUMP JUMPDEST PUSH3 0x143 DUP2 PUSH3 0x124 JUMP JUMPDEST DUP2 EQ PUSH3 0x14F JUMPI PUSH1 0x0 DUP1 REVERT JUMPDEST POP JUMP JUMPDEST PUSH1 0x0 DUP2 MLOAD SWAP1 POP PUSH3 0x163 DUP2 PUSH3 0x138 JUMP JUMPDEST SWAP3 SWAP2 POP POP JUMP JUMPDEST PUSH1 0x0 PUSH1 0x20 DUP3 DUP5 SUB SLT ISZERO PUSH3 0x182 JUMPI PUSH3 0x181 PUSH3 0xFF JUMP JUMPDEST JUMPDEST PUSH1 0x0 PUSH3 0x192 DUP5 DUP3 DUP6 ADD PUSH3 0x152 JUMP JUMPDEST SWAP2 POP POP SWAP3 SWAP2 POP POP JUMP JUMPDEST PUSH2 0x5E26 DUP1 PUSH3 0x1AB PUSH1 0x0 CODECOPY PUSH1 0x0 RETURN INVALID PUSH1 0x80 PUSH1 0x40 MSTORE PUSH1 0x4 CALLDATASIZE LT PUSH2 0x207 JUMPI PUSH1 0x0 CALLDATALOAD PUSH1 0xE0 SHR DUP1 PUSH4 0x56C720C3 GT PUSH2 0x118 JUMPI DUP1 PUSH4 0xC6242A8F GT PUSH2 0xA0 JUMPI DUP1 PUSH4 0xD6F775C0 GT PUSH2 0x6F JUMPI DUP1 PUSH4 0xD6F775C0 EQ PUSH2 0x7E4 JUMPI DUP1 PUSH4 0xE365A29F EQ PUSH2 0x828 JUMPI DUP1 PUSH4 0xF5AB5DDE EQ PUSH2 0x865 JUMPI DUP1 PUSH4 0xF778D27B EQ PUSH2 0x881 JUMPI DUP1 PUSH4 0xFEEF5E91 EQ PUSH2 0x8C5 JUMPI PUSH2 0x20E JUMP JUMPDEST DUP1 PUSH4 0xC6242A8F EQ PUSH2 0x719 JUMPI DUP1 PUSH4 0xC723BF86 EQ PUSH2 0x75B JUMPI DUP1 PUSH4 0xC73B302E EQ PUSH2 0x79D JUMPI DUP1 PUSH4 0xD05857E0 EQ PUSH2 0x7C8 JUMPI PUSH2 0x20E JUMP JUMPDEST DUP1 PUSH4 0x9039B99E GT PUSH2 0xE7 JUMPI DUP1 PUSH4 0x9039B99E EQ PUSH2 0x5FB JUMPI DUP1 PUSH4 0xA2BDEDF4 EQ PUSH2 0x638 JUMPI DUP1 PUSH4 0xA87430BA EQ PUSH2 0x67C JUMPI DUP1 PUSH4 0xAC2C9C0F EQ PUSH2 0x6C0 JUMPI DUP1 PUSH4 0xC610D2CE EQ PUSH2 0x6FD JUMPI PUSH2 0x20E JUMP JUMPDEST DUP1 PUSH4 0x56C720C3 EQ PUSH2 0x562 JUMPI DUP1 PUSH4 0x6B55E991 EQ PUSH2 0x57E JUMPI DUP1 PUSH4 0x6BA13A82 EQ PUSH2 0x5A7 JUMPI DUP1 PUSH4 0x83F94DB7 EQ PUSH2 0x5D2 JUMPI PUSH2 0x20E JUMP JUMPDEST DUP1 PUSH4 0x2F3F680C GT PUSH2 0x19B JUMPI DUP1 PUSH4 0x448CD56E GT PUSH2 0x16A JUMPI DUP1 PUSH4 0x448CD56E EQ PUSH2 0x453 JUMPI DUP1 PUSH4 0x481C6A75 EQ PUSH2 0x497 JUMPI DUP1 PUSH4 0x4B77F269 EQ PUSH2 0x4C2 JUMPI DUP1 PUSH4 0x4FC0F8BA EQ PUSH2 0x504 JUMPI DUP1 PUSH4 0x53B3194C EQ PUSH2 0x520 JUMPI PUSH2 0x20E JUMP JUMPDEST DUP1 PUSH4 0x2F3F680C EQ PUSH2 0x39A JUMPI DUP1 PUSH4 0x30314FEE EQ PUSH2 0x3D7 JUMPI DUP1 PUSH4 0x37D3F4FA EQ PUSH2 0x3F3 JUMPI DUP1 PUSH4 0x3A4017B4 EQ PUSH2 0x437 JUMPI PUSH2 0x20E JUMP JUMPDEST DUP1 PUSH4 0x1453D9F2 GT PUSH2 0x1D7 JUMPI DUP1 PUSH4 0x1453D9F2 EQ PUSH2 0x2E8 JUMPI DUP1 PUSH4 0x19266C51 EQ PUSH2 0x304 JUMPI DUP1 PUSH4 0x1B0004D9 EQ PUSH2 0x320 JUMPI DUP1 PUSH4 0x1EC7D4AD EQ PUSH2 0x35D JUMPI PUSH2 0x20E JUMP JUMPDEST DUP1 PUSH3 0x3BD288 EQ PUSH2 0x25C JUMPI DUP1 PUSH4 0x1F2B011 EQ PUSH2 0x299 JUMPI DUP1 PUSH4 0x4C2EAAB EQ PUSH2 0x2B5 JUMPI DUP1 PUSH4 0x13C050CA EQ PUSH2 0x2D1 JUMPI PUSH2 0x20E JUMP JUMPDEST CALLDATASIZE PUSH2 0x20E JUMPI STOP JUMPDEST PUSH1 0x0 PUSH1 0x15 PUSH1 0x0 SWAP1 SLOAD SWAP1 PUSH2 0x100 EXP SWAP1 DIV PUSH20 0xFFFFFFFFFFFFFFFFFFFFFFFFFFFFFFFFFFFFFFFF AND SWAP1 POP PUSH1 0x40 MLOAD CALLDATASIZE PUSH1 0x0 DUP3 CALLDATACOPY PUSH1 0x0 DUP1 CALLDATASIZE DUP4 DUP6 GAS DELEGATECALL RETURNDATASIZE DUP1 PUSH1 0x0 DUP5 RETURNDATACOPY DUP2 PUSH1 0x0 DUP2 EQ PUSH2 0x258 JUMPI DUP2 DUP5 RETURN JUMPDEST DUP2 DUP5 REVERT JUMPDEST CALLVALUE DUP1 ISZERO PUSH2 0x268 JUMPI PUSH1 0x0 DUP1 REVERT JUMPDEST POP PUSH2 0x283 PUSH1 0x4 DUP1 CALLDATASIZE SUB DUP2 ADD SWAP1 PUSH2 0x27E SWAP2 SWAP1 PUSH2 0x4DAC JUMP JUMPDEST PUSH2 0x907 JUMP JUMPDEST PUSH1 0x40 MLOAD PUSH2 0x290 SWAP2 SWAP1 PUSH2 0x4DE8 JUMP JUMPDEST PUSH1 0x40 MLOAD DUP1 SWAP2 SUB SWAP1 RETURN JUMPDEST PUSH2 0x2B3 PUSH1 0x4 DUP1 CALLDATASIZE SUB DUP2 ADD SWAP1 PUSH2 0x2AE SWAP2 SWAP1 PUSH2 0x4FBA JUMP JUMPDEST PUSH2 0x91F JUMP JUMPDEST STOP JUMPDEST PUSH2 0x2CF PUSH1 0x4 DUP1 CALLDATASIZE SUB DUP2 ADD SWAP1 PUSH2 0x2CA SWAP2 SWAP1 PUSH2 0x5003 JUMP JUMPDEST PUSH2 0xB07 JUMP JUMPDEST STOP JUMPDEST CALLVALUE DUP1 ISZERO PUSH2 0x2DD JUMPI PUSH1 0x0 DUP1 REVERT JUMPDEST POP PUSH2 0x2E6 PUSH2 0xF22 JUMP JUMPDEST STOP JUMPDEST PUSH2 0x302 PUSH1 0x4 DUP1 CALLDATASIZE SUB DUP2 ADD SWAP1 PUSH2 0x2FD SWAP2 SWAP1 PUSH2 0x512D JUMP JUMPDEST PUSH2 0x1061 JUMP JUMPDEST STOP JUMPDEST PUSH2 0x31E PUSH1 0x4 DUP1 CALLDATASIZE SUB DUP2 ADD SWAP1 PUSH2 0x319 SWAP2 SWAP1 PUSH2 0x522B JUMP JUMPDEST PUSH2 0x11B0 JUMP JUMPDEST STOP JUMPDEST CALLVALUE DUP1 ISZERO PUSH2 0x32C JUMPI PUSH1 0x0 DUP1 REVERT JUMPDEST POP PUSH2 0x347 PUSH1 0x4 DUP1 CALLDATASIZE SUB DUP2 ADD SWAP1 PUSH2 0x342 SWAP2 SWAP1 PUSH2 0x522B JUMP JUMPDEST PUSH2 0x1362 JUMP JUMPDEST PUSH1 0x40 MLOAD PUSH2 0x354 SWAP2 SWAP1 PUSH2 0x4DE8 JUMP JUMPDEST PUSH1 0x40 MLOAD DUP1 SWAP2 SUB SWAP1 RETURN JUMPDEST CALLVALUE DUP1 ISZERO PUSH2 0x369 JUMPI PUSH1 0x0 DUP1 REVERT JUMPDEST POP PUSH2 0x384 PUSH1 0x4 DUP1 CALLDATASIZE SUB DUP2 ADD SWAP1 PUSH2 0x37F SWAP2 SWAP1 PUSH2 0x5274 JUMP JUMPDEST PUSH2 0x1390 JUMP JUMPDEST PUSH1 0x40 MLOAD PUSH2 0x391 SWAP2 SWAP1 PUSH2 0x4DE8 JUMP JUMPDEST PUSH1 0x40 MLOAD DUP1 SWAP2 SUB SWAP1 RETURN JUMPDEST CALLVALUE DUP1 ISZERO PUSH2 0x3A6 JUMPI PUSH1 0x0 DUP1 REVERT JUMPDEST POP PUSH2 0x3C1 PUSH1 0x4 DUP1 CALLDATASIZE SUB DUP2 ADD SWAP1 PUSH2 0x3BC SWAP2 SWAP1 PUSH2 0x522B JUMP JUMPDEST PUSH2 0x13A8 JUMP JUMPDEST PUSH1 0x40 MLOAD PUSH2 0x3CE SWAP2 SWAP1 PUSH2 0x52BC JUMP JUMPDEST PUSH1 0x40 MLOAD DUP1 SWAP2 SUB SWAP1 RETURN JUMPDEST PUSH2 0x3F1 PUSH1 0x4 DUP1 CALLDATASIZE SUB DUP2 ADD SWAP1 PUSH2 0x3EC SWAP2 SWAP1 PUSH2 0x52D7 JUMP JUMPDEST PUSH2 0x13DE JUMP JUMPDEST STOP JUMPDEST CALLVALUE DUP1 ISZERO PUSH2 0x3FF JUMPI PUSH1 0x0 DUP1 REVERT JUMPDEST POP PUSH2 0x41A PUSH1 0x4 DUP1 CALLDATASIZE SUB DUP2 ADD SWAP1 PUSH2 0x415 SWAP2 SWAP1 PUSH2 0x5392 JUMP JUMPDEST PUSH2 0x1961 JUMP JUMPDEST PUSH1 0x40 MLOAD PUSH2 0x42E SWAP9 SWAP8 SWAP7 SWAP6 SWAP5 SWAP4 SWAP3 SWAP2 SWAP1 PUSH2 0x5460 JUMP JUMPDEST PUSH1 0x40 MLOAD DUP1 SWAP2 SUB SWAP1 RETURN JUMPDEST PUSH2 0x451 PUSH1 0x4 DUP1 CALLDATASIZE SUB DUP2 ADD SWAP1 PUSH2 0x44C SWAP2 SWAP1 PUSH2 0x5526 JUMP JUMPDEST PUSH2 0x1C06 JUMP JUMPDEST STOP JUMPDEST CALLVALUE DUP1 ISZERO PUSH2 0x45F JUMPI PUSH1 0x0 DUP1 REVERT JUMPDEST POP PUSH2 0x47A PUSH1 0x4 DUP1 CALLDATASIZE SUB DUP2 ADD SWAP1 PUSH2 0x475 SWAP2 SWAP1 PUSH2 0x5392 JUMP JUMPDEST PUSH2 0x215C JUMP JUMPDEST PUSH1 0x40 MLOAD PUSH2 0x48E SWAP9 SWAP8 SWAP7 SWAP6 SWAP5 SWAP4 SWAP3 SWAP2 SWAP1 PUSH2 0x5460 JUMP JUMPDEST PUSH1 0x40 MLOAD DUP1 SWAP2 SUB SWAP1 RETURN JUMPDEST CALLVALUE DUP1 ISZERO PUSH2 0x4A3 JUMPI PUSH1 0x0 DUP1 REVERT JUMPDEST POP PUSH2 0x4AC PUSH2 0x2401 JUMP JUMPDEST PUSH1 0x40 MLOAD PUSH2 0x4B9 SWAP2 SWAP1 PUSH2 0x558D JUMP JUMPDEST PUSH1 0x40 MLOAD DUP1 SWAP2 SUB SWAP1 RETURN JUMPDEST CALLVALUE DUP1 ISZERO PUSH2 0x4CE JUMPI PUSH1 0x0 DUP1 REVERT JUMPDEST POP PUSH2 0x4E9 PUSH1 0x4 DUP1 CALLDATASIZE SUB DUP2 ADD SWAP1 PUSH2 0x4E4 SWAP2 SWAP1 PUSH2 0x522B JUMP JUMPDEST PUSH2 0x2425 JUMP JUMPDEST PUSH1 0x40 MLOAD PUSH2 0x4FB SWAP7 SWAP6 SWAP5 SWAP4 SWAP3 SWAP2 SWAP1 PUSH2 0x55A8 JUMP JUMPDEST PUSH1 0x40 MLOAD DUP1 SWAP2 SUB SWAP1 RETURN JUMPDEST PUSH2 0x51E PUSH1 0x4 DUP1 CALLDATASIZE SUB DUP2 ADD SWAP1 PUSH2 0x519 SWAP2 SWAP1 PUSH2 0x561E JUMP JUMPDEST PUSH2 0x260F JUMP JUMPDEST STOP JUMPDEST CALLVALUE DUP1 ISZERO PUSH2 0x52C JUMPI PUSH1 0x0 DUP1 REVERT JUMPDEST POP PUSH2 0x547 PUSH1 0x4 DUP1 CALLDATASIZE SUB DUP2 ADD SWAP1 PUSH2 0x542 SWAP2 SWAP1 PUSH2 0x4DAC JUMP JUMPDEST PUSH2 0x2806 JUMP JUMPDEST PUSH1 0x40 MLOAD PUSH2 0x559 SWAP7 SWAP6 SWAP5 SWAP4 SWAP3 SWAP2 SWAP1 PUSH2 0x55A8 JUMP JUMPDEST PUSH1 0x40 MLOAD DUP1 SWAP2 SUB SWAP1 RETURN JUMPDEST PUSH2 0x57C PUSH1 0x4 DUP1 CALLDATASIZE SUB DUP2 ADD SWAP1 PUSH2 0x577 SWAP2 SWAP1 PUSH2 0x561E JUMP JUMPDEST PUSH2 0x29EA JUMP JUMPDEST STOP JUMPDEST CALLVALUE DUP1 ISZERO PUSH2 0x58A JUMPI PUSH1 0x0 DUP1 REVERT JUMPDEST POP PUSH2 0x5A5 PUSH1 0x4 DUP1 CALLDATASIZE SUB DUP2 ADD SWAP1 PUSH2 0x5A0 SWAP2 SWAP1 PUSH2 0x569C JUMP JUMPDEST PUSH2 0x2C94 JUMP JUMPDEST STOP JUMPDEST CALLVALUE DUP1 ISZERO PUSH2 0x5B3 JUMPI PUSH1 0x0 DUP1 REVERT JUMPDEST POP PUSH2 0x5BC PUSH2 0x2D6C JUMP JUMPDEST PUSH1 0x40 MLOAD PUSH2 0x5C9 SWAP2 SWAP1 PUSH2 0x4DE8 JUMP JUMPDEST PUSH1 0x40 MLOAD DUP1 SWAP2 SUB SWAP1 RETURN JUMPDEST CALLVALUE DUP1 ISZERO PUSH2 0x5DE JUMPI PUSH1 0x0 DUP1 REVERT JUMPDEST POP PUSH2 0x5F9 PUSH1 0x4 DUP1 CALLDATASIZE SUB DUP2 ADD SWAP1 PUSH2 0x5F4 SWAP2 SWAP1 PUSH2 0x5274 JUMP JUMPDEST PUSH2 0x2D72 JUMP JUMPDEST STOP JUMPDEST CALLVALUE DUP1 ISZERO PUSH2 0x607 JUMPI PUSH1 0x0 DUP1 REVERT JUMPDEST POP PUSH2 0x622 PUSH1 0x4 DUP1 CALLDATASIZE SUB DUP2 ADD SWAP1 PUSH2 0x61D SWAP2 SWAP1 PUSH2 0x522B JUMP JUMPDEST PUSH2 0x2E44 JUMP JUMPDEST PUSH1 0x40 MLOAD PUSH2 0x62F SWAP2 SWAP1 PUSH2 0x4DE8 JUMP JUMPDEST PUSH1 0x40 MLOAD DUP1 SWAP2 SUB SWAP1 RETURN JUMPDEST CALLVALUE DUP1 ISZERO PUSH2 0x644 JUMPI PUSH1 0x0 DUP1 REVERT JUMPDEST POP PUSH2 0x65F PUSH1 0x4 DUP1 CALLDATASIZE SUB DUP2 ADD SWAP1 PUSH2 0x65A SWAP2 SWAP1 PUSH2 0x4DAC JUMP JUMPDEST PUSH2 0x2E72 JUMP JUMPDEST PUSH1 0x40 MLOAD PUSH2 0x673 SWAP9 SWAP8 SWAP7 SWAP6 SWAP5 SWAP4 SWAP3 SWAP2 SWAP1 PUSH2 0x5460 JUMP JUMPDEST PUSH1 0x40 MLOAD DUP1 SWAP2 SUB SWAP1 RETURN JUMPDEST CALLVALUE DUP1 ISZERO PUSH2 0x688 JUMPI PUSH1 0x0 DUP1 REVERT JUMPDEST POP PUSH2 0x6A3 PUSH1 0x4 DUP1 CALLDATASIZE SUB DUP2 ADD SWAP1 PUSH2 0x69E SWAP2 SWAP1 PUSH2 0x5274 JUMP JUMPDEST PUSH2 0x310A JUMP JUMPDEST PUSH1 0x40 MLOAD PUSH2 0x6B7 SWAP9 SWAP8 SWAP7 SWAP6 SWAP5 SWAP4 SWAP3 SWAP2 SWAP1 PUSH2 0x5460 JUMP JUMPDEST PUSH1 0x40 MLOAD DUP1 SWAP2 SUB SWAP1 RETURN JUMPDEST CALLVALUE DUP1 ISZERO PUSH2 0x6CC JUMPI PUSH1 0x0 DUP1 REVERT JUMPDEST POP PUSH2 0x6E7 PUSH1 0x4 DUP1 CALLDATASIZE SUB DUP2 ADD SWAP1 PUSH2 0x6E2 SWAP2 SWAP1 PUSH2 0x5274 JUMP JUMPDEST PUSH2 0x3392 JUMP JUMPDEST PUSH1 0x40 MLOAD PUSH2 0x6F4 SWAP2 SWAP1 PUSH2 0x52BC JUMP JUMPDEST PUSH1 0x40 MLOAD DUP1 SWAP2 SUB SWAP1 RETURN JUMPDEST PUSH2 0x717 PUSH1 0x4 DUP1 CALLDATASIZE SUB DUP2 ADD SWAP1 PUSH2 0x712 SWAP2 SWAP1 PUSH2 0x52D7 JUMP JUMPDEST PUSH2 0x33B2 JUMP JUMPDEST STOP JUMPDEST CALLVALUE DUP1 ISZERO PUSH2 0x725 JUMPI PUSH1 0x0 DUP1 REVERT JUMPDEST POP PUSH2 0x740 PUSH1 0x4 DUP1 CALLDATASIZE SUB DUP2 ADD SWAP1 PUSH2 0x73B SWAP2 SWAP1 PUSH2 0x4DAC JUMP JUMPDEST PUSH2 0x3834 JUMP JUMPDEST PUSH1 0x40 MLOAD PUSH2 0x752 SWAP7 SWAP6 SWAP5 SWAP4 SWAP3 SWAP2 SWAP1 PUSH2 0x55A8 JUMP JUMPDEST PUSH1 0x40 MLOAD DUP1 SWAP2 SUB SWAP1 RETURN JUMPDEST CALLVALUE DUP1 ISZERO PUSH2 0x767 JUMPI PUSH1 0x0 DUP1 REVERT JUMPDEST POP PUSH2 0x782 PUSH1 0x4 DUP1 CALLDATASIZE SUB DUP2 ADD SWAP1 PUSH2 0x77D SWAP2 SWAP1 PUSH2 0x561E JUMP JUMPDEST PUSH2 0x3A18 JUMP JUMPDEST PUSH1 0x40 MLOAD PUSH2 0x794 SWAP7 SWAP6 SWAP5 SWAP4 SWAP3 SWAP2 SWAP1 PUSH2 0x55A8 JUMP JUMPDEST PUSH1 0x40 MLOAD DUP1 SWAP2 SUB SWAP1 RETURN JUMPDEST CALLVALUE DUP1 ISZERO PUSH2 0x7A9 JUMPI PUSH1 0x0 DUP1 REVERT JUMPDEST POP PUSH2 0x7B2 PUSH2 0x3C09 JUMP JUMPDEST PUSH1 0x40 MLOAD PUSH2 0x7BF SWAP2 SWAP1 PUSH2 0x4DE8 JUMP JUMPDEST PUSH1 0x40 MLOAD DUP1 SWAP2 SUB SWAP1 RETURN JUMPDEST PUSH2 0x7E2 PUSH1 0x4 DUP1 CALLDATASIZE SUB DUP2 ADD SWAP1 PUSH2 0x7DD SWAP2 SWAP1 PUSH2 0x56C9 JUMP JUMPDEST PUSH2 0x3C0F JUMP JUMPDEST STOP JUMPDEST CALLVALUE DUP1 ISZERO PUSH2 0x7F0 JUMPI PUSH1 0x0 DUP1 REVERT JUMPDEST POP PUSH2 0x80B PUSH1 0x4 DUP1 CALLDATASIZE SUB DUP2 ADD SWAP1 PUSH2 0x806 SWAP2 SWAP1 PUSH2 0x4DAC JUMP JUMPDEST PUSH2 0x3E1D JUMP JUMPDEST PUSH1 0x40 MLOAD PUSH2 0x81F SWAP9 SWAP8 SWAP7 SWAP6 SWAP5 SWAP4 SWAP3 SWAP2 SWAP1 PUSH2 0x5460 JUMP JUMPDEST PUSH1 0x40 MLOAD DUP1 SWAP2 SUB SWAP1 RETURN JUMPDEST CALLVALUE DUP1 ISZERO PUSH2 0x834 JUMPI PUSH1 0x0 DUP1 REVERT JUMPDEST POP PUSH2 0x84F PUSH1 0x4 DUP1 CALLDATASIZE SUB DUP2 ADD SWAP1 PUSH2 0x84A SWAP2 SWAP1 PUSH2 0x522B JUMP JUMPDEST PUSH2 0x40B5 JUMP JUMPDEST PUSH1 0x40 MLOAD PUSH2 0x85C SWAP2 SWAP1 PUSH2 0x52BC JUMP JUMPDEST PUSH1 0x40 MLOAD DUP1 SWAP2 SUB SWAP1 RETURN JUMPDEST PUSH2 0x87F PUSH1 0x4 DUP1 CALLDATASIZE SUB DUP2 ADD SWAP1 PUSH2 0x87A SWAP2 SWAP1 PUSH2 0x5526 JUMP JUMPDEST PUSH2 0x40EB JUMP JUMPDEST STOP JUMPDEST CALLVALUE DUP1 ISZERO PUSH2 0x88D JUMPI PUSH1 0x0 DUP1 REVERT JUMPDEST POP PUSH2 0x8A8 PUSH1 0x4 DUP1 CALLDATASIZE SUB DUP2 ADD SWAP1 PUSH2 0x8A3 SWAP2 SWAP1 PUSH2 0x522B JUMP JUMPDEST PUSH2 0x4739 JUMP JUMPDEST PUSH1 0x40 MLOAD PUSH2 0x8BC SWAP9 SWAP8 SWAP7 SWAP6 SWAP5 SWAP4 SWAP3 SWAP2 SWAP1 PUSH2 0x5460 JUMP JUMPDEST PUSH1 0x40 MLOAD DUP1 SWAP2 SUB SWAP1 RETURN JUMPDEST CALLVALUE DUP1 ISZERO PUSH2 0x8D1 JUMPI PUSH1 0x0 DUP1 REVERT JUMPDEST POP PUSH2 0x8EC PUSH1 0x4 DUP1 CALLDATASIZE SUB DUP2 ADD SWAP1 PUSH2 0x8E7 SWAP2 SWAP1 PUSH2 0x561E JUMP JUMPDEST PUSH2 0x49D7 JUMP JUMPDEST PUSH1 0x40 MLOAD PUSH2 0x8FE SWAP7 SWAP6 SWAP5 SWAP4 SWAP3 SWAP2 SWAP1 PUSH2 0x55A8 JUMP JUMPDEST PUSH1 0x40 MLOAD DUP1 SWAP2 SUB SWAP1 RETURN JUMPDEST PUSH1 0x12 PUSH1 0x20 MSTORE DUP1 PUSH1 0x0 MSTORE PUSH1 0x40 PUSH1 0x0 KECCAK256 PUSH1 0x0 SWAP2 POP SWAP1 POP SLOAD DUP2 JUMP JUMPDEST PUSH1 0x0 DUP1 SLOAD SWAP1 PUSH2 0x100 EXP SWAP1 DIV PUSH20 0xFFFFFFFFFFFFFFFFFFFFFFFFFFFFFFFFFFFFFFFF AND PUSH20 0xFFFFFFFFFFFFFFFFFFFFFFFFFFFFFFFFFFFFFFFF AND CALLER PUSH20 0xFFFFFFFFFFFFFFFFFFFFFFFFFFFFFFFFFFFFFFFF AND EQ PUSH2 0x977 JUMPI PUSH1 0x0 DUP1 REVERT JUMPDEST PUSH1 0x3 PUSH1 0x0 PUSH2 0x985 SWAP2 SWAP1 PUSH2 0x4BC8 JUMP JUMPDEST PUSH1 0x0 JUMPDEST PUSH1 0x5 DUP2 LT ISZERO PUSH2 0xB03 JUMPI PUSH1 0x3 PUSH1 0x5 PUSH1 0x0 DUP5 DUP5 DUP2 MLOAD DUP2 LT PUSH2 0x9AA JUMPI PUSH2 0x9A9 PUSH2 0x5770 JUMP JUMPDEST JUMPDEST PUSH1 0x20 MUL PUSH1 0x20 ADD ADD MLOAD PUSH20 0xFFFFFFFFFFFFFFFFFFFFFFFFFFFFFFFFFFFFFFFF AND PUSH20 0xFFFFFFFFFFFFFFFFFFFFFFFFFFFFFFFFFFFFFFFF AND DUP2 MSTORE PUSH1 0x20 ADD SWAP1 DUP2 MSTORE PUSH1 0x20 ADD PUSH1 0x0 KECCAK256 SWAP1 DUP1 PUSH1 0x1 DUP2 SLOAD ADD DUP1 DUP3 SSTORE DUP1 SWAP2 POP POP PUSH1 0x1 SWAP1 SUB SWAP1 PUSH1 0x0 MSTORE PUSH1 0x20 PUSH1 0x0 KECCAK256 SWAP1 PUSH1 0x8 MUL ADD PUSH1 0x0 SWAP1 SWAP2 SWAP1 SWAP2 SWAP1 SWAP2 POP PUSH1 0x0 DUP3 ADD SLOAD DUP2 PUSH1 0x0 ADD SSTORE PUSH1 0x1 DUP3 ADD PUSH1 0x0 SWAP1 SLOAD SWAP1 PUSH2 0x100 EXP SWAP1 DIV PUSH20 0xFFFFFFFFFFFFFFFFFFFFFFFFFFFFFFFFFFFFFFFF AND DUP2 PUSH1 0x1 ADD PUSH1 0x0 PUSH2 0x100 EXP DUP2 SLOAD DUP2 PUSH20 0xFFFFFFFFFFFFFFFFFFFFFFFFFFFFFFFFFFFFFFFF MUL NOT AND SWAP1 DUP4 PUSH20 0xFFFFFFFFFFFFFFFFFFFFFFFFFFFFFFFFFFFFFFFF AND MUL OR SWAP1 SSTORE POP PUSH1 0x2 DUP3 ADD DUP2 PUSH1 0x2 ADD SWAP1 DUP2 PUSH2 0xA9A SWAP2 SWAP1 PUSH2 0x59C1 JUMP JUMPDEST POP PUSH1 0x3 DUP3 ADD DUP2 PUSH1 0x3 ADD SWAP1 DUP2 PUSH2 0xAAF SWAP2 SWAP1 PUSH2 0x59C1 JUMP JUMPDEST POP PUSH1 0x4 DUP3 ADD DUP2 PUSH1 0x4 ADD SWAP1 DUP2 PUSH2 0xAC4 SWAP2 SWAP1 PUSH2 0x59C1 JUMP JUMPDEST POP PUSH1 0x5 DUP3 ADD SLOAD DUP2 PUSH1 0x5 ADD SSTORE PUSH1 0x6 DUP3 ADD SLOAD DUP2 PUSH1 0x6 ADD SSTORE PUSH1 0x7 DUP3 ADD DUP2 PUSH1 0x7 ADD SWAP1 DUP2 PUSH2 0xAED SWAP2 SWAP1 PUSH2 0x59C1 JUMP JUMPDEST POP POP POP DUP1 DUP1 PUSH2 0xAFB SWAP1 PUSH2 0x5AD8 JUMP JUMPDEST SWAP2 POP POP PUSH2 0x988 JUMP JUMPDEST POP POP JUMP JUMPDEST PUSH1 0xE PUSH1 0x0 CALLER PUSH20 0xFFFFFFFFFFFFFFFFFFFFFFFFFFFFFFFFFFFFFFFF AND PUSH20 0xFFFFFFFFFFFFFFFFFFFFFFFFFFFFFFFFFFFFFFFF AND DUP2 MSTORE PUSH1 0x20 ADD SWAP1 DUP2 MSTORE PUSH1 0x20 ADD PUSH1 0x0 KECCAK256 PUSH1 0x0 SWAP1 SLOAD SWAP1 PUSH2 0x100 EXP SWAP1 DIV PUSH1 0xFF AND PUSH2 0xB5D JUMPI PUSH1 0x0 DUP1 REVERT JUMPDEST PUSH1 0x0 PUSH1 0x2 DUP6 DUP2 SLOAD DUP2 LT PUSH2 0xB73 JUMPI PUSH2 0xB72 PUSH2 0x5770 JUMP JUMPDEST JUMPDEST SWAP1 PUSH1 0x0 MSTORE PUSH1 0x20 PUSH1 0x0 KECCAK256 SWAP1 PUSH1 0x6 MUL ADD SWAP1 POP PUSH1 0x0 PUSH1 0x5 PUSH1 0x0 DUP7 PUSH20 0xFFFFFFFFFFFFFFFFFFFFFFFFFFFFFFFFFFFFFFFF AND PUSH20 0xFFFFFFFFFFFFFFFFFFFFFFFFFFFFFFFFFFFFFFFF AND DUP2 MSTORE PUSH1 0x20 ADD SWAP1 DUP2 MSTORE PUSH1 0x20 ADD PUSH1 0x0 KECCAK256 SWAP1 POP DUP1 PUSH1 0x5 ADD PUSH1 0x0 DUP2 SLOAD DUP1 SWAP3 SWAP2 SWAP1 PUSH2 0xBDB SWAP1 PUSH2 0x5B20 JUMP JUMPDEST SWAP2 SWAP1 POP SSTORE POP PUSH1 0x6 PUSH1 0x0 DUP7 PUSH20 0xFFFFFFFFFFFFFFFFFFFFFFFFFFFFFFFFFFFFFFFF AND PUSH20 0xFFFFFFFFFFFFFFFFFFFFFFFFFFFFFFFFFFFFFFFF AND DUP2 MSTORE PUSH1 0x20 ADD SWAP1 DUP2 MSTORE PUSH1 0x20 ADD PUSH1 0x0 KECCAK256 POP PUSH1 0x11 PUSH1 0x0 DUP7 PUSH20 0xFFFFFFFFFFFFFFFFFFFFFFFFFFFFFFFFFFFFFFFF AND PUSH20 0xFFFFFFFFFFFFFFFFFFFFFFFFFFFFFFFFFFFFFFFF AND DUP2 MSTORE PUSH1 0x20 ADD SWAP1 DUP2 MSTORE PUSH1 0x20 ADD PUSH1 0x0 KECCAK256 PUSH1 0x0 DUP2 SLOAD DUP1 SWAP3 SWAP2 SWAP1 PUSH2 0xC70 SWAP1 PUSH2 0x5B20 JUMP JUMPDEST SWAP2 SWAP1 POP SSTORE POP DUP1 PUSH1 0x1 DUP3 PUSH1 0x0 ADD SLOAD DUP2 SLOAD DUP2 LT PUSH2 0xC8E JUMPI PUSH2 0xC8D PUSH2 0x5770 JUMP JUMPDEST JUMPDEST SWAP1 PUSH1 0x0 MSTORE PUSH1 0x20 PUSH1 0x0 KECCAK256 SWAP1 PUSH1 0x8 MUL ADD PUSH1 0x0 DUP3 ADD SLOAD DUP2 PUSH1 0x0 ADD SSTORE PUSH1 0x1 DUP3 ADD PUSH1 0x0 SWAP1 SLOAD SWAP1 PUSH2 0x100 EXP SWAP1 DIV PUSH20 0xFFFFFFFFFFFFFFFFFFFFFFFFFFFFFFFFFFFFFFFF AND DUP2 PUSH1 0x1 ADD PUSH1 0x0 PUSH2 0x100 EXP DUP2 SLOAD DUP2 PUSH20 0xFFFFFFFFFFFFFFFFFFFFFFFFFFFFFFFFFFFFFFFF MUL NOT AND SWAP1 DUP4 PUSH20 0xFFFFFFFFFFFFFFFFFFFFFFFFFFFFFFFFFFFFFFFF AND MUL OR SWAP1 SSTORE POP PUSH1 0x2 DUP3 ADD DUP2 PUSH1 0x2 ADD SWAP1 DUP2 PUSH2 0xD21 SWAP2 SWAP1 PUSH2 0x59C1 JUMP JUMPDEST POP PUSH1 0x3 DUP3 ADD DUP2 PUSH1 0x3 ADD SWAP1 DUP2 PUSH2 0xD36 SWAP2 SWAP1 PUSH2 0x59C1 JUMP JUMPDEST POP PUSH1 0x4 DUP3 ADD DUP2 PUSH1 0x4 ADD SWAP1 DUP2 PUSH2 0xD4B SWAP2 SWAP1 PUSH2 0x59C1 JUMP JUMPDEST POP PUSH1 0x5 DUP3 ADD SLOAD DUP2 PUSH1 0x5 ADD SSTORE PUSH1 0x6 DUP3 ADD SLOAD DUP2 PUSH1 0x6 ADD SSTORE PUSH1 0x7 DUP3 ADD DUP2 PUSH1 0x7 ADD SWAP1 DUP2 PUSH2 0xD74 SWAP2 SWAP1 PUSH2 0x59C1 JUMP JUMPDEST POP SWAP1 POP POP DUP2 PUSH1 0x4 ADD PUSH1 0x0 DUP2 SLOAD DUP1 SWAP3 SWAP2 SWAP1 PUSH2 0xD8D SWAP1 PUSH2 0x5B20 JUMP JUMPDEST SWAP2 SWAP1 POP SSTORE POP PUSH1 0x12 PUSH1 0x0 DUP8 DUP2 MSTORE PUSH1 0x20 ADD SWAP1 DUP2 MSTORE PUSH1 0x20 ADD PUSH1 0x0 KECCAK256 PUSH1 0x0 DUP2 SLOAD DUP1 SWAP3 SWAP2 SWAP1 PUSH2 0xDB6 SWAP1 PUSH2 0x5B20 JUMP JUMPDEST SWAP2 SWAP1 POP SSTORE POP PUSH1 0x6 PUSH1 0x0 DUP7 PUSH20 0xFFFFFFFFFFFFFFFFFFFFFFFFFFFFFFFFFFFFFFFF AND PUSH20 0xFFFFFFFFFFFFFFFFFFFFFFFFFFFFFFFFFFFFFFFF AND DUP2 MSTORE PUSH1 0x20 ADD SWAP1 DUP2 MSTORE PUSH1 0x20 ADD PUSH1 0x0 KECCAK256 DUP5 DUP2 SLOAD DUP2 LT PUSH2 0xE0C JUMPI PUSH2 0xE0B PUSH2 0x5770 JUMP JUMPDEST JUMPDEST SWAP1 PUSH1 0x0 MSTORE PUSH1 0x20 PUSH1 0x0 KECCAK256 SWAP1 PUSH1 0x6 MUL ADD PUSH1 0x0 DUP1 DUP3 ADD PUSH1 0x0 SWAP1 SSTORE PUSH1 0x1 DUP3 ADD PUSH1 0x0 PUSH2 0xE33 SWAP2 SWAP1 PUSH2 0x4BEC JUMP JUMPDEST PUSH1 0x2 DUP3 ADD PUSH1 0x0 PUSH2 0xE43 SWAP2 SWAP1 PUSH2 0x4BEC JUMP JUMPDEST PUSH1 0x3 DUP3 ADD PUSH1 0x0 PUSH2 0xE53 SWAP2 SWAP1 PUSH2 0x4BEC JUMP JUMPDEST PUSH1 0x4 DUP3 ADD PUSH1 0x0 SWAP1 SSTORE PUSH1 0x5 DUP3 ADD PUSH1 0x0 SWAP1 SSTORE POP POP PUSH1 0x8 PUSH1 0x0 DUP8 DUP2 MSTORE PUSH1 0x20 ADD SWAP1 DUP2 MSTORE PUSH1 0x20 ADD PUSH1 0x0 KECCAK256 DUP4 DUP2 SLOAD DUP2 LT PUSH2 0xE8A JUMPI PUSH2 0xE89 PUSH2 0x5770 JUMP JUMPDEST JUMPDEST SWAP1 PUSH1 0x0 MSTORE PUSH1 0x20 PUSH1 0x0 KECCAK256 SWAP1 PUSH1 0x8 MUL ADD PUSH1 0x0 DUP1 DUP3 ADD PUSH1 0x0 SWAP1 SSTORE PUSH1 0x1 DUP3 ADD PUSH1 0x0 PUSH2 0x100 EXP DUP2 SLOAD SWAP1 PUSH20 0xFFFFFFFFFFFFFFFFFFFFFFFFFFFFFFFFFFFFFFFF MUL NOT AND SWAP1 SSTORE PUSH1 0x2 DUP3 ADD PUSH1 0x0 PUSH2 0xED8 SWAP2 SWAP1 PUSH2 0x4BEC JUMP JUMPDEST PUSH1 0x3 DUP3 ADD PUSH1 0x0 PUSH2 0xEE8 SWAP2 SWAP1 PUSH2 0x4BEC JUMP JUMPDEST PUSH1 0x4 DUP3 ADD PUSH1 0x0 PUSH2 0xEF8 SWAP2 SWAP1 PUSH2 0x4BEC JUMP JUMPDEST PUSH1 0x5 DUP3 ADD PUSH1 0x0 SWAP1 SSTORE PUSH1 0x6 DUP3 ADD PUSH1 0x0 SWAP1 SSTORE PUSH1 0x7 DUP3 ADD PUSH1 0x0 PUSH2 0xF18 SWAP2 SWAP1 PUSH2 0x4BEC JUMP JUMPDEST POP POP POP POP POP POP POP POP JUMP JUMPDEST PUSH1 0x0 DUP1 SLOAD SWAP1 PUSH2 0x100 EXP SWAP1 DIV PUSH20 0xFFFFFFFFFFFFFFFFFFFFFFFFFFFFFFFFFFFFFFFF AND PUSH20 0xFFFFFFFFFFFFFFFFFFFFFFFFFFFFFFFFFFFFFFFF AND CALLER PUSH20 0xFFFFFFFFFFFFFFFFFFFFFFFFFFFFFFFFFFFFFFFF AND EQ PUSH2 0xFB0 JUMPI PUSH1 0x40 MLOAD PUSH32 0x8C379A000000000000000000000000000000000000000000000000000000000 DUP2 MSTORE PUSH1 0x4 ADD PUSH2 0xFA7 SWAP1 PUSH2 0x5BBB JUMP JUMPDEST PUSH1 0x40 MLOAD DUP1 SWAP2 SUB SWAP1 REVERT JUMPDEST PUSH1 0x15 PUSH1 0x0 SWAP1 SLOAD SWAP1 PUSH2 0x100 EXP SWAP1 DIV PUSH20 0xFFFFFFFFFFFFFFFFFFFFFFFFFFFFFFFFFFFFFFFF AND PUSH20 0xFFFFFFFFFFFFFFFFFFFFFFFFFFFFFFFFFFFFFFFF AND PUSH4 0x6B55E991 PUSH1 0x15 PUSH1 0x0 SWAP1 SLOAD SWAP1 PUSH2 0x100 EXP SWAP1 DIV PUSH20 0xFFFFFFFFFFFFFFFFFFFFFFFFFFFFFFFFFFFFFFFF AND PUSH1 0x40 MLOAD DUP3 PUSH4 0xFFFFFFFF AND PUSH1 0xE0 SHL DUP2 MSTORE PUSH1 0x4 ADD PUSH2 0x102D SWAP2 SWAP1 PUSH2 0x5BEA JUMP JUMPDEST PUSH1 0x0 PUSH1 0x40 MLOAD DUP1 DUP4 SUB DUP2 PUSH1 0x0 DUP8 DUP1 EXTCODESIZE ISZERO DUP1 ISZERO PUSH2 0x1047 JUMPI PUSH1 0x0 DUP1 REVERT JUMPDEST POP GAS CALL ISZERO DUP1 ISZERO PUSH2 0x105B JUMPI RETURNDATASIZE PUSH1 0x0 DUP1 RETURNDATACOPY RETURNDATASIZE PUSH1 0x0 REVERT JUMPDEST POP POP POP POP JUMP JUMPDEST PUSH1 0x0 DUP1 SLOAD SWAP1 PUSH2 0x100 EXP SWAP1 DIV PUSH20 0xFFFFFFFFFFFFFFFFFFFFFFFFFFFFFFFFFFFFFFFF AND PUSH20 0xFFFFFFFFFFFFFFFFFFFFFFFFFFFFFFFFFFFFFFFF AND CALLER PUSH20 0xFFFFFFFFFFFFFFFFFFFFFFFFFFFFFFFFFFFFFFFF AND EQ PUSH2 0x10B9 JUMPI PUSH1 0x0 DUP1 REVERT JUMPDEST PUSH1 0x4 PUSH1 0x0 PUSH2 0x10C7 SWAP2 SWAP1 PUSH2 0x4C2C JUMP JUMPDEST PUSH1 0x0 JUMPDEST PUSH1 0x5 DUP2 LT ISZERO PUSH2 0x11AC JUMPI PUSH1 0x4 PUSH1 0x2 DUP4 DUP4 DUP2 MLOAD DUP2 LT PUSH2 0x10EA JUMPI PUSH2 0x10E9 PUSH2 0x5770 JUMP JUMPDEST JUMPDEST PUSH1 0x20 MUL PUSH1 0x20 ADD ADD MLOAD DUP2 SLOAD DUP2 LT PUSH2 0x1103 JUMPI PUSH2 0x1102 PUSH2 0x5770 JUMP JUMPDEST JUMPDEST SWAP1 PUSH1 0x0 MSTORE PUSH1 0x20 PUSH1 0x0 KECCAK256 SWAP1 PUSH1 0x6 MUL ADD SWAP1 DUP1 PUSH1 0x1 DUP2 SLOAD ADD DUP1 DUP3 SSTORE DUP1 SWAP2 POP POP PUSH1 0x1 SWAP1 SUB SWAP1 PUSH1 0x0 MSTORE PUSH1 0x20 PUSH1 0x0 KECCAK256 SWAP1 PUSH1 0x6 MUL ADD PUSH1 0x0 SWAP1 SWAP2 SWAP1 SWAP2 SWAP1 SWAP2 POP PUSH1 0x0 DUP3 ADD SLOAD DUP2 PUSH1 0x0 ADD SSTORE PUSH1 0x1 DUP3 ADD DUP2 PUSH1 0x1 ADD SWAP1 DUP2 PUSH2 0x1158 SWAP2 SWAP1 PUSH2 0x59C1 JUMP JUMPDEST POP PUSH1 0x2 DUP3 ADD DUP2 PUSH1 0x2 ADD SWAP1 DUP2 PUSH2 0x116D SWAP2 SWAP1 PUSH2 0x59C1 JUMP JUMPDEST POP PUSH1 0x3 DUP3 ADD DUP2 PUSH1 0x3 ADD SWAP1 DUP2 PUSH2 0x1182 SWAP2 SWAP1 PUSH2 0x59C1 JUMP JUMPDEST POP PUSH1 0x4 DUP3 ADD SLOAD DUP2 PUSH1 0x4 ADD SSTORE PUSH1 0x5 DUP3 ADD SLOAD DUP2 PUSH1 0x5 ADD SSTORE POP POP DUP1 DUP1 PUSH2 0x11A4 SWAP1 PUSH2 0x5AD8 JUMP JUMPDEST SWAP2 POP POP PUSH2 0x10CA JUMP JUMPDEST POP POP JUMP JUMPDEST PUSH1 0xE PUSH1 0x0 CALLER PUSH20 0xFFFFFFFFFFFFFFFFFFFFFFFFFFFFFFFFFFFFFFFF AND PUSH20 0xFFFFFFFFFFFFFFFFFFFFFFFFFFFFFFFFFFFFFFFF AND DUP2 MSTORE PUSH1 0x20 ADD SWAP1 DUP2 MSTORE PUSH1 0x20 ADD PUSH1 0x0 KECCAK256 PUSH1 0x0 SWAP1 SLOAD SWAP1 PUSH2 0x100 EXP SWAP1 DIV PUSH1 0xFF AND PUSH2 0x1206 JUMPI PUSH1 0x0 DUP1 REVERT JUMPDEST PUSH1 0x0 PUSH1 0x5 PUSH1 0x0 CALLER PUSH20 0xFFFFFFFFFFFFFFFFFFFFFFFFFFFFFFFFFFFFFFFF AND PUSH20 0xFFFFFFFFFFFFFFFFFFFFFFFFFFFFFFFFFFFFFFFF AND DUP2 MSTORE PUSH1 0x20 ADD SWAP1 DUP2 MSTORE PUSH1 0x20 ADD PUSH1 0x0 KECCAK256 SWAP1 POP DUP2 DUP2 PUSH1 0x7 ADD SWAP1 DUP2 PUSH2 0x125A SWAP2 SWAP1 PUSH2 0x5C05 JUMP JUMPDEST POP DUP1 PUSH1 0x1 DUP3 PUSH1 0x0 ADD SLOAD DUP2 SLOAD DUP2 LT PUSH2 0x1274 JUMPI PUSH2 0x1273 PUSH2 0x5770 JUMP JUMPDEST JUMPDEST SWAP1 PUSH1 0x0 MSTORE PUSH1 0x20 PUSH1 0x0 KECCAK256 SWAP1 PUSH1 0x8 MUL ADD PUSH1 0x0 DUP3 ADD SLOAD DUP2 PUSH1 0x0 ADD SSTORE PUSH1 0x1 DUP3 ADD PUSH1 0x0 SWAP1 SLOAD SWAP1 PUSH2 0x100 EXP SWAP1 DIV PUSH20 0xFFFFFFFFFFFFFFFFFFFFFFFFFFFFFFFFFFFFFFFF AND DUP2 PUSH1 0x1 ADD PUSH1 0x0 PUSH2 0x100 EXP DUP2 SLOAD DUP2 PUSH20 0xFFFFFFFFFFFFFFFFFFFFFFFFFFFFFFFFFFFFFFFF MUL NOT AND SWAP1 DUP4 PUSH20 0xFFFFFFFFFFFFFFFFFFFFFFFFFFFFFFFFFFFFFFFF AND MUL OR SWAP1 SSTORE POP PUSH1 0x2 DUP3 ADD DUP2 PUSH1 0x2 ADD SWAP1 DUP2 PUSH2 0x1307 SWAP2 SWAP1 PUSH2 0x59C1 JUMP JUMPDEST POP PUSH1 0x3 DUP3 ADD DUP2 PUSH1 0x3 ADD SWAP1 DUP2 PUSH2 0x131C SWAP2 SWAP1 PUSH2 0x59C1 JUMP JUMPDEST POP PUSH1 0x4 DUP3 ADD DUP2 PUSH1 0x4 ADD SWAP1 DUP2 PUSH2 0x1331 SWAP2 SWAP1 PUSH2 0x59C1 JUMP JUMPDEST POP PUSH1 0x5 DUP3 ADD SLOAD DUP2 PUSH1 0x5 ADD SSTORE PUSH1 0x6 DUP3 ADD SLOAD DUP2 PUSH1 0x6 ADD SSTORE PUSH1 0x7 DUP3 ADD DUP2 PUSH1 0x7 ADD SWAP1 DUP2 PUSH2 0x135A SWAP2 SWAP1 PUSH2 0x59C1 JUMP JUMPDEST POP SWAP1 POP POP POP POP JUMP JUMPDEST PUSH1 0xC DUP2 DUP1 MLOAD PUSH1 0x20 DUP2 ADD DUP3 ADD DUP1 MLOAD DUP5 DUP3 MSTORE PUSH1 0x20 DUP4 ADD PUSH1 0x20 DUP6 ADD KECCAK256 DUP2 DUP4 MSTORE DUP1 SWAP6 POP POP POP POP POP POP PUSH1 0x0 SWAP2 POP SWAP1 POP SLOAD DUP2 JUMP JUMPDEST PUSH1 0x11 PUSH1 0x20 MSTORE DUP1 PUSH1 0x0 MSTORE PUSH1 0x40 PUSH1 0x0 KECCAK256 PUSH1 0x0 SWAP2 POP SWAP1 POP SLOAD DUP2 JUMP JUMPDEST PUSH1 0xF DUP2 DUP1 MLOAD PUSH1 0x20 DUP2 ADD DUP3 ADD DUP1 MLOAD DUP5 DUP3 MSTORE PUSH1 0x20 DUP4 ADD PUSH1 0x20 DUP6 ADD KECCAK256 DUP2 DUP4 MSTORE DUP1 SWAP6 POP POP POP POP POP POP PUSH1 0x0 SWAP2 POP SLOAD SWAP1 PUSH2 0x100 EXP SWAP1 DIV PUSH1 0xFF AND DUP2 JUMP JUMPDEST PUSH1 0x10 DUP4 PUSH1 0x40 MLOAD PUSH2 0x13EE SWAP2 SWAP1 PUSH2 0x5D13 JUMP JUMPDEST SWAP1 DUP2 MSTORE PUSH1 0x20 ADD PUSH1 0x40 MLOAD DUP1 SWAP2 SUB SWAP1 KECCAK256 PUSH1 0x0 SWAP1 SLOAD SWAP1 PUSH2 0x100 EXP SWAP1 DIV PUSH1 0xFF AND ISZERO PUSH2 0x1414 JUMPI PUSH1 0x0 DUP1 REVERT JUMPDEST PUSH1 0x0 PUSH1 0x5 PUSH1 0x0 DUP7 PUSH20 0xFFFFFFFFFFFFFFFFFFFFFFFFFFFFFFFFFFFFFFFF AND PUSH20 0xFFFFFFFFFFFFFFFFFFFFFFFFFFFFFFFFFFFFFFFF AND DUP2 MSTORE PUSH1 0x20 ADD SWAP1 DUP2 MSTORE PUSH1 0x20 ADD PUSH1 0x0 KECCAK256 SWAP1 POP DUP1 PUSH1 0x5 ADD PUSH1 0x0 DUP2 SLOAD DUP1 SWAP3 SWAP2 SWAP1 PUSH2 0x146C SWAP1 PUSH2 0x5AD8 JUMP JUMPDEST SWAP2 SWAP1 POP SSTORE POP PUSH1 0x0 PUSH1 0x2 PUSH1 0x1 DUP2 PUSH1 0x1 DUP2 SLOAD ADD DUP1 DUP3 SSTORE DUP1 SWAP2 POP POP SUB SWAP1 PUSH1 0x0 MSTORE PUSH1 0x20 PUSH1 0x0 KECCAK256 SWAP1 PUSH1 0x6 MUL ADD SWAP1 POP PUSH1 0x14 SLOAD DUP2 PUSH1 0x0 ADD DUP2 SWAP1 SSTORE POP DUP5 DUP2 PUSH1 0x1 ADD SWAP1 DUP2 PUSH2 0x14B1 SWAP2 SWAP1 PUSH2 0x5C05 JUMP JUMPDEST POP DUP4 DUP2 PUSH1 0x3 ADD SWAP1 DUP2 PUSH2 0x14C3 SWAP2 SWAP1 PUSH2 0x5C05 JUMP JUMPDEST POP DUP3 DUP2 PUSH1 0x2 ADD SWAP1 DUP2 PUSH2 0x14D5 SWAP2 SWAP1 PUSH2 0x5C05 JUMP JUMPDEST POP DUP1 PUSH1 0x4 ADD PUSH1 0x0 DUP2 SLOAD DUP1 SWAP3 SWAP2 SWAP1 PUSH2 0x14EB SWAP1 PUSH2 0x5AD8 JUMP JUMPDEST SWAP2 SWAP1 POP SSTORE POP PUSH1 0x1 PUSH1 0x10 DUP7 PUSH1 0x40 MLOAD PUSH2 0x1502 SWAP2 SWAP1 PUSH2 0x5D13 JUMP JUMPDEST SWAP1 DUP2 MSTORE PUSH1 0x20 ADD PUSH1 0x40 MLOAD DUP1 SWAP2 SUB SWAP1 KECCAK256 PUSH1 0x0 PUSH2 0x100 EXP DUP2 SLOAD DUP2 PUSH1 0xFF MUL NOT AND SWAP1 DUP4 ISZERO ISZERO MUL OR SWAP1 SSTORE POP DUP1 PUSH1 0x7 DUP7 PUSH1 0x40 MLOAD PUSH2 0x1538 SWAP2 SWAP1 PUSH2 0x5D13 JUMP JUMPDEST SWAP1 DUP2 MSTORE PUSH1 0x20 ADD PUSH1 0x40 MLOAD DUP1 SWAP2 SUB SWAP1 KECCAK256 PUSH1 0x0 DUP3 ADD SLOAD DUP2 PUSH1 0x0 ADD SSTORE PUSH1 0x1 DUP3 ADD DUP2 PUSH1 0x1 ADD SWAP1 DUP2 PUSH2 0x1564 SWAP2 SWAP1 PUSH2 0x59C1 JUMP JUMPDEST POP PUSH1 0x2 DUP3 ADD DUP2 PUSH1 0x2 ADD SWAP1 DUP2 PUSH2 0x1579 SWAP2 SWAP1 PUSH2 0x59C1 JUMP JUMPDEST POP PUSH1 0x3 DUP3 ADD DUP2 PUSH1 0x3 ADD SWAP1 DUP2 PUSH2 0x158E SWAP2 SWAP1 PUSH2 0x59C1 JUMP JUMPDEST POP PUSH1 0x4 DUP3 ADD SLOAD DUP2 PUSH1 0x4 ADD SSTORE PUSH1 0x5 DUP3 ADD SLOAD DUP2 PUSH1 0x5 ADD SSTORE SWAP1 POP POP DUP2 PUSH1 0x1 DUP4 PUSH1 0x0 ADD SLOAD DUP2 SLOAD DUP2 LT PUSH2 0x15BF JUMPI PUSH2 0x15BE PUSH2 0x5770 JUMP JUMPDEST JUMPDEST SWAP1 PUSH1 0x0 MSTORE PUSH1 0x20 PUSH1 0x0 KECCAK256 SWAP1 PUSH1 0x8 MUL ADD PUSH1 0x0 DUP3 ADD SLOAD DUP2 PUSH1 0x0 ADD SSTORE PUSH1 0x1 DUP3 ADD PUSH1 0x0 SWAP1 SLOAD SWAP1 PUSH2 0x100 EXP SWAP1 DIV PUSH20 0xFFFFFFFFFFFFFFFFFFFFFFFFFFFFFFFFFFFFFFFF AND DUP2 PUSH1 0x1 ADD PUSH1 0x0 PUSH2 0x100 EXP DUP2 SLOAD DUP2 PUSH20 0xFFFFFFFFFFFFFFFFFFFFFFFFFFFFFFFFFFFFFFFF MUL NOT AND SWAP1 DUP4 PUSH20 0xFFFFFFFFFFFFFFFFFFFFFFFFFFFFFFFFFFFFFFFF AND MUL OR SWAP1 SSTORE POP PUSH1 0x2 DUP3 ADD DUP2 PUSH1 0x2 ADD SWAP1 DUP2 PUSH2 0x1652 SWAP2 SWAP1 PUSH2 0x59C1 JUMP JUMPDEST POP PUSH1 0x3 DUP3 ADD DUP2 PUSH1 0x3 ADD SWAP1 DUP2 PUSH2 0x1667 SWAP2 SWAP1 PUSH2 0x59C1 JUMP JUMPDEST POP PUSH1 0x4 DUP3 ADD DUP2 PUSH1 0x4 ADD SWAP1 DUP2 PUSH2 0x167C SWAP2 SWAP1 PUSH2 0x59C1 JUMP JUMPDEST POP PUSH1 0x5 DUP3 ADD SLOAD DUP2 PUSH1 0x5 ADD SSTORE PUSH1 0x6 DUP3 ADD SLOAD DUP2 PUSH1 0x6 ADD SSTORE PUSH1 0x7 DUP3 ADD DUP2 PUSH1 0x7 ADD SWAP1 DUP2 PUSH2 0x16A5 SWAP2 SWAP1 PUSH2 0x59C1 JUMP JUMPDEST POP SWAP1 POP POP PUSH1 0x12 PUSH1 0x0 PUSH1 0x14 SLOAD DUP2 MSTORE PUSH1 0x20 ADD SWAP1 DUP2 MSTORE PUSH1 0x20 ADD PUSH1 0x0 KECCAK256 PUSH1 0x0 DUP2 SLOAD DUP1 SWAP3 SWAP2 SWAP1 PUSH2 0x16CF SWAP1 PUSH2 0x5AD8 JUMP JUMPDEST SWAP2 SWAP1 POP SSTORE POP PUSH1 0x11 PUSH1 0x0 DUP8 PUSH20 0xFFFFFFFFFFFFFFFFFFFFFFFFFFFFFFFFFFFFFFFF AND PUSH20 0xFFFFFFFFFFFFFFFFFFFFFFFFFFFFFFFFFFFFFFFF AND DUP2 MSTORE PUSH1 0x20 ADD SWAP1 DUP2 MSTORE PUSH1 0x20 ADD PUSH1 0x0 KECCAK256 PUSH1 0x0 DUP2 SLOAD DUP1 SWAP3 SWAP2 SWAP1 PUSH2 0x1724 SWAP1 PUSH2 0x5AD8 JUMP JUMPDEST SWAP2 SWAP1 POP SSTORE POP PUSH1 0x6 PUSH1 0x0 DUP8 PUSH20 0xFFFFFFFFFFFFFFFFFFFFFFFFFFFFFFFFFFFFFFFF AND PUSH20 0xFFFFFFFFFFFFFFFFFFFFFFFFFFFFFFFFFFFFFFFF AND DUP2 MSTORE PUSH1 0x20 ADD SWAP1 DUP2 MSTORE PUSH1 0x20 ADD PUSH1 0x0 KECCAK256 DUP2 SWAP1 DUP1 PUSH1 0x1 DUP2 SLOAD ADD DUP1 DUP3 SSTORE DUP1 SWAP2 POP POP PUSH1 0x1 SWAP1 SUB SWAP1 PUSH1 0x0 MSTORE PUSH1 0x20 PUSH1 0x0 KECCAK256 SWAP1 PUSH1 0x6 MUL ADD PUSH1 0x0 SWAP1 SWAP2 SWAP1 SWAP2 SWAP1 SWAP2 POP PUSH1 0x0 DUP3 ADD SLOAD DUP2 PUSH1 0x0 ADD SSTORE PUSH1 0x1 DUP3 ADD DUP2 PUSH1 0x1 ADD SWAP1 DUP2 PUSH2 0x17B0 SWAP2 SWAP1 PUSH2 0x59C1 JUMP JUMPDEST POP PUSH1 0x2 DUP3 ADD DUP2 PUSH1 0x2 ADD SWAP1 DUP2 PUSH2 0x17C5 SWAP2 SWAP1 PUSH2 0x59C1 JUMP JUMPDEST POP PUSH1 0x3 DUP3 ADD DUP2 PUSH1 0x3 ADD SWAP1 DUP2 PUSH2 0x17DA SWAP2 SWAP1 PUSH2 0x59C1 JUMP JUMPDEST POP PUSH1 0x4 DUP3 ADD SLOAD DUP2 PUSH1 0x4 ADD SSTORE PUSH1 0x5 DUP3 ADD SLOAD DUP2 PUSH1 0x5 ADD SSTORE POP POP PUSH1 0x8 PUSH1 0x0 PUSH1 0x14 SLOAD DUP2 MSTORE PUSH1 0x20 ADD SWAP1 DUP2 MSTORE PUSH1 0x20 ADD PUSH1 0x0 KECCAK256 DUP3 SWAP1 DUP1 PUSH1 0x1 DUP2 SLOAD ADD DUP1 DUP3 SSTORE DUP1 SWAP2 POP POP PUSH1 0x1 SWAP1 SUB SWAP1 PUSH1 0x0 MSTORE PUSH1 0x20 PUSH1 0x0 KECCAK256 SWAP1 PUSH1 0x8 MUL ADD PUSH1 0x0 SWAP1 SWAP2 SWAP1 SWAP2 SWAP1 SWAP2 POP PUSH1 0x0 DUP3 ADD SLOAD DUP2 PUSH1 0x0 ADD SSTORE PUSH1 0x1 DUP3 ADD PUSH1 0x0 SWAP1 SLOAD SWAP1 PUSH2 0x100 EXP SWAP1 DIV PUSH20 0xFFFFFFFFFFFFFFFFFFFFFFFFFFFFFFFFFFFFFFFF AND DUP2 PUSH1 0x1 ADD PUSH1 0x0 PUSH2 0x100 EXP DUP2 SLOAD DUP2 PUSH20 0xFFFFFFFFFFFFFFFFFFFFFFFFFFFFFFFFFFFFFFFF MUL NOT AND SWAP1 DUP4 PUSH20 0xFFFFFFFFFFFFFFFFFFFFFFFFFFFFFFFFFFFFFFFF AND MUL OR SWAP1 SSTORE POP PUSH1 0x2 DUP3 ADD DUP2 PUSH1 0x2 ADD SWAP1 DUP2 PUSH2 0x18B5 SWAP2 SWAP1 PUSH2 0x59C1 JUMP JUMPDEST POP PUSH1 0x3 DUP3 ADD DUP2 PUSH1 0x3 ADD SWAP1 DUP2 PUSH2 0x18CA SWAP2 SWAP1 PUSH2 0x59C1 JUMP JUMPDEST POP PUSH1 0x4 DUP3 ADD DUP2 PUSH1 0x4 ADD SWAP1 DUP2 PUSH2 0x18DF SWAP2 SWAP1 PUSH2 0x59C1 JUMP JUMPDEST POP PUSH1 0x5 DUP3 ADD SLOAD DUP2 PUSH1 0x5 ADD SSTORE PUSH1 0x6 DUP3 ADD SLOAD DUP2 PUSH1 0x6 ADD SSTORE PUSH1 0x7 DUP3 ADD DUP2 PUSH1 0x7 ADD SWAP1 DUP2 PUSH2 0x1908 SWAP2 SWAP1 PUSH2 0x59C1 JUMP JUMPDEST POP POP POP PUSH1 0x1 PUSH1 0xD DUP5 PUSH1 0x40 MLOAD PUSH2 0x191D SWAP2 SWAP1 PUSH2 0x5D13 JUMP JUMPDEST SWAP1 DUP2 MSTORE PUSH1 0x20 ADD PUSH1 0x40 MLOAD DUP1 SWAP2 SUB SWAP1 KECCAK256 PUSH1 0x0 DUP3 DUP3 SLOAD PUSH2 0x193A SWAP2 SWAP1 PUSH2 0x5D2A JUMP JUMPDEST SWAP3 POP POP DUP2 SWAP1 SSTORE POP PUSH1 0x14 PUSH1 0x0 DUP2 SLOAD DUP1 SWAP3 SWAP2 SWAP1 PUSH2 0x1954 SWAP1 PUSH2 0x5AD8 JUMP JUMPDEST SWAP2 SWAP1 POP SSTORE POP POP POP POP POP POP POP JUMP JUMPDEST PUSH1 0x8 PUSH1 0x20 MSTORE DUP2 PUSH1 0x0 MSTORE PUSH1 0x40 PUSH1 0x0 KECCAK256 DUP2 DUP2 SLOAD DUP2 LT PUSH2 0x197D JUMPI PUSH1 0x0 DUP1 REVERT JUMPDEST SWAP1 PUSH1 0x0 MSTORE PUSH1 0x20 PUSH1 0x0 KECCAK256 SWAP1 PUSH1 0x8 MUL ADD PUSH1 0x0 SWAP2 POP SWAP2 POP POP DUP1 PUSH1 0x0 ADD SLOAD SWAP1 DUP1 PUSH1 0x1 ADD PUSH1 0x0 SWAP1 SLOAD SWAP1 PUSH2 0x100 EXP SWAP1 DIV PUSH20 0xFFFFFFFFFFFFFFFFFFFFFFFFFFFFFFFFFFFFFFFF AND SWAP1 DUP1 PUSH1 0x2 ADD DUP1 SLOAD PUSH2 0x19CD SWAP1 PUSH2 0x57CE JUMP JUMPDEST DUP1 PUSH1 0x1F ADD PUSH1 0x20 DUP1 SWAP2 DIV MUL PUSH1 0x20 ADD PUSH1 0x40 MLOAD SWAP1 DUP2 ADD PUSH1 0x40 MSTORE DUP1 SWAP3 SWAP2 SWAP1 DUP2 DUP2 MSTORE PUSH1 0x20 ADD DUP3 DUP1 SLOAD PUSH2 0x19F9 SWAP1 PUSH2 0x57CE JUMP JUMPDEST DUP1 ISZERO PUSH2 0x1A46 JUMPI DUP1 PUSH1 0x1F LT PUSH2 0x1A1B JUMPI PUSH2 0x100 DUP1 DUP4 SLOAD DIV MUL DUP4 MSTORE SWAP2 PUSH1 0x20 ADD SWAP2 PUSH2 0x1A46 JUMP JUMPDEST DUP3 ADD SWAP2 SWAP1 PUSH1 0x0 MSTORE PUSH1 0x20 PUSH1 0x0 KECCAK256 SWAP1 JUMPDEST DUP2 SLOAD DUP2 MSTORE SWAP1 PUSH1 0x1 ADD SWAP1 PUSH1 0x20 ADD DUP1 DUP4 GT PUSH2 0x1A29 JUMPI DUP3 SWAP1 SUB PUSH1 0x1F AND DUP3 ADD SWAP2 JUMPDEST POP POP POP POP POP SWAP1 DUP1 PUSH1 0x3 ADD DUP1 SLOAD PUSH2 0x1A5B SWAP1 PUSH2 0x57CE JUMP JUMPDEST DUP1 PUSH1 0x1F ADD PUSH1 0x20 DUP1 SWAP2 DIV MUL PUSH1 0x20 ADD PUSH1 0x40 MLOAD SWAP1 DUP2 ADD PUSH1 0x40 MSTORE DUP1 SWAP3 SWAP2 SWAP1 DUP2 DUP2 MSTORE PUSH1 0x20 ADD DUP3 DUP1 SLOAD PUSH2 0x1A87 SWAP1 PUSH2 0x57CE JUMP JUMPDEST DUP1 ISZERO PUSH2 0x1AD4 JUMPI DUP1 PUSH1 0x1F LT PUSH2 0x1AA9 JUMPI PUSH2 0x100 DUP1 DUP4 SLOAD DIV MUL DUP4 MSTORE SWAP2 PUSH1 0x20 ADD SWAP2 PUSH2 0x1AD4 JUMP JUMPDEST DUP3 ADD SWAP2 SWAP1 PUSH1 0x0 MSTORE PUSH1 0x20 PUSH1 0x0 KECCAK256 SWAP1 JUMPDEST DUP2 SLOAD DUP2 MSTORE SWAP1 PUSH1 0x1 ADD SWAP1 PUSH1 0x20 ADD DUP1 DUP4 GT PUSH2 0x1AB7 JUMPI DUP3 SWAP1 SUB PUSH1 0x1F AND DUP3 ADD SWAP2 JUMPDEST POP POP POP POP POP SWAP1 DUP1 PUSH1 0x4 ADD DUP1 SLOAD PUSH2 0x1AE9 SWAP1 PUSH2 0x57CE JUMP JUMPDEST DUP1 PUSH1 0x1F ADD PUSH1 0x20 DUP1 SWAP2 DIV MUL PUSH1 0x20 ADD PUSH1 0x40 MLOAD SWAP1 DUP2 ADD PUSH1 0x40 MSTORE DUP1 SWAP3 SWAP2 SWAP1 DUP2 DUP2 MSTORE PUSH1 0x20 ADD DUP3 DUP1 SLOAD PUSH2 0x1B15 SWAP1 PUSH2 0x57CE JUMP JUMPDEST DUP1 ISZERO PUSH2 0x1B62 JUMPI DUP1 PUSH1 0x1F LT PUSH2 0x1B37 JUMPI PUSH2 0x100 DUP1 DUP4 SLOAD DIV MUL DUP4 MSTORE SWAP2 PUSH1 0x20 ADD SWAP2 PUSH2 0x1B62 JUMP JUMPDEST DUP3 ADD SWAP2 SWAP1 PUSH1 0x0 MSTORE PUSH1 0x20 PUSH1 0x0 KECCAK256 SWAP1 JUMPDEST DUP2 SLOAD DUP2 MSTORE SWAP1 PUSH1 0x1 ADD SWAP1 PUSH1 0x20 ADD DUP1 DUP4 GT PUSH2 0x1B45 JUMPI DUP3 SWAP1 SUB PUSH1 0x1F AND DUP3 ADD SWAP2 JUMPDEST POP POP POP POP POP SWAP1 DUP1 PUSH1 0x5 ADD SLOAD SWAP1 DUP1 PUSH1 0x6 ADD SLOAD SWAP1 DUP1 PUSH1 0x7 ADD DUP1 SLOAD PUSH2 0x1B83 SWAP1 PUSH2 0x57CE JUMP JUMPDEST DUP1 PUSH1 0x1F ADD PUSH1 0x20 DUP1 SWAP2 DIV MUL PUSH1 0x20 ADD PUSH1 0x40 MLOAD SWAP1 DUP2 ADD PUSH1 0x40 MSTORE DUP1 SWAP3 SWAP2 SWAP1 DUP2 DUP2 MSTORE PUSH1 0x20 ADD DUP3 DUP1 SLOAD PUSH2 0x1BAF SWAP1 PUSH2 0x57CE JUMP JUMPDEST DUP1 ISZERO PUSH2 0x1BFC JUMPI DUP1 PUSH1 0x1F LT PUSH2 0x1BD1 JUMPI PUSH2 0x100 DUP1 DUP4 SLOAD DIV MUL DUP4 MSTORE SWAP2 PUSH1 0x20 ADD SWAP2 PUSH2 0x1BFC JUMP JUMPDEST DUP3 ADD SWAP2 SWAP1 PUSH1 0x0 MSTORE PUSH1 0x20 PUSH1 0x0 KECCAK256 SWAP1 JUMPDEST DUP2 SLOAD DUP2 MSTORE SWAP1 PUSH1 0x1 ADD SWAP1 PUSH1 0x20 ADD DUP1 DUP4 GT PUSH2 0x1BDF JUMPI DUP3 SWAP1 SUB PUSH1 0x1F AND DUP3 ADD SWAP2 JUMPDEST POP POP POP POP POP SWAP1 POP DUP9 JUMP JUMPDEST PUSH1 0xE PUSH1 0x0 DUP6 PUSH20 0xFFFFFFFFFFFFFFFFFFFFFFFFFFFFFFFFFFFFFFFF AND PUSH20 0xFFFFFFFFFFFFFFFFFFFFFFFFFFFFFFFFFFFFFFFF AND DUP2 MSTORE PUSH1 0x20 ADD SWAP1 DUP2 MSTORE PUSH1 0x20 ADD PUSH1 0x0 KECCAK256 PUSH1 0x0 SWAP1 SLOAD SWAP1 PUSH2 0x100 EXP SWAP1 DIV PUSH1 0xFF AND PUSH2 0x1C5C JUMPI PUSH1 0x0 DUP1 REVERT JUMPDEST PUSH1 0x0 PUSH1 0x2 DUP5 DUP2 SLOAD DUP2 LT PUSH2 0x1C72 JUMPI PUSH2 0x1C71 PUSH2 0x5770 JUMP JUMPDEST JUMPDEST SWAP1 PUSH1 0x0 MSTORE PUSH1 0x20 PUSH1 0x0 KECCAK256 SWAP1 PUSH1 0x6 MUL ADD SWAP1 POP PUSH1 0x0 PUSH1 0x5 PUSH1 0x0 DUP8 PUSH20 0xFFFFFFFFFFFFFFFFFFFFFFFFFFFFFFFFFFFFFFFF AND PUSH20 0xFFFFFFFFFFFFFFFFFFFFFFFFFFFFFFFFFFFFFFFF AND DUP2 MSTORE PUSH1 0x20 ADD SWAP1 DUP2 MSTORE PUSH1 0x20 ADD PUSH1 0x0 KECCAK256 SWAP1 POP DUP3 ISZERO PUSH2 0x2085 JUMPI DUP1 PUSH1 0x5 ADD PUSH1 0x0 DUP2 SLOAD DUP1 SWAP3 SWAP2 SWAP1 PUSH2 0x1CE0 SWAP1 PUSH2 0x5AD8 JUMP JUMPDEST SWAP2 SWAP1 POP SSTORE POP PUSH1 0x6 PUSH1 0x0 DUP8 PUSH20 0xFFFFFFFFFFFFFFFFFFFFFFFFFFFFFFFFFFFFFFFF AND PUSH20 0xFFFFFFFFFFFFFFFFFFFFFFFFFFFFFFFFFFFFFFFF AND DUP2 MSTORE PUSH1 0x20 ADD SWAP1 DUP2 MSTORE PUSH1 0x20 ADD PUSH1 0x0 KECCAK256 DUP3 SWAP1 DUP1 PUSH1 0x1 DUP2 SLOAD ADD DUP1 DUP3 SSTORE DUP1 SWAP2 POP POP PUSH1 0x1 SWAP1 SUB SWAP1 PUSH1 0x0 MSTORE PUSH1 0x20 PUSH1 0x0 KECCAK256 SWAP1 PUSH1 0x6 MUL ADD PUSH1 0x0 SWAP1 SWAP2 SWAP1 SWAP2 SWAP1 SWAP2 POP PUSH1 0x0 DUP3 ADD SLOAD DUP2 PUSH1 0x0 ADD SSTORE PUSH1 0x1 DUP3 ADD DUP2 PUSH1 0x1 ADD SWAP1 DUP2 PUSH2 0x1D6C SWAP2 SWAP1 PUSH2 0x59C1 JUMP JUMPDEST POP PUSH1 0x2 DUP3 ADD DUP2 PUSH1 0x2 ADD SWAP1 DUP2 PUSH2 0x1D81 SWAP2 SWAP1 PUSH2 0x59C1 JUMP JUMPDEST POP PUSH1 0x3 DUP3 ADD DUP2 PUSH1 0x3 ADD SWAP1 DUP2 PUSH2 0x1D96 SWAP2 SWAP1 PUSH2 0x59C1 JUMP JUMPDEST POP PUSH1 0x4 DUP3 ADD SLOAD DUP2 PUSH1 0x4 ADD SSTORE PUSH1 0x5 DUP3 ADD SLOAD DUP2 PUSH1 0x5 ADD SSTORE POP POP DUP2 PUSH1 0x4 ADD PUSH1 0x0 DUP2 SLOAD DUP1 SWAP3 SWAP2 SWAP1 PUSH2 0x1DC2 SWAP1 PUSH2 0x5AD8 JUMP JUMPDEST SWAP2 SWAP1 POP SSTORE POP PUSH1 0x8 PUSH1 0x0 DUP7 DUP2 MSTORE PUSH1 0x20 ADD SWAP1 DUP2 MSTORE PUSH1 0x20 ADD PUSH1 0x0 KECCAK256 DUP2 SWAP1 DUP1 PUSH1 0x1 DUP2 SLOAD ADD DUP1 DUP3 SSTORE DUP1 SWAP2 POP POP PUSH1 0x1 SWAP1 SUB SWAP1 PUSH1 0x0 MSTORE PUSH1 0x20 PUSH1 0x0 KECCAK256 SWAP1 PUSH1 0x8 MUL ADD PUSH1 0x0 SWAP1 SWAP2 SWAP1 SWAP2 SWAP1 SWAP2 POP PUSH1 0x0 DUP3 ADD SLOAD DUP2 PUSH1 0x0 ADD SSTORE PUSH1 0x1 DUP3 ADD PUSH1 0x0 SWAP1 SLOAD SWAP1 PUSH2 0x100 EXP SWAP1 DIV PUSH20 0xFFFFFFFFFFFFFFFFFFFFFFFFFFFFFFFFFFFFFFFF AND DUP2 PUSH1 0x1 ADD PUSH1 0x0 PUSH2 0x100 EXP DUP2 SLOAD DUP2 PUSH20 0xFFFFFFFFFFFFFFFFFFFFFFFFFFFFFFFFFFFFFFFF MUL NOT AND SWAP1 DUP4 PUSH20 0xFFFFFFFFFFFFFFFFFFFFFFFFFFFFFFFFFFFFFFFF AND MUL OR SWAP1 SSTORE POP PUSH1 0x2 DUP3 ADD DUP2 PUSH1 0x2 ADD SWAP1 DUP2 PUSH2 0x1E89 SWAP2 SWAP1 PUSH2 0x59C1 JUMP JUMPDEST POP PUSH1 0x3 DUP3 ADD DUP2 PUSH1 0x3 ADD SWAP1 DUP2 PUSH2 0x1E9E SWAP2 SWAP1 PUSH2 0x59C1 JUMP JUMPDEST POP PUSH1 0x4 DUP3 ADD DUP2 PUSH1 0x4 ADD SWAP1 DUP2 PUSH2 0x1EB3 SWAP2 SWAP1 PUSH2 0x59C1 JUMP JUMPDEST POP PUSH1 0x5 DUP3 ADD SLOAD DUP2 PUSH1 0x5 ADD SSTORE PUSH1 0x6 DUP3 ADD SLOAD DUP2 PUSH1 0x6 ADD SSTORE PUSH1 0x7 DUP3 ADD DUP2 PUSH1 0x7 ADD SWAP1 DUP2 PUSH2 0x1EDC SWAP2 SWAP1 PUSH2 0x59C1 JUMP JUMPDEST POP POP POP PUSH1 0x11 PUSH1 0x0 DUP3 PUSH1 0x1 ADD PUSH1 0x0 SWAP1 SLOAD SWAP1 PUSH2 0x100 EXP SWAP1 DIV PUSH20 0xFFFFFFFFFFFFFFFFFFFFFFFFFFFFFFFFFFFFFFFF AND PUSH20 0xFFFFFFFFFFFFFFFFFFFFFFFFFFFFFFFFFFFFFFFF AND PUSH20 0xFFFFFFFFFFFFFFFFFFFFFFFFFFFFFFFFFFFFFFFF AND DUP2 MSTORE PUSH1 0x20 ADD SWAP1 DUP2 MSTORE PUSH1 0x20 ADD PUSH1 0x0 KECCAK256 PUSH1 0x0 DUP2 SLOAD DUP1 SWAP3 SWAP2 SWAP1 PUSH2 0x1F53 SWAP1 PUSH2 0x5AD8 JUMP JUMPDEST SWAP2 SWAP1 POP SSTORE POP PUSH1 0x12 PUSH1 0x0 DUP7 DUP2 MSTORE PUSH1 0x20 ADD SWAP1 DUP2 MSTORE PUSH1 0x20 ADD PUSH1 0x0 KECCAK256 PUSH1 0x0 DUP2 SLOAD DUP1 SWAP3 SWAP2 SWAP1 PUSH2 0x1F7C SWAP1 PUSH2 0x5AD8 JUMP JUMPDEST SWAP2 SWAP1 POP SSTORE POP DUP1 PUSH1 0x1 DUP3 PUSH1 0x0 ADD SLOAD DUP2 SLOAD DUP2 LT PUSH2 0x1F9A JUMPI PUSH2 0x1F99 PUSH2 0x5770 JUMP JUMPDEST JUMPDEST SWAP1 PUSH1 0x0 MSTORE PUSH1 0x20 PUSH1 0x0 KECCAK256 SWAP1 PUSH1 0x8 MUL ADD PUSH1 0x0 DUP3 ADD SLOAD DUP2 PUSH1 0x0 ADD SSTORE PUSH1 0x1 DUP3 ADD PUSH1 0x0 SWAP1 SLOAD SWAP1 PUSH2 0x100 EXP SWAP1 DIV PUSH20 0xFFFFFFFFFFFFFFFFFFFFFFFFFFFFFFFFFFFFFFFF AND DUP2 PUSH1 0x1 ADD PUSH1 0x0 PUSH2 0x100 EXP DUP2 SLOAD DUP2 PUSH20 0xFFFFFFFFFFFFFFFFFFFFFFFFFFFFFFFFFFFFFFFF MUL NOT AND SWAP1 DUP4 PUSH20 0xFFFFFFFFFFFFFFFFFFFFFFFFFFFFFFFFFFFFFFFF AND MUL OR SWAP1 SSTORE POP PUSH1 0x2 DUP3 ADD DUP2 PUSH1 0x2 ADD SWAP1 DUP2 PUSH2 0x202D SWAP2 SWAP1 PUSH2 0x59C1 JUMP JUMPDEST POP PUSH1 0x3 DUP3 ADD DUP2 PUSH1 0x3 ADD SWAP1 DUP2 PUSH2 0x2042 SWAP2 SWAP1 PUSH2 0x59C1 JUMP JUMPDEST POP PUSH1 0x4 DUP3 ADD DUP2 PUSH1 0x4 ADD SWAP1 DUP2 PUSH2 0x2057 SWAP2 SWAP1 PUSH2 0x59C1 JUMP JUMPDEST POP PUSH1 0x5 DUP3 ADD SLOAD DUP2 PUSH1 0x5 ADD SSTORE PUSH1 0x6 DUP3 ADD SLOAD DUP2 PUSH1 0x6 ADD SSTORE PUSH1 0x7 DUP3 ADD DUP2 PUSH1 0x7 ADD SWAP1 DUP2 PUSH2 0x2080 SWAP2 SWAP1 PUSH2 0x59C1 JUMP JUMPDEST POP SWAP1 POP POP JUMPDEST DUP2 PUSH1 0x5 ADD PUSH1 0x0 DUP2 SLOAD DUP1 SWAP3 SWAP2 SWAP1 PUSH2 0x209A SWAP1 PUSH2 0x5B20 JUMP JUMPDEST SWAP2 SWAP1 POP SSTORE POP PUSH1 0x9 PUSH1 0x0 DUP7 DUP2 MSTORE PUSH1 0x20 ADD SWAP1 DUP2 MSTORE PUSH1 0x20 ADD PUSH1 0x0 KECCAK256 DUP5 DUP2 SLOAD DUP2 LT PUSH2 0x20C4 JUMPI PUSH2 0x20C3 PUSH2 0x5770 JUMP JUMPDEST JUMPDEST SWAP1 PUSH1 0x0 MSTORE PUSH1 0x20 PUSH1 0x0 KECCAK256 SWAP1 PUSH1 0x8 MUL ADD PUSH1 0x0 DUP1 DUP3 ADD PUSH1 0x0 SWAP1 SSTORE PUSH1 0x1 DUP3 ADD PUSH1 0x0 PUSH2 0x100 EXP DUP2 SLOAD SWAP1 PUSH20 0xFFFFFFFFFFFFFFFFFFFFFFFFFFFFFFFFFFFFFFFF MUL NOT AND SWAP1 SSTORE PUSH1 0x2 DUP3 ADD PUSH1 0x0 PUSH2 0x2112 SWAP2 SWAP1 PUSH2 0x4BEC JUMP JUMPDEST PUSH1 0x3 DUP3 ADD PUSH1 0x0 PUSH2 0x2122 SWAP2 SWAP1 PUSH2 0x4BEC JUMP JUMPDEST PUSH1 0x4 DUP3 ADD PUSH1 0x0 PUSH2 0x2132 SWAP2 SWAP1 PUSH2 0x4BEC JUMP JUMPDEST PUSH1 0x5 DUP3 ADD PUSH1 0x0 SWAP1 SSTORE PUSH1 0x6 DUP3 ADD PUSH1 0x0 SWAP1 SSTORE PUSH1 0x7 DUP3 ADD PUSH1 0x0 PUSH2 0x2152 SWAP2 SWAP1 PUSH2 0x4BEC JUMP JUMPDEST POP POP POP POP POP POP POP POP JUMP JUMPDEST PUSH1 0x9 PUSH1 0x20 MSTORE DUP2 PUSH1 0x0 MSTORE PUSH1 0x40 PUSH1 0x0 KECCAK256 DUP2 DUP2 SLOAD DUP2 LT PUSH2 0x2178 JUMPI PUSH1 0x0 DUP1 REVERT JUMPDEST SWAP1 PUSH1 0x0 MSTORE PUSH1 0x20 PUSH1 0x0 KECCAK256 SWAP1 PUSH1 0x8 MUL ADD PUSH1 0x0 SWAP2 POP SWAP2 POP POP DUP1 PUSH1 0x0 ADD SLOAD SWAP1 DUP1 PUSH1 0x1 ADD PUSH1 0x0 SWAP1 SLOAD SWAP1 PUSH2 0x100 EXP SWAP1 DIV PUSH20 0xFFFFFFFFFFFFFFFFFFFFFFFFFFFFFFFFFFFFFFFF AND SWAP1 DUP1 PUSH1 0x2 ADD DUP1 SLOAD PUSH2 0x21C8 SWAP1 PUSH2 0x57CE JUMP JUMPDEST DUP1 PUSH1 0x1F ADD PUSH1 0x20 DUP1 SWAP2 DIV MUL PUSH1 0x20 ADD PUSH1 0x40 MLOAD SWAP1 DUP2 ADD PUSH1 0x40 MSTORE DUP1 SWAP3 SWAP2 SWAP1 DUP2 DUP2 MSTORE PUSH1 0x20 ADD DUP3 DUP1 SLOAD PUSH2 0x21F4 SWAP1 PUSH2 0x57CE JUMP JUMPDEST DUP1 ISZERO PUSH2 0x2241 JUMPI DUP1 PUSH1 0x1F LT PUSH2 0x2216 JUMPI PUSH2 0x100 DUP1 DUP4 SLOAD DIV MUL DUP4 MSTORE SWAP2 PUSH1 0x20 ADD SWAP2 PUSH2 0x2241 JUMP JUMPDEST DUP3 ADD SWAP2 SWAP1 PUSH1 0x0 MSTORE PUSH1 0x20 PUSH1 0x0 KECCAK256 SWAP1 JUMPDEST DUP2 SLOAD DUP2 MSTORE SWAP1 PUSH1 0x1 ADD SWAP1 PUSH1 0x20 ADD DUP1 DUP4 GT PUSH2 0x2224 JUMPI DUP3 SWAP1 SUB PUSH1 0x1F AND DUP3 ADD SWAP2 JUMPDEST POP POP POP POP POP SWAP1 DUP1 PUSH1 0x3 ADD DUP1 SLOAD PUSH2 0x2256 SWAP1 PUSH2 0x57CE JUMP JUMPDEST DUP1 PUSH1 0x1F ADD PUSH1 0x20 DUP1 SWAP2 DIV MUL PUSH1 0x20 ADD PUSH1 0x40 MLOAD SWAP1 DUP2 ADD PUSH1 0x40 MSTORE DUP1 SWAP3 SWAP2 SWAP1 DUP2 DUP2 MSTORE PUSH1 0x20 ADD DUP3 DUP1 SLOAD PUSH2 0x2282 SWAP1 PUSH2 0x57CE JUMP JUMPDEST DUP1 ISZERO PUSH2 0x22CF JUMPI DUP1 PUSH1 0x1F LT PUSH2 0x22A4 JUMPI PUSH2 0x100 DUP1 DUP4 SLOAD DIV MUL DUP4 MSTORE SWAP2 PUSH1 0x20 ADD SWAP2 PUSH2 0x22CF JUMP JUMPDEST DUP3 ADD SWAP2 SWAP1 PUSH1 0x0 MSTORE PUSH1 0x20 PUSH1 0x0 KECCAK256 SWAP1 JUMPDEST DUP2 SLOAD DUP2 MSTORE SWAP1 PUSH1 0x1 ADD SWAP1 PUSH1 0x20 ADD DUP1 DUP4 GT PUSH2 0x22B2 JUMPI DUP3 SWAP1 SUB PUSH1 0x1F AND DUP3 ADD SWAP2 JUMPDEST POP POP POP POP POP SWAP1 DUP1 PUSH1 0x4 ADD DUP1 SLOAD PUSH2 0x22E4 SWAP1 PUSH2 0x57CE JUMP JUMPDEST DUP1 PUSH1 0x1F ADD PUSH1 0x20 DUP1 SWAP2 DIV MUL PUSH1 0x20 ADD PUSH1 0x40 MLOAD SWAP1 DUP2 ADD PUSH1 0x40 MSTORE DUP1 SWAP3 SWAP2 SWAP1 DUP2 DUP2 MSTORE PUSH1 0x20 ADD DUP3 DUP1 SLOAD PUSH2 0x2310 SWAP1 PUSH2 0x57CE JUMP JUMPDEST DUP1 ISZERO PUSH2 0x235D JUMPI DUP1 PUSH1 0x1F LT PUSH2 0x2332 JUMPI PUSH2 0x100 DUP1 DUP4 SLOAD DIV MUL DUP4 MSTORE SWAP2 PUSH1 0x20 ADD SWAP2 PUSH2 0x235D JUMP JUMPDEST DUP3 ADD SWAP2 SWAP1 PUSH1 0x0 MSTORE PUSH1 0x20 PUSH1 0x0 KECCAK256 SWAP1 JUMPDEST DUP2 SLOAD DUP2 MSTORE SWAP1 PUSH1 0x1 ADD SWAP1 PUSH1 0x20 ADD DUP1 DUP4 GT PUSH2 0x2340 JUMPI DUP3 SWAP1 SUB PUSH1 0x1F AND DUP3 ADD SWAP2 JUMPDEST POP POP POP POP POP SWAP1 DUP1 PUSH1 0x5 ADD SLOAD SWAP1 DUP1 PUSH1 0x6 ADD SLOAD SWAP1 DUP1 PUSH1 0x7 ADD DUP1 SLOAD PUSH2 0x237E SWAP1 PUSH2 0x57CE JUMP JUMPDEST DUP1 PUSH1 0x1F ADD PUSH1 0x20 DUP1 SWAP2 DIV MUL PUSH1 0x20 ADD PUSH1 0x40 MLOAD SWAP1 DUP2 ADD PUSH1 0x40 MSTORE DUP1 SWAP3 SWAP2 SWAP1 DUP2 DUP2 MSTORE PUSH1 0x20 ADD DUP3 DUP1 SLOAD PUSH2 0x23AA SWAP1 PUSH2 0x57CE JUMP JUMPDEST DUP1 ISZERO PUSH2 0x23F7 JUMPI DUP1 PUSH1 0x1F LT PUSH2 0x23CC JUMPI PUSH2 0x100 DUP1 DUP4 SLOAD DIV MUL DUP4 MSTORE SWAP2 PUSH1 0x20 ADD SWAP2 PUSH2 0x23F7 JUMP JUMPDEST DUP3 ADD SWAP2 SWAP1 PUSH1 0x0 MSTORE PUSH1 0x20 PUSH1 0x0 KECCAK256 SWAP1 JUMPDEST DUP2 SLOAD DUP2 MSTORE SWAP1 PUSH1 0x1 ADD SWAP1 PUSH1 0x20 ADD DUP1 DUP4 GT PUSH2 0x23DA JUMPI DUP3 SWAP1 SUB PUSH1 0x1F AND DUP3 ADD SWAP2 JUMPDEST POP POP POP POP POP SWAP1 POP DUP9 JUMP JUMPDEST PUSH1 0x0 DUP1 SLOAD SWAP1 PUSH2 0x100 EXP SWAP1 DIV PUSH20 0xFFFFFFFFFFFFFFFFFFFFFFFFFFFFFFFFFFFFFFFF AND DUP2 JUMP JUMPDEST PUSH1 0x7 DUP2 DUP1 MLOAD PUSH1 0x20 DUP2 ADD DUP3 ADD DUP1 MLOAD DUP5 DUP3 MSTORE PUSH1 0x20 DUP4 ADD PUSH1 0x20 DUP6 ADD KECCAK256 DUP2 DUP4 MSTORE DUP1 SWAP6 POP POP POP POP POP POP PUSH1 0x0 SWAP2 POP SWAP1 POP DUP1 PUSH1 0x0 ADD SLOAD SWAP1 DUP1 PUSH1 0x1 ADD DUP1 SLOAD PUSH2 0x2464 SWAP1 PUSH2 0x57CE JUMP JUMPDEST DUP1 PUSH1 0x1F ADD PUSH1 0x20 DUP1 SWAP2 DIV MUL PUSH1 0x20 ADD PUSH1 0x40 MLOAD SWAP1 DUP2 ADD PUSH1 0x40 MSTORE DUP1 SWAP3 SWAP2 SWAP1 DUP2 DUP2 MSTORE PUSH1 0x20 ADD DUP3 DUP1 SLOAD PUSH2 0x2490 SWAP1 PUSH2 0x57CE JUMP JUMPDEST DUP1 ISZERO PUSH2 0x24DD JUMPI DUP1 PUSH1 0x1F LT PUSH2 0x24B2 JUMPI PUSH2 0x100 DUP1 DUP4 SLOAD DIV MUL DUP4 MSTORE SWAP2 PUSH1 0x20 ADD SWAP2 PUSH2 0x24DD JUMP JUMPDEST DUP3 ADD SWAP2 SWAP1 PUSH1 0x0 MSTORE PUSH1 0x20 PUSH1 0x0 KECCAK256 SWAP1 JUMPDEST DUP2 SLOAD DUP2 MSTORE SWAP1 PUSH1 0x1 ADD SWAP1 PUSH1 0x20 ADD DUP1 DUP4 GT PUSH2 0x24C0 JUMPI DUP3 SWAP1 SUB PUSH1 0x1F AND DUP3 ADD SWAP2 JUMPDEST POP POP POP POP POP SWAP1 DUP1 PUSH1 0x2 ADD DUP1 SLOAD PUSH2 0x24F2 SWAP1 PUSH2 0x57CE JUMP JUMPDEST DUP1 PUSH1 0x1F ADD PUSH1 0x20 DUP1 SWAP2 DIV MUL PUSH1 0x20 ADD PUSH1 0x40 MLOAD SWAP1 DUP2 ADD PUSH1 0x40 MSTORE DUP1 SWAP3 SWAP2 SWAP1 DUP2 DUP2 MSTORE PUSH1 0x20 ADD DUP3 DUP1 SLOAD PUSH2 0x251E SWAP1 PUSH2 0x57CE JUMP JUMPDEST DUP1 ISZERO PUSH2 0x256B JUMPI DUP1 PUSH1 0x1F LT PUSH2 0x2540 JUMPI PUSH2 0x100 DUP1 DUP4 SLOAD DIV MUL DUP4 MSTORE SWAP2 PUSH1 0x20 ADD SWAP2 PUSH2 0x256B JUMP JUMPDEST DUP3 ADD SWAP2 SWAP1 PUSH1 0x0 MSTORE PUSH1 0x20 PUSH1 0x0 KECCAK256 SWAP1 JUMPDEST DUP2 SLOAD DUP2 MSTORE SWAP1 PUSH1 0x1 ADD SWAP1 PUSH1 0x20 ADD DUP1 DUP4 GT PUSH2 0x254E JUMPI DUP3 SWAP1 SUB PUSH1 0x1F AND DUP3 ADD SWAP2 JUMPDEST POP POP POP POP POP SWAP1 DUP1 PUSH1 0x3 ADD DUP1 SLOAD PUSH2 0x2580 SWAP1 PUSH2 0x57CE JUMP JUMPDEST DUP1 PUSH1 0x1F ADD PUSH1 0x20 DUP1 SWAP2 DIV MUL PUSH1 0x20 ADD PUSH1 0x40 MLOAD SWAP1 DUP2 ADD PUSH1 0x40 MSTORE DUP1 SWAP3 SWAP2 SWAP1 DUP2 DUP2 MSTORE PUSH1 0x20 ADD DUP3 DUP1 SLOAD PUSH2 0x25AC SWAP1 PUSH2 0x57CE JUMP JUMPDEST DUP1 ISZERO PUSH2 0x25F9 JUMPI DUP1 PUSH1 0x1F LT PUSH2 0x25CE JUMPI PUSH2 0x100 DUP1 DUP4 SLOAD DIV MUL DUP4 MSTORE SWAP2 PUSH1 0x20 ADD SWAP2 PUSH2 0x25F9 JUMP JUMPDEST DUP3 ADD SWAP2 SWAP1 PUSH1 0x0 MSTORE PUSH1 0x20 PUSH1 0x0 KECCAK256 SWAP1 JUMPDEST DUP2 SLOAD DUP2 MSTORE SWAP1 PUSH1 0x1 ADD SWAP1 PUSH1 0x20 ADD DUP1 DUP4 GT PUSH2 0x25DC JUMPI DUP3 SWAP1 SUB PUSH1 0x1F AND DUP3 ADD SWAP2 JUMPDEST POP POP POP POP POP SWAP1 DUP1 PUSH1 0x4 ADD SLOAD SWAP1 DUP1 PUSH1 0x5 ADD SLOAD SWAP1 POP DUP7 JUMP JUMPDEST PUSH1 0xE PUSH1 0x0 DUP4 PUSH20 0xFFFFFFFFFFFFFFFFFFFFFFFFFFFFFFFFFFFFFFFF AND PUSH20 0xFFFFFFFFFFFFFFFFFFFFFFFFFFFFFFFFFFFFFFFF AND DUP2 MSTORE PUSH1 0x20 ADD SWAP1 DUP2 MSTORE PUSH1 0x20 ADD PUSH1 0x0 KECCAK256 PUSH1 0x0 SWAP1 SLOAD SWAP1 PUSH2 0x100 EXP SWAP1 DIV PUSH1 0xFF AND PUSH2 0x2665 JUMPI PUSH1 0x0 DUP1 REVERT JUMPDEST PUSH1 0x0 PUSH1 0x5 PUSH1 0x0 DUP5 PUSH20 0xFFFFFFFFFFFFFFFFFFFFFFFFFFFFFFFFFFFFFFFF AND PUSH20 0xFFFFFFFFFFFFFFFFFFFFFFFFFFFFFFFFFFFFFFFF AND DUP2 MSTORE PUSH1 0x20 ADD SWAP1 DUP2 MSTORE PUSH1 0x20 ADD PUSH1 0x0 KECCAK256 SWAP1 POP PUSH1 0x0 PUSH1 0x2 DUP4 DUP2 SLOAD DUP2 LT PUSH2 0x26BE JUMPI PUSH2 0x26BD PUSH2 0x5770 JUMP JUMPDEST JUMPDEST SWAP1 PUSH1 0x0 MSTORE PUSH1 0x20 PUSH1 0x0 KECCAK256 SWAP1 PUSH1 0x6 MUL ADD SWAP1 POP DUP1 PUSH1 0x5 ADD PUSH1 0x0 DUP2 SLOAD DUP1 SWAP3 SWAP2 SWAP1 PUSH2 0x26E3 SWAP1 PUSH2 0x5AD8 JUMP JUMPDEST SWAP2 SWAP1 POP SSTORE POP PUSH1 0x9 PUSH1 0x0 DUP5 DUP2 MSTORE PUSH1 0x20 ADD SWAP1 DUP2 MSTORE PUSH1 0x20 ADD PUSH1 0x0 KECCAK256 DUP3 SWAP1 DUP1 PUSH1 0x1 DUP2 SLOAD ADD DUP1 DUP3 SSTORE DUP1 SWAP2 POP POP PUSH1 0x1 SWAP1 SUB SWAP1 PUSH1 0x0 MSTORE PUSH1 0x20 PUSH1 0x0 KECCAK256 SWAP1 PUSH1 0x8 MUL ADD PUSH1 0x0 SWAP1 SWAP2 SWAP1 SWAP2 SWAP1 SWAP2 POP PUSH1 0x0 DUP3 ADD SLOAD DUP2 PUSH1 0x0 ADD SSTORE PUSH1 0x1 DUP3 ADD PUSH1 0x0 SWAP1 SLOAD SWAP1 PUSH2 0x100 EXP SWAP1 DIV PUSH20 0xFFFFFFFFFFFFFFFFFFFFFFFFFFFFFFFFFFFFFFFF AND DUP2 PUSH1 0x1 ADD PUSH1 0x0 PUSH2 0x100 EXP DUP2 SLOAD DUP2 PUSH20 0xFFFFFFFFFFFFFFFFFFFFFFFFFFFFFFFFFFFFFFFF MUL NOT AND SWAP1 DUP4 PUSH20 0xFFFFFFFFFFFFFFFFFFFFFFFFFFFFFFFFFFFFFFFF AND MUL OR SWAP1 SSTORE POP PUSH1 0x2 DUP3 ADD DUP2 PUSH1 0x2 ADD SWAP1 DUP2 PUSH2 0x27AA SWAP2 SWAP1 PUSH2 0x59C1 JUMP JUMPDEST POP PUSH1 0x3 DUP3 ADD DUP2 PUSH1 0x3 ADD SWAP1 DUP2 PUSH2 0x27BF SWAP2 SWAP1 PUSH2 0x59C1 JUMP JUMPDEST POP PUSH1 0x4 DUP3 ADD DUP2 PUSH1 0x4 ADD SWAP1 DUP2 PUSH2 0x27D4 SWAP2 SWAP1 PUSH2 0x59C1 JUMP JUMPDEST POP PUSH1 0x5 DUP3 ADD SLOAD DUP2 PUSH1 0x5 ADD SSTORE PUSH1 0x6 DUP3 ADD SLOAD DUP2 PUSH1 0x6 ADD SSTORE PUSH1 0x7 DUP3 ADD DUP2 PUSH1 0x7 ADD SWAP1 DUP2 PUSH2 0x27FD SWAP2 SWAP1 PUSH2 0x59C1 JUMP JUMPDEST POP POP POP POP POP POP POP JUMP JUMPDEST PUSH1 0x2 DUP2 DUP2 SLOAD DUP2 LT PUSH2 0x2816 JUMPI PUSH1 0x0 DUP1 REVERT JUMPDEST SWAP1 PUSH1 0x0 MSTORE PUSH1 0x20 PUSH1 0x0 KECCAK256 SWAP1 PUSH1 0x6 MUL ADD PUSH1 0x0 SWAP2 POP SWAP1 POP DUP1 PUSH1 0x0 ADD SLOAD SWAP1 DUP1 PUSH1 0x1 ADD DUP1 SLOAD PUSH2 0x283F SWAP1 PUSH2 0x57CE JUMP JUMPDEST DUP1 PUSH1 0x1F ADD PUSH1 0x20 DUP1 SWAP2 DIV MUL PUSH1 0x20 ADD PUSH1 0x40 MLOAD SWAP1 DUP2 ADD PUSH1 0x40 MSTORE DUP1 SWAP3 SWAP2 SWAP1 DUP2 DUP2 MSTORE PUSH1 0x20 ADD DUP3 DUP1 SLOAD PUSH2 0x286B SWAP1 PUSH2 0x57CE JUMP JUMPDEST DUP1 ISZERO PUSH2 0x28B8 JUMPI DUP1 PUSH1 0x1F LT PUSH2 0x288D JUMPI PUSH2 0x100 DUP1 DUP4 SLOAD DIV MUL DUP4 MSTORE SWAP2 PUSH1 0x20 ADD SWAP2 PUSH2 0x28B8 JUMP JUMPDEST DUP3 ADD SWAP2 SWAP1 PUSH1 0x0 MSTORE PUSH1 0x20 PUSH1 0x0 KECCAK256 SWAP1 JUMPDEST DUP2 SLOAD DUP2 MSTORE SWAP1 PUSH1 0x1 ADD SWAP1 PUSH1 0x20 ADD DUP1 DUP4 GT PUSH2 0x289B JUMPI DUP3 SWAP1 SUB PUSH1 0x1F AND DUP3 ADD SWAP2 JUMPDEST POP POP POP POP POP SWAP1 DUP1 PUSH1 0x2 ADD DUP1 SLOAD PUSH2 0x28CD SWAP1 PUSH2 0x57CE JUMP JUMPDEST DUP1 PUSH1 0x1F ADD PUSH1 0x20 DUP1 SWAP2 DIV MUL PUSH1 0x20 ADD PUSH1 0x40 MLOAD SWAP1 DUP2 ADD PUSH1 0x40 MSTORE DUP1 SWAP3 SWAP2 SWAP1 DUP2 DUP2 MSTORE PUSH1 0x20 ADD DUP3 DUP1 SLOAD PUSH2 0x28F9 SWAP1 PUSH2 0x57CE JUMP JUMPDEST DUP1 ISZERO PUSH2 0x2946 JUMPI DUP1 PUSH1 0x1F LT PUSH2 0x291B JUMPI PUSH2 0x100 DUP1 DUP4 SLOAD DIV MUL DUP4 MSTORE SWAP2 PUSH1 0x20 ADD SWAP2 PUSH2 0x2946 JUMP JUMPDEST DUP3 ADD SWAP2 SWAP1 PUSH1 0x0 MSTORE PUSH1 0x20 PUSH1 0x0 KECCAK256 SWAP1 JUMPDEST DUP2 SLOAD DUP2 MSTORE SWAP1 PUSH1 0x1 ADD SWAP1 PUSH1 0x20 ADD DUP1 DUP4 GT PUSH2 0x2929 JUMPI DUP3 SWAP1 SUB PUSH1 0x1F AND DUP3 ADD SWAP2 JUMPDEST POP POP POP POP POP SWAP1 DUP1 PUSH1 0x3 ADD DUP1 SLOAD PUSH2 0x295B SWAP1 PUSH2 0x57CE JUMP JUMPDEST DUP1 PUSH1 0x1F ADD PUSH1 0x20 DUP1 SWAP2 DIV MUL PUSH1 0x20 ADD PUSH1 0x40 MLOAD SWAP1 DUP2 ADD PUSH1 0x40 MSTORE DUP1 SWAP3 SWAP2 SWAP1 DUP2 DUP2 MSTORE PUSH1 0x20 ADD DUP3 DUP1 SLOAD PUSH2 0x2987 SWAP1 PUSH2 0x57CE JUMP JUMPDEST DUP1 ISZERO PUSH2 0x29D4 JUMPI DUP1 PUSH1 0x1F LT PUSH2 0x29A9 JUMPI PUSH2 0x100 DUP1 DUP4 SLOAD DIV MUL DUP4 MSTORE SWAP2 PUSH1 0x20 ADD SWAP2 PUSH2 0x29D4 JUMP JUMPDEST DUP3 ADD SWAP2 SWAP1 PUSH1 0x0 MSTORE PUSH1 0x20 PUSH1 0x0 KECCAK256 SWAP1 JUMPDEST DUP2 SLOAD DUP2 MSTORE SWAP1 PUSH1 0x1 ADD SWAP1 PUSH1 0x20 ADD DUP1 DUP4 GT PUSH2 0x29B7 JUMPI DUP3 SWAP1 SUB PUSH1 0x1F AND DUP3 ADD SWAP2 JUMPDEST POP POP POP POP POP SWAP1 DUP1 PUSH1 0x4 ADD SLOAD SWAP1 DUP1 PUSH1 0x5 ADD SLOAD SWAP1 POP DUP7 JUMP JUMPDEST PUSH1 0xE PUSH1 0x0 CALLER PUSH20 0xFFFFFFFFFFFFFFFFFFFFFFFFFFFFFFFFFFFFFFFF AND PUSH20 0xFFFFFFFFFFFFFFFFFFFFFFFFFFFFFFFFFFFFFFFF AND DUP2 MSTORE PUSH1 0x20 ADD SWAP1 DUP2 MSTORE PUSH1 0x20 ADD PUSH1 0x0 KECCAK256 PUSH1 0x0 SWAP1 SLOAD SWAP1 PUSH2 0x100 EXP SWAP1 DIV PUSH1 0xFF AND PUSH2 0x2A40 JUMPI PUSH1 0x0 DUP1 REVERT JUMPDEST PUSH1 0x0 PUSH1 0x5 PUSH1 0x0 DUP5 PUSH20 0xFFFFFFFFFFFFFFFFFFFFFFFFFFFFFFFFFFFFFFFF AND PUSH20 0xFFFFFFFFFFFFFFFFFFFFFFFFFFFFFFFFFFFFFFFF AND DUP2 MSTORE PUSH1 0x20 ADD SWAP1 DUP2 MSTORE PUSH1 0x20 ADD PUSH1 0x0 KECCAK256 SWAP1 POP PUSH1 0x0 PUSH1 0x2 DUP4 DUP2 SLOAD DUP2 LT PUSH2 0x2A99 JUMPI PUSH2 0x2A98 PUSH2 0x5770 JUMP JUMPDEST JUMPDEST SWAP1 PUSH1 0x0 MSTORE PUSH1 0x20 PUSH1 0x0 KECCAK256 SWAP1 PUSH1 0x6 MUL ADD SWAP1 POP DUP2 PUSH1 0x6 ADD PUSH1 0x0 DUP2 SLOAD DUP1 SWAP3 SWAP2 SWAP1 PUSH2 0x2ABE SWAP1 PUSH2 0x5AD8 JUMP JUMPDEST SWAP2 SWAP1 POP SSTORE POP DUP2 PUSH1 0x1 DUP4 PUSH1 0x0 ADD SLOAD DUP2 SLOAD DUP2 LT PUSH2 0x2ADC JUMPI PUSH2 0x2ADB PUSH2 0x5770 JUMP JUMPDEST JUMPDEST SWAP1 PUSH1 0x0 MSTORE PUSH1 0x20 PUSH1 0x0 KECCAK256 SWAP1 PUSH1 0x8 MUL ADD PUSH1 0x0 DUP3 ADD SLOAD DUP2 PUSH1 0x0 ADD SSTORE PUSH1 0x1 DUP3 ADD PUSH1 0x0 SWAP1 SLOAD SWAP1 PUSH2 0x100 EXP SWAP1 DIV PUSH20 0xFFFFFFFFFFFFFFFFFFFFFFFFFFFFFFFFFFFFFFFF AND DUP2 PUSH1 0x1 ADD PUSH1 0x0 PUSH2 0x100 EXP DUP2 SLOAD DUP2 PUSH20 0xFFFFFFFFFFFFFFFFFFFFFFFFFFFFFFFFFFFFFFFF MUL NOT AND SWAP1 DUP4 PUSH20 0xFFFFFFFFFFFFFFFFFFFFFFFFFFFFFFFFFFFFFFFF AND MUL OR SWAP1 SSTORE POP PUSH1 0x2 DUP3 ADD DUP2 PUSH1 0x2 ADD SWAP1 DUP2 PUSH2 0x2B6F SWAP2 SWAP1 PUSH2 0x59C1 JUMP JUMPDEST POP PUSH1 0x3 DUP3 ADD DUP2 PUSH1 0x3 ADD SWAP1 DUP2 PUSH2 0x2B84 SWAP2 SWAP1 PUSH2 0x59C1 JUMP JUMPDEST POP PUSH1 0x4 DUP3 ADD DUP2 PUSH1 0x4 ADD SWAP1 DUP2 PUSH2 0x2B99 SWAP2 SWAP1 PUSH2 0x59C1 JUMP JUMPDEST POP PUSH1 0x5 DUP3 ADD SLOAD DUP2 PUSH1 0x5 ADD SSTORE PUSH1 0x6 DUP3 ADD SLOAD DUP2 PUSH1 0x6 ADD SSTORE PUSH1 0x7 DUP3 ADD DUP2 PUSH1 0x7 ADD SWAP1 DUP2 PUSH2 0x2BC2 SWAP2 SWAP1 PUSH2 0x59C1 JUMP JUMPDEST POP SWAP1 POP POP PUSH1 0xA PUSH1 0x0 DUP6 PUSH20 0xFFFFFFFFFFFFFFFFFFFFFFFFFFFFFFFFFFFFFFFF AND PUSH20 0xFFFFFFFFFFFFFFFFFFFFFFFFFFFFFFFFFFFFFFFF AND DUP2 MSTORE PUSH1 0x20 ADD SWAP1 DUP2 MSTORE PUSH1 0x20 ADD PUSH1 0x0 KECCAK256 DUP2 SWAP1 DUP1 PUSH1 0x1 DUP2 SLOAD ADD DUP1 DUP3 SSTORE DUP1 SWAP2 POP POP PUSH1 0x1 SWAP1 SUB SWAP1 PUSH1 0x0 MSTORE PUSH1 0x20 PUSH1 0x0 KECCAK256 SWAP1 PUSH1 0x6 MUL ADD PUSH1 0x0 SWAP1 SWAP2 SWAP1 SWAP2 SWAP1 SWAP2 POP PUSH1 0x0 DUP3 ADD SLOAD DUP2 PUSH1 0x0 ADD SSTORE PUSH1 0x1 DUP3 ADD DUP2 PUSH1 0x1 ADD SWAP1 DUP2 PUSH2 0x2C4D SWAP2 SWAP1 PUSH2 0x59C1 JUMP JUMPDEST POP PUSH1 0x2 DUP3 ADD DUP2 PUSH1 0x2 ADD SWAP1 DUP2 PUSH2 0x2C62 SWAP2 SWAP1 PUSH2 0x59C1 JUMP JUMPDEST POP PUSH1 0x3 DUP3 ADD DUP2 PUSH1 0x3 ADD SWAP1 DUP2 PUSH2 0x2C77 SWAP2 SWAP1 PUSH2 0x59C1 JUMP JUMPDEST POP PUSH1 0x4 DUP3 ADD SLOAD DUP2 PUSH1 0x4 ADD SSTORE PUSH1 0x5 DUP3 ADD SLOAD DUP2 PUSH1 0x5 ADD SSTORE POP POP POP POP POP POP JUMP JUMPDEST PUSH1 0x0 DUP1 SLOAD SWAP1 PUSH2 0x100 EXP SWAP1 DIV PUSH20 0xFFFFFFFFFFFFFFFFFFFFFFFFFFFFFFFFFFFFFFFF AND PUSH20 0xFFFFFFFFFFFFFFFFFFFFFFFFFFFFFFFFFFFFFFFF AND CALLER PUSH20 0xFFFFFFFFFFFFFFFFFFFFFFFFFFFFFFFFFFFFFFFF AND EQ PUSH2 0x2D22 JUMPI PUSH1 0x40 MLOAD PUSH32 0x8C379A000000000000000000000000000000000000000000000000000000000 DUP2 MSTORE PUSH1 0x4 ADD PUSH2 0x2D19 SWAP1 PUSH2 0x5BBB JUMP JUMPDEST PUSH1 0x40 MLOAD DUP1 SWAP2 SUB SWAP1 REVERT JUMPDEST DUP1 PUSH20 0xFFFFFFFFFFFFFFFFFFFFFFFFFFFFFFFFFFFFFFFF AND PUSH2 0x8FC SELFBALANCE SWAP1 DUP2 ISZERO MUL SWAP1 PUSH1 0x40 MLOAD PUSH1 0x0 PUSH1 0x40 MLOAD DUP1 DUP4 SUB DUP2 DUP6 DUP9 DUP9 CALL SWAP4 POP POP POP POP ISZERO DUP1 ISZERO PUSH2 0x2D68 JUMPI RETURNDATASIZE PUSH1 0x0 DUP1 RETURNDATACOPY RETURNDATASIZE PUSH1 0x0 REVERT JUMPDEST POP POP JUMP JUMPDEST PUSH1 0x13 SLOAD DUP2 JUMP JUMPDEST PUSH1 0x0 DUP1 SLOAD SWAP1 PUSH2 0x100 EXP SWAP1 DIV PUSH20 0xFFFFFFFFFFFFFFFFFFFFFFFFFFFFFFFFFFFFFFFF AND PUSH20 0xFFFFFFFFFFFFFFFFFFFFFFFFFFFFFFFFFFFFFFFF AND CALLER PUSH20 0xFFFFFFFFFFFFFFFFFFFFFFFFFFFFFFFFFFFFFFFF AND EQ PUSH2 0x2E00 JUMPI PUSH1 0x40 MLOAD PUSH32 0x8C379A000000000000000000000000000000000000000000000000000000000 DUP2 MSTORE PUSH1 0x4 ADD PUSH2 0x2DF7 SWAP1 PUSH2 0x5DD0 JUMP JUMPDEST PUSH1 0x40 MLOAD DUP1 SWAP2 SUB SWAP1 REVERT JUMPDEST DUP1 PUSH1 0x15 PUSH1 0x0 PUSH2 0x100 EXP DUP2 SLOAD DUP2 PUSH20 0xFFFFFFFFFFFFFFFFFFFFFFFFFFFFFFFFFFFFFFFF MUL NOT AND SWAP1 DUP4 PUSH20 0xFFFFFFFFFFFFFFFFFFFFFFFFFFFFFFFFFFFFFFFF AND MUL OR SWAP1 SSTORE POP POP JUMP JUMPDEST PUSH1 0xD DUP2 DUP1 MLOAD PUSH1 0x20 DUP2 ADD DUP3 ADD DUP1 MLOAD DUP5 DUP3 MSTORE PUSH1 0x20 DUP4 ADD PUSH1 0x20 DUP6 ADD KECCAK256 DUP2 DUP4 MSTORE DUP1 SWAP6 POP POP POP POP POP POP PUSH1 0x0 SWAP2 POP SWAP1 POP SLOAD DUP2 JUMP JUMPDEST PUSH1 0x1 DUP2 DUP2 SLOAD DUP2 LT PUSH2 0x2E82 JUMPI PUSH1 0x0 DUP1 REVERT JUMPDEST SWAP1 PUSH1 0x0 MSTORE PUSH1 0x20 PUSH1 0x0 KECCAK256 SWAP1 PUSH1 0x8 MUL ADD PUSH1 0x0 SWAP2 POP SWAP1 POP DUP1 PUSH1 0x0 ADD SLOAD SWAP1 DUP1 PUSH1 0x1 ADD PUSH1 0x0 SWAP1 SLOAD SWAP1 PUSH2 0x100 EXP SWAP1 DIV PUSH20 0xFFFFFFFFFFFFFFFFFFFFFFFFFFFFFFFFFFFFFFFF AND SWAP1 DUP1 PUSH1 0x2 ADD DUP1 SLOAD PUSH2 0x2ED1 SWAP1 PUSH2 0x57CE JUMP JUMPDEST DUP1 PUSH1 0x1F ADD PUSH1 0x20 DUP1 SWAP2 DIV MUL PUSH1 0x20 ADD PUSH1 0x40 MLOAD SWAP1 DUP2 ADD PUSH1 0x40 MSTORE DUP1 SWAP3 SWAP2 SWAP1 DUP2 DUP2 MSTORE PUSH1 0x20 ADD DUP3 DUP1 SLOAD PUSH2 0x2EFD SWAP1 PUSH2 0x57CE JUMP JUMPDEST DUP1 ISZERO PUSH2 0x2F4A JUMPI DUP1 PUSH1 0x1F LT PUSH2 0x2F1F JUMPI PUSH2 0x100 DUP1 DUP4 SLOAD DIV MUL DUP4 MSTORE SWAP2 PUSH1 0x20 ADD SWAP2 PUSH2 0x2F4A JUMP JUMPDEST DUP3 ADD SWAP2 SWAP1 PUSH1 0x0 MSTORE PUSH1 0x20 PUSH1 0x0 KECCAK256 SWAP1 JUMPDEST DUP2 SLOAD DUP2 MSTORE SWAP1 PUSH1 0x1 ADD SWAP1 PUSH1 0x20 ADD DUP1 DUP4 GT PUSH2 0x2F2D JUMPI DUP3 SWAP1 SUB PUSH1 0x1F AND DUP3 ADD SWAP2 JUMPDEST POP POP POP POP POP SWAP1 DUP1 PUSH1 0x3 ADD DUP1 SLOAD PUSH2 0x2F5F SWAP1 PUSH2 0x57CE JUMP JUMPDEST DUP1 PUSH1 0x1F ADD PUSH1 0x20 DUP1 SWAP2 DIV MUL PUSH1 0x20 ADD PUSH1 0x40 MLOAD SWAP1 DUP2 ADD PUSH1 0x40 MSTORE DUP1 SWAP3 SWAP2 SWAP1 DUP2 DUP2 MSTORE PUSH1 0x20 ADD DUP3 DUP1 SLOAD PUSH2 0x2F8B SWAP1 PUSH2 0x57CE JUMP JUMPDEST DUP1 ISZERO PUSH2 0x2FD8 JUMPI DUP1 PUSH1 0x1F LT PUSH2 0x2FAD JUMPI PUSH2 0x100 DUP1 DUP4 SLOAD DIV MUL DUP4 MSTORE SWAP2 PUSH1 0x20 ADD SWAP2 PUSH2 0x2FD8 JUMP JUMPDEST DUP3 ADD SWAP2 SWAP1 PUSH1 0x0 MSTORE PUSH1 0x20 PUSH1 0x0 KECCAK256 SWAP1 JUMPDEST DUP2 SLOAD DUP2 MSTORE SWAP1 PUSH1 0x1 ADD SWAP1 PUSH1 0x20 ADD DUP1 DUP4 GT PUSH2 0x2FBB JUMPI DUP3 SWAP1 SUB PUSH1 0x1F AND DUP3 ADD SWAP2 JUMPDEST POP POP POP POP POP SWAP1 DUP1 PUSH1 0x4 ADD DUP1 SLOAD PUSH2 0x2FED SWAP1 PUSH2 0x57CE JUMP JUMPDEST DUP1 PUSH1 0x1F ADD PUSH1 0x20 DUP1 SWAP2 DIV MUL PUSH1 0x20 ADD PUSH1 0x40 MLOAD SWAP1 DUP2 ADD PUSH1 0x40 MSTORE DUP1 SWAP3 SWAP2 SWAP1 DUP2 DUP2 MSTORE PUSH1 0x20 ADD DUP3 DUP1 SLOAD PUSH2 0x3019 SWAP1 PUSH2 0x57CE JUMP JUMPDEST DUP1 ISZERO PUSH2 0x3066 JUMPI DUP1 PUSH1 0x1F LT PUSH2 0x303B JUMPI PUSH2 0x100 DUP1 DUP4 SLOAD DIV MUL DUP4 MSTORE SWAP2 PUSH1 0x20 ADD SWAP2 PUSH2 0x3066 JUMP JUMPDEST DUP3 ADD SWAP2 SWAP1 PUSH1 0x0 MSTORE PUSH1 0x20 PUSH1 0x0 KECCAK256 SWAP1 JUMPDEST DUP2 SLOAD DUP2 MSTORE SWAP1 PUSH1 0x1 ADD SWAP1 PUSH1 0x20 ADD DUP1 DUP4 GT PUSH2 0x3049 JUMPI DUP3 SWAP1 SUB PUSH1 0x1F AND DUP3 ADD SWAP2 JUMPDEST POP POP POP POP POP SWAP1 DUP1 PUSH1 0x5 ADD SLOAD SWAP1 DUP1 PUSH1 0x6 ADD SLOAD SWAP1 DUP1 PUSH1 0x7 ADD DUP1 SLOAD PUSH2 0x3087 SWAP1 PUSH2 0x57CE JUMP JUMPDEST DUP1 PUSH1 0x1F ADD PUSH1 0x20 DUP1 SWAP2 DIV MUL PUSH1 0x20 ADD PUSH1 0x40 MLOAD SWAP1 DUP2 ADD PUSH1 0x40 MSTORE DUP1 SWAP3 SWAP2 SWAP1 DUP2 DUP2 MSTORE PUSH1 0x20 ADD DUP3 DUP1 SLOAD PUSH2 0x30B3 SWAP1 PUSH2 0x57CE JUMP JUMPDEST DUP1 ISZERO PUSH2 0x3100 JUMPI DUP1 PUSH1 0x1F LT PUSH2 0x30D5 JUMPI PUSH2 0x100 DUP1 DUP4 SLOAD DIV MUL DUP4 MSTORE SWAP2 PUSH1 0x20 ADD SWAP2 PUSH2 0x3100 JUMP JUMPDEST DUP3 ADD SWAP2 SWAP1 PUSH1 0x0 MSTORE PUSH1 0x20 PUSH1 0x0 KECCAK256 SWAP1 JUMPDEST DUP2 SLOAD DUP2 MSTORE SWAP1 PUSH1 0x1 ADD SWAP1 PUSH1 0x20 ADD DUP1 DUP4 GT PUSH2 0x30E3 JUMPI DUP3 SWAP1 SUB PUSH1 0x1F AND DUP3 ADD SWAP2 JUMPDEST POP POP POP POP POP SWAP1 POP DUP9 JUMP JUMPDEST PUSH1 0x5 PUSH1 0x20 MSTORE DUP1 PUSH1 0x0 MSTORE PUSH1 0x40 PUSH1 0x0 KECCAK256 PUSH1 0x0 SWAP2 POP SWAP1 POP DUP1 PUSH1 0x0 ADD SLOAD SWAP1 DUP1 PUSH1 0x1 ADD PUSH1 0x0 SWAP1 SLOAD SWAP1 PUSH2 0x100 EXP SWAP1 DIV PUSH20 0xFFFFFFFFFFFFFFFFFFFFFFFFFFFFFFFFFFFFFFFF AND SWAP1 DUP1 PUSH1 0x2 ADD DUP1 SLOAD PUSH2 0x3159 SWAP1 PUSH2 0x57CE JUMP JUMPDEST DUP1 PUSH1 0x1F ADD PUSH1 0x20 DUP1 SWAP2 DIV MUL PUSH1 0x20 ADD PUSH1 0x40 MLOAD SWAP1 DUP2 ADD PUSH1 0x40 MSTORE DUP1 SWAP3 SWAP2 SWAP1 DUP2 DUP2 MSTORE PUSH1 0x20 ADD DUP3 DUP1 SLOAD PUSH2 0x3185 SWAP1 PUSH2 0x57CE JUMP JUMPDEST DUP1 ISZERO PUSH2 0x31D2 JUMPI DUP1 PUSH1 0x1F LT PUSH2 0x31A7 JUMPI PUSH2 0x100 DUP1 DUP4 SLOAD DIV MUL DUP4 MSTORE SWAP2 PUSH1 0x20 ADD SWAP2 PUSH2 0x31D2 JUMP JUMPDEST DUP3 ADD SWAP2 SWAP1 PUSH1 0x0 MSTORE PUSH1 0x20 PUSH1 0x0 KECCAK256 SWAP1 JUMPDEST DUP2 SLOAD DUP2 MSTORE SWAP1 PUSH1 0x1 ADD SWAP1 PUSH1 0x20 ADD DUP1 DUP4 GT PUSH2 0x31B5 JUMPI DUP3 SWAP1 SUB PUSH1 0x1F AND DUP3 ADD SWAP2 JUMPDEST POP POP POP POP POP SWAP1 DUP1 PUSH1 0x3 ADD DUP1 SLOAD PUSH2 0x31E7 SWAP1 PUSH2 0x57CE JUMP JUMPDEST DUP1 PUSH1 0x1F ADD PUSH1 0x20 DUP1 SWAP2 DIV MUL PUSH1 0x20 ADD PUSH1 0x40 MLOAD SWAP1 DUP2 ADD PUSH1 0x40 MSTORE DUP1 SWAP3 SWAP2 SWAP1 DUP2 DUP2 MSTORE PUSH1 0x20 ADD DUP3 DUP1 SLOAD PUSH2 0x3213 SWAP1 PUSH2 0x57CE JUMP JUMPDEST DUP1 ISZERO PUSH2 0x3260 JUMPI DUP1 PUSH1 0x1F LT PUSH2 0x3235 JUMPI PUSH2 0x100 DUP1 DUP4 SLOAD DIV MUL DUP4 MSTORE SWAP2 PUSH1 0x20 ADD SWAP2 PUSH2 0x3260 JUMP JUMPDEST DUP3 ADD SWAP2 SWAP1 PUSH1 0x0 MSTORE PUSH1 0x20 PUSH1 0x0 KECCAK256 SWAP1 JUMPDEST DUP2 SLOAD DUP2 MSTORE SWAP1 PUSH1 0x1 ADD SWAP1 PUSH1 0x20 ADD DUP1 DUP4 GT PUSH2 0x3243 JUMPI DUP3 SWAP1 SUB PUSH1 0x1F AND DUP3 ADD SWAP2 JUMPDEST POP POP POP POP POP SWAP1 DUP1 PUSH1 0x4 ADD DUP1 SLOAD PUSH2 0x3275 SWAP1 PUSH2 0x57CE JUMP JUMPDEST DUP1 PUSH1 0x1F ADD PUSH1 0x20 DUP1 SWAP2 DIV MUL PUSH1 0x20 ADD PUSH1 0x40 MLOAD SWAP1 DUP2 ADD PUSH1 0x40 MSTORE DUP1 SWAP3 SWAP2 SWAP1 DUP2 DUP2 MSTORE PUSH1 0x20 ADD DUP3 DUP1 SLOAD PUSH2 0x32A1 SWAP1 PUSH2 0x57CE JUMP JUMPDEST DUP1 ISZERO PUSH2 0x32EE JUMPI DUP1 PUSH1 0x1F LT PUSH2 0x32C3 JUMPI PUSH2 0x100 DUP1 DUP4 SLOAD DIV MUL DUP4 MSTORE SWAP2 PUSH1 0x20 ADD SWAP2 PUSH2 0x32EE JUMP JUMPDEST DUP3 ADD SWAP2 SWAP1 PUSH1 0x0 MSTORE PUSH1 0x20 PUSH1 0x0 KECCAK256 SWAP1 JUMPDEST DUP2 SLOAD DUP2 MSTORE SWAP1 PUSH1 0x1 ADD SWAP1 PUSH1 0x20 ADD DUP1 DUP4 GT PUSH2 0x32D1 JUMPI DUP3 SWAP1 SUB PUSH1 0x1F AND DUP3 ADD SWAP2 JUMPDEST POP POP POP POP POP SWAP1 DUP1 PUSH1 0x5 ADD SLOAD SWAP1 DUP1 PUSH1 0x6 ADD SLOAD SWAP1 DUP1 PUSH1 0x7 ADD DUP1 SLOAD PUSH2 0x330F SWAP1 PUSH2 0x57CE JUMP JUMPDEST DUP1 PUSH1 0x1F ADD PUSH1 0x20 DUP1 SWAP2 DIV MUL PUSH1 0x20 ADD PUSH1 0x40 MLOAD SWAP1 DUP2 ADD PUSH1 0x40 MSTORE DUP1 SWAP3 SWAP2 SWAP1 DUP2 DUP2 MSTORE PUSH1 0x20 ADD DUP3 DUP1 SLOAD PUSH2 0x333B SWAP1 PUSH2 0x57CE JUMP JUMPDEST DUP1 ISZERO PUSH2 0x3388 JUMPI DUP1 PUSH1 0x1F LT PUSH2 0x335D JUMPI PUSH2 0x100 DUP1 DUP4 SLOAD DIV MUL DUP4 MSTORE SWAP2 PUSH1 0x20 ADD SWAP2 PUSH2 0x3388 JUMP JUMPDEST DUP3 ADD SWAP2 SWAP1 PUSH1 0x0 MSTORE PUSH1 0x20 PUSH1 0x0 KECCAK256 SWAP1 JUMPDEST DUP2 SLOAD DUP2 MSTORE SWAP1 PUSH1 0x1 ADD SWAP1 PUSH1 0x20 ADD DUP1 DUP4 GT PUSH2 0x336B JUMPI DUP3 SWAP1 SUB PUSH1 0x1F AND DUP3 ADD SWAP2 JUMPDEST POP POP POP POP POP SWAP1 POP DUP9 JUMP JUMPDEST PUSH1 0xE PUSH1 0x20 MSTORE DUP1 PUSH1 0x0 MSTORE PUSH1 0x40 PUSH1 0x0 KECCAK256 PUSH1 0x0 SWAP2 POP SLOAD SWAP1 PUSH2 0x100 EXP SWAP1 DIV PUSH1 0xFF AND DUP2 JUMP JUMPDEST PUSH1 0xE PUSH1 0x0 DUP6 PUSH20 0xFFFFFFFFFFFFFFFFFFFFFFFFFFFFFFFFFFFFFFFF AND PUSH20 0xFFFFFFFFFFFFFFFFFFFFFFFFFFFFFFFFFFFFFFFF AND DUP2 MSTORE PUSH1 0x20 ADD SWAP1 DUP2 MSTORE PUSH1 0x20 ADD PUSH1 0x0 KECCAK256 PUSH1 0x0 SWAP1 SLOAD SWAP1 PUSH2 0x100 EXP SWAP1 DIV PUSH1 0xFF AND ISZERO PUSH2 0x3409 JUMPI PUSH1 0x0 DUP1 REVERT JUMPDEST PUSH1 0xF DUP4 PUSH1 0x40 MLOAD PUSH2 0x3419 SWAP2 SWAP1 PUSH2 0x5D13 JUMP JUMPDEST SWAP1 DUP2 MSTORE PUSH1 0x20 ADD PUSH1 0x40 MLOAD DUP1 SWAP2 SUB SWAP1 KECCAK256 PUSH1 0x0 SWAP1 SLOAD SWAP1 PUSH2 0x100 EXP SWAP1 DIV PUSH1 0xFF AND ISZERO PUSH2 0x343F JUMPI PUSH1 0x0 DUP1 REVERT JUMPDEST PUSH1 0x0 PUSH1 0x1 DUP1 DUP2 PUSH1 0x1 DUP2 SLOAD ADD DUP1 DUP3 SSTORE DUP1 SWAP2 POP POP SUB SWAP1 PUSH1 0x0 MSTORE PUSH1 0x20 PUSH1 0x0 KECCAK256 SWAP1 PUSH1 0x8 MUL ADD SWAP1 POP PUSH1 0x13 SLOAD DUP2 PUSH1 0x0 ADD DUP2 SWAP1 SSTORE POP DUP5 DUP2 PUSH1 0x1 ADD PUSH1 0x0 PUSH2 0x100 EXP DUP2 SLOAD DUP2 PUSH20 0xFFFFFFFFFFFFFFFFFFFFFFFFFFFFFFFFFFFFFFFF MUL NOT AND SWAP1 DUP4 PUSH20 0xFFFFFFFFFFFFFFFFFFFFFFFFFFFFFFFFFFFFFFFF AND MUL OR SWAP1 SSTORE POP DUP4 DUP2 PUSH1 0x2 ADD SWAP1 DUP2 PUSH2 0x34C1 SWAP2 SWAP1 PUSH2 0x5C05 JUMP JUMPDEST POP DUP3 DUP2 PUSH1 0x3 ADD SWAP1 DUP2 PUSH2 0x34D3 SWAP2 SWAP1 PUSH2 0x5C05 JUMP JUMPDEST POP DUP2 DUP2 PUSH1 0x4 ADD SWAP1 DUP2 PUSH2 0x34E5 SWAP2 SWAP1 PUSH2 0x5C05 JUMP JUMPDEST POP PUSH1 0x0 DUP2 PUSH1 0x6 ADD DUP2 SWAP1 SSTORE POP PUSH1 0x40 MLOAD DUP1 PUSH1 0x40 ADD PUSH1 0x40 MSTORE DUP1 PUSH1 0x1 DUP2 MSTORE PUSH1 0x20 ADD PUSH32 0x3000000000000000000000000000000000000000000000000000000000000000 DUP2 MSTORE POP DUP2 PUSH1 0x7 ADD SWAP1 DUP2 PUSH2 0x3536 SWAP2 SWAP1 PUSH2 0x5C05 JUMP JUMPDEST POP DUP1 PUSH1 0x5 PUSH1 0x0 DUP8 PUSH20 0xFFFFFFFFFFFFFFFFFFFFFFFFFFFFFFFFFFFFFFFF AND PUSH20 0xFFFFFFFFFFFFFFFFFFFFFFFFFFFFFFFFFFFFFFFF AND DUP2 MSTORE PUSH1 0x20 ADD SWAP1 DUP2 MSTORE PUSH1 0x20 ADD PUSH1 0x0 KECCAK256 PUSH1 0x0 DUP3 ADD SLOAD DUP2 PUSH1 0x0 ADD SSTORE PUSH1 0x1 DUP3 ADD PUSH1 0x0 SWAP1 SLOAD SWAP1 PUSH2 0x100 EXP SWAP1 DIV PUSH20 0xFFFFFFFFFFFFFFFFFFFFFFFFFFFFFFFFFFFFFFFF AND DUP2 PUSH1 0x1 ADD PUSH1 0x0 PUSH2 0x100 EXP DUP2 SLOAD DUP2 PUSH20 0xFFFFFFFFFFFFFFFFFFFFFFFFFFFFFFFFFFFFFFFF MUL NOT AND SWAP1 DUP4 PUSH20 0xFFFFFFFFFFFFFFFFFFFFFFFFFFFFFFFFFFFFFFFF AND MUL OR SWAP1 SSTORE POP PUSH1 0x2 DUP3 ADD DUP2 PUSH1 0x2 ADD SWAP1 DUP2 PUSH2 0x35FC SWAP2 SWAP1 PUSH2 0x59C1 JUMP JUMPDEST POP PUSH1 0x3 DUP3 ADD DUP2 PUSH1 0x3 ADD SWAP1 DUP2 PUSH2 0x3611 SWAP2 SWAP1 PUSH2 0x59C1 JUMP JUMPDEST POP PUSH1 0x4 DUP3 ADD DUP2 PUSH1 0x4 ADD SWAP1 DUP2 PUSH2 0x3626 SWAP2 SWAP1 PUSH2 0x59C1 JUMP JUMPDEST POP PUSH1 0x5 DUP3 ADD SLOAD DUP2 PUSH1 0x5 ADD SSTORE PUSH1 0x6 DUP3 ADD SLOAD DUP2 PUSH1 0x6 ADD SSTORE PUSH1 0x7 DUP3 ADD DUP2 PUSH1 0x7 ADD SWAP1 DUP2 PUSH2 0x364F SWAP2 SWAP1 PUSH2 0x59C1 JUMP JUMPDEST POP SWAP1 POP POP DUP1 PUSH1 0xB DUP6 PUSH1 0x40 MLOAD PUSH2 0x3664 SWAP2 SWAP1 PUSH2 0x5D13 JUMP JUMPDEST SWAP1 DUP2 MSTORE PUSH1 0x20 ADD PUSH1 0x40 MLOAD DUP1 SWAP2 SUB SWAP1 KECCAK256 PUSH1 0x0 DUP3 ADD SLOAD DUP2 PUSH1 0x0 ADD SSTORE PUSH1 0x1 DUP3 ADD PUSH1 0x0 SWAP1 SLOAD SWAP1 PUSH2 0x100 EXP SWAP1 DIV PUSH20 0xFFFFFFFFFFFFFFFFFFFFFFFFFFFFFFFFFFFFFFFF AND DUP2 PUSH1 0x1 ADD PUSH1 0x0 PUSH2 0x100 EXP DUP2 SLOAD DUP2 PUSH20 0xFFFFFFFFFFFFFFFFFFFFFFFFFFFFFFFFFFFFFFFF MUL NOT AND SWAP1 DUP4 PUSH20 0xFFFFFFFFFFFFFFFFFFFFFFFFFFFFFFFFFFFFFFFF AND MUL OR SWAP1 SSTORE POP PUSH1 0x2 DUP3 ADD DUP2 PUSH1 0x2 ADD SWAP1 DUP2 PUSH2 0x36F7 SWAP2 SWAP1 PUSH2 0x59C1 JUMP JUMPDEST POP PUSH1 0x3 DUP3 ADD DUP2 PUSH1 0x3 ADD SWAP1 DUP2 PUSH2 0x370C SWAP2 SWAP1 PUSH2 0x59C1 JUMP JUMPDEST POP PUSH1 0x4 DUP3 ADD DUP2 PUSH1 0x4 ADD SWAP1 DUP2 PUSH2 0x3721 SWAP2 SWAP1 PUSH2 0x59C1 JUMP JUMPDEST POP PUSH1 0x5 DUP3 ADD SLOAD DUP2 PUSH1 0x5 ADD SSTORE PUSH1 0x6 DUP3 ADD SLOAD DUP2 PUSH1 0x6 ADD SSTORE PUSH1 0x7 DUP3 ADD DUP2 PUSH1 0x7 ADD SWAP1 DUP2 PUSH2 0x374A SWAP2 SWAP1 PUSH2 0x59C1 JUMP JUMPDEST POP SWAP1 POP POP PUSH1 0x1 PUSH1 0xE PUSH1 0x0 DUP8 PUSH20 0xFFFFFFFFFFFFFFFFFFFFFFFFFFFFFFFFFFFFFFFF AND PUSH20 0xFFFFFFFFFFFFFFFFFFFFFFFFFFFFFFFFFFFFFFFF AND DUP2 MSTORE PUSH1 0x20 ADD SWAP1 DUP2 MSTORE PUSH1 0x20 ADD PUSH1 0x0 KECCAK256 PUSH1 0x0 PUSH2 0x100 EXP DUP2 SLOAD DUP2 PUSH1 0xFF MUL NOT AND SWAP1 DUP4 ISZERO ISZERO MUL OR SWAP1 SSTORE POP PUSH1 0x1 PUSH1 0xF DUP6 PUSH1 0x40 MLOAD PUSH2 0x37B8 SWAP2 SWAP1 PUSH2 0x5D13 JUMP JUMPDEST SWAP1 DUP2 MSTORE PUSH1 0x20 ADD PUSH1 0x40 MLOAD DUP1 SWAP2 SUB SWAP1 KECCAK256 PUSH1 0x0 PUSH2 0x100 EXP DUP2 SLOAD DUP2 PUSH1 0xFF MUL NOT AND SWAP1 DUP4 ISZERO ISZERO MUL OR SWAP1 SSTORE POP PUSH1 0x1 PUSH1 0xC DUP5 PUSH1 0x40 MLOAD PUSH2 0x37EF SWAP2 SWAP1 PUSH2 0x5D13 JUMP JUMPDEST SWAP1 DUP2 MSTORE PUSH1 0x20 ADD PUSH1 0x40 MLOAD DUP1 SWAP2 SUB SWAP1 KECCAK256 PUSH1 0x0 DUP3 DUP3 SLOAD PUSH2 0x380C SWAP2 SWAP1 PUSH2 0x5D2A JUMP JUMPDEST SWAP3 POP POP DUP2 SWAP1 SSTORE POP PUSH1 0x1 PUSH1 0x13 PUSH1 0x0 DUP3 DUP3 SLOAD PUSH2 0x3826 SWAP2 SWAP1 PUSH2 0x5D2A JUMP JUMPDEST SWAP3 POP POP DUP2 SWAP1 SSTORE POP POP POP POP POP POP JUMP JUMPDEST PUSH1 0x4 DUP2 DUP2 SLOAD DUP2 LT PUSH2 0x3844 JUMPI PUSH1 0x0 DUP1 REVERT JUMPDEST SWAP1 PUSH1 0x0 MSTORE PUSH1 0x20 PUSH1 0x0 KECCAK256 SWAP1 PUSH1 0x6 MUL ADD PUSH1 0x0 SWAP2 POP SWAP1 POP DUP1 PUSH1 0x0 ADD SLOAD SWAP1 DUP1 PUSH1 0x1 ADD DUP1 SLOAD PUSH2 0x386D SWAP1 PUSH2 0x57CE JUMP JUMPDEST DUP1 PUSH1 0x1F ADD PUSH1 0x20 DUP1 SWAP2 DIV MUL PUSH1 0x20 ADD PUSH1 0x40 MLOAD SWAP1 DUP2 ADD PUSH1 0x40 MSTORE DUP1 SWAP3 SWAP2 SWAP1 DUP2 DUP2 MSTORE PUSH1 0x20 ADD DUP3 DUP1 SLOAD PUSH2 0x3899 SWAP1 PUSH2 0x57CE JUMP JUMPDEST DUP1 ISZERO PUSH2 0x38E6 JUMPI DUP1 PUSH1 0x1F LT PUSH2 0x38BB JUMPI PUSH2 0x100 DUP1 DUP4 SLOAD DIV MUL DUP4 MSTORE SWAP2 PUSH1 0x20 ADD SWAP2 PUSH2 0x38E6 JUMP JUMPDEST DUP3 ADD SWAP2 SWAP1 PUSH1 0x0 MSTORE PUSH1 0x20 PUSH1 0x0 KECCAK256 SWAP1 JUMPDEST DUP2 SLOAD DUP2 MSTORE SWAP1 PUSH1 0x1 ADD SWAP1 PUSH1 0x20 ADD DUP1 DUP4 GT PUSH2 0x38C9 JUMPI DUP3 SWAP1 SUB PUSH1 0x1F AND DUP3 ADD SWAP2 JUMPDEST POP POP POP POP POP SWAP1 DUP1 PUSH1 0x2 ADD DUP1 SLOAD PUSH2 0x38FB SWAP1 PUSH2 0x57CE JUMP JUMPDEST DUP1 PUSH1 0x1F ADD PUSH1 0x20 DUP1 SWAP2 DIV MUL PUSH1 0x20 ADD PUSH1 0x40 MLOAD SWAP1 DUP2 ADD PUSH1 0x40 MSTORE DUP1 SWAP3 SWAP2 SWAP1 DUP2 DUP2 MSTORE PUSH1 0x20 ADD DUP3 DUP1 SLOAD PUSH2 0x3927 SWAP1 PUSH2 0x57CE JUMP JUMPDEST DUP1 ISZERO PUSH2 0x3974 JUMPI DUP1 PUSH1 0x1F LT PUSH2 0x3949 JUMPI PUSH2 0x100 DUP1 DUP4 SLOAD DIV MUL DUP4 MSTORE SWAP2 PUSH1 0x20 ADD SWAP2 PUSH2 0x3974 JUMP JUMPDEST DUP3 ADD SWAP2 SWAP1 PUSH1 0x0 MSTORE PUSH1 0x20 PUSH1 0x0 KECCAK256 SWAP1 JUMPDEST DUP2 SLOAD DUP2 MSTORE SWAP1 PUSH1 0x1 ADD SWAP1 PUSH1 0x20 ADD DUP1 DUP4 GT PUSH2 0x3957 JUMPI DUP3 SWAP1 SUB PUSH1 0x1F AND DUP3 ADD SWAP2 JUMPDEST POP POP POP POP POP SWAP1 DUP1 PUSH1 0x3 ADD DUP1 SLOAD PUSH2 0x3989 SWAP1 PUSH2 0x57CE JUMP JUMPDEST DUP1 PUSH1 0x1F ADD PUSH1 0x20 DUP1 SWAP2 DIV MUL PUSH1 0x20 ADD PUSH1 0x40 MLOAD SWAP1 DUP2 ADD PUSH1 0x40 MSTORE DUP1 SWAP3 SWAP2 SWAP1 DUP2 DUP2 MSTORE PUSH1 0x20 ADD DUP3 DUP1 SLOAD PUSH2 0x39B5 SWAP1 PUSH2 0x57CE JUMP JUMPDEST DUP1 ISZERO PUSH2 0x3A02 JUMPI DUP1 PUSH1 0x1F LT PUSH2 0x39D7 JUMPI PUSH2 0x100 DUP1 DUP4 SLOAD DIV MUL DUP4 MSTORE SWAP2 PUSH1 0x20 ADD SWAP2 PUSH2 0x3A02 JUMP JUMPDEST DUP3 ADD SWAP2 SWAP1 PUSH1 0x0 MSTORE PUSH1 0x20 PUSH1 0x0 KECCAK256 SWAP1 JUMPDEST DUP2 SLOAD DUP2 MSTORE SWAP1 PUSH1 0x1 ADD SWAP1 PUSH1 0x20 ADD DUP1 DUP4 GT PUSH2 0x39E5 JUMPI DUP3 SWAP1 SUB PUSH1 0x1F AND DUP3 ADD SWAP2 JUMPDEST POP POP POP POP POP SWAP1 DUP1 PUSH1 0x4 ADD SLOAD SWAP1 DUP1 PUSH1 0x5 ADD SLOAD SWAP1 POP DUP7 JUMP JUMPDEST PUSH1 0x6 PUSH1 0x20 MSTORE DUP2 PUSH1 0x0 MSTORE PUSH1 0x40 PUSH1 0x0 KECCAK256 DUP2 DUP2 SLOAD DUP2 LT PUSH2 0x3A34 JUMPI PUSH1 0x0 DUP1 REVERT JUMPDEST SWAP1 PUSH1 0x0 MSTORE PUSH1 0x20 PUSH1 0x0 KECCAK256 SWAP1 PUSH1 0x6 MUL ADD PUSH1 0x0 SWAP2 POP SWAP2 POP POP DUP1 PUSH1 0x0 ADD SLOAD SWAP1 DUP1 PUSH1 0x1 ADD DUP1 SLOAD PUSH2 0x3A5E SWAP1 PUSH2 0x57CE JUMP JUMPDEST DUP1 PUSH1 0x1F ADD PUSH1 0x20 DUP1 SWAP2 DIV MUL PUSH1 0x20 ADD PUSH1 0x40 MLOAD SWAP1 DUP2 ADD PUSH1 0x40 MSTORE DUP1 SWAP3 SWAP2 SWAP1 DUP2 DUP2 MSTORE PUSH1 0x20 ADD DUP3 DUP1 SLOAD PUSH2 0x3A8A SWAP1 PUSH2 0x57CE JUMP JUMPDEST DUP1 ISZERO PUSH2 0x3AD7 JUMPI DUP1 PUSH1 0x1F LT PUSH2 0x3AAC JUMPI PUSH2 0x100 DUP1 DUP4 SLOAD DIV MUL DUP4 MSTORE SWAP2 PUSH1 0x20 ADD SWAP2 PUSH2 0x3AD7 JUMP JUMPDEST DUP3 ADD SWAP2 SWAP1 PUSH1 0x0 MSTORE PUSH1 0x20 PUSH1 0x0 KECCAK256 SWAP1 JUMPDEST DUP2 SLOAD DUP2 MSTORE SWAP1 PUSH1 0x1 ADD SWAP1 PUSH1 0x20 ADD DUP1 DUP4 GT PUSH2 0x3ABA JUMPI DUP3 SWAP1 SUB PUSH1 0x1F AND DUP3 ADD SWAP2 JUMPDEST POP POP POP POP POP SWAP1 DUP1 PUSH1 0x2 ADD DUP1 SLOAD PUSH2 0x3AEC SWAP1 PUSH2 0x57CE JUMP JUMPDEST DUP1 PUSH1 0x1F ADD PUSH1 0x20 DUP1 SWAP2 DIV MUL PUSH1 0x20 ADD PUSH1 0x40 MLOAD SWAP1 DUP2 ADD PUSH1 0x40 MSTORE DUP1 SWAP3 SWAP2 SWAP1 DUP2 DUP2 MSTORE PUSH1 0x20 ADD DUP3 DUP1 SLOAD PUSH2 0x3B18 SWAP1 PUSH2 0x57CE JUMP JUMPDEST DUP1 ISZERO PUSH2 0x3B65 JUMPI DUP1 PUSH1 0x1F LT PUSH2 0x3B3A JUMPI PUSH2 0x100 DUP1 DUP4 SLOAD DIV MUL DUP4 MSTORE SWAP2 PUSH1 0x20 ADD SWAP2 PUSH2 0x3B65 JUMP JUMPDEST DUP3 ADD SWAP2 SWAP1 PUSH1 0x0 MSTORE PUSH1 0x20 PUSH1 0x0 KECCAK256 SWAP1 JUMPDEST DUP2 SLOAD DUP2 MSTORE SWAP1 PUSH1 0x1 ADD SWAP1 PUSH1 0x20 ADD DUP1 DUP4 GT PUSH2 0x3B48 JUMPI DUP3 SWAP1 SUB PUSH1 0x1F AND DUP3 ADD SWAP2 JUMPDEST POP POP POP POP POP SWAP1 DUP1 PUSH1 0x3 ADD DUP1 SLOAD PUSH2 0x3B7A SWAP1 PUSH2 0x57CE JUMP JUMPDEST DUP1 PUSH1 0x1F ADD PUSH1 0x20 DUP1 SWAP2 DIV MUL PUSH1 0x20 ADD PUSH1 0x40 MLOAD SWAP1 DUP2 ADD PUSH1 0x40 MSTORE DUP1 SWAP3 SWAP2 SWAP1 DUP2 DUP2 MSTORE PUSH1 0x20 ADD DUP3 DUP1 SLOAD PUSH2 0x3BA6 SWAP1 PUSH2 0x57CE JUMP JUMPDEST DUP1 ISZERO PUSH2 0x3BF3 JUMPI DUP1 PUSH1 0x1F LT PUSH2 0x3BC8 JUMPI PUSH2 0x100 DUP1 DUP4 SLOAD DIV MUL DUP4 MSTORE SWAP2 PUSH1 0x20 ADD SWAP2 PUSH2 0x3BF3 JUMP JUMPDEST DUP3 ADD SWAP2 SWAP1 PUSH1 0x0 MSTORE PUSH1 0x20 PUSH1 0x0 KECCAK256 SWAP1 JUMPDEST DUP2 SLOAD DUP2 MSTORE SWAP1 PUSH1 0x1 ADD SWAP1 PUSH1 0x20 ADD DUP1 DUP4 GT PUSH2 0x3BD6 JUMPI DUP3 SWAP1 SUB PUSH1 0x1F AND DUP3 ADD SWAP2 JUMPDEST POP POP POP POP POP SWAP1 DUP1 PUSH1 0x4 ADD SLOAD SWAP1 DUP1 PUSH1 0x5 ADD SLOAD SWAP1 POP DUP7 JUMP JUMPDEST PUSH1 0x14 SLOAD DUP2 JUMP JUMPDEST PUSH1 0xE PUSH1 0x0 CALLER PUSH20 0xFFFFFFFFFFFFFFFFFFFFFFFFFFFFFFFFFFFFFFFF AND PUSH20 0xFFFFFFFFFFFFFFFFFFFFFFFFFFFFFFFFFFFFFFFF AND DUP2 MSTORE PUSH1 0x20 ADD SWAP1 DUP2 MSTORE PUSH1 0x20 ADD PUSH1 0x0 KECCAK256 PUSH1 0x0 SWAP1 SLOAD SWAP1 PUSH2 0x100 EXP SWAP1 DIV PUSH1 0xFF AND PUSH2 0x3C65 JUMPI PUSH1 0x0 DUP1 REVERT JUMPDEST PUSH1 0xF DUP4 PUSH1 0x40 MLOAD PUSH2 0x3C75 SWAP2 SWAP1 PUSH2 0x5D13 JUMP JUMPDEST SWAP1 DUP2 MSTORE PUSH1 0x20 ADD PUSH1 0x40 MLOAD DUP1 SWAP2 SUB SWAP1 KECCAK256 PUSH1 0x0 SWAP1 SLOAD SWAP1 PUSH2 0x100 EXP SWAP1 DIV PUSH1 0xFF AND ISZERO PUSH2 0x3C9B JUMPI PUSH1 0x0 DUP1 REVERT JUMPDEST PUSH1 0x0 PUSH1 0x5 PUSH1 0x0 CALLER PUSH20 0xFFFFFFFFFFFFFFFFFFFFFFFFFFFFFFFFFFFFFFFF AND PUSH20 0xFFFFFFFFFFFFFFFFFFFFFFFFFFFFFFFFFFFFFFFF AND DUP2 MSTORE PUSH1 0x20 ADD SWAP1 DUP2 MSTORE PUSH1 0x20 ADD PUSH1 0x0 KECCAK256 SWAP1 POP DUP4 DUP2 PUSH1 0x2 ADD SWAP1 DUP2 PUSH2 0x3CEF SWAP2 SWAP1 PUSH2 0x5C05 JUMP JUMPDEST POP DUP3 DUP2 PUSH1 0x3 ADD SWAP1 DUP2 PUSH2 0x3D01 SWAP2 SWAP1 PUSH2 0x5C05 JUMP JUMPDEST POP DUP2 DUP2 PUSH1 0x4 ADD SWAP1 DUP2 PUSH2 0x3D13 SWAP2 SWAP1 PUSH2 0x5C05 JUMP JUMPDEST POP DUP1 PUSH1 0x1 DUP3 PUSH1 0x0 ADD SLOAD DUP2 SLOAD DUP2 LT PUSH2 0x3D2D JUMPI PUSH2 0x3D2C PUSH2 0x5770 JUMP JUMPDEST JUMPDEST SWAP1 PUSH1 0x0 MSTORE PUSH1 0x20 PUSH1 0x0 KECCAK256 SWAP1 PUSH1 0x8 MUL ADD PUSH1 0x0 DUP3 ADD SLOAD DUP2 PUSH1 0x0 ADD SSTORE PUSH1 0x1 DUP3 ADD PUSH1 0x0 SWAP1 SLOAD SWAP1 PUSH2 0x100 EXP SWAP1 DIV PUSH20 0xFFFFFFFFFFFFFFFFFFFFFFFFFFFFFFFFFFFFFFFF AND DUP2 PUSH1 0x1 ADD PUSH1 0x0 PUSH2 0x100 EXP DUP2 SLOAD DUP2 PUSH20 0xFFFFFFFFFFFFFFFFFFFFFFFFFFFFFFFFFFFFFFFF MUL NOT AND SWAP1 DUP4 PUSH20 0xFFFFFFFFFFFFFFFFFFFFFFFFFFFFFFFFFFFFFFFF AND MUL OR SWAP1 SSTORE POP PUSH1 0x2 DUP3 ADD DUP2 PUSH1 0x2 ADD SWAP1 DUP2 PUSH2 0x3DC0 SWAP2 SWAP1 PUSH2 0x59C1 JUMP JUMPDEST POP PUSH1 0x3 DUP3 ADD DUP2 PUSH1 0x3 ADD SWAP1 DUP2 PUSH2 0x3DD5 SWAP2 SWAP1 PUSH2 0x59C1 JUMP JUMPDEST POP PUSH1 0x4 DUP3 ADD DUP2 PUSH1 0x4 ADD SWAP1 DUP2 PUSH2 0x3DEA SWAP2 SWAP1 PUSH2 0x59C1 JUMP JUMPDEST POP PUSH1 0x5 DUP3 ADD SLOAD DUP2 PUSH1 0x5 ADD SSTORE PUSH1 0x6 DUP3 ADD SLOAD DUP2 PUSH1 0x6 ADD SSTORE PUSH1 0x7 DUP3 ADD DUP2 PUSH1 0x7 ADD SWAP1 DUP2 PUSH2 0x3E13 SWAP2 SWAP1 PUSH2 0x59C1 JUMP JUMPDEST POP SWAP1 POP POP POP POP POP POP JUMP JUMPDEST PUSH1 0x3 DUP2 DUP2 SLOAD DUP2 LT PUSH2 0x3E2D JUMPI PUSH1 0x0 DUP1 REVERT JUMPDEST SWAP1 PUSH1 0x0 MSTORE PUSH1 0x20 PUSH1 0x0 KECCAK256 SWAP1 PUSH1 0x8 MUL ADD PUSH1 0x0 SWAP2 POP SWAP1 POP DUP1 PUSH1 0x0 ADD SLOAD SWAP1 DUP1 PUSH1 0x1 ADD PUSH1 0x0 SWAP1 SLOAD SWAP1 PUSH2 0x100 EXP SWAP1 DIV PUSH20 0xFFFFFFFFFFFFFFFFFFFFFFFFFFFFFFFFFFFFFFFF AND SWAP1 DUP1 PUSH1 0x2 ADD DUP1 SLOAD PUSH2 0x3E7C SWAP1 PUSH2 0x57CE JUMP JUMPDEST DUP1 PUSH1 0x1F ADD PUSH1 0x20 DUP1 SWAP2 DIV MUL PUSH1 0x20 ADD PUSH1 0x40 MLOAD SWAP1 DUP2 ADD PUSH1 0x40 MSTORE DUP1 SWAP3 SWAP2 SWAP1 DUP2 DUP2 MSTORE PUSH1 0x20 ADD DUP3 DUP1 SLOAD PUSH2 0x3EA8 SWAP1 PUSH2 0x57CE JUMP JUMPDEST DUP1 ISZERO PUSH2 0x3EF5 JUMPI DUP1 PUSH1 0x1F LT PUSH2 0x3ECA JUMPI PUSH2 0x100 DUP1 DUP4 SLOAD DIV MUL DUP4 MSTORE SWAP2 PUSH1 0x20 ADD SWAP2 PUSH2 0x3EF5 JUMP JUMPDEST DUP3 ADD SWAP2 SWAP1 PUSH1 0x0 MSTORE PUSH1 0x20 PUSH1 0x0 KECCAK256 SWAP1 JUMPDEST DUP2 SLOAD DUP2 MSTORE SWAP1 PUSH1 0x1 ADD SWAP1 PUSH1 0x20 ADD DUP1 DUP4 GT PUSH2 0x3ED8 JUMPI DUP3 SWAP1 SUB PUSH1 0x1F AND DUP3 ADD SWAP2 JUMPDEST POP POP POP POP POP SWAP1 DUP1 PUSH1 0x3 ADD DUP1 SLOAD PUSH2 0x3F0A SWAP1 PUSH2 0x57CE JUMP JUMPDEST DUP1 PUSH1 0x1F ADD PUSH1 0x20 DUP1 SWAP2 DIV MUL PUSH1 0x20 ADD PUSH1 0x40 MLOAD SWAP1 DUP2 ADD PUSH1 0x40 MSTORE DUP1 SWAP3 SWAP2 SWAP1 DUP2 DUP2 MSTORE PUSH1 0x20 ADD DUP3 DUP1 SLOAD PUSH2 0x3F36 SWAP1 PUSH2 0x57CE JUMP JUMPDEST DUP1 ISZERO PUSH2 0x3F83 JUMPI DUP1 PUSH1 0x1F LT PUSH2 0x3F58 JUMPI PUSH2 0x100 DUP1 DUP4 SLOAD DIV MUL DUP4 MSTORE SWAP2 PUSH1 0x20 ADD SWAP2 PUSH2 0x3F83 JUMP JUMPDEST DUP3 ADD SWAP2 SWAP1 PUSH1 0x0 MSTORE PUSH1 0x20 PUSH1 0x0 KECCAK256 SWAP1 JUMPDEST DUP2 SLOAD DUP2 MSTORE SWAP1 PUSH1 0x1 ADD SWAP1 PUSH1 0x20 ADD DUP1 DUP4 GT PUSH2 0x3F66 JUMPI DUP3 SWAP1 SUB PUSH1 0x1F AND DUP3 ADD SWAP2 JUMPDEST POP POP POP POP POP SWAP1 DUP1 PUSH1 0x4 ADD DUP1 SLOAD PUSH2 0x3F98 SWAP1 PUSH2 0x57CE JUMP JUMPDEST DUP1 PUSH1 0x1F ADD PUSH1 0x20 DUP1 SWAP2 DIV MUL PUSH1 0x20 ADD PUSH1 0x40 MLOAD SWAP1 DUP2 ADD PUSH1 0x40 MSTORE DUP1 SWAP3 SWAP2 SWAP1 DUP2 DUP2 MSTORE PUSH1 0x20 ADD DUP3 DUP1 SLOAD PUSH2 0x3FC4 SWAP1 PUSH2 0x57CE JUMP JUMPDEST DUP1 ISZERO PUSH2 0x4011 JUMPI DUP1 PUSH1 0x1F LT PUSH2 0x3FE6 JUMPI PUSH2 0x100 DUP1 DUP4 SLOAD DIV MUL DUP4 MSTORE SWAP2 PUSH1 0x20 ADD SWAP2 PUSH2 0x4011 JUMP JUMPDEST DUP3 ADD SWAP2 SWAP1 PUSH1 0x0 MSTORE PUSH1 0x20 PUSH1 0x0 KECCAK256 SWAP1 JUMPDEST DUP2 SLOAD DUP2 MSTORE SWAP1 PUSH1 0x1 ADD SWAP1 PUSH1 0x20 ADD DUP1 DUP4 GT PUSH2 0x3FF4 JUMPI DUP3 SWAP1 SUB PUSH1 0x1F AND DUP3 ADD SWAP2 JUMPDEST POP POP POP POP POP SWAP1 DUP1 PUSH1 0x5 ADD SLOAD SWAP1 DUP1 PUSH1 0x6 ADD SLOAD SWAP1 DUP1 PUSH1 0x7 ADD DUP1 SLOAD PUSH2 0x4032 SWAP1 PUSH2 0x57CE JUMP JUMPDEST DUP1 PUSH1 0x1F ADD PUSH1 0x20 DUP1 SWAP2 DIV MUL PUSH1 0x20 ADD PUSH1 0x40 MLOAD SWAP1 DUP2 ADD PUSH1 0x40 MSTORE DUP1 SWAP3 SWAP2 SWAP1 DUP2 DUP2 MSTORE PUSH1 0x20 ADD DUP3 DUP1 SLOAD PUSH2 0x405E SWAP1 PUSH2 0x57CE JUMP JUMPDEST DUP1 ISZERO PUSH2 0x40AB JUMPI DUP1 PUSH1 0x1F LT PUSH2 0x4080 JUMPI PUSH2 0x100 DUP1 DUP4 SLOAD DIV MUL DUP4 MSTORE SWAP2 PUSH1 0x20 ADD SWAP2 PUSH2 0x40AB JUMP JUMPDEST DUP3 ADD SWAP2 SWAP1 PUSH1 0x0 MSTORE PUSH1 0x20 PUSH1 0x0 KECCAK256 SWAP1 JUMPDEST DUP2 SLOAD DUP2 MSTORE SWAP1 PUSH1 0x1 ADD SWAP1 PUSH1 0x20 ADD DUP1 DUP4 GT PUSH2 0x408E JUMPI DUP3 SWAP1 SUB PUSH1 0x1F AND DUP3 ADD SWAP2 JUMPDEST POP POP POP POP POP SWAP1 POP DUP9 JUMP JUMPDEST PUSH1 0x10 DUP2 DUP1 MLOAD PUSH1 0x20 DUP2 ADD DUP3 ADD DUP1 MLOAD DUP5 DUP3 MSTORE PUSH1 0x20 DUP4 ADD PUSH1 0x20 DUP6 ADD KECCAK256 DUP2 DUP4 MSTORE DUP1 SWAP6 POP POP POP POP POP POP PUSH1 0x0 SWAP2 POP SLOAD SWAP1 PUSH2 0x100 EXP SWAP1 DIV PUSH1 0xFF AND DUP2 JUMP JUMPDEST PUSH1 0xE PUSH1 0x0 DUP6 PUSH20 0xFFFFFFFFFFFFFFFFFFFFFFFFFFFFFFFFFFFFFFFF AND PUSH20 0xFFFFFFFFFFFFFFFFFFFFFFFFFFFFFFFFFFFFFFFF AND DUP2 MSTORE PUSH1 0x20 ADD SWAP1 DUP2 MSTORE PUSH1 0x20 ADD PUSH1 0x0 KECCAK256 PUSH1 0x0 SWAP1 SLOAD SWAP1 PUSH2 0x100 EXP SWAP1 DIV PUSH1 0xFF AND PUSH2 0x4141 JUMPI PUSH1 0x0 DUP1 REVERT JUMPDEST PUSH1 0x0 PUSH1 0x5 PUSH1 0x0 DUP7 PUSH20 0xFFFFFFFFFFFFFFFFFFFFFFFFFFFFFFFFFFFFFFFF AND PUSH20 0xFFFFFFFFFFFFFFFFFFFFFFFFFFFFFFFFFFFFFFFF AND DUP2 MSTORE PUSH1 0x20 ADD SWAP1 DUP2 MSTORE PUSH1 0x20 ADD PUSH1 0x0 KECCAK256 SWAP1 POP PUSH1 0x0 PUSH1 0x2 DUP6 DUP2 SLOAD DUP2 LT PUSH2 0x419A JUMPI PUSH2 0x4199 PUSH2 0x5770 JUMP JUMPDEST JUMPDEST SWAP1 PUSH1 0x0 MSTORE PUSH1 0x20 PUSH1 0x0 KECCAK256 SWAP1 PUSH1 0x6 MUL ADD SWAP1 POP DUP3 ISZERO PUSH2 0x456A JUMPI DUP2 PUSH1 0x5 ADD PUSH1 0x0 DUP2 SLOAD DUP1 SWAP3 SWAP2 SWAP1 PUSH2 0x41C5 SWAP1 PUSH2 0x5AD8 JUMP JUMPDEST SWAP2 SWAP1 POP SSTORE POP PUSH1 0x6 PUSH1 0x0 DUP8 PUSH20 0xFFFFFFFFFFFFFFFFFFFFFFFFFFFFFFFFFFFFFFFF AND PUSH20 0xFFFFFFFFFFFFFFFFFFFFFFFFFFFFFFFFFFFFFFFF AND DUP2 MSTORE PUSH1 0x20 ADD SWAP1 DUP2 MSTORE PUSH1 0x20 ADD PUSH1 0x0 KECCAK256 DUP2 SWAP1 DUP1 PUSH1 0x1 DUP2 SLOAD ADD DUP1 DUP3 SSTORE DUP1 SWAP2 POP POP PUSH1 0x1 SWAP1 SUB SWAP1 PUSH1 0x0 MSTORE PUSH1 0x20 PUSH1 0x0 KECCAK256 SWAP1 PUSH1 0x6 MUL ADD PUSH1 0x0 SWAP1 SWAP2 SWAP1 SWAP2 SWAP1 SWAP2 POP PUSH1 0x0 DUP3 ADD SLOAD DUP2 PUSH1 0x0 ADD SSTORE PUSH1 0x1 DUP3 ADD DUP2 PUSH1 0x1 ADD SWAP1 DUP2 PUSH2 0x4251 SWAP2 SWAP1 PUSH2 0x59C1 JUMP JUMPDEST POP PUSH1 0x2 DUP3 ADD DUP2 PUSH1 0x2 ADD SWAP1 DUP2 PUSH2 0x4266 SWAP2 SWAP1 PUSH2 0x59C1 JUMP JUMPDEST POP PUSH1 0x3 DUP3 ADD DUP2 PUSH1 0x3 ADD SWAP1 DUP2 PUSH2 0x427B SWAP2 SWAP1 PUSH2 0x59C1 JUMP JUMPDEST POP PUSH1 0x4 DUP3 ADD SLOAD DUP2 PUSH1 0x4 ADD SSTORE PUSH1 0x5 DUP3 ADD SLOAD DUP2 PUSH1 0x5 ADD SSTORE POP POP DUP1 PUSH1 0x4 ADD PUSH1 0x0 DUP2 SLOAD DUP1 SWAP3 SWAP2 SWAP1 PUSH2 0x42A7 SWAP1 PUSH2 0x5AD8 JUMP JUMPDEST SWAP2 SWAP1 POP SSTORE POP PUSH1 0x8 PUSH1 0x0 DUP7 DUP2 MSTORE PUSH1 0x20 ADD SWAP1 DUP2 MSTORE PUSH1 0x20 ADD PUSH1 0x0 KECCAK256 DUP3 SWAP1 DUP1 PUSH1 0x1 DUP2 SLOAD ADD DUP1 DUP3 SSTORE DUP1 SWAP2 POP POP PUSH1 0x1 SWAP1 SUB SWAP1 PUSH1 0x0 MSTORE PUSH1 0x20 PUSH1 0x0 KECCAK256 SWAP1 PUSH1 0x8 MUL ADD PUSH1 0x0 SWAP1 SWAP2 SWAP1 SWAP2 SWAP1 SWAP2 POP PUSH1 0x0 DUP3 ADD SLOAD DUP2 PUSH1 0x0 ADD SSTORE PUSH1 0x1 DUP3 ADD PUSH1 0x0 SWAP1 SLOAD SWAP1 PUSH2 0x100 EXP SWAP1 DIV PUSH20 0xFFFFFFFFFFFFFFFFFFFFFFFFFFFFFFFFFFFFFFFF AND DUP2 PUSH1 0x1 ADD PUSH1 0x0 PUSH2 0x100 EXP DUP2 SLOAD DUP2 PUSH20 0xFFFFFFFFFFFFFFFFFFFFFFFFFFFFFFFFFFFFFFFF MUL NOT AND SWAP1 DUP4 PUSH20 0xFFFFFFFFFFFFFFFFFFFFFFFFFFFFFFFFFFFFFFFF AND MUL OR SWAP1 SSTORE POP PUSH1 0x2 DUP3 ADD DUP2 PUSH1 0x2 ADD SWAP1 DUP2 PUSH2 0x436E SWAP2 SWAP1 PUSH2 0x59C1 JUMP JUMPDEST POP PUSH1 0x3 DUP3 ADD DUP2 PUSH1 0x3 ADD SWAP1 DUP2 PUSH2 0x4383 SWAP2 SWAP1 PUSH2 0x59C1 JUMP JUMPDEST POP PUSH1 0x4 DUP3 ADD DUP2 PUSH1 0x4 ADD SWAP1 DUP2 PUSH2 0x4398 SWAP2 SWAP1 PUSH2 0x59C1 JUMP JUMPDEST POP PUSH1 0x5 DUP3 ADD SLOAD DUP2 PUSH1 0x5 ADD SSTORE PUSH1 0x6 DUP3 ADD SLOAD DUP2 PUSH1 0x6 ADD SSTORE PUSH1 0x7 DUP3 ADD DUP2 PUSH1 0x7 ADD SWAP1 DUP2 PUSH2 0x43C1 SWAP2 SWAP1 PUSH2 0x59C1 JUMP JUMPDEST POP POP POP PUSH1 0x11 PUSH1 0x0 DUP4 PUSH1 0x1 ADD PUSH1 0x0 SWAP1 SLOAD SWAP1 PUSH2 0x100 EXP SWAP1 DIV PUSH20 0xFFFFFFFFFFFFFFFFFFFFFFFFFFFFFFFFFFFFFFFF AND PUSH20 0xFFFFFFFFFFFFFFFFFFFFFFFFFFFFFFFFFFFFFFFF AND PUSH20 0xFFFFFFFFFFFFFFFFFFFFFFFFFFFFFFFFFFFFFFFF AND DUP2 MSTORE PUSH1 0x20 ADD SWAP1 DUP2 MSTORE PUSH1 0x20 ADD PUSH1 0x0 KECCAK256 PUSH1 0x0 DUP2 SLOAD DUP1 SWAP3 SWAP2 SWAP1 PUSH2 0x4438 SWAP1 PUSH2 0x5AD8 JUMP JUMPDEST SWAP2 SWAP1 POP SSTORE POP PUSH1 0x12 PUSH1 0x0 DUP7 DUP2 MSTORE PUSH1 0x20 ADD SWAP1 DUP2 MSTORE PUSH1 0x20 ADD PUSH1 0x0 KECCAK256 PUSH1 0x0 DUP2 SLOAD DUP1 SWAP3 SWAP2 SWAP1 PUSH2 0x4461 SWAP1 PUSH2 0x5AD8 JUMP JUMPDEST SWAP2 SWAP1 POP SSTORE POP DUP2 PUSH1 0x1 DUP4 PUSH1 0x0 ADD SLOAD DUP2 SLOAD DUP2 LT PUSH2 0x447F JUMPI PUSH2 0x447E PUSH2 0x5770 JUMP JUMPDEST JUMPDEST SWAP1 PUSH1 0x0 MSTORE PUSH1 0x20 PUSH1 0x0 KECCAK256 SWAP1 PUSH1 0x8 MUL ADD PUSH1 0x0 DUP3 ADD SLOAD DUP2 PUSH1 0x0 ADD SSTORE PUSH1 0x1 DUP3 ADD PUSH1 0x0 SWAP1 SLOAD SWAP1 PUSH2 0x100 EXP SWAP1 DIV PUSH20 0xFFFFFFFFFFFFFFFFFFFFFFFFFFFFFFFFFFFFFFFF AND DUP2 PUSH1 0x1 ADD PUSH1 0x0 PUSH2 0x100 EXP DUP2 SLOAD DUP2 PUSH20 0xFFFFFFFFFFFFFFFFFFFFFFFFFFFFFFFFFFFFFFFF MUL NOT AND SWAP1 DUP4 PUSH20 0xFFFFFFFFFFFFFFFFFFFFFFFFFFFFFFFFFFFFFFFF AND MUL OR SWAP1 SSTORE POP PUSH1 0x2 DUP3 ADD DUP2 PUSH1 0x2 ADD SWAP1 DUP2 PUSH2 0x4512 SWAP2 SWAP1 PUSH2 0x59C1 JUMP JUMPDEST POP PUSH1 0x3 DUP3 ADD DUP2 PUSH1 0x3 ADD SWAP1 DUP2 PUSH2 0x4527 SWAP2 SWAP1 PUSH2 0x59C1 JUMP JUMPDEST POP PUSH1 0x4 DUP3 ADD DUP2 PUSH1 0x4 ADD SWAP1 DUP2 PUSH2 0x453C SWAP2 SWAP1 PUSH2 0x59C1 JUMP JUMPDEST POP PUSH1 0x5 DUP3 ADD SLOAD DUP2 PUSH1 0x5 ADD SSTORE PUSH1 0x6 DUP3 ADD SLOAD DUP2 PUSH1 0x6 ADD SSTORE PUSH1 0x7 DUP3 ADD DUP2 PUSH1 0x7 ADD SWAP1 DUP2 PUSH2 0x4565 SWAP2 SWAP1 PUSH2 0x59C1 JUMP JUMPDEST POP SWAP1 POP POP JUMPDEST DUP2 PUSH1 0x6 ADD PUSH1 0x0 DUP2 SLOAD DUP1 SWAP3 SWAP2 SWAP1 PUSH2 0x457F SWAP1 PUSH2 0x5B20 JUMP JUMPDEST SWAP2 SWAP1 POP SSTORE POP DUP2 PUSH1 0x1 DUP4 PUSH1 0x0 ADD SLOAD DUP2 SLOAD DUP2 LT PUSH2 0x459D JUMPI PUSH2 0x459C PUSH2 0x5770 JUMP JUMPDEST JUMPDEST SWAP1 PUSH1 0x0 MSTORE PUSH1 0x20 PUSH1 0x0 KECCAK256 SWAP1 PUSH1 0x8 MUL ADD PUSH1 0x0 DUP3 ADD SLOAD DUP2 PUSH1 0x0 ADD SSTORE PUSH1 0x1 DUP3 ADD PUSH1 0x0 SWAP1 SLOAD SWAP1 PUSH2 0x100 EXP SWAP1 DIV PUSH20 0xFFFFFFFFFFFFFFFFFFFFFFFFFFFFFFFFFFFFFFFF AND DUP2 PUSH1 0x1 ADD PUSH1 0x0 PUSH2 0x100 EXP DUP2 SLOAD DUP2 PUSH20 0xFFFFFFFFFFFFFFFFFFFFFFFFFFFFFFFFFFFFFFFF MUL NOT AND SWAP1 DUP4 PUSH20 0xFFFFFFFFFFFFFFFFFFFFFFFFFFFFFFFFFFFFFFFF AND MUL OR SWAP1 SSTORE POP PUSH1 0x2 DUP3 ADD DUP2 PUSH1 0x2 ADD SWAP1 DUP2 PUSH2 0x4630 SWAP2 SWAP1 PUSH2 0x59C1 JUMP JUMPDEST POP PUSH1 0x3 DUP3 ADD DUP2 PUSH1 0x3 ADD SWAP1 DUP2 PUSH2 0x4645 SWAP2 SWAP1 PUSH2 0x59C1 JUMP JUMPDEST POP PUSH1 0x4 DUP3 ADD DUP2 PUSH1 0x4 ADD SWAP1 DUP2 PUSH2 0x465A SWAP2 SWAP1 PUSH2 0x59C1 JUMP JUMPDEST POP PUSH1 0x5 DUP3 ADD SLOAD DUP2 PUSH1 0x5 ADD SSTORE PUSH1 0x6 DUP3 ADD SLOAD DUP2 PUSH1 0x6 ADD SSTORE PUSH1 0x7 DUP3 ADD DUP2 PUSH1 0x7 ADD SWAP1 DUP2 PUSH2 0x4683 SWAP2 SWAP1 PUSH2 0x59C1 JUMP JUMPDEST POP SWAP1 POP POP PUSH1 0xA PUSH1 0x0 DUP8 PUSH20 0xFFFFFFFFFFFFFFFFFFFFFFFFFFFFFFFFFFFFFFFF AND PUSH20 0xFFFFFFFFFFFFFFFFFFFFFFFFFFFFFFFFFFFFFFFF AND DUP2 MSTORE PUSH1 0x20 ADD SWAP1 DUP2 MSTORE PUSH1 0x20 ADD PUSH1 0x0 KECCAK256 DUP5 DUP2 SLOAD DUP2 LT PUSH2 0x46D8 JUMPI PUSH2 0x46D7 PUSH2 0x5770 JUMP JUMPDEST JUMPDEST SWAP1 PUSH1 0x0 MSTORE PUSH1 0x20 PUSH1 0x0 KECCAK256 SWAP1 PUSH1 0x6 MUL ADD PUSH1 0x0 DUP1 DUP3 ADD PUSH1 0x0 SWAP1 SSTORE PUSH1 0x1 DUP3 ADD PUSH1 0x0 PUSH2 0x46FF SWAP2 SWAP1 PUSH2 0x4BEC JUMP JUMPDEST PUSH1 0x2 DUP3 ADD PUSH1 0x0 PUSH2 0x470F SWAP2 SWAP1 PUSH2 0x4BEC JUMP JUMPDEST PUSH1 0x3 DUP3 ADD PUSH1 0x0 PUSH2 0x471F SWAP2 SWAP1 PUSH2 0x4BEC JUMP JUMPDEST PUSH1 0x4 DUP3 ADD PUSH1 0x0 SWAP1 SSTORE PUSH1 0x5 DUP3 ADD PUSH1 0x0 SWAP1 SSTORE POP POP POP POP POP POP POP POP JUMP JUMPDEST PUSH1 0xB DUP2 DUP1 MLOAD PUSH1 0x20 DUP2 ADD DUP3 ADD DUP1 MLOAD DUP5 DUP3 MSTORE PUSH1 0x20 DUP4 ADD PUSH1 0x20 DUP6 ADD KECCAK256 DUP2 DUP4 MSTORE DUP1 SWAP6 POP POP POP POP POP POP PUSH1 0x0 SWAP2 POP SWAP1 POP DUP1 PUSH1 0x0 ADD SLOAD SWAP1 DUP1 PUSH1 0x1 ADD PUSH1 0x0 SWAP1 SLOAD SWAP1 PUSH2 0x100 EXP SWAP1 DIV PUSH20 0xFFFFFFFFFFFFFFFFFFFFFFFFFFFFFFFFFFFFFFFF AND SWAP1 DUP1 PUSH1 0x2 ADD DUP1 SLOAD PUSH2 0x479E SWAP1 PUSH2 0x57CE JUMP JUMPDEST DUP1 PUSH1 0x1F ADD PUSH1 0x20 DUP1 SWAP2 DIV MUL PUSH1 0x20 ADD PUSH1 0x40 MLOAD SWAP1 DUP2 ADD PUSH1 0x40 MSTORE DUP1 SWAP3 SWAP2 SWAP1 DUP2 DUP2 MSTORE PUSH1 0x20 ADD DUP3 DUP1 SLOAD PUSH2 0x47CA SWAP1 PUSH2 0x57CE JUMP JUMPDEST DUP1 ISZERO PUSH2 0x4817 JUMPI DUP1 PUSH1 0x1F LT PUSH2 0x47EC JUMPI PUSH2 0x100 DUP1 DUP4 SLOAD DIV MUL DUP4 MSTORE SWAP2 PUSH1 0x20 ADD SWAP2 PUSH2 0x4817 JUMP JUMPDEST DUP3 ADD SWAP2 SWAP1 PUSH1 0x0 MSTORE PUSH1 0x20 PUSH1 0x0 KECCAK256 SWAP1 JUMPDEST DUP2 SLOAD DUP2 MSTORE SWAP1 PUSH1 0x1 ADD SWAP1 PUSH1 0x20 ADD DUP1 DUP4 GT PUSH2 0x47FA JUMPI DUP3 SWAP1 SUB PUSH1 0x1F AND DUP3 ADD SWAP2 JUMPDEST POP POP POP POP POP SWAP1 DUP1 PUSH1 0x3 ADD DUP1 SLOAD PUSH2 0x482C SWAP1 PUSH2 0x57CE JUMP JUMPDEST DUP1 PUSH1 0x1F ADD PUSH1 0x20 DUP1 SWAP2 DIV MUL PUSH1 0x20 ADD PUSH1 0x40 MLOAD SWAP1 DUP2 ADD PUSH1 0x40 MSTORE DUP1 SWAP3 SWAP2 SWAP1 DUP2 DUP2 MSTORE PUSH1 0x20 ADD DUP3 DUP1 SLOAD PUSH2 0x4858 SWAP1 PUSH2 0x57CE JUMP JUMPDEST DUP1 ISZERO PUSH2 0x48A5 JUMPI DUP1 PUSH1 0x1F LT PUSH2 0x487A JUMPI PUSH2 0x100 DUP1 DUP4 SLOAD DIV MUL DUP4 MSTORE SWAP2 PUSH1 0x20 ADD SWAP2 PUSH2 0x48A5 JUMP JUMPDEST DUP3 ADD SWAP2 SWAP1 PUSH1 0x0 MSTORE PUSH1 0x20 PUSH1 0x0 KECCAK256 SWAP1 JUMPDEST DUP2 SLOAD DUP2 MSTORE SWAP1 PUSH1 0x1 ADD SWAP1 PUSH1 0x20 ADD DUP1 DUP4 GT PUSH2 0x4888 JUMPI DUP3 SWAP1 SUB PUSH1 0x1F AND DUP3 ADD SWAP2 JUMPDEST POP POP POP POP POP SWAP1 DUP1 PUSH1 0x4 ADD DUP1 SLOAD PUSH2 0x48BA SWAP1 PUSH2 0x57CE JUMP JUMPDEST DUP1 PUSH1 0x1F ADD PUSH1 0x20 DUP1 SWAP2 DIV MUL PUSH1 0x20 ADD PUSH1 0x40 MLOAD SWAP1 DUP2 ADD PUSH1 0x40 MSTORE DUP1 SWAP3 SWAP2 SWAP1 DUP2 DUP2 MSTORE PUSH1 0x20 ADD DUP3 DUP1 SLOAD PUSH2 0x48E6 SWAP1 PUSH2 0x57CE JUMP JUMPDEST DUP1 ISZERO PUSH2 0x4933 JUMPI DUP1 PUSH1 0x1F LT PUSH2 0x4908 JUMPI PUSH2 0x100 DUP1 DUP4 SLOAD DIV MUL DUP4 MSTORE SWAP2 PUSH1 0x20 ADD SWAP2 PUSH2 0x4933 JUMP JUMPDEST DUP3 ADD SWAP2 SWAP1 PUSH1 0x0 MSTORE PUSH1 0x20 PUSH1 0x0 KECCAK256 SWAP1 JUMPDEST DUP2 SLOAD DUP2 MSTORE SWAP1 PUSH1 0x1 ADD SWAP1 PUSH1 0x20 ADD DUP1 DUP4 GT PUSH2 0x4916 JUMPI DUP3 SWAP1 SUB PUSH1 0x1F AND DUP3 ADD SWAP2 JUMPDEST POP POP POP POP POP SWAP1 DUP1 PUSH1 0x5 ADD SLOAD SWAP1 DUP1 PUSH1 0x6 ADD SLOAD SWAP1 DUP1 PUSH1 0x7 ADD DUP1 SLOAD PUSH2 0x4954 SWAP1 PUSH2 0x57CE JUMP JUMPDEST DUP1 PUSH1 0x1F ADD PUSH1 0x20 DUP1 SWAP2 DIV MUL PUSH1 0x20 ADD PUSH1 0x40 MLOAD SWAP1 DUP2 ADD PUSH1 0x40 MSTORE DUP1 SWAP3 SWAP2 SWAP1 DUP2 DUP2 MSTORE PUSH1 0x20 ADD DUP3 DUP1 SLOAD PUSH2 0x4980 SWAP1 PUSH2 0x57CE JUMP JUMPDEST DUP1 ISZERO PUSH2 0x49CD JUMPI DUP1 PUSH1 0x1F LT PUSH2 0x49A2 JUMPI PUSH2 0x100 DUP1 DUP4 SLOAD DIV MUL DUP4 MSTORE SWAP2 PUSH1 0x20 ADD SWAP2 PUSH2 0x49CD JUMP JUMPDEST DUP3 ADD SWAP2 SWAP1 PUSH1 0x0 MSTORE PUSH1 0x20 PUSH1 0x0 KECCAK256 SWAP1 JUMPDEST DUP2 SLOAD DUP2 MSTORE SWAP1 PUSH1 0x1 ADD SWAP1 PUSH1 0x20 ADD DUP1 DUP4 GT PUSH2 0x49B0 JUMPI DUP3 SWAP1 SUB PUSH1 0x1F AND DUP3 ADD SWAP2 JUMPDEST POP POP POP POP POP SWAP1 POP DUP9 JUMP JUMPDEST PUSH1 0xA PUSH1 0x20 MSTORE DUP2 PUSH1 0x0 MSTORE PUSH1 0x40 PUSH1 0x0 KECCAK256 DUP2 DUP2 SLOAD DUP2 LT PUSH2 0x49F3 JUMPI PUSH1 0x0 DUP1 REVERT JUMPDEST SWAP1 PUSH1 0x0 MSTORE PUSH1 0x20 PUSH1 0x0 KECCAK256 SWAP1 PUSH1 0x6 MUL ADD PUSH1 0x0 SWAP2 POP SWAP2 POP POP DUP1 PUSH1 0x0 ADD SLOAD SWAP1 DUP1 PUSH1 0x1 ADD DUP1 SLOAD PUSH2 0x4A1D SWAP1 PUSH2 0x57CE JUMP JUMPDEST DUP1 PUSH1 0x1F ADD PUSH1 0x20 DUP1 SWAP2 DIV MUL PUSH1 0x20 ADD PUSH1 0x40 MLOAD SWAP1 DUP2 ADD PUSH1 0x40 MSTORE DUP1 SWAP3 SWAP2 SWAP1 DUP2 DUP2 MSTORE PUSH1 0x20 ADD DUP3 DUP1 SLOAD PUSH2 0x4A49 SWAP1 PUSH2 0x57CE JUMP JUMPDEST DUP1 ISZERO PUSH2 0x4A96 JUMPI DUP1 PUSH1 0x1F LT PUSH2 0x4A6B JUMPI PUSH2 0x100 DUP1 DUP4 SLOAD DIV MUL DUP4 MSTORE SWAP2 PUSH1 0x20 ADD SWAP2 PUSH2 0x4A96 JUMP JUMPDEST DUP3 ADD SWAP2 SWAP1 PUSH1 0x0 MSTORE PUSH1 0x20 PUSH1 0x0 KECCAK256 SWAP1 JUMPDEST DUP2 SLOAD DUP2 MSTORE SWAP1 PUSH1 0x1 ADD SWAP1 PUSH1 0x20 ADD DUP1 DUP4 GT PUSH2 0x4A79 JUMPI DUP3 SWAP1 SUB PUSH1 0x1F AND DUP3 ADD SWAP2 JUMPDEST POP POP POP POP POP SWAP1 DUP1 PUSH1 0x2 ADD DUP1 SLOAD PUSH2 0x4AAB SWAP1 PUSH2 0x57CE JUMP JUMPDEST DUP1 PUSH1 0x1F ADD PUSH1 0x20 DUP1 SWAP2 DIV MUL PUSH1 0x20 ADD PUSH1 0x40 MLOAD SWAP1 DUP2 ADD PUSH1 0x40 MSTORE DUP1 SWAP3 SWAP2 SWAP1 DUP2 DUP2 MSTORE PUSH1 0x20 ADD DUP3 DUP1 SLOAD PUSH2 0x4AD7 SWAP1 PUSH2 0x57CE JUMP JUMPDEST DUP1 ISZERO PUSH2 0x4B24 JUMPI DUP1 PUSH1 0x1F LT PUSH2 0x4AF9 JUMPI PUSH2 0x100 DUP1 DUP4 SLOAD DIV MUL DUP4 MSTORE SWAP2 PUSH1 0x20 ADD SWAP2 PUSH2 0x4B24 JUMP JUMPDEST DUP3 ADD SWAP2 SWAP1 PUSH1 0x0 MSTORE PUSH1 0x20 PUSH1 0x0 KECCAK256 SWAP1 JUMPDEST DUP2 SLOAD DUP2 MSTORE SWAP1 PUSH1 0x1 ADD SWAP1 PUSH1 0x20 ADD DUP1 DUP4 GT PUSH2 0x4B07 JUMPI DUP3 SWAP1 SUB PUSH1 0x1F AND DUP3 ADD SWAP2 JUMPDEST POP POP POP POP POP SWAP1 DUP1 PUSH1 0x3 ADD DUP1 SLOAD PUSH2 0x4B39 SWAP1 PUSH2 0x57CE JUMP JUMPDEST DUP1 PUSH1 0x1F ADD PUSH1 0x20 DUP1 SWAP2 DIV MUL PUSH1 0x20 ADD PUSH1 0x40 MLOAD SWAP1 DUP2 ADD PUSH1 0x40 MSTORE DUP1 SWAP3 SWAP2 SWAP1 DUP2 DUP2 MSTORE PUSH1 0x20 ADD DUP3 DUP1 SLOAD PUSH2 0x4B65 SWAP1 PUSH2 0x57CE JUMP JUMPDEST DUP1 ISZERO PUSH2 0x4BB2 JUMPI DUP1 PUSH1 0x1F LT PUSH2 0x4B87 JUMPI PUSH2 0x100 DUP1 DUP4 SLOAD DIV MUL DUP4 MSTORE SWAP2 PUSH1 0x20 ADD SWAP2 PUSH2 0x4BB2 JUMP JUMPDEST DUP3 ADD SWAP2 SWAP1 PUSH1 0x0 MSTORE PUSH1 0x20 PUSH1 0x0 KECCAK256 SWAP1 JUMPDEST DUP2 SLOAD DUP2 MSTORE SWAP1 PUSH1 0x1 ADD SWAP1 PUSH1 0x20 ADD DUP1 DUP4 GT PUSH2 0x4B95 JUMPI DUP3 SWAP1 SUB PUSH1 0x1F AND DUP3 ADD SWAP2 JUMPDEST POP POP POP POP POP SWAP1 DUP1 PUSH1 0x4 ADD SLOAD SWAP1 DUP1 PUSH1 0x5 ADD SLOAD SWAP1 POP DUP7 JUMP JUMPDEST POP DUP1 SLOAD PUSH1 0x0 DUP3 SSTORE PUSH1 0x8 MUL SWAP1 PUSH1 0x0 MSTORE PUSH1 0x20 PUSH1 0x0 KECCAK256 SWAP1 DUP2 ADD SWAP1 PUSH2 0x4BE9 SWAP2 SWAP1 PUSH2 0x4C50 JUMP JUMPDEST POP JUMP JUMPDEST POP DUP1 SLOAD PUSH2 0x4BF8 SWAP1 PUSH2 0x57CE JUMP JUMPDEST PUSH1 0x0 DUP3 SSTORE DUP1 PUSH1 0x1F LT PUSH2 0x4C0A JUMPI POP PUSH2 0x4C29 JUMP JUMPDEST PUSH1 0x1F ADD PUSH1 0x20 SWAP1 DIV SWAP1 PUSH1 0x0 MSTORE PUSH1 0x20 PUSH1 0x0 KECCAK256 SWAP1 DUP2 ADD SWAP1 PUSH2 0x4C28 SWAP2 SWAP1 PUSH2 0x4CE6 JUMP JUMPDEST JUMPDEST POP JUMP JUMPDEST POP DUP1 SLOAD PUSH1 0x0 DUP3 SSTORE PUSH1 0x6 MUL SWAP1 PUSH1 0x0 MSTORE PUSH1 0x20 PUSH1 0x0 KECCAK256 SWAP1 DUP2 ADD SWAP1 PUSH2 0x4C4D SWAP2 SWAP1 PUSH2 0x4D03 JUMP JUMPDEST POP JUMP JUMPDEST JUMPDEST DUP1 DUP3 GT ISZERO PUSH2 0x4CE2 JUMPI PUSH1 0x0 DUP1 DUP3 ADD PUSH1 0x0 SWAP1 SSTORE PUSH1 0x1 DUP3 ADD PUSH1 0x0 PUSH2 0x100 EXP DUP2 SLOAD SWAP1 PUSH20 0xFFFFFFFFFFFFFFFFFFFFFFFFFFFFFFFFFFFFFFFF MUL NOT AND SWAP1 SSTORE PUSH1 0x2 DUP3 ADD PUSH1 0x0 PUSH2 0x4C99 SWAP2 SWAP1 PUSH2 0x4BEC JUMP JUMPDEST PUSH1 0x3 DUP3 ADD PUSH1 0x0 PUSH2 0x4CA9 SWAP2 SWAP1 PUSH2 0x4BEC JUMP JUMPDEST PUSH1 0x4 DUP3 ADD PUSH1 0x0 PUSH2 0x4CB9 SWAP2 SWAP1 PUSH2 0x4BEC JUMP JUMPDEST PUSH1 0x5 DUP3 ADD PUSH1 0x0 SWAP1 SSTORE PUSH1 0x6 DUP3 ADD PUSH1 0x0 SWAP1 SSTORE PUSH1 0x7 DUP3 ADD PUSH1 0x0 PUSH2 0x4CD9 SWAP2 SWAP1 PUSH2 0x4BEC JUMP JUMPDEST POP PUSH1 0x8 ADD PUSH2 0x4C51 JUMP JUMPDEST POP SWAP1 JUMP JUMPDEST JUMPDEST DUP1 DUP3 GT ISZERO PUSH2 0x4CFF JUMPI PUSH1 0x0 DUP2 PUSH1 0x0 SWAP1 SSTORE POP PUSH1 0x1 ADD PUSH2 0x4CE7 JUMP JUMPDEST POP SWAP1 JUMP JUMPDEST JUMPDEST DUP1 DUP3 GT ISZERO PUSH2 0x4D5E JUMPI PUSH1 0x0 DUP1 DUP3 ADD PUSH1 0x0 SWAP1 SSTORE PUSH1 0x1 DUP3 ADD PUSH1 0x0 PUSH2 0x4D25 SWAP2 SWAP1 PUSH2 0x4BEC JUMP JUMPDEST PUSH1 0x2 DUP3 ADD PUSH1 0x0 PUSH2 0x4D35 SWAP2 SWAP1 PUSH2 0x4BEC JUMP JUMPDEST PUSH1 0x3 DUP3 ADD PUSH1 0x0 PUSH2 0x4D45 SWAP2 SWAP1 PUSH2 0x4BEC JUMP JUMPDEST PUSH1 0x4 DUP3 ADD PUSH1 0x0 SWAP1 SSTORE PUSH1 0x5 DUP3 ADD PUSH1 0x0 SWAP1 SSTORE POP PUSH1 0x6 ADD PUSH2 0x4D04 JUMP JUMPDEST POP SWAP1 JUMP JUMPDEST PUSH1 0x0 PUSH1 0x40 MLOAD SWAP1 POP SWAP1 JUMP JUMPDEST PUSH1 0x0 DUP1 REVERT JUMPDEST PUSH1 0x0 DUP1 REVERT JUMPDEST PUSH1 0x0 DUP2 SWAP1 POP SWAP2 SWAP1 POP JUMP JUMPDEST PUSH2 0x4D89 DUP2 PUSH2 0x4D76 JUMP JUMPDEST DUP2 EQ PUSH2 0x4D94 JUMPI PUSH1 0x0 DUP1 REVERT JUMPDEST POP JUMP JUMPDEST PUSH1 0x0 DUP2 CALLDATALOAD SWAP1 POP PUSH2 0x4DA6 DUP2 PUSH2 0x4D80 JUMP JUMPDEST SWAP3 SWAP2 POP POP JUMP JUMPDEST PUSH1 0x0 PUSH1 0x20 DUP3 DUP5 SUB SLT ISZERO PUSH2 0x4DC2 JUMPI PUSH2 0x4DC1 PUSH2 0x4D6C JUMP JUMPDEST JUMPDEST PUSH1 0x0 PUSH2 0x4DD0 DUP5 DUP3 DUP6 ADD PUSH2 0x4D97 JUMP JUMPDEST SWAP2 POP POP SWAP3 SWAP2 POP POP JUMP JUMPDEST PUSH2 0x4DE2 DUP2 PUSH2 0x4D76 JUMP JUMPDEST DUP3 MSTORE POP POP JUMP JUMPDEST PUSH1 0x0 PUSH1 0x20 DUP3 ADD SWAP1 POP PUSH2 0x4DFD PUSH1 0x0 DUP4 ADD DUP5 PUSH2 0x4DD9 JUMP JUMPDEST SWAP3 SWAP2 POP POP JUMP JUMPDEST PUSH1 0x0 DUP1 REVERT JUMPDEST PUSH1 0x0 PUSH1 0x1F NOT PUSH1 0x1F DUP4 ADD AND SWAP1 POP SWAP2 SWAP1 POP JUMP JUMPDEST PUSH32 0x4E487B7100000000000000000000000000000000000000000000000000000000 PUSH1 0x0 MSTORE PUSH1 0x41 PUSH1 0x4 MSTORE PUSH1 0x24 PUSH1 0x0 REVERT JUMPDEST PUSH2 0x4E51 DUP3 PUSH2 0x4E08 JUMP JUMPDEST DUP2 ADD DUP2 DUP2 LT PUSH8 0xFFFFFFFFFFFFFFFF DUP3 GT OR ISZERO PUSH2 0x4E70 JUMPI PUSH2 0x4E6F PUSH2 0x4E19 JUMP JUMPDEST JUMPDEST DUP1 PUSH1 0x40 MSTORE POP POP POP JUMP JUMPDEST PUSH1 0x0 PUSH2 0x4E83 PUSH2 0x4D62 JUMP JUMPDEST SWAP1 POP PUSH2 0x4E8F DUP3 DUP3 PUSH2 0x4E48 JUMP JUMPDEST SWAP2 SWAP1 POP JUMP JUMPDEST PUSH1 0x0 PUSH8 0xFFFFFFFFFFFFFFFF DUP3 GT ISZERO PUSH2 0x4EAF JUMPI PUSH2 0x4EAE PUSH2 0x4E19 JUMP JUMPDEST JUMPDEST PUSH1 0x20 DUP3 MUL SWAP1 POP PUSH1 0x20 DUP2 ADD SWAP1 POP SWAP2 SWAP1 POP JUMP JUMPDEST PUSH1 0x0 DUP1 REVERT JUMPDEST PUSH1 0x0 PUSH20 0xFFFFFFFFFFFFFFFFFFFFFFFFFFFFFFFFFFFFFFFF DUP3 AND SWAP1 POP SWAP2 SWAP1 POP JUMP JUMPDEST PUSH1 0x0 PUSH2 0x4EF0 DUP3 PUSH2 0x4EC5 JUMP JUMPDEST SWAP1 POP SWAP2 SWAP1 POP JUMP JUMPDEST PUSH2 0x4F00 DUP2 PUSH2 0x4EE5 JUMP JUMPDEST DUP2 EQ PUSH2 0x4F0B JUMPI PUSH1 0x0 DUP1 REVERT JUMPDEST POP JUMP JUMPDEST PUSH1 0x0 DUP2 CALLDATALOAD SWAP1 POP PUSH2 0x4F1D DUP2 PUSH2 0x4EF7 JUMP JUMPDEST SWAP3 SWAP2 POP POP JUMP JUMPDEST PUSH1 0x0 PUSH2 0x4F36 PUSH2 0x4F31 DUP5 PUSH2 0x4E94 JUMP JUMPDEST PUSH2 0x4E79 JUMP JUMPDEST SWAP1 POP DUP1 DUP4 DUP3 MSTORE PUSH1 0x20 DUP3 ADD SWAP1 POP PUSH1 0x20 DUP5 MUL DUP4 ADD DUP6 DUP2 GT ISZERO PUSH2 0x4F59 JUMPI PUSH2 0x4F58 PUSH2 0x4EC0 JUMP JUMPDEST JUMPDEST DUP4 JUMPDEST DUP2 DUP2 LT ISZERO PUSH2 0x4F82 JUMPI DUP1 PUSH2 0x4F6E DUP9 DUP3 PUSH2 0x4F0E JUMP JUMPDEST DUP5 MSTORE PUSH1 0x20 DUP5 ADD SWAP4 POP POP PUSH1 0x20 DUP2 ADD SWAP1 POP PUSH2 0x4F5B JUMP JUMPDEST POP POP POP SWAP4 SWAP3 POP POP POP JUMP JUMPDEST PUSH1 0x0 DUP3 PUSH1 0x1F DUP4 ADD SLT PUSH2 0x4FA1 JUMPI PUSH2 0x4FA0 PUSH2 0x4E03 JUMP JUMPDEST JUMPDEST DUP2 CALLDATALOAD PUSH2 0x4FB1 DUP5 DUP3 PUSH1 0x20 DUP7 ADD PUSH2 0x4F23 JUMP JUMPDEST SWAP2 POP POP SWAP3 SWAP2 POP POP JUMP JUMPDEST PUSH1 0x0 PUSH1 0x20 DUP3 DUP5 SUB SLT ISZERO PUSH2 0x4FD0 JUMPI PUSH2 0x4FCF PUSH2 0x4D6C JUMP JUMPDEST JUMPDEST PUSH1 0x0 DUP3 ADD CALLDATALOAD PUSH8 0xFFFFFFFFFFFFFFFF DUP2 GT ISZERO PUSH2 0x4FEE JUMPI PUSH2 0x4FED PUSH2 0x4D71 JUMP JUMPDEST JUMPDEST PUSH2 0x4FFA DUP5 DUP3 DUP6 ADD PUSH2 0x4F8C JUMP JUMPDEST SWAP2 POP POP SWAP3 SWAP2 POP POP JUMP JUMPDEST PUSH1 0x0 DUP1 PUSH1 0x0 DUP1 PUSH1 0x80 DUP6 DUP8 SUB SLT ISZERO PUSH2 0x501D JUMPI PUSH2 0x501C PUSH2 0x4D6C JUMP JUMPDEST JUMPDEST PUSH1 0x0 PUSH2 0x502B DUP8 DUP3 DUP9 ADD PUSH2 0x4D97 JUMP JUMPDEST SWAP5 POP POP PUSH1 0x20 PUSH2 0x503C DUP8 DUP3 DUP9 ADD PUSH2 0x4F0E JUMP JUMPDEST SWAP4 POP POP PUSH1 0x40 PUSH2 0x504D DUP8 DUP3 DUP9 ADD PUSH2 0x4D97 JUMP JUMPDEST SWAP3 POP POP PUSH1 0x60 PUSH2 0x505E DUP8 DUP3 DUP9 ADD PUSH2 0x4D97 JUMP JUMPDEST SWAP2 POP POP SWAP3 SWAP6 SWAP2 SWAP5 POP SWAP3 POP JUMP JUMPDEST PUSH1 0x0 PUSH8 0xFFFFFFFFFFFFFFFF DUP3 GT ISZERO PUSH2 0x5085 JUMPI PUSH2 0x5084 PUSH2 0x4E19 JUMP JUMPDEST JUMPDEST PUSH1 0x20 DUP3 MUL SWAP1 POP PUSH1 0x20 DUP2 ADD SWAP1 POP SWAP2 SWAP1 POP JUMP JUMPDEST PUSH1 0x0 PUSH2 0x50A9 PUSH2 0x50A4 DUP5 PUSH2 0x506A JUMP JUMPDEST PUSH2 0x4E79 JUMP JUMPDEST SWAP1 POP DUP1 DUP4 DUP3 MSTORE PUSH1 0x20 DUP3 ADD SWAP1 POP PUSH1 0x20 DUP5 MUL DUP4 ADD DUP6 DUP2 GT ISZERO PUSH2 0x50CC JUMPI PUSH2 0x50CB PUSH2 0x4EC0 JUMP JUMPDEST JUMPDEST DUP4 JUMPDEST DUP2 DUP2 LT ISZERO PUSH2 0x50F5 JUMPI DUP1 PUSH2 0x50E1 DUP9 DUP3 PUSH2 0x4D97 JUMP JUMPDEST DUP5 MSTORE PUSH1 0x20 DUP5 ADD SWAP4 POP POP PUSH1 0x20 DUP2 ADD SWAP1 POP PUSH2 0x50CE JUMP JUMPDEST POP POP POP SWAP4 SWAP3 POP POP POP JUMP JUMPDEST PUSH1 0x0 DUP3 PUSH1 0x1F DUP4 ADD SLT PUSH2 0x5114 JUMPI PUSH2 0x5113 PUSH2 0x4E03 JUMP JUMPDEST JUMPDEST DUP2 CALLDATALOAD PUSH2 0x5124 DUP5 DUP3 PUSH1 0x20 DUP7 ADD PUSH2 0x5096 JUMP JUMPDEST SWAP2 POP POP SWAP3 SWAP2 POP POP JUMP JUMPDEST PUSH1 0x0 PUSH1 0x20 DUP3 DUP5 SUB SLT ISZERO PUSH2 0x5143 JUMPI PUSH2 0x5142 PUSH2 0x4D6C JUMP JUMPDEST JUMPDEST PUSH1 0x0 DUP3 ADD CALLDATALOAD PUSH8 0xFFFFFFFFFFFFFFFF DUP2 GT ISZERO PUSH2 0x5161 JUMPI PUSH2 0x5160 PUSH2 0x4D71 JUMP JUMPDEST JUMPDEST PUSH2 0x516D DUP5 DUP3 DUP6 ADD PUSH2 0x50FF JUMP JUMPDEST SWAP2 POP POP SWAP3 SWAP2 POP POP JUMP JUMPDEST PUSH1 0x0 DUP1 REVERT JUMPDEST PUSH1 0x0 PUSH8 0xFFFFFFFFFFFFFFFF DUP3 GT ISZERO PUSH2 0x5196 JUMPI PUSH2 0x5195 PUSH2 0x4E19 JUMP JUMPDEST JUMPDEST PUSH2 0x519F DUP3 PUSH2 0x4E08 JUMP JUMPDEST SWAP1 POP PUSH1 0x20 DUP2 ADD SWAP1 POP SWAP2 SWAP1 POP JUMP JUMPDEST DUP3 DUP2 DUP4 CALLDATACOPY PUSH1 0x0 DUP4 DUP4 ADD MSTORE POP POP POP JUMP JUMPDEST PUSH1 0x0 PUSH2 0x51CE PUSH2 0x51C9 DUP5 PUSH2 0x517B JUMP JUMPDEST PUSH2 0x4E79 JUMP JUMPDEST SWAP1 POP DUP3 DUP2 MSTORE PUSH1 0x20 DUP2 ADD DUP5 DUP5 DUP5 ADD GT ISZERO PUSH2 0x51EA JUMPI PUSH2 0x51E9 PUSH2 0x5176 JUMP JUMPDEST JUMPDEST PUSH2 0x51F5 DUP5 DUP3 DUP6 PUSH2 0x51AC JUMP JUMPDEST POP SWAP4 SWAP3 POP POP POP JUMP JUMPDEST PUSH1 0x0 DUP3 PUSH1 0x1F DUP4 ADD SLT PUSH2 0x5212 JUMPI PUSH2 0x5211 PUSH2 0x4E03 JUMP JUMPDEST JUMPDEST DUP2 CALLDATALOAD PUSH2 0x5222 DUP5 DUP3 PUSH1 0x20 DUP7 ADD PUSH2 0x51BB JUMP JUMPDEST SWAP2 POP POP SWAP3 SWAP2 POP POP JUMP JUMPDEST PUSH1 0x0 PUSH1 0x20 DUP3 DUP5 SUB SLT ISZERO PUSH2 0x5241 JUMPI PUSH2 0x5240 PUSH2 0x4D6C JUMP JUMPDEST JUMPDEST PUSH1 0x0 DUP3 ADD CALLDATALOAD PUSH8 0xFFFFFFFFFFFFFFFF DUP2 GT ISZERO PUSH2 0x525F JUMPI PUSH2 0x525E PUSH2 0x4D71 JUMP JUMPDEST JUMPDEST PUSH2 0x526B DUP5 DUP3 DUP6 ADD PUSH2 0x51FD JUMP JUMPDEST SWAP2 POP POP SWAP3 SWAP2 POP POP JUMP JUMPDEST PUSH1 0x0 PUSH1 0x20 DUP3 DUP5 SUB SLT ISZERO PUSH2 0x528A JUMPI PUSH2 0x5289 PUSH2 0x4D6C JUMP JUMPDEST JUMPDEST PUSH1 0x0 PUSH2 0x5298 DUP5 DUP3 DUP6 ADD PUSH2 0x4F0E JUMP JUMPDEST SWAP2 POP POP SWAP3 SWAP2 POP POP JUMP JUMPDEST PUSH1 0x0 DUP2 ISZERO ISZERO SWAP1 POP SWAP2 SWAP1 POP JUMP JUMPDEST PUSH2 0x52B6 DUP2 PUSH2 0x52A1 JUMP JUMPDEST DUP3 MSTORE POP POP JUMP JUMPDEST PUSH1 0x0 PUSH1 0x20 DUP3 ADD SWAP1 POP PUSH2 0x52D1 PUSH1 0x0 DUP4 ADD DUP5 PUSH2 0x52AD JUMP JUMPDEST SWAP3 SWAP2 POP POP JUMP JUMPDEST PUSH1 0x0 DUP1 PUSH1 0x0 DUP1 PUSH1 0x80 DUP6 DUP8 SUB SLT ISZERO PUSH2 0x52F1 JUMPI PUSH2 0x52F0 PUSH2 0x4D6C JUMP JUMPDEST JUMPDEST PUSH1 0x0 PUSH2 0x52FF DUP8 DUP3 DUP9 ADD PUSH2 0x4F0E JUMP JUMPDEST SWAP5 POP POP PUSH1 0x20 DUP6 ADD CALLDATALOAD PUSH8 0xFFFFFFFFFFFFFFFF DUP2 GT ISZERO PUSH2 0x5320 JUMPI PUSH2 0x531F PUSH2 0x4D71 JUMP JUMPDEST JUMPDEST PUSH2 0x532C DUP8 DUP3 DUP9 ADD PUSH2 0x51FD JUMP JUMPDEST SWAP4 POP POP PUSH1 0x40 DUP6 ADD CALLDATALOAD PUSH8 0xFFFFFFFFFFFFFFFF DUP2 GT ISZERO PUSH2 0x534D JUMPI PUSH2 0x534C PUSH2 0x4D71 JUMP JUMPDEST JUMPDEST PUSH2 0x5359 DUP8 DUP3 DUP9 ADD PUSH2 0x51FD JUMP JUMPDEST SWAP3 POP POP PUSH1 0x60 DUP6 ADD CALLDATALOAD PUSH8 0xFFFFFFFFFFFFFFFF DUP2 GT ISZERO PUSH2 0x537A JUMPI PUSH2 0x5379 PUSH2 0x4D71 JUMP JUMPDEST JUMPDEST PUSH2 0x5386 DUP8 DUP3 DUP9 ADD PUSH2 0x51FD JUMP JUMPDEST SWAP2 POP POP SWAP3 SWAP6 SWAP2 SWAP5 POP SWAP3 POP JUMP JUMPDEST PUSH1 0x0 DUP1 PUSH1 0x40 DUP4 DUP6 SUB SLT ISZERO PUSH2 0x53A9 JUMPI PUSH2 0x53A8 PUSH2 0x4D6C JUMP JUMPDEST JUMPDEST PUSH1 0x0 PUSH2 0x53B7 DUP6 DUP3 DUP7 ADD PUSH2 0x4D97 JUMP JUMPDEST SWAP3 POP POP PUSH1 0x20 PUSH2 0x53C8 DUP6 DUP3 DUP7 ADD PUSH2 0x4D97 JUMP JUMPDEST SWAP2 POP POP SWAP3 POP SWAP3 SWAP1 POP JUMP JUMPDEST PUSH2 0x53DB DUP2 PUSH2 0x4EE5 JUMP JUMPDEST DUP3 MSTORE POP POP JUMP JUMPDEST PUSH1 0x0 DUP2 MLOAD SWAP1 POP SWAP2 SWAP1 POP JUMP JUMPDEST PUSH1 0x0 DUP3 DUP3 MSTORE PUSH1 0x20 DUP3 ADD SWAP1 POP SWAP3 SWAP2 POP POP JUMP JUMPDEST PUSH1 0x0 JUMPDEST DUP4 DUP2 LT ISZERO PUSH2 0x541B JUMPI DUP1 DUP3 ADD MLOAD DUP2 DUP5 ADD MSTORE PUSH1 0x20 DUP2 ADD SWAP1 POP PUSH2 0x5400 JUMP JUMPDEST PUSH1 0x0 DUP5 DUP5 ADD MSTORE POP POP POP POP JUMP JUMPDEST PUSH1 0x0 PUSH2 0x5432 DUP3 PUSH2 0x53E1 JUMP JUMPDEST PUSH2 0x543C DUP2 DUP6 PUSH2 0x53EC JUMP JUMPDEST SWAP4 POP PUSH2 0x544C DUP2 DUP6 PUSH1 0x20 DUP7 ADD PUSH2 0x53FD JUMP JUMPDEST PUSH2 0x5455 DUP2 PUSH2 0x4E08 JUMP JUMPDEST DUP5 ADD SWAP2 POP POP SWAP3 SWAP2 POP POP JUMP JUMPDEST PUSH1 0x0 PUSH2 0x100 DUP3 ADD SWAP1 POP PUSH2 0x5476 PUSH1 0x0 DUP4 ADD DUP12 PUSH2 0x4DD9 JUMP JUMPDEST PUSH2 0x5483 PUSH1 0x20 DUP4 ADD DUP11 PUSH2 0x53D2 JUMP JUMPDEST DUP2 DUP2 SUB PUSH1 0x40 DUP4 ADD MSTORE PUSH2 0x5495 DUP2 DUP10 PUSH2 0x5427 JUMP JUMPDEST SWAP1 POP DUP2 DUP2 SUB PUSH1 0x60 DUP4 ADD MSTORE PUSH2 0x54A9 DUP2 DUP9 PUSH2 0x5427 JUMP JUMPDEST SWAP1 POP DUP2 DUP2 SUB PUSH1 0x80 DUP4 ADD MSTORE PUSH2 0x54BD DUP2 DUP8 PUSH2 0x5427 JUMP JUMPDEST SWAP1 POP PUSH2 0x54CC PUSH1 0xA0 DUP4 ADD DUP7 PUSH2 0x4DD9 JUMP JUMPDEST PUSH2 0x54D9 PUSH1 0xC0 DUP4 ADD DUP6 PUSH2 0x4DD9 JUMP JUMPDEST DUP2 DUP2 SUB PUSH1 0xE0 DUP4 ADD MSTORE PUSH2 0x54EB DUP2 DUP5 PUSH2 0x5427 JUMP JUMPDEST SWAP1 POP SWAP10 SWAP9 POP POP POP POP POP POP POP POP POP JUMP JUMPDEST PUSH2 0x5503 DUP2 PUSH2 0x52A1 JUMP JUMPDEST DUP2 EQ PUSH2 0x550E JUMPI PUSH1 0x0 DUP1 REVERT JUMPDEST POP JUMP JUMPDEST PUSH1 0x0 DUP2 CALLDATALOAD SWAP1 POP PUSH2 0x5520 DUP2 PUSH2 0x54FA JUMP JUMPDEST SWAP3 SWAP2 POP POP JUMP JUMPDEST PUSH1 0x0 DUP1 PUSH1 0x0 DUP1 PUSH1 0x80 DUP6 DUP8 SUB SLT ISZERO PUSH2 0x5540 JUMPI PUSH2 0x553F PUSH2 0x4D6C JUMP JUMPDEST JUMPDEST PUSH1 0x0 PUSH2 0x554E DUP8 DUP3 DUP9 ADD PUSH2 0x4F0E JUMP JUMPDEST SWAP5 POP POP PUSH1 0x20 PUSH2 0x555F DUP8 DUP3 DUP9 ADD PUSH2 0x4D97 JUMP JUMPDEST SWAP4 POP POP PUSH1 0x40 PUSH2 0x5570 DUP8 DUP3 DUP9 ADD PUSH2 0x4D97 JUMP JUMPDEST SWAP3 POP POP PUSH1 0x60 PUSH2 0x5581 DUP8 DUP3 DUP9 ADD PUSH2 0x5511 JUMP JUMPDEST SWAP2 POP POP SWAP3 SWAP6 SWAP2 SWAP5 POP SWAP3 POP JUMP JUMPDEST PUSH1 0x0 PUSH1 0x20 DUP3 ADD SWAP1 POP PUSH2 0x55A2 PUSH1 0x0 DUP4 ADD DUP5 PUSH2 0x53D2 JUMP JUMPDEST SWAP3 SWAP2 POP POP JUMP JUMPDEST PUSH1 0x0 PUSH1 0xC0 DUP3 ADD SWAP1 POP PUSH2 0x55BD PUSH1 0x0 DUP4 ADD DUP10 PUSH2 0x4DD9 JUMP JUMPDEST DUP2 DUP2 SUB PUSH1 0x20 DUP4 ADD MSTORE PUSH2 0x55CF DUP2 DUP9 PUSH2 0x5427 JUMP JUMPDEST SWAP1 POP DUP2 DUP2 SUB PUSH1 0x40 DUP4 ADD MSTORE PUSH2 0x55E3 DUP2 DUP8 PUSH2 0x5427 JUMP JUMPDEST SWAP1 POP DUP2 DUP2 SUB PUSH1 0x60 DUP4 ADD MSTORE PUSH2 0x55F7 DUP2 DUP7 PUSH2 0x5427 JUMP JUMPDEST SWAP1 POP PUSH2 0x5606 PUSH1 0x80 DUP4 ADD DUP6 PUSH2 0x4DD9 JUMP JUMPDEST PUSH2 0x5613 PUSH1 0xA0 DUP4 ADD DUP5 PUSH2 0x4DD9 JUMP JUMPDEST SWAP8 SWAP7 POP POP POP POP POP POP POP JUMP JUMPDEST PUSH1 0x0 DUP1 PUSH1 0x40 DUP4 DUP6 SUB SLT ISZERO PUSH2 0x5635 JUMPI PUSH2 0x5634 PUSH2 0x4D6C JUMP JUMPDEST JUMPDEST PUSH1 0x0 PUSH2 0x5643 DUP6 DUP3 DUP7 ADD PUSH2 0x4F0E JUMP JUMPDEST SWAP3 POP POP PUSH1 0x20 PUSH2 0x5654 DUP6 DUP3 DUP7 ADD PUSH2 0x4D97 JUMP JUMPDEST SWAP2 POP POP SWAP3 POP SWAP3 SWAP1 POP JUMP JUMPDEST PUSH1 0x0 PUSH2 0x5669 DUP3 PUSH2 0x4EC5 JUMP JUMPDEST SWAP1 POP SWAP2 SWAP1 POP JUMP JUMPDEST PUSH2 0x5679 DUP2 PUSH2 0x565E JUMP JUMPDEST DUP2 EQ PUSH2 0x5684 JUMPI PUSH1 0x0 DUP1 REVERT JUMPDEST POP JUMP JUMPDEST PUSH1 0x0 DUP2 CALLDATALOAD SWAP1 POP PUSH2 0x5696 DUP2 PUSH2 0x5670 JUMP JUMPDEST SWAP3 SWAP2 POP POP JUMP JUMPDEST PUSH1 0x0 PUSH1 0x20 DUP3 DUP5 SUB SLT ISZERO PUSH2 0x56B2 JUMPI PUSH2 0x56B1 PUSH2 0x4D6C JUMP JUMPDEST JUMPDEST PUSH1 0x0 PUSH2 0x56C0 DUP5 DUP3 DUP6 ADD PUSH2 0x5687 JUMP JUMPDEST SWAP2 POP POP SWAP3 SWAP2 POP POP JUMP JUMPDEST PUSH1 0x0 DUP1 PUSH1 0x0 PUSH1 0x60 DUP5 DUP7 SUB SLT ISZERO PUSH2 0x56E2 JUMPI PUSH2 0x56E1 PUSH2 0x4D6C JUMP JUMPDEST JUMPDEST PUSH1 0x0 DUP5 ADD CALLDATALOAD PUSH8 0xFFFFFFFFFFFFFFFF DUP2 GT ISZERO PUSH2 0x5700 JUMPI PUSH2 0x56FF PUSH2 0x4D71 JUMP JUMPDEST JUMPDEST PUSH2 0x570C DUP7 DUP3 DUP8 ADD PUSH2 0x51FD JUMP JUMPDEST SWAP4 POP POP PUSH1 0x20 DUP5 ADD CALLDATALOAD PUSH8 0xFFFFFFFFFFFFFFFF DUP2 GT ISZERO PUSH2 0x572D JUMPI PUSH2 0x572C PUSH2 0x4D71 JUMP JUMPDEST JUMPDEST PUSH2 0x5739 DUP7 DUP3 DUP8 ADD PUSH2 0x51FD JUMP JUMPDEST SWAP3 POP POP PUSH1 0x40 DUP5 ADD CALLDATALOAD PUSH8 0xFFFFFFFFFFFFFFFF DUP2 GT ISZERO PUSH2 0x575A JUMPI PUSH2 0x5759 PUSH2 0x4D71 JUMP JUMPDEST JUMPDEST PUSH2 0x5766 DUP7 DUP3 DUP8 ADD PUSH2 0x51FD JUMP JUMPDEST SWAP2 POP POP SWAP3 POP SWAP3 POP SWAP3 JUMP JUMPDEST PUSH32 0x4E487B7100000000000000000000000000000000000000000000000000000000 PUSH1 0x0 MSTORE PUSH1 0x32 PUSH1 0x4 MSTORE PUSH1 0x24 PUSH1 0x0 REVERT JUMPDEST PUSH32 0x4E487B7100000000000000000000000000000000000000000000000000000000 PUSH1 0x0 MSTORE PUSH1 0x22 PUSH1 0x4 MSTORE PUSH1 0x24 PUSH1 0x0 REVERT JUMPDEST PUSH1 0x0 PUSH1 0x2 DUP3 DIV SWAP1 POP PUSH1 0x1 DUP3 AND DUP1 PUSH2 0x57E6 JUMPI PUSH1 0x7F DUP3 AND SWAP2 POP JUMPDEST PUSH1 0x20 DUP3 LT DUP2 SUB PUSH2 0x57F9 JUMPI PUSH2 0x57F8 PUSH2 0x579F JUMP JUMPDEST JUMPDEST POP SWAP2 SWAP1 POP JUMP JUMPDEST PUSH1 0x0 DUP2 SLOAD SWAP1 POP PUSH2 0x580E DUP2 PUSH2 0x57CE JUMP JUMPDEST SWAP1 POP SWAP2 SWAP1 POP JUMP JUMPDEST PUSH1 0x0 DUP2 SWAP1 POP DUP2 PUSH1 0x0 MSTORE PUSH1 0x20 PUSH1 0x0 KECCAK256 SWAP1 POP SWAP2 SWAP1 POP JUMP JUMPDEST PUSH1 0x0 PUSH1 0x20 PUSH1 0x1F DUP4 ADD DIV SWAP1 POP SWAP2 SWAP1 POP JUMP JUMPDEST PUSH1 0x0 DUP3 DUP3 SHL SWAP1 POP SWAP3 SWAP2 POP POP JUMP JUMPDEST PUSH1 0x0 PUSH1 0x8 DUP4 MUL PUSH2 0x5877 PUSH32 0xFFFFFFFFFFFFFFFFFFFFFFFFFFFFFFFFFFFFFFFFFFFFFFFFFFFFFFFFFFFFFFFF DUP3 PUSH2 0x583A JUMP JUMPDEST PUSH2 0x5881 DUP7 DUP4 PUSH2 0x583A JUMP JUMPDEST SWAP6 POP DUP1 NOT DUP5 AND SWAP4 POP DUP1 DUP7 AND DUP5 OR SWAP3 POP POP POP SWAP4 SWAP3 POP POP POP JUMP JUMPDEST PUSH1 0x0 DUP2 SWAP1 POP SWAP2 SWAP1 POP JUMP JUMPDEST PUSH1 0x0 PUSH2 0x58BE PUSH2 0x58B9 PUSH2 0x58B4 DUP5 PUSH2 0x4D76 JUMP JUMPDEST PUSH2 0x5899 JUMP JUMPDEST PUSH2 0x4D76 JUMP JUMPDEST SWAP1 POP SWAP2 SWAP1 POP JUMP JUMPDEST PUSH1 0x0 DUP2 SWAP1 POP SWAP2 SWAP1 POP JUMP JUMPDEST PUSH2 0x58D8 DUP4 PUSH2 0x58A3 JUMP JUMPDEST PUSH2 0x58EC PUSH2 0x58E4 DUP3 PUSH2 0x58C5 JUMP JUMPDEST DUP5 DUP5 SLOAD PUSH2 0x5847 JUMP JUMPDEST DUP3 SSTORE POP POP POP POP JUMP JUMPDEST PUSH1 0x0 SWAP1 JUMP JUMPDEST PUSH2 0x5901 PUSH2 0x58F4 JUMP JUMPDEST PUSH2 0x590C DUP2 DUP5 DUP5 PUSH2 0x58CF JUMP JUMPDEST POP POP POP JUMP JUMPDEST JUMPDEST DUP2 DUP2 LT ISZERO PUSH2 0x5930 JUMPI PUSH2 0x5925 PUSH1 0x0 DUP3 PUSH2 0x58F9 JUMP JUMPDEST PUSH1 0x1 DUP2 ADD SWAP1 POP PUSH2 0x5912 JUMP JUMPDEST POP POP JUMP JUMPDEST PUSH1 0x1F DUP3 GT ISZERO PUSH2 0x5975 JUMPI PUSH2 0x5946 DUP2 PUSH2 0x5815 JUMP JUMPDEST PUSH2 0x594F DUP5 PUSH2 0x582A JUMP JUMPDEST DUP2 ADD PUSH1 0x20 DUP6 LT ISZERO PUSH2 0x595E JUMPI DUP2 SWAP1 POP JUMPDEST PUSH2 0x5972 PUSH2 0x596A DUP6 PUSH2 0x582A JUMP JUMPDEST DUP4 ADD DUP3 PUSH2 0x5911 JUMP JUMPDEST POP POP JUMPDEST POP POP POP JUMP JUMPDEST PUSH1 0x0 DUP3 DUP3 SHR SWAP1 POP SWAP3 SWAP2 POP POP JUMP JUMPDEST PUSH1 0x0 PUSH2 0x5998 PUSH1 0x0 NOT DUP5 PUSH1 0x8 MUL PUSH2 0x597A JUMP JUMPDEST NOT DUP1 DUP4 AND SWAP2 POP POP SWAP3 SWAP2 POP POP JUMP JUMPDEST PUSH1 0x0 PUSH2 0x59B1 DUP4 DUP4 PUSH2 0x5987 JUMP JUMPDEST SWAP2 POP DUP3 PUSH1 0x2 MUL DUP3 OR SWAP1 POP SWAP3 SWAP2 POP POP JUMP JUMPDEST DUP2 DUP2 SUB PUSH2 0x59CF JUMPI POP POP PUSH2 0x5AA7 JUMP JUMPDEST PUSH2 0x59D8 DUP3 PUSH2 0x57FF JUMP JUMPDEST PUSH8 0xFFFFFFFFFFFFFFFF DUP2 GT ISZERO PUSH2 0x59F1 JUMPI PUSH2 0x59F0 PUSH2 0x4E19 JUMP JUMPDEST JUMPDEST PUSH2 0x59FB DUP3 SLOAD PUSH2 0x57CE JUMP JUMPDEST PUSH2 0x5A06 DUP3 DUP3 DUP6 PUSH2 0x5934 JUMP JUMPDEST PUSH1 0x0 PUSH1 0x1F DUP4 GT PUSH1 0x1 DUP2 EQ PUSH2 0x5A35 JUMPI PUSH1 0x0 DUP5 ISZERO PUSH2 0x5A23 JUMPI DUP3 DUP8 ADD SLOAD SWAP1 POP JUMPDEST PUSH2 0x5A2D DUP6 DUP3 PUSH2 0x59A5 JUMP JUMPDEST DUP7 SSTORE POP PUSH2 0x5AA0 JUMP JUMPDEST PUSH1 0x1F NOT DUP5 AND PUSH2 0x5A43 DUP8 PUSH2 0x5815 JUMP JUMPDEST SWAP7 POP PUSH2 0x5A4E DUP7 PUSH2 0x5815 JUMP JUMPDEST PUSH1 0x0 JUMPDEST DUP3 DUP2 LT ISZERO PUSH2 0x5A76 JUMPI DUP5 DUP10 ADD SLOAD DUP3 SSTORE PUSH1 0x1 DUP3 ADD SWAP2 POP PUSH1 0x1 DUP6 ADD SWAP5 POP PUSH1 0x20 DUP2 ADD SWAP1 POP PUSH2 0x5A51 JUMP JUMPDEST DUP7 DUP4 LT ISZERO PUSH2 0x5A93 JUMPI DUP5 DUP10 ADD SLOAD PUSH2 0x5A8F PUSH1 0x1F DUP10 AND DUP3 PUSH2 0x5987 JUMP JUMPDEST DUP4 SSTORE POP JUMPDEST PUSH1 0x1 PUSH1 0x2 DUP9 MUL ADD DUP9 SSTORE POP POP POP JUMPDEST POP POP POP POP POP POP JUMPDEST JUMP JUMPDEST PUSH32 0x4E487B7100000000000000000000000000000000000000000000000000000000 PUSH1 0x0 MSTORE PUSH1 0x11 PUSH1 0x4 MSTORE PUSH1 0x24 PUSH1 0x0 REVERT JUMPDEST PUSH1 0x0 PUSH2 0x5AE3 DUP3 PUSH2 0x4D76 JUMP JUMPDEST SWAP2 POP PUSH32 0xFFFFFFFFFFFFFFFFFFFFFFFFFFFFFFFFFFFFFFFFFFFFFFFFFFFFFFFFFFFFFFFF DUP3 SUB PUSH2 0x5B15 JUMPI PUSH2 0x5B14 PUSH2 0x5AA9 JUMP JUMPDEST JUMPDEST PUSH1 0x1 DUP3 ADD SWAP1 POP SWAP2 SWAP1 POP JUMP JUMPDEST PUSH1 0x0 PUSH2 0x5B2B DUP3 PUSH2 0x4D76 JUMP JUMPDEST SWAP2 POP PUSH1 0x0 DUP3 SUB PUSH2 0x5B3E JUMPI PUSH2 0x5B3D PUSH2 0x5AA9 JUMP JUMPDEST JUMPDEST PUSH1 0x1 DUP3 SUB SWAP1 POP SWAP2 SWAP1 POP JUMP JUMPDEST PUSH32 0x4F6E6C7920746865206D616E616765722063616E207472616E73666572204574 PUSH1 0x0 DUP3 ADD MSTORE PUSH32 0x6865722E00000000000000000000000000000000000000000000000000000000 PUSH1 0x20 DUP3 ADD MSTORE POP JUMP JUMPDEST PUSH1 0x0 PUSH2 0x5BA5 PUSH1 0x24 DUP4 PUSH2 0x53EC JUMP JUMPDEST SWAP2 POP PUSH2 0x5BB0 DUP3 PUSH2 0x5B49 JUMP JUMPDEST PUSH1 0x40 DUP3 ADD SWAP1 POP SWAP2 SWAP1 POP JUMP JUMPDEST PUSH1 0x0 PUSH1 0x20 DUP3 ADD SWAP1 POP DUP2 DUP2 SUB PUSH1 0x0 DUP4 ADD MSTORE PUSH2 0x5BD4 DUP2 PUSH2 0x5B98 JUMP JUMPDEST SWAP1 POP SWAP2 SWAP1 POP JUMP JUMPDEST PUSH2 0x5BE4 DUP2 PUSH2 0x565E JUMP JUMPDEST DUP3 MSTORE POP POP JUMP JUMPDEST PUSH1 0x0 PUSH1 0x20 DUP3 ADD SWAP1 POP PUSH2 0x5BFF PUSH1 0x0 DUP4 ADD DUP5 PUSH2 0x5BDB JUMP JUMPDEST SWAP3 SWAP2 POP POP JUMP JUMPDEST PUSH2 0x5C0E DUP3 PUSH2 0x53E1 JUMP JUMPDEST PUSH8 0xFFFFFFFFFFFFFFFF DUP2 GT ISZERO PUSH2 0x5C27 JUMPI PUSH2 0x5C26 PUSH2 0x4E19 JUMP JUMPDEST JUMPDEST PUSH2 0x5C31 DUP3 SLOAD PUSH2 0x57CE JUMP JUMPDEST PUSH2 0x5C3C DUP3 DUP3 DUP6 PUSH2 0x5934 JUMP JUMPDEST PUSH1 0x0 PUSH1 0x20 SWAP1 POP PUSH1 0x1F DUP4 GT PUSH1 0x1 DUP2 EQ PUSH2 0x5C6F JUMPI PUSH1 0x0 DUP5 ISZERO PUSH2 0x5C5D JUMPI DUP3 DUP8 ADD MLOAD SWAP1 POP JUMPDEST PUSH2 0x5C67 DUP6 DUP3 PUSH2 0x59A5 JUMP JUMPDEST DUP7 SSTORE POP PUSH2 0x5CCF JUMP JUMPDEST PUSH1 0x1F NOT DUP5 AND PUSH2 0x5C7D DUP7 PUSH2 0x5815 JUMP JUMPDEST PUSH1 0x0 JUMPDEST DUP3 DUP2 LT ISZERO PUSH2 0x5CA5 JUMPI DUP5 DUP10 ADD MLOAD DUP3 SSTORE PUSH1 0x1 DUP3 ADD SWAP2 POP PUSH1 0x20 DUP6 ADD SWAP5 POP PUSH1 0x20 DUP2 ADD SWAP1 POP PUSH2 0x5C80 JUMP JUMPDEST DUP7 DUP4 LT ISZERO PUSH2 0x5CC2 JUMPI DUP5 DUP10 ADD MLOAD PUSH2 0x5CBE PUSH1 0x1F DUP10 AND DUP3 PUSH2 0x5987 JUMP JUMPDEST DUP4 SSTORE POP JUMPDEST PUSH1 0x1 PUSH1 0x2 DUP9 MUL ADD DUP9 SSTORE POP POP POP JUMPDEST POP POP POP POP POP POP JUMP JUMPDEST PUSH1 0x0 DUP2 SWAP1 POP SWAP3 SWAP2 POP POP JUMP JUMPDEST PUSH1 0x0 PUSH2 0x5CED DUP3 PUSH2 0x53E1 JUMP JUMPDEST PUSH2 0x5CF7 DUP2 DUP6 PUSH2 0x5CD7 JUMP JUMPDEST SWAP4 POP PUSH2 0x5D07 DUP2 DUP6 PUSH1 0x20 DUP7 ADD PUSH2 0x53FD JUMP JUMPDEST DUP1 DUP5 ADD SWAP2 POP POP SWAP3 SWAP2 POP POP JUMP JUMPDEST PUSH1 0x0 PUSH2 0x5D1F DUP3 DUP5 PUSH2 0x5CE2 JUMP JUMPDEST SWAP2 POP DUP2 SWAP1 POP SWAP3 SWAP2 POP POP JUMP JUMPDEST PUSH1 0x0 PUSH2 0x5D35 DUP3 PUSH2 0x4D76 JUMP JUMPDEST SWAP2 POP PUSH2 0x5D40 DUP4 PUSH2 0x4D76 JUMP JUMPDEST SWAP3 POP DUP3 DUP3 ADD SWAP1 POP DUP1 DUP3 GT ISZERO PUSH2 0x5D58 JUMPI PUSH2 0x5D57 PUSH2 0x5AA9 JUMP JUMPDEST JUMPDEST SWAP3 SWAP2 POP POP JUMP JUMPDEST PUSH32 0x4F6E6C7920746865206D616E616765722063616E207570677261646520746865 PUSH1 0x0 DUP3 ADD MSTORE PUSH32 0x20696D706C656D656E746174696F6E2E00000000000000000000000000000000 PUSH1 0x20 DUP3 ADD MSTORE POP JUMP JUMPDEST PUSH1 0x0 PUSH2 0x5DBA PUSH1 0x30 DUP4 PUSH2 0x53EC JUMP JUMPDEST SWAP2 POP PUSH2 0x5DC5 DUP3 PUSH2 0x5D5E JUMP JUMPDEST PUSH1 0x40 DUP3 ADD SWAP1 POP SWAP2 SWAP1 POP JUMP JUMPDEST PUSH1 0x0 PUSH1 0x20 DUP3 ADD SWAP1 POP DUP2 DUP2 SUB PUSH1 0x0 DUP4 ADD MSTORE PUSH2 0x5DE9 DUP2 PUSH2 0x5DAD JUMP JUMPDEST SWAP1 POP SWAP2 SWAP1 POP JUMP INVALID LOG2 PUSH5 0x6970667358 0x22 SLT KECCAK256 DUP1 CREATE2 0x2A PUSH3 0x5726CB BLOCKHASH 0xF6 SWAP2 0xC2 CALLVALUE SLOAD DUP6 0xD DIV SWAP4 0xB4 PREVRANDAO 0x4B SWAP16 0xB7 PUSH10 0x7CF69F9390A726965A64 PUSH20 0x6F6C634300081200330000000000000000000000 "},"gasEstimates":{"creation":{"codeDepositCost":"4820400","executionCost":"infinite","totalCost":"infinite"},"external":{"":"infinite","allProjects(uint256)":"infinite","allUsers(uint256)":"infinite","answerJoinRequest(address,uint256,uint256,bool)":"infinite","answerRecruitRequest(address,uint256,uint256,bool)":"infinite","codenameTaken(string)":"infinite","createProject(address,string,string,string)":"infinite","createUser(address,string,string,string)":"infinite","featuredProfiles(uint256)":"infinite","featuredProjects(uint256)":"infinite","fieldCount(string)":"infinite","getProjectByName(string)":"infinite","getUserByCodename(string)":"infinite","manager()":"2578","modifyFeaturedProfiles(address[])":"infinite","modifyFeaturedProjects(uint256[])":"infinite","modifyUser(string,string,string)":"infinite","profCount(string)":"infinite","projectJoinRequest(address,uint256)":"infinite","projectMembers(uint256,uint256)":"infinite","projectMembersLength(uint256)":"infinite","projectNameTaken(string)":"infinite","projectPendingRequests(uint256,uint256)":"infinite","projectsCount()":"2518","recruitJoinRequest(address,uint256)":"infinite","recruitPendingRequests(address,uint256)":"infinite","removeUserFromProject(uint256,address,uint256,uint256)":"infinite","subscribeToNotifications(string)":"infinite","transferEther(address)":"infinite","transferEtherToImplementation()":"infinite","upgradeImplementation(address)":"27001","users(address)":"infinite","usersCount()":"2519","usersProjects(address,uint256)":"infinite","usersProjectsLength(address)":"2926","walletRegistered(address)":"2956"}},"methodIdentifiers":{"allProjects(uint256)":"53b3194c","allUsers(uint256)":"a2bdedf4","answerJoinRequest(address,uint256,uint256,bool)":"3a4017b4","answerRecruitRequest(address,uint256,uint256,bool)":"f5ab5dde","codenameTaken(string)":"2f3f680c","createProject(address,string,string,string)":"30314fee","createUser(address,string,string,string)":"c610d2ce","featuredProfiles(uint256)":"d6f775c0","featuredProjects(uint256)":"c6242a8f","fieldCount(string)":"9039b99e","getProjectByName(string)":"4b77f269","getUserByCodename(string)":"f778d27b","manager()":"481c6a75","modifyFeaturedProfiles(address[])":"01f2b011","modifyFeaturedProjects(uint256[])":"1453d9f2","modifyUser(string,string,string)":"d05857e0","profCount(string)":"1b0004d9","projectJoinRequest(address,uint256)":"4fc0f8ba","projectMembers(uint256,uint256)":"37d3f4fa","projectMembersLength(uint256)":"003bd288","projectNameTaken(string)":"e365a29f","projectPendingRequests(uint256,uint256)":"448cd56e","projectsCount()":"c73b302e","recruitJoinRequest(address,uint256)":"56c720c3","recruitPendingRequests(address,uint256)":"feef5e91","removeUserFromProject(uint256,address,uint256,uint256)":"04c2eaab","subscribeToNotifications(string)":"19266c51","transferEther(address)":"6b55e991","transferEtherToImplementation()":"13c050ca","upgradeImplementation(address)":"83f94db7","users(address)":"a87430ba","usersCount()":"6ba13a82","usersProjects(address,uint256)":"c723bf86","usersProjectsLength(address)":"1ec7d4ad","walletRegistered(address)":"ac2c9c0f"}},"storageLayout":{"storage":[{"astId":870,"contract":"UsersProxy.sol:UsersProxy","label":"manager","offset":0,"slot":"0","type":"t_address"},{"astId":904,"contract":"UsersProxy.sol:UsersProxy","label":"allUsers","offset":0,"slot":"1","type":"t_array(t_struct(User)887_storage)dyn_storage"},{"astId":908,"contract":"UsersProxy.sol:UsersProxy","label":"allProjects","offset":0,"slot":"2","type":"t_array(t_struct(Project)900_storage)dyn_storage"},{"astId":912,"contract":"UsersProxy.sol:UsersProxy","label":"featuredProfiles","offset":0,"slot":"3","type":"t_array(t_struct(User)887_storage)dyn_storage"},{"astId":916,"contract":"UsersProxy.sol:UsersProxy","label":"featuredProjects","offset":0,"slot":"4","type":"t_array(t_struct(Project)900_storage)dyn_storage"},{"astId":921,"contract":"UsersProxy.sol:UsersProxy","label":"users","offset":0,"slot":"5","type":"t_mapping(t_address,t_struct(User)887_storage)"},{"astId":927,"contract":"UsersProxy.sol:UsersProxy","label":"usersProjects","offset":0,"slot":"6","type":"t_mapping(t_address,t_array(t_struct(Project)900_storage)dyn_storage)"},{"astId":932,"contract":"UsersProxy.sol:UsersProxy","label":"getProjectByName","offset":0,"slot":"7","type":"t_mapping(t_string_memory_ptr,t_struct(Project)900_storage)"},{"astId":938,"contract":"UsersProxy.sol:UsersProxy","label":"projectMembers","offset":0,"slot":"8","type":"t_mapping(t_uint256,t_array(t_struct(User)887_storage)dyn_storage)"},{"astId":944,"contract":"UsersProxy.sol:UsersProxy","label":"projectPendingRequests","offset":0,"slot":"9","type":"t_mapping(t_uint256,t_array(t_struct(User)887_storage)dyn_storage)"},{"astId":950,"contract":"UsersProxy.sol:UsersProxy","label":"recruitPendingRequests","offset":0,"slot":"10","type":"t_mapping(t_address,t_array(t_struct(Project)900_storage)dyn_storage)"},{"astId":955,"contract":"UsersProxy.sol:UsersProxy","label":"getUserByCodename","offset":0,"slot":"11","type":"t_mapping(t_string_memory_ptr,t_struct(User)887_storage)"},{"astId":959,"contract":"UsersProxy.sol:UsersProxy","label":"profCount","offset":0,"slot":"12","type":"t_mapping(t_string_memory_ptr,t_uint256)"},{"astId":963,"contract":"UsersProxy.sol:UsersProxy","label":"fieldCount","offset":0,"slot":"13","type":"t_mapping(t_string_memory_ptr,t_uint256)"},{"astId":967,"contract":"UsersProxy.sol:UsersProxy","label":"walletRegistered","offset":0,"slot":"14","type":"t_mapping(t_address,t_bool)"},{"astId":971,"contract":"UsersProxy.sol:UsersProxy","label":"codenameTaken","offset":0,"slot":"15","type":"t_mapping(t_string_memory_ptr,t_bool)"},{"astId":975,"contract":"UsersProxy.sol:UsersProxy","label":"projectNameTaken","offset":0,"slot":"16","type":"t_mapping(t_string_memory_ptr,t_bool)"},{"astId":979,"contract":"UsersProxy.sol:UsersProxy","label":"usersProjectsLength","offset":0,"slot":"17","type":"t_mapping(t_address,t_uint256)"},{"astId":983,"contract":"UsersProxy.sol:UsersProxy","label":"projectMembersLength","offset":0,"slot":"18","type":"t_mapping(t_uint256,t_uint256)"},{"astId":985,"contract":"UsersProxy.sol:UsersProxy","label":"usersCount","offset":0,"slot":"19","type":"t_uint256"},{"astId":987,"contract":"UsersProxy.sol:UsersProxy","label":"projectsCount","offset":0,"slot":"20","type":"t_uint256"},{"astId":9,"contract":"UsersProxy.sol:UsersProxy","label":"implementation","offset":0,"slot":"21","type":"t_address"}],"types":{"t_address":{"encoding":"inplace","label":"address","numberOfBytes":"20"},"t_array(t_struct(Project)900_storage)dyn_storage":{"base":"t_struct(Project)900_storage","encoding":"dynamic_array","label":"struct UsersStorage.Project[]","numberOfBytes":"32"},"t_array(t_struct(User)887_storage)dyn_storage":{"base":"t_struct(User)887_storage","encoding":"dynamic_array","label":"struct UsersStorage.User[]","numberOfBytes":"32"},"t_bool":{"encoding":"inplace","label":"bool","numberOfBytes":"1"},"t_mapping(t_address,t_array(t_struct(Project)900_storage)dyn_storage)":{"encoding":"mapping","key":"t_address","label":"mapping(address => struct UsersStorage.Project[])","numberOfBytes":"32","value":"t_array(t_struct(Project)900_storage)dyn_storage"},"t_mapping(t_address,t_bool)":{"encoding":"mapping","key":"t_address","label":"mapping(address => bool)","numberOfBytes":"32","value":"t_bool"},"t_mapping(t_address,t_struct(User)887_storage)":{"encoding":"mapping","key":"t_address","label":"mapping(address => struct UsersStorage.User)","numberOfBytes":"32","value":"t_struct(User)887_storage"},"t_mapping(t_address,t_uint256)":{"encoding":"mapping","key":"t_address","label":"mapping(address => uint256)","numberOfBytes":"32","value":"t_uint256"},"t_mapping(t_string_memory_ptr,t_bool)":{"encoding":"mapping","key":"t_string_memory_ptr","label":"mapping(string => bool)","numberOfBytes":"32","value":"t_bool"},"t_mapping(t_string_memory_ptr,t_struct(Project)900_storage)":{"encoding":"mapping","key":"t_string_memory_ptr","label":"mapping(string => struct UsersStorage.Project)","numberOfBytes":"32","value":"t_struct(Project)900_storage"},"t_mapping(t_string_memory_ptr,t_struct(User)887_storage)":{"encoding":"mapping","key":"t_string_memory_ptr","label":"mapping(string => struct UsersStorage.User)","numberOfBytes":"32","value":"t_struct(User)887_storage"},"t_mapping(t_string_memory_ptr,t_uint256)":{"encoding":"mapping","key":"t_string_memory_ptr","label":"mapping(string => uint256)","numberOfBytes":"32","value":"t_uint256"},"t_mapping(t_uint256,t_array(t_struct(User)887_storage)dyn_storage)":{"encoding":"mapping","key":"t_uint256","label":"mapping(uint256 => struct UsersStorage.User[])","numberOfBytes":"32","value":"t_array(t_struct(User)887_storage)dyn_storage"},"t_mapping(t_uint256,t_uint256)":{"encoding":"mapping","key":"t_uint256","label":"mapping(uint256 => uint256)","numberOfBytes":"32","value":"t_uint256"},"t_string_memory_ptr":{"encoding":"bytes","label":"string","numberOfBytes":"32"},"t_string_storage":{"encoding":"bytes","label":"string","numberOfBytes":"32"},"t_struct(Project)900_storage":{"encoding":"inplace","label":"struct UsersStorage.Project","members":[{"astId":889,"contract":"UsersProxy.sol:UsersProxy","label":"id","offset":0,"slot":"0","type":"t_uint256"},{"astId":891,"contract":"UsersProxy.sol:UsersProxy","label":"name","offset":0,"slot":"1","type":"t_string_storage"},{"astId":893,"contract":"UsersProxy.sol:UsersProxy","label":"field","offset":0,"slot":"2","type":"t_string_storage"},{"astId":895,"contract":"UsersProxy.sol:UsersProxy","label":"mission","offset":0,"slot":"3","type":"t_string_storage"},{"astId":897,"contract":"UsersProxy.sol:UsersProxy","label":"membersCount","offset":0,"slot":"4","type":"t_uint256"},{"astId":899,"contract":"UsersProxy.sol:UsersProxy","label":"pendingRequests","offset":0,"slot":"5","type":"t_uint256"}],"numberOfBytes":"192"},"t_struct(User)887_storage":{"encoding":"inplace","label":"struct UsersStorage.User","members":[{"astId":872,"contract":"UsersProxy.sol:UsersProxy","label":"id","offset":0,"slot":"0","type":"t_uint256"},{"astId":874,"contract":"UsersProxy.sol:UsersProxy","label":"userAddress","offset":0,"slot":"1","type":"t_address"},{"astId":876,"contract":"UsersProxy.sol:UsersProxy","label":"codename","offset":0,"slot":"2","type":"t_string_storage"},{"astId":878,"contract":"UsersProxy.sol:UsersProxy","label":"profession","offset":0,"slot":"3","type":"t_string_storage"},{"astId":880,"contract":"UsersProxy.sol:UsersProxy","label":"description","offset":0,"slot":"4","type":"t_string_storage"},{"astId":882,"contract":"UsersProxy.sol:UsersProxy","label":"projectsInvolved","offset":0,"slot":"5","type":"t_uint256"},{"astId":884,"contract":"UsersProxy.sol:UsersProxy","label":"pendingRequestsCount","offset":0,"slot":"6","type":"t_uint256"},{"astId":886,"contract":"UsersProxy.sol:UsersProxy","label":"mongoNotificationsId","offset":0,"slot":"7","type":"t_string_storage"}],"numberOfBytes":"256"},"t_uint256":{"encoding":"inplace","label":"uint256","numberOfBytes":"32"}}},"userdoc":{"kind":"user","methods":{},"version":1}}