{"abi":[{"inputs":[],"stateMutability":"nonpayable","type":"constructor"},{"inputs":[],"name":"enter","outputs":[],"stateMutability":"payable","type":"function"},{"inputs":[],"name":"getPlayers","outputs":[{"internalType":"address payable[]","name":"","type":"address[]"}],"stateMutability":"view","type":"function"},{"inputs":[],"name":"manager","outputs":[{"internalType":"address","name":"","type":"address"}],"stateMutability":"view","type":"function"},{"inputs":[],"name":"participants","outputs":[{"internalType":"uint256","name":"","type":"uint256"}],"stateMutability":"view","type":"function"},{"inputs":[],"name":"pickWinner","outputs":[],"stateMutability":"nonpayable","type":"function"},{"inputs":[{"internalType":"uint256","name":"","type":"uint256"}],"name":"players","outputs":[{"internalType":"address payable","name":"","type":"address"}],"stateMutability":"view","type":"function"},{"inputs":[],"name":"winner","outputs":[{"internalType":"address","name":"","type":"address"}],"stateMutability":"view","type":"function"}],"devdoc":{"kind":"dev","methods":{},"version":1},"evm":{"assembly":"    /* \"Lottery.sol\":58:990  contract Lottery {... */\n  mstore(0x40, 0x80)\n    /* \"Lottery.sol\":205:256  constructor() {... */\n  callvalue\n  dup1\n  iszero\n  tag_1\n  jumpi\n  0x00\n  dup1\n  revert\ntag_1:\n  pop\n    /* \"Lottery.sol\":239:249  msg.sender */\n  caller\n    /* \"Lottery.sol\":229:236  manager */\n  0x00\n  dup1\n    /* \"Lottery.sol\":229:249  manager = msg.sender */\n  0x0100\n  exp\n  dup2\n  sload\n  dup2\n  0xffffffffffffffffffffffffffffffffffffffff\n  mul\n  not\n  and\n  swap1\n  dup4\n  0xffffffffffffffffffffffffffffffffffffffff\n  and\n  mul\n  or\n  swap1\n  sstore\n  pop\n    /* \"Lottery.sol\":58:990  contract Lottery {... */\n  dataSize(sub_0)\n  dup1\n  dataOffset(sub_0)\n  0x00\n  codecopy\n  0x00\n  return\nstop\n\nsub_0: assembly {\n        /* \"Lottery.sol\":58:990  contract Lottery {... */\n      mstore(0x40, 0x80)\n      jumpi(tag_1, lt(calldatasize, 0x04))\n      shr(0xe0, calldataload(0x00))\n      dup1\n      0x8b5b9ccc\n      gt\n      tag_9\n      jumpi\n      dup1\n      0x8b5b9ccc\n      eq\n      tag_5\n      jumpi\n      dup1\n      0xdfbf53ae\n      eq\n      tag_6\n      jumpi\n      dup1\n      0xe97dcb62\n      eq\n      tag_7\n      jumpi\n      dup1\n      0xf71d96cb\n      eq\n      tag_8\n      jumpi\n      jump(tag_1)\n    tag_9:\n      dup1\n      0x481c6a75\n      eq\n      tag_2\n      jumpi\n      dup1\n      0x5d495aea\n      eq\n      tag_3\n      jumpi\n      dup1\n      0x6c4470fb\n      eq\n      tag_4\n      jumpi\n    tag_1:\n      0x00\n      dup1\n      revert\n        /* \"Lottery.sol\":81:103  address public manager */\n    tag_2:\n      callvalue\n      dup1\n      iszero\n      tag_10\n      jumpi\n      0x00\n      dup1\n      revert\n    tag_10:\n      pop\n      tag_11\n      tag_12\n      jump\t// in\n    tag_11:\n      mload(0x40)\n      tag_13\n      swap2\n      swap1\n      tag_14\n      jump\t// in\n    tag_13:\n      mload(0x40)\n      dup1\n      swap2\n      sub\n      swap1\n      return\n        /* \"Lottery.sol\":568:796  function pickWinner() public restricted {... */\n    tag_3:\n      callvalue\n      dup1\n      iszero\n      tag_15\n      jumpi\n      0x00\n      dup1\n      revert\n    tag_15:\n      pop\n      tag_16\n      tag_17\n      jump\t// in\n    tag_16:\n      stop\n        /* \"Lottery.sol\":174:198  uint public participants */\n    tag_4:\n      callvalue\n      dup1\n      iszero\n      tag_18\n      jumpi\n      0x00\n      dup1\n      revert\n    tag_18:\n      pop\n      tag_19\n      tag_20\n      jump\t// in\n    tag_19:\n      mload(0x40)\n      tag_21\n      swap2\n      swap1\n      tag_22\n      jump\t// in\n    tag_21:\n      mload(0x40)\n      dup1\n      swap2\n      sub\n      swap1\n      return\n        /* \"Lottery.sol\":888:988  function getPlayers() public view returns (address payable[] memory) {... */\n    tag_5:\n      callvalue\n      dup1\n      iszero\n      tag_23\n      jumpi\n      0x00\n      dup1\n      revert\n    tag_23:\n      pop\n      tag_24\n      tag_25\n      jump\t// in\n    tag_24:\n      mload(0x40)\n      tag_26\n      swap2\n      swap1\n      tag_27\n      jump\t// in\n    tag_26:\n      mload(0x40)\n      dup1\n      swap2\n      sub\n      swap1\n      return\n        /* \"Lottery.sol\":147:168  address public winner */\n    tag_6:\n      callvalue\n      dup1\n      iszero\n      tag_28\n      jumpi\n      0x00\n      dup1\n      revert\n    tag_28:\n      pop\n      tag_29\n      tag_30\n      jump\t// in\n    tag_29:\n      mload(0x40)\n      tag_31\n      swap2\n      swap1\n      tag_14\n      jump\t// in\n    tag_31:\n      mload(0x40)\n      dup1\n      swap2\n      sub\n      swap1\n      return\n        /* \"Lottery.sol\":262:409  function enter() public payable {... */\n    tag_7:\n      tag_32\n      tag_33\n      jump\t// in\n    tag_32:\n      stop\n        /* \"Lottery.sol\":109:141  address payable[] public players */\n    tag_8:\n      callvalue\n      dup1\n      iszero\n      tag_34\n      jumpi\n      0x00\n      dup1\n      revert\n    tag_34:\n      pop\n      tag_35\n      0x04\n      dup1\n      calldatasize\n      sub\n      dup2\n      add\n      swap1\n      tag_36\n      swap2\n      swap1\n      tag_37\n      jump\t// in\n    tag_36:\n      tag_38\n      jump\t// in\n    tag_35:\n      mload(0x40)\n      tag_39\n      swap2\n      swap1\n      tag_40\n      jump\t// in\n    tag_39:\n      mload(0x40)\n      dup1\n      swap2\n      sub\n      swap1\n      return\n        /* \"Lottery.sol\":81:103  address public manager */\n    tag_12:\n      0x00\n      dup1\n      sload\n      swap1\n      0x0100\n      exp\n      swap1\n      div\n      0xffffffffffffffffffffffffffffffffffffffff\n      and\n      dup2\n      jump\t// out\n        /* \"Lottery.sol\":568:796  function pickWinner() public restricted {... */\n    tag_17:\n        /* \"Lottery.sol\":856:863  manager */\n      0x00\n      dup1\n      sload\n      swap1\n      0x0100\n      exp\n      swap1\n      div\n      0xffffffffffffffffffffffffffffffffffffffff\n      and\n        /* \"Lottery.sol\":842:863  msg.sender == manager */\n      0xffffffffffffffffffffffffffffffffffffffff\n      and\n        /* \"Lottery.sol\":842:852  msg.sender */\n      caller\n        /* \"Lottery.sol\":842:863  msg.sender == manager */\n      0xffffffffffffffffffffffffffffffffffffffff\n      and\n      eq\n        /* \"Lottery.sol\":834:864  require(msg.sender == manager) */\n      tag_42\n      jumpi\n      0x00\n      dup1\n      revert\n    tag_42:\n        /* \"Lottery.sol\":618:628  uint index */\n      0x00\n        /* \"Lottery.sol\":642:649  players */\n      0x01\n        /* \"Lottery.sol\":642:656  players.length */\n      dup1\n      sload\n      swap1\n      pop\n        /* \"Lottery.sol\":631:639  random() */\n      tag_44\n        /* \"Lottery.sol\":631:637  random */\n      tag_45\n        /* \"Lottery.sol\":631:639  random() */\n      jump\t// in\n    tag_44:\n        /* \"Lottery.sol\":631:656  random() % players.length */\n      tag_46\n      swap2\n      swap1\n      tag_47\n      jump\t// in\n    tag_46:\n        /* \"Lottery.sol\":618:656  uint index = random() % players.length */\n      swap1\n      pop\n        /* \"Lottery.sol\":675:682  players */\n      0x01\n        /* \"Lottery.sol\":683:688  index */\n      dup2\n        /* \"Lottery.sol\":675:689  players[index] */\n      dup2\n      sload\n      dup2\n      lt\n      tag_48\n      jumpi\n      tag_49\n      tag_50\n      jump\t// in\n    tag_49:\n    tag_48:\n      swap1\n      0x00\n      mstore\n      keccak256(0x00, 0x20)\n      add\n      0x00\n      swap1\n      sload\n      swap1\n      0x0100\n      exp\n      swap1\n      div\n      0xffffffffffffffffffffffffffffffffffffffff\n      and\n        /* \"Lottery.sol\":666:672  winner */\n      0x02\n      0x00\n        /* \"Lottery.sol\":666:689  winner = players[index] */\n      0x0100\n      exp\n      dup2\n      sload\n      dup2\n      0xffffffffffffffffffffffffffffffffffffffff\n      mul\n      not\n      and\n      swap1\n      dup4\n      0xffffffffffffffffffffffffffffffffffffffff\n      and\n      mul\n      or\n      swap1\n      sstore\n      pop\n        /* \"Lottery.sol\":699:706  players */\n      0x01\n        /* \"Lottery.sol\":707:712  index */\n      dup2\n        /* \"Lottery.sol\":699:713  players[index] */\n      dup2\n      sload\n      dup2\n      lt\n      tag_52\n      jumpi\n      tag_53\n      tag_50\n      jump\t// in\n    tag_53:\n    tag_52:\n      swap1\n      0x00\n      mstore\n      keccak256(0x00, 0x20)\n      add\n      0x00\n      swap1\n      sload\n      swap1\n      0x0100\n      exp\n      swap1\n      div\n      0xffffffffffffffffffffffffffffffffffffffff\n      and\n        /* \"Lottery.sol\":699:722  players[index].transfer */\n      0xffffffffffffffffffffffffffffffffffffffff\n      and\n        /* \"Lottery.sol\":699:745  players[index].transfer(address(this).balance) */\n      0x08fc\n        /* \"Lottery.sol\":723:744  address(this).balance */\n      selfbalance\n        /* \"Lottery.sol\":699:745  players[index].transfer(address(this).balance) */\n      swap1\n      dup2\n      iszero\n      mul\n      swap1\n      mload(0x40)\n      0x00\n      mload(0x40)\n      dup1\n      dup4\n      sub\n      dup2\n      dup6\n      dup9\n      dup9\n      call\n      swap4\n      pop\n      pop\n      pop\n      pop\n      iszero\n      dup1\n      iszero\n      tag_56\n      jumpi\n      returndatasize\n      0x00\n      dup1\n      returndatacopy\n      revert(0x00, returndatasize)\n    tag_56:\n      pop\n        /* \"Lottery.sol\":787:788  0 */\n      0x00\n        /* \"Lottery.sol\":765:789  new address payable[](0) */\n      0xffffffffffffffff\n      dup2\n      gt\n      iszero\n      tag_57\n      jumpi\n      tag_58\n      tag_59\n      jump\t// in\n    tag_58:\n    tag_57:\n      mload(0x40)\n      swap1\n      dup1\n      dup3\n      mstore\n      dup1\n      0x20\n      mul\n      0x20\n      add\n      dup3\n      add\n      0x40\n      mstore\n      dup1\n      iszero\n      tag_60\n      jumpi\n      dup2\n      0x20\n      add\n      0x20\n      dup3\n      mul\n      dup1\n      calldatasize\n      dup4\n      calldatacopy\n      dup1\n      dup3\n      add\n      swap2\n      pop\n      pop\n      swap1\n      pop\n    tag_60:\n      pop\n        /* \"Lottery.sol\":755:762  players */\n      0x01\n        /* \"Lottery.sol\":755:789  players = new address payable[](0) */\n      swap1\n      dup1\n      mload\n      swap1\n      0x20\n      add\n      swap1\n      tag_61\n      swap3\n      swap2\n      swap1\n      tag_62\n      jump\t// in\n    tag_61:\n      pop\n        /* \"Lottery.sol\":608:796  {... */\n      pop\n        /* \"Lottery.sol\":568:796  function pickWinner() public restricted {... */\n      jump\t// out\n        /* \"Lottery.sol\":174:198  uint public participants */\n    tag_20:\n      sload(0x03)\n      dup2\n      jump\t// out\n        /* \"Lottery.sol\":888:988  function getPlayers() public view returns (address payable[] memory) {... */\n    tag_25:\n        /* \"Lottery.sol\":931:955  address payable[] memory */\n      0x60\n        /* \"Lottery.sol\":974:981  players */\n      0x01\n        /* \"Lottery.sol\":967:981  return players */\n      dup1\n      sload\n      dup1\n      0x20\n      mul\n      0x20\n      add\n      mload(0x40)\n      swap1\n      dup2\n      add\n      0x40\n      mstore\n      dup1\n      swap3\n      swap2\n      swap1\n      dup2\n      dup2\n      mstore\n      0x20\n      add\n      dup3\n      dup1\n      sload\n      dup1\n      iszero\n      tag_64\n      jumpi\n      0x20\n      mul\n      dup3\n      add\n      swap2\n      swap1\n      0x00\n      mstore\n      keccak256(0x00, 0x20)\n      swap1\n    tag_65:\n      dup2\n      0x00\n      swap1\n      sload\n      swap1\n      0x0100\n      exp\n      swap1\n      div\n      0xffffffffffffffffffffffffffffffffffffffff\n      and\n      0xffffffffffffffffffffffffffffffffffffffff\n      and\n      dup2\n      mstore\n      0x20\n      add\n      swap1\n      0x01\n      add\n      swap1\n      dup1\n      dup4\n      gt\n      tag_65\n      jumpi\n    tag_64:\n      pop\n      pop\n      pop\n      pop\n      pop\n      swap1\n      pop\n        /* \"Lottery.sol\":888:988  function getPlayers() public view returns (address payable[] memory) {... */\n      swap1\n      jump\t// out\n        /* \"Lottery.sol\":147:168  address public winner */\n    tag_30:\n      0x02\n      0x00\n      swap1\n      sload\n      swap1\n      0x0100\n      exp\n      swap1\n      div\n      0xffffffffffffffffffffffffffffffffffffffff\n      and\n      dup2\n      jump\t// out\n        /* \"Lottery.sol\":262:409  function enter() public payable {... */\n    tag_33:\n        /* \"Lottery.sol\":324:334  0.01 ether */\n      0x2386f26fc10000\n        /* \"Lottery.sol\":312:321  msg.value */\n      callvalue\n        /* \"Lottery.sol\":312:334  msg.value > 0.01 ether */\n      gt\n        /* \"Lottery.sol\":304:335  require(msg.value > 0.01 ether) */\n      tag_67\n      jumpi\n      0x00\n      dup1\n      revert\n    tag_67:\n        /* \"Lottery.sol\":345:352  players */\n      0x01\n        /* \"Lottery.sol\":366:376  msg.sender */\n      caller\n        /* \"Lottery.sol\":345:378  players.push(payable(msg.sender)) */\n      swap1\n      dup1\n      0x01\n      dup2\n      sload\n      add\n      dup1\n      dup3\n      sstore\n      dup1\n      swap2\n      pop\n      pop\n      0x01\n      swap1\n      sub\n      swap1\n      0x00\n      mstore\n      keccak256(0x00, 0x20)\n      add\n      0x00\n      swap1\n      swap2\n      swap1\n      swap2\n      swap1\n      swap2\n      0x0100\n      exp\n      dup2\n      sload\n      dup2\n      0xffffffffffffffffffffffffffffffffffffffff\n      mul\n      not\n      and\n      swap1\n      dup4\n      0xffffffffffffffffffffffffffffffffffffffff\n      and\n      mul\n      or\n      swap1\n      sstore\n      pop\n        /* \"Lottery.sol\":388:400  participants */\n      0x03\n      0x00\n        /* \"Lottery.sol\":388:402  participants++ */\n      dup2\n      sload\n      dup1\n      swap3\n      swap2\n      swap1\n      tag_69\n      swap1\n      tag_70\n      jump\t// in\n    tag_69:\n      swap2\n      swap1\n      pop\n      sstore\n      pop\n        /* \"Lottery.sol\":262:409  function enter() public payable {... */\n      jump\t// out\n        /* \"Lottery.sol\":109:141  address payable[] public players */\n    tag_38:\n      0x01\n      dup2\n      dup2\n      sload\n      dup2\n      lt\n      tag_71\n      jumpi\n      0x00\n      dup1\n      revert\n    tag_71:\n      swap1\n      0x00\n      mstore\n      keccak256(0x00, 0x20)\n      add\n      0x00\n      swap2\n      pop\n      sload\n      swap1\n      0x0100\n      exp\n      swap1\n      div\n      0xffffffffffffffffffffffffffffffffffffffff\n      and\n      dup2\n      jump\t// out\n        /* \"Lottery.sol\":415:562  function random() private view returns (uint) {... */\n    tag_45:\n        /* \"Lottery.sol\":455:459  uint */\n      0x00\n        /* \"Lottery.sol\":510:526  block.difficulty */\n      difficulty\n        /* \"Lottery.sol\":528:543  block.timestamp */\n      timestamp\n        /* \"Lottery.sol\":545:552  players */\n      0x01\n        /* \"Lottery.sol\":493:553  abi.encodePacked(block.difficulty, block.timestamp, players) */\n      add(0x20, mload(0x40))\n      tag_74\n      swap4\n      swap3\n      swap2\n      swap1\n      tag_75\n      jump\t// in\n    tag_74:\n      mload(0x40)\n      0x20\n      dup2\n      dup4\n      sub\n      sub\n      dup2\n      mstore\n      swap1\n      0x40\n      mstore\n        /* \"Lottery.sol\":483:554  keccak256(abi.encodePacked(block.difficulty, block.timestamp, players)) */\n      dup1\n      mload\n      swap1\n      0x20\n      add\n      keccak256\n        /* \"Lottery.sol\":478:555  uint(keccak256(abi.encodePacked(block.difficulty, block.timestamp, players))) */\n      0x00\n      shr\n        /* \"Lottery.sol\":471:555  return uint(keccak256(abi.encodePacked(block.difficulty, block.timestamp, players))) */\n      swap1\n      pop\n        /* \"Lottery.sol\":415:562  function random() private view returns (uint) {... */\n      swap1\n      jump\t// out\n    tag_62:\n      dup3\n      dup1\n      sload\n      dup3\n      dup3\n      sstore\n      swap1\n      0x00\n      mstore\n      keccak256(0x00, 0x20)\n      swap1\n      dup2\n      add\n      swap3\n      dup3\n      iszero\n      tag_76\n      jumpi\n      swap2\n      0x20\n      mul\n      dup3\n      add\n    tag_77:\n      dup3\n      dup2\n      gt\n      iszero\n      tag_78\n      jumpi\n      dup3\n      mload\n      dup3\n      exp(0x0100, 0x00)\n      dup2\n      sload\n      dup2\n      0xffffffffffffffffffffffffffffffffffffffff\n      mul\n      not\n      and\n      swap1\n      dup4\n      0xffffffffffffffffffffffffffffffffffffffff\n      and\n      mul\n      or\n      swap1\n      sstore\n      pop\n      swap2\n      0x20\n      add\n      swap2\n      swap1\n      0x01\n      add\n      swap1\n      jump(tag_77)\n    tag_78:\n    tag_76:\n      pop\n      swap1\n      pop\n      tag_79\n      swap2\n      swap1\n      tag_80\n      jump\t// in\n    tag_79:\n      pop\n      swap1\n      jump\t// out\n    tag_80:\n    tag_81:\n      dup1\n      dup3\n      gt\n      iszero\n      tag_82\n      jumpi\n      0x00\n      dup2\n      0x00\n      swap1\n      sstore\n      pop\n      0x01\n      add\n      jump(tag_81)\n    tag_82:\n      pop\n      swap1\n      jump\t// out\n        /* \"#utility.yul\":7:133   */\n    tag_83:\n        /* \"#utility.yul\":44:51   */\n      0x00\n        /* \"#utility.yul\":84:126   */\n      0xffffffffffffffffffffffffffffffffffffffff\n        /* \"#utility.yul\":77:82   */\n      dup3\n        /* \"#utility.yul\":73:127   */\n      and\n        /* \"#utility.yul\":62:127   */\n      swap1\n      pop\n        /* \"#utility.yul\":7:133   */\n      swap2\n      swap1\n      pop\n      jump\t// out\n        /* \"#utility.yul\":139:235   */\n    tag_84:\n        /* \"#utility.yul\":176:183   */\n      0x00\n        /* \"#utility.yul\":205:229   */\n      tag_120\n        /* \"#utility.yul\":223:228   */\n      dup3\n        /* \"#utility.yul\":205:229   */\n      tag_83\n      jump\t// in\n    tag_120:\n        /* \"#utility.yul\":194:229   */\n      swap1\n      pop\n        /* \"#utility.yul\":139:235   */\n      swap2\n      swap1\n      pop\n      jump\t// out\n        /* \"#utility.yul\":241:359   */\n    tag_85:\n        /* \"#utility.yul\":328:352   */\n      tag_122\n        /* \"#utility.yul\":346:351   */\n      dup2\n        /* \"#utility.yul\":328:352   */\n      tag_84\n      jump\t// in\n    tag_122:\n        /* \"#utility.yul\":323:326   */\n      dup3\n        /* \"#utility.yul\":316:353   */\n      mstore\n        /* \"#utility.yul\":241:359   */\n      pop\n      pop\n      jump\t// out\n        /* \"#utility.yul\":365:587   */\n    tag_14:\n        /* \"#utility.yul\":458:462   */\n      0x00\n        /* \"#utility.yul\":496:498   */\n      0x20\n        /* \"#utility.yul\":485:494   */\n      dup3\n        /* \"#utility.yul\":481:499   */\n      add\n        /* \"#utility.yul\":473:499   */\n      swap1\n      pop\n        /* \"#utility.yul\":509:580   */\n      tag_124\n        /* \"#utility.yul\":577:578   */\n      0x00\n        /* \"#utility.yul\":566:575   */\n      dup4\n        /* \"#utility.yul\":562:579   */\n      add\n        /* \"#utility.yul\":553:559   */\n      dup5\n        /* \"#utility.yul\":509:580   */\n      tag_85\n      jump\t// in\n    tag_124:\n        /* \"#utility.yul\":365:587   */\n      swap3\n      swap2\n      pop\n      pop\n      jump\t// out\n        /* \"#utility.yul\":593:670   */\n    tag_86:\n        /* \"#utility.yul\":630:637   */\n      0x00\n        /* \"#utility.yul\":659:664   */\n      dup2\n        /* \"#utility.yul\":648:664   */\n      swap1\n      pop\n        /* \"#utility.yul\":593:670   */\n      swap2\n      swap1\n      pop\n      jump\t// out\n        /* \"#utility.yul\":676:794   */\n    tag_87:\n        /* \"#utility.yul\":763:787   */\n      tag_127\n        /* \"#utility.yul\":781:786   */\n      dup2\n        /* \"#utility.yul\":763:787   */\n      tag_86\n      jump\t// in\n    tag_127:\n        /* \"#utility.yul\":758:761   */\n      dup3\n        /* \"#utility.yul\":751:788   */\n      mstore\n        /* \"#utility.yul\":676:794   */\n      pop\n      pop\n      jump\t// out\n        /* \"#utility.yul\":800:1022   */\n    tag_22:\n        /* \"#utility.yul\":893:897   */\n      0x00\n        /* \"#utility.yul\":931:933   */\n      0x20\n        /* \"#utility.yul\":920:929   */\n      dup3\n        /* \"#utility.yul\":916:934   */\n      add\n        /* \"#utility.yul\":908:934   */\n      swap1\n      pop\n        /* \"#utility.yul\":944:1015   */\n      tag_129\n        /* \"#utility.yul\":1012:1013   */\n      0x00\n        /* \"#utility.yul\":1001:1010   */\n      dup4\n        /* \"#utility.yul\":997:1014   */\n      add\n        /* \"#utility.yul\":988:994   */\n      dup5\n        /* \"#utility.yul\":944:1015   */\n      tag_87\n      jump\t// in\n    tag_129:\n        /* \"#utility.yul\":800:1022   */\n      swap3\n      swap2\n      pop\n      pop\n      jump\t// out\n        /* \"#utility.yul\":1028:1150   */\n    tag_88:\n        /* \"#utility.yul\":1103:1109   */\n      0x00\n        /* \"#utility.yul\":1137:1142   */\n      dup2\n        /* \"#utility.yul\":1131:1143   */\n      mload\n        /* \"#utility.yul\":1121:1143   */\n      swap1\n      pop\n        /* \"#utility.yul\":1028:1150   */\n      swap2\n      swap1\n      pop\n      jump\t// out\n        /* \"#utility.yul\":1156:1348   */\n    tag_89:\n        /* \"#utility.yul\":1263:1274   */\n      0x00\n        /* \"#utility.yul\":1297:1303   */\n      dup3\n        /* \"#utility.yul\":1292:1295   */\n      dup3\n        /* \"#utility.yul\":1285:1304   */\n      mstore\n        /* \"#utility.yul\":1337:1341   */\n      0x20\n        /* \"#utility.yul\":1332:1335   */\n      dup3\n        /* \"#utility.yul\":1328:1342   */\n      add\n        /* \"#utility.yul\":1313:1342   */\n      swap1\n      pop\n        /* \"#utility.yul\":1156:1348   */\n      swap3\n      swap2\n      pop\n      pop\n      jump\t// out\n        /* \"#utility.yul\":1354:1494   */\n    tag_90:\n        /* \"#utility.yul\":1429:1433   */\n      0x00\n        /* \"#utility.yul\":1452:1455   */\n      dup2\n        /* \"#utility.yul\":1444:1455   */\n      swap1\n      pop\n        /* \"#utility.yul\":1482:1486   */\n      0x20\n        /* \"#utility.yul\":1477:1480   */\n      dup3\n        /* \"#utility.yul\":1473:1487   */\n      add\n        /* \"#utility.yul\":1465:1487   */\n      swap1\n      pop\n        /* \"#utility.yul\":1354:1494   */\n      swap2\n      swap1\n      pop\n      jump\t// out\n        /* \"#utility.yul\":1500:1604   */\n    tag_91:\n        /* \"#utility.yul\":1545:1552   */\n      0x00\n        /* \"#utility.yul\":1574:1598   */\n      tag_134\n        /* \"#utility.yul\":1592:1597   */\n      dup3\n        /* \"#utility.yul\":1574:1598   */\n      tag_83\n      jump\t// in\n    tag_134:\n        /* \"#utility.yul\":1563:1598   */\n      swap1\n      pop\n        /* \"#utility.yul\":1500:1604   */\n      swap2\n      swap1\n      pop\n      jump\t// out\n        /* \"#utility.yul\":1610:1742   */\n    tag_92:\n        /* \"#utility.yul\":1703:1735   */\n      tag_136\n        /* \"#utility.yul\":1729:1734   */\n      dup2\n        /* \"#utility.yul\":1703:1735   */\n      tag_91\n      jump\t// in\n    tag_136:\n        /* \"#utility.yul\":1698:1701   */\n      dup3\n        /* \"#utility.yul\":1691:1736   */\n      mstore\n        /* \"#utility.yul\":1610:1742   */\n      pop\n      pop\n      jump\t// out\n        /* \"#utility.yul\":1748:1959   */\n    tag_93:\n        /* \"#utility.yul\":1833:1843   */\n      0x00\n        /* \"#utility.yul\":1854:1916   */\n      tag_138\n        /* \"#utility.yul\":1912:1915   */\n      dup4\n        /* \"#utility.yul\":1904:1910   */\n      dup4\n        /* \"#utility.yul\":1854:1916   */\n      tag_92\n      jump\t// in\n    tag_138:\n        /* \"#utility.yul\":1948:1952   */\n      0x20\n        /* \"#utility.yul\":1943:1946   */\n      dup4\n        /* \"#utility.yul\":1939:1953   */\n      add\n        /* \"#utility.yul\":1925:1953   */\n      swap1\n      pop\n        /* \"#utility.yul\":1748:1959   */\n      swap3\n      swap2\n      pop\n      pop\n      jump\t// out\n        /* \"#utility.yul\":1965:2086   */\n    tag_94:\n        /* \"#utility.yul\":2043:2047   */\n      0x00\n        /* \"#utility.yul\":2075:2079   */\n      0x20\n        /* \"#utility.yul\":2070:2073   */\n      dup3\n        /* \"#utility.yul\":2066:2080   */\n      add\n        /* \"#utility.yul\":2058:2080   */\n      swap1\n      pop\n        /* \"#utility.yul\":1965:2086   */\n      swap2\n      swap1\n      pop\n      jump\t// out\n        /* \"#utility.yul\":2138:2934   */\n    tag_95:\n        /* \"#utility.yul\":2273:2276   */\n      0x00\n        /* \"#utility.yul\":2302:2364   */\n      tag_141\n        /* \"#utility.yul\":2358:2363   */\n      dup3\n        /* \"#utility.yul\":2302:2364   */\n      tag_88\n      jump\t// in\n    tag_141:\n        /* \"#utility.yul\":2380:2474   */\n      tag_142\n        /* \"#utility.yul\":2467:2473   */\n      dup2\n        /* \"#utility.yul\":2462:2465   */\n      dup6\n        /* \"#utility.yul\":2380:2474   */\n      tag_89\n      jump\t// in\n    tag_142:\n        /* \"#utility.yul\":2373:2474   */\n      swap4\n      pop\n        /* \"#utility.yul\":2498:2562   */\n      tag_143\n        /* \"#utility.yul\":2556:2561   */\n      dup4\n        /* \"#utility.yul\":2498:2562   */\n      tag_90\n      jump\t// in\n    tag_143:\n        /* \"#utility.yul\":2585:2592   */\n      dup1\n        /* \"#utility.yul\":2616:2617   */\n      0x00\n        /* \"#utility.yul\":2601:2909   */\n    tag_144:\n        /* \"#utility.yul\":2626:2632   */\n      dup4\n        /* \"#utility.yul\":2623:2624   */\n      dup2\n        /* \"#utility.yul\":2620:2633   */\n      lt\n        /* \"#utility.yul\":2601:2909   */\n      iszero\n      tag_146\n      jumpi\n        /* \"#utility.yul\":2702:2708   */\n      dup2\n        /* \"#utility.yul\":2696:2709   */\n      mload\n        /* \"#utility.yul\":2729:2808   */\n      tag_147\n        /* \"#utility.yul\":2804:2807   */\n      dup9\n        /* \"#utility.yul\":2789:2802   */\n      dup3\n        /* \"#utility.yul\":2729:2808   */\n      tag_93\n      jump\t// in\n    tag_147:\n        /* \"#utility.yul\":2722:2808   */\n      swap8\n      pop\n        /* \"#utility.yul\":2831:2899   */\n      tag_148\n        /* \"#utility.yul\":2892:2898   */\n      dup4\n        /* \"#utility.yul\":2831:2899   */\n      tag_94\n      jump\t// in\n    tag_148:\n        /* \"#utility.yul\":2821:2899   */\n      swap3\n      pop\n        /* \"#utility.yul\":2661:2909   */\n      pop\n        /* \"#utility.yul\":2648:2649   */\n      0x01\n        /* \"#utility.yul\":2645:2646   */\n      dup2\n        /* \"#utility.yul\":2641:2650   */\n      add\n        /* \"#utility.yul\":2636:2650   */\n      swap1\n      pop\n        /* \"#utility.yul\":2601:2909   */\n      jump(tag_144)\n    tag_146:\n        /* \"#utility.yul\":2605:2619   */\n      pop\n        /* \"#utility.yul\":2925:2928   */\n      dup6\n        /* \"#utility.yul\":2918:2928   */\n      swap4\n      pop\n        /* \"#utility.yul\":2278:2934   */\n      pop\n      pop\n      pop\n        /* \"#utility.yul\":2138:2934   */\n      swap3\n      swap2\n      pop\n      pop\n      jump\t// out\n        /* \"#utility.yul\":2940:3345   */\n    tag_27:\n        /* \"#utility.yul\":3099:3103   */\n      0x00\n        /* \"#utility.yul\":3137:3139   */\n      0x20\n        /* \"#utility.yul\":3126:3135   */\n      dup3\n        /* \"#utility.yul\":3122:3140   */\n      add\n        /* \"#utility.yul\":3114:3140   */\n      swap1\n      pop\n        /* \"#utility.yul\":3186:3195   */\n      dup2\n        /* \"#utility.yul\":3180:3184   */\n      dup2\n        /* \"#utility.yul\":3176:3196   */\n      sub\n        /* \"#utility.yul\":3172:3173   */\n      0x00\n        /* \"#utility.yul\":3161:3170   */\n      dup4\n        /* \"#utility.yul\":3157:3174   */\n      add\n        /* \"#utility.yul\":3150:3197   */\n      mstore\n        /* \"#utility.yul\":3214:3338   */\n      tag_150\n        /* \"#utility.yul\":3333:3337   */\n      dup2\n        /* \"#utility.yul\":3324:3330   */\n      dup5\n        /* \"#utility.yul\":3214:3338   */\n      tag_95\n      jump\t// in\n    tag_150:\n        /* \"#utility.yul\":3206:3338   */\n      swap1\n      pop\n        /* \"#utility.yul\":2940:3345   */\n      swap3\n      swap2\n      pop\n      pop\n      jump\t// out\n        /* \"#utility.yul\":3432:3549   */\n    tag_97:\n        /* \"#utility.yul\":3541:3542   */\n      0x00\n        /* \"#utility.yul\":3538:3539   */\n      dup1\n        /* \"#utility.yul\":3531:3543   */\n      revert\n        /* \"#utility.yul\":3678:3800   */\n    tag_99:\n        /* \"#utility.yul\":3751:3775   */\n      tag_155\n        /* \"#utility.yul\":3769:3774   */\n      dup2\n        /* \"#utility.yul\":3751:3775   */\n      tag_86\n      jump\t// in\n    tag_155:\n        /* \"#utility.yul\":3744:3749   */\n      dup2\n        /* \"#utility.yul\":3741:3776   */\n      eq\n        /* \"#utility.yul\":3731:3794   */\n      tag_156\n      jumpi\n        /* \"#utility.yul\":3790:3791   */\n      0x00\n        /* \"#utility.yul\":3787:3788   */\n      dup1\n        /* \"#utility.yul\":3780:3792   */\n      revert\n        /* \"#utility.yul\":3731:3794   */\n    tag_156:\n        /* \"#utility.yul\":3678:3800   */\n      pop\n      jump\t// out\n        /* \"#utility.yul\":3806:3945   */\n    tag_100:\n        /* \"#utility.yul\":3852:3857   */\n      0x00\n        /* \"#utility.yul\":3890:3896   */\n      dup2\n        /* \"#utility.yul\":3877:3897   */\n      calldataload\n        /* \"#utility.yul\":3868:3897   */\n      swap1\n      pop\n        /* \"#utility.yul\":3906:3939   */\n      tag_158\n        /* \"#utility.yul\":3933:3938   */\n      dup2\n        /* \"#utility.yul\":3906:3939   */\n      tag_99\n      jump\t// in\n    tag_158:\n        /* \"#utility.yul\":3806:3945   */\n      swap3\n      swap2\n      pop\n      pop\n      jump\t// out\n        /* \"#utility.yul\":3951:4280   */\n    tag_37:\n        /* \"#utility.yul\":4010:4016   */\n      0x00\n        /* \"#utility.yul\":4059:4061   */\n      0x20\n        /* \"#utility.yul\":4047:4056   */\n      dup3\n        /* \"#utility.yul\":4038:4045   */\n      dup5\n        /* \"#utility.yul\":4034:4057   */\n      sub\n        /* \"#utility.yul\":4030:4062   */\n      slt\n        /* \"#utility.yul\":4027:4146   */\n      iszero\n      tag_160\n      jumpi\n        /* \"#utility.yul\":4065:4144   */\n      tag_161\n      tag_97\n      jump\t// in\n    tag_161:\n        /* \"#utility.yul\":4027:4146   */\n    tag_160:\n        /* \"#utility.yul\":4185:4186   */\n      0x00\n        /* \"#utility.yul\":4210:4263   */\n      tag_162\n        /* \"#utility.yul\":4255:4262   */\n      dup5\n        /* \"#utility.yul\":4246:4252   */\n      dup3\n        /* \"#utility.yul\":4235:4244   */\n      dup6\n        /* \"#utility.yul\":4231:4253   */\n      add\n        /* \"#utility.yul\":4210:4263   */\n      tag_100\n      jump\t// in\n    tag_162:\n        /* \"#utility.yul\":4200:4263   */\n      swap2\n      pop\n        /* \"#utility.yul\":4156:4273   */\n      pop\n        /* \"#utility.yul\":3951:4280   */\n      swap3\n      swap2\n      pop\n      pop\n      jump\t// out\n        /* \"#utility.yul\":4286:4428   */\n    tag_101:\n        /* \"#utility.yul\":4389:4421   */\n      tag_164\n        /* \"#utility.yul\":4415:4420   */\n      dup2\n        /* \"#utility.yul\":4389:4421   */\n      tag_91\n      jump\t// in\n    tag_164:\n        /* \"#utility.yul\":4384:4387   */\n      dup3\n        /* \"#utility.yul\":4377:4422   */\n      mstore\n        /* \"#utility.yul\":4286:4428   */\n      pop\n      pop\n      jump\t// out\n        /* \"#utility.yul\":4434:4688   */\n    tag_40:\n        /* \"#utility.yul\":4543:4547   */\n      0x00\n        /* \"#utility.yul\":4581:4583   */\n      0x20\n        /* \"#utility.yul\":4570:4579   */\n      dup3\n        /* \"#utility.yul\":4566:4584   */\n      add\n        /* \"#utility.yul\":4558:4584   */\n      swap1\n      pop\n        /* \"#utility.yul\":4594:4681   */\n      tag_166\n        /* \"#utility.yul\":4678:4679   */\n      0x00\n        /* \"#utility.yul\":4667:4676   */\n      dup4\n        /* \"#utility.yul\":4663:4680   */\n      add\n        /* \"#utility.yul\":4654:4660   */\n      dup5\n        /* \"#utility.yul\":4594:4681   */\n      tag_101\n      jump\t// in\n    tag_166:\n        /* \"#utility.yul\":4434:4688   */\n      swap3\n      swap2\n      pop\n      pop\n      jump\t// out\n        /* \"#utility.yul\":4694:4874   */\n    tag_102:\n        /* \"#utility.yul\":4742:4819   */\n      0x4e487b7100000000000000000000000000000000000000000000000000000000\n        /* \"#utility.yul\":4739:4740   */\n      0x00\n        /* \"#utility.yul\":4732:4820   */\n      mstore\n        /* \"#utility.yul\":4839:4843   */\n      0x12\n        /* \"#utility.yul\":4836:4837   */\n      0x04\n        /* \"#utility.yul\":4829:4844   */\n      mstore\n        /* \"#utility.yul\":4863:4867   */\n      0x24\n        /* \"#utility.yul\":4860:4861   */\n      0x00\n        /* \"#utility.yul\":4853:4868   */\n      revert\n        /* \"#utility.yul\":4880:5056   */\n    tag_47:\n        /* \"#utility.yul\":4912:4913   */\n      0x00\n        /* \"#utility.yul\":4929:4949   */\n      tag_169\n        /* \"#utility.yul\":4947:4948   */\n      dup3\n        /* \"#utility.yul\":4929:4949   */\n      tag_86\n      jump\t// in\n    tag_169:\n        /* \"#utility.yul\":4924:4949   */\n      swap2\n      pop\n        /* \"#utility.yul\":4963:4983   */\n      tag_170\n        /* \"#utility.yul\":4981:4982   */\n      dup4\n        /* \"#utility.yul\":4963:4983   */\n      tag_86\n      jump\t// in\n    tag_170:\n        /* \"#utility.yul\":4958:4983   */\n      swap3\n      pop\n        /* \"#utility.yul\":5002:5003   */\n      dup3\n        /* \"#utility.yul\":4992:5027   */\n      tag_171\n      jumpi\n        /* \"#utility.yul\":5007:5025   */\n      tag_172\n      tag_102\n      jump\t// in\n    tag_172:\n        /* \"#utility.yul\":4992:5027   */\n    tag_171:\n        /* \"#utility.yul\":5048:5049   */\n      dup3\n        /* \"#utility.yul\":5045:5046   */\n      dup3\n        /* \"#utility.yul\":5041:5050   */\n      mod\n        /* \"#utility.yul\":5036:5050   */\n      swap1\n      pop\n        /* \"#utility.yul\":4880:5056   */\n      swap3\n      swap2\n      pop\n      pop\n      jump\t// out\n        /* \"#utility.yul\":5062:5242   */\n    tag_50:\n        /* \"#utility.yul\":5110:5187   */\n      0x4e487b7100000000000000000000000000000000000000000000000000000000\n        /* \"#utility.yul\":5107:5108   */\n      0x00\n        /* \"#utility.yul\":5100:5188   */\n      mstore\n        /* \"#utility.yul\":5207:5211   */\n      0x32\n        /* \"#utility.yul\":5204:5205   */\n      0x04\n        /* \"#utility.yul\":5197:5212   */\n      mstore\n        /* \"#utility.yul\":5231:5235   */\n      0x24\n        /* \"#utility.yul\":5228:5229   */\n      0x00\n        /* \"#utility.yul\":5221:5236   */\n      revert\n        /* \"#utility.yul\":5248:5428   */\n    tag_59:\n        /* \"#utility.yul\":5296:5373   */\n      0x4e487b7100000000000000000000000000000000000000000000000000000000\n        /* \"#utility.yul\":5293:5294   */\n      0x00\n        /* \"#utility.yul\":5286:5374   */\n      mstore\n        /* \"#utility.yul\":5393:5397   */\n      0x41\n        /* \"#utility.yul\":5390:5391   */\n      0x04\n        /* \"#utility.yul\":5383:5398   */\n      mstore\n        /* \"#utility.yul\":5417:5421   */\n      0x24\n        /* \"#utility.yul\":5414:5415   */\n      0x00\n        /* \"#utility.yul\":5407:5422   */\n      revert\n        /* \"#utility.yul\":5434:5614   */\n    tag_103:\n        /* \"#utility.yul\":5482:5559   */\n      0x4e487b7100000000000000000000000000000000000000000000000000000000\n        /* \"#utility.yul\":5479:5480   */\n      0x00\n        /* \"#utility.yul\":5472:5560   */\n      mstore\n        /* \"#utility.yul\":5579:5583   */\n      0x11\n        /* \"#utility.yul\":5576:5577   */\n      0x04\n        /* \"#utility.yul\":5569:5584   */\n      mstore\n        /* \"#utility.yul\":5603:5607   */\n      0x24\n        /* \"#utility.yul\":5600:5601   */\n      0x00\n        /* \"#utility.yul\":5593:5608   */\n      revert\n        /* \"#utility.yul\":5620:5853   */\n    tag_70:\n        /* \"#utility.yul\":5659:5662   */\n      0x00\n        /* \"#utility.yul\":5682:5706   */\n      tag_177\n        /* \"#utility.yul\":5700:5705   */\n      dup3\n        /* \"#utility.yul\":5682:5706   */\n      tag_86\n      jump\t// in\n    tag_177:\n        /* \"#utility.yul\":5673:5706   */\n      swap2\n      pop\n        /* \"#utility.yul\":5728:5794   */\n      0xffffffffffffffffffffffffffffffffffffffffffffffffffffffffffffffff\n        /* \"#utility.yul\":5721:5726   */\n      dup3\n        /* \"#utility.yul\":5718:5795   */\n      sub\n        /* \"#utility.yul\":5715:5818   */\n      tag_178\n      jumpi\n        /* \"#utility.yul\":5798:5816   */\n      tag_179\n      tag_103\n      jump\t// in\n    tag_179:\n        /* \"#utility.yul\":5715:5818   */\n    tag_178:\n        /* \"#utility.yul\":5845:5846   */\n      0x01\n        /* \"#utility.yul\":5838:5843   */\n      dup3\n        /* \"#utility.yul\":5834:5847   */\n      add\n        /* \"#utility.yul\":5827:5847   */\n      swap1\n      pop\n        /* \"#utility.yul\":5620:5853   */\n      swap2\n      swap1\n      pop\n      jump\t// out\n        /* \"#utility.yul\":5859:5938   */\n    tag_104:\n        /* \"#utility.yul\":5898:5905   */\n      0x00\n        /* \"#utility.yul\":5927:5932   */\n      dup2\n        /* \"#utility.yul\":5916:5932   */\n      swap1\n      pop\n        /* \"#utility.yul\":5859:5938   */\n      swap2\n      swap1\n      pop\n      jump\t// out\n        /* \"#utility.yul\":5944:6101   */\n    tag_105:\n        /* \"#utility.yul\":6049:6094   */\n      tag_182\n        /* \"#utility.yul\":6069:6093   */\n      tag_183\n        /* \"#utility.yul\":6087:6092   */\n      dup3\n        /* \"#utility.yul\":6069:6093   */\n      tag_86\n      jump\t// in\n    tag_183:\n        /* \"#utility.yul\":6049:6094   */\n      tag_104\n      jump\t// in\n    tag_182:\n        /* \"#utility.yul\":6044:6047   */\n      dup3\n        /* \"#utility.yul\":6037:6095   */\n      mstore\n        /* \"#utility.yul\":5944:6101   */\n      pop\n      pop\n      jump\t// out\n        /* \"#utility.yul\":6107:6226   */\n    tag_106:\n        /* \"#utility.yul\":6179:6185   */\n      0x00\n        /* \"#utility.yul\":6213:6218   */\n      dup2\n        /* \"#utility.yul\":6207:6219   */\n      sload\n        /* \"#utility.yul\":6197:6219   */\n      swap1\n      pop\n        /* \"#utility.yul\":6107:6226   */\n      swap2\n      swap1\n      pop\n      jump\t// out\n        /* \"#utility.yul\":6232:6403   */\n    tag_107:\n        /* \"#utility.yul\":6357:6368   */\n      0x00\n        /* \"#utility.yul\":6394:6397   */\n      dup2\n        /* \"#utility.yul\":6379:6397   */\n      swap1\n      pop\n        /* \"#utility.yul\":6232:6403   */\n      swap3\n      swap2\n      pop\n      pop\n      jump\t// out\n        /* \"#utility.yul\":6409:6573   */\n    tag_108:\n        /* \"#utility.yul\":6481:6485   */\n      0x00\n        /* \"#utility.yul\":6504:6507   */\n      dup2\n        /* \"#utility.yul\":6496:6507   */\n      swap1\n      pop\n        /* \"#utility.yul\":6527:6530   */\n      dup2\n        /* \"#utility.yul\":6524:6525   */\n      0x00\n        /* \"#utility.yul\":6517:6531   */\n      mstore\n        /* \"#utility.yul\":6561:6565   */\n      0x20\n        /* \"#utility.yul\":6558:6559   */\n      0x00\n        /* \"#utility.yul\":6548:6566   */\n      keccak256\n        /* \"#utility.yul\":6540:6566   */\n      swap1\n      pop\n        /* \"#utility.yul\":6409:6573   */\n      swap2\n      swap1\n      pop\n      jump\t// out\n        /* \"#utility.yul\":6579:6719   */\n    tag_109:\n        /* \"#utility.yul\":6680:6712   */\n      tag_188\n        /* \"#utility.yul\":6706:6711   */\n      dup2\n        /* \"#utility.yul\":6680:6712   */\n      tag_91\n      jump\t// in\n    tag_188:\n        /* \"#utility.yul\":6675:6678   */\n      dup3\n        /* \"#utility.yul\":6668:6713   */\n      mstore\n        /* \"#utility.yul\":6579:6719   */\n      pop\n      pop\n      jump\t// out\n        /* \"#utility.yul\":6725:6952   */\n    tag_110:\n        /* \"#utility.yul\":6818:6828   */\n      0x00\n        /* \"#utility.yul\":6839:6909   */\n      tag_190\n        /* \"#utility.yul\":6905:6908   */\n      dup4\n        /* \"#utility.yul\":6897:6903   */\n      dup4\n        /* \"#utility.yul\":6839:6909   */\n      tag_109\n      jump\t// in\n    tag_190:\n        /* \"#utility.yul\":6941:6945   */\n      0x20\n        /* \"#utility.yul\":6936:6939   */\n      dup4\n        /* \"#utility.yul\":6932:6946   */\n      add\n        /* \"#utility.yul\":6918:6946   */\n      swap1\n      pop\n        /* \"#utility.yul\":6725:6952   */\n      swap3\n      swap2\n      pop\n      pop\n      jump\t// out\n        /* \"#utility.yul\":6958:7060   */\n    tag_111:\n        /* \"#utility.yul\":7000:7008   */\n      0x00\n        /* \"#utility.yul\":7047:7052   */\n      dup2\n        /* \"#utility.yul\":7044:7045   */\n      0x00\n        /* \"#utility.yul\":7040:7053   */\n      shr\n        /* \"#utility.yul\":7019:7053   */\n      swap1\n      pop\n        /* \"#utility.yul\":6958:7060   */\n      swap2\n      swap1\n      pop\n      jump\t// out\n        /* \"#utility.yul\":7066:7213   */\n    tag_112:\n        /* \"#utility.yul\":7124:7131   */\n      0x00\n        /* \"#utility.yul\":7164:7206   */\n      0xffffffffffffffffffffffffffffffffffffffff\n        /* \"#utility.yul\":7157:7162   */\n      dup3\n        /* \"#utility.yul\":7153:7207   */\n      and\n        /* \"#utility.yul\":7142:7207   */\n      swap1\n      pop\n        /* \"#utility.yul\":7066:7213   */\n      swap2\n      swap1\n      pop\n      jump\t// out\n        /* \"#utility.yul\":7219:7401   */\n    tag_113:\n        /* \"#utility.yul\":7296:7301   */\n      0x00\n        /* \"#utility.yul\":7321:7395   */\n      tag_194\n        /* \"#utility.yul\":7360:7394   */\n      tag_195\n        /* \"#utility.yul\":7383:7393   */\n      dup4\n        /* \"#utility.yul\":7360:7394   */\n      tag_111\n      jump\t// in\n    tag_195:\n        /* \"#utility.yul\":7321:7395   */\n      tag_112\n      jump\t// in\n    tag_194:\n        /* \"#utility.yul\":7312:7395   */\n      swap1\n      pop\n        /* \"#utility.yul\":7219:7401   */\n      swap2\n      swap1\n      pop\n      jump\t// out\n        /* \"#utility.yul\":7407:7567   */\n    tag_114:\n        /* \"#utility.yul\":7470:7475   */\n      0x00\n        /* \"#utility.yul\":7495:7560   */\n      tag_197\n        /* \"#utility.yul\":7554:7558   */\n      dup3\n        /* \"#utility.yul\":7548:7559   */\n      sload\n        /* \"#utility.yul\":7495:7560   */\n      tag_113\n      jump\t// in\n    tag_197:\n        /* \"#utility.yul\":7486:7560   */\n      swap1\n      pop\n        /* \"#utility.yul\":7407:7567   */\n      swap2\n      swap1\n      pop\n      jump\t// out\n        /* \"#utility.yul\":7573:7691   */\n    tag_115:\n        /* \"#utility.yul\":7648:7652   */\n      0x00\n        /* \"#utility.yul\":7680:7684   */\n      0x01\n        /* \"#utility.yul\":7675:7678   */\n      dup3\n        /* \"#utility.yul\":7671:7685   */\n      add\n        /* \"#utility.yul\":7663:7685   */\n      swap1\n      pop\n        /* \"#utility.yul\":7573:7691   */\n      swap2\n      swap1\n      pop\n      jump\t// out\n        /* \"#utility.yul\":7743:8610   */\n    tag_116:\n        /* \"#utility.yul\":7893:7896   */\n      0x00\n        /* \"#utility.yul\":7922:7981   */\n      tag_200\n        /* \"#utility.yul\":7975:7980   */\n      dup3\n        /* \"#utility.yul\":7922:7981   */\n      tag_106\n      jump\t// in\n    tag_200:\n        /* \"#utility.yul\":7997:8109   */\n      tag_201\n        /* \"#utility.yul\":8102:8108   */\n      dup2\n        /* \"#utility.yul\":8097:8100   */\n      dup6\n        /* \"#utility.yul\":7997:8109   */\n      tag_107\n      jump\t// in\n    tag_201:\n        /* \"#utility.yul\":7990:8109   */\n      swap4\n      pop\n        /* \"#utility.yul\":8133:8194   */\n      tag_202\n        /* \"#utility.yul\":8188:8193   */\n      dup4\n        /* \"#utility.yul\":8133:8194   */\n      tag_108\n      jump\t// in\n    tag_202:\n        /* \"#utility.yul\":8217:8224   */\n      dup1\n        /* \"#utility.yul\":8248:8249   */\n      0x00\n        /* \"#utility.yul\":8233:8585   */\n    tag_203:\n        /* \"#utility.yul\":8258:8264   */\n      dup4\n        /* \"#utility.yul\":8255:8256   */\n      dup2\n        /* \"#utility.yul\":8252:8265   */\n      lt\n        /* \"#utility.yul\":8233:8585   */\n      iszero\n      tag_205\n      jumpi\n        /* \"#utility.yul\":8328:8380   */\n      tag_206\n        /* \"#utility.yul\":8373:8379   */\n      dup3\n        /* \"#utility.yul\":8328:8380   */\n      tag_114\n      jump\t// in\n    tag_206:\n        /* \"#utility.yul\":8400:8487   */\n      tag_207\n        /* \"#utility.yul\":8483:8486   */\n      dup9\n        /* \"#utility.yul\":8468:8481   */\n      dup3\n        /* \"#utility.yul\":8400:8487   */\n      tag_110\n      jump\t// in\n    tag_207:\n        /* \"#utility.yul\":8393:8487   */\n      swap8\n      pop\n        /* \"#utility.yul\":8510:8575   */\n      tag_208\n        /* \"#utility.yul\":8568:8574   */\n      dup4\n        /* \"#utility.yul\":8510:8575   */\n      tag_115\n      jump\t// in\n    tag_208:\n        /* \"#utility.yul\":8500:8575   */\n      swap3\n      pop\n        /* \"#utility.yul\":8293:8585   */\n      pop\n        /* \"#utility.yul\":8280:8281   */\n      0x01\n        /* \"#utility.yul\":8277:8278   */\n      dup2\n        /* \"#utility.yul\":8273:8282   */\n      add\n        /* \"#utility.yul\":8268:8282   */\n      swap1\n      pop\n        /* \"#utility.yul\":8233:8585   */\n      jump(tag_203)\n    tag_205:\n        /* \"#utility.yul\":8237:8251   */\n      pop\n        /* \"#utility.yul\":8601:8604   */\n      dup6\n        /* \"#utility.yul\":8594:8604   */\n      swap4\n      pop\n        /* \"#utility.yul\":7898:8610   */\n      pop\n      pop\n      pop\n        /* \"#utility.yul\":7743:8610   */\n      swap3\n      swap2\n      pop\n      pop\n      jump\t// out\n        /* \"#utility.yul\":8616:9259   */\n    tag_75:\n        /* \"#utility.yul\":8847:8850   */\n      0x00\n        /* \"#utility.yul\":8862:8937   */\n      tag_210\n        /* \"#utility.yul\":8933:8936   */\n      dup3\n        /* \"#utility.yul\":8924:8930   */\n      dup7\n        /* \"#utility.yul\":8862:8937   */\n      tag_105\n      jump\t// in\n    tag_210:\n        /* \"#utility.yul\":8962:8964   */\n      0x20\n        /* \"#utility.yul\":8957:8960   */\n      dup3\n        /* \"#utility.yul\":8953:8965   */\n      add\n        /* \"#utility.yul\":8946:8965   */\n      swap2\n      pop\n        /* \"#utility.yul\":8975:9050   */\n      tag_211\n        /* \"#utility.yul\":9046:9049   */\n      dup3\n        /* \"#utility.yul\":9037:9043   */\n      dup6\n        /* \"#utility.yul\":8975:9050   */\n      tag_105\n      jump\t// in\n    tag_211:\n        /* \"#utility.yul\":9075:9077   */\n      0x20\n        /* \"#utility.yul\":9070:9073   */\n      dup3\n        /* \"#utility.yul\":9066:9078   */\n      add\n        /* \"#utility.yul\":9059:9078   */\n      swap2\n      pop\n        /* \"#utility.yul\":9095:9233   */\n      tag_212\n        /* \"#utility.yul\":9229:9232   */\n      dup3\n        /* \"#utility.yul\":9220:9226   */\n      dup5\n        /* \"#utility.yul\":9095:9233   */\n      tag_116\n      jump\t// in\n    tag_212:\n        /* \"#utility.yul\":9088:9233   */\n      swap2\n      pop\n        /* \"#utility.yul\":9250:9253   */\n      dup2\n        /* \"#utility.yul\":9243:9253   */\n      swap1\n      pop\n        /* \"#utility.yul\":8616:9259   */\n      swap5\n      swap4\n      pop\n      pop\n      pop\n      pop\n      jump\t// out\n\n    auxdata: 0xa2646970667358221220186683637de1886b139ac4f18bbfe7ed4e0032765a6c13b43b7d7a56f5575fa764736f6c63430008110033\n}\n","bytecode":{"linkReferences":{},"object":"608060405234801561001057600080fd5b50336000806101000a81548173ffffffffffffffffffffffffffffffffffffffff021916908373ffffffffffffffffffffffffffffffffffffffff160217905550610ad1806100606000396000f3fe6080604052600436106100705760003560e01c80638b5b9ccc1161004e5780638b5b9ccc146100e2578063dfbf53ae1461010d578063e97dcb6214610138578063f71d96cb1461014257610070565b8063481c6a75146100755780635d495aea146100a05780636c4470fb146100b7575b600080fd5b34801561008157600080fd5b5061008a61017f565b6040516100979190610625565b60405180910390f35b3480156100ac57600080fd5b506100b56101a3565b005b3480156100c357600080fd5b506100cc61037e565b6040516100d99190610659565b60405180910390f35b3480156100ee57600080fd5b506100f7610384565b6040516101049190610744565b60405180910390f35b34801561011957600080fd5b50610122610412565b60405161012f9190610625565b60405180910390f35b610140610438565b005b34801561014e57600080fd5b5061016960048036038101906101649190610797565b6104c8565b60405161017691906107d3565b60405180910390f35b60008054906101000a900473ffffffffffffffffffffffffffffffffffffffff1681565b60008054906101000a900473ffffffffffffffffffffffffffffffffffffffff1673ffffffffffffffffffffffffffffffffffffffff163373ffffffffffffffffffffffffffffffffffffffff16146101fb57600080fd5b600060018054905061020b610507565b610215919061081d565b90506001818154811061022b5761022a61084e565b5b9060005260206000200160009054906101000a900473ffffffffffffffffffffffffffffffffffffffff16600260006101000a81548173ffffffffffffffffffffffffffffffffffffffff021916908373ffffffffffffffffffffffffffffffffffffffff160217905550600181815481106102aa576102a961084e565b5b9060005260206000200160009054906101000a900473ffffffffffffffffffffffffffffffffffffffff1673ffffffffffffffffffffffffffffffffffffffff166108fc479081150290604051600060405180830381858888f1935050505015801561031a573d6000803e3d6000fd5b50600067ffffffffffffffff8111156103365761033561087d565b5b6040519080825280602002602001820160405280156103645781602001602082028036833780820191505090505b506001908051906020019061037a92919061053d565b5050565b60035481565b6060600180548060200260200160405190810160405280929190818152602001828054801561040857602002820191906000526020600020905b8160009054906101000a900473ffffffffffffffffffffffffffffffffffffffff1673ffffffffffffffffffffffffffffffffffffffff16815260200190600101908083116103be575b5050505050905090565b600260009054906101000a900473ffffffffffffffffffffffffffffffffffffffff1681565b662386f26fc10000341161044b57600080fd5b6001339080600181540180825580915050600190039060005260206000200160009091909190916101000a81548173ffffffffffffffffffffffffffffffffffffffff021916908373ffffffffffffffffffffffffffffffffffffffff160217905550600360008154809291906104c1906108db565b9190505550565b600181815481106104d857600080fd5b906000526020600020016000915054906101000a900473ffffffffffffffffffffffffffffffffffffffff1681565b60004442600160405160200161051f93929190610a62565b6040516020818303038152906040528051906020012060001c905090565b8280548282559060005260206000209081019282156105b6579160200282015b828111156105b55782518260006101000a81548173ffffffffffffffffffffffffffffffffffffffff021916908373ffffffffffffffffffffffffffffffffffffffff1602179055509160200191906001019061055d565b5b5090506105c391906105c7565b5090565b5b808211156105e05760008160009055506001016105c8565b5090565b600073ffffffffffffffffffffffffffffffffffffffff82169050919050565b600061060f826105e4565b9050919050565b61061f81610604565b82525050565b600060208201905061063a6000830184610616565b92915050565b6000819050919050565b61065381610640565b82525050565b600060208201905061066e600083018461064a565b92915050565b600081519050919050565b600082825260208201905092915050565b6000819050602082019050919050565b60006106ab826105e4565b9050919050565b6106bb816106a0565b82525050565b60006106cd83836106b2565b60208301905092915050565b6000602082019050919050565b60006106f182610674565b6106fb818561067f565b935061070683610690565b8060005b8381101561073757815161071e88826106c1565b9750610729836106d9565b92505060018101905061070a565b5085935050505092915050565b6000602082019050818103600083015261075e81846106e6565b905092915050565b600080fd5b61077481610640565b811461077f57600080fd5b50565b6000813590506107918161076b565b92915050565b6000602082840312156107ad576107ac610766565b5b60006107bb84828501610782565b91505092915050565b6107cd816106a0565b82525050565b60006020820190506107e860008301846107c4565b92915050565b7f4e487b7100000000000000000000000000000000000000000000000000000000600052601260045260246000fd5b600061082882610640565b915061083383610640565b925082610843576108426107ee565b5b828206905092915050565b7f4e487b7100000000000000000000000000000000000000000000000000000000600052603260045260246000fd5b7f4e487b7100000000000000000000000000000000000000000000000000000000600052604160045260246000fd5b7f4e487b7100000000000000000000000000000000000000000000000000000000600052601160045260246000fd5b60006108e682610640565b91507fffffffffffffffffffffffffffffffffffffffffffffffffffffffffffffffff8203610918576109176108ac565b5b600182019050919050565b6000819050919050565b61093e61093982610640565b610923565b82525050565b600081549050919050565b600081905092915050565b60008190508160005260206000209050919050565b610978816106a0565b82525050565b600061098a838361096f565b60208301905092915050565b60008160001c9050919050565b600073ffffffffffffffffffffffffffffffffffffffff82169050919050565b60006109d66109d183610996565b6109a3565b9050919050565b60006109e982546109c3565b9050919050565b6000600182019050919050565b6000610a0882610944565b610a12818561094f565b9350610a1d8361095a565b8060005b83811015610a5557610a32826109dd565b610a3c888261097e565b9750610a47836109f0565b925050600181019050610a21565b5085935050505092915050565b6000610a6e828661092d565b602082019150610a7e828561092d565b602082019150610a8e82846109fd565b915081905094935050505056fea2646970667358221220186683637de1886b139ac4f18bbfe7ed4e0032765a6c13b43b7d7a56f5575fa764736f6c63430008110033","opcodes":"PUSH1 0x80 PUSH1 0x40 MSTORE CALLVALUE DUP1 ISZERO PUSH2 0x10 JUMPI PUSH1 0x0 DUP1 REVERT JUMPDEST POP CALLER PUSH1 0x0 DUP1 PUSH2 0x100 EXP DUP2 SLOAD DUP2 PUSH20 0xFFFFFFFFFFFFFFFFFFFFFFFFFFFFFFFFFFFFFFFF MUL NOT AND SWAP1 DUP4 PUSH20 0xFFFFFFFFFFFFFFFFFFFFFFFFFFFFFFFFFFFFFFFF AND MUL OR SWAP1 SSTORE POP PUSH2 0xAD1 DUP1 PUSH2 0x60 PUSH1 0x0 CODECOPY PUSH1 0x0 RETURN INVALID PUSH1 0x80 PUSH1 0x40 MSTORE PUSH1 0x4 CALLDATASIZE LT PUSH2 0x70 JUMPI PUSH1 0x0 CALLDATALOAD PUSH1 0xE0 SHR DUP1 PUSH4 0x8B5B9CCC GT PUSH2 0x4E JUMPI DUP1 PUSH4 0x8B5B9CCC EQ PUSH2 0xE2 JUMPI DUP1 PUSH4 0xDFBF53AE EQ PUSH2 0x10D JUMPI DUP1 PUSH4 0xE97DCB62 EQ PUSH2 0x138 JUMPI DUP1 PUSH4 0xF71D96CB EQ PUSH2 0x142 JUMPI PUSH2 0x70 JUMP JUMPDEST DUP1 PUSH4 0x481C6A75 EQ PUSH2 0x75 JUMPI DUP1 PUSH4 0x5D495AEA EQ PUSH2 0xA0 JUMPI DUP1 PUSH4 0x6C4470FB EQ PUSH2 0xB7 JUMPI JUMPDEST PUSH1 0x0 DUP1 REVERT JUMPDEST CALLVALUE DUP1 ISZERO PUSH2 0x81 JUMPI PUSH1 0x0 DUP1 REVERT JUMPDEST POP PUSH2 0x8A PUSH2 0x17F JUMP JUMPDEST PUSH1 0x40 MLOAD PUSH2 0x97 SWAP2 SWAP1 PUSH2 0x625 JUMP JUMPDEST PUSH1 0x40 MLOAD DUP1 SWAP2 SUB SWAP1 RETURN JUMPDEST CALLVALUE DUP1 ISZERO PUSH2 0xAC JUMPI PUSH1 0x0 DUP1 REVERT JUMPDEST POP PUSH2 0xB5 PUSH2 0x1A3 JUMP JUMPDEST STOP JUMPDEST CALLVALUE DUP1 ISZERO PUSH2 0xC3 JUMPI PUSH1 0x0 DUP1 REVERT JUMPDEST POP PUSH2 0xCC PUSH2 0x37E JUMP JUMPDEST PUSH1 0x40 MLOAD PUSH2 0xD9 SWAP2 SWAP1 PUSH2 0x659 JUMP JUMPDEST PUSH1 0x40 MLOAD DUP1 SWAP2 SUB SWAP1 RETURN JUMPDEST CALLVALUE DUP1 ISZERO PUSH2 0xEE JUMPI PUSH1 0x0 DUP1 REVERT JUMPDEST POP PUSH2 0xF7 PUSH2 0x384 JUMP JUMPDEST PUSH1 0x40 MLOAD PUSH2 0x104 SWAP2 SWAP1 PUSH2 0x744 JUMP JUMPDEST PUSH1 0x40 MLOAD DUP1 SWAP2 SUB SWAP1 RETURN JUMPDEST CALLVALUE DUP1 ISZERO PUSH2 0x119 JUMPI PUSH1 0x0 DUP1 REVERT JUMPDEST POP PUSH2 0x122 PUSH2 0x412 JUMP JUMPDEST PUSH1 0x40 MLOAD PUSH2 0x12F SWAP2 SWAP1 PUSH2 0x625 JUMP JUMPDEST PUSH1 0x40 MLOAD DUP1 SWAP2 SUB SWAP1 RETURN JUMPDEST PUSH2 0x140 PUSH2 0x438 JUMP JUMPDEST STOP JUMPDEST CALLVALUE DUP1 ISZERO PUSH2 0x14E JUMPI PUSH1 0x0 DUP1 REVERT JUMPDEST POP PUSH2 0x169 PUSH1 0x4 DUP1 CALLDATASIZE SUB DUP2 ADD SWAP1 PUSH2 0x164 SWAP2 SWAP1 PUSH2 0x797 JUMP JUMPDEST PUSH2 0x4C8 JUMP JUMPDEST PUSH1 0x40 MLOAD PUSH2 0x176 SWAP2 SWAP1 PUSH2 0x7D3 JUMP JUMPDEST PUSH1 0x40 MLOAD DUP1 SWAP2 SUB SWAP1 RETURN JUMPDEST PUSH1 0x0 DUP1 SLOAD SWAP1 PUSH2 0x100 EXP SWAP1 DIV PUSH20 0xFFFFFFFFFFFFFFFFFFFFFFFFFFFFFFFFFFFFFFFF AND DUP2 JUMP JUMPDEST PUSH1 0x0 DUP1 SLOAD SWAP1 PUSH2 0x100 EXP SWAP1 DIV PUSH20 0xFFFFFFFFFFFFFFFFFFFFFFFFFFFFFFFFFFFFFFFF AND PUSH20 0xFFFFFFFFFFFFFFFFFFFFFFFFFFFFFFFFFFFFFFFF AND CALLER PUSH20 0xFFFFFFFFFFFFFFFFFFFFFFFFFFFFFFFFFFFFFFFF AND EQ PUSH2 0x1FB JUMPI PUSH1 0x0 DUP1 REVERT JUMPDEST PUSH1 0x0 PUSH1 0x1 DUP1 SLOAD SWAP1 POP PUSH2 0x20B PUSH2 0x507 JUMP JUMPDEST PUSH2 0x215 SWAP2 SWAP1 PUSH2 0x81D JUMP JUMPDEST SWAP1 POP PUSH1 0x1 DUP2 DUP2 SLOAD DUP2 LT PUSH2 0x22B JUMPI PUSH2 0x22A PUSH2 0x84E JUMP JUMPDEST JUMPDEST SWAP1 PUSH1 0x0 MSTORE PUSH1 0x20 PUSH1 0x0 KECCAK256 ADD PUSH1 0x0 SWAP1 SLOAD SWAP1 PUSH2 0x100 EXP SWAP1 DIV PUSH20 0xFFFFFFFFFFFFFFFFFFFFFFFFFFFFFFFFFFFFFFFF AND PUSH1 0x2 PUSH1 0x0 PUSH2 0x100 EXP DUP2 SLOAD DUP2 PUSH20 0xFFFFFFFFFFFFFFFFFFFFFFFFFFFFFFFFFFFFFFFF MUL NOT AND SWAP1 DUP4 PUSH20 0xFFFFFFFFFFFFFFFFFFFFFFFFFFFFFFFFFFFFFFFF AND MUL OR SWAP1 SSTORE POP PUSH1 0x1 DUP2 DUP2 SLOAD DUP2 LT PUSH2 0x2AA JUMPI PUSH2 0x2A9 PUSH2 0x84E JUMP JUMPDEST JUMPDEST SWAP1 PUSH1 0x0 MSTORE PUSH1 0x20 PUSH1 0x0 KECCAK256 ADD PUSH1 0x0 SWAP1 SLOAD SWAP1 PUSH2 0x100 EXP SWAP1 DIV PUSH20 0xFFFFFFFFFFFFFFFFFFFFFFFFFFFFFFFFFFFFFFFF AND PUSH20 0xFFFFFFFFFFFFFFFFFFFFFFFFFFFFFFFFFFFFFFFF AND PUSH2 0x8FC SELFBALANCE SWAP1 DUP2 ISZERO MUL SWAP1 PUSH1 0x40 MLOAD PUSH1 0x0 PUSH1 0x40 MLOAD DUP1 DUP4 SUB DUP2 DUP6 DUP9 DUP9 CALL SWAP4 POP POP POP POP ISZERO DUP1 ISZERO PUSH2 0x31A JUMPI RETURNDATASIZE PUSH1 0x0 DUP1 RETURNDATACOPY RETURNDATASIZE PUSH1 0x0 REVERT JUMPDEST POP PUSH1 0x0 PUSH8 0xFFFFFFFFFFFFFFFF DUP2 GT ISZERO PUSH2 0x336 JUMPI PUSH2 0x335 PUSH2 0x87D JUMP JUMPDEST JUMPDEST PUSH1 0x40 MLOAD SWAP1 DUP1 DUP3 MSTORE DUP1 PUSH1 0x20 MUL PUSH1 0x20 ADD DUP3 ADD PUSH1 0x40 MSTORE DUP1 ISZERO PUSH2 0x364 JUMPI DUP2 PUSH1 0x20 ADD PUSH1 0x20 DUP3 MUL DUP1 CALLDATASIZE DUP4 CALLDATACOPY DUP1 DUP3 ADD SWAP2 POP POP SWAP1 POP JUMPDEST POP PUSH1 0x1 SWAP1 DUP1 MLOAD SWAP1 PUSH1 0x20 ADD SWAP1 PUSH2 0x37A SWAP3 SWAP2 SWAP1 PUSH2 0x53D JUMP JUMPDEST POP POP JUMP JUMPDEST PUSH1 0x3 SLOAD DUP2 JUMP JUMPDEST PUSH1 0x60 PUSH1 0x1 DUP1 SLOAD DUP1 PUSH1 0x20 MUL PUSH1 0x20 ADD PUSH1 0x40 MLOAD SWAP1 DUP2 ADD PUSH1 0x40 MSTORE DUP1 SWAP3 SWAP2 SWAP1 DUP2 DUP2 MSTORE PUSH1 0x20 ADD DUP3 DUP1 SLOAD DUP1 ISZERO PUSH2 0x408 JUMPI PUSH1 0x20 MUL DUP3 ADD SWAP2 SWAP1 PUSH1 0x0 MSTORE PUSH1 0x20 PUSH1 0x0 KECCAK256 SWAP1 JUMPDEST DUP2 PUSH1 0x0 SWAP1 SLOAD SWAP1 PUSH2 0x100 EXP SWAP1 DIV PUSH20 0xFFFFFFFFFFFFFFFFFFFFFFFFFFFFFFFFFFFFFFFF AND PUSH20 0xFFFFFFFFFFFFFFFFFFFFFFFFFFFFFFFFFFFFFFFF AND DUP2 MSTORE PUSH1 0x20 ADD SWAP1 PUSH1 0x1 ADD SWAP1 DUP1 DUP4 GT PUSH2 0x3BE JUMPI JUMPDEST POP POP POP POP POP SWAP1 POP SWAP1 JUMP JUMPDEST PUSH1 0x2 PUSH1 0x0 SWAP1 SLOAD SWAP1 PUSH2 0x100 EXP SWAP1 DIV PUSH20 0xFFFFFFFFFFFFFFFFFFFFFFFFFFFFFFFFFFFFFFFF AND DUP2 JUMP JUMPDEST PUSH7 0x2386F26FC10000 CALLVALUE GT PUSH2 0x44B JUMPI PUSH1 0x0 DUP1 REVERT JUMPDEST PUSH1 0x1 CALLER SWAP1 DUP1 PUSH1 0x1 DUP2 SLOAD ADD DUP1 DUP3 SSTORE DUP1 SWAP2 POP POP PUSH1 0x1 SWAP1 SUB SWAP1 PUSH1 0x0 MSTORE PUSH1 0x20 PUSH1 0x0 KECCAK256 ADD PUSH1 0x0 SWAP1 SWAP2 SWAP1 SWAP2 SWAP1 SWAP2 PUSH2 0x100 EXP DUP2 SLOAD DUP2 PUSH20 0xFFFFFFFFFFFFFFFFFFFFFFFFFFFFFFFFFFFFFFFF MUL NOT AND SWAP1 DUP4 PUSH20 0xFFFFFFFFFFFFFFFFFFFFFFFFFFFFFFFFFFFFFFFF AND MUL OR SWAP1 SSTORE POP PUSH1 0x3 PUSH1 0x0 DUP2 SLOAD DUP1 SWAP3 SWAP2 SWAP1 PUSH2 0x4C1 SWAP1 PUSH2 0x8DB JUMP JUMPDEST SWAP2 SWAP1 POP SSTORE POP JUMP JUMPDEST PUSH1 0x1 DUP2 DUP2 SLOAD DUP2 LT PUSH2 0x4D8 JUMPI PUSH1 0x0 DUP1 REVERT JUMPDEST SWAP1 PUSH1 0x0 MSTORE PUSH1 0x20 PUSH1 0x0 KECCAK256 ADD PUSH1 0x0 SWAP2 POP SLOAD SWAP1 PUSH2 0x100 EXP SWAP1 DIV PUSH20 0xFFFFFFFFFFFFFFFFFFFFFFFFFFFFFFFFFFFFFFFF AND DUP2 JUMP JUMPDEST PUSH1 0x0 DIFFICULTY TIMESTAMP PUSH1 0x1 PUSH1 0x40 MLOAD PUSH1 0x20 ADD PUSH2 0x51F SWAP4 SWAP3 SWAP2 SWAP1 PUSH2 0xA62 JUMP JUMPDEST PUSH1 0x40 MLOAD PUSH1 0x20 DUP2 DUP4 SUB SUB DUP2 MSTORE SWAP1 PUSH1 0x40 MSTORE DUP1 MLOAD SWAP1 PUSH1 0x20 ADD KECCAK256 PUSH1 0x0 SHR SWAP1 POP SWAP1 JUMP JUMPDEST DUP3 DUP1 SLOAD DUP3 DUP3 SSTORE SWAP1 PUSH1 0x0 MSTORE PUSH1 0x20 PUSH1 0x0 KECCAK256 SWAP1 DUP2 ADD SWAP3 DUP3 ISZERO PUSH2 0x5B6 JUMPI SWAP2 PUSH1 0x20 MUL DUP3 ADD JUMPDEST DUP3 DUP2 GT ISZERO PUSH2 0x5B5 JUMPI DUP3 MLOAD DUP3 PUSH1 0x0 PUSH2 0x100 EXP DUP2 SLOAD DUP2 PUSH20 0xFFFFFFFFFFFFFFFFFFFFFFFFFFFFFFFFFFFFFFFF MUL NOT AND SWAP1 DUP4 PUSH20 0xFFFFFFFFFFFFFFFFFFFFFFFFFFFFFFFFFFFFFFFF AND MUL OR SWAP1 SSTORE POP SWAP2 PUSH1 0x20 ADD SWAP2 SWAP1 PUSH1 0x1 ADD SWAP1 PUSH2 0x55D JUMP JUMPDEST JUMPDEST POP SWAP1 POP PUSH2 0x5C3 SWAP2 SWAP1 PUSH2 0x5C7 JUMP JUMPDEST POP SWAP1 JUMP JUMPDEST JUMPDEST DUP1 DUP3 GT ISZERO PUSH2 0x5E0 JUMPI PUSH1 0x0 DUP2 PUSH1 0x0 SWAP1 SSTORE POP PUSH1 0x1 ADD PUSH2 0x5C8 JUMP JUMPDEST POP SWAP1 JUMP JUMPDEST PUSH1 0x0 PUSH20 0xFFFFFFFFFFFFFFFFFFFFFFFFFFFFFFFFFFFFFFFF DUP3 AND SWAP1 POP SWAP2 SWAP1 POP JUMP JUMPDEST PUSH1 0x0 PUSH2 0x60F DUP3 PUSH2 0x5E4 JUMP JUMPDEST SWAP1 POP SWAP2 SWAP1 POP JUMP JUMPDEST PUSH2 0x61F DUP2 PUSH2 0x604 JUMP JUMPDEST DUP3 MSTORE POP POP JUMP JUMPDEST PUSH1 0x0 PUSH1 0x20 DUP3 ADD SWAP1 POP PUSH2 0x63A PUSH1 0x0 DUP4 ADD DUP5 PUSH2 0x616 JUMP JUMPDEST SWAP3 SWAP2 POP POP JUMP JUMPDEST PUSH1 0x0 DUP2 SWAP1 POP SWAP2 SWAP1 POP JUMP JUMPDEST PUSH2 0x653 DUP2 PUSH2 0x640 JUMP JUMPDEST DUP3 MSTORE POP POP JUMP JUMPDEST PUSH1 0x0 PUSH1 0x20 DUP3 ADD SWAP1 POP PUSH2 0x66E PUSH1 0x0 DUP4 ADD DUP5 PUSH2 0x64A JUMP JUMPDEST SWAP3 SWAP2 POP POP JUMP JUMPDEST PUSH1 0x0 DUP2 MLOAD SWAP1 POP SWAP2 SWAP1 POP JUMP JUMPDEST PUSH1 0x0 DUP3 DUP3 MSTORE PUSH1 0x20 DUP3 ADD SWAP1 POP SWAP3 SWAP2 POP POP JUMP JUMPDEST PUSH1 0x0 DUP2 SWAP1 POP PUSH1 0x20 DUP3 ADD SWAP1 POP SWAP2 SWAP1 POP JUMP JUMPDEST PUSH1 0x0 PUSH2 0x6AB DUP3 PUSH2 0x5E4 JUMP JUMPDEST SWAP1 POP SWAP2 SWAP1 POP JUMP JUMPDEST PUSH2 0x6BB DUP2 PUSH2 0x6A0 JUMP JUMPDEST DUP3 MSTORE POP POP JUMP JUMPDEST PUSH1 0x0 PUSH2 0x6CD DUP4 DUP4 PUSH2 0x6B2 JUMP JUMPDEST PUSH1 0x20 DUP4 ADD SWAP1 POP SWAP3 SWAP2 POP POP JUMP JUMPDEST PUSH1 0x0 PUSH1 0x20 DUP3 ADD SWAP1 POP SWAP2 SWAP1 POP JUMP JUMPDEST PUSH1 0x0 PUSH2 0x6F1 DUP3 PUSH2 0x674 JUMP JUMPDEST PUSH2 0x6FB DUP2 DUP6 PUSH2 0x67F JUMP JUMPDEST SWAP4 POP PUSH2 0x706 DUP4 PUSH2 0x690 JUMP JUMPDEST DUP1 PUSH1 0x0 JUMPDEST DUP4 DUP2 LT ISZERO PUSH2 0x737 JUMPI DUP2 MLOAD PUSH2 0x71E DUP9 DUP3 PUSH2 0x6C1 JUMP JUMPDEST SWAP8 POP PUSH2 0x729 DUP4 PUSH2 0x6D9 JUMP JUMPDEST SWAP3 POP POP PUSH1 0x1 DUP2 ADD SWAP1 POP PUSH2 0x70A JUMP JUMPDEST POP DUP6 SWAP4 POP POP POP POP SWAP3 SWAP2 POP POP JUMP JUMPDEST PUSH1 0x0 PUSH1 0x20 DUP3 ADD SWAP1 POP DUP2 DUP2 SUB PUSH1 0x0 DUP4 ADD MSTORE PUSH2 0x75E DUP2 DUP5 PUSH2 0x6E6 JUMP JUMPDEST SWAP1 POP SWAP3 SWAP2 POP POP JUMP JUMPDEST PUSH1 0x0 DUP1 REVERT JUMPDEST PUSH2 0x774 DUP2 PUSH2 0x640 JUMP JUMPDEST DUP2 EQ PUSH2 0x77F JUMPI PUSH1 0x0 DUP1 REVERT JUMPDEST POP JUMP JUMPDEST PUSH1 0x0 DUP2 CALLDATALOAD SWAP1 POP PUSH2 0x791 DUP2 PUSH2 0x76B JUMP JUMPDEST SWAP3 SWAP2 POP POP JUMP JUMPDEST PUSH1 0x0 PUSH1 0x20 DUP3 DUP5 SUB SLT ISZERO PUSH2 0x7AD JUMPI PUSH2 0x7AC PUSH2 0x766 JUMP JUMPDEST JUMPDEST PUSH1 0x0 PUSH2 0x7BB DUP5 DUP3 DUP6 ADD PUSH2 0x782 JUMP JUMPDEST SWAP2 POP POP SWAP3 SWAP2 POP POP JUMP JUMPDEST PUSH2 0x7CD DUP2 PUSH2 0x6A0 JUMP JUMPDEST DUP3 MSTORE POP POP JUMP JUMPDEST PUSH1 0x0 PUSH1 0x20 DUP3 ADD SWAP1 POP PUSH2 0x7E8 PUSH1 0x0 DUP4 ADD DUP5 PUSH2 0x7C4 JUMP JUMPDEST SWAP3 SWAP2 POP POP JUMP JUMPDEST PUSH32 0x4E487B7100000000000000000000000000000000000000000000000000000000 PUSH1 0x0 MSTORE PUSH1 0x12 PUSH1 0x4 MSTORE PUSH1 0x24 PUSH1 0x0 REVERT JUMPDEST PUSH1 0x0 PUSH2 0x828 DUP3 PUSH2 0x640 JUMP JUMPDEST SWAP2 POP PUSH2 0x833 DUP4 PUSH2 0x640 JUMP JUMPDEST SWAP3 POP DUP3 PUSH2 0x843 JUMPI PUSH2 0x842 PUSH2 0x7EE JUMP JUMPDEST JUMPDEST DUP3 DUP3 MOD SWAP1 POP SWAP3 SWAP2 POP POP JUMP JUMPDEST PUSH32 0x4E487B7100000000000000000000000000000000000000000000000000000000 PUSH1 0x0 MSTORE PUSH1 0x32 PUSH1 0x4 MSTORE PUSH1 0x24 PUSH1 0x0 REVERT JUMPDEST PUSH32 0x4E487B7100000000000000000000000000000000000000000000000000000000 PUSH1 0x0 MSTORE PUSH1 0x41 PUSH1 0x4 MSTORE PUSH1 0x24 PUSH1 0x0 REVERT JUMPDEST PUSH32 0x4E487B7100000000000000000000000000000000000000000000000000000000 PUSH1 0x0 MSTORE PUSH1 0x11 PUSH1 0x4 MSTORE PUSH1 0x24 PUSH1 0x0 REVERT JUMPDEST PUSH1 0x0 PUSH2 0x8E6 DUP3 PUSH2 0x640 JUMP JUMPDEST SWAP2 POP PUSH32 0xFFFFFFFFFFFFFFFFFFFFFFFFFFFFFFFFFFFFFFFFFFFFFFFFFFFFFFFFFFFFFFFF DUP3 SUB PUSH2 0x918 JUMPI PUSH2 0x917 PUSH2 0x8AC JUMP JUMPDEST JUMPDEST PUSH1 0x1 DUP3 ADD SWAP1 POP SWAP2 SWAP1 POP JUMP JUMPDEST PUSH1 0x0 DUP2 SWAP1 POP SWAP2 SWAP1 POP JUMP JUMPDEST PUSH2 0x93E PUSH2 0x939 DUP3 PUSH2 0x640 JUMP JUMPDEST PUSH2 0x923 JUMP JUMPDEST DUP3 MSTORE POP POP JUMP JUMPDEST PUSH1 0x0 DUP2 SLOAD SWAP1 POP SWAP2 SWAP1 POP JUMP JUMPDEST PUSH1 0x0 DUP2 SWAP1 POP SWAP3 SWAP2 POP POP JUMP JUMPDEST PUSH1 0x0 DUP2 SWAP1 POP DUP2 PUSH1 0x0 MSTORE PUSH1 0x20 PUSH1 0x0 KECCAK256 SWAP1 POP SWAP2 SWAP1 POP JUMP JUMPDEST PUSH2 0x978 DUP2 PUSH2 0x6A0 JUMP JUMPDEST DUP3 MSTORE POP POP JUMP JUMPDEST PUSH1 0x0 PUSH2 0x98A DUP4 DUP4 PUSH2 0x96F JUMP JUMPDEST PUSH1 0x20 DUP4 ADD SWAP1 POP SWAP3 SWAP2 POP POP JUMP JUMPDEST PUSH1 0x0 DUP2 PUSH1 0x0 SHR SWAP1 POP SWAP2 SWAP1 POP JUMP JUMPDEST PUSH1 0x0 PUSH20 0xFFFFFFFFFFFFFFFFFFFFFFFFFFFFFFFFFFFFFFFF DUP3 AND SWAP1 POP SWAP2 SWAP1 POP JUMP JUMPDEST PUSH1 0x0 PUSH2 0x9D6 PUSH2 0x9D1 DUP4 PUSH2 0x996 JUMP JUMPDEST PUSH2 0x9A3 JUMP JUMPDEST SWAP1 POP SWAP2 SWAP1 POP JUMP JUMPDEST PUSH1 0x0 PUSH2 0x9E9 DUP3 SLOAD PUSH2 0x9C3 JUMP JUMPDEST SWAP1 POP SWAP2 SWAP1 POP JUMP JUMPDEST PUSH1 0x0 PUSH1 0x1 DUP3 ADD SWAP1 POP SWAP2 SWAP1 POP JUMP JUMPDEST PUSH1 0x0 PUSH2 0xA08 DUP3 PUSH2 0x944 JUMP JUMPDEST PUSH2 0xA12 DUP2 DUP6 PUSH2 0x94F JUMP JUMPDEST SWAP4 POP PUSH2 0xA1D DUP4 PUSH2 0x95A JUMP JUMPDEST DUP1 PUSH1 0x0 JUMPDEST DUP4 DUP2 LT ISZERO PUSH2 0xA55 JUMPI PUSH2 0xA32 DUP3 PUSH2 0x9DD JUMP JUMPDEST PUSH2 0xA3C DUP9 DUP3 PUSH2 0x97E JUMP JUMPDEST SWAP8 POP PUSH2 0xA47 DUP4 PUSH2 0x9F0 JUMP JUMPDEST SWAP3 POP POP PUSH1 0x1 DUP2 ADD SWAP1 POP PUSH2 0xA21 JUMP JUMPDEST POP DUP6 SWAP4 POP POP POP POP SWAP3 SWAP2 POP POP JUMP JUMPDEST PUSH1 0x0 PUSH2 0xA6E DUP3 DUP7 PUSH2 0x92D JUMP JUMPDEST PUSH1 0x20 DUP3 ADD SWAP2 POP PUSH2 0xA7E DUP3 DUP6 PUSH2 0x92D JUMP JUMPDEST PUSH1 0x20 DUP3 ADD SWAP2 POP PUSH2 0xA8E DUP3 DUP5 PUSH2 0x9FD JUMP JUMPDEST SWAP2 POP DUP2 SWAP1 POP SWAP5 SWAP4 POP POP POP POP JUMP INVALID LOG2 PUSH5 0x6970667358 0x22 SLT KECCAK256 XOR PUSH7 0x83637DE1886B13 SWAP11 0xC4 CALL DUP12 0xBF 0xE7 0xED 0x4E STOP ORIGIN PUSH23 0x5A6C13B43B7D7A56F5575FA764736F6C63430008110033 "},"gasEstimates":{"creation":{"codeDepositCost":"553800","executionCost":"24853","totalCost":"578653"},"external":{"enter()":"73121","getPlayers()":"infinite","manager()":"2512","participants()":"2474","pickWinner()":"infinite","players(uint256)":"5022","winner()":"2536"},"internal":{"random()":"infinite"}},"methodIdentifiers":{"enter()":"e97dcb62","getPlayers()":"8b5b9ccc","manager()":"481c6a75","participants()":"6c4470fb","pickWinner()":"5d495aea","players(uint256)":"f71d96cb","winner()":"dfbf53ae"}},"storageLayout":{"storage":[{"astId":3,"contract":"Lottery.sol:Lottery","label":"manager","offset":0,"slot":"0","type":"t_address"},{"astId":6,"contract":"Lottery.sol:Lottery","label":"players","offset":0,"slot":"1","type":"t_array(t_address_payable)dyn_storage"},{"astId":8,"contract":"Lottery.sol:Lottery","label":"winner","offset":0,"slot":"2","type":"t_address"},{"astId":10,"contract":"Lottery.sol:Lottery","label":"participants","offset":0,"slot":"3","type":"t_uint256"}],"types":{"t_address":{"encoding":"inplace","label":"address","numberOfBytes":"20"},"t_address_payable":{"encoding":"inplace","label":"address payable","numberOfBytes":"20"},"t_array(t_address_payable)dyn_storage":{"base":"t_address_payable","encoding":"dynamic_array","label":"address payable[]","numberOfBytes":"32"},"t_uint256":{"encoding":"inplace","label":"uint256","numberOfBytes":"32"}}},"userdoc":{"kind":"user","methods":{},"version":1}}