{"abi":[{"inputs":[],"stateMutability":"nonpayable","type":"constructor"},{"inputs":[],"name":"enter","outputs":[],"stateMutability":"payable","type":"function"},{"inputs":[],"name":"getPlayers","outputs":[{"internalType":"address[]","name":"","type":"address[]"}],"stateMutability":"view","type":"function"},{"inputs":[],"name":"manager","outputs":[{"internalType":"address","name":"","type":"address"}],"stateMutability":"view","type":"function"},{"inputs":[],"name":"pickWinner","outputs":[],"stateMutability":"nonpayable","type":"function"},{"inputs":[{"internalType":"uint256","name":"","type":"uint256"}],"name":"players","outputs":[{"internalType":"address","name":"","type":"address"}],"stateMutability":"view","type":"function"},{"inputs":[],"name":"playersCount","outputs":[{"internalType":"uint256","name":"","type":"uint256"}],"stateMutability":"view","type":"function"},{"inputs":[],"name":"winner","outputs":[{"internalType":"address","name":"","type":"address"}],"stateMutability":"view","type":"function"}],"devdoc":{"kind":"dev","methods":{},"version":1},"evm":{"assembly":"    /* \"Lottery.sol\":58:861  contract Lottery {... */\n  mstore(0x40, 0x80)\n    /* \"Lottery.sol\":198:249  constructor() {... */\n  callvalue\n  dup1\n  iszero\n  tag_1\n  jumpi\n  0x00\n  dup1\n  revert\ntag_1:\n  pop\n    /* \"Lottery.sol\":232:242  msg.sender */\n  caller\n    /* \"Lottery.sol\":222:229  manager */\n  0x00\n  dup1\n    /* \"Lottery.sol\":222:242  manager = msg.sender */\n  0x0100\n  exp\n  dup2\n  sload\n  dup2\n  0xffffffffffffffffffffffffffffffffffffffff\n  mul\n  not\n  and\n  swap1\n  dup4\n  0xffffffffffffffffffffffffffffffffffffffff\n  and\n  mul\n  or\n  swap1\n  sstore\n  pop\n    /* \"Lottery.sol\":58:861  contract Lottery {... */\n  dataSize(sub_0)\n  dup1\n  dataOffset(sub_0)\n  0x00\n  codecopy\n  0x00\n  return\nstop\n\nsub_0: assembly {\n        /* \"Lottery.sol\":58:861  contract Lottery {... */\n      mstore(0x40, 0x80)\n      jumpi(tag_1, lt(calldatasize, 0x04))\n      shr(0xe0, calldataload(0x00))\n      dup1\n      0xa3f67d6d\n      gt\n      tag_9\n      jumpi\n      dup1\n      0xa3f67d6d\n      eq\n      tag_5\n      jumpi\n      dup1\n      0xdfbf53ae\n      eq\n      tag_6\n      jumpi\n      dup1\n      0xe97dcb62\n      eq\n      tag_7\n      jumpi\n      dup1\n      0xf71d96cb\n      eq\n      tag_8\n      jumpi\n      jump(tag_1)\n    tag_9:\n      dup1\n      0x481c6a75\n      eq\n      tag_2\n      jumpi\n      dup1\n      0x5d495aea\n      eq\n      tag_3\n      jumpi\n      dup1\n      0x8b5b9ccc\n      eq\n      tag_4\n      jumpi\n    tag_1:\n      0x00\n      dup1\n      revert\n        /* \"Lottery.sol\":81:103  address public manager */\n    tag_2:\n      callvalue\n      dup1\n      iszero\n      tag_10\n      jumpi\n      0x00\n      dup1\n      revert\n    tag_10:\n      pop\n      tag_11\n      tag_12\n      jump\t// in\n    tag_11:\n      mload(0x40)\n      tag_13\n      swap2\n      swap1\n      tag_14\n      jump\t// in\n    tag_13:\n      mload(0x40)\n      dup1\n      swap2\n      sub\n      swap1\n      return\n        /* \"Lottery.sol\":511:675  function pickWinner() public restricted {... */\n    tag_3:\n      callvalue\n      dup1\n      iszero\n      tag_15\n      jumpi\n      0x00\n      dup1\n      revert\n    tag_15:\n      pop\n      tag_16\n      tag_17\n      jump\t// in\n    tag_16:\n      stop\n        /* \"Lottery.sol\":767:859  function getPlayers() public view returns (address[] memory) {... */\n    tag_4:\n      callvalue\n      dup1\n      iszero\n      tag_18\n      jumpi\n      0x00\n      dup1\n      revert\n    tag_18:\n      pop\n      tag_19\n      tag_20\n      jump\t// in\n    tag_19:\n      mload(0x40)\n      tag_21\n      swap2\n      swap1\n      tag_22\n      jump\t// in\n    tag_21:\n      mload(0x40)\n      dup1\n      swap2\n      sub\n      swap1\n      return\n        /* \"Lottery.sol\":167:191  uint public playersCount */\n    tag_5:\n      callvalue\n      dup1\n      iszero\n      tag_23\n      jumpi\n      0x00\n      dup1\n      revert\n    tag_23:\n      pop\n      tag_24\n      tag_25\n      jump\t// in\n    tag_24:\n      mload(0x40)\n      tag_26\n      swap2\n      swap1\n      tag_27\n      jump\t// in\n    tag_26:\n      mload(0x40)\n      dup1\n      swap2\n      sub\n      swap1\n      return\n        /* \"Lottery.sol\":140:161  address public winner */\n    tag_6:\n      callvalue\n      dup1\n      iszero\n      tag_28\n      jumpi\n      0x00\n      dup1\n      revert\n    tag_28:\n      pop\n      tag_29\n      tag_30\n      jump\t// in\n    tag_29:\n      mload(0x40)\n      tag_31\n      swap2\n      swap1\n      tag_14\n      jump\t// in\n    tag_31:\n      mload(0x40)\n      dup1\n      swap2\n      sub\n      swap1\n      return\n        /* \"Lottery.sol\":255:352  function enter() public payable {... */\n    tag_7:\n      tag_32\n      tag_33\n      jump\t// in\n    tag_32:\n      stop\n        /* \"Lottery.sol\":109:134  address [] public players */\n    tag_8:\n      callvalue\n      dup1\n      iszero\n      tag_34\n      jumpi\n      0x00\n      dup1\n      revert\n    tag_34:\n      pop\n      tag_35\n      0x04\n      dup1\n      calldatasize\n      sub\n      dup2\n      add\n      swap1\n      tag_36\n      swap2\n      swap1\n      tag_37\n      jump\t// in\n    tag_36:\n      tag_38\n      jump\t// in\n    tag_35:\n      mload(0x40)\n      tag_39\n      swap2\n      swap1\n      tag_14\n      jump\t// in\n    tag_39:\n      mload(0x40)\n      dup1\n      swap2\n      sub\n      swap1\n      return\n        /* \"Lottery.sol\":81:103  address public manager */\n    tag_12:\n      0x00\n      dup1\n      sload\n      swap1\n      0x0100\n      exp\n      swap1\n      div\n      0xffffffffffffffffffffffffffffffffffffffff\n      and\n      dup2\n      jump\t// out\n        /* \"Lottery.sol\":511:675  function pickWinner() public restricted {... */\n    tag_17:\n        /* \"Lottery.sol\":735:742  manager */\n      0x00\n      dup1\n      sload\n      swap1\n      0x0100\n      exp\n      swap1\n      div\n      0xffffffffffffffffffffffffffffffffffffffff\n      and\n        /* \"Lottery.sol\":721:742  msg.sender == manager */\n      0xffffffffffffffffffffffffffffffffffffffff\n      and\n        /* \"Lottery.sol\":721:731  msg.sender */\n      caller\n        /* \"Lottery.sol\":721:742  msg.sender == manager */\n      0xffffffffffffffffffffffffffffffffffffffff\n      and\n      eq\n        /* \"Lottery.sol\":713:743  require(msg.sender == manager) */\n      tag_41\n      jumpi\n      0x00\n      dup1\n      revert\n    tag_41:\n        /* \"Lottery.sol\":561:571  uint index */\n      0x00\n        /* \"Lottery.sol\":585:592  players */\n      0x01\n        /* \"Lottery.sol\":585:599  players.length */\n      dup1\n      sload\n      swap1\n      pop\n        /* \"Lottery.sol\":574:582  random() */\n      tag_43\n        /* \"Lottery.sol\":574:580  random */\n      tag_44\n        /* \"Lottery.sol\":574:582  random() */\n      jump\t// in\n    tag_43:\n        /* \"Lottery.sol\":574:599  random() % players.length */\n      tag_45\n      swap2\n      swap1\n      tag_46\n      jump\t// in\n    tag_45:\n        /* \"Lottery.sol\":561:599  uint index = random() % players.length */\n      swap1\n      pop\n        /* \"Lottery.sol\":618:625  players */\n      0x01\n        /* \"Lottery.sol\":626:631  index */\n      dup2\n        /* \"Lottery.sol\":618:632  players[index] */\n      dup2\n      sload\n      dup2\n      lt\n      tag_47\n      jumpi\n      tag_48\n      tag_49\n      jump\t// in\n    tag_48:\n    tag_47:\n      swap1\n      0x00\n      mstore\n      keccak256(0x00, 0x20)\n      add\n      0x00\n      swap1\n      sload\n      swap1\n      0x0100\n      exp\n      swap1\n      div\n      0xffffffffffffffffffffffffffffffffffffffff\n      and\n        /* \"Lottery.sol\":609:615  winner */\n      0x02\n      0x00\n        /* \"Lottery.sol\":609:632  winner = players[index] */\n      0x0100\n      exp\n      dup2\n      sload\n      dup2\n      0xffffffffffffffffffffffffffffffffffffffff\n      mul\n      not\n      and\n      swap1\n      dup4\n      0xffffffffffffffffffffffffffffffffffffffff\n      and\n      mul\n      or\n      swap1\n      sstore\n      pop\n        /* \"Lottery.sol\":666:667  0 */\n      0x00\n        /* \"Lottery.sol\":652:668  new address[](0) */\n      0xffffffffffffffff\n      dup2\n      gt\n      iszero\n      tag_51\n      jumpi\n      tag_52\n      tag_53\n      jump\t// in\n    tag_52:\n    tag_51:\n      mload(0x40)\n      swap1\n      dup1\n      dup3\n      mstore\n      dup1\n      0x20\n      mul\n      0x20\n      add\n      dup3\n      add\n      0x40\n      mstore\n      dup1\n      iszero\n      tag_54\n      jumpi\n      dup2\n      0x20\n      add\n      0x20\n      dup3\n      mul\n      dup1\n      calldatasize\n      dup4\n      calldatacopy\n      dup1\n      dup3\n      add\n      swap2\n      pop\n      pop\n      swap1\n      pop\n    tag_54:\n      pop\n        /* \"Lottery.sol\":642:649  players */\n      0x01\n        /* \"Lottery.sol\":642:668  players = new address[](0) */\n      swap1\n      dup1\n      mload\n      swap1\n      0x20\n      add\n      swap1\n      tag_55\n      swap3\n      swap2\n      swap1\n      tag_56\n      jump\t// in\n    tag_55:\n      pop\n        /* \"Lottery.sol\":551:675  {... */\n      pop\n        /* \"Lottery.sol\":511:675  function pickWinner() public restricted {... */\n      jump\t// out\n        /* \"Lottery.sol\":767:859  function getPlayers() public view returns (address[] memory) {... */\n    tag_20:\n        /* \"Lottery.sol\":810:826  address[] memory */\n      0x60\n        /* \"Lottery.sol\":845:852  players */\n      0x01\n        /* \"Lottery.sol\":838:852  return players */\n      dup1\n      sload\n      dup1\n      0x20\n      mul\n      0x20\n      add\n      mload(0x40)\n      swap1\n      dup2\n      add\n      0x40\n      mstore\n      dup1\n      swap3\n      swap2\n      swap1\n      dup2\n      dup2\n      mstore\n      0x20\n      add\n      dup3\n      dup1\n      sload\n      dup1\n      iszero\n      tag_58\n      jumpi\n      0x20\n      mul\n      dup3\n      add\n      swap2\n      swap1\n      0x00\n      mstore\n      keccak256(0x00, 0x20)\n      swap1\n    tag_59:\n      dup2\n      0x00\n      swap1\n      sload\n      swap1\n      0x0100\n      exp\n      swap1\n      div\n      0xffffffffffffffffffffffffffffffffffffffff\n      and\n      0xffffffffffffffffffffffffffffffffffffffff\n      and\n      dup2\n      mstore\n      0x20\n      add\n      swap1\n      0x01\n      add\n      swap1\n      dup1\n      dup4\n      gt\n      tag_59\n      jumpi\n    tag_58:\n      pop\n      pop\n      pop\n      pop\n      pop\n      swap1\n      pop\n        /* \"Lottery.sol\":767:859  function getPlayers() public view returns (address[] memory) {... */\n      swap1\n      jump\t// out\n        /* \"Lottery.sol\":167:191  uint public playersCount */\n    tag_25:\n      sload(0x03)\n      dup2\n      jump\t// out\n        /* \"Lottery.sol\":140:161  address public winner */\n    tag_30:\n      0x02\n      0x00\n      swap1\n      sload\n      swap1\n      0x0100\n      exp\n      swap1\n      div\n      0xffffffffffffffffffffffffffffffffffffffff\n      and\n      dup2\n      jump\t// out\n        /* \"Lottery.sol\":255:352  function enter() public payable {... */\n    tag_33:\n        /* \"Lottery.sol\":297:304  players */\n      0x01\n        /* \"Lottery.sol\":310:320  msg.sender */\n      caller\n        /* \"Lottery.sol\":297:321  players.push(msg.sender) */\n      swap1\n      dup1\n      0x01\n      dup2\n      sload\n      add\n      dup1\n      dup3\n      sstore\n      dup1\n      swap2\n      pop\n      pop\n      0x01\n      swap1\n      sub\n      swap1\n      0x00\n      mstore\n      keccak256(0x00, 0x20)\n      add\n      0x00\n      swap1\n      swap2\n      swap1\n      swap2\n      swap1\n      swap2\n      0x0100\n      exp\n      dup2\n      sload\n      dup2\n      0xffffffffffffffffffffffffffffffffffffffff\n      mul\n      not\n      and\n      swap1\n      dup4\n      0xffffffffffffffffffffffffffffffffffffffff\n      and\n      mul\n      or\n      swap1\n      sstore\n      pop\n        /* \"Lottery.sol\":331:343  playersCount */\n      0x03\n      0x00\n        /* \"Lottery.sol\":331:345  playersCount++ */\n      dup2\n      sload\n      dup1\n      swap3\n      swap2\n      swap1\n      tag_62\n      swap1\n      tag_63\n      jump\t// in\n    tag_62:\n      swap2\n      swap1\n      pop\n      sstore\n      pop\n        /* \"Lottery.sol\":255:352  function enter() public payable {... */\n      jump\t// out\n        /* \"Lottery.sol\":109:134  address [] public players */\n    tag_38:\n      0x01\n      dup2\n      dup2\n      sload\n      dup2\n      lt\n      tag_64\n      jumpi\n      0x00\n      dup1\n      revert\n    tag_64:\n      swap1\n      0x00\n      mstore\n      keccak256(0x00, 0x20)\n      add\n      0x00\n      swap2\n      pop\n      sload\n      swap1\n      0x0100\n      exp\n      swap1\n      div\n      0xffffffffffffffffffffffffffffffffffffffff\n      and\n      dup2\n      jump\t// out\n        /* \"Lottery.sol\":358:505  function random() private view returns (uint) {... */\n    tag_44:\n        /* \"Lottery.sol\":398:402  uint */\n      0x00\n        /* \"Lottery.sol\":453:469  block.difficulty */\n      difficulty\n        /* \"Lottery.sol\":471:486  block.timestamp */\n      timestamp\n        /* \"Lottery.sol\":488:495  players */\n      0x01\n        /* \"Lottery.sol\":436:496  abi.encodePacked(block.difficulty, block.timestamp, players) */\n      add(0x20, mload(0x40))\n      tag_67\n      swap4\n      swap3\n      swap2\n      swap1\n      tag_68\n      jump\t// in\n    tag_67:\n      mload(0x40)\n      0x20\n      dup2\n      dup4\n      sub\n      sub\n      dup2\n      mstore\n      swap1\n      0x40\n      mstore\n        /* \"Lottery.sol\":426:497  keccak256(abi.encodePacked(block.difficulty, block.timestamp, players)) */\n      dup1\n      mload\n      swap1\n      0x20\n      add\n      keccak256\n        /* \"Lottery.sol\":421:498  uint(keccak256(abi.encodePacked(block.difficulty, block.timestamp, players))) */\n      0x00\n      shr\n        /* \"Lottery.sol\":414:498  return uint(keccak256(abi.encodePacked(block.difficulty, block.timestamp, players))) */\n      swap1\n      pop\n        /* \"Lottery.sol\":358:505  function random() private view returns (uint) {... */\n      swap1\n      jump\t// out\n    tag_56:\n      dup3\n      dup1\n      sload\n      dup3\n      dup3\n      sstore\n      swap1\n      0x00\n      mstore\n      keccak256(0x00, 0x20)\n      swap1\n      dup2\n      add\n      swap3\n      dup3\n      iszero\n      tag_69\n      jumpi\n      swap2\n      0x20\n      mul\n      dup3\n      add\n    tag_70:\n      dup3\n      dup2\n      gt\n      iszero\n      tag_71\n      jumpi\n      dup3\n      mload\n      dup3\n      exp(0x0100, 0x00)\n      dup2\n      sload\n      dup2\n      0xffffffffffffffffffffffffffffffffffffffff\n      mul\n      not\n      and\n      swap1\n      dup4\n      0xffffffffffffffffffffffffffffffffffffffff\n      and\n      mul\n      or\n      swap1\n      sstore\n      pop\n      swap2\n      0x20\n      add\n      swap2\n      swap1\n      0x01\n      add\n      swap1\n      jump(tag_70)\n    tag_71:\n    tag_69:\n      pop\n      swap1\n      pop\n      tag_72\n      swap2\n      swap1\n      tag_73\n      jump\t// in\n    tag_72:\n      pop\n      swap1\n      jump\t// out\n    tag_73:\n    tag_74:\n      dup1\n      dup3\n      gt\n      iszero\n      tag_75\n      jumpi\n      0x00\n      dup2\n      0x00\n      swap1\n      sstore\n      pop\n      0x01\n      add\n      jump(tag_74)\n    tag_75:\n      pop\n      swap1\n      jump\t// out\n        /* \"#utility.yul\":7:133   */\n    tag_76:\n        /* \"#utility.yul\":44:51   */\n      0x00\n        /* \"#utility.yul\":84:126   */\n      0xffffffffffffffffffffffffffffffffffffffff\n        /* \"#utility.yul\":77:82   */\n      dup3\n        /* \"#utility.yul\":73:127   */\n      and\n        /* \"#utility.yul\":62:127   */\n      swap1\n      pop\n        /* \"#utility.yul\":7:133   */\n      swap2\n      swap1\n      pop\n      jump\t// out\n        /* \"#utility.yul\":139:235   */\n    tag_77:\n        /* \"#utility.yul\":176:183   */\n      0x00\n        /* \"#utility.yul\":205:229   */\n      tag_111\n        /* \"#utility.yul\":223:228   */\n      dup3\n        /* \"#utility.yul\":205:229   */\n      tag_76\n      jump\t// in\n    tag_111:\n        /* \"#utility.yul\":194:229   */\n      swap1\n      pop\n        /* \"#utility.yul\":139:235   */\n      swap2\n      swap1\n      pop\n      jump\t// out\n        /* \"#utility.yul\":241:359   */\n    tag_78:\n        /* \"#utility.yul\":328:352   */\n      tag_113\n        /* \"#utility.yul\":346:351   */\n      dup2\n        /* \"#utility.yul\":328:352   */\n      tag_77\n      jump\t// in\n    tag_113:\n        /* \"#utility.yul\":323:326   */\n      dup3\n        /* \"#utility.yul\":316:353   */\n      mstore\n        /* \"#utility.yul\":241:359   */\n      pop\n      pop\n      jump\t// out\n        /* \"#utility.yul\":365:587   */\n    tag_14:\n        /* \"#utility.yul\":458:462   */\n      0x00\n        /* \"#utility.yul\":496:498   */\n      0x20\n        /* \"#utility.yul\":485:494   */\n      dup3\n        /* \"#utility.yul\":481:499   */\n      add\n        /* \"#utility.yul\":473:499   */\n      swap1\n      pop\n        /* \"#utility.yul\":509:580   */\n      tag_115\n        /* \"#utility.yul\":577:578   */\n      0x00\n        /* \"#utility.yul\":566:575   */\n      dup4\n        /* \"#utility.yul\":562:579   */\n      add\n        /* \"#utility.yul\":553:559   */\n      dup5\n        /* \"#utility.yul\":509:580   */\n      tag_78\n      jump\t// in\n    tag_115:\n        /* \"#utility.yul\":365:587   */\n      swap3\n      swap2\n      pop\n      pop\n      jump\t// out\n        /* \"#utility.yul\":593:707   */\n    tag_79:\n        /* \"#utility.yul\":660:666   */\n      0x00\n        /* \"#utility.yul\":694:699   */\n      dup2\n        /* \"#utility.yul\":688:700   */\n      mload\n        /* \"#utility.yul\":678:700   */\n      swap1\n      pop\n        /* \"#utility.yul\":593:707   */\n      swap2\n      swap1\n      pop\n      jump\t// out\n        /* \"#utility.yul\":713:897   */\n    tag_80:\n        /* \"#utility.yul\":812:823   */\n      0x00\n        /* \"#utility.yul\":846:852   */\n      dup3\n        /* \"#utility.yul\":841:844   */\n      dup3\n        /* \"#utility.yul\":834:853   */\n      mstore\n        /* \"#utility.yul\":886:890   */\n      0x20\n        /* \"#utility.yul\":881:884   */\n      dup3\n        /* \"#utility.yul\":877:891   */\n      add\n        /* \"#utility.yul\":862:891   */\n      swap1\n      pop\n        /* \"#utility.yul\":713:897   */\n      swap3\n      swap2\n      pop\n      pop\n      jump\t// out\n        /* \"#utility.yul\":903:1035   */\n    tag_81:\n        /* \"#utility.yul\":970:974   */\n      0x00\n        /* \"#utility.yul\":993:996   */\n      dup2\n        /* \"#utility.yul\":985:996   */\n      swap1\n      pop\n        /* \"#utility.yul\":1023:1027   */\n      0x20\n        /* \"#utility.yul\":1018:1021   */\n      dup3\n        /* \"#utility.yul\":1014:1028   */\n      add\n        /* \"#utility.yul\":1006:1028   */\n      swap1\n      pop\n        /* \"#utility.yul\":903:1035   */\n      swap2\n      swap1\n      pop\n      jump\t// out\n        /* \"#utility.yul\":1041:1149   */\n    tag_82:\n        /* \"#utility.yul\":1118:1142   */\n      tag_120\n        /* \"#utility.yul\":1136:1141   */\n      dup2\n        /* \"#utility.yul\":1118:1142   */\n      tag_77\n      jump\t// in\n    tag_120:\n        /* \"#utility.yul\":1113:1116   */\n      dup3\n        /* \"#utility.yul\":1106:1143   */\n      mstore\n        /* \"#utility.yul\":1041:1149   */\n      pop\n      pop\n      jump\t// out\n        /* \"#utility.yul\":1155:1334   */\n    tag_83:\n        /* \"#utility.yul\":1224:1234   */\n      0x00\n        /* \"#utility.yul\":1245:1291   */\n      tag_122\n        /* \"#utility.yul\":1287:1290   */\n      dup4\n        /* \"#utility.yul\":1279:1285   */\n      dup4\n        /* \"#utility.yul\":1245:1291   */\n      tag_82\n      jump\t// in\n    tag_122:\n        /* \"#utility.yul\":1323:1327   */\n      0x20\n        /* \"#utility.yul\":1318:1321   */\n      dup4\n        /* \"#utility.yul\":1314:1328   */\n      add\n        /* \"#utility.yul\":1300:1328   */\n      swap1\n      pop\n        /* \"#utility.yul\":1155:1334   */\n      swap3\n      swap2\n      pop\n      pop\n      jump\t// out\n        /* \"#utility.yul\":1340:1453   */\n    tag_84:\n        /* \"#utility.yul\":1410:1414   */\n      0x00\n        /* \"#utility.yul\":1442:1446   */\n      0x20\n        /* \"#utility.yul\":1437:1440   */\n      dup3\n        /* \"#utility.yul\":1433:1447   */\n      add\n        /* \"#utility.yul\":1425:1447   */\n      swap1\n      pop\n        /* \"#utility.yul\":1340:1453   */\n      swap2\n      swap1\n      pop\n      jump\t// out\n        /* \"#utility.yul\":1489:2221   */\n    tag_85:\n        /* \"#utility.yul\":1608:1611   */\n      0x00\n        /* \"#utility.yul\":1637:1691   */\n      tag_125\n        /* \"#utility.yul\":1685:1690   */\n      dup3\n        /* \"#utility.yul\":1637:1691   */\n      tag_79\n      jump\t// in\n    tag_125:\n        /* \"#utility.yul\":1707:1793   */\n      tag_126\n        /* \"#utility.yul\":1786:1792   */\n      dup2\n        /* \"#utility.yul\":1781:1784   */\n      dup6\n        /* \"#utility.yul\":1707:1793   */\n      tag_80\n      jump\t// in\n    tag_126:\n        /* \"#utility.yul\":1700:1793   */\n      swap4\n      pop\n        /* \"#utility.yul\":1817:1873   */\n      tag_127\n        /* \"#utility.yul\":1867:1872   */\n      dup4\n        /* \"#utility.yul\":1817:1873   */\n      tag_81\n      jump\t// in\n    tag_127:\n        /* \"#utility.yul\":1896:1903   */\n      dup1\n        /* \"#utility.yul\":1927:1928   */\n      0x00\n        /* \"#utility.yul\":1912:2196   */\n    tag_128:\n        /* \"#utility.yul\":1937:1943   */\n      dup4\n        /* \"#utility.yul\":1934:1935   */\n      dup2\n        /* \"#utility.yul\":1931:1944   */\n      lt\n        /* \"#utility.yul\":1912:2196   */\n      iszero\n      tag_130\n      jumpi\n        /* \"#utility.yul\":2013:2019   */\n      dup2\n        /* \"#utility.yul\":2007:2020   */\n      mload\n        /* \"#utility.yul\":2040:2103   */\n      tag_131\n        /* \"#utility.yul\":2099:2102   */\n      dup9\n        /* \"#utility.yul\":2084:2097   */\n      dup3\n        /* \"#utility.yul\":2040:2103   */\n      tag_83\n      jump\t// in\n    tag_131:\n        /* \"#utility.yul\":2033:2103   */\n      swap8\n      pop\n        /* \"#utility.yul\":2126:2186   */\n      tag_132\n        /* \"#utility.yul\":2179:2185   */\n      dup4\n        /* \"#utility.yul\":2126:2186   */\n      tag_84\n      jump\t// in\n    tag_132:\n        /* \"#utility.yul\":2116:2186   */\n      swap3\n      pop\n        /* \"#utility.yul\":1972:2196   */\n      pop\n        /* \"#utility.yul\":1959:1960   */\n      0x01\n        /* \"#utility.yul\":1956:1957   */\n      dup2\n        /* \"#utility.yul\":1952:1961   */\n      add\n        /* \"#utility.yul\":1947:1961   */\n      swap1\n      pop\n        /* \"#utility.yul\":1912:2196   */\n      jump(tag_128)\n    tag_130:\n        /* \"#utility.yul\":1916:1930   */\n      pop\n        /* \"#utility.yul\":2212:2215   */\n      dup6\n        /* \"#utility.yul\":2205:2215   */\n      swap4\n      pop\n        /* \"#utility.yul\":1613:2221   */\n      pop\n      pop\n      pop\n        /* \"#utility.yul\":1489:2221   */\n      swap3\n      swap2\n      pop\n      pop\n      jump\t// out\n        /* \"#utility.yul\":2227:2600   */\n    tag_22:\n        /* \"#utility.yul\":2370:2374   */\n      0x00\n        /* \"#utility.yul\":2408:2410   */\n      0x20\n        /* \"#utility.yul\":2397:2406   */\n      dup3\n        /* \"#utility.yul\":2393:2411   */\n      add\n        /* \"#utility.yul\":2385:2411   */\n      swap1\n      pop\n        /* \"#utility.yul\":2457:2466   */\n      dup2\n        /* \"#utility.yul\":2451:2455   */\n      dup2\n        /* \"#utility.yul\":2447:2467   */\n      sub\n        /* \"#utility.yul\":2443:2444   */\n      0x00\n        /* \"#utility.yul\":2432:2441   */\n      dup4\n        /* \"#utility.yul\":2428:2445   */\n      add\n        /* \"#utility.yul\":2421:2468   */\n      mstore\n        /* \"#utility.yul\":2485:2593   */\n      tag_134\n        /* \"#utility.yul\":2588:2592   */\n      dup2\n        /* \"#utility.yul\":2579:2585   */\n      dup5\n        /* \"#utility.yul\":2485:2593   */\n      tag_85\n      jump\t// in\n    tag_134:\n        /* \"#utility.yul\":2477:2593   */\n      swap1\n      pop\n        /* \"#utility.yul\":2227:2600   */\n      swap3\n      swap2\n      pop\n      pop\n      jump\t// out\n        /* \"#utility.yul\":2606:2683   */\n    tag_86:\n        /* \"#utility.yul\":2643:2650   */\n      0x00\n        /* \"#utility.yul\":2672:2677   */\n      dup2\n        /* \"#utility.yul\":2661:2677   */\n      swap1\n      pop\n        /* \"#utility.yul\":2606:2683   */\n      swap2\n      swap1\n      pop\n      jump\t// out\n        /* \"#utility.yul\":2689:2807   */\n    tag_87:\n        /* \"#utility.yul\":2776:2800   */\n      tag_137\n        /* \"#utility.yul\":2794:2799   */\n      dup2\n        /* \"#utility.yul\":2776:2800   */\n      tag_86\n      jump\t// in\n    tag_137:\n        /* \"#utility.yul\":2771:2774   */\n      dup3\n        /* \"#utility.yul\":2764:2801   */\n      mstore\n        /* \"#utility.yul\":2689:2807   */\n      pop\n      pop\n      jump\t// out\n        /* \"#utility.yul\":2813:3035   */\n    tag_27:\n        /* \"#utility.yul\":2906:2910   */\n      0x00\n        /* \"#utility.yul\":2944:2946   */\n      0x20\n        /* \"#utility.yul\":2933:2942   */\n      dup3\n        /* \"#utility.yul\":2929:2947   */\n      add\n        /* \"#utility.yul\":2921:2947   */\n      swap1\n      pop\n        /* \"#utility.yul\":2957:3028   */\n      tag_139\n        /* \"#utility.yul\":3025:3026   */\n      0x00\n        /* \"#utility.yul\":3014:3023   */\n      dup4\n        /* \"#utility.yul\":3010:3027   */\n      add\n        /* \"#utility.yul\":3001:3007   */\n      dup5\n        /* \"#utility.yul\":2957:3028   */\n      tag_87\n      jump\t// in\n    tag_139:\n        /* \"#utility.yul\":2813:3035   */\n      swap3\n      swap2\n      pop\n      pop\n      jump\t// out\n        /* \"#utility.yul\":3122:3239   */\n    tag_89:\n        /* \"#utility.yul\":3231:3232   */\n      0x00\n        /* \"#utility.yul\":3228:3229   */\n      dup1\n        /* \"#utility.yul\":3221:3233   */\n      revert\n        /* \"#utility.yul\":3368:3490   */\n    tag_91:\n        /* \"#utility.yul\":3441:3465   */\n      tag_144\n        /* \"#utility.yul\":3459:3464   */\n      dup2\n        /* \"#utility.yul\":3441:3465   */\n      tag_86\n      jump\t// in\n    tag_144:\n        /* \"#utility.yul\":3434:3439   */\n      dup2\n        /* \"#utility.yul\":3431:3466   */\n      eq\n        /* \"#utility.yul\":3421:3484   */\n      tag_145\n      jumpi\n        /* \"#utility.yul\":3480:3481   */\n      0x00\n        /* \"#utility.yul\":3477:3478   */\n      dup1\n        /* \"#utility.yul\":3470:3482   */\n      revert\n        /* \"#utility.yul\":3421:3484   */\n    tag_145:\n        /* \"#utility.yul\":3368:3490   */\n      pop\n      jump\t// out\n        /* \"#utility.yul\":3496:3635   */\n    tag_92:\n        /* \"#utility.yul\":3542:3547   */\n      0x00\n        /* \"#utility.yul\":3580:3586   */\n      dup2\n        /* \"#utility.yul\":3567:3587   */\n      calldataload\n        /* \"#utility.yul\":3558:3587   */\n      swap1\n      pop\n        /* \"#utility.yul\":3596:3629   */\n      tag_147\n        /* \"#utility.yul\":3623:3628   */\n      dup2\n        /* \"#utility.yul\":3596:3629   */\n      tag_91\n      jump\t// in\n    tag_147:\n        /* \"#utility.yul\":3496:3635   */\n      swap3\n      swap2\n      pop\n      pop\n      jump\t// out\n        /* \"#utility.yul\":3641:3970   */\n    tag_37:\n        /* \"#utility.yul\":3700:3706   */\n      0x00\n        /* \"#utility.yul\":3749:3751   */\n      0x20\n        /* \"#utility.yul\":3737:3746   */\n      dup3\n        /* \"#utility.yul\":3728:3735   */\n      dup5\n        /* \"#utility.yul\":3724:3747   */\n      sub\n        /* \"#utility.yul\":3720:3752   */\n      slt\n        /* \"#utility.yul\":3717:3836   */\n      iszero\n      tag_149\n      jumpi\n        /* \"#utility.yul\":3755:3834   */\n      tag_150\n      tag_89\n      jump\t// in\n    tag_150:\n        /* \"#utility.yul\":3717:3836   */\n    tag_149:\n        /* \"#utility.yul\":3875:3876   */\n      0x00\n        /* \"#utility.yul\":3900:3953   */\n      tag_151\n        /* \"#utility.yul\":3945:3952   */\n      dup5\n        /* \"#utility.yul\":3936:3942   */\n      dup3\n        /* \"#utility.yul\":3925:3934   */\n      dup6\n        /* \"#utility.yul\":3921:3943   */\n      add\n        /* \"#utility.yul\":3900:3953   */\n      tag_92\n      jump\t// in\n    tag_151:\n        /* \"#utility.yul\":3890:3953   */\n      swap2\n      pop\n        /* \"#utility.yul\":3846:3963   */\n      pop\n        /* \"#utility.yul\":3641:3970   */\n      swap3\n      swap2\n      pop\n      pop\n      jump\t// out\n        /* \"#utility.yul\":3976:4156   */\n    tag_93:\n        /* \"#utility.yul\":4024:4101   */\n      0x4e487b7100000000000000000000000000000000000000000000000000000000\n        /* \"#utility.yul\":4021:4022   */\n      0x00\n        /* \"#utility.yul\":4014:4102   */\n      mstore\n        /* \"#utility.yul\":4121:4125   */\n      0x12\n        /* \"#utility.yul\":4118:4119   */\n      0x04\n        /* \"#utility.yul\":4111:4126   */\n      mstore\n        /* \"#utility.yul\":4145:4149   */\n      0x24\n        /* \"#utility.yul\":4142:4143   */\n      0x00\n        /* \"#utility.yul\":4135:4150   */\n      revert\n        /* \"#utility.yul\":4162:4338   */\n    tag_46:\n        /* \"#utility.yul\":4194:4195   */\n      0x00\n        /* \"#utility.yul\":4211:4231   */\n      tag_154\n        /* \"#utility.yul\":4229:4230   */\n      dup3\n        /* \"#utility.yul\":4211:4231   */\n      tag_86\n      jump\t// in\n    tag_154:\n        /* \"#utility.yul\":4206:4231   */\n      swap2\n      pop\n        /* \"#utility.yul\":4245:4265   */\n      tag_155\n        /* \"#utility.yul\":4263:4264   */\n      dup4\n        /* \"#utility.yul\":4245:4265   */\n      tag_86\n      jump\t// in\n    tag_155:\n        /* \"#utility.yul\":4240:4265   */\n      swap3\n      pop\n        /* \"#utility.yul\":4284:4285   */\n      dup3\n        /* \"#utility.yul\":4274:4309   */\n      tag_156\n      jumpi\n        /* \"#utility.yul\":4289:4307   */\n      tag_157\n      tag_93\n      jump\t// in\n    tag_157:\n        /* \"#utility.yul\":4274:4309   */\n    tag_156:\n        /* \"#utility.yul\":4330:4331   */\n      dup3\n        /* \"#utility.yul\":4327:4328   */\n      dup3\n        /* \"#utility.yul\":4323:4332   */\n      mod\n        /* \"#utility.yul\":4318:4332   */\n      swap1\n      pop\n        /* \"#utility.yul\":4162:4338   */\n      swap3\n      swap2\n      pop\n      pop\n      jump\t// out\n        /* \"#utility.yul\":4344:4524   */\n    tag_49:\n        /* \"#utility.yul\":4392:4469   */\n      0x4e487b7100000000000000000000000000000000000000000000000000000000\n        /* \"#utility.yul\":4389:4390   */\n      0x00\n        /* \"#utility.yul\":4382:4470   */\n      mstore\n        /* \"#utility.yul\":4489:4493   */\n      0x32\n        /* \"#utility.yul\":4486:4487   */\n      0x04\n        /* \"#utility.yul\":4479:4494   */\n      mstore\n        /* \"#utility.yul\":4513:4517   */\n      0x24\n        /* \"#utility.yul\":4510:4511   */\n      0x00\n        /* \"#utility.yul\":4503:4518   */\n      revert\n        /* \"#utility.yul\":4530:4710   */\n    tag_53:\n        /* \"#utility.yul\":4578:4655   */\n      0x4e487b7100000000000000000000000000000000000000000000000000000000\n        /* \"#utility.yul\":4575:4576   */\n      0x00\n        /* \"#utility.yul\":4568:4656   */\n      mstore\n        /* \"#utility.yul\":4675:4679   */\n      0x41\n        /* \"#utility.yul\":4672:4673   */\n      0x04\n        /* \"#utility.yul\":4665:4680   */\n      mstore\n        /* \"#utility.yul\":4699:4703   */\n      0x24\n        /* \"#utility.yul\":4696:4697   */\n      0x00\n        /* \"#utility.yul\":4689:4704   */\n      revert\n        /* \"#utility.yul\":4716:4896   */\n    tag_94:\n        /* \"#utility.yul\":4764:4841   */\n      0x4e487b7100000000000000000000000000000000000000000000000000000000\n        /* \"#utility.yul\":4761:4762   */\n      0x00\n        /* \"#utility.yul\":4754:4842   */\n      mstore\n        /* \"#utility.yul\":4861:4865   */\n      0x11\n        /* \"#utility.yul\":4858:4859   */\n      0x04\n        /* \"#utility.yul\":4851:4866   */\n      mstore\n        /* \"#utility.yul\":4885:4889   */\n      0x24\n        /* \"#utility.yul\":4882:4883   */\n      0x00\n        /* \"#utility.yul\":4875:4890   */\n      revert\n        /* \"#utility.yul\":4902:5135   */\n    tag_63:\n        /* \"#utility.yul\":4941:4944   */\n      0x00\n        /* \"#utility.yul\":4964:4988   */\n      tag_162\n        /* \"#utility.yul\":4982:4987   */\n      dup3\n        /* \"#utility.yul\":4964:4988   */\n      tag_86\n      jump\t// in\n    tag_162:\n        /* \"#utility.yul\":4955:4988   */\n      swap2\n      pop\n        /* \"#utility.yul\":5010:5076   */\n      0xffffffffffffffffffffffffffffffffffffffffffffffffffffffffffffffff\n        /* \"#utility.yul\":5003:5008   */\n      dup3\n        /* \"#utility.yul\":5000:5077   */\n      sub\n        /* \"#utility.yul\":4997:5100   */\n      tag_163\n      jumpi\n        /* \"#utility.yul\":5080:5098   */\n      tag_164\n      tag_94\n      jump\t// in\n    tag_164:\n        /* \"#utility.yul\":4997:5100   */\n    tag_163:\n        /* \"#utility.yul\":5127:5128   */\n      0x01\n        /* \"#utility.yul\":5120:5125   */\n      dup3\n        /* \"#utility.yul\":5116:5129   */\n      add\n        /* \"#utility.yul\":5109:5129   */\n      swap1\n      pop\n        /* \"#utility.yul\":4902:5135   */\n      swap2\n      swap1\n      pop\n      jump\t// out\n        /* \"#utility.yul\":5141:5220   */\n    tag_95:\n        /* \"#utility.yul\":5180:5187   */\n      0x00\n        /* \"#utility.yul\":5209:5214   */\n      dup2\n        /* \"#utility.yul\":5198:5214   */\n      swap1\n      pop\n        /* \"#utility.yul\":5141:5220   */\n      swap2\n      swap1\n      pop\n      jump\t// out\n        /* \"#utility.yul\":5226:5383   */\n    tag_96:\n        /* \"#utility.yul\":5331:5376   */\n      tag_167\n        /* \"#utility.yul\":5351:5375   */\n      tag_168\n        /* \"#utility.yul\":5369:5374   */\n      dup3\n        /* \"#utility.yul\":5351:5375   */\n      tag_86\n      jump\t// in\n    tag_168:\n        /* \"#utility.yul\":5331:5376   */\n      tag_95\n      jump\t// in\n    tag_167:\n        /* \"#utility.yul\":5326:5329   */\n      dup3\n        /* \"#utility.yul\":5319:5377   */\n      mstore\n        /* \"#utility.yul\":5226:5383   */\n      pop\n      pop\n      jump\t// out\n        /* \"#utility.yul\":5389:5500   */\n    tag_97:\n        /* \"#utility.yul\":5453:5459   */\n      0x00\n        /* \"#utility.yul\":5487:5492   */\n      dup2\n        /* \"#utility.yul\":5481:5493   */\n      sload\n        /* \"#utility.yul\":5471:5493   */\n      swap1\n      pop\n        /* \"#utility.yul\":5389:5500   */\n      swap2\n      swap1\n      pop\n      jump\t// out\n        /* \"#utility.yul\":5506:5669   */\n    tag_98:\n        /* \"#utility.yul\":5623:5634   */\n      0x00\n        /* \"#utility.yul\":5660:5663   */\n      dup2\n        /* \"#utility.yul\":5645:5663   */\n      swap1\n      pop\n        /* \"#utility.yul\":5506:5669   */\n      swap3\n      swap2\n      pop\n      pop\n      jump\t// out\n        /* \"#utility.yul\":5675:5831   */\n    tag_99:\n        /* \"#utility.yul\":5739:5743   */\n      0x00\n        /* \"#utility.yul\":5762:5765   */\n      dup2\n        /* \"#utility.yul\":5754:5765   */\n      swap1\n      pop\n        /* \"#utility.yul\":5785:5788   */\n      dup2\n        /* \"#utility.yul\":5782:5783   */\n      0x00\n        /* \"#utility.yul\":5775:5789   */\n      mstore\n        /* \"#utility.yul\":5819:5823   */\n      0x20\n        /* \"#utility.yul\":5816:5817   */\n      0x00\n        /* \"#utility.yul\":5806:5824   */\n      keccak256\n        /* \"#utility.yul\":5798:5824   */\n      swap1\n      pop\n        /* \"#utility.yul\":5675:5831   */\n      swap2\n      swap1\n      pop\n      jump\t// out\n        /* \"#utility.yul\":5837:5953   */\n    tag_100:\n        /* \"#utility.yul\":5922:5946   */\n      tag_173\n        /* \"#utility.yul\":5940:5945   */\n      dup2\n        /* \"#utility.yul\":5922:5946   */\n      tag_77\n      jump\t// in\n    tag_173:\n        /* \"#utility.yul\":5917:5920   */\n      dup3\n        /* \"#utility.yul\":5910:5947   */\n      mstore\n        /* \"#utility.yul\":5837:5953   */\n      pop\n      pop\n      jump\t// out\n        /* \"#utility.yul\":5959:6154   */\n    tag_101:\n        /* \"#utility.yul\":6036:6046   */\n      0x00\n        /* \"#utility.yul\":6057:6111   */\n      tag_175\n        /* \"#utility.yul\":6107:6110   */\n      dup4\n        /* \"#utility.yul\":6099:6105   */\n      dup4\n        /* \"#utility.yul\":6057:6111   */\n      tag_100\n      jump\t// in\n    tag_175:\n        /* \"#utility.yul\":6143:6147   */\n      0x20\n        /* \"#utility.yul\":6138:6141   */\n      dup4\n        /* \"#utility.yul\":6134:6148   */\n      add\n        /* \"#utility.yul\":6120:6148   */\n      swap1\n      pop\n        /* \"#utility.yul\":5959:6154   */\n      swap3\n      swap2\n      pop\n      pop\n      jump\t// out\n        /* \"#utility.yul\":6160:6262   */\n    tag_102:\n        /* \"#utility.yul\":6202:6210   */\n      0x00\n        /* \"#utility.yul\":6249:6254   */\n      dup2\n        /* \"#utility.yul\":6246:6247   */\n      0x00\n        /* \"#utility.yul\":6242:6255   */\n      shr\n        /* \"#utility.yul\":6221:6255   */\n      swap1\n      pop\n        /* \"#utility.yul\":6160:6262   */\n      swap2\n      swap1\n      pop\n      jump\t// out\n        /* \"#utility.yul\":6268:6407   */\n    tag_103:\n        /* \"#utility.yul\":6318:6325   */\n      0x00\n        /* \"#utility.yul\":6358:6400   */\n      0xffffffffffffffffffffffffffffffffffffffff\n        /* \"#utility.yul\":6351:6356   */\n      dup3\n        /* \"#utility.yul\":6347:6401   */\n      and\n        /* \"#utility.yul\":6336:6401   */\n      swap1\n      pop\n        /* \"#utility.yul\":6268:6407   */\n      swap2\n      swap1\n      pop\n      jump\t// out\n        /* \"#utility.yul\":6413:6579   */\n    tag_104:\n        /* \"#utility.yul\":6482:6487   */\n      0x00\n        /* \"#utility.yul\":6507:6573   */\n      tag_179\n        /* \"#utility.yul\":6538:6572   */\n      tag_180\n        /* \"#utility.yul\":6561:6571   */\n      dup4\n        /* \"#utility.yul\":6538:6572   */\n      tag_102\n      jump\t// in\n    tag_180:\n        /* \"#utility.yul\":6507:6573   */\n      tag_103\n      jump\t// in\n    tag_179:\n        /* \"#utility.yul\":6498:6573   */\n      swap1\n      pop\n        /* \"#utility.yul\":6413:6579   */\n      swap2\n      swap1\n      pop\n      jump\t// out\n        /* \"#utility.yul\":6585:6729   */\n    tag_105:\n        /* \"#utility.yul\":6640:6645   */\n      0x00\n        /* \"#utility.yul\":6665:6722   */\n      tag_182\n        /* \"#utility.yul\":6716:6720   */\n      dup3\n        /* \"#utility.yul\":6710:6721   */\n      sload\n        /* \"#utility.yul\":6665:6722   */\n      tag_104\n      jump\t// in\n    tag_182:\n        /* \"#utility.yul\":6656:6722   */\n      swap1\n      pop\n        /* \"#utility.yul\":6585:6729   */\n      swap2\n      swap1\n      pop\n      jump\t// out\n        /* \"#utility.yul\":6735:6845   */\n    tag_106:\n        /* \"#utility.yul\":6802:6806   */\n      0x00\n        /* \"#utility.yul\":6834:6838   */\n      0x01\n        /* \"#utility.yul\":6829:6832   */\n      dup3\n        /* \"#utility.yul\":6825:6839   */\n      add\n        /* \"#utility.yul\":6817:6839   */\n      swap1\n      pop\n        /* \"#utility.yul\":6735:6845   */\n      swap2\n      swap1\n      pop\n      jump\t// out\n        /* \"#utility.yul\":6881:7676   */\n    tag_107:\n        /* \"#utility.yul\":7015:7018   */\n      0x00\n        /* \"#utility.yul\":7044:7095   */\n      tag_185\n        /* \"#utility.yul\":7089:7094   */\n      dup3\n        /* \"#utility.yul\":7044:7095   */\n      tag_97\n      jump\t// in\n    tag_185:\n        /* \"#utility.yul\":7111:7215   */\n      tag_186\n        /* \"#utility.yul\":7208:7214   */\n      dup2\n        /* \"#utility.yul\":7203:7206   */\n      dup6\n        /* \"#utility.yul\":7111:7215   */\n      tag_98\n      jump\t// in\n    tag_186:\n        /* \"#utility.yul\":7104:7215   */\n      swap4\n      pop\n        /* \"#utility.yul\":7239:7292   */\n      tag_187\n        /* \"#utility.yul\":7286:7291   */\n      dup4\n        /* \"#utility.yul\":7239:7292   */\n      tag_99\n      jump\t// in\n    tag_187:\n        /* \"#utility.yul\":7315:7322   */\n      dup1\n        /* \"#utility.yul\":7346:7347   */\n      0x00\n        /* \"#utility.yul\":7331:7651   */\n    tag_188:\n        /* \"#utility.yul\":7356:7362   */\n      dup4\n        /* \"#utility.yul\":7353:7354   */\n      dup2\n        /* \"#utility.yul\":7350:7363   */\n      lt\n        /* \"#utility.yul\":7331:7651   */\n      iszero\n      tag_190\n      jumpi\n        /* \"#utility.yul\":7426:7470   */\n      tag_191\n        /* \"#utility.yul\":7463:7469   */\n      dup3\n        /* \"#utility.yul\":7426:7470   */\n      tag_105\n      jump\t// in\n    tag_191:\n        /* \"#utility.yul\":7490:7561   */\n      tag_192\n        /* \"#utility.yul\":7557:7560   */\n      dup9\n        /* \"#utility.yul\":7542:7555   */\n      dup3\n        /* \"#utility.yul\":7490:7561   */\n      tag_101\n      jump\t// in\n    tag_192:\n        /* \"#utility.yul\":7483:7561   */\n      swap8\n      pop\n        /* \"#utility.yul\":7584:7641   */\n      tag_193\n        /* \"#utility.yul\":7634:7640   */\n      dup4\n        /* \"#utility.yul\":7584:7641   */\n      tag_106\n      jump\t// in\n    tag_193:\n        /* \"#utility.yul\":7574:7641   */\n      swap3\n      pop\n        /* \"#utility.yul\":7391:7651   */\n      pop\n        /* \"#utility.yul\":7378:7379   */\n      0x01\n        /* \"#utility.yul\":7375:7376   */\n      dup2\n        /* \"#utility.yul\":7371:7380   */\n      add\n        /* \"#utility.yul\":7366:7380   */\n      swap1\n      pop\n        /* \"#utility.yul\":7331:7651   */\n      jump(tag_188)\n    tag_190:\n        /* \"#utility.yul\":7335:7349   */\n      pop\n        /* \"#utility.yul\":7667:7670   */\n      dup6\n        /* \"#utility.yul\":7660:7670   */\n      swap4\n      pop\n        /* \"#utility.yul\":7020:7676   */\n      pop\n      pop\n      pop\n        /* \"#utility.yul\":6881:7676   */\n      swap3\n      swap2\n      pop\n      pop\n      jump\t// out\n        /* \"#utility.yul\":7682:8293   */\n    tag_68:\n        /* \"#utility.yul\":7897:7900   */\n      0x00\n        /* \"#utility.yul\":7912:7987   */\n      tag_195\n        /* \"#utility.yul\":7983:7986   */\n      dup3\n        /* \"#utility.yul\":7974:7980   */\n      dup7\n        /* \"#utility.yul\":7912:7987   */\n      tag_96\n      jump\t// in\n    tag_195:\n        /* \"#utility.yul\":8012:8014   */\n      0x20\n        /* \"#utility.yul\":8007:8010   */\n      dup3\n        /* \"#utility.yul\":8003:8015   */\n      add\n        /* \"#utility.yul\":7996:8015   */\n      swap2\n      pop\n        /* \"#utility.yul\":8025:8100   */\n      tag_196\n        /* \"#utility.yul\":8096:8099   */\n      dup3\n        /* \"#utility.yul\":8087:8093   */\n      dup6\n        /* \"#utility.yul\":8025:8100   */\n      tag_96\n      jump\t// in\n    tag_196:\n        /* \"#utility.yul\":8125:8127   */\n      0x20\n        /* \"#utility.yul\":8120:8123   */\n      dup3\n        /* \"#utility.yul\":8116:8128   */\n      add\n        /* \"#utility.yul\":8109:8128   */\n      swap2\n      pop\n        /* \"#utility.yul\":8145:8267   */\n      tag_197\n        /* \"#utility.yul\":8263:8266   */\n      dup3\n        /* \"#utility.yul\":8254:8260   */\n      dup5\n        /* \"#utility.yul\":8145:8267   */\n      tag_107\n      jump\t// in\n    tag_197:\n        /* \"#utility.yul\":8138:8267   */\n      swap2\n      pop\n        /* \"#utility.yul\":8284:8287   */\n      dup2\n        /* \"#utility.yul\":8277:8287   */\n      swap1\n      pop\n        /* \"#utility.yul\":7682:8293   */\n      swap5\n      swap4\n      pop\n      pop\n      pop\n      pop\n      jump\t// out\n\n    auxdata: 0xa26469706673582212209f6a6128d3d892051f29fb56d9e7d6a45b3ccc8748bcd625e55a1340d068563364736f6c63430008110033\n}\n","bytecode":{"linkReferences":{},"object":"608060405234801561001057600080fd5b50336000806101000a81548173ffffffffffffffffffffffffffffffffffffffff021916908373ffffffffffffffffffffffffffffffffffffffff1602179055506109fd806100606000396000f3fe6080604052600436106100705760003560e01c8063a3f67d6d1161004e578063a3f67d6d146100e2578063dfbf53ae1461010d578063e97dcb6214610138578063f71d96cb1461014257610070565b8063481c6a75146100755780635d495aea146100a05780638b5b9ccc146100b7575b600080fd5b34801561008157600080fd5b5061008a61017f565b604051610097919061058d565b60405180910390f35b3480156100ac57600080fd5b506100b56101a3565b005b3480156100c357600080fd5b506100cc6102f9565b6040516100d99190610666565b60405180910390f35b3480156100ee57600080fd5b506100f7610387565b60405161010491906106a1565b60405180910390f35b34801561011957600080fd5b5061012261038d565b60405161012f919061058d565b60405180910390f35b6101406103b3565b005b34801561014e57600080fd5b50610169600480360381019061016491906106ed565b610430565b604051610176919061058d565b60405180910390f35b60008054906101000a900473ffffffffffffffffffffffffffffffffffffffff1681565b60008054906101000a900473ffffffffffffffffffffffffffffffffffffffff1673ffffffffffffffffffffffffffffffffffffffff163373ffffffffffffffffffffffffffffffffffffffff16146101fb57600080fd5b600060018054905061020b61046f565b6102159190610749565b90506001818154811061022b5761022a61077a565b5b9060005260206000200160009054906101000a900473ffffffffffffffffffffffffffffffffffffffff16600260006101000a81548173ffffffffffffffffffffffffffffffffffffffff021916908373ffffffffffffffffffffffffffffffffffffffff160217905550600067ffffffffffffffff8111156102b1576102b06107a9565b5b6040519080825280602002602001820160405280156102df5781602001602082028036833780820191505090505b50600190805190602001906102f59291906104a5565b5050565b6060600180548060200260200160405190810160405280929190818152602001828054801561037d57602002820191906000526020600020905b8160009054906101000a900473ffffffffffffffffffffffffffffffffffffffff1673ffffffffffffffffffffffffffffffffffffffff1681526020019060010190808311610333575b5050505050905090565b60035481565b600260009054906101000a900473ffffffffffffffffffffffffffffffffffffffff1681565b6001339080600181540180825580915050600190039060005260206000200160009091909190916101000a81548173ffffffffffffffffffffffffffffffffffffffff021916908373ffffffffffffffffffffffffffffffffffffffff1602179055506003600081548092919061042990610807565b9190505550565b6001818154811061044057600080fd5b906000526020600020016000915054906101000a900473ffffffffffffffffffffffffffffffffffffffff1681565b6000444260016040516020016104879392919061098e565b6040516020818303038152906040528051906020012060001c905090565b82805482825590600052602060002090810192821561051e579160200282015b8281111561051d5782518260006101000a81548173ffffffffffffffffffffffffffffffffffffffff021916908373ffffffffffffffffffffffffffffffffffffffff160217905550916020019190600101906104c5565b5b50905061052b919061052f565b5090565b5b80821115610548576000816000905550600101610530565b5090565b600073ffffffffffffffffffffffffffffffffffffffff82169050919050565b60006105778261054c565b9050919050565b6105878161056c565b82525050565b60006020820190506105a2600083018461057e565b92915050565b600081519050919050565b600082825260208201905092915050565b6000819050602082019050919050565b6105dd8161056c565b82525050565b60006105ef83836105d4565b60208301905092915050565b6000602082019050919050565b6000610613826105a8565b61061d81856105b3565b9350610628836105c4565b8060005b8381101561065957815161064088826105e3565b975061064b836105fb565b92505060018101905061062c565b5085935050505092915050565b600060208201905081810360008301526106808184610608565b905092915050565b6000819050919050565b61069b81610688565b82525050565b60006020820190506106b66000830184610692565b92915050565b600080fd5b6106ca81610688565b81146106d557600080fd5b50565b6000813590506106e7816106c1565b92915050565b600060208284031215610703576107026106bc565b5b6000610711848285016106d8565b91505092915050565b7f4e487b7100000000000000000000000000000000000000000000000000000000600052601260045260246000fd5b600061075482610688565b915061075f83610688565b92508261076f5761076e61071a565b5b828206905092915050565b7f4e487b7100000000000000000000000000000000000000000000000000000000600052603260045260246000fd5b7f4e487b7100000000000000000000000000000000000000000000000000000000600052604160045260246000fd5b7f4e487b7100000000000000000000000000000000000000000000000000000000600052601160045260246000fd5b600061081282610688565b91507fffffffffffffffffffffffffffffffffffffffffffffffffffffffffffffffff8203610844576108436107d8565b5b600182019050919050565b6000819050919050565b61086a61086582610688565b61084f565b82525050565b600081549050919050565b600081905092915050565b60008190508160005260206000209050919050565b6108a48161056c565b82525050565b60006108b6838361089b565b60208301905092915050565b60008160001c9050919050565b600073ffffffffffffffffffffffffffffffffffffffff82169050919050565b60006109026108fd836108c2565b6108cf565b9050919050565b600061091582546108ef565b9050919050565b6000600182019050919050565b600061093482610870565b61093e818561087b565b935061094983610886565b8060005b838110156109815761095e82610909565b61096888826108aa565b97506109738361091c565b92505060018101905061094d565b5085935050505092915050565b600061099a8286610859565b6020820191506109aa8285610859565b6020820191506109ba8284610929565b915081905094935050505056fea26469706673582212209f6a6128d3d892051f29fb56d9e7d6a45b3ccc8748bcd625e55a1340d068563364736f6c63430008110033","opcodes":"PUSH1 0x80 PUSH1 0x40 MSTORE CALLVALUE DUP1 ISZERO PUSH2 0x10 JUMPI PUSH1 0x0 DUP1 REVERT JUMPDEST POP CALLER PUSH1 0x0 DUP1 PUSH2 0x100 EXP DUP2 SLOAD DUP2 PUSH20 0xFFFFFFFFFFFFFFFFFFFFFFFFFFFFFFFFFFFFFFFF MUL NOT AND SWAP1 DUP4 PUSH20 0xFFFFFFFFFFFFFFFFFFFFFFFFFFFFFFFFFFFFFFFF AND MUL OR SWAP1 SSTORE POP PUSH2 0x9FD DUP1 PUSH2 0x60 PUSH1 0x0 CODECOPY PUSH1 0x0 RETURN INVALID PUSH1 0x80 PUSH1 0x40 MSTORE PUSH1 0x4 CALLDATASIZE LT PUSH2 0x70 JUMPI PUSH1 0x0 CALLDATALOAD PUSH1 0xE0 SHR DUP1 PUSH4 0xA3F67D6D GT PUSH2 0x4E JUMPI DUP1 PUSH4 0xA3F67D6D EQ PUSH2 0xE2 JUMPI DUP1 PUSH4 0xDFBF53AE EQ PUSH2 0x10D JUMPI DUP1 PUSH4 0xE97DCB62 EQ PUSH2 0x138 JUMPI DUP1 PUSH4 0xF71D96CB EQ PUSH2 0x142 JUMPI PUSH2 0x70 JUMP JUMPDEST DUP1 PUSH4 0x481C6A75 EQ PUSH2 0x75 JUMPI DUP1 PUSH4 0x5D495AEA EQ PUSH2 0xA0 JUMPI DUP1 PUSH4 0x8B5B9CCC EQ PUSH2 0xB7 JUMPI JUMPDEST PUSH1 0x0 DUP1 REVERT JUMPDEST CALLVALUE DUP1 ISZERO PUSH2 0x81 JUMPI PUSH1 0x0 DUP1 REVERT JUMPDEST POP PUSH2 0x8A PUSH2 0x17F JUMP JUMPDEST PUSH1 0x40 MLOAD PUSH2 0x97 SWAP2 SWAP1 PUSH2 0x58D JUMP JUMPDEST PUSH1 0x40 MLOAD DUP1 SWAP2 SUB SWAP1 RETURN JUMPDEST CALLVALUE DUP1 ISZERO PUSH2 0xAC JUMPI PUSH1 0x0 DUP1 REVERT JUMPDEST POP PUSH2 0xB5 PUSH2 0x1A3 JUMP JUMPDEST STOP JUMPDEST CALLVALUE DUP1 ISZERO PUSH2 0xC3 JUMPI PUSH1 0x0 DUP1 REVERT JUMPDEST POP PUSH2 0xCC PUSH2 0x2F9 JUMP JUMPDEST PUSH1 0x40 MLOAD PUSH2 0xD9 SWAP2 SWAP1 PUSH2 0x666 JUMP JUMPDEST PUSH1 0x40 MLOAD DUP1 SWAP2 SUB SWAP1 RETURN JUMPDEST CALLVALUE DUP1 ISZERO PUSH2 0xEE JUMPI PUSH1 0x0 DUP1 REVERT JUMPDEST POP PUSH2 0xF7 PUSH2 0x387 JUMP JUMPDEST PUSH1 0x40 MLOAD PUSH2 0x104 SWAP2 SWAP1 PUSH2 0x6A1 JUMP JUMPDEST PUSH1 0x40 MLOAD DUP1 SWAP2 SUB SWAP1 RETURN JUMPDEST CALLVALUE DUP1 ISZERO PUSH2 0x119 JUMPI PUSH1 0x0 DUP1 REVERT JUMPDEST POP PUSH2 0x122 PUSH2 0x38D JUMP JUMPDEST PUSH1 0x40 MLOAD PUSH2 0x12F SWAP2 SWAP1 PUSH2 0x58D JUMP JUMPDEST PUSH1 0x40 MLOAD DUP1 SWAP2 SUB SWAP1 RETURN JUMPDEST PUSH2 0x140 PUSH2 0x3B3 JUMP JUMPDEST STOP JUMPDEST CALLVALUE DUP1 ISZERO PUSH2 0x14E JUMPI PUSH1 0x0 DUP1 REVERT JUMPDEST POP PUSH2 0x169 PUSH1 0x4 DUP1 CALLDATASIZE SUB DUP2 ADD SWAP1 PUSH2 0x164 SWAP2 SWAP1 PUSH2 0x6ED JUMP JUMPDEST PUSH2 0x430 JUMP JUMPDEST PUSH1 0x40 MLOAD PUSH2 0x176 SWAP2 SWAP1 PUSH2 0x58D JUMP JUMPDEST PUSH1 0x40 MLOAD DUP1 SWAP2 SUB SWAP1 RETURN JUMPDEST PUSH1 0x0 DUP1 SLOAD SWAP1 PUSH2 0x100 EXP SWAP1 DIV PUSH20 0xFFFFFFFFFFFFFFFFFFFFFFFFFFFFFFFFFFFFFFFF AND DUP2 JUMP JUMPDEST PUSH1 0x0 DUP1 SLOAD SWAP1 PUSH2 0x100 EXP SWAP1 DIV PUSH20 0xFFFFFFFFFFFFFFFFFFFFFFFFFFFFFFFFFFFFFFFF AND PUSH20 0xFFFFFFFFFFFFFFFFFFFFFFFFFFFFFFFFFFFFFFFF AND CALLER PUSH20 0xFFFFFFFFFFFFFFFFFFFFFFFFFFFFFFFFFFFFFFFF AND EQ PUSH2 0x1FB JUMPI PUSH1 0x0 DUP1 REVERT JUMPDEST PUSH1 0x0 PUSH1 0x1 DUP1 SLOAD SWAP1 POP PUSH2 0x20B PUSH2 0x46F JUMP JUMPDEST PUSH2 0x215 SWAP2 SWAP1 PUSH2 0x749 JUMP JUMPDEST SWAP1 POP PUSH1 0x1 DUP2 DUP2 SLOAD DUP2 LT PUSH2 0x22B JUMPI PUSH2 0x22A PUSH2 0x77A JUMP JUMPDEST JUMPDEST SWAP1 PUSH1 0x0 MSTORE PUSH1 0x20 PUSH1 0x0 KECCAK256 ADD PUSH1 0x0 SWAP1 SLOAD SWAP1 PUSH2 0x100 EXP SWAP1 DIV PUSH20 0xFFFFFFFFFFFFFFFFFFFFFFFFFFFFFFFFFFFFFFFF AND PUSH1 0x2 PUSH1 0x0 PUSH2 0x100 EXP DUP2 SLOAD DUP2 PUSH20 0xFFFFFFFFFFFFFFFFFFFFFFFFFFFFFFFFFFFFFFFF MUL NOT AND SWAP1 DUP4 PUSH20 0xFFFFFFFFFFFFFFFFFFFFFFFFFFFFFFFFFFFFFFFF AND MUL OR SWAP1 SSTORE POP PUSH1 0x0 PUSH8 0xFFFFFFFFFFFFFFFF DUP2 GT ISZERO PUSH2 0x2B1 JUMPI PUSH2 0x2B0 PUSH2 0x7A9 JUMP JUMPDEST JUMPDEST PUSH1 0x40 MLOAD SWAP1 DUP1 DUP3 MSTORE DUP1 PUSH1 0x20 MUL PUSH1 0x20 ADD DUP3 ADD PUSH1 0x40 MSTORE DUP1 ISZERO PUSH2 0x2DF JUMPI DUP2 PUSH1 0x20 ADD PUSH1 0x20 DUP3 MUL DUP1 CALLDATASIZE DUP4 CALLDATACOPY DUP1 DUP3 ADD SWAP2 POP POP SWAP1 POP JUMPDEST POP PUSH1 0x1 SWAP1 DUP1 MLOAD SWAP1 PUSH1 0x20 ADD SWAP1 PUSH2 0x2F5 SWAP3 SWAP2 SWAP1 PUSH2 0x4A5 JUMP JUMPDEST POP POP JUMP JUMPDEST PUSH1 0x60 PUSH1 0x1 DUP1 SLOAD DUP1 PUSH1 0x20 MUL PUSH1 0x20 ADD PUSH1 0x40 MLOAD SWAP1 DUP2 ADD PUSH1 0x40 MSTORE DUP1 SWAP3 SWAP2 SWAP1 DUP2 DUP2 MSTORE PUSH1 0x20 ADD DUP3 DUP1 SLOAD DUP1 ISZERO PUSH2 0x37D JUMPI PUSH1 0x20 MUL DUP3 ADD SWAP2 SWAP1 PUSH1 0x0 MSTORE PUSH1 0x20 PUSH1 0x0 KECCAK256 SWAP1 JUMPDEST DUP2 PUSH1 0x0 SWAP1 SLOAD SWAP1 PUSH2 0x100 EXP SWAP1 DIV PUSH20 0xFFFFFFFFFFFFFFFFFFFFFFFFFFFFFFFFFFFFFFFF AND PUSH20 0xFFFFFFFFFFFFFFFFFFFFFFFFFFFFFFFFFFFFFFFF AND DUP2 MSTORE PUSH1 0x20 ADD SWAP1 PUSH1 0x1 ADD SWAP1 DUP1 DUP4 GT PUSH2 0x333 JUMPI JUMPDEST POP POP POP POP POP SWAP1 POP SWAP1 JUMP JUMPDEST PUSH1 0x3 SLOAD DUP2 JUMP JUMPDEST PUSH1 0x2 PUSH1 0x0 SWAP1 SLOAD SWAP1 PUSH2 0x100 EXP SWAP1 DIV PUSH20 0xFFFFFFFFFFFFFFFFFFFFFFFFFFFFFFFFFFFFFFFF AND DUP2 JUMP JUMPDEST PUSH1 0x1 CALLER SWAP1 DUP1 PUSH1 0x1 DUP2 SLOAD ADD DUP1 DUP3 SSTORE DUP1 SWAP2 POP POP PUSH1 0x1 SWAP1 SUB SWAP1 PUSH1 0x0 MSTORE PUSH1 0x20 PUSH1 0x0 KECCAK256 ADD PUSH1 0x0 SWAP1 SWAP2 SWAP1 SWAP2 SWAP1 SWAP2 PUSH2 0x100 EXP DUP2 SLOAD DUP2 PUSH20 0xFFFFFFFFFFFFFFFFFFFFFFFFFFFFFFFFFFFFFFFF MUL NOT AND SWAP1 DUP4 PUSH20 0xFFFFFFFFFFFFFFFFFFFFFFFFFFFFFFFFFFFFFFFF AND MUL OR SWAP1 SSTORE POP PUSH1 0x3 PUSH1 0x0 DUP2 SLOAD DUP1 SWAP3 SWAP2 SWAP1 PUSH2 0x429 SWAP1 PUSH2 0x807 JUMP JUMPDEST SWAP2 SWAP1 POP SSTORE POP JUMP JUMPDEST PUSH1 0x1 DUP2 DUP2 SLOAD DUP2 LT PUSH2 0x440 JUMPI PUSH1 0x0 DUP1 REVERT JUMPDEST SWAP1 PUSH1 0x0 MSTORE PUSH1 0x20 PUSH1 0x0 KECCAK256 ADD PUSH1 0x0 SWAP2 POP SLOAD SWAP1 PUSH2 0x100 EXP SWAP1 DIV PUSH20 0xFFFFFFFFFFFFFFFFFFFFFFFFFFFFFFFFFFFFFFFF AND DUP2 JUMP JUMPDEST PUSH1 0x0 DIFFICULTY TIMESTAMP PUSH1 0x1 PUSH1 0x40 MLOAD PUSH1 0x20 ADD PUSH2 0x487 SWAP4 SWAP3 SWAP2 SWAP1 PUSH2 0x98E JUMP JUMPDEST PUSH1 0x40 MLOAD PUSH1 0x20 DUP2 DUP4 SUB SUB DUP2 MSTORE SWAP1 PUSH1 0x40 MSTORE DUP1 MLOAD SWAP1 PUSH1 0x20 ADD KECCAK256 PUSH1 0x0 SHR SWAP1 POP SWAP1 JUMP JUMPDEST DUP3 DUP1 SLOAD DUP3 DUP3 SSTORE SWAP1 PUSH1 0x0 MSTORE PUSH1 0x20 PUSH1 0x0 KECCAK256 SWAP1 DUP2 ADD SWAP3 DUP3 ISZERO PUSH2 0x51E JUMPI SWAP2 PUSH1 0x20 MUL DUP3 ADD JUMPDEST DUP3 DUP2 GT ISZERO PUSH2 0x51D JUMPI DUP3 MLOAD DUP3 PUSH1 0x0 PUSH2 0x100 EXP DUP2 SLOAD DUP2 PUSH20 0xFFFFFFFFFFFFFFFFFFFFFFFFFFFFFFFFFFFFFFFF MUL NOT AND SWAP1 DUP4 PUSH20 0xFFFFFFFFFFFFFFFFFFFFFFFFFFFFFFFFFFFFFFFF AND MUL OR SWAP1 SSTORE POP SWAP2 PUSH1 0x20 ADD SWAP2 SWAP1 PUSH1 0x1 ADD SWAP1 PUSH2 0x4C5 JUMP JUMPDEST JUMPDEST POP SWAP1 POP PUSH2 0x52B SWAP2 SWAP1 PUSH2 0x52F JUMP JUMPDEST POP SWAP1 JUMP JUMPDEST JUMPDEST DUP1 DUP3 GT ISZERO PUSH2 0x548 JUMPI PUSH1 0x0 DUP2 PUSH1 0x0 SWAP1 SSTORE POP PUSH1 0x1 ADD PUSH2 0x530 JUMP JUMPDEST POP SWAP1 JUMP JUMPDEST PUSH1 0x0 PUSH20 0xFFFFFFFFFFFFFFFFFFFFFFFFFFFFFFFFFFFFFFFF DUP3 AND SWAP1 POP SWAP2 SWAP1 POP JUMP JUMPDEST PUSH1 0x0 PUSH2 0x577 DUP3 PUSH2 0x54C JUMP JUMPDEST SWAP1 POP SWAP2 SWAP1 POP JUMP JUMPDEST PUSH2 0x587 DUP2 PUSH2 0x56C JUMP JUMPDEST DUP3 MSTORE POP POP JUMP JUMPDEST PUSH1 0x0 PUSH1 0x20 DUP3 ADD SWAP1 POP PUSH2 0x5A2 PUSH1 0x0 DUP4 ADD DUP5 PUSH2 0x57E JUMP JUMPDEST SWAP3 SWAP2 POP POP JUMP JUMPDEST PUSH1 0x0 DUP2 MLOAD SWAP1 POP SWAP2 SWAP1 POP JUMP JUMPDEST PUSH1 0x0 DUP3 DUP3 MSTORE PUSH1 0x20 DUP3 ADD SWAP1 POP SWAP3 SWAP2 POP POP JUMP JUMPDEST PUSH1 0x0 DUP2 SWAP1 POP PUSH1 0x20 DUP3 ADD SWAP1 POP SWAP2 SWAP1 POP JUMP JUMPDEST PUSH2 0x5DD DUP2 PUSH2 0x56C JUMP JUMPDEST DUP3 MSTORE POP POP JUMP JUMPDEST PUSH1 0x0 PUSH2 0x5EF DUP4 DUP4 PUSH2 0x5D4 JUMP JUMPDEST PUSH1 0x20 DUP4 ADD SWAP1 POP SWAP3 SWAP2 POP POP JUMP JUMPDEST PUSH1 0x0 PUSH1 0x20 DUP3 ADD SWAP1 POP SWAP2 SWAP1 POP JUMP JUMPDEST PUSH1 0x0 PUSH2 0x613 DUP3 PUSH2 0x5A8 JUMP JUMPDEST PUSH2 0x61D DUP2 DUP6 PUSH2 0x5B3 JUMP JUMPDEST SWAP4 POP PUSH2 0x628 DUP4 PUSH2 0x5C4 JUMP JUMPDEST DUP1 PUSH1 0x0 JUMPDEST DUP4 DUP2 LT ISZERO PUSH2 0x659 JUMPI DUP2 MLOAD PUSH2 0x640 DUP9 DUP3 PUSH2 0x5E3 JUMP JUMPDEST SWAP8 POP PUSH2 0x64B DUP4 PUSH2 0x5FB JUMP JUMPDEST SWAP3 POP POP PUSH1 0x1 DUP2 ADD SWAP1 POP PUSH2 0x62C JUMP JUMPDEST POP DUP6 SWAP4 POP POP POP POP SWAP3 SWAP2 POP POP JUMP JUMPDEST PUSH1 0x0 PUSH1 0x20 DUP3 ADD SWAP1 POP DUP2 DUP2 SUB PUSH1 0x0 DUP4 ADD MSTORE PUSH2 0x680 DUP2 DUP5 PUSH2 0x608 JUMP JUMPDEST SWAP1 POP SWAP3 SWAP2 POP POP JUMP JUMPDEST PUSH1 0x0 DUP2 SWAP1 POP SWAP2 SWAP1 POP JUMP JUMPDEST PUSH2 0x69B DUP2 PUSH2 0x688 JUMP JUMPDEST DUP3 MSTORE POP POP JUMP JUMPDEST PUSH1 0x0 PUSH1 0x20 DUP3 ADD SWAP1 POP PUSH2 0x6B6 PUSH1 0x0 DUP4 ADD DUP5 PUSH2 0x692 JUMP JUMPDEST SWAP3 SWAP2 POP POP JUMP JUMPDEST PUSH1 0x0 DUP1 REVERT JUMPDEST PUSH2 0x6CA DUP2 PUSH2 0x688 JUMP JUMPDEST DUP2 EQ PUSH2 0x6D5 JUMPI PUSH1 0x0 DUP1 REVERT JUMPDEST POP JUMP JUMPDEST PUSH1 0x0 DUP2 CALLDATALOAD SWAP1 POP PUSH2 0x6E7 DUP2 PUSH2 0x6C1 JUMP JUMPDEST SWAP3 SWAP2 POP POP JUMP JUMPDEST PUSH1 0x0 PUSH1 0x20 DUP3 DUP5 SUB SLT ISZERO PUSH2 0x703 JUMPI PUSH2 0x702 PUSH2 0x6BC JUMP JUMPDEST JUMPDEST PUSH1 0x0 PUSH2 0x711 DUP5 DUP3 DUP6 ADD PUSH2 0x6D8 JUMP JUMPDEST SWAP2 POP POP SWAP3 SWAP2 POP POP JUMP JUMPDEST PUSH32 0x4E487B7100000000000000000000000000000000000000000000000000000000 PUSH1 0x0 MSTORE PUSH1 0x12 PUSH1 0x4 MSTORE PUSH1 0x24 PUSH1 0x0 REVERT JUMPDEST PUSH1 0x0 PUSH2 0x754 DUP3 PUSH2 0x688 JUMP JUMPDEST SWAP2 POP PUSH2 0x75F DUP4 PUSH2 0x688 JUMP JUMPDEST SWAP3 POP DUP3 PUSH2 0x76F JUMPI PUSH2 0x76E PUSH2 0x71A JUMP JUMPDEST JUMPDEST DUP3 DUP3 MOD SWAP1 POP SWAP3 SWAP2 POP POP JUMP JUMPDEST PUSH32 0x4E487B7100000000000000000000000000000000000000000000000000000000 PUSH1 0x0 MSTORE PUSH1 0x32 PUSH1 0x4 MSTORE PUSH1 0x24 PUSH1 0x0 REVERT JUMPDEST PUSH32 0x4E487B7100000000000000000000000000000000000000000000000000000000 PUSH1 0x0 MSTORE PUSH1 0x41 PUSH1 0x4 MSTORE PUSH1 0x24 PUSH1 0x0 REVERT JUMPDEST PUSH32 0x4E487B7100000000000000000000000000000000000000000000000000000000 PUSH1 0x0 MSTORE PUSH1 0x11 PUSH1 0x4 MSTORE PUSH1 0x24 PUSH1 0x0 REVERT JUMPDEST PUSH1 0x0 PUSH2 0x812 DUP3 PUSH2 0x688 JUMP JUMPDEST SWAP2 POP PUSH32 0xFFFFFFFFFFFFFFFFFFFFFFFFFFFFFFFFFFFFFFFFFFFFFFFFFFFFFFFFFFFFFFFF DUP3 SUB PUSH2 0x844 JUMPI PUSH2 0x843 PUSH2 0x7D8 JUMP JUMPDEST JUMPDEST PUSH1 0x1 DUP3 ADD SWAP1 POP SWAP2 SWAP1 POP JUMP JUMPDEST PUSH1 0x0 DUP2 SWAP1 POP SWAP2 SWAP1 POP JUMP JUMPDEST PUSH2 0x86A PUSH2 0x865 DUP3 PUSH2 0x688 JUMP JUMPDEST PUSH2 0x84F JUMP JUMPDEST DUP3 MSTORE POP POP JUMP JUMPDEST PUSH1 0x0 DUP2 SLOAD SWAP1 POP SWAP2 SWAP1 POP JUMP JUMPDEST PUSH1 0x0 DUP2 SWAP1 POP SWAP3 SWAP2 POP POP JUMP JUMPDEST PUSH1 0x0 DUP2 SWAP1 POP DUP2 PUSH1 0x0 MSTORE PUSH1 0x20 PUSH1 0x0 KECCAK256 SWAP1 POP SWAP2 SWAP1 POP JUMP JUMPDEST PUSH2 0x8A4 DUP2 PUSH2 0x56C JUMP JUMPDEST DUP3 MSTORE POP POP JUMP JUMPDEST PUSH1 0x0 PUSH2 0x8B6 DUP4 DUP4 PUSH2 0x89B JUMP JUMPDEST PUSH1 0x20 DUP4 ADD SWAP1 POP SWAP3 SWAP2 POP POP JUMP JUMPDEST PUSH1 0x0 DUP2 PUSH1 0x0 SHR SWAP1 POP SWAP2 SWAP1 POP JUMP JUMPDEST PUSH1 0x0 PUSH20 0xFFFFFFFFFFFFFFFFFFFFFFFFFFFFFFFFFFFFFFFF DUP3 AND SWAP1 POP SWAP2 SWAP1 POP JUMP JUMPDEST PUSH1 0x0 PUSH2 0x902 PUSH2 0x8FD DUP4 PUSH2 0x8C2 JUMP JUMPDEST PUSH2 0x8CF JUMP JUMPDEST SWAP1 POP SWAP2 SWAP1 POP JUMP JUMPDEST PUSH1 0x0 PUSH2 0x915 DUP3 SLOAD PUSH2 0x8EF JUMP JUMPDEST SWAP1 POP SWAP2 SWAP1 POP JUMP JUMPDEST PUSH1 0x0 PUSH1 0x1 DUP3 ADD SWAP1 POP SWAP2 SWAP1 POP JUMP JUMPDEST PUSH1 0x0 PUSH2 0x934 DUP3 PUSH2 0x870 JUMP JUMPDEST PUSH2 0x93E DUP2 DUP6 PUSH2 0x87B JUMP JUMPDEST SWAP4 POP PUSH2 0x949 DUP4 PUSH2 0x886 JUMP JUMPDEST DUP1 PUSH1 0x0 JUMPDEST DUP4 DUP2 LT ISZERO PUSH2 0x981 JUMPI PUSH2 0x95E DUP3 PUSH2 0x909 JUMP JUMPDEST PUSH2 0x968 DUP9 DUP3 PUSH2 0x8AA JUMP JUMPDEST SWAP8 POP PUSH2 0x973 DUP4 PUSH2 0x91C JUMP JUMPDEST SWAP3 POP POP PUSH1 0x1 DUP2 ADD SWAP1 POP PUSH2 0x94D JUMP JUMPDEST POP DUP6 SWAP4 POP POP POP POP SWAP3 SWAP2 POP POP JUMP JUMPDEST PUSH1 0x0 PUSH2 0x99A DUP3 DUP7 PUSH2 0x859 JUMP JUMPDEST PUSH1 0x20 DUP3 ADD SWAP2 POP PUSH2 0x9AA DUP3 DUP6 PUSH2 0x859 JUMP JUMPDEST PUSH1 0x20 DUP3 ADD SWAP2 POP PUSH2 0x9BA DUP3 DUP5 PUSH2 0x929 JUMP JUMPDEST SWAP2 POP DUP2 SWAP1 POP SWAP5 SWAP4 POP POP POP POP JUMP INVALID LOG2 PUSH5 0x6970667358 0x22 SLT KECCAK256 SWAP16 PUSH11 0x6128D3D892051F29FB56D9 0xE7 0xD6 LOG4 JUMPDEST EXTCODECOPY 0xCC DUP8 BASEFEE 0xBC 0xD6 0x25 0xE5 GAS SGT BLOCKHASH 0xD0 PUSH9 0x563364736F6C634300 ADDMOD GT STOP CALLER "},"gasEstimates":{"creation":{"codeDepositCost":"511400","executionCost":"24809","totalCost":"536209"},"external":{"enter()":"73099","getPlayers()":"infinite","manager()":"2512","pickWinner()":"infinite","players(uint256)":"5022","playersCount()":"2429","winner()":"2536"},"internal":{"random()":"infinite"}},"methodIdentifiers":{"enter()":"e97dcb62","getPlayers()":"8b5b9ccc","manager()":"481c6a75","pickWinner()":"5d495aea","players(uint256)":"f71d96cb","playersCount()":"a3f67d6d","winner()":"dfbf53ae"}},"storageLayout":{"storage":[{"astId":3,"contract":"Lottery.sol:Lottery","label":"manager","offset":0,"slot":"0","type":"t_address"},{"astId":6,"contract":"Lottery.sol:Lottery","label":"players","offset":0,"slot":"1","type":"t_array(t_address)dyn_storage"},{"astId":8,"contract":"Lottery.sol:Lottery","label":"winner","offset":0,"slot":"2","type":"t_address"},{"astId":10,"contract":"Lottery.sol:Lottery","label":"playersCount","offset":0,"slot":"3","type":"t_uint256"}],"types":{"t_address":{"encoding":"inplace","label":"address","numberOfBytes":"20"},"t_array(t_address)dyn_storage":{"base":"t_address","encoding":"dynamic_array","label":"address[]","numberOfBytes":"32"},"t_uint256":{"encoding":"inplace","label":"uint256","numberOfBytes":"32"}}},"userdoc":{"kind":"user","methods":{},"version":1}}