{"abi":[{"inputs":[{"internalType":"uint256","name":"","type":"uint256"}],"name":"allProjects","outputs":[{"internalType":"uint256","name":"id","type":"uint256"},{"internalType":"string","name":"name","type":"string"},{"internalType":"string","name":"field","type":"string"},{"internalType":"string","name":"mission","type":"string"},{"internalType":"uint256","name":"membersCount","type":"uint256"},{"internalType":"uint256","name":"pendingRequests","type":"uint256"}],"stateMutability":"view","type":"function"},{"inputs":[{"internalType":"uint256","name":"","type":"uint256"}],"name":"allUsers","outputs":[{"internalType":"uint256","name":"id","type":"uint256"},{"internalType":"address","name":"userAddress","type":"address"},{"internalType":"string","name":"codename","type":"string"},{"internalType":"string","name":"profession","type":"string"},{"internalType":"string","name":"description","type":"string"},{"internalType":"uint256","name":"projectsInvolved","type":"uint256"},{"internalType":"uint256","name":"pendingRequestsCount","type":"uint256"},{"internalType":"string","name":"mongoNotificationsId","type":"string"}],"stateMutability":"view","type":"function"},{"inputs":[{"internalType":"address","name":"userAddress","type":"address"},{"internalType":"uint256","name":"projectId","type":"uint256"},{"internalType":"uint256","name":"requestId","type":"uint256"},{"internalType":"bool","name":"approved","type":"bool"}],"name":"answerJoinRequest","outputs":[],"stateMutability":"payable","type":"function"},{"inputs":[{"internalType":"address","name":"recruitAddress","type":"address"},{"internalType":"uint256","name":"projectId","type":"uint256"},{"internalType":"uint256","name":"requestId","type":"uint256"},{"internalType":"bool","name":"approved","type":"bool"}],"name":"answerRecruitRequest","outputs":[],"stateMutability":"payable","type":"function"},{"inputs":[{"internalType":"string","name":"","type":"string"}],"name":"codenameTaken","outputs":[{"internalType":"bool","name":"","type":"bool"}],"stateMutability":"view","type":"function"},{"inputs":[{"internalType":"address","name":"userAddress","type":"address"},{"internalType":"string","name":"projectName","type":"string"},{"internalType":"string","name":"projectMission","type":"string"},{"internalType":"string","name":"field","type":"string"}],"name":"createProject","outputs":[],"stateMutability":"payable","type":"function"},{"inputs":[{"internalType":"address","name":"userAddress","type":"address"},{"internalType":"string","name":"cname","type":"string"},{"internalType":"string","name":"prof","type":"string"},{"internalType":"string","name":"desc","type":"string"}],"name":"createUser","outputs":[],"stateMutability":"payable","type":"function"},{"inputs":[{"internalType":"uint256","name":"","type":"uint256"}],"name":"featuredProfiles","outputs":[{"internalType":"uint256","name":"id","type":"uint256"},{"internalType":"address","name":"userAddress","type":"address"},{"internalType":"string","name":"codename","type":"string"},{"internalType":"string","name":"profession","type":"string"},{"internalType":"string","name":"description","type":"string"},{"internalType":"uint256","name":"projectsInvolved","type":"uint256"},{"internalType":"uint256","name":"pendingRequestsCount","type":"uint256"},{"internalType":"string","name":"mongoNotificationsId","type":"string"}],"stateMutability":"view","type":"function"},{"inputs":[{"internalType":"uint256","name":"","type":"uint256"}],"name":"featuredProjects","outputs":[{"internalType":"uint256","name":"id","type":"uint256"},{"internalType":"string","name":"name","type":"string"},{"internalType":"string","name":"field","type":"string"},{"internalType":"string","name":"mission","type":"string"},{"internalType":"uint256","name":"membersCount","type":"uint256"},{"internalType":"uint256","name":"pendingRequests","type":"uint256"}],"stateMutability":"view","type":"function"},{"inputs":[{"internalType":"string","name":"","type":"string"}],"name":"fieldCount","outputs":[{"internalType":"uint256","name":"","type":"uint256"}],"stateMutability":"view","type":"function"},{"inputs":[{"internalType":"string","name":"","type":"string"}],"name":"getProjectByName","outputs":[{"internalType":"uint256","name":"id","type":"uint256"},{"internalType":"string","name":"name","type":"string"},{"internalType":"string","name":"field","type":"string"},{"internalType":"string","name":"mission","type":"string"},{"internalType":"uint256","name":"membersCount","type":"uint256"},{"internalType":"uint256","name":"pendingRequests","type":"uint256"}],"stateMutability":"view","type":"function"},{"inputs":[{"internalType":"string","name":"","type":"string"}],"name":"getUserByCodename","outputs":[{"internalType":"uint256","name":"id","type":"uint256"},{"internalType":"address","name":"userAddress","type":"address"},{"internalType":"string","name":"codename","type":"string"},{"internalType":"string","name":"profession","type":"string"},{"internalType":"string","name":"description","type":"string"},{"internalType":"uint256","name":"projectsInvolved","type":"uint256"},{"internalType":"uint256","name":"pendingRequestsCount","type":"uint256"},{"internalType":"string","name":"mongoNotificationsId","type":"string"}],"stateMutability":"view","type":"function"},{"inputs":[],"name":"manager","outputs":[{"internalType":"address","name":"","type":"address"}],"stateMutability":"view","type":"function"},{"inputs":[{"internalType":"address[]","name":"userFeaturedAddress","type":"address[]"}],"name":"modifyFeaturedProfiles","outputs":[],"stateMutability":"payable","type":"function"},{"inputs":[{"internalType":"uint256[]","name":"projectIds","type":"uint256[]"}],"name":"modifyFeaturedProjects","outputs":[],"stateMutability":"payable","type":"function"},{"inputs":[{"internalType":"string","name":"cname","type":"string"},{"internalType":"string","name":"prof","type":"string"},{"internalType":"string","name":"desc","type":"string"}],"name":"modifyUser","outputs":[],"stateMutability":"payable","type":"function"},{"inputs":[{"internalType":"string","name":"","type":"string"}],"name":"profCount","outputs":[{"internalType":"uint256","name":"","type":"uint256"}],"stateMutability":"view","type":"function"},{"inputs":[{"internalType":"address","name":"userAddress","type":"address"},{"internalType":"uint256","name":"projectId","type":"uint256"}],"name":"projectJoinRequest","outputs":[],"stateMutability":"payable","type":"function"},{"inputs":[{"internalType":"uint256","name":"","type":"uint256"},{"internalType":"uint256","name":"","type":"uint256"}],"name":"projectMembers","outputs":[{"internalType":"uint256","name":"id","type":"uint256"},{"internalType":"address","name":"userAddress","type":"address"},{"internalType":"string","name":"codename","type":"string"},{"internalType":"string","name":"profession","type":"string"},{"internalType":"string","name":"description","type":"string"},{"internalType":"uint256","name":"projectsInvolved","type":"uint256"},{"internalType":"uint256","name":"pendingRequestsCount","type":"uint256"},{"internalType":"string","name":"mongoNotificationsId","type":"string"}],"stateMutability":"view","type":"function"},{"inputs":[{"internalType":"uint256","name":"","type":"uint256"}],"name":"projectMembersLength","outputs":[{"internalType":"uint256","name":"","type":"uint256"}],"stateMutability":"view","type":"function"},{"inputs":[{"internalType":"string","name":"","type":"string"}],"name":"projectNameTaken","outputs":[{"internalType":"bool","name":"","type":"bool"}],"stateMutability":"view","type":"function"},{"inputs":[{"internalType":"uint256","name":"","type":"uint256"},{"internalType":"uint256","name":"","type":"uint256"}],"name":"projectPendingRequests","outputs":[{"internalType":"uint256","name":"id","type":"uint256"},{"internalType":"address","name":"userAddress","type":"address"},{"internalType":"string","name":"codename","type":"string"},{"internalType":"string","name":"profession","type":"string"},{"internalType":"string","name":"description","type":"string"},{"internalType":"uint256","name":"projectsInvolved","type":"uint256"},{"internalType":"uint256","name":"pendingRequestsCount","type":"uint256"},{"internalType":"string","name":"mongoNotificationsId","type":"string"}],"stateMutability":"view","type":"function"},{"inputs":[],"name":"projectsCount","outputs":[{"internalType":"uint256","name":"","type":"uint256"}],"stateMutability":"view","type":"function"},{"inputs":[{"internalType":"address","name":"recruitAddress","type":"address"},{"internalType":"uint256","name":"projectId","type":"uint256"}],"name":"recruitJoinRequest","outputs":[],"stateMutability":"payable","type":"function"},{"inputs":[{"internalType":"address","name":"","type":"address"},{"internalType":"uint256","name":"","type":"uint256"}],"name":"recruitPendingRequests","outputs":[{"internalType":"uint256","name":"id","type":"uint256"},{"internalType":"string","name":"name","type":"string"},{"internalType":"string","name":"field","type":"string"},{"internalType":"string","name":"mission","type":"string"},{"internalType":"uint256","name":"membersCount","type":"uint256"},{"internalType":"uint256","name":"pendingRequests","type":"uint256"}],"stateMutability":"view","type":"function"},{"inputs":[{"internalType":"uint256","name":"projectId","type":"uint256"},{"internalType":"address","name":"userAddress","type":"address"},{"internalType":"uint256","name":"projectElementId","type":"uint256"},{"internalType":"uint256","name":"userElementId","type":"uint256"}],"name":"removeUserFromProject","outputs":[],"stateMutability":"payable","type":"function"},{"inputs":[{"internalType":"string","name":"mongoId","type":"string"}],"name":"subscribeToNotifications","outputs":[],"stateMutability":"payable","type":"function"},{"inputs":[{"internalType":"address payable","name":"recipient","type":"address"}],"name":"transferEther","outputs":[],"stateMutability":"nonpayable","type":"function"},{"inputs":[{"internalType":"address","name":"","type":"address"}],"name":"users","outputs":[{"internalType":"uint256","name":"id","type":"uint256"},{"internalType":"address","name":"userAddress","type":"address"},{"internalType":"string","name":"codename","type":"string"},{"internalType":"string","name":"profession","type":"string"},{"internalType":"string","name":"description","type":"string"},{"internalType":"uint256","name":"projectsInvolved","type":"uint256"},{"internalType":"uint256","name":"pendingRequestsCount","type":"uint256"},{"internalType":"string","name":"mongoNotificationsId","type":"string"}],"stateMutability":"view","type":"function"},{"inputs":[],"name":"usersCount","outputs":[{"internalType":"uint256","name":"","type":"uint256"}],"stateMutability":"view","type":"function"},{"inputs":[{"internalType":"address","name":"","type":"address"},{"internalType":"uint256","name":"","type":"uint256"}],"name":"usersProjects","outputs":[{"internalType":"uint256","name":"id","type":"uint256"},{"internalType":"string","name":"name","type":"string"},{"internalType":"string","name":"field","type":"string"},{"internalType":"string","name":"mission","type":"string"},{"internalType":"uint256","name":"membersCount","type":"uint256"},{"internalType":"uint256","name":"pendingRequests","type":"uint256"}],"stateMutability":"view","type":"function"},{"inputs":[{"internalType":"address","name":"","type":"address"}],"name":"usersProjectsLength","outputs":[{"internalType":"uint256","name":"","type":"uint256"}],"stateMutability":"view","type":"function"},{"inputs":[{"internalType":"address","name":"","type":"address"}],"name":"walletRegistered","outputs":[{"internalType":"bool","name":"","type":"bool"}],"stateMutability":"view","type":"function"}],"devdoc":{"kind":"dev","methods":{},"version":1},"evm":{"assembly":"    /* \"Users.sol\":85:118  contract Users is UsersMixin {... */\n  mstore(0x40, 0x80)\n  callvalue\n  dup1\n  iszero\n  tag_1\n  jumpi\n  0x00\n  dup1\n  revert\ntag_1:\n  pop\n    /* \"UsersMixin.sol\":164:174   */\n  caller\n    /* \"UsersMixin.sol\":154:161   */\n  0x00\n  dup1\n    /* \"UsersMixin.sol\":154:174   */\n  0x0100\n  exp\n  dup2\n  sload\n  dup2\n  0xffffffffffffffffffffffffffffffffffffffff\n  mul\n  not\n  and\n  swap1\n  dup4\n  0xffffffffffffffffffffffffffffffffffffffff\n  and\n  mul\n  or\n  swap1\n  sstore\n  pop\n    /* \"Users.sol\":85:118  contract Users is UsersMixin {... */\n  dataSize(sub_0)\n  dup1\n  dataOffset(sub_0)\n  0x00\n  codecopy\n  0x00\n  return\nstop\n\nsub_0: assembly {\n        /* \"Users.sol\":85:118  contract Users is UsersMixin {... */\n      mstore(0x40, 0x80)\n      jumpi(tag_1, lt(calldatasize, 0x04))\n      shr(0xe0, calldataload(0x00))\n      dup1\n      0x56c720c3\n      gt\n      tag_35\n      jumpi\n      dup1\n      0xc6242a8f\n      gt\n      tag_36\n      jumpi\n      dup1\n      0xd6f775c0\n      gt\n      tag_37\n      jumpi\n      dup1\n      0xd6f775c0\n      eq\n      tag_30\n      jumpi\n      dup1\n      0xe365a29f\n      eq\n      tag_31\n      jumpi\n      dup1\n      0xf5ab5dde\n      eq\n      tag_32\n      jumpi\n      dup1\n      0xf778d27b\n      eq\n      tag_33\n      jumpi\n      dup1\n      0xfeef5e91\n      eq\n      tag_34\n      jumpi\n      jump(tag_1)\n    tag_37:\n      dup1\n      0xc6242a8f\n      eq\n      tag_26\n      jumpi\n      dup1\n      0xc723bf86\n      eq\n      tag_27\n      jumpi\n      dup1\n      0xc73b302e\n      eq\n      tag_28\n      jumpi\n      dup1\n      0xd05857e0\n      eq\n      tag_29\n      jumpi\n      jump(tag_1)\n    tag_36:\n      dup1\n      0xa2bdedf4\n      gt\n      tag_38\n      jumpi\n      dup1\n      0xa2bdedf4\n      eq\n      tag_22\n      jumpi\n      dup1\n      0xa87430ba\n      eq\n      tag_23\n      jumpi\n      dup1\n      0xac2c9c0f\n      eq\n      tag_24\n      jumpi\n      dup1\n      0xc610d2ce\n      eq\n      tag_25\n      jumpi\n      jump(tag_1)\n    tag_38:\n      dup1\n      0x56c720c3\n      eq\n      tag_18\n      jumpi\n      dup1\n      0x6b55e991\n      eq\n      tag_19\n      jumpi\n      dup1\n      0x6ba13a82\n      eq\n      tag_20\n      jumpi\n      dup1\n      0x9039b99e\n      eq\n      tag_21\n      jumpi\n      jump(tag_1)\n    tag_35:\n      dup1\n      0x30314fee\n      gt\n      tag_39\n      jumpi\n      dup1\n      0x481c6a75\n      gt\n      tag_40\n      jumpi\n      dup1\n      0x481c6a75\n      eq\n      tag_14\n      jumpi\n      dup1\n      0x4b77f269\n      eq\n      tag_15\n      jumpi\n      dup1\n      0x4fc0f8ba\n      eq\n      tag_16\n      jumpi\n      dup1\n      0x53b3194c\n      eq\n      tag_17\n      jumpi\n      jump(tag_1)\n    tag_40:\n      dup1\n      0x30314fee\n      eq\n      tag_10\n      jumpi\n      dup1\n      0x37d3f4fa\n      eq\n      tag_11\n      jumpi\n      dup1\n      0x3a4017b4\n      eq\n      tag_12\n      jumpi\n      dup1\n      0x448cd56e\n      eq\n      tag_13\n      jumpi\n      jump(tag_1)\n    tag_39:\n      dup1\n      0x19266c51\n      gt\n      tag_41\n      jumpi\n      dup1\n      0x19266c51\n      eq\n      tag_6\n      jumpi\n      dup1\n      0x1b0004d9\n      eq\n      tag_7\n      jumpi\n      dup1\n      0x1ec7d4ad\n      eq\n      tag_8\n      jumpi\n      dup1\n      0x2f3f680c\n      eq\n      tag_9\n      jumpi\n      jump(tag_1)\n    tag_41:\n      dup1\n      0x3bd288\n      eq\n      tag_2\n      jumpi\n      dup1\n      0x01f2b011\n      eq\n      tag_3\n      jumpi\n      dup1\n      0x04c2eaab\n      eq\n      tag_4\n      jumpi\n      dup1\n      0x1453d9f2\n      eq\n      tag_5\n      jumpi\n    tag_1:\n      0x00\n      dup1\n      revert\n        /* \"UsersStorage.sol\":1421:1470   */\n    tag_2:\n      callvalue\n      dup1\n      iszero\n      tag_42\n      jumpi\n      0x00\n      dup1\n      revert\n    tag_42:\n      pop\n      tag_43\n      0x04\n      dup1\n      calldatasize\n      sub\n      dup2\n      add\n      swap1\n      tag_44\n      swap2\n      swap1\n      tag_45\n      jump\t// in\n    tag_44:\n      tag_46\n      jump\t// in\n    tag_43:\n      mload(0x40)\n      tag_47\n      swap2\n      swap1\n      tag_48\n      jump\t// in\n    tag_47:\n      mload(0x40)\n      dup1\n      swap2\n      sub\n      swap1\n      return\n        /* \"UsersMixin.sol\":4755:4997   */\n    tag_3:\n      tag_49\n      0x04\n      dup1\n      calldatasize\n      sub\n      dup2\n      add\n      swap1\n      tag_50\n      swap2\n      swap1\n      tag_51\n      jump\t// in\n    tag_50:\n      tag_52\n      jump\t// in\n    tag_49:\n      stop\n        /* \"UsersMixin.sol\":5236:5843   */\n    tag_4:\n      tag_53\n      0x04\n      dup1\n      calldatasize\n      sub\n      dup2\n      add\n      swap1\n      tag_54\n      swap2\n      swap1\n      tag_55\n      jump\t// in\n    tag_54:\n      tag_56\n      jump\t// in\n    tag_53:\n      stop\n        /* \"UsersMixin.sol\":5003:5230   */\n    tag_5:\n      tag_57\n      0x04\n      dup1\n      calldatasize\n      sub\n      dup2\n      add\n      swap1\n      tag_58\n      swap2\n      swap1\n      tag_59\n      jump\t// in\n    tag_58:\n      tag_60\n      jump\t// in\n    tag_57:\n      stop\n        /* \"UsersMixin.sol\":1514:1746   */\n    tag_6:\n      tag_61\n      0x04\n      dup1\n      calldatasize\n      sub\n      dup2\n      add\n      swap1\n      tag_62\n      swap2\n      swap1\n      tag_63\n      jump\t// in\n    tag_62:\n      tag_64\n      jump\t// in\n    tag_61:\n      stop\n        /* \"UsersStorage.sol\":1114:1154   */\n    tag_7:\n      callvalue\n      dup1\n      iszero\n      tag_65\n      jumpi\n      0x00\n      dup1\n      revert\n    tag_65:\n      pop\n      tag_66\n      0x04\n      dup1\n      calldatasize\n      sub\n      dup2\n      add\n      swap1\n      tag_67\n      swap2\n      swap1\n      tag_63\n      jump\t// in\n    tag_67:\n      tag_68\n      jump\t// in\n    tag_66:\n      mload(0x40)\n      tag_69\n      swap2\n      swap1\n      tag_48\n      jump\t// in\n    tag_69:\n      mload(0x40)\n      dup1\n      swap2\n      sub\n      swap1\n      return\n        /* \"UsersStorage.sol\":1364:1415   */\n    tag_8:\n      callvalue\n      dup1\n      iszero\n      tag_70\n      jumpi\n      0x00\n      dup1\n      revert\n    tag_70:\n      pop\n      tag_71\n      0x04\n      dup1\n      calldatasize\n      sub\n      dup2\n      add\n      swap1\n      tag_72\n      swap2\n      swap1\n      tag_73\n      jump\t// in\n    tag_72:\n      tag_74\n      jump\t// in\n    tag_71:\n      mload(0x40)\n      tag_75\n      swap2\n      swap1\n      tag_48\n      jump\t// in\n    tag_75:\n      mload(0x40)\n      dup1\n      swap2\n      sub\n      swap1\n      return\n        /* \"UsersStorage.sol\":1261:1305   */\n    tag_9:\n      callvalue\n      dup1\n      iszero\n      tag_76\n      jumpi\n      0x00\n      dup1\n      revert\n    tag_76:\n      pop\n      tag_77\n      0x04\n      dup1\n      calldatasize\n      sub\n      dup2\n      add\n      swap1\n      tag_78\n      swap2\n      swap1\n      tag_63\n      jump\t// in\n    tag_78:\n      tag_79\n      jump\t// in\n    tag_77:\n      mload(0x40)\n      tag_80\n      swap2\n      swap1\n      tag_81\n      jump\t// in\n    tag_80:\n      mload(0x40)\n      dup1\n      swap2\n      sub\n      swap1\n      return\n        /* \"UsersMixin.sol\":1752:2639   */\n    tag_10:\n      tag_82\n      0x04\n      dup1\n      calldatasize\n      sub\n      dup2\n      add\n      swap1\n      tag_83\n      swap2\n      swap1\n      tag_84\n      jump\t// in\n    tag_83:\n      tag_85\n      jump\t// in\n    tag_82:\n      stop\n        /* \"UsersStorage.sol\":885:930   */\n    tag_11:\n      callvalue\n      dup1\n      iszero\n      tag_86\n      jumpi\n      0x00\n      dup1\n      revert\n    tag_86:\n      pop\n      tag_87\n      0x04\n      dup1\n      calldatasize\n      sub\n      dup2\n      add\n      swap1\n      tag_88\n      swap2\n      swap1\n      tag_89\n      jump\t// in\n    tag_88:\n      tag_90\n      jump\t// in\n    tag_87:\n      mload(0x40)\n      tag_91\n      swap9\n      swap8\n      swap7\n      swap6\n      swap5\n      swap4\n      swap3\n      swap2\n      swap1\n      tag_92\n      jump\t// in\n    tag_91:\n      mload(0x40)\n      dup1\n      swap2\n      sub\n      swap1\n      return\n        /* \"UsersMixin.sol\":3344:4017   */\n    tag_12:\n      tag_93\n      0x04\n      dup1\n      calldatasize\n      sub\n      dup2\n      add\n      swap1\n      tag_94\n      swap2\n      swap1\n      tag_95\n      jump\t// in\n    tag_94:\n      tag_96\n      jump\t// in\n    tag_93:\n      stop\n        /* \"UsersStorage.sol\":936:989   */\n    tag_13:\n      callvalue\n      dup1\n      iszero\n      tag_97\n      jumpi\n      0x00\n      dup1\n      revert\n    tag_97:\n      pop\n      tag_98\n      0x04\n      dup1\n      calldatasize\n      sub\n      dup2\n      add\n      swap1\n      tag_99\n      swap2\n      swap1\n      tag_89\n      jump\t// in\n    tag_99:\n      tag_100\n      jump\t// in\n    tag_98:\n      mload(0x40)\n      tag_101\n      swap9\n      swap8\n      swap7\n      swap6\n      swap5\n      swap4\n      swap3\n      swap2\n      swap1\n      tag_92\n      jump\t// in\n    tag_101:\n      mload(0x40)\n      dup1\n      swap2\n      sub\n      swap1\n      return\n        /* \"UsersStorage.sol\":86:108   */\n    tag_14:\n      callvalue\n      dup1\n      iszero\n      tag_102\n      jumpi\n      0x00\n      dup1\n      revert\n    tag_102:\n      pop\n      tag_103\n      tag_104\n      jump\t// in\n    tag_103:\n      mload(0x40)\n      tag_105\n      swap2\n      swap1\n      tag_106\n      jump\t// in\n    tag_105:\n      mload(0x40)\n      dup1\n      swap2\n      sub\n      swap1\n      return\n        /* \"UsersStorage.sol\":829:879   */\n    tag_15:\n      callvalue\n      dup1\n      iszero\n      tag_107\n      jumpi\n      0x00\n      dup1\n      revert\n    tag_107:\n      pop\n      tag_108\n      0x04\n      dup1\n      calldatasize\n      sub\n      dup2\n      add\n      swap1\n      tag_109\n      swap2\n      swap1\n      tag_63\n      jump\t// in\n    tag_109:\n      tag_110\n      jump\t// in\n    tag_108:\n      mload(0x40)\n      tag_111\n      swap7\n      swap6\n      swap5\n      swap4\n      swap3\n      swap2\n      swap1\n      tag_112\n      jump\t// in\n    tag_111:\n      mload(0x40)\n      dup1\n      swap2\n      sub\n      swap1\n      return\n        /* \"UsersMixin.sol\":2645:2965   */\n    tag_16:\n      tag_113\n      0x04\n      dup1\n      calldatasize\n      sub\n      dup2\n      add\n      swap1\n      tag_114\n      swap2\n      swap1\n      tag_115\n      jump\t// in\n    tag_114:\n      tag_116\n      jump\t// in\n    tag_113:\n      stop\n        /* \"UsersStorage.sol\":621:649   */\n    tag_17:\n      callvalue\n      dup1\n      iszero\n      tag_117\n      jumpi\n      0x00\n      dup1\n      revert\n    tag_117:\n      pop\n      tag_118\n      0x04\n      dup1\n      calldatasize\n      sub\n      dup2\n      add\n      swap1\n      tag_119\n      swap2\n      swap1\n      tag_45\n      jump\t// in\n    tag_119:\n      tag_120\n      jump\t// in\n    tag_118:\n      mload(0x40)\n      tag_121\n      swap7\n      swap6\n      swap5\n      swap4\n      swap3\n      swap2\n      swap1\n      tag_112\n      jump\t// in\n    tag_121:\n      mload(0x40)\n      dup1\n      swap2\n      sub\n      swap1\n      return\n        /* \"UsersMixin.sol\":2971:3338   */\n    tag_18:\n      tag_122\n      0x04\n      dup1\n      calldatasize\n      sub\n      dup2\n      add\n      swap1\n      tag_123\n      swap2\n      swap1\n      tag_115\n      jump\t// in\n    tag_123:\n      tag_124\n      jump\t// in\n    tag_122:\n      stop\n        /* \"UsersMixin.sol\":273:470   */\n    tag_19:\n      callvalue\n      dup1\n      iszero\n      tag_125\n      jumpi\n      0x00\n      dup1\n      revert\n    tag_125:\n      pop\n      tag_126\n      0x04\n      dup1\n      calldatasize\n      sub\n      dup2\n      add\n      swap1\n      tag_127\n      swap2\n      swap1\n      tag_128\n      jump\t// in\n    tag_127:\n      tag_129\n      jump\t// in\n    tag_126:\n      stop\n        /* \"UsersStorage.sol\":1476:1498   */\n    tag_20:\n      callvalue\n      dup1\n      iszero\n      tag_130\n      jumpi\n      0x00\n      dup1\n      revert\n    tag_130:\n      pop\n      tag_131\n      tag_132\n      jump\t// in\n    tag_131:\n      mload(0x40)\n      tag_133\n      swap2\n      swap1\n      tag_48\n      jump\t// in\n    tag_133:\n      mload(0x40)\n      dup1\n      swap2\n      sub\n      swap1\n      return\n        /* \"UsersStorage.sol\":1160:1201   */\n    tag_21:\n      callvalue\n      dup1\n      iszero\n      tag_134\n      jumpi\n      0x00\n      dup1\n      revert\n    tag_134:\n      pop\n      tag_135\n      0x04\n      dup1\n      calldatasize\n      sub\n      dup2\n      add\n      swap1\n      tag_136\n      swap2\n      swap1\n      tag_63\n      jump\t// in\n    tag_136:\n      tag_137\n      jump\t// in\n    tag_135:\n      mload(0x40)\n      tag_138\n      swap2\n      swap1\n      tag_48\n      jump\t// in\n    tag_138:\n      mload(0x40)\n      dup1\n      swap2\n      sub\n      swap1\n      return\n        /* \"UsersStorage.sol\":593:615   */\n    tag_22:\n      callvalue\n      dup1\n      iszero\n      tag_139\n      jumpi\n      0x00\n      dup1\n      revert\n    tag_139:\n      pop\n      tag_140\n      0x04\n      dup1\n      calldatasize\n      sub\n      dup2\n      add\n      swap1\n      tag_141\n      swap2\n      swap1\n      tag_45\n      jump\t// in\n    tag_141:\n      tag_142\n      jump\t// in\n    tag_140:\n      mload(0x40)\n      tag_143\n      swap9\n      swap8\n      swap7\n      swap6\n      swap5\n      swap4\n      swap3\n      swap2\n      swap1\n      tag_92\n      jump\t// in\n    tag_143:\n      mload(0x40)\n      dup1\n      swap2\n      sub\n      swap1\n      return\n        /* \"UsersStorage.sol\":730:767   */\n    tag_23:\n      callvalue\n      dup1\n      iszero\n      tag_144\n      jumpi\n      0x00\n      dup1\n      revert\n    tag_144:\n      pop\n      tag_145\n      0x04\n      dup1\n      calldatasize\n      sub\n      dup2\n      add\n      swap1\n      tag_146\n      swap2\n      swap1\n      tag_73\n      jump\t// in\n    tag_146:\n      tag_147\n      jump\t// in\n    tag_145:\n      mload(0x40)\n      tag_148\n      swap9\n      swap8\n      swap7\n      swap6\n      swap5\n      swap4\n      swap3\n      swap2\n      swap1\n      tag_92\n      jump\t// in\n    tag_148:\n      mload(0x40)\n      dup1\n      swap2\n      sub\n      swap1\n      return\n        /* \"UsersStorage.sol\":1207:1255   */\n    tag_24:\n      callvalue\n      dup1\n      iszero\n      tag_149\n      jumpi\n      0x00\n      dup1\n      revert\n    tag_149:\n      pop\n      tag_150\n      0x04\n      dup1\n      calldatasize\n      sub\n      dup2\n      add\n      swap1\n      tag_151\n      swap2\n      swap1\n      tag_73\n      jump\t// in\n    tag_151:\n      tag_152\n      jump\t// in\n    tag_150:\n      mload(0x40)\n      tag_153\n      swap2\n      swap1\n      tag_81\n      jump\t// in\n    tag_153:\n      mload(0x40)\n      dup1\n      swap2\n      sub\n      swap1\n      return\n        /* \"UsersMixin.sol\":476:1165   */\n    tag_25:\n      tag_154\n      0x04\n      dup1\n      calldatasize\n      sub\n      dup2\n      add\n      swap1\n      tag_155\n      swap2\n      swap1\n      tag_84\n      jump\t// in\n    tag_155:\n      tag_156\n      jump\t// in\n    tag_154:\n      stop\n        /* \"UsersStorage.sol\":691:724   */\n    tag_26:\n      callvalue\n      dup1\n      iszero\n      tag_157\n      jumpi\n      0x00\n      dup1\n      revert\n    tag_157:\n      pop\n      tag_158\n      0x04\n      dup1\n      calldatasize\n      sub\n      dup2\n      add\n      swap1\n      tag_159\n      swap2\n      swap1\n      tag_45\n      jump\t// in\n    tag_159:\n      tag_160\n      jump\t// in\n    tag_158:\n      mload(0x40)\n      tag_161\n      swap7\n      swap6\n      swap5\n      swap4\n      swap3\n      swap2\n      swap1\n      tag_112\n      jump\t// in\n    tag_161:\n      mload(0x40)\n      dup1\n      swap2\n      sub\n      swap1\n      return\n        /* \"UsersStorage.sol\":773:823   */\n    tag_27:\n      callvalue\n      dup1\n      iszero\n      tag_162\n      jumpi\n      0x00\n      dup1\n      revert\n    tag_162:\n      pop\n      tag_163\n      0x04\n      dup1\n      calldatasize\n      sub\n      dup2\n      add\n      swap1\n      tag_164\n      swap2\n      swap1\n      tag_115\n      jump\t// in\n    tag_164:\n      tag_165\n      jump\t// in\n    tag_163:\n      mload(0x40)\n      tag_166\n      swap7\n      swap6\n      swap5\n      swap4\n      swap3\n      swap2\n      swap1\n      tag_112\n      jump\t// in\n    tag_166:\n      mload(0x40)\n      dup1\n      swap2\n      sub\n      swap1\n      return\n        /* \"UsersStorage.sol\":1504:1529   */\n    tag_28:\n      callvalue\n      dup1\n      iszero\n      tag_167\n      jumpi\n      0x00\n      dup1\n      revert\n    tag_167:\n      pop\n      tag_168\n      tag_169\n      jump\t// in\n    tag_168:\n      mload(0x40)\n      tag_170\n      swap2\n      swap1\n      tag_48\n      jump\t// in\n    tag_170:\n      mload(0x40)\n      dup1\n      swap2\n      sub\n      swap1\n      return\n        /* \"UsersMixin.sol\":1171:1508   */\n    tag_29:\n      tag_171\n      0x04\n      dup1\n      calldatasize\n      sub\n      dup2\n      add\n      swap1\n      tag_172\n      swap2\n      swap1\n      tag_173\n      jump\t// in\n    tag_172:\n      tag_174\n      jump\t// in\n    tag_171:\n      stop\n        /* \"UsersStorage.sol\":655:685   */\n    tag_30:\n      callvalue\n      dup1\n      iszero\n      tag_175\n      jumpi\n      0x00\n      dup1\n      revert\n    tag_175:\n      pop\n      tag_176\n      0x04\n      dup1\n      calldatasize\n      sub\n      dup2\n      add\n      swap1\n      tag_177\n      swap2\n      swap1\n      tag_45\n      jump\t// in\n    tag_177:\n      tag_178\n      jump\t// in\n    tag_176:\n      mload(0x40)\n      tag_179\n      swap9\n      swap8\n      swap7\n      swap6\n      swap5\n      swap4\n      swap3\n      swap2\n      swap1\n      tag_92\n      jump\t// in\n    tag_179:\n      mload(0x40)\n      dup1\n      swap2\n      sub\n      swap1\n      return\n        /* \"UsersStorage.sol\":1311:1358   */\n    tag_31:\n      callvalue\n      dup1\n      iszero\n      tag_180\n      jumpi\n      0x00\n      dup1\n      revert\n    tag_180:\n      pop\n      tag_181\n      0x04\n      dup1\n      calldatasize\n      sub\n      dup2\n      add\n      swap1\n      tag_182\n      swap2\n      swap1\n      tag_63\n      jump\t// in\n    tag_182:\n      tag_183\n      jump\t// in\n    tag_181:\n      mload(0x40)\n      tag_184\n      swap2\n      swap1\n      tag_81\n      jump\t// in\n    tag_184:\n      mload(0x40)\n      dup1\n      swap2\n      sub\n      swap1\n      return\n        /* \"UsersMixin.sol\":4023:4749   */\n    tag_32:\n      tag_185\n      0x04\n      dup1\n      calldatasize\n      sub\n      dup2\n      add\n      swap1\n      tag_186\n      swap2\n      swap1\n      tag_95\n      jump\t// in\n    tag_186:\n      tag_187\n      jump\t// in\n    tag_185:\n      stop\n        /* \"UsersStorage.sol\":1060:1108   */\n    tag_33:\n      callvalue\n      dup1\n      iszero\n      tag_188\n      jumpi\n      0x00\n      dup1\n      revert\n    tag_188:\n      pop\n      tag_189\n      0x04\n      dup1\n      calldatasize\n      sub\n      dup2\n      add\n      swap1\n      tag_190\n      swap2\n      swap1\n      tag_63\n      jump\t// in\n    tag_190:\n      tag_191\n      jump\t// in\n    tag_189:\n      mload(0x40)\n      tag_192\n      swap9\n      swap8\n      swap7\n      swap6\n      swap5\n      swap4\n      swap3\n      swap2\n      swap1\n      tag_92\n      jump\t// in\n    tag_192:\n      mload(0x40)\n      dup1\n      swap2\n      sub\n      swap1\n      return\n        /* \"UsersStorage.sol\":995:1054   */\n    tag_34:\n      callvalue\n      dup1\n      iszero\n      tag_193\n      jumpi\n      0x00\n      dup1\n      revert\n    tag_193:\n      pop\n      tag_194\n      0x04\n      dup1\n      calldatasize\n      sub\n      dup2\n      add\n      swap1\n      tag_195\n      swap2\n      swap1\n      tag_115\n      jump\t// in\n    tag_195:\n      tag_196\n      jump\t// in\n    tag_194:\n      mload(0x40)\n      tag_197\n      swap7\n      swap6\n      swap5\n      swap4\n      swap3\n      swap2\n      swap1\n      tag_112\n      jump\t// in\n    tag_197:\n      mload(0x40)\n      dup1\n      swap2\n      sub\n      swap1\n      return\n        /* \"UsersStorage.sol\":1421:1470   */\n    tag_46:\n      mstore(0x20, 0x12)\n      dup1\n      0x00\n      mstore\n      keccak256(0x00, 0x40)\n      0x00\n      swap2\n      pop\n      swap1\n      pop\n      sload\n      dup2\n      jump\t// out\n        /* \"UsersMixin.sol\":4755:4997   */\n    tag_52:\n        /* \"UsersMixin.sol\":241:248   */\n      0x00\n      dup1\n      sload\n      swap1\n      0x0100\n      exp\n      swap1\n      div\n      0xffffffffffffffffffffffffffffffffffffffff\n      and\n        /* \"UsersMixin.sol\":227:248   */\n      0xffffffffffffffffffffffffffffffffffffffff\n      and\n        /* \"UsersMixin.sol\":227:237   */\n      caller\n        /* \"UsersMixin.sol\":227:248   */\n      0xffffffffffffffffffffffffffffffffffffffff\n      and\n      eq\n        /* \"UsersMixin.sol\":219:249   */\n      tag_199\n      jumpi\n      0x00\n      dup1\n      revert\n    tag_199:\n        /* \"UsersMixin.sol\":4866:4882   */\n      0x03\n      0x00\n        /* \"UsersMixin.sol\":4859:4882   */\n      tag_201\n      swap2\n      swap1\n      tag_202\n      jump\t// in\n    tag_201:\n        /* \"UsersMixin.sol\":4896:4902   */\n      0x00\n        /* \"UsersMixin.sol\":4891:4991   */\n    tag_203:\n        /* \"UsersMixin.sol\":4912:4913   */\n      0x05\n        /* \"UsersMixin.sol\":4908:4909   */\n      dup2\n        /* \"UsersMixin.sol\":4908:4913   */\n      lt\n        /* \"UsersMixin.sol\":4891:4991   */\n      iszero\n      tag_204\n      jumpi\n        /* \"UsersMixin.sol\":4930:4946   */\n      0x03\n        /* \"UsersMixin.sol\":4952:4957   */\n      0x05\n        /* \"UsersMixin.sol\":4952:4981   */\n      0x00\n        /* \"UsersMixin.sol\":4958:4977   */\n      dup5\n        /* \"UsersMixin.sol\":4978:4979   */\n      dup5\n        /* \"UsersMixin.sol\":4958:4980   */\n      dup2\n      mload\n      dup2\n      lt\n      tag_206\n      jumpi\n      tag_207\n      tag_208\n      jump\t// in\n    tag_207:\n    tag_206:\n      0x20\n      mul\n      0x20\n      add\n      add\n      mload\n        /* \"UsersMixin.sol\":4952:4981   */\n      0xffffffffffffffffffffffffffffffffffffffff\n      and\n      0xffffffffffffffffffffffffffffffffffffffff\n      and\n      dup2\n      mstore\n      0x20\n      add\n      swap1\n      dup2\n      mstore\n      0x20\n      add\n      0x00\n      keccak256\n        /* \"UsersMixin.sol\":4930:4982   */\n      swap1\n      dup1\n      0x01\n      dup2\n      sload\n      add\n      dup1\n      dup3\n      sstore\n      dup1\n      swap2\n      pop\n      pop\n      0x01\n      swap1\n      sub\n      swap1\n      0x00\n      mstore\n      keccak256(0x00, 0x20)\n      swap1\n      0x08\n      mul\n      add\n      0x00\n      swap1\n      swap2\n      swap1\n      swap2\n      swap1\n      swap2\n      pop\n      0x00\n      dup3\n      add\n      sload\n      dup2\n      0x00\n      add\n      sstore\n      0x01\n      dup3\n      add\n      0x00\n      swap1\n      sload\n      swap1\n      0x0100\n      exp\n      swap1\n      div\n      0xffffffffffffffffffffffffffffffffffffffff\n      and\n      dup2\n      0x01\n      add\n      exp(0x0100, 0x00)\n      dup2\n      sload\n      dup2\n      0xffffffffffffffffffffffffffffffffffffffff\n      mul\n      not\n      and\n      swap1\n      dup4\n      0xffffffffffffffffffffffffffffffffffffffff\n      and\n      mul\n      or\n      swap1\n      sstore\n      pop\n      0x02\n      dup3\n      add\n      dup2\n      0x02\n      add\n      swap1\n      dup2\n      tag_210\n      swap2\n      swap1\n      tag_211\n      jump\t// in\n    tag_210:\n      pop\n      0x03\n      dup3\n      add\n      dup2\n      0x03\n      add\n      swap1\n      dup2\n      tag_212\n      swap2\n      swap1\n      tag_211\n      jump\t// in\n    tag_212:\n      pop\n      0x04\n      dup3\n      add\n      dup2\n      0x04\n      add\n      swap1\n      dup2\n      tag_213\n      swap2\n      swap1\n      tag_211\n      jump\t// in\n    tag_213:\n      pop\n      0x05\n      dup3\n      add\n      sload\n      dup2\n      0x05\n      add\n      sstore\n      0x06\n      dup3\n      add\n      sload\n      dup2\n      0x06\n      add\n      sstore\n      0x07\n      dup3\n      add\n      dup2\n      0x07\n      add\n      swap1\n      dup2\n      tag_214\n      swap2\n      swap1\n      tag_211\n      jump\t// in\n    tag_214:\n      pop\n      pop\n      pop\n        /* \"UsersMixin.sol\":4915:4918   */\n      dup1\n      dup1\n      tag_215\n      swap1\n      tag_216\n      jump\t// in\n    tag_215:\n      swap2\n      pop\n      pop\n        /* \"UsersMixin.sol\":4891:4991   */\n      jump(tag_203)\n    tag_204:\n      pop\n        /* \"UsersMixin.sol\":4755:4997   */\n      pop\n      jump\t// out\n        /* \"UsersMixin.sol\":5236:5843   */\n    tag_56:\n        /* \"UsersMixin.sol\":5378:5394   */\n      0x0e\n        /* \"UsersMixin.sol\":5378:5406   */\n      0x00\n        /* \"UsersMixin.sol\":5395:5405   */\n      caller\n        /* \"UsersMixin.sol\":5378:5406   */\n      0xffffffffffffffffffffffffffffffffffffffff\n      and\n      0xffffffffffffffffffffffffffffffffffffffff\n      and\n      dup2\n      mstore\n      0x20\n      add\n      swap1\n      dup2\n      mstore\n      0x20\n      add\n      0x00\n      keccak256\n      0x00\n      swap1\n      sload\n      swap1\n      0x0100\n      exp\n      swap1\n      div\n      0xff\n      and\n        /* \"UsersMixin.sol\":5370:5407   */\n      tag_218\n      jumpi\n      0x00\n      dup1\n      revert\n    tag_218:\n        /* \"UsersMixin.sol\":5415:5438   */\n      0x00\n        /* \"UsersMixin.sol\":5441:5452   */\n      0x02\n        /* \"UsersMixin.sol\":5453:5462   */\n      dup6\n        /* \"UsersMixin.sol\":5441:5463   */\n      dup2\n      sload\n      dup2\n      lt\n      tag_219\n      jumpi\n      tag_220\n      tag_208\n      jump\t// in\n    tag_220:\n    tag_219:\n      swap1\n      0x00\n      mstore\n      keccak256(0x00, 0x20)\n      swap1\n      0x06\n      mul\n      add\n        /* \"UsersMixin.sol\":5415:5463   */\n      swap1\n      pop\n        /* \"UsersMixin.sol\":5471:5488   */\n      0x00\n        /* \"UsersMixin.sol\":5491:5496   */\n      0x05\n        /* \"UsersMixin.sol\":5491:5509   */\n      0x00\n        /* \"UsersMixin.sol\":5497:5508   */\n      dup7\n        /* \"UsersMixin.sol\":5491:5509   */\n      0xffffffffffffffffffffffffffffffffffffffff\n      and\n      0xffffffffffffffffffffffffffffffffffffffff\n      and\n      dup2\n      mstore\n      0x20\n      add\n      swap1\n      dup2\n      mstore\n      0x20\n      add\n      0x00\n      keccak256\n        /* \"UsersMixin.sol\":5471:5509   */\n      swap1\n      pop\n        /* \"UsersMixin.sol\":5518:5522   */\n      dup1\n        /* \"UsersMixin.sol\":5518:5539   */\n      0x05\n      add\n      0x00\n        /* \"UsersMixin.sol\":5518:5541   */\n      dup2\n      sload\n      dup1\n      swap3\n      swap2\n      swap1\n      tag_222\n      swap1\n      tag_223\n      jump\t// in\n    tag_222:\n      swap2\n      swap1\n      pop\n      sstore\n      pop\n        /* \"UsersMixin.sol\":5549:5562   */\n      0x06\n        /* \"UsersMixin.sol\":5549:5575   */\n      0x00\n        /* \"UsersMixin.sol\":5563:5574   */\n      dup7\n        /* \"UsersMixin.sol\":5549:5575   */\n      0xffffffffffffffffffffffffffffffffffffffff\n      and\n      0xffffffffffffffffffffffffffffffffffffffff\n      and\n      dup2\n      mstore\n      0x20\n      add\n      swap1\n      dup2\n      mstore\n      0x20\n      add\n      0x00\n      keccak256\n      pop\n        /* \"UsersMixin.sol\":5583:5602   */\n      0x11\n        /* \"UsersMixin.sol\":5583:5615   */\n      0x00\n        /* \"UsersMixin.sol\":5603:5614   */\n      dup7\n        /* \"UsersMixin.sol\":5583:5615   */\n      0xffffffffffffffffffffffffffffffffffffffff\n      and\n      0xffffffffffffffffffffffffffffffffffffffff\n      and\n      dup2\n      mstore\n      0x20\n      add\n      swap1\n      dup2\n      mstore\n      0x20\n      add\n      0x00\n      keccak256\n      0x00\n        /* \"UsersMixin.sol\":5583:5617   */\n      dup2\n      sload\n      dup1\n      swap3\n      swap2\n      swap1\n      tag_224\n      swap1\n      tag_223\n      jump\t// in\n    tag_224:\n      swap2\n      swap1\n      pop\n      sstore\n      pop\n        /* \"UsersMixin.sol\":5645:5649   */\n      dup1\n        /* \"UsersMixin.sol\":5625:5633   */\n      0x01\n        /* \"UsersMixin.sol\":5634:5638   */\n      dup3\n        /* \"UsersMixin.sol\":5634:5641   */\n      0x00\n      add\n      sload\n        /* \"UsersMixin.sol\":5625:5642   */\n      dup2\n      sload\n      dup2\n      lt\n      tag_225\n      jumpi\n      tag_226\n      tag_208\n      jump\t// in\n    tag_226:\n    tag_225:\n      swap1\n      0x00\n      mstore\n      keccak256(0x00, 0x20)\n      swap1\n      0x08\n      mul\n      add\n        /* \"UsersMixin.sol\":5625:5649   */\n      0x00\n      dup3\n      add\n      sload\n      dup2\n      0x00\n      add\n      sstore\n      0x01\n      dup3\n      add\n      0x00\n      swap1\n      sload\n      swap1\n      0x0100\n      exp\n      swap1\n      div\n      0xffffffffffffffffffffffffffffffffffffffff\n      and\n      dup2\n      0x01\n      add\n      exp(0x0100, 0x00)\n      dup2\n      sload\n      dup2\n      0xffffffffffffffffffffffffffffffffffffffff\n      mul\n      not\n      and\n      swap1\n      dup4\n      0xffffffffffffffffffffffffffffffffffffffff\n      and\n      mul\n      or\n      swap1\n      sstore\n      pop\n      0x02\n      dup3\n      add\n      dup2\n      0x02\n      add\n      swap1\n      dup2\n      tag_228\n      swap2\n      swap1\n      tag_211\n      jump\t// in\n    tag_228:\n      pop\n      0x03\n      dup3\n      add\n      dup2\n      0x03\n      add\n      swap1\n      dup2\n      tag_229\n      swap2\n      swap1\n      tag_211\n      jump\t// in\n    tag_229:\n      pop\n      0x04\n      dup3\n      add\n      dup2\n      0x04\n      add\n      swap1\n      dup2\n      tag_230\n      swap2\n      swap1\n      tag_211\n      jump\t// in\n    tag_230:\n      pop\n      0x05\n      dup3\n      add\n      sload\n      dup2\n      0x05\n      add\n      sstore\n      0x06\n      dup3\n      add\n      sload\n      dup2\n      0x06\n      add\n      sstore\n      0x07\n      dup3\n      add\n      dup2\n      0x07\n      add\n      swap1\n      dup2\n      tag_231\n      swap2\n      swap1\n      tag_211\n      jump\t// in\n    tag_231:\n      pop\n      swap1\n      pop\n      pop\n        /* \"UsersMixin.sol\":5658:5665   */\n      dup2\n        /* \"UsersMixin.sol\":5658:5678   */\n      0x04\n      add\n      0x00\n        /* \"UsersMixin.sol\":5658:5680   */\n      dup2\n      sload\n      dup1\n      swap3\n      swap2\n      swap1\n      tag_232\n      swap1\n      tag_223\n      jump\t// in\n    tag_232:\n      swap2\n      swap1\n      pop\n      sstore\n      pop\n        /* \"UsersMixin.sol\":5688:5708   */\n      0x12\n        /* \"UsersMixin.sol\":5688:5719   */\n      0x00\n        /* \"UsersMixin.sol\":5709:5718   */\n      dup8\n        /* \"UsersMixin.sol\":5688:5719   */\n      dup2\n      mstore\n      0x20\n      add\n      swap1\n      dup2\n      mstore\n      0x20\n      add\n      0x00\n      keccak256\n      0x00\n        /* \"UsersMixin.sol\":5688:5721   */\n      dup2\n      sload\n      dup1\n      swap3\n      swap2\n      swap1\n      tag_233\n      swap1\n      tag_223\n      jump\t// in\n    tag_233:\n      swap2\n      swap1\n      pop\n      sstore\n      pop\n        /* \"UsersMixin.sol\":5737:5750   */\n      0x06\n        /* \"UsersMixin.sol\":5737:5763   */\n      0x00\n        /* \"UsersMixin.sol\":5751:5762   */\n      dup7\n        /* \"UsersMixin.sol\":5737:5763   */\n      0xffffffffffffffffffffffffffffffffffffffff\n      and\n      0xffffffffffffffffffffffffffffffffffffffff\n      and\n      dup2\n      mstore\n      0x20\n      add\n      swap1\n      dup2\n      mstore\n      0x20\n      add\n      0x00\n      keccak256\n        /* \"UsersMixin.sol\":5764:5780   */\n      dup5\n        /* \"UsersMixin.sol\":5737:5781   */\n      dup2\n      sload\n      dup2\n      lt\n      tag_234\n      jumpi\n      tag_235\n      tag_208\n      jump\t// in\n    tag_235:\n    tag_234:\n      swap1\n      0x00\n      mstore\n      keccak256(0x00, 0x20)\n      swap1\n      0x06\n      mul\n      add\n      0x00\n        /* \"UsersMixin.sol\":5730:5781   */\n      dup1\n      dup3\n      add\n      0x00\n      swap1\n      sstore\n      0x01\n      dup3\n      add\n      0x00\n      tag_237\n      swap2\n      swap1\n      tag_238\n      jump\t// in\n    tag_237:\n      0x02\n      dup3\n      add\n      0x00\n      tag_239\n      swap2\n      swap1\n      tag_238\n      jump\t// in\n    tag_239:\n      0x03\n      dup3\n      add\n      0x00\n      tag_240\n      swap2\n      swap1\n      tag_238\n      jump\t// in\n    tag_240:\n      0x04\n      dup3\n      add\n      0x00\n      swap1\n      sstore\n      0x05\n      dup3\n      add\n      0x00\n      swap1\n      sstore\n      pop\n      pop\n        /* \"UsersMixin.sol\":5796:5810   */\n      0x08\n        /* \"UsersMixin.sol\":5796:5821   */\n      0x00\n        /* \"UsersMixin.sol\":5811:5820   */\n      dup8\n        /* \"UsersMixin.sol\":5796:5821   */\n      dup2\n      mstore\n      0x20\n      add\n      swap1\n      dup2\n      mstore\n      0x20\n      add\n      0x00\n      keccak256\n        /* \"UsersMixin.sol\":5822:5835   */\n      dup4\n        /* \"UsersMixin.sol\":5796:5836   */\n      dup2\n      sload\n      dup2\n      lt\n      tag_241\n      jumpi\n      tag_242\n      tag_208\n      jump\t// in\n    tag_242:\n    tag_241:\n      swap1\n      0x00\n      mstore\n      keccak256(0x00, 0x20)\n      swap1\n      0x08\n      mul\n      add\n      0x00\n        /* \"UsersMixin.sol\":5789:5836   */\n      dup1\n      dup3\n      add\n      0x00\n      swap1\n      sstore\n      0x01\n      dup3\n      add\n      exp(0x0100, 0x00)\n      dup2\n      sload\n      swap1\n      0xffffffffffffffffffffffffffffffffffffffff\n      mul\n      not\n      and\n      swap1\n      sstore\n      0x02\n      dup3\n      add\n      0x00\n      tag_244\n      swap2\n      swap1\n      tag_238\n      jump\t// in\n    tag_244:\n      0x03\n      dup3\n      add\n      0x00\n      tag_245\n      swap2\n      swap1\n      tag_238\n      jump\t// in\n    tag_245:\n      0x04\n      dup3\n      add\n      0x00\n      tag_246\n      swap2\n      swap1\n      tag_238\n      jump\t// in\n    tag_246:\n      0x05\n      dup3\n      add\n      0x00\n      swap1\n      sstore\n      0x06\n      dup3\n      add\n      0x00\n      swap1\n      sstore\n      0x07\n      dup3\n      add\n      0x00\n      tag_247\n      swap2\n      swap1\n      tag_238\n      jump\t// in\n    tag_247:\n      pop\n      pop\n        /* \"UsersMixin.sol\":5362:5843   */\n      pop\n      pop\n        /* \"UsersMixin.sol\":5236:5843   */\n      pop\n      pop\n      pop\n      pop\n      jump\t// out\n        /* \"UsersMixin.sol\":5003:5230   */\n    tag_60:\n        /* \"UsersMixin.sol\":241:248   */\n      0x00\n      dup1\n      sload\n      swap1\n      0x0100\n      exp\n      swap1\n      div\n      0xffffffffffffffffffffffffffffffffffffffff\n      and\n        /* \"UsersMixin.sol\":227:248   */\n      0xffffffffffffffffffffffffffffffffffffffff\n      and\n        /* \"UsersMixin.sol\":227:237   */\n      caller\n        /* \"UsersMixin.sol\":227:248   */\n      0xffffffffffffffffffffffffffffffffffffffff\n      and\n      eq\n        /* \"UsersMixin.sol\":219:249   */\n      tag_249\n      jumpi\n      0x00\n      dup1\n      revert\n    tag_249:\n        /* \"UsersMixin.sol\":5102:5118   */\n      0x04\n      0x00\n        /* \"UsersMixin.sol\":5095:5118   */\n      tag_251\n      swap2\n      swap1\n      tag_252\n      jump\t// in\n    tag_251:\n        /* \"UsersMixin.sol\":5132:5138   */\n      0x00\n        /* \"UsersMixin.sol\":5127:5224   */\n    tag_253:\n        /* \"UsersMixin.sol\":5148:5149   */\n      0x05\n        /* \"UsersMixin.sol\":5144:5145   */\n      dup2\n        /* \"UsersMixin.sol\":5144:5149   */\n      lt\n        /* \"UsersMixin.sol\":5127:5224   */\n      iszero\n      tag_254\n      jumpi\n        /* \"UsersMixin.sol\":5166:5182   */\n      0x04\n        /* \"UsersMixin.sol\":5188:5199   */\n      0x02\n        /* \"UsersMixin.sol\":5200:5210   */\n      dup4\n        /* \"UsersMixin.sol\":5211:5212   */\n      dup4\n        /* \"UsersMixin.sol\":5200:5213   */\n      dup2\n      mload\n      dup2\n      lt\n      tag_256\n      jumpi\n      tag_257\n      tag_208\n      jump\t// in\n    tag_257:\n    tag_256:\n      0x20\n      mul\n      0x20\n      add\n      add\n      mload\n        /* \"UsersMixin.sol\":5188:5214   */\n      dup2\n      sload\n      dup2\n      lt\n      tag_258\n      jumpi\n      tag_259\n      tag_208\n      jump\t// in\n    tag_259:\n    tag_258:\n      swap1\n      0x00\n      mstore\n      keccak256(0x00, 0x20)\n      swap1\n      0x06\n      mul\n      add\n        /* \"UsersMixin.sol\":5166:5215   */\n      swap1\n      dup1\n      0x01\n      dup2\n      sload\n      add\n      dup1\n      dup3\n      sstore\n      dup1\n      swap2\n      pop\n      pop\n      0x01\n      swap1\n      sub\n      swap1\n      0x00\n      mstore\n      keccak256(0x00, 0x20)\n      swap1\n      0x06\n      mul\n      add\n      0x00\n      swap1\n      swap2\n      swap1\n      swap2\n      swap1\n      swap2\n      pop\n      0x00\n      dup3\n      add\n      sload\n      dup2\n      0x00\n      add\n      sstore\n      0x01\n      dup3\n      add\n      dup2\n      0x01\n      add\n      swap1\n      dup2\n      tag_262\n      swap2\n      swap1\n      tag_211\n      jump\t// in\n    tag_262:\n      pop\n      0x02\n      dup3\n      add\n      dup2\n      0x02\n      add\n      swap1\n      dup2\n      tag_263\n      swap2\n      swap1\n      tag_211\n      jump\t// in\n    tag_263:\n      pop\n      0x03\n      dup3\n      add\n      dup2\n      0x03\n      add\n      swap1\n      dup2\n      tag_264\n      swap2\n      swap1\n      tag_211\n      jump\t// in\n    tag_264:\n      pop\n      0x04\n      dup3\n      add\n      sload\n      dup2\n      0x04\n      add\n      sstore\n      0x05\n      dup3\n      add\n      sload\n      dup2\n      0x05\n      add\n      sstore\n      pop\n      pop\n        /* \"UsersMixin.sol\":5151:5154   */\n      dup1\n      dup1\n      tag_265\n      swap1\n      tag_216\n      jump\t// in\n    tag_265:\n      swap2\n      pop\n      pop\n        /* \"UsersMixin.sol\":5127:5224   */\n      jump(tag_253)\n    tag_254:\n      pop\n        /* \"UsersMixin.sol\":5003:5230   */\n      pop\n      jump\t// out\n        /* \"UsersMixin.sol\":1514:1746   */\n    tag_64:\n        /* \"UsersMixin.sol\":1602:1618   */\n      0x0e\n        /* \"UsersMixin.sol\":1602:1630   */\n      0x00\n        /* \"UsersMixin.sol\":1619:1629   */\n      caller\n        /* \"UsersMixin.sol\":1602:1630   */\n      0xffffffffffffffffffffffffffffffffffffffff\n      and\n      0xffffffffffffffffffffffffffffffffffffffff\n      and\n      dup2\n      mstore\n      0x20\n      add\n      swap1\n      dup2\n      mstore\n      0x20\n      add\n      0x00\n      keccak256\n      0x00\n      swap1\n      sload\n      swap1\n      0x0100\n      exp\n      swap1\n      div\n      0xff\n      and\n        /* \"UsersMixin.sol\":1594:1631   */\n      tag_267\n      jumpi\n      0x00\n      dup1\n      revert\n    tag_267:\n        /* \"UsersMixin.sol\":1639:1653   */\n      0x00\n        /* \"UsersMixin.sol\":1656:1661   */\n      0x05\n        /* \"UsersMixin.sol\":1656:1673   */\n      0x00\n        /* \"UsersMixin.sol\":1662:1672   */\n      caller\n        /* \"UsersMixin.sol\":1656:1673   */\n      0xffffffffffffffffffffffffffffffffffffffff\n      and\n      0xffffffffffffffffffffffffffffffffffffffff\n      and\n      dup2\n      mstore\n      0x20\n      add\n      swap1\n      dup2\n      mstore\n      0x20\n      add\n      0x00\n      keccak256\n        /* \"UsersMixin.sol\":1639:1673   */\n      swap1\n      pop\n        /* \"UsersMixin.sol\":1706:1713   */\n      dup2\n        /* \"UsersMixin.sol\":1681:1682   */\n      dup2\n        /* \"UsersMixin.sol\":1681:1703   */\n      0x07\n      add\n        /* \"UsersMixin.sol\":1681:1713   */\n      swap1\n      dup2\n      tag_268\n      swap2\n      swap1\n      tag_269\n      jump\t// in\n    tag_268:\n      pop\n        /* \"UsersMixin.sol\":1738:1739   */\n      dup1\n        /* \"UsersMixin.sol\":1721:1729   */\n      0x01\n        /* \"UsersMixin.sol\":1730:1731   */\n      dup3\n        /* \"UsersMixin.sol\":1730:1734   */\n      0x00\n      add\n      sload\n        /* \"UsersMixin.sol\":1721:1735   */\n      dup2\n      sload\n      dup2\n      lt\n      tag_270\n      jumpi\n      tag_271\n      tag_208\n      jump\t// in\n    tag_271:\n    tag_270:\n      swap1\n      0x00\n      mstore\n      keccak256(0x00, 0x20)\n      swap1\n      0x08\n      mul\n      add\n        /* \"UsersMixin.sol\":1721:1739   */\n      0x00\n      dup3\n      add\n      sload\n      dup2\n      0x00\n      add\n      sstore\n      0x01\n      dup3\n      add\n      0x00\n      swap1\n      sload\n      swap1\n      0x0100\n      exp\n      swap1\n      div\n      0xffffffffffffffffffffffffffffffffffffffff\n      and\n      dup2\n      0x01\n      add\n      exp(0x0100, 0x00)\n      dup2\n      sload\n      dup2\n      0xffffffffffffffffffffffffffffffffffffffff\n      mul\n      not\n      and\n      swap1\n      dup4\n      0xffffffffffffffffffffffffffffffffffffffff\n      and\n      mul\n      or\n      swap1\n      sstore\n      pop\n      0x02\n      dup3\n      add\n      dup2\n      0x02\n      add\n      swap1\n      dup2\n      tag_273\n      swap2\n      swap1\n      tag_211\n      jump\t// in\n    tag_273:\n      pop\n      0x03\n      dup3\n      add\n      dup2\n      0x03\n      add\n      swap1\n      dup2\n      tag_274\n      swap2\n      swap1\n      tag_211\n      jump\t// in\n    tag_274:\n      pop\n      0x04\n      dup3\n      add\n      dup2\n      0x04\n      add\n      swap1\n      dup2\n      tag_275\n      swap2\n      swap1\n      tag_211\n      jump\t// in\n    tag_275:\n      pop\n      0x05\n      dup3\n      add\n      sload\n      dup2\n      0x05\n      add\n      sstore\n      0x06\n      dup3\n      add\n      sload\n      dup2\n      0x06\n      add\n      sstore\n      0x07\n      dup3\n      add\n      dup2\n      0x07\n      add\n      swap1\n      dup2\n      tag_276\n      swap2\n      swap1\n      tag_211\n      jump\t// in\n    tag_276:\n      pop\n      swap1\n      pop\n      pop\n        /* \"UsersMixin.sol\":1586:1746   */\n      pop\n        /* \"UsersMixin.sol\":1514:1746   */\n      pop\n      jump\t// out\n        /* \"UsersStorage.sol\":1114:1154   */\n    tag_68:\n      0x0c\n      dup2\n      dup1\n      mload\n      0x20\n      dup2\n      add\n      dup3\n      add\n      dup1\n      mload\n      dup5\n      dup3\n      mstore\n      0x20\n      dup4\n      add\n      0x20\n      dup6\n      add\n      keccak256\n      dup2\n      dup4\n      mstore\n      dup1\n      swap6\n      pop\n      pop\n      pop\n      pop\n      pop\n      pop\n      0x00\n      swap2\n      pop\n      swap1\n      pop\n      sload\n      dup2\n      jump\t// out\n        /* \"UsersStorage.sol\":1364:1415   */\n    tag_74:\n      mstore(0x20, 0x11)\n      dup1\n      0x00\n      mstore\n      keccak256(0x00, 0x40)\n      0x00\n      swap2\n      pop\n      swap1\n      pop\n      sload\n      dup2\n      jump\t// out\n        /* \"UsersStorage.sol\":1261:1305   */\n    tag_79:\n      0x0f\n      dup2\n      dup1\n      mload\n      0x20\n      dup2\n      add\n      dup3\n      add\n      dup1\n      mload\n      dup5\n      dup3\n      mstore\n      0x20\n      dup4\n      add\n      0x20\n      dup6\n      add\n      keccak256\n      dup2\n      dup4\n      mstore\n      dup1\n      swap6\n      pop\n      pop\n      pop\n      pop\n      pop\n      pop\n      0x00\n      swap2\n      pop\n      sload\n      swap1\n      0x0100\n      exp\n      swap1\n      div\n      0xff\n      and\n      dup2\n      jump\t// out\n        /* \"UsersMixin.sol\":1752:2639   */\n    tag_85:\n        /* \"UsersMixin.sol\":1908:1924   */\n      0x10\n        /* \"UsersMixin.sol\":1925:1936   */\n      dup4\n        /* \"UsersMixin.sol\":1908:1937   */\n      mload(0x40)\n      tag_278\n      swap2\n      swap1\n      tag_279\n      jump\t// in\n    tag_278:\n      swap1\n      dup2\n      mstore\n      0x20\n      add\n      mload(0x40)\n      dup1\n      swap2\n      sub\n      swap1\n      keccak256\n      0x00\n      swap1\n      sload\n      swap1\n      0x0100\n      exp\n      swap1\n      div\n      0xff\n      and\n        /* \"UsersMixin.sol\":1907:1937   */\n      iszero\n        /* \"UsersMixin.sol\":1899:1938   */\n      tag_280\n      jumpi\n      0x00\n      dup1\n      revert\n    tag_280:\n        /* \"UsersMixin.sol\":1948:1965   */\n      0x00\n        /* \"UsersMixin.sol\":1968:1973   */\n      0x05\n        /* \"UsersMixin.sol\":1968:1986   */\n      0x00\n        /* \"UsersMixin.sol\":1974:1985   */\n      dup7\n        /* \"UsersMixin.sol\":1968:1986   */\n      0xffffffffffffffffffffffffffffffffffffffff\n      and\n      0xffffffffffffffffffffffffffffffffffffffff\n      and\n      dup2\n      mstore\n      0x20\n      add\n      swap1\n      dup2\n      mstore\n      0x20\n      add\n      0x00\n      keccak256\n        /* \"UsersMixin.sol\":1948:1986   */\n      swap1\n      pop\n        /* \"UsersMixin.sol\":1996:2000   */\n      dup1\n        /* \"UsersMixin.sol\":1996:2017   */\n      0x05\n      add\n      0x00\n        /* \"UsersMixin.sol\":1996:2019   */\n      dup2\n      sload\n      dup1\n      swap3\n      swap2\n      swap1\n      tag_281\n      swap1\n      tag_216\n      jump\t// in\n    tag_281:\n      swap2\n      swap1\n      pop\n      sstore\n      pop\n        /* \"UsersMixin.sol\":2030:2053   */\n      0x00\n        /* \"UsersMixin.sol\":2056:2067   */\n      0x02\n        /* \"UsersMixin.sol\":2056:2074   */\n      0x01\n      dup2\n      0x01\n      dup2\n      sload\n      add\n      dup1\n      dup3\n      sstore\n      dup1\n      swap2\n      pop\n      pop\n      sub\n      swap1\n      0x00\n      mstore\n      keccak256(0x00, 0x20)\n      swap1\n      0x06\n      mul\n      add\n        /* \"UsersMixin.sol\":2030:2074   */\n      swap1\n      pop\n        /* \"UsersMixin.sol\":2098:2111   */\n      sload(0x14)\n        /* \"UsersMixin.sol\":2085:2092   */\n      dup2\n        /* \"UsersMixin.sol\":2085:2095   */\n      0x00\n      add\n        /* \"UsersMixin.sol\":2085:2111   */\n      dup2\n      swap1\n      sstore\n      pop\n        /* \"UsersMixin.sol\":2136:2147   */\n      dup5\n        /* \"UsersMixin.sol\":2121:2128   */\n      dup2\n        /* \"UsersMixin.sol\":2121:2133   */\n      0x01\n      add\n        /* \"UsersMixin.sol\":2121:2147   */\n      swap1\n      dup2\n      tag_283\n      swap2\n      swap1\n      tag_269\n      jump\t// in\n    tag_283:\n      pop\n        /* \"UsersMixin.sol\":2175:2189   */\n      dup4\n        /* \"UsersMixin.sol\":2157:2164   */\n      dup2\n        /* \"UsersMixin.sol\":2157:2172   */\n      0x03\n      add\n        /* \"UsersMixin.sol\":2157:2189   */\n      swap1\n      dup2\n      tag_284\n      swap2\n      swap1\n      tag_269\n      jump\t// in\n    tag_284:\n      pop\n        /* \"UsersMixin.sol\":2215:2220   */\n      dup3\n        /* \"UsersMixin.sol\":2199:2206   */\n      dup2\n        /* \"UsersMixin.sol\":2199:2212   */\n      0x02\n      add\n        /* \"UsersMixin.sol\":2199:2220   */\n      swap1\n      dup2\n      tag_285\n      swap2\n      swap1\n      tag_269\n      jump\t// in\n    tag_285:\n      pop\n        /* \"UsersMixin.sol\":2230:2237   */\n      dup1\n        /* \"UsersMixin.sol\":2230:2250   */\n      0x04\n      add\n      0x00\n        /* \"UsersMixin.sol\":2230:2252   */\n      dup2\n      sload\n      dup1\n      swap3\n      swap2\n      swap1\n      tag_286\n      swap1\n      tag_216\n      jump\t// in\n    tag_286:\n      swap2\n      swap1\n      pop\n      sstore\n      pop\n        /* \"UsersMixin.sol\":2295:2299   */\n      0x01\n        /* \"UsersMixin.sol\":2263:2279   */\n      0x10\n        /* \"UsersMixin.sol\":2280:2291   */\n      dup7\n        /* \"UsersMixin.sol\":2263:2292   */\n      mload(0x40)\n      tag_287\n      swap2\n      swap1\n      tag_279\n      jump\t// in\n    tag_287:\n      swap1\n      dup2\n      mstore\n      0x20\n      add\n      mload(0x40)\n      dup1\n      swap2\n      sub\n      swap1\n      keccak256\n      0x00\n        /* \"UsersMixin.sol\":2263:2299   */\n      0x0100\n      exp\n      dup2\n      sload\n      dup2\n      0xff\n      mul\n      not\n      and\n      swap1\n      dup4\n      iszero\n      iszero\n      mul\n      or\n      swap1\n      sstore\n      pop\n        /* \"UsersMixin.sol\":2341:2348   */\n      dup1\n        /* \"UsersMixin.sol\":2309:2325   */\n      0x07\n        /* \"UsersMixin.sol\":2326:2337   */\n      dup7\n        /* \"UsersMixin.sol\":2309:2338   */\n      mload(0x40)\n      tag_288\n      swap2\n      swap1\n      tag_279\n      jump\t// in\n    tag_288:\n      swap1\n      dup2\n      mstore\n      0x20\n      add\n      mload(0x40)\n      dup1\n      swap2\n      sub\n      swap1\n      keccak256\n        /* \"UsersMixin.sol\":2309:2348   */\n      0x00\n      dup3\n      add\n      sload\n      dup2\n      0x00\n      add\n      sstore\n      0x01\n      dup3\n      add\n      dup2\n      0x01\n      add\n      swap1\n      dup2\n      tag_289\n      swap2\n      swap1\n      tag_211\n      jump\t// in\n    tag_289:\n      pop\n      0x02\n      dup3\n      add\n      dup2\n      0x02\n      add\n      swap1\n      dup2\n      tag_290\n      swap2\n      swap1\n      tag_211\n      jump\t// in\n    tag_290:\n      pop\n      0x03\n      dup3\n      add\n      dup2\n      0x03\n      add\n      swap1\n      dup2\n      tag_291\n      swap2\n      swap1\n      tag_211\n      jump\t// in\n    tag_291:\n      pop\n      0x04\n      dup3\n      add\n      sload\n      dup2\n      0x04\n      add\n      sstore\n      0x05\n      dup3\n      add\n      sload\n      dup2\n      0x05\n      add\n      sstore\n      swap1\n      pop\n      pop\n        /* \"UsersMixin.sol\":2379:2383   */\n      dup2\n        /* \"UsersMixin.sol\":2359:2367   */\n      0x01\n        /* \"UsersMixin.sol\":2368:2372   */\n      dup4\n        /* \"UsersMixin.sol\":2368:2375   */\n      0x00\n      add\n      sload\n        /* \"UsersMixin.sol\":2359:2376   */\n      dup2\n      sload\n      dup2\n      lt\n      tag_292\n      jumpi\n      tag_293\n      tag_208\n      jump\t// in\n    tag_293:\n    tag_292:\n      swap1\n      0x00\n      mstore\n      keccak256(0x00, 0x20)\n      swap1\n      0x08\n      mul\n      add\n        /* \"UsersMixin.sol\":2359:2383   */\n      0x00\n      dup3\n      add\n      sload\n      dup2\n      0x00\n      add\n      sstore\n      0x01\n      dup3\n      add\n      0x00\n      swap1\n      sload\n      swap1\n      0x0100\n      exp\n      swap1\n      div\n      0xffffffffffffffffffffffffffffffffffffffff\n      and\n      dup2\n      0x01\n      add\n      exp(0x0100, 0x00)\n      dup2\n      sload\n      dup2\n      0xffffffffffffffffffffffffffffffffffffffff\n      mul\n      not\n      and\n      swap1\n      dup4\n      0xffffffffffffffffffffffffffffffffffffffff\n      and\n      mul\n      or\n      swap1\n      sstore\n      pop\n      0x02\n      dup3\n      add\n      dup2\n      0x02\n      add\n      swap1\n      dup2\n      tag_295\n      swap2\n      swap1\n      tag_211\n      jump\t// in\n    tag_295:\n      pop\n      0x03\n      dup3\n      add\n      dup2\n      0x03\n      add\n      swap1\n      dup2\n      tag_296\n      swap2\n      swap1\n      tag_211\n      jump\t// in\n    tag_296:\n      pop\n      0x04\n      dup3\n      add\n      dup2\n      0x04\n      add\n      swap1\n      dup2\n      tag_297\n      swap2\n      swap1\n      tag_211\n      jump\t// in\n    tag_297:\n      pop\n      0x05\n      dup3\n      add\n      sload\n      dup2\n      0x05\n      add\n      sstore\n      0x06\n      dup3\n      add\n      sload\n      dup2\n      0x06\n      add\n      sstore\n      0x07\n      dup3\n      add\n      dup2\n      0x07\n      add\n      swap1\n      dup2\n      tag_298\n      swap2\n      swap1\n      tag_211\n      jump\t// in\n    tag_298:\n      pop\n      swap1\n      pop\n      pop\n        /* \"UsersMixin.sol\":2394:2414   */\n      0x12\n        /* \"UsersMixin.sol\":2394:2429   */\n      0x00\n        /* \"UsersMixin.sol\":2415:2428   */\n      sload(0x14)\n        /* \"UsersMixin.sol\":2394:2429   */\n      dup2\n      mstore\n      0x20\n      add\n      swap1\n      dup2\n      mstore\n      0x20\n      add\n      0x00\n      keccak256\n      0x00\n        /* \"UsersMixin.sol\":2394:2431   */\n      dup2\n      sload\n      dup1\n      swap3\n      swap2\n      swap1\n      tag_299\n      swap1\n      tag_216\n      jump\t// in\n    tag_299:\n      swap2\n      swap1\n      pop\n      sstore\n      pop\n        /* \"UsersMixin.sol\":2441:2460   */\n      0x11\n        /* \"UsersMixin.sol\":2441:2473   */\n      0x00\n        /* \"UsersMixin.sol\":2461:2472   */\n      dup8\n        /* \"UsersMixin.sol\":2441:2473   */\n      0xffffffffffffffffffffffffffffffffffffffff\n      and\n      0xffffffffffffffffffffffffffffffffffffffff\n      and\n      dup2\n      mstore\n      0x20\n      add\n      swap1\n      dup2\n      mstore\n      0x20\n      add\n      0x00\n      keccak256\n      0x00\n        /* \"UsersMixin.sol\":2441:2475   */\n      dup2\n      sload\n      dup1\n      swap3\n      swap2\n      swap1\n      tag_300\n      swap1\n      tag_216\n      jump\t// in\n    tag_300:\n      swap2\n      swap1\n      pop\n      sstore\n      pop\n        /* \"UsersMixin.sol\":2485:2498   */\n      0x06\n        /* \"UsersMixin.sol\":2485:2511   */\n      0x00\n        /* \"UsersMixin.sol\":2499:2510   */\n      dup8\n        /* \"UsersMixin.sol\":2485:2511   */\n      0xffffffffffffffffffffffffffffffffffffffff\n      and\n      0xffffffffffffffffffffffffffffffffffffffff\n      and\n      dup2\n      mstore\n      0x20\n      add\n      swap1\n      dup2\n      mstore\n      0x20\n      add\n      0x00\n      keccak256\n        /* \"UsersMixin.sol\":2517:2524   */\n      dup2\n        /* \"UsersMixin.sol\":2485:2525   */\n      swap1\n      dup1\n      0x01\n      dup2\n      sload\n      add\n      dup1\n      dup3\n      sstore\n      dup1\n      swap2\n      pop\n      pop\n      0x01\n      swap1\n      sub\n      swap1\n      0x00\n      mstore\n      keccak256(0x00, 0x20)\n      swap1\n      0x06\n      mul\n      add\n      0x00\n      swap1\n      swap2\n      swap1\n      swap2\n      swap1\n      swap2\n      pop\n      0x00\n      dup3\n      add\n      sload\n      dup2\n      0x00\n      add\n      sstore\n      0x01\n      dup3\n      add\n      dup2\n      0x01\n      add\n      swap1\n      dup2\n      tag_302\n      swap2\n      swap1\n      tag_211\n      jump\t// in\n    tag_302:\n      pop\n      0x02\n      dup3\n      add\n      dup2\n      0x02\n      add\n      swap1\n      dup2\n      tag_303\n      swap2\n      swap1\n      tag_211\n      jump\t// in\n    tag_303:\n      pop\n      0x03\n      dup3\n      add\n      dup2\n      0x03\n      add\n      swap1\n      dup2\n      tag_304\n      swap2\n      swap1\n      tag_211\n      jump\t// in\n    tag_304:\n      pop\n      0x04\n      dup3\n      add\n      sload\n      dup2\n      0x04\n      add\n      sstore\n      0x05\n      dup3\n      add\n      sload\n      dup2\n      0x05\n      add\n      sstore\n      pop\n      pop\n        /* \"UsersMixin.sol\":2535:2549   */\n      0x08\n        /* \"UsersMixin.sol\":2535:2564   */\n      0x00\n        /* \"UsersMixin.sol\":2550:2563   */\n      sload(0x14)\n        /* \"UsersMixin.sol\":2535:2564   */\n      dup2\n      mstore\n      0x20\n      add\n      swap1\n      dup2\n      mstore\n      0x20\n      add\n      0x00\n      keccak256\n        /* \"UsersMixin.sol\":2570:2574   */\n      dup3\n        /* \"UsersMixin.sol\":2535:2575   */\n      swap1\n      dup1\n      0x01\n      dup2\n      sload\n      add\n      dup1\n      dup3\n      sstore\n      dup1\n      swap2\n      pop\n      pop\n      0x01\n      swap1\n      sub\n      swap1\n      0x00\n      mstore\n      keccak256(0x00, 0x20)\n      swap1\n      0x08\n      mul\n      add\n      0x00\n      swap1\n      swap2\n      swap1\n      swap2\n      swap1\n      swap2\n      pop\n      0x00\n      dup3\n      add\n      sload\n      dup2\n      0x00\n      add\n      sstore\n      0x01\n      dup3\n      add\n      0x00\n      swap1\n      sload\n      swap1\n      0x0100\n      exp\n      swap1\n      div\n      0xffffffffffffffffffffffffffffffffffffffff\n      and\n      dup2\n      0x01\n      add\n      exp(0x0100, 0x00)\n      dup2\n      sload\n      dup2\n      0xffffffffffffffffffffffffffffffffffffffff\n      mul\n      not\n      and\n      swap1\n      dup4\n      0xffffffffffffffffffffffffffffffffffffffff\n      and\n      mul\n      or\n      swap1\n      sstore\n      pop\n      0x02\n      dup3\n      add\n      dup2\n      0x02\n      add\n      swap1\n      dup2\n      tag_306\n      swap2\n      swap1\n      tag_211\n      jump\t// in\n    tag_306:\n      pop\n      0x03\n      dup3\n      add\n      dup2\n      0x03\n      add\n      swap1\n      dup2\n      tag_307\n      swap2\n      swap1\n      tag_211\n      jump\t// in\n    tag_307:\n      pop\n      0x04\n      dup3\n      add\n      dup2\n      0x04\n      add\n      swap1\n      dup2\n      tag_308\n      swap2\n      swap1\n      tag_211\n      jump\t// in\n    tag_308:\n      pop\n      0x05\n      dup3\n      add\n      sload\n      dup2\n      0x05\n      add\n      sstore\n      0x06\n      dup3\n      add\n      sload\n      dup2\n      0x06\n      add\n      sstore\n      0x07\n      dup3\n      add\n      dup2\n      0x07\n      add\n      swap1\n      dup2\n      tag_309\n      swap2\n      swap1\n      tag_211\n      jump\t// in\n    tag_309:\n      pop\n      pop\n      pop\n        /* \"UsersMixin.sol\":2606:2607   */\n      0x01\n        /* \"UsersMixin.sol\":2585:2595   */\n      0x0d\n        /* \"UsersMixin.sol\":2596:2601   */\n      dup5\n        /* \"UsersMixin.sol\":2585:2602   */\n      mload(0x40)\n      tag_310\n      swap2\n      swap1\n      tag_279\n      jump\t// in\n    tag_310:\n      swap1\n      dup2\n      mstore\n      0x20\n      add\n      mload(0x40)\n      dup1\n      swap2\n      sub\n      swap1\n      keccak256\n      0x00\n        /* \"UsersMixin.sol\":2585:2607   */\n      dup3\n      dup3\n      sload\n      tag_311\n      swap2\n      swap1\n      tag_312\n      jump\t// in\n    tag_311:\n      swap3\n      pop\n      pop\n      dup2\n      swap1\n      sstore\n      pop\n        /* \"UsersMixin.sol\":2617:2630   */\n      0x14\n      0x00\n        /* \"UsersMixin.sol\":2617:2632   */\n      dup2\n      sload\n      dup1\n      swap3\n      swap2\n      swap1\n      tag_313\n      swap1\n      tag_216\n      jump\t// in\n    tag_313:\n      swap2\n      swap1\n      pop\n      sstore\n      pop\n        /* \"UsersMixin.sol\":1889:2639   */\n      pop\n      pop\n        /* \"UsersMixin.sol\":1752:2639   */\n      pop\n      pop\n      pop\n      pop\n      jump\t// out\n        /* \"UsersStorage.sol\":885:930   */\n    tag_90:\n      mstore(0x20, 0x08)\n      dup2\n      0x00\n      mstore\n      keccak256(0x00, 0x40)\n      dup2\n      dup2\n      sload\n      dup2\n      lt\n      tag_314\n      jumpi\n      0x00\n      dup1\n      revert\n    tag_314:\n      swap1\n      0x00\n      mstore\n      keccak256(0x00, 0x20)\n      swap1\n      0x08\n      mul\n      add\n      0x00\n      swap2\n      pop\n      swap2\n      pop\n      pop\n      dup1\n      0x00\n      add\n      sload\n      swap1\n      dup1\n      0x01\n      add\n      0x00\n      swap1\n      sload\n      swap1\n      0x0100\n      exp\n      swap1\n      div\n      0xffffffffffffffffffffffffffffffffffffffff\n      and\n      swap1\n      dup1\n      0x02\n      add\n      dup1\n      sload\n      tag_316\n      swap1\n      tag_317\n      jump\t// in\n    tag_316:\n      dup1\n      0x1f\n      add\n      0x20\n      dup1\n      swap2\n      div\n      mul\n      0x20\n      add\n      mload(0x40)\n      swap1\n      dup2\n      add\n      0x40\n      mstore\n      dup1\n      swap3\n      swap2\n      swap1\n      dup2\n      dup2\n      mstore\n      0x20\n      add\n      dup3\n      dup1\n      sload\n      tag_318\n      swap1\n      tag_317\n      jump\t// in\n    tag_318:\n      dup1\n      iszero\n      tag_319\n      jumpi\n      dup1\n      0x1f\n      lt\n      tag_320\n      jumpi\n      0x0100\n      dup1\n      dup4\n      sload\n      div\n      mul\n      dup4\n      mstore\n      swap2\n      0x20\n      add\n      swap2\n      jump(tag_319)\n    tag_320:\n      dup3\n      add\n      swap2\n      swap1\n      0x00\n      mstore\n      keccak256(0x00, 0x20)\n      swap1\n    tag_321:\n      dup2\n      sload\n      dup2\n      mstore\n      swap1\n      0x01\n      add\n      swap1\n      0x20\n      add\n      dup1\n      dup4\n      gt\n      tag_321\n      jumpi\n      dup3\n      swap1\n      sub\n      0x1f\n      and\n      dup3\n      add\n      swap2\n    tag_319:\n      pop\n      pop\n      pop\n      pop\n      pop\n      swap1\n      dup1\n      0x03\n      add\n      dup1\n      sload\n      tag_322\n      swap1\n      tag_317\n      jump\t// in\n    tag_322:\n      dup1\n      0x1f\n      add\n      0x20\n      dup1\n      swap2\n      div\n      mul\n      0x20\n      add\n      mload(0x40)\n      swap1\n      dup2\n      add\n      0x40\n      mstore\n      dup1\n      swap3\n      swap2\n      swap1\n      dup2\n      dup2\n      mstore\n      0x20\n      add\n      dup3\n      dup1\n      sload\n      tag_323\n      swap1\n      tag_317\n      jump\t// in\n    tag_323:\n      dup1\n      iszero\n      tag_324\n      jumpi\n      dup1\n      0x1f\n      lt\n      tag_325\n      jumpi\n      0x0100\n      dup1\n      dup4\n      sload\n      div\n      mul\n      dup4\n      mstore\n      swap2\n      0x20\n      add\n      swap2\n      jump(tag_324)\n    tag_325:\n      dup3\n      add\n      swap2\n      swap1\n      0x00\n      mstore\n      keccak256(0x00, 0x20)\n      swap1\n    tag_326:\n      dup2\n      sload\n      dup2\n      mstore\n      swap1\n      0x01\n      add\n      swap1\n      0x20\n      add\n      dup1\n      dup4\n      gt\n      tag_326\n      jumpi\n      dup3\n      swap1\n      sub\n      0x1f\n      and\n      dup3\n      add\n      swap2\n    tag_324:\n      pop\n      pop\n      pop\n      pop\n      pop\n      swap1\n      dup1\n      0x04\n      add\n      dup1\n      sload\n      tag_327\n      swap1\n      tag_317\n      jump\t// in\n    tag_327:\n      dup1\n      0x1f\n      add\n      0x20\n      dup1\n      swap2\n      div\n      mul\n      0x20\n      add\n      mload(0x40)\n      swap1\n      dup2\n      add\n      0x40\n      mstore\n      dup1\n      swap3\n      swap2\n      swap1\n      dup2\n      dup2\n      mstore\n      0x20\n      add\n      dup3\n      dup1\n      sload\n      tag_328\n      swap1\n      tag_317\n      jump\t// in\n    tag_328:\n      dup1\n      iszero\n      tag_329\n      jumpi\n      dup1\n      0x1f\n      lt\n      tag_330\n      jumpi\n      0x0100\n      dup1\n      dup4\n      sload\n      div\n      mul\n      dup4\n      mstore\n      swap2\n      0x20\n      add\n      swap2\n      jump(tag_329)\n    tag_330:\n      dup3\n      add\n      swap2\n      swap1\n      0x00\n      mstore\n      keccak256(0x00, 0x20)\n      swap1\n    tag_331:\n      dup2\n      sload\n      dup2\n      mstore\n      swap1\n      0x01\n      add\n      swap1\n      0x20\n      add\n      dup1\n      dup4\n      gt\n      tag_331\n      jumpi\n      dup3\n      swap1\n      sub\n      0x1f\n      and\n      dup3\n      add\n      swap2\n    tag_329:\n      pop\n      pop\n      pop\n      pop\n      pop\n      swap1\n      dup1\n      0x05\n      add\n      sload\n      swap1\n      dup1\n      0x06\n      add\n      sload\n      swap1\n      dup1\n      0x07\n      add\n      dup1\n      sload\n      tag_332\n      swap1\n      tag_317\n      jump\t// in\n    tag_332:\n      dup1\n      0x1f\n      add\n      0x20\n      dup1\n      swap2\n      div\n      mul\n      0x20\n      add\n      mload(0x40)\n      swap1\n      dup2\n      add\n      0x40\n      mstore\n      dup1\n      swap3\n      swap2\n      swap1\n      dup2\n      dup2\n      mstore\n      0x20\n      add\n      dup3\n      dup1\n      sload\n      tag_333\n      swap1\n      tag_317\n      jump\t// in\n    tag_333:\n      dup1\n      iszero\n      tag_334\n      jumpi\n      dup1\n      0x1f\n      lt\n      tag_335\n      jumpi\n      0x0100\n      dup1\n      dup4\n      sload\n      div\n      mul\n      dup4\n      mstore\n      swap2\n      0x20\n      add\n      swap2\n      jump(tag_334)\n    tag_335:\n      dup3\n      add\n      swap2\n      swap1\n      0x00\n      mstore\n      keccak256(0x00, 0x20)\n      swap1\n    tag_336:\n      dup2\n      sload\n      dup2\n      mstore\n      swap1\n      0x01\n      add\n      swap1\n      0x20\n      add\n      dup1\n      dup4\n      gt\n      tag_336\n      jumpi\n      dup3\n      swap1\n      sub\n      0x1f\n      and\n      dup3\n      add\n      swap2\n    tag_334:\n      pop\n      pop\n      pop\n      pop\n      pop\n      swap1\n      pop\n      dup9\n      jump\t// out\n        /* \"UsersMixin.sol\":3344:4017   */\n    tag_96:\n        /* \"UsersMixin.sol\":3470:3486   */\n      0x0e\n        /* \"UsersMixin.sol\":3470:3499   */\n      0x00\n        /* \"UsersMixin.sol\":3487:3498   */\n      dup6\n        /* \"UsersMixin.sol\":3470:3499   */\n      0xffffffffffffffffffffffffffffffffffffffff\n      and\n      0xffffffffffffffffffffffffffffffffffffffff\n      and\n      dup2\n      mstore\n      0x20\n      add\n      swap1\n      dup2\n      mstore\n      0x20\n      add\n      0x00\n      keccak256\n      0x00\n      swap1\n      sload\n      swap1\n      0x0100\n      exp\n      swap1\n      div\n      0xff\n      and\n        /* \"UsersMixin.sol\":3462:3500   */\n      tag_338\n      jumpi\n      0x00\n      dup1\n      revert\n    tag_338:\n        /* \"UsersMixin.sol\":3508:3531   */\n      0x00\n        /* \"UsersMixin.sol\":3534:3545   */\n      0x02\n        /* \"UsersMixin.sol\":3546:3555   */\n      dup5\n        /* \"UsersMixin.sol\":3534:3556   */\n      dup2\n      sload\n      dup2\n      lt\n      tag_339\n      jumpi\n      tag_340\n      tag_208\n      jump\t// in\n    tag_340:\n    tag_339:\n      swap1\n      0x00\n      mstore\n      keccak256(0x00, 0x20)\n      swap1\n      0x06\n      mul\n      add\n        /* \"UsersMixin.sol\":3508:3556   */\n      swap1\n      pop\n        /* \"UsersMixin.sol\":3564:3581   */\n      0x00\n        /* \"UsersMixin.sol\":3584:3589   */\n      0x05\n        /* \"UsersMixin.sol\":3584:3602   */\n      0x00\n        /* \"UsersMixin.sol\":3590:3601   */\n      dup8\n        /* \"UsersMixin.sol\":3584:3602   */\n      0xffffffffffffffffffffffffffffffffffffffff\n      and\n      0xffffffffffffffffffffffffffffffffffffffff\n      and\n      dup2\n      mstore\n      0x20\n      add\n      swap1\n      dup2\n      mstore\n      0x20\n      add\n      0x00\n      keccak256\n        /* \"UsersMixin.sol\":3564:3602   */\n      swap1\n      pop\n        /* \"UsersMixin.sol\":3613:3621   */\n      dup3\n        /* \"UsersMixin.sol\":3610:3919   */\n      iszero\n      tag_342\n      jumpi\n        /* \"UsersMixin.sol\":3633:3637   */\n      dup1\n        /* \"UsersMixin.sol\":3633:3654   */\n      0x05\n      add\n      0x00\n        /* \"UsersMixin.sol\":3633:3656   */\n      dup2\n      sload\n      dup1\n      swap3\n      swap2\n      swap1\n      tag_343\n      swap1\n      tag_216\n      jump\t// in\n    tag_343:\n      swap2\n      swap1\n      pop\n      sstore\n      pop\n        /* \"UsersMixin.sol\":3666:3679   */\n      0x06\n        /* \"UsersMixin.sol\":3666:3692   */\n      0x00\n        /* \"UsersMixin.sol\":3680:3691   */\n      dup8\n        /* \"UsersMixin.sol\":3666:3692   */\n      0xffffffffffffffffffffffffffffffffffffffff\n      and\n      0xffffffffffffffffffffffffffffffffffffffff\n      and\n      dup2\n      mstore\n      0x20\n      add\n      swap1\n      dup2\n      mstore\n      0x20\n      add\n      0x00\n      keccak256\n        /* \"UsersMixin.sol\":3698:3705   */\n      dup3\n        /* \"UsersMixin.sol\":3666:3706   */\n      swap1\n      dup1\n      0x01\n      dup2\n      sload\n      add\n      dup1\n      dup3\n      sstore\n      dup1\n      swap2\n      pop\n      pop\n      0x01\n      swap1\n      sub\n      swap1\n      0x00\n      mstore\n      keccak256(0x00, 0x20)\n      swap1\n      0x06\n      mul\n      add\n      0x00\n      swap1\n      swap2\n      swap1\n      swap2\n      swap1\n      swap2\n      pop\n      0x00\n      dup3\n      add\n      sload\n      dup2\n      0x00\n      add\n      sstore\n      0x01\n      dup3\n      add\n      dup2\n      0x01\n      add\n      swap1\n      dup2\n      tag_345\n      swap2\n      swap1\n      tag_211\n      jump\t// in\n    tag_345:\n      pop\n      0x02\n      dup3\n      add\n      dup2\n      0x02\n      add\n      swap1\n      dup2\n      tag_346\n      swap2\n      swap1\n      tag_211\n      jump\t// in\n    tag_346:\n      pop\n      0x03\n      dup3\n      add\n      dup2\n      0x03\n      add\n      swap1\n      dup2\n      tag_347\n      swap2\n      swap1\n      tag_211\n      jump\t// in\n    tag_347:\n      pop\n      0x04\n      dup3\n      add\n      sload\n      dup2\n      0x04\n      add\n      sstore\n      0x05\n      dup3\n      add\n      sload\n      dup2\n      0x05\n      add\n      sstore\n      pop\n      pop\n        /* \"UsersMixin.sol\":3716:3723   */\n      dup2\n        /* \"UsersMixin.sol\":3716:3736   */\n      0x04\n      add\n      0x00\n        /* \"UsersMixin.sol\":3716:3738   */\n      dup2\n      sload\n      dup1\n      swap3\n      swap2\n      swap1\n      tag_348\n      swap1\n      tag_216\n      jump\t// in\n    tag_348:\n      swap2\n      swap1\n      pop\n      sstore\n      pop\n        /* \"UsersMixin.sol\":3748:3762   */\n      0x08\n        /* \"UsersMixin.sol\":3748:3773   */\n      0x00\n        /* \"UsersMixin.sol\":3763:3772   */\n      dup7\n        /* \"UsersMixin.sol\":3748:3773   */\n      dup2\n      mstore\n      0x20\n      add\n      swap1\n      dup2\n      mstore\n      0x20\n      add\n      0x00\n      keccak256\n        /* \"UsersMixin.sol\":3779:3783   */\n      dup2\n        /* \"UsersMixin.sol\":3748:3784   */\n      swap1\n      dup1\n      0x01\n      dup2\n      sload\n      add\n      dup1\n      dup3\n      sstore\n      dup1\n      swap2\n      pop\n      pop\n      0x01\n      swap1\n      sub\n      swap1\n      0x00\n      mstore\n      keccak256(0x00, 0x20)\n      swap1\n      0x08\n      mul\n      add\n      0x00\n      swap1\n      swap2\n      swap1\n      swap2\n      swap1\n      swap2\n      pop\n      0x00\n      dup3\n      add\n      sload\n      dup2\n      0x00\n      add\n      sstore\n      0x01\n      dup3\n      add\n      0x00\n      swap1\n      sload\n      swap1\n      0x0100\n      exp\n      swap1\n      div\n      0xffffffffffffffffffffffffffffffffffffffff\n      and\n      dup2\n      0x01\n      add\n      exp(0x0100, 0x00)\n      dup2\n      sload\n      dup2\n      0xffffffffffffffffffffffffffffffffffffffff\n      mul\n      not\n      and\n      swap1\n      dup4\n      0xffffffffffffffffffffffffffffffffffffffff\n      and\n      mul\n      or\n      swap1\n      sstore\n      pop\n      0x02\n      dup3\n      add\n      dup2\n      0x02\n      add\n      swap1\n      dup2\n      tag_350\n      swap2\n      swap1\n      tag_211\n      jump\t// in\n    tag_350:\n      pop\n      0x03\n      dup3\n      add\n      dup2\n      0x03\n      add\n      swap1\n      dup2\n      tag_351\n      swap2\n      swap1\n      tag_211\n      jump\t// in\n    tag_351:\n      pop\n      0x04\n      dup3\n      add\n      dup2\n      0x04\n      add\n      swap1\n      dup2\n      tag_352\n      swap2\n      swap1\n      tag_211\n      jump\t// in\n    tag_352:\n      pop\n      0x05\n      dup3\n      add\n      sload\n      dup2\n      0x05\n      add\n      sstore\n      0x06\n      dup3\n      add\n      sload\n      dup2\n      0x06\n      add\n      sstore\n      0x07\n      dup3\n      add\n      dup2\n      0x07\n      add\n      swap1\n      dup2\n      tag_353\n      swap2\n      swap1\n      tag_211\n      jump\t// in\n    tag_353:\n      pop\n      pop\n      pop\n        /* \"UsersMixin.sol\":3794:3813   */\n      0x11\n        /* \"UsersMixin.sol\":3794:3831   */\n      0x00\n        /* \"UsersMixin.sol\":3814:3818   */\n      dup3\n        /* \"UsersMixin.sol\":3814:3830   */\n      0x01\n      add\n      0x00\n      swap1\n      sload\n      swap1\n      0x0100\n      exp\n      swap1\n      div\n      0xffffffffffffffffffffffffffffffffffffffff\n      and\n        /* \"UsersMixin.sol\":3794:3831   */\n      0xffffffffffffffffffffffffffffffffffffffff\n      and\n      0xffffffffffffffffffffffffffffffffffffffff\n      and\n      dup2\n      mstore\n      0x20\n      add\n      swap1\n      dup2\n      mstore\n      0x20\n      add\n      0x00\n      keccak256\n      0x00\n        /* \"UsersMixin.sol\":3794:3833   */\n      dup2\n      sload\n      dup1\n      swap3\n      swap2\n      swap1\n      tag_354\n      swap1\n      tag_216\n      jump\t// in\n    tag_354:\n      swap2\n      swap1\n      pop\n      sstore\n      pop\n        /* \"UsersMixin.sol\":3843:3863   */\n      0x12\n        /* \"UsersMixin.sol\":3843:3874   */\n      0x00\n        /* \"UsersMixin.sol\":3864:3873   */\n      dup7\n        /* \"UsersMixin.sol\":3843:3874   */\n      dup2\n      mstore\n      0x20\n      add\n      swap1\n      dup2\n      mstore\n      0x20\n      add\n      0x00\n      keccak256\n      0x00\n        /* \"UsersMixin.sol\":3843:3876   */\n      dup2\n      sload\n      dup1\n      swap3\n      swap2\n      swap1\n      tag_355\n      swap1\n      tag_216\n      jump\t// in\n    tag_355:\n      swap2\n      swap1\n      pop\n      sstore\n      pop\n        /* \"UsersMixin.sol\":3906:3910   */\n      dup1\n        /* \"UsersMixin.sol\":3886:3894   */\n      0x01\n        /* \"UsersMixin.sol\":3895:3899   */\n      dup3\n        /* \"UsersMixin.sol\":3895:3902   */\n      0x00\n      add\n      sload\n        /* \"UsersMixin.sol\":3886:3903   */\n      dup2\n      sload\n      dup2\n      lt\n      tag_356\n      jumpi\n      tag_357\n      tag_208\n      jump\t// in\n    tag_357:\n    tag_356:\n      swap1\n      0x00\n      mstore\n      keccak256(0x00, 0x20)\n      swap1\n      0x08\n      mul\n      add\n        /* \"UsersMixin.sol\":3886:3910   */\n      0x00\n      dup3\n      add\n      sload\n      dup2\n      0x00\n      add\n      sstore\n      0x01\n      dup3\n      add\n      0x00\n      swap1\n      sload\n      swap1\n      0x0100\n      exp\n      swap1\n      div\n      0xffffffffffffffffffffffffffffffffffffffff\n      and\n      dup2\n      0x01\n      add\n      exp(0x0100, 0x00)\n      dup2\n      sload\n      dup2\n      0xffffffffffffffffffffffffffffffffffffffff\n      mul\n      not\n      and\n      swap1\n      dup4\n      0xffffffffffffffffffffffffffffffffffffffff\n      and\n      mul\n      or\n      swap1\n      sstore\n      pop\n      0x02\n      dup3\n      add\n      dup2\n      0x02\n      add\n      swap1\n      dup2\n      tag_359\n      swap2\n      swap1\n      tag_211\n      jump\t// in\n    tag_359:\n      pop\n      0x03\n      dup3\n      add\n      dup2\n      0x03\n      add\n      swap1\n      dup2\n      tag_360\n      swap2\n      swap1\n      tag_211\n      jump\t// in\n    tag_360:\n      pop\n      0x04\n      dup3\n      add\n      dup2\n      0x04\n      add\n      swap1\n      dup2\n      tag_361\n      swap2\n      swap1\n      tag_211\n      jump\t// in\n    tag_361:\n      pop\n      0x05\n      dup3\n      add\n      sload\n      dup2\n      0x05\n      add\n      sstore\n      0x06\n      dup3\n      add\n      sload\n      dup2\n      0x06\n      add\n      sstore\n      0x07\n      dup3\n      add\n      dup2\n      0x07\n      add\n      swap1\n      dup2\n      tag_362\n      swap2\n      swap1\n      tag_211\n      jump\t// in\n    tag_362:\n      pop\n      swap1\n      pop\n      pop\n        /* \"UsersMixin.sol\":3610:3919   */\n    tag_342:\n        /* \"UsersMixin.sol\":3926:3933   */\n      dup2\n        /* \"UsersMixin.sol\":3926:3949   */\n      0x05\n      add\n      0x00\n        /* \"UsersMixin.sol\":3926:3951   */\n      dup2\n      sload\n      dup1\n      swap3\n      swap2\n      swap1\n      tag_363\n      swap1\n      tag_223\n      jump\t// in\n    tag_363:\n      swap2\n      swap1\n      pop\n      sstore\n      pop\n        /* \"UsersMixin.sol\":3966:3988   */\n      0x09\n        /* \"UsersMixin.sol\":3966:3999   */\n      0x00\n        /* \"UsersMixin.sol\":3989:3998   */\n      dup7\n        /* \"UsersMixin.sol\":3966:3999   */\n      dup2\n      mstore\n      0x20\n      add\n      swap1\n      dup2\n      mstore\n      0x20\n      add\n      0x00\n      keccak256\n        /* \"UsersMixin.sol\":4000:4009   */\n      dup5\n        /* \"UsersMixin.sol\":3966:4010   */\n      dup2\n      sload\n      dup2\n      lt\n      tag_364\n      jumpi\n      tag_365\n      tag_208\n      jump\t// in\n    tag_365:\n    tag_364:\n      swap1\n      0x00\n      mstore\n      keccak256(0x00, 0x20)\n      swap1\n      0x08\n      mul\n      add\n      0x00\n        /* \"UsersMixin.sol\":3959:4010   */\n      dup1\n      dup3\n      add\n      0x00\n      swap1\n      sstore\n      0x01\n      dup3\n      add\n      exp(0x0100, 0x00)\n      dup2\n      sload\n      swap1\n      0xffffffffffffffffffffffffffffffffffffffff\n      mul\n      not\n      and\n      swap1\n      sstore\n      0x02\n      dup3\n      add\n      0x00\n      tag_367\n      swap2\n      swap1\n      tag_238\n      jump\t// in\n    tag_367:\n      0x03\n      dup3\n      add\n      0x00\n      tag_368\n      swap2\n      swap1\n      tag_238\n      jump\t// in\n    tag_368:\n      0x04\n      dup3\n      add\n      0x00\n      tag_369\n      swap2\n      swap1\n      tag_238\n      jump\t// in\n    tag_369:\n      0x05\n      dup3\n      add\n      0x00\n      swap1\n      sstore\n      0x06\n      dup3\n      add\n      0x00\n      swap1\n      sstore\n      0x07\n      dup3\n      add\n      0x00\n      tag_370\n      swap2\n      swap1\n      tag_238\n      jump\t// in\n    tag_370:\n      pop\n      pop\n        /* \"UsersMixin.sol\":3454:4017   */\n      pop\n      pop\n        /* \"UsersMixin.sol\":3344:4017   */\n      pop\n      pop\n      pop\n      pop\n      jump\t// out\n        /* \"UsersStorage.sol\":936:989   */\n    tag_100:\n      mstore(0x20, 0x09)\n      dup2\n      0x00\n      mstore\n      keccak256(0x00, 0x40)\n      dup2\n      dup2\n      sload\n      dup2\n      lt\n      tag_371\n      jumpi\n      0x00\n      dup1\n      revert\n    tag_371:\n      swap1\n      0x00\n      mstore\n      keccak256(0x00, 0x20)\n      swap1\n      0x08\n      mul\n      add\n      0x00\n      swap2\n      pop\n      swap2\n      pop\n      pop\n      dup1\n      0x00\n      add\n      sload\n      swap1\n      dup1\n      0x01\n      add\n      0x00\n      swap1\n      sload\n      swap1\n      0x0100\n      exp\n      swap1\n      div\n      0xffffffffffffffffffffffffffffffffffffffff\n      and\n      swap1\n      dup1\n      0x02\n      add\n      dup1\n      sload\n      tag_373\n      swap1\n      tag_317\n      jump\t// in\n    tag_373:\n      dup1\n      0x1f\n      add\n      0x20\n      dup1\n      swap2\n      div\n      mul\n      0x20\n      add\n      mload(0x40)\n      swap1\n      dup2\n      add\n      0x40\n      mstore\n      dup1\n      swap3\n      swap2\n      swap1\n      dup2\n      dup2\n      mstore\n      0x20\n      add\n      dup3\n      dup1\n      sload\n      tag_374\n      swap1\n      tag_317\n      jump\t// in\n    tag_374:\n      dup1\n      iszero\n      tag_375\n      jumpi\n      dup1\n      0x1f\n      lt\n      tag_376\n      jumpi\n      0x0100\n      dup1\n      dup4\n      sload\n      div\n      mul\n      dup4\n      mstore\n      swap2\n      0x20\n      add\n      swap2\n      jump(tag_375)\n    tag_376:\n      dup3\n      add\n      swap2\n      swap1\n      0x00\n      mstore\n      keccak256(0x00, 0x20)\n      swap1\n    tag_377:\n      dup2\n      sload\n      dup2\n      mstore\n      swap1\n      0x01\n      add\n      swap1\n      0x20\n      add\n      dup1\n      dup4\n      gt\n      tag_377\n      jumpi\n      dup3\n      swap1\n      sub\n      0x1f\n      and\n      dup3\n      add\n      swap2\n    tag_375:\n      pop\n      pop\n      pop\n      pop\n      pop\n      swap1\n      dup1\n      0x03\n      add\n      dup1\n      sload\n      tag_378\n      swap1\n      tag_317\n      jump\t// in\n    tag_378:\n      dup1\n      0x1f\n      add\n      0x20\n      dup1\n      swap2\n      div\n      mul\n      0x20\n      add\n      mload(0x40)\n      swap1\n      dup2\n      add\n      0x40\n      mstore\n      dup1\n      swap3\n      swap2\n      swap1\n      dup2\n      dup2\n      mstore\n      0x20\n      add\n      dup3\n      dup1\n      sload\n      tag_379\n      swap1\n      tag_317\n      jump\t// in\n    tag_379:\n      dup1\n      iszero\n      tag_380\n      jumpi\n      dup1\n      0x1f\n      lt\n      tag_381\n      jumpi\n      0x0100\n      dup1\n      dup4\n      sload\n      div\n      mul\n      dup4\n      mstore\n      swap2\n      0x20\n      add\n      swap2\n      jump(tag_380)\n    tag_381:\n      dup3\n      add\n      swap2\n      swap1\n      0x00\n      mstore\n      keccak256(0x00, 0x20)\n      swap1\n    tag_382:\n      dup2\n      sload\n      dup2\n      mstore\n      swap1\n      0x01\n      add\n      swap1\n      0x20\n      add\n      dup1\n      dup4\n      gt\n      tag_382\n      jumpi\n      dup3\n      swap1\n      sub\n      0x1f\n      and\n      dup3\n      add\n      swap2\n    tag_380:\n      pop\n      pop\n      pop\n      pop\n      pop\n      swap1\n      dup1\n      0x04\n      add\n      dup1\n      sload\n      tag_383\n      swap1\n      tag_317\n      jump\t// in\n    tag_383:\n      dup1\n      0x1f\n      add\n      0x20\n      dup1\n      swap2\n      div\n      mul\n      0x20\n      add\n      mload(0x40)\n      swap1\n      dup2\n      add\n      0x40\n      mstore\n      dup1\n      swap3\n      swap2\n      swap1\n      dup2\n      dup2\n      mstore\n      0x20\n      add\n      dup3\n      dup1\n      sload\n      tag_384\n      swap1\n      tag_317\n      jump\t// in\n    tag_384:\n      dup1\n      iszero\n      tag_385\n      jumpi\n      dup1\n      0x1f\n      lt\n      tag_386\n      jumpi\n      0x0100\n      dup1\n      dup4\n      sload\n      div\n      mul\n      dup4\n      mstore\n      swap2\n      0x20\n      add\n      swap2\n      jump(tag_385)\n    tag_386:\n      dup3\n      add\n      swap2\n      swap1\n      0x00\n      mstore\n      keccak256(0x00, 0x20)\n      swap1\n    tag_387:\n      dup2\n      sload\n      dup2\n      mstore\n      swap1\n      0x01\n      add\n      swap1\n      0x20\n      add\n      dup1\n      dup4\n      gt\n      tag_387\n      jumpi\n      dup3\n      swap1\n      sub\n      0x1f\n      and\n      dup3\n      add\n      swap2\n    tag_385:\n      pop\n      pop\n      pop\n      pop\n      pop\n      swap1\n      dup1\n      0x05\n      add\n      sload\n      swap1\n      dup1\n      0x06\n      add\n      sload\n      swap1\n      dup1\n      0x07\n      add\n      dup1\n      sload\n      tag_388\n      swap1\n      tag_317\n      jump\t// in\n    tag_388:\n      dup1\n      0x1f\n      add\n      0x20\n      dup1\n      swap2\n      div\n      mul\n      0x20\n      add\n      mload(0x40)\n      swap1\n      dup2\n      add\n      0x40\n      mstore\n      dup1\n      swap3\n      swap2\n      swap1\n      dup2\n      dup2\n      mstore\n      0x20\n      add\n      dup3\n      dup1\n      sload\n      tag_389\n      swap1\n      tag_317\n      jump\t// in\n    tag_389:\n      dup1\n      iszero\n      tag_390\n      jumpi\n      dup1\n      0x1f\n      lt\n      tag_391\n      jumpi\n      0x0100\n      dup1\n      dup4\n      sload\n      div\n      mul\n      dup4\n      mstore\n      swap2\n      0x20\n      add\n      swap2\n      jump(tag_390)\n    tag_391:\n      dup3\n      add\n      swap2\n      swap1\n      0x00\n      mstore\n      keccak256(0x00, 0x20)\n      swap1\n    tag_392:\n      dup2\n      sload\n      dup2\n      mstore\n      swap1\n      0x01\n      add\n      swap1\n      0x20\n      add\n      dup1\n      dup4\n      gt\n      tag_392\n      jumpi\n      dup3\n      swap1\n      sub\n      0x1f\n      and\n      dup3\n      add\n      swap2\n    tag_390:\n      pop\n      pop\n      pop\n      pop\n      pop\n      swap1\n      pop\n      dup9\n      jump\t// out\n        /* \"UsersStorage.sol\":86:108   */\n    tag_104:\n      0x00\n      dup1\n      sload\n      swap1\n      0x0100\n      exp\n      swap1\n      div\n      0xffffffffffffffffffffffffffffffffffffffff\n      and\n      dup2\n      jump\t// out\n        /* \"UsersStorage.sol\":829:879   */\n    tag_110:\n      0x07\n      dup2\n      dup1\n      mload\n      0x20\n      dup2\n      add\n      dup3\n      add\n      dup1\n      mload\n      dup5\n      dup3\n      mstore\n      0x20\n      dup4\n      add\n      0x20\n      dup6\n      add\n      keccak256\n      dup2\n      dup4\n      mstore\n      dup1\n      swap6\n      pop\n      pop\n      pop\n      pop\n      pop\n      pop\n      0x00\n      swap2\n      pop\n      swap1\n      pop\n      dup1\n      0x00\n      add\n      sload\n      swap1\n      dup1\n      0x01\n      add\n      dup1\n      sload\n      tag_393\n      swap1\n      tag_317\n      jump\t// in\n    tag_393:\n      dup1\n      0x1f\n      add\n      0x20\n      dup1\n      swap2\n      div\n      mul\n      0x20\n      add\n      mload(0x40)\n      swap1\n      dup2\n      add\n      0x40\n      mstore\n      dup1\n      swap3\n      swap2\n      swap1\n      dup2\n      dup2\n      mstore\n      0x20\n      add\n      dup3\n      dup1\n      sload\n      tag_394\n      swap1\n      tag_317\n      jump\t// in\n    tag_394:\n      dup1\n      iszero\n      tag_395\n      jumpi\n      dup1\n      0x1f\n      lt\n      tag_396\n      jumpi\n      0x0100\n      dup1\n      dup4\n      sload\n      div\n      mul\n      dup4\n      mstore\n      swap2\n      0x20\n      add\n      swap2\n      jump(tag_395)\n    tag_396:\n      dup3\n      add\n      swap2\n      swap1\n      0x00\n      mstore\n      keccak256(0x00, 0x20)\n      swap1\n    tag_397:\n      dup2\n      sload\n      dup2\n      mstore\n      swap1\n      0x01\n      add\n      swap1\n      0x20\n      add\n      dup1\n      dup4\n      gt\n      tag_397\n      jumpi\n      dup3\n      swap1\n      sub\n      0x1f\n      and\n      dup3\n      add\n      swap2\n    tag_395:\n      pop\n      pop\n      pop\n      pop\n      pop\n      swap1\n      dup1\n      0x02\n      add\n      dup1\n      sload\n      tag_398\n      swap1\n      tag_317\n      jump\t// in\n    tag_398:\n      dup1\n      0x1f\n      add\n      0x20\n      dup1\n      swap2\n      div\n      mul\n      0x20\n      add\n      mload(0x40)\n      swap1\n      dup2\n      add\n      0x40\n      mstore\n      dup1\n      swap3\n      swap2\n      swap1\n      dup2\n      dup2\n      mstore\n      0x20\n      add\n      dup3\n      dup1\n      sload\n      tag_399\n      swap1\n      tag_317\n      jump\t// in\n    tag_399:\n      dup1\n      iszero\n      tag_400\n      jumpi\n      dup1\n      0x1f\n      lt\n      tag_401\n      jumpi\n      0x0100\n      dup1\n      dup4\n      sload\n      div\n      mul\n      dup4\n      mstore\n      swap2\n      0x20\n      add\n      swap2\n      jump(tag_400)\n    tag_401:\n      dup3\n      add\n      swap2\n      swap1\n      0x00\n      mstore\n      keccak256(0x00, 0x20)\n      swap1\n    tag_402:\n      dup2\n      sload\n      dup2\n      mstore\n      swap1\n      0x01\n      add\n      swap1\n      0x20\n      add\n      dup1\n      dup4\n      gt\n      tag_402\n      jumpi\n      dup3\n      swap1\n      sub\n      0x1f\n      and\n      dup3\n      add\n      swap2\n    tag_400:\n      pop\n      pop\n      pop\n      pop\n      pop\n      swap1\n      dup1\n      0x03\n      add\n      dup1\n      sload\n      tag_403\n      swap1\n      tag_317\n      jump\t// in\n    tag_403:\n      dup1\n      0x1f\n      add\n      0x20\n      dup1\n      swap2\n      div\n      mul\n      0x20\n      add\n      mload(0x40)\n      swap1\n      dup2\n      add\n      0x40\n      mstore\n      dup1\n      swap3\n      swap2\n      swap1\n      dup2\n      dup2\n      mstore\n      0x20\n      add\n      dup3\n      dup1\n      sload\n      tag_404\n      swap1\n      tag_317\n      jump\t// in\n    tag_404:\n      dup1\n      iszero\n      tag_405\n      jumpi\n      dup1\n      0x1f\n      lt\n      tag_406\n      jumpi\n      0x0100\n      dup1\n      dup4\n      sload\n      div\n      mul\n      dup4\n      mstore\n      swap2\n      0x20\n      add\n      swap2\n      jump(tag_405)\n    tag_406:\n      dup3\n      add\n      swap2\n      swap1\n      0x00\n      mstore\n      keccak256(0x00, 0x20)\n      swap1\n    tag_407:\n      dup2\n      sload\n      dup2\n      mstore\n      swap1\n      0x01\n      add\n      swap1\n      0x20\n      add\n      dup1\n      dup4\n      gt\n      tag_407\n      jumpi\n      dup3\n      swap1\n      sub\n      0x1f\n      and\n      dup3\n      add\n      swap2\n    tag_405:\n      pop\n      pop\n      pop\n      pop\n      pop\n      swap1\n      dup1\n      0x04\n      add\n      sload\n      swap1\n      dup1\n      0x05\n      add\n      sload\n      swap1\n      pop\n      dup7\n      jump\t// out\n        /* \"UsersMixin.sol\":2645:2965   */\n    tag_116:\n        /* \"UsersMixin.sol\":2741:2757   */\n      0x0e\n        /* \"UsersMixin.sol\":2741:2770   */\n      0x00\n        /* \"UsersMixin.sol\":2758:2769   */\n      dup4\n        /* \"UsersMixin.sol\":2741:2770   */\n      0xffffffffffffffffffffffffffffffffffffffff\n      and\n      0xffffffffffffffffffffffffffffffffffffffff\n      and\n      dup2\n      mstore\n      0x20\n      add\n      swap1\n      dup2\n      mstore\n      0x20\n      add\n      0x00\n      keccak256\n      0x00\n      swap1\n      sload\n      swap1\n      0x0100\n      exp\n      swap1\n      div\n      0xff\n      and\n        /* \"UsersMixin.sol\":2733:2771   */\n      tag_409\n      jumpi\n      0x00\n      dup1\n      revert\n    tag_409:\n        /* \"UsersMixin.sol\":2779:2796   */\n      0x00\n        /* \"UsersMixin.sol\":2799:2804   */\n      0x05\n        /* \"UsersMixin.sol\":2799:2817   */\n      0x00\n        /* \"UsersMixin.sol\":2805:2816   */\n      dup5\n        /* \"UsersMixin.sol\":2799:2817   */\n      0xffffffffffffffffffffffffffffffffffffffff\n      and\n      0xffffffffffffffffffffffffffffffffffffffff\n      and\n      dup2\n      mstore\n      0x20\n      add\n      swap1\n      dup2\n      mstore\n      0x20\n      add\n      0x00\n      keccak256\n        /* \"UsersMixin.sol\":2779:2817   */\n      swap1\n      pop\n        /* \"UsersMixin.sol\":2825:2848   */\n      0x00\n        /* \"UsersMixin.sol\":2851:2862   */\n      0x02\n        /* \"UsersMixin.sol\":2863:2872   */\n      dup4\n        /* \"UsersMixin.sol\":2851:2873   */\n      dup2\n      sload\n      dup2\n      lt\n      tag_410\n      jumpi\n      tag_411\n      tag_208\n      jump\t// in\n    tag_411:\n    tag_410:\n      swap1\n      0x00\n      mstore\n      keccak256(0x00, 0x20)\n      swap1\n      0x06\n      mul\n      add\n        /* \"UsersMixin.sol\":2825:2873   */\n      swap1\n      pop\n        /* \"UsersMixin.sol\":2881:2888   */\n      dup1\n        /* \"UsersMixin.sol\":2881:2904   */\n      0x05\n      add\n      0x00\n        /* \"UsersMixin.sol\":2881:2906   */\n      dup2\n      sload\n      dup1\n      swap3\n      swap2\n      swap1\n      tag_413\n      swap1\n      tag_216\n      jump\t// in\n    tag_413:\n      swap2\n      swap1\n      pop\n      sstore\n      pop\n        /* \"UsersMixin.sol\":2914:2936   */\n      0x09\n        /* \"UsersMixin.sol\":2914:2947   */\n      0x00\n        /* \"UsersMixin.sol\":2937:2946   */\n      dup5\n        /* \"UsersMixin.sol\":2914:2947   */\n      dup2\n      mstore\n      0x20\n      add\n      swap1\n      dup2\n      mstore\n      0x20\n      add\n      0x00\n      keccak256\n        /* \"UsersMixin.sol\":2953:2957   */\n      dup3\n        /* \"UsersMixin.sol\":2914:2958   */\n      swap1\n      dup1\n      0x01\n      dup2\n      sload\n      add\n      dup1\n      dup3\n      sstore\n      dup1\n      swap2\n      pop\n      pop\n      0x01\n      swap1\n      sub\n      swap1\n      0x00\n      mstore\n      keccak256(0x00, 0x20)\n      swap1\n      0x08\n      mul\n      add\n      0x00\n      swap1\n      swap2\n      swap1\n      swap2\n      swap1\n      swap2\n      pop\n      0x00\n      dup3\n      add\n      sload\n      dup2\n      0x00\n      add\n      sstore\n      0x01\n      dup3\n      add\n      0x00\n      swap1\n      sload\n      swap1\n      0x0100\n      exp\n      swap1\n      div\n      0xffffffffffffffffffffffffffffffffffffffff\n      and\n      dup2\n      0x01\n      add\n      exp(0x0100, 0x00)\n      dup2\n      sload\n      dup2\n      0xffffffffffffffffffffffffffffffffffffffff\n      mul\n      not\n      and\n      swap1\n      dup4\n      0xffffffffffffffffffffffffffffffffffffffff\n      and\n      mul\n      or\n      swap1\n      sstore\n      pop\n      0x02\n      dup3\n      add\n      dup2\n      0x02\n      add\n      swap1\n      dup2\n      tag_415\n      swap2\n      swap1\n      tag_211\n      jump\t// in\n    tag_415:\n      pop\n      0x03\n      dup3\n      add\n      dup2\n      0x03\n      add\n      swap1\n      dup2\n      tag_416\n      swap2\n      swap1\n      tag_211\n      jump\t// in\n    tag_416:\n      pop\n      0x04\n      dup3\n      add\n      dup2\n      0x04\n      add\n      swap1\n      dup2\n      tag_417\n      swap2\n      swap1\n      tag_211\n      jump\t// in\n    tag_417:\n      pop\n      0x05\n      dup3\n      add\n      sload\n      dup2\n      0x05\n      add\n      sstore\n      0x06\n      dup3\n      add\n      sload\n      dup2\n      0x06\n      add\n      sstore\n      0x07\n      dup3\n      add\n      dup2\n      0x07\n      add\n      swap1\n      dup2\n      tag_418\n      swap2\n      swap1\n      tag_211\n      jump\t// in\n    tag_418:\n      pop\n      pop\n      pop\n        /* \"UsersMixin.sol\":2725:2965   */\n      pop\n      pop\n        /* \"UsersMixin.sol\":2645:2965   */\n      pop\n      pop\n      jump\t// out\n        /* \"UsersStorage.sol\":621:649   */\n    tag_120:\n      0x02\n      dup2\n      dup2\n      sload\n      dup2\n      lt\n      tag_419\n      jumpi\n      0x00\n      dup1\n      revert\n    tag_419:\n      swap1\n      0x00\n      mstore\n      keccak256(0x00, 0x20)\n      swap1\n      0x06\n      mul\n      add\n      0x00\n      swap2\n      pop\n      swap1\n      pop\n      dup1\n      0x00\n      add\n      sload\n      swap1\n      dup1\n      0x01\n      add\n      dup1\n      sload\n      tag_421\n      swap1\n      tag_317\n      jump\t// in\n    tag_421:\n      dup1\n      0x1f\n      add\n      0x20\n      dup1\n      swap2\n      div\n      mul\n      0x20\n      add\n      mload(0x40)\n      swap1\n      dup2\n      add\n      0x40\n      mstore\n      dup1\n      swap3\n      swap2\n      swap1\n      dup2\n      dup2\n      mstore\n      0x20\n      add\n      dup3\n      dup1\n      sload\n      tag_422\n      swap1\n      tag_317\n      jump\t// in\n    tag_422:\n      dup1\n      iszero\n      tag_423\n      jumpi\n      dup1\n      0x1f\n      lt\n      tag_424\n      jumpi\n      0x0100\n      dup1\n      dup4\n      sload\n      div\n      mul\n      dup4\n      mstore\n      swap2\n      0x20\n      add\n      swap2\n      jump(tag_423)\n    tag_424:\n      dup3\n      add\n      swap2\n      swap1\n      0x00\n      mstore\n      keccak256(0x00, 0x20)\n      swap1\n    tag_425:\n      dup2\n      sload\n      dup2\n      mstore\n      swap1\n      0x01\n      add\n      swap1\n      0x20\n      add\n      dup1\n      dup4\n      gt\n      tag_425\n      jumpi\n      dup3\n      swap1\n      sub\n      0x1f\n      and\n      dup3\n      add\n      swap2\n    tag_423:\n      pop\n      pop\n      pop\n      pop\n      pop\n      swap1\n      dup1\n      0x02\n      add\n      dup1\n      sload\n      tag_426\n      swap1\n      tag_317\n      jump\t// in\n    tag_426:\n      dup1\n      0x1f\n      add\n      0x20\n      dup1\n      swap2\n      div\n      mul\n      0x20\n      add\n      mload(0x40)\n      swap1\n      dup2\n      add\n      0x40\n      mstore\n      dup1\n      swap3\n      swap2\n      swap1\n      dup2\n      dup2\n      mstore\n      0x20\n      add\n      dup3\n      dup1\n      sload\n      tag_427\n      swap1\n      tag_317\n      jump\t// in\n    tag_427:\n      dup1\n      iszero\n      tag_428\n      jumpi\n      dup1\n      0x1f\n      lt\n      tag_429\n      jumpi\n      0x0100\n      dup1\n      dup4\n      sload\n      div\n      mul\n      dup4\n      mstore\n      swap2\n      0x20\n      add\n      swap2\n      jump(tag_428)\n    tag_429:\n      dup3\n      add\n      swap2\n      swap1\n      0x00\n      mstore\n      keccak256(0x00, 0x20)\n      swap1\n    tag_430:\n      dup2\n      sload\n      dup2\n      mstore\n      swap1\n      0x01\n      add\n      swap1\n      0x20\n      add\n      dup1\n      dup4\n      gt\n      tag_430\n      jumpi\n      dup3\n      swap1\n      sub\n      0x1f\n      and\n      dup3\n      add\n      swap2\n    tag_428:\n      pop\n      pop\n      pop\n      pop\n      pop\n      swap1\n      dup1\n      0x03\n      add\n      dup1\n      sload\n      tag_431\n      swap1\n      tag_317\n      jump\t// in\n    tag_431:\n      dup1\n      0x1f\n      add\n      0x20\n      dup1\n      swap2\n      div\n      mul\n      0x20\n      add\n      mload(0x40)\n      swap1\n      dup2\n      add\n      0x40\n      mstore\n      dup1\n      swap3\n      swap2\n      swap1\n      dup2\n      dup2\n      mstore\n      0x20\n      add\n      dup3\n      dup1\n      sload\n      tag_432\n      swap1\n      tag_317\n      jump\t// in\n    tag_432:\n      dup1\n      iszero\n      tag_433\n      jumpi\n      dup1\n      0x1f\n      lt\n      tag_434\n      jumpi\n      0x0100\n      dup1\n      dup4\n      sload\n      div\n      mul\n      dup4\n      mstore\n      swap2\n      0x20\n      add\n      swap2\n      jump(tag_433)\n    tag_434:\n      dup3\n      add\n      swap2\n      swap1\n      0x00\n      mstore\n      keccak256(0x00, 0x20)\n      swap1\n    tag_435:\n      dup2\n      sload\n      dup2\n      mstore\n      swap1\n      0x01\n      add\n      swap1\n      0x20\n      add\n      dup1\n      dup4\n      gt\n      tag_435\n      jumpi\n      dup3\n      swap1\n      sub\n      0x1f\n      and\n      dup3\n      add\n      swap2\n    tag_433:\n      pop\n      pop\n      pop\n      pop\n      pop\n      swap1\n      dup1\n      0x04\n      add\n      sload\n      swap1\n      dup1\n      0x05\n      add\n      sload\n      swap1\n      pop\n      dup7\n      jump\t// out\n        /* \"UsersMixin.sol\":2971:3338   */\n    tag_124:\n        /* \"UsersMixin.sol\":3070:3086   */\n      0x0e\n        /* \"UsersMixin.sol\":3070:3098   */\n      0x00\n        /* \"UsersMixin.sol\":3087:3097   */\n      caller\n        /* \"UsersMixin.sol\":3070:3098   */\n      0xffffffffffffffffffffffffffffffffffffffff\n      and\n      0xffffffffffffffffffffffffffffffffffffffff\n      and\n      dup2\n      mstore\n      0x20\n      add\n      swap1\n      dup2\n      mstore\n      0x20\n      add\n      0x00\n      keccak256\n      0x00\n      swap1\n      sload\n      swap1\n      0x0100\n      exp\n      swap1\n      div\n      0xff\n      and\n        /* \"UsersMixin.sol\":3062:3099   */\n      tag_437\n      jumpi\n      0x00\n      dup1\n      revert\n    tag_437:\n        /* \"UsersMixin.sol\":3107:3124   */\n      0x00\n        /* \"UsersMixin.sol\":3127:3132   */\n      0x05\n        /* \"UsersMixin.sol\":3127:3148   */\n      0x00\n        /* \"UsersMixin.sol\":3133:3147   */\n      dup5\n        /* \"UsersMixin.sol\":3127:3148   */\n      0xffffffffffffffffffffffffffffffffffffffff\n      and\n      0xffffffffffffffffffffffffffffffffffffffff\n      and\n      dup2\n      mstore\n      0x20\n      add\n      swap1\n      dup2\n      mstore\n      0x20\n      add\n      0x00\n      keccak256\n        /* \"UsersMixin.sol\":3107:3148   */\n      swap1\n      pop\n        /* \"UsersMixin.sol\":3156:3179   */\n      0x00\n        /* \"UsersMixin.sol\":3182:3193   */\n      0x02\n        /* \"UsersMixin.sol\":3194:3203   */\n      dup4\n        /* \"UsersMixin.sol\":3182:3204   */\n      dup2\n      sload\n      dup2\n      lt\n      tag_438\n      jumpi\n      tag_439\n      tag_208\n      jump\t// in\n    tag_439:\n    tag_438:\n      swap1\n      0x00\n      mstore\n      keccak256(0x00, 0x20)\n      swap1\n      0x06\n      mul\n      add\n        /* \"UsersMixin.sol\":3156:3204   */\n      swap1\n      pop\n        /* \"UsersMixin.sol\":3212:3216   */\n      dup2\n        /* \"UsersMixin.sol\":3212:3237   */\n      0x06\n      add\n      0x00\n        /* \"UsersMixin.sol\":3212:3239   */\n      dup2\n      sload\n      dup1\n      swap3\n      swap2\n      swap1\n      tag_441\n      swap1\n      tag_216\n      jump\t// in\n    tag_441:\n      swap2\n      swap1\n      pop\n      sstore\n      pop\n        /* \"UsersMixin.sol\":3267:3271   */\n      dup2\n        /* \"UsersMixin.sol\":3247:3255   */\n      0x01\n        /* \"UsersMixin.sol\":3256:3260   */\n      dup4\n        /* \"UsersMixin.sol\":3256:3263   */\n      0x00\n      add\n      sload\n        /* \"UsersMixin.sol\":3247:3264   */\n      dup2\n      sload\n      dup2\n      lt\n      tag_442\n      jumpi\n      tag_443\n      tag_208\n      jump\t// in\n    tag_443:\n    tag_442:\n      swap1\n      0x00\n      mstore\n      keccak256(0x00, 0x20)\n      swap1\n      0x08\n      mul\n      add\n        /* \"UsersMixin.sol\":3247:3271   */\n      0x00\n      dup3\n      add\n      sload\n      dup2\n      0x00\n      add\n      sstore\n      0x01\n      dup3\n      add\n      0x00\n      swap1\n      sload\n      swap1\n      0x0100\n      exp\n      swap1\n      div\n      0xffffffffffffffffffffffffffffffffffffffff\n      and\n      dup2\n      0x01\n      add\n      exp(0x0100, 0x00)\n      dup2\n      sload\n      dup2\n      0xffffffffffffffffffffffffffffffffffffffff\n      mul\n      not\n      and\n      swap1\n      dup4\n      0xffffffffffffffffffffffffffffffffffffffff\n      and\n      mul\n      or\n      swap1\n      sstore\n      pop\n      0x02\n      dup3\n      add\n      dup2\n      0x02\n      add\n      swap1\n      dup2\n      tag_445\n      swap2\n      swap1\n      tag_211\n      jump\t// in\n    tag_445:\n      pop\n      0x03\n      dup3\n      add\n      dup2\n      0x03\n      add\n      swap1\n      dup2\n      tag_446\n      swap2\n      swap1\n      tag_211\n      jump\t// in\n    tag_446:\n      pop\n      0x04\n      dup3\n      add\n      dup2\n      0x04\n      add\n      swap1\n      dup2\n      tag_447\n      swap2\n      swap1\n      tag_211\n      jump\t// in\n    tag_447:\n      pop\n      0x05\n      dup3\n      add\n      sload\n      dup2\n      0x05\n      add\n      sstore\n      0x06\n      dup3\n      add\n      sload\n      dup2\n      0x06\n      add\n      sstore\n      0x07\n      dup3\n      add\n      dup2\n      0x07\n      add\n      swap1\n      dup2\n      tag_448\n      swap2\n      swap1\n      tag_211\n      jump\t// in\n    tag_448:\n      pop\n      swap1\n      pop\n      pop\n        /* \"UsersMixin.sol\":3279:3301   */\n      0x0a\n        /* \"UsersMixin.sol\":3279:3317   */\n      0x00\n        /* \"UsersMixin.sol\":3302:3316   */\n      dup6\n        /* \"UsersMixin.sol\":3279:3317   */\n      0xffffffffffffffffffffffffffffffffffffffff\n      and\n      0xffffffffffffffffffffffffffffffffffffffff\n      and\n      dup2\n      mstore\n      0x20\n      add\n      swap1\n      dup2\n      mstore\n      0x20\n      add\n      0x00\n      keccak256\n        /* \"UsersMixin.sol\":3323:3330   */\n      dup2\n        /* \"UsersMixin.sol\":3279:3331   */\n      swap1\n      dup1\n      0x01\n      dup2\n      sload\n      add\n      dup1\n      dup3\n      sstore\n      dup1\n      swap2\n      pop\n      pop\n      0x01\n      swap1\n      sub\n      swap1\n      0x00\n      mstore\n      keccak256(0x00, 0x20)\n      swap1\n      0x06\n      mul\n      add\n      0x00\n      swap1\n      swap2\n      swap1\n      swap2\n      swap1\n      swap2\n      pop\n      0x00\n      dup3\n      add\n      sload\n      dup2\n      0x00\n      add\n      sstore\n      0x01\n      dup3\n      add\n      dup2\n      0x01\n      add\n      swap1\n      dup2\n      tag_450\n      swap2\n      swap1\n      tag_211\n      jump\t// in\n    tag_450:\n      pop\n      0x02\n      dup3\n      add\n      dup2\n      0x02\n      add\n      swap1\n      dup2\n      tag_451\n      swap2\n      swap1\n      tag_211\n      jump\t// in\n    tag_451:\n      pop\n      0x03\n      dup3\n      add\n      dup2\n      0x03\n      add\n      swap1\n      dup2\n      tag_452\n      swap2\n      swap1\n      tag_211\n      jump\t// in\n    tag_452:\n      pop\n      0x04\n      dup3\n      add\n      sload\n      dup2\n      0x04\n      add\n      sstore\n      0x05\n      dup3\n      add\n      sload\n      dup2\n      0x05\n      add\n      sstore\n      pop\n      pop\n        /* \"UsersMixin.sol\":3054:3338   */\n      pop\n      pop\n        /* \"UsersMixin.sol\":2971:3338   */\n      pop\n      pop\n      jump\t// out\n        /* \"UsersMixin.sol\":273:470   */\n    tag_129:\n        /* \"UsersMixin.sol\":364:371   */\n      0x00\n      dup1\n      sload\n      swap1\n      0x0100\n      exp\n      swap1\n      div\n      0xffffffffffffffffffffffffffffffffffffffff\n      and\n        /* \"UsersMixin.sol\":350:371   */\n      0xffffffffffffffffffffffffffffffffffffffff\n      and\n        /* \"UsersMixin.sol\":350:360   */\n      caller\n        /* \"UsersMixin.sol\":350:371   */\n      0xffffffffffffffffffffffffffffffffffffffff\n      and\n      eq\n        /* \"UsersMixin.sol\":342:412   */\n      tag_454\n      jumpi\n      mload(0x40)\n      0x08c379a000000000000000000000000000000000000000000000000000000000\n      dup2\n      mstore\n      0x04\n      add\n      tag_455\n      swap1\n      tag_456\n      jump\t// in\n    tag_455:\n      mload(0x40)\n      dup1\n      swap2\n      sub\n      swap1\n      revert\n    tag_454:\n        /* \"UsersMixin.sol\":422:431   */\n      dup1\n        /* \"UsersMixin.sol\":422:440   */\n      0xffffffffffffffffffffffffffffffffffffffff\n      and\n        /* \"UsersMixin.sol\":422:463   */\n      0x08fc\n        /* \"UsersMixin.sol\":441:462   */\n      selfbalance\n        /* \"UsersMixin.sol\":422:463   */\n      swap1\n      dup2\n      iszero\n      mul\n      swap1\n      mload(0x40)\n      0x00\n      mload(0x40)\n      dup1\n      dup4\n      sub\n      dup2\n      dup6\n      dup9\n      dup9\n      call\n      swap4\n      pop\n      pop\n      pop\n      pop\n      iszero\n      dup1\n      iszero\n      tag_458\n      jumpi\n      returndatasize\n      0x00\n      dup1\n      returndatacopy\n      revert(0x00, returndatasize)\n    tag_458:\n      pop\n        /* \"UsersMixin.sol\":273:470   */\n      pop\n      jump\t// out\n        /* \"UsersStorage.sol\":1476:1498   */\n    tag_132:\n      sload(0x13)\n      dup2\n      jump\t// out\n        /* \"UsersStorage.sol\":1160:1201   */\n    tag_137:\n      0x0d\n      dup2\n      dup1\n      mload\n      0x20\n      dup2\n      add\n      dup3\n      add\n      dup1\n      mload\n      dup5\n      dup3\n      mstore\n      0x20\n      dup4\n      add\n      0x20\n      dup6\n      add\n      keccak256\n      dup2\n      dup4\n      mstore\n      dup1\n      swap6\n      pop\n      pop\n      pop\n      pop\n      pop\n      pop\n      0x00\n      swap2\n      pop\n      swap1\n      pop\n      sload\n      dup2\n      jump\t// out\n        /* \"UsersStorage.sol\":593:615   */\n    tag_142:\n      0x01\n      dup2\n      dup2\n      sload\n      dup2\n      lt\n      tag_459\n      jumpi\n      0x00\n      dup1\n      revert\n    tag_459:\n      swap1\n      0x00\n      mstore\n      keccak256(0x00, 0x20)\n      swap1\n      0x08\n      mul\n      add\n      0x00\n      swap2\n      pop\n      swap1\n      pop\n      dup1\n      0x00\n      add\n      sload\n      swap1\n      dup1\n      0x01\n      add\n      0x00\n      swap1\n      sload\n      swap1\n      0x0100\n      exp\n      swap1\n      div\n      0xffffffffffffffffffffffffffffffffffffffff\n      and\n      swap1\n      dup1\n      0x02\n      add\n      dup1\n      sload\n      tag_461\n      swap1\n      tag_317\n      jump\t// in\n    tag_461:\n      dup1\n      0x1f\n      add\n      0x20\n      dup1\n      swap2\n      div\n      mul\n      0x20\n      add\n      mload(0x40)\n      swap1\n      dup2\n      add\n      0x40\n      mstore\n      dup1\n      swap3\n      swap2\n      swap1\n      dup2\n      dup2\n      mstore\n      0x20\n      add\n      dup3\n      dup1\n      sload\n      tag_462\n      swap1\n      tag_317\n      jump\t// in\n    tag_462:\n      dup1\n      iszero\n      tag_463\n      jumpi\n      dup1\n      0x1f\n      lt\n      tag_464\n      jumpi\n      0x0100\n      dup1\n      dup4\n      sload\n      div\n      mul\n      dup4\n      mstore\n      swap2\n      0x20\n      add\n      swap2\n      jump(tag_463)\n    tag_464:\n      dup3\n      add\n      swap2\n      swap1\n      0x00\n      mstore\n      keccak256(0x00, 0x20)\n      swap1\n    tag_465:\n      dup2\n      sload\n      dup2\n      mstore\n      swap1\n      0x01\n      add\n      swap1\n      0x20\n      add\n      dup1\n      dup4\n      gt\n      tag_465\n      jumpi\n      dup3\n      swap1\n      sub\n      0x1f\n      and\n      dup3\n      add\n      swap2\n    tag_463:\n      pop\n      pop\n      pop\n      pop\n      pop\n      swap1\n      dup1\n      0x03\n      add\n      dup1\n      sload\n      tag_466\n      swap1\n      tag_317\n      jump\t// in\n    tag_466:\n      dup1\n      0x1f\n      add\n      0x20\n      dup1\n      swap2\n      div\n      mul\n      0x20\n      add\n      mload(0x40)\n      swap1\n      dup2\n      add\n      0x40\n      mstore\n      dup1\n      swap3\n      swap2\n      swap1\n      dup2\n      dup2\n      mstore\n      0x20\n      add\n      dup3\n      dup1\n      sload\n      tag_467\n      swap1\n      tag_317\n      jump\t// in\n    tag_467:\n      dup1\n      iszero\n      tag_468\n      jumpi\n      dup1\n      0x1f\n      lt\n      tag_469\n      jumpi\n      0x0100\n      dup1\n      dup4\n      sload\n      div\n      mul\n      dup4\n      mstore\n      swap2\n      0x20\n      add\n      swap2\n      jump(tag_468)\n    tag_469:\n      dup3\n      add\n      swap2\n      swap1\n      0x00\n      mstore\n      keccak256(0x00, 0x20)\n      swap1\n    tag_470:\n      dup2\n      sload\n      dup2\n      mstore\n      swap1\n      0x01\n      add\n      swap1\n      0x20\n      add\n      dup1\n      dup4\n      gt\n      tag_470\n      jumpi\n      dup3\n      swap1\n      sub\n      0x1f\n      and\n      dup3\n      add\n      swap2\n    tag_468:\n      pop\n      pop\n      pop\n      pop\n      pop\n      swap1\n      dup1\n      0x04\n      add\n      dup1\n      sload\n      tag_471\n      swap1\n      tag_317\n      jump\t// in\n    tag_471:\n      dup1\n      0x1f\n      add\n      0x20\n      dup1\n      swap2\n      div\n      mul\n      0x20\n      add\n      mload(0x40)\n      swap1\n      dup2\n      add\n      0x40\n      mstore\n      dup1\n      swap3\n      swap2\n      swap1\n      dup2\n      dup2\n      mstore\n      0x20\n      add\n      dup3\n      dup1\n      sload\n      tag_472\n      swap1\n      tag_317\n      jump\t// in\n    tag_472:\n      dup1\n      iszero\n      tag_473\n      jumpi\n      dup1\n      0x1f\n      lt\n      tag_474\n      jumpi\n      0x0100\n      dup1\n      dup4\n      sload\n      div\n      mul\n      dup4\n      mstore\n      swap2\n      0x20\n      add\n      swap2\n      jump(tag_473)\n    tag_474:\n      dup3\n      add\n      swap2\n      swap1\n      0x00\n      mstore\n      keccak256(0x00, 0x20)\n      swap1\n    tag_475:\n      dup2\n      sload\n      dup2\n      mstore\n      swap1\n      0x01\n      add\n      swap1\n      0x20\n      add\n      dup1\n      dup4\n      gt\n      tag_475\n      jumpi\n      dup3\n      swap1\n      sub\n      0x1f\n      and\n      dup3\n      add\n      swap2\n    tag_473:\n      pop\n      pop\n      pop\n      pop\n      pop\n      swap1\n      dup1\n      0x05\n      add\n      sload\n      swap1\n      dup1\n      0x06\n      add\n      sload\n      swap1\n      dup1\n      0x07\n      add\n      dup1\n      sload\n      tag_476\n      swap1\n      tag_317\n      jump\t// in\n    tag_476:\n      dup1\n      0x1f\n      add\n      0x20\n      dup1\n      swap2\n      div\n      mul\n      0x20\n      add\n      mload(0x40)\n      swap1\n      dup2\n      add\n      0x40\n      mstore\n      dup1\n      swap3\n      swap2\n      swap1\n      dup2\n      dup2\n      mstore\n      0x20\n      add\n      dup3\n      dup1\n      sload\n      tag_477\n      swap1\n      tag_317\n      jump\t// in\n    tag_477:\n      dup1\n      iszero\n      tag_478\n      jumpi\n      dup1\n      0x1f\n      lt\n      tag_479\n      jumpi\n      0x0100\n      dup1\n      dup4\n      sload\n      div\n      mul\n      dup4\n      mstore\n      swap2\n      0x20\n      add\n      swap2\n      jump(tag_478)\n    tag_479:\n      dup3\n      add\n      swap2\n      swap1\n      0x00\n      mstore\n      keccak256(0x00, 0x20)\n      swap1\n    tag_480:\n      dup2\n      sload\n      dup2\n      mstore\n      swap1\n      0x01\n      add\n      swap1\n      0x20\n      add\n      dup1\n      dup4\n      gt\n      tag_480\n      jumpi\n      dup3\n      swap1\n      sub\n      0x1f\n      and\n      dup3\n      add\n      swap2\n    tag_478:\n      pop\n      pop\n      pop\n      pop\n      pop\n      swap1\n      pop\n      dup9\n      jump\t// out\n        /* \"UsersStorage.sol\":730:767   */\n    tag_147:\n      mstore(0x20, 0x05)\n      dup1\n      0x00\n      mstore\n      keccak256(0x00, 0x40)\n      0x00\n      swap2\n      pop\n      swap1\n      pop\n      dup1\n      0x00\n      add\n      sload\n      swap1\n      dup1\n      0x01\n      add\n      0x00\n      swap1\n      sload\n      swap1\n      0x0100\n      exp\n      swap1\n      div\n      0xffffffffffffffffffffffffffffffffffffffff\n      and\n      swap1\n      dup1\n      0x02\n      add\n      dup1\n      sload\n      tag_481\n      swap1\n      tag_317\n      jump\t// in\n    tag_481:\n      dup1\n      0x1f\n      add\n      0x20\n      dup1\n      swap2\n      div\n      mul\n      0x20\n      add\n      mload(0x40)\n      swap1\n      dup2\n      add\n      0x40\n      mstore\n      dup1\n      swap3\n      swap2\n      swap1\n      dup2\n      dup2\n      mstore\n      0x20\n      add\n      dup3\n      dup1\n      sload\n      tag_482\n      swap1\n      tag_317\n      jump\t// in\n    tag_482:\n      dup1\n      iszero\n      tag_483\n      jumpi\n      dup1\n      0x1f\n      lt\n      tag_484\n      jumpi\n      0x0100\n      dup1\n      dup4\n      sload\n      div\n      mul\n      dup4\n      mstore\n      swap2\n      0x20\n      add\n      swap2\n      jump(tag_483)\n    tag_484:\n      dup3\n      add\n      swap2\n      swap1\n      0x00\n      mstore\n      keccak256(0x00, 0x20)\n      swap1\n    tag_485:\n      dup2\n      sload\n      dup2\n      mstore\n      swap1\n      0x01\n      add\n      swap1\n      0x20\n      add\n      dup1\n      dup4\n      gt\n      tag_485\n      jumpi\n      dup3\n      swap1\n      sub\n      0x1f\n      and\n      dup3\n      add\n      swap2\n    tag_483:\n      pop\n      pop\n      pop\n      pop\n      pop\n      swap1\n      dup1\n      0x03\n      add\n      dup1\n      sload\n      tag_486\n      swap1\n      tag_317\n      jump\t// in\n    tag_486:\n      dup1\n      0x1f\n      add\n      0x20\n      dup1\n      swap2\n      div\n      mul\n      0x20\n      add\n      mload(0x40)\n      swap1\n      dup2\n      add\n      0x40\n      mstore\n      dup1\n      swap3\n      swap2\n      swap1\n      dup2\n      dup2\n      mstore\n      0x20\n      add\n      dup3\n      dup1\n      sload\n      tag_487\n      swap1\n      tag_317\n      jump\t// in\n    tag_487:\n      dup1\n      iszero\n      tag_488\n      jumpi\n      dup1\n      0x1f\n      lt\n      tag_489\n      jumpi\n      0x0100\n      dup1\n      dup4\n      sload\n      div\n      mul\n      dup4\n      mstore\n      swap2\n      0x20\n      add\n      swap2\n      jump(tag_488)\n    tag_489:\n      dup3\n      add\n      swap2\n      swap1\n      0x00\n      mstore\n      keccak256(0x00, 0x20)\n      swap1\n    tag_490:\n      dup2\n      sload\n      dup2\n      mstore\n      swap1\n      0x01\n      add\n      swap1\n      0x20\n      add\n      dup1\n      dup4\n      gt\n      tag_490\n      jumpi\n      dup3\n      swap1\n      sub\n      0x1f\n      and\n      dup3\n      add\n      swap2\n    tag_488:\n      pop\n      pop\n      pop\n      pop\n      pop\n      swap1\n      dup1\n      0x04\n      add\n      dup1\n      sload\n      tag_491\n      swap1\n      tag_317\n      jump\t// in\n    tag_491:\n      dup1\n      0x1f\n      add\n      0x20\n      dup1\n      swap2\n      div\n      mul\n      0x20\n      add\n      mload(0x40)\n      swap1\n      dup2\n      add\n      0x40\n      mstore\n      dup1\n      swap3\n      swap2\n      swap1\n      dup2\n      dup2\n      mstore\n      0x20\n      add\n      dup3\n      dup1\n      sload\n      tag_492\n      swap1\n      tag_317\n      jump\t// in\n    tag_492:\n      dup1\n      iszero\n      tag_493\n      jumpi\n      dup1\n      0x1f\n      lt\n      tag_494\n      jumpi\n      0x0100\n      dup1\n      dup4\n      sload\n      div\n      mul\n      dup4\n      mstore\n      swap2\n      0x20\n      add\n      swap2\n      jump(tag_493)\n    tag_494:\n      dup3\n      add\n      swap2\n      swap1\n      0x00\n      mstore\n      keccak256(0x00, 0x20)\n      swap1\n    tag_495:\n      dup2\n      sload\n      dup2\n      mstore\n      swap1\n      0x01\n      add\n      swap1\n      0x20\n      add\n      dup1\n      dup4\n      gt\n      tag_495\n      jumpi\n      dup3\n      swap1\n      sub\n      0x1f\n      and\n      dup3\n      add\n      swap2\n    tag_493:\n      pop\n      pop\n      pop\n      pop\n      pop\n      swap1\n      dup1\n      0x05\n      add\n      sload\n      swap1\n      dup1\n      0x06\n      add\n      sload\n      swap1\n      dup1\n      0x07\n      add\n      dup1\n      sload\n      tag_496\n      swap1\n      tag_317\n      jump\t// in\n    tag_496:\n      dup1\n      0x1f\n      add\n      0x20\n      dup1\n      swap2\n      div\n      mul\n      0x20\n      add\n      mload(0x40)\n      swap1\n      dup2\n      add\n      0x40\n      mstore\n      dup1\n      swap3\n      swap2\n      swap1\n      dup2\n      dup2\n      mstore\n      0x20\n      add\n      dup3\n      dup1\n      sload\n      tag_497\n      swap1\n      tag_317\n      jump\t// in\n    tag_497:\n      dup1\n      iszero\n      tag_498\n      jumpi\n      dup1\n      0x1f\n      lt\n      tag_499\n      jumpi\n      0x0100\n      dup1\n      dup4\n      sload\n      div\n      mul\n      dup4\n      mstore\n      swap2\n      0x20\n      add\n      swap2\n      jump(tag_498)\n    tag_499:\n      dup3\n      add\n      swap2\n      swap1\n      0x00\n      mstore\n      keccak256(0x00, 0x20)\n      swap1\n    tag_500:\n      dup2\n      sload\n      dup2\n      mstore\n      swap1\n      0x01\n      add\n      swap1\n      0x20\n      add\n      dup1\n      dup4\n      gt\n      tag_500\n      jumpi\n      dup3\n      swap1\n      sub\n      0x1f\n      and\n      dup3\n      add\n      swap2\n    tag_498:\n      pop\n      pop\n      pop\n      pop\n      pop\n      swap1\n      pop\n      dup9\n      jump\t// out\n        /* \"UsersStorage.sol\":1207:1255   */\n    tag_152:\n      mstore(0x20, 0x0e)\n      dup1\n      0x00\n      mstore\n      keccak256(0x00, 0x40)\n      0x00\n      swap2\n      pop\n      sload\n      swap1\n      0x0100\n      exp\n      swap1\n      div\n      0xff\n      and\n      dup2\n      jump\t// out\n        /* \"UsersMixin.sol\":476:1165   */\n    tag_156:\n        /* \"UsersMixin.sol\":610:626   */\n      0x0e\n        /* \"UsersMixin.sol\":610:639   */\n      0x00\n        /* \"UsersMixin.sol\":627:638   */\n      dup6\n        /* \"UsersMixin.sol\":610:639   */\n      0xffffffffffffffffffffffffffffffffffffffff\n      and\n      0xffffffffffffffffffffffffffffffffffffffff\n      and\n      dup2\n      mstore\n      0x20\n      add\n      swap1\n      dup2\n      mstore\n      0x20\n      add\n      0x00\n      keccak256\n      0x00\n      swap1\n      sload\n      swap1\n      0x0100\n      exp\n      swap1\n      div\n      0xff\n      and\n        /* \"UsersMixin.sol\":609:639   */\n      iszero\n        /* \"UsersMixin.sol\":601:640   */\n      tag_502\n      jumpi\n      0x00\n      dup1\n      revert\n    tag_502:\n        /* \"UsersMixin.sol\":657:670   */\n      0x0f\n        /* \"UsersMixin.sol\":671:676   */\n      dup4\n        /* \"UsersMixin.sol\":657:677   */\n      mload(0x40)\n      tag_503\n      swap2\n      swap1\n      tag_279\n      jump\t// in\n    tag_503:\n      swap1\n      dup2\n      mstore\n      0x20\n      add\n      mload(0x40)\n      dup1\n      swap2\n      sub\n      swap1\n      keccak256\n      0x00\n      swap1\n      sload\n      swap1\n      0x0100\n      exp\n      swap1\n      div\n      0xff\n      and\n        /* \"UsersMixin.sol\":656:677   */\n      iszero\n        /* \"UsersMixin.sol\":648:678   */\n      tag_504\n      jumpi\n      0x00\n      dup1\n      revert\n    tag_504:\n        /* \"UsersMixin.sol\":687:704   */\n      0x00\n        /* \"UsersMixin.sol\":707:715   */\n      0x01\n        /* \"UsersMixin.sol\":707:722   */\n      dup1\n      dup2\n      0x01\n      dup2\n      sload\n      add\n      dup1\n      dup3\n      sstore\n      dup1\n      swap2\n      pop\n      pop\n      sub\n      swap1\n      0x00\n      mstore\n      keccak256(0x00, 0x20)\n      swap1\n      0x08\n      mul\n      add\n        /* \"UsersMixin.sol\":687:722   */\n      swap1\n      pop\n        /* \"UsersMixin.sol\":741:751   */\n      sload(0x13)\n        /* \"UsersMixin.sol\":731:735   */\n      dup2\n        /* \"UsersMixin.sol\":731:738   */\n      0x00\n      add\n        /* \"UsersMixin.sol\":731:751   */\n      dup2\n      swap1\n      sstore\n      pop\n        /* \"UsersMixin.sol\":778:789   */\n      dup5\n        /* \"UsersMixin.sol\":759:763   */\n      dup2\n        /* \"UsersMixin.sol\":759:775   */\n      0x01\n      add\n      0x00\n        /* \"UsersMixin.sol\":759:789   */\n      0x0100\n      exp\n      dup2\n      sload\n      dup2\n      0xffffffffffffffffffffffffffffffffffffffff\n      mul\n      not\n      and\n      swap1\n      dup4\n      0xffffffffffffffffffffffffffffffffffffffff\n      and\n      mul\n      or\n      swap1\n      sstore\n      pop\n        /* \"UsersMixin.sol\":813:818   */\n      dup4\n        /* \"UsersMixin.sol\":797:801   */\n      dup2\n        /* \"UsersMixin.sol\":797:810   */\n      0x02\n      add\n        /* \"UsersMixin.sol\":797:818   */\n      swap1\n      dup2\n      tag_506\n      swap2\n      swap1\n      tag_269\n      jump\t// in\n    tag_506:\n      pop\n        /* \"UsersMixin.sol\":844:848   */\n      dup3\n        /* \"UsersMixin.sol\":826:830   */\n      dup2\n        /* \"UsersMixin.sol\":826:841   */\n      0x03\n      add\n        /* \"UsersMixin.sol\":826:848   */\n      swap1\n      dup2\n      tag_507\n      swap2\n      swap1\n      tag_269\n      jump\t// in\n    tag_507:\n      pop\n        /* \"UsersMixin.sol\":875:879   */\n      dup2\n        /* \"UsersMixin.sol\":856:860   */\n      dup2\n        /* \"UsersMixin.sol\":856:872   */\n      0x04\n      add\n        /* \"UsersMixin.sol\":856:879   */\n      swap1\n      dup2\n      tag_508\n      swap2\n      swap1\n      tag_269\n      jump\t// in\n    tag_508:\n      pop\n        /* \"UsersMixin.sol\":915:916   */\n      0x00\n        /* \"UsersMixin.sol\":887:891   */\n      dup2\n        /* \"UsersMixin.sol\":887:912   */\n      0x06\n      add\n        /* \"UsersMixin.sol\":887:916   */\n      dup2\n      swap1\n      sstore\n      pop\n        /* \"UsersMixin.sol\":924:955   */\n      mload(0x40)\n      dup1\n      0x40\n      add\n      0x40\n      mstore\n      dup1\n      0x01\n      dup2\n      mstore\n      0x20\n      add\n      0x3000000000000000000000000000000000000000000000000000000000000000\n      dup2\n      mstore\n      pop\n        /* \"UsersMixin.sol\":924:928   */\n      dup2\n        /* \"UsersMixin.sol\":924:949   */\n      0x07\n      add\n        /* \"UsersMixin.sol\":924:955   */\n      swap1\n      dup2\n      tag_509\n      swap2\n      swap1\n      tag_269\n      jump\t// in\n    tag_509:\n      pop\n        /* \"UsersMixin.sol\":985:989   */\n      dup1\n        /* \"UsersMixin.sol\":964:969   */\n      0x05\n        /* \"UsersMixin.sol\":964:982   */\n      0x00\n        /* \"UsersMixin.sol\":970:981   */\n      dup8\n        /* \"UsersMixin.sol\":964:982   */\n      0xffffffffffffffffffffffffffffffffffffffff\n      and\n      0xffffffffffffffffffffffffffffffffffffffff\n      and\n      dup2\n      mstore\n      0x20\n      add\n      swap1\n      dup2\n      mstore\n      0x20\n      add\n      0x00\n      keccak256\n        /* \"UsersMixin.sol\":964:989   */\n      0x00\n      dup3\n      add\n      sload\n      dup2\n      0x00\n      add\n      sstore\n      0x01\n      dup3\n      add\n      0x00\n      swap1\n      sload\n      swap1\n      0x0100\n      exp\n      swap1\n      div\n      0xffffffffffffffffffffffffffffffffffffffff\n      and\n      dup2\n      0x01\n      add\n      exp(0x0100, 0x00)\n      dup2\n      sload\n      dup2\n      0xffffffffffffffffffffffffffffffffffffffff\n      mul\n      not\n      and\n      swap1\n      dup4\n      0xffffffffffffffffffffffffffffffffffffffff\n      and\n      mul\n      or\n      swap1\n      sstore\n      pop\n      0x02\n      dup3\n      add\n      dup2\n      0x02\n      add\n      swap1\n      dup2\n      tag_510\n      swap2\n      swap1\n      tag_211\n      jump\t// in\n    tag_510:\n      pop\n      0x03\n      dup3\n      add\n      dup2\n      0x03\n      add\n      swap1\n      dup2\n      tag_511\n      swap2\n      swap1\n      tag_211\n      jump\t// in\n    tag_511:\n      pop\n      0x04\n      dup3\n      add\n      dup2\n      0x04\n      add\n      swap1\n      dup2\n      tag_512\n      swap2\n      swap1\n      tag_211\n      jump\t// in\n    tag_512:\n      pop\n      0x05\n      dup3\n      add\n      sload\n      dup2\n      0x05\n      add\n      sstore\n      0x06\n      dup3\n      add\n      sload\n      dup2\n      0x06\n      add\n      sstore\n      0x07\n      dup3\n      add\n      dup2\n      0x07\n      add\n      swap1\n      dup2\n      tag_513\n      swap2\n      swap1\n      tag_211\n      jump\t// in\n    tag_513:\n      pop\n      swap1\n      pop\n      pop\n        /* \"UsersMixin.sol\":1024:1028   */\n      dup1\n        /* \"UsersMixin.sol\":997:1014   */\n      0x0b\n        /* \"UsersMixin.sol\":1015:1020   */\n      dup6\n        /* \"UsersMixin.sol\":997:1021   */\n      mload(0x40)\n      tag_514\n      swap2\n      swap1\n      tag_279\n      jump\t// in\n    tag_514:\n      swap1\n      dup2\n      mstore\n      0x20\n      add\n      mload(0x40)\n      dup1\n      swap2\n      sub\n      swap1\n      keccak256\n        /* \"UsersMixin.sol\":997:1028   */\n      0x00\n      dup3\n      add\n      sload\n      dup2\n      0x00\n      add\n      sstore\n      0x01\n      dup3\n      add\n      0x00\n      swap1\n      sload\n      swap1\n      0x0100\n      exp\n      swap1\n      div\n      0xffffffffffffffffffffffffffffffffffffffff\n      and\n      dup2\n      0x01\n      add\n      exp(0x0100, 0x00)\n      dup2\n      sload\n      dup2\n      0xffffffffffffffffffffffffffffffffffffffff\n      mul\n      not\n      and\n      swap1\n      dup4\n      0xffffffffffffffffffffffffffffffffffffffff\n      and\n      mul\n      or\n      swap1\n      sstore\n      pop\n      0x02\n      dup3\n      add\n      dup2\n      0x02\n      add\n      swap1\n      dup2\n      tag_515\n      swap2\n      swap1\n      tag_211\n      jump\t// in\n    tag_515:\n      pop\n      0x03\n      dup3\n      add\n      dup2\n      0x03\n      add\n      swap1\n      dup2\n      tag_516\n      swap2\n      swap1\n      tag_211\n      jump\t// in\n    tag_516:\n      pop\n      0x04\n      dup3\n      add\n      dup2\n      0x04\n      add\n      swap1\n      dup2\n      tag_517\n      swap2\n      swap1\n      tag_211\n      jump\t// in\n    tag_517:\n      pop\n      0x05\n      dup3\n      add\n      sload\n      dup2\n      0x05\n      add\n      sstore\n      0x06\n      dup3\n      add\n      sload\n      dup2\n      0x06\n      add\n      sstore\n      0x07\n      dup3\n      add\n      dup2\n      0x07\n      add\n      swap1\n      dup2\n      tag_518\n      swap2\n      swap1\n      tag_211\n      jump\t// in\n    tag_518:\n      pop\n      swap1\n      pop\n      pop\n        /* \"UsersMixin.sol\":1068:1072   */\n      0x01\n        /* \"UsersMixin.sol\":1036:1052   */\n      0x0e\n        /* \"UsersMixin.sol\":1036:1065   */\n      0x00\n        /* \"UsersMixin.sol\":1053:1064   */\n      dup8\n        /* \"UsersMixin.sol\":1036:1065   */\n      0xffffffffffffffffffffffffffffffffffffffff\n      and\n      0xffffffffffffffffffffffffffffffffffffffff\n      and\n      dup2\n      mstore\n      0x20\n      add\n      swap1\n      dup2\n      mstore\n      0x20\n      add\n      0x00\n      keccak256\n      0x00\n        /* \"UsersMixin.sol\":1036:1072   */\n      0x0100\n      exp\n      dup2\n      sload\n      dup2\n      0xff\n      mul\n      not\n      and\n      swap1\n      dup4\n      iszero\n      iszero\n      mul\n      or\n      swap1\n      sstore\n      pop\n        /* \"UsersMixin.sol\":1103:1107   */\n      0x01\n        /* \"UsersMixin.sol\":1080:1093   */\n      0x0f\n        /* \"UsersMixin.sol\":1094:1099   */\n      dup6\n        /* \"UsersMixin.sol\":1080:1100   */\n      mload(0x40)\n      tag_519\n      swap2\n      swap1\n      tag_279\n      jump\t// in\n    tag_519:\n      swap1\n      dup2\n      mstore\n      0x20\n      add\n      mload(0x40)\n      dup1\n      swap2\n      sub\n      swap1\n      keccak256\n      0x00\n        /* \"UsersMixin.sol\":1080:1107   */\n      0x0100\n      exp\n      dup2\n      sload\n      dup2\n      0xff\n      mul\n      not\n      and\n      swap1\n      dup4\n      iszero\n      iszero\n      mul\n      or\n      swap1\n      sstore\n      pop\n        /* \"UsersMixin.sol\":1134:1135   */\n      0x01\n        /* \"UsersMixin.sol\":1115:1124   */\n      0x0c\n        /* \"UsersMixin.sol\":1125:1129   */\n      dup5\n        /* \"UsersMixin.sol\":1115:1130   */\n      mload(0x40)\n      tag_520\n      swap2\n      swap1\n      tag_279\n      jump\t// in\n    tag_520:\n      swap1\n      dup2\n      mstore\n      0x20\n      add\n      mload(0x40)\n      dup1\n      swap2\n      sub\n      swap1\n      keccak256\n      0x00\n        /* \"UsersMixin.sol\":1115:1135   */\n      dup3\n      dup3\n      sload\n      tag_521\n      swap2\n      swap1\n      tag_312\n      jump\t// in\n    tag_521:\n      swap3\n      pop\n      pop\n      dup2\n      swap1\n      sstore\n      pop\n        /* \"UsersMixin.sol\":1157:1158   */\n      0x01\n        /* \"UsersMixin.sol\":1143:1153   */\n      0x13\n      0x00\n        /* \"UsersMixin.sol\":1143:1158   */\n      dup3\n      dup3\n      sload\n      tag_522\n      swap2\n      swap1\n      tag_312\n      jump\t// in\n    tag_522:\n      swap3\n      pop\n      pop\n      dup2\n      swap1\n      sstore\n      pop\n        /* \"UsersMixin.sol\":593:1165   */\n      pop\n        /* \"UsersMixin.sol\":476:1165   */\n      pop\n      pop\n      pop\n      pop\n      jump\t// out\n        /* \"UsersStorage.sol\":691:724   */\n    tag_160:\n      0x04\n      dup2\n      dup2\n      sload\n      dup2\n      lt\n      tag_523\n      jumpi\n      0x00\n      dup1\n      revert\n    tag_523:\n      swap1\n      0x00\n      mstore\n      keccak256(0x00, 0x20)\n      swap1\n      0x06\n      mul\n      add\n      0x00\n      swap2\n      pop\n      swap1\n      pop\n      dup1\n      0x00\n      add\n      sload\n      swap1\n      dup1\n      0x01\n      add\n      dup1\n      sload\n      tag_525\n      swap1\n      tag_317\n      jump\t// in\n    tag_525:\n      dup1\n      0x1f\n      add\n      0x20\n      dup1\n      swap2\n      div\n      mul\n      0x20\n      add\n      mload(0x40)\n      swap1\n      dup2\n      add\n      0x40\n      mstore\n      dup1\n      swap3\n      swap2\n      swap1\n      dup2\n      dup2\n      mstore\n      0x20\n      add\n      dup3\n      dup1\n      sload\n      tag_526\n      swap1\n      tag_317\n      jump\t// in\n    tag_526:\n      dup1\n      iszero\n      tag_527\n      jumpi\n      dup1\n      0x1f\n      lt\n      tag_528\n      jumpi\n      0x0100\n      dup1\n      dup4\n      sload\n      div\n      mul\n      dup4\n      mstore\n      swap2\n      0x20\n      add\n      swap2\n      jump(tag_527)\n    tag_528:\n      dup3\n      add\n      swap2\n      swap1\n      0x00\n      mstore\n      keccak256(0x00, 0x20)\n      swap1\n    tag_529:\n      dup2\n      sload\n      dup2\n      mstore\n      swap1\n      0x01\n      add\n      swap1\n      0x20\n      add\n      dup1\n      dup4\n      gt\n      tag_529\n      jumpi\n      dup3\n      swap1\n      sub\n      0x1f\n      and\n      dup3\n      add\n      swap2\n    tag_527:\n      pop\n      pop\n      pop\n      pop\n      pop\n      swap1\n      dup1\n      0x02\n      add\n      dup1\n      sload\n      tag_530\n      swap1\n      tag_317\n      jump\t// in\n    tag_530:\n      dup1\n      0x1f\n      add\n      0x20\n      dup1\n      swap2\n      div\n      mul\n      0x20\n      add\n      mload(0x40)\n      swap1\n      dup2\n      add\n      0x40\n      mstore\n      dup1\n      swap3\n      swap2\n      swap1\n      dup2\n      dup2\n      mstore\n      0x20\n      add\n      dup3\n      dup1\n      sload\n      tag_531\n      swap1\n      tag_317\n      jump\t// in\n    tag_531:\n      dup1\n      iszero\n      tag_532\n      jumpi\n      dup1\n      0x1f\n      lt\n      tag_533\n      jumpi\n      0x0100\n      dup1\n      dup4\n      sload\n      div\n      mul\n      dup4\n      mstore\n      swap2\n      0x20\n      add\n      swap2\n      jump(tag_532)\n    tag_533:\n      dup3\n      add\n      swap2\n      swap1\n      0x00\n      mstore\n      keccak256(0x00, 0x20)\n      swap1\n    tag_534:\n      dup2\n      sload\n      dup2\n      mstore\n      swap1\n      0x01\n      add\n      swap1\n      0x20\n      add\n      dup1\n      dup4\n      gt\n      tag_534\n      jumpi\n      dup3\n      swap1\n      sub\n      0x1f\n      and\n      dup3\n      add\n      swap2\n    tag_532:\n      pop\n      pop\n      pop\n      pop\n      pop\n      swap1\n      dup1\n      0x03\n      add\n      dup1\n      sload\n      tag_535\n      swap1\n      tag_317\n      jump\t// in\n    tag_535:\n      dup1\n      0x1f\n      add\n      0x20\n      dup1\n      swap2\n      div\n      mul\n      0x20\n      add\n      mload(0x40)\n      swap1\n      dup2\n      add\n      0x40\n      mstore\n      dup1\n      swap3\n      swap2\n      swap1\n      dup2\n      dup2\n      mstore\n      0x20\n      add\n      dup3\n      dup1\n      sload\n      tag_536\n      swap1\n      tag_317\n      jump\t// in\n    tag_536:\n      dup1\n      iszero\n      tag_537\n      jumpi\n      dup1\n      0x1f\n      lt\n      tag_538\n      jumpi\n      0x0100\n      dup1\n      dup4\n      sload\n      div\n      mul\n      dup4\n      mstore\n      swap2\n      0x20\n      add\n      swap2\n      jump(tag_537)\n    tag_538:\n      dup3\n      add\n      swap2\n      swap1\n      0x00\n      mstore\n      keccak256(0x00, 0x20)\n      swap1\n    tag_539:\n      dup2\n      sload\n      dup2\n      mstore\n      swap1\n      0x01\n      add\n      swap1\n      0x20\n      add\n      dup1\n      dup4\n      gt\n      tag_539\n      jumpi\n      dup3\n      swap1\n      sub\n      0x1f\n      and\n      dup3\n      add\n      swap2\n    tag_537:\n      pop\n      pop\n      pop\n      pop\n      pop\n      swap1\n      dup1\n      0x04\n      add\n      sload\n      swap1\n      dup1\n      0x05\n      add\n      sload\n      swap1\n      pop\n      dup7\n      jump\t// out\n        /* \"UsersStorage.sol\":773:823   */\n    tag_165:\n      mstore(0x20, 0x06)\n      dup2\n      0x00\n      mstore\n      keccak256(0x00, 0x40)\n      dup2\n      dup2\n      sload\n      dup2\n      lt\n      tag_540\n      jumpi\n      0x00\n      dup1\n      revert\n    tag_540:\n      swap1\n      0x00\n      mstore\n      keccak256(0x00, 0x20)\n      swap1\n      0x06\n      mul\n      add\n      0x00\n      swap2\n      pop\n      swap2\n      pop\n      pop\n      dup1\n      0x00\n      add\n      sload\n      swap1\n      dup1\n      0x01\n      add\n      dup1\n      sload\n      tag_542\n      swap1\n      tag_317\n      jump\t// in\n    tag_542:\n      dup1\n      0x1f\n      add\n      0x20\n      dup1\n      swap2\n      div\n      mul\n      0x20\n      add\n      mload(0x40)\n      swap1\n      dup2\n      add\n      0x40\n      mstore\n      dup1\n      swap3\n      swap2\n      swap1\n      dup2\n      dup2\n      mstore\n      0x20\n      add\n      dup3\n      dup1\n      sload\n      tag_543\n      swap1\n      tag_317\n      jump\t// in\n    tag_543:\n      dup1\n      iszero\n      tag_544\n      jumpi\n      dup1\n      0x1f\n      lt\n      tag_545\n      jumpi\n      0x0100\n      dup1\n      dup4\n      sload\n      div\n      mul\n      dup4\n      mstore\n      swap2\n      0x20\n      add\n      swap2\n      jump(tag_544)\n    tag_545:\n      dup3\n      add\n      swap2\n      swap1\n      0x00\n      mstore\n      keccak256(0x00, 0x20)\n      swap1\n    tag_546:\n      dup2\n      sload\n      dup2\n      mstore\n      swap1\n      0x01\n      add\n      swap1\n      0x20\n      add\n      dup1\n      dup4\n      gt\n      tag_546\n      jumpi\n      dup3\n      swap1\n      sub\n      0x1f\n      and\n      dup3\n      add\n      swap2\n    tag_544:\n      pop\n      pop\n      pop\n      pop\n      pop\n      swap1\n      dup1\n      0x02\n      add\n      dup1\n      sload\n      tag_547\n      swap1\n      tag_317\n      jump\t// in\n    tag_547:\n      dup1\n      0x1f\n      add\n      0x20\n      dup1\n      swap2\n      div\n      mul\n      0x20\n      add\n      mload(0x40)\n      swap1\n      dup2\n      add\n      0x40\n      mstore\n      dup1\n      swap3\n      swap2\n      swap1\n      dup2\n      dup2\n      mstore\n      0x20\n      add\n      dup3\n      dup1\n      sload\n      tag_548\n      swap1\n      tag_317\n      jump\t// in\n    tag_548:\n      dup1\n      iszero\n      tag_549\n      jumpi\n      dup1\n      0x1f\n      lt\n      tag_550\n      jumpi\n      0x0100\n      dup1\n      dup4\n      sload\n      div\n      mul\n      dup4\n      mstore\n      swap2\n      0x20\n      add\n      swap2\n      jump(tag_549)\n    tag_550:\n      dup3\n      add\n      swap2\n      swap1\n      0x00\n      mstore\n      keccak256(0x00, 0x20)\n      swap1\n    tag_551:\n      dup2\n      sload\n      dup2\n      mstore\n      swap1\n      0x01\n      add\n      swap1\n      0x20\n      add\n      dup1\n      dup4\n      gt\n      tag_551\n      jumpi\n      dup3\n      swap1\n      sub\n      0x1f\n      and\n      dup3\n      add\n      swap2\n    tag_549:\n      pop\n      pop\n      pop\n      pop\n      pop\n      swap1\n      dup1\n      0x03\n      add\n      dup1\n      sload\n      tag_552\n      swap1\n      tag_317\n      jump\t// in\n    tag_552:\n      dup1\n      0x1f\n      add\n      0x20\n      dup1\n      swap2\n      div\n      mul\n      0x20\n      add\n      mload(0x40)\n      swap1\n      dup2\n      add\n      0x40\n      mstore\n      dup1\n      swap3\n      swap2\n      swap1\n      dup2\n      dup2\n      mstore\n      0x20\n      add\n      dup3\n      dup1\n      sload\n      tag_553\n      swap1\n      tag_317\n      jump\t// in\n    tag_553:\n      dup1\n      iszero\n      tag_554\n      jumpi\n      dup1\n      0x1f\n      lt\n      tag_555\n      jumpi\n      0x0100\n      dup1\n      dup4\n      sload\n      div\n      mul\n      dup4\n      mstore\n      swap2\n      0x20\n      add\n      swap2\n      jump(tag_554)\n    tag_555:\n      dup3\n      add\n      swap2\n      swap1\n      0x00\n      mstore\n      keccak256(0x00, 0x20)\n      swap1\n    tag_556:\n      dup2\n      sload\n      dup2\n      mstore\n      swap1\n      0x01\n      add\n      swap1\n      0x20\n      add\n      dup1\n      dup4\n      gt\n      tag_556\n      jumpi\n      dup3\n      swap1\n      sub\n      0x1f\n      and\n      dup3\n      add\n      swap2\n    tag_554:\n      pop\n      pop\n      pop\n      pop\n      pop\n      swap1\n      dup1\n      0x04\n      add\n      sload\n      swap1\n      dup1\n      0x05\n      add\n      sload\n      swap1\n      pop\n      dup7\n      jump\t// out\n        /* \"UsersStorage.sol\":1504:1529   */\n    tag_169:\n      sload(0x14)\n      dup2\n      jump\t// out\n        /* \"UsersMixin.sol\":1171:1508   */\n    tag_174:\n        /* \"UsersMixin.sol\":1283:1299   */\n      0x0e\n        /* \"UsersMixin.sol\":1283:1311   */\n      0x00\n        /* \"UsersMixin.sol\":1300:1310   */\n      caller\n        /* \"UsersMixin.sol\":1283:1311   */\n      0xffffffffffffffffffffffffffffffffffffffff\n      and\n      0xffffffffffffffffffffffffffffffffffffffff\n      and\n      dup2\n      mstore\n      0x20\n      add\n      swap1\n      dup2\n      mstore\n      0x20\n      add\n      0x00\n      keccak256\n      0x00\n      swap1\n      sload\n      swap1\n      0x0100\n      exp\n      swap1\n      div\n      0xff\n      and\n        /* \"UsersMixin.sol\":1275:1312   */\n      tag_558\n      jumpi\n      0x00\n      dup1\n      revert\n    tag_558:\n        /* \"UsersMixin.sol\":1329:1342   */\n      0x0f\n        /* \"UsersMixin.sol\":1343:1348   */\n      dup4\n        /* \"UsersMixin.sol\":1329:1349   */\n      mload(0x40)\n      tag_559\n      swap2\n      swap1\n      tag_279\n      jump\t// in\n    tag_559:\n      swap1\n      dup2\n      mstore\n      0x20\n      add\n      mload(0x40)\n      dup1\n      swap2\n      sub\n      swap1\n      keccak256\n      0x00\n      swap1\n      sload\n      swap1\n      0x0100\n      exp\n      swap1\n      div\n      0xff\n      and\n        /* \"UsersMixin.sol\":1328:1349   */\n      iszero\n        /* \"UsersMixin.sol\":1320:1350   */\n      tag_560\n      jumpi\n      0x00\n      dup1\n      revert\n    tag_560:\n        /* \"UsersMixin.sol\":1358:1372   */\n      0x00\n        /* \"UsersMixin.sol\":1375:1380   */\n      0x05\n        /* \"UsersMixin.sol\":1375:1392   */\n      0x00\n        /* \"UsersMixin.sol\":1381:1391   */\n      caller\n        /* \"UsersMixin.sol\":1375:1392   */\n      0xffffffffffffffffffffffffffffffffffffffff\n      and\n      0xffffffffffffffffffffffffffffffffffffffff\n      and\n      dup2\n      mstore\n      0x20\n      add\n      swap1\n      dup2\n      mstore\n      0x20\n      add\n      0x00\n      keccak256\n        /* \"UsersMixin.sol\":1358:1392   */\n      swap1\n      pop\n        /* \"UsersMixin.sol\":1414:1419   */\n      dup4\n        /* \"UsersMixin.sol\":1401:1402   */\n      dup2\n        /* \"UsersMixin.sol\":1401:1411   */\n      0x02\n      add\n        /* \"UsersMixin.sol\":1401:1419   */\n      swap1\n      dup2\n      tag_561\n      swap2\n      swap1\n      tag_269\n      jump\t// in\n    tag_561:\n      pop\n        /* \"UsersMixin.sol\":1442:1446   */\n      dup3\n        /* \"UsersMixin.sol\":1427:1428   */\n      dup2\n        /* \"UsersMixin.sol\":1427:1439   */\n      0x03\n      add\n        /* \"UsersMixin.sol\":1427:1446   */\n      swap1\n      dup2\n      tag_562\n      swap2\n      swap1\n      tag_269\n      jump\t// in\n    tag_562:\n      pop\n        /* \"UsersMixin.sol\":1470:1474   */\n      dup2\n        /* \"UsersMixin.sol\":1454:1455   */\n      dup2\n        /* \"UsersMixin.sol\":1454:1467   */\n      0x04\n      add\n        /* \"UsersMixin.sol\":1454:1474   */\n      swap1\n      dup2\n      tag_563\n      swap2\n      swap1\n      tag_269\n      jump\t// in\n    tag_563:\n      pop\n        /* \"UsersMixin.sol\":1500:1501   */\n      dup1\n        /* \"UsersMixin.sol\":1483:1491   */\n      0x01\n        /* \"UsersMixin.sol\":1492:1493   */\n      dup3\n        /* \"UsersMixin.sol\":1492:1496   */\n      0x00\n      add\n      sload\n        /* \"UsersMixin.sol\":1483:1497   */\n      dup2\n      sload\n      dup2\n      lt\n      tag_564\n      jumpi\n      tag_565\n      tag_208\n      jump\t// in\n    tag_565:\n    tag_564:\n      swap1\n      0x00\n      mstore\n      keccak256(0x00, 0x20)\n      swap1\n      0x08\n      mul\n      add\n        /* \"UsersMixin.sol\":1483:1501   */\n      0x00\n      dup3\n      add\n      sload\n      dup2\n      0x00\n      add\n      sstore\n      0x01\n      dup3\n      add\n      0x00\n      swap1\n      sload\n      swap1\n      0x0100\n      exp\n      swap1\n      div\n      0xffffffffffffffffffffffffffffffffffffffff\n      and\n      dup2\n      0x01\n      add\n      exp(0x0100, 0x00)\n      dup2\n      sload\n      dup2\n      0xffffffffffffffffffffffffffffffffffffffff\n      mul\n      not\n      and\n      swap1\n      dup4\n      0xffffffffffffffffffffffffffffffffffffffff\n      and\n      mul\n      or\n      swap1\n      sstore\n      pop\n      0x02\n      dup3\n      add\n      dup2\n      0x02\n      add\n      swap1\n      dup2\n      tag_567\n      swap2\n      swap1\n      tag_211\n      jump\t// in\n    tag_567:\n      pop\n      0x03\n      dup3\n      add\n      dup2\n      0x03\n      add\n      swap1\n      dup2\n      tag_568\n      swap2\n      swap1\n      tag_211\n      jump\t// in\n    tag_568:\n      pop\n      0x04\n      dup3\n      add\n      dup2\n      0x04\n      add\n      swap1\n      dup2\n      tag_569\n      swap2\n      swap1\n      tag_211\n      jump\t// in\n    tag_569:\n      pop\n      0x05\n      dup3\n      add\n      sload\n      dup2\n      0x05\n      add\n      sstore\n      0x06\n      dup3\n      add\n      sload\n      dup2\n      0x06\n      add\n      sstore\n      0x07\n      dup3\n      add\n      dup2\n      0x07\n      add\n      swap1\n      dup2\n      tag_570\n      swap2\n      swap1\n      tag_211\n      jump\t// in\n    tag_570:\n      pop\n      swap1\n      pop\n      pop\n        /* \"UsersMixin.sol\":1267:1508   */\n      pop\n        /* \"UsersMixin.sol\":1171:1508   */\n      pop\n      pop\n      pop\n      jump\t// out\n        /* \"UsersStorage.sol\":655:685   */\n    tag_178:\n      0x03\n      dup2\n      dup2\n      sload\n      dup2\n      lt\n      tag_571\n      jumpi\n      0x00\n      dup1\n      revert\n    tag_571:\n      swap1\n      0x00\n      mstore\n      keccak256(0x00, 0x20)\n      swap1\n      0x08\n      mul\n      add\n      0x00\n      swap2\n      pop\n      swap1\n      pop\n      dup1\n      0x00\n      add\n      sload\n      swap1\n      dup1\n      0x01\n      add\n      0x00\n      swap1\n      sload\n      swap1\n      0x0100\n      exp\n      swap1\n      div\n      0xffffffffffffffffffffffffffffffffffffffff\n      and\n      swap1\n      dup1\n      0x02\n      add\n      dup1\n      sload\n      tag_573\n      swap1\n      tag_317\n      jump\t// in\n    tag_573:\n      dup1\n      0x1f\n      add\n      0x20\n      dup1\n      swap2\n      div\n      mul\n      0x20\n      add\n      mload(0x40)\n      swap1\n      dup2\n      add\n      0x40\n      mstore\n      dup1\n      swap3\n      swap2\n      swap1\n      dup2\n      dup2\n      mstore\n      0x20\n      add\n      dup3\n      dup1\n      sload\n      tag_574\n      swap1\n      tag_317\n      jump\t// in\n    tag_574:\n      dup1\n      iszero\n      tag_575\n      jumpi\n      dup1\n      0x1f\n      lt\n      tag_576\n      jumpi\n      0x0100\n      dup1\n      dup4\n      sload\n      div\n      mul\n      dup4\n      mstore\n      swap2\n      0x20\n      add\n      swap2\n      jump(tag_575)\n    tag_576:\n      dup3\n      add\n      swap2\n      swap1\n      0x00\n      mstore\n      keccak256(0x00, 0x20)\n      swap1\n    tag_577:\n      dup2\n      sload\n      dup2\n      mstore\n      swap1\n      0x01\n      add\n      swap1\n      0x20\n      add\n      dup1\n      dup4\n      gt\n      tag_577\n      jumpi\n      dup3\n      swap1\n      sub\n      0x1f\n      and\n      dup3\n      add\n      swap2\n    tag_575:\n      pop\n      pop\n      pop\n      pop\n      pop\n      swap1\n      dup1\n      0x03\n      add\n      dup1\n      sload\n      tag_578\n      swap1\n      tag_317\n      jump\t// in\n    tag_578:\n      dup1\n      0x1f\n      add\n      0x20\n      dup1\n      swap2\n      div\n      mul\n      0x20\n      add\n      mload(0x40)\n      swap1\n      dup2\n      add\n      0x40\n      mstore\n      dup1\n      swap3\n      swap2\n      swap1\n      dup2\n      dup2\n      mstore\n      0x20\n      add\n      dup3\n      dup1\n      sload\n      tag_579\n      swap1\n      tag_317\n      jump\t// in\n    tag_579:\n      dup1\n      iszero\n      tag_580\n      jumpi\n      dup1\n      0x1f\n      lt\n      tag_581\n      jumpi\n      0x0100\n      dup1\n      dup4\n      sload\n      div\n      mul\n      dup4\n      mstore\n      swap2\n      0x20\n      add\n      swap2\n      jump(tag_580)\n    tag_581:\n      dup3\n      add\n      swap2\n      swap1\n      0x00\n      mstore\n      keccak256(0x00, 0x20)\n      swap1\n    tag_582:\n      dup2\n      sload\n      dup2\n      mstore\n      swap1\n      0x01\n      add\n      swap1\n      0x20\n      add\n      dup1\n      dup4\n      gt\n      tag_582\n      jumpi\n      dup3\n      swap1\n      sub\n      0x1f\n      and\n      dup3\n      add\n      swap2\n    tag_580:\n      pop\n      pop\n      pop\n      pop\n      pop\n      swap1\n      dup1\n      0x04\n      add\n      dup1\n      sload\n      tag_583\n      swap1\n      tag_317\n      jump\t// in\n    tag_583:\n      dup1\n      0x1f\n      add\n      0x20\n      dup1\n      swap2\n      div\n      mul\n      0x20\n      add\n      mload(0x40)\n      swap1\n      dup2\n      add\n      0x40\n      mstore\n      dup1\n      swap3\n      swap2\n      swap1\n      dup2\n      dup2\n      mstore\n      0x20\n      add\n      dup3\n      dup1\n      sload\n      tag_584\n      swap1\n      tag_317\n      jump\t// in\n    tag_584:\n      dup1\n      iszero\n      tag_585\n      jumpi\n      dup1\n      0x1f\n      lt\n      tag_586\n      jumpi\n      0x0100\n      dup1\n      dup4\n      sload\n      div\n      mul\n      dup4\n      mstore\n      swap2\n      0x20\n      add\n      swap2\n      jump(tag_585)\n    tag_586:\n      dup3\n      add\n      swap2\n      swap1\n      0x00\n      mstore\n      keccak256(0x00, 0x20)\n      swap1\n    tag_587:\n      dup2\n      sload\n      dup2\n      mstore\n      swap1\n      0x01\n      add\n      swap1\n      0x20\n      add\n      dup1\n      dup4\n      gt\n      tag_587\n      jumpi\n      dup3\n      swap1\n      sub\n      0x1f\n      and\n      dup3\n      add\n      swap2\n    tag_585:\n      pop\n      pop\n      pop\n      pop\n      pop\n      swap1\n      dup1\n      0x05\n      add\n      sload\n      swap1\n      dup1\n      0x06\n      add\n      sload\n      swap1\n      dup1\n      0x07\n      add\n      dup1\n      sload\n      tag_588\n      swap1\n      tag_317\n      jump\t// in\n    tag_588:\n      dup1\n      0x1f\n      add\n      0x20\n      dup1\n      swap2\n      div\n      mul\n      0x20\n      add\n      mload(0x40)\n      swap1\n      dup2\n      add\n      0x40\n      mstore\n      dup1\n      swap3\n      swap2\n      swap1\n      dup2\n      dup2\n      mstore\n      0x20\n      add\n      dup3\n      dup1\n      sload\n      tag_589\n      swap1\n      tag_317\n      jump\t// in\n    tag_589:\n      dup1\n      iszero\n      tag_590\n      jumpi\n      dup1\n      0x1f\n      lt\n      tag_591\n      jumpi\n      0x0100\n      dup1\n      dup4\n      sload\n      div\n      mul\n      dup4\n      mstore\n      swap2\n      0x20\n      add\n      swap2\n      jump(tag_590)\n    tag_591:\n      dup3\n      add\n      swap2\n      swap1\n      0x00\n      mstore\n      keccak256(0x00, 0x20)\n      swap1\n    tag_592:\n      dup2\n      sload\n      dup2\n      mstore\n      swap1\n      0x01\n      add\n      swap1\n      0x20\n      add\n      dup1\n      dup4\n      gt\n      tag_592\n      jumpi\n      dup3\n      swap1\n      sub\n      0x1f\n      and\n      dup3\n      add\n      swap2\n    tag_590:\n      pop\n      pop\n      pop\n      pop\n      pop\n      swap1\n      pop\n      dup9\n      jump\t// out\n        /* \"UsersStorage.sol\":1311:1358   */\n    tag_183:\n      0x10\n      dup2\n      dup1\n      mload\n      0x20\n      dup2\n      add\n      dup3\n      add\n      dup1\n      mload\n      dup5\n      dup3\n      mstore\n      0x20\n      dup4\n      add\n      0x20\n      dup6\n      add\n      keccak256\n      dup2\n      dup4\n      mstore\n      dup1\n      swap6\n      pop\n      pop\n      pop\n      pop\n      pop\n      pop\n      0x00\n      swap2\n      pop\n      sload\n      swap1\n      0x0100\n      exp\n      swap1\n      div\n      0xff\n      and\n      dup2\n      jump\t// out\n        /* \"UsersMixin.sol\":4023:4749   */\n    tag_187:\n        /* \"UsersMixin.sol\":4155:4171   */\n      0x0e\n        /* \"UsersMixin.sol\":4155:4187   */\n      0x00\n        /* \"UsersMixin.sol\":4172:4186   */\n      dup6\n        /* \"UsersMixin.sol\":4155:4187   */\n      0xffffffffffffffffffffffffffffffffffffffff\n      and\n      0xffffffffffffffffffffffffffffffffffffffff\n      and\n      dup2\n      mstore\n      0x20\n      add\n      swap1\n      dup2\n      mstore\n      0x20\n      add\n      0x00\n      keccak256\n      0x00\n      swap1\n      sload\n      swap1\n      0x0100\n      exp\n      swap1\n      div\n      0xff\n      and\n        /* \"UsersMixin.sol\":4147:4188   */\n      tag_594\n      jumpi\n      0x00\n      dup1\n      revert\n    tag_594:\n        /* \"UsersMixin.sol\":4196:4213   */\n      0x00\n        /* \"UsersMixin.sol\":4216:4221   */\n      0x05\n        /* \"UsersMixin.sol\":4216:4237   */\n      0x00\n        /* \"UsersMixin.sol\":4222:4236   */\n      dup7\n        /* \"UsersMixin.sol\":4216:4237   */\n      0xffffffffffffffffffffffffffffffffffffffff\n      and\n      0xffffffffffffffffffffffffffffffffffffffff\n      and\n      dup2\n      mstore\n      0x20\n      add\n      swap1\n      dup2\n      mstore\n      0x20\n      add\n      0x00\n      keccak256\n        /* \"UsersMixin.sol\":4196:4237   */\n      swap1\n      pop\n        /* \"UsersMixin.sol\":4245:4268   */\n      0x00\n        /* \"UsersMixin.sol\":4271:4282   */\n      0x02\n        /* \"UsersMixin.sol\":4283:4292   */\n      dup6\n        /* \"UsersMixin.sol\":4271:4293   */\n      dup2\n      sload\n      dup2\n      lt\n      tag_595\n      jumpi\n      tag_596\n      tag_208\n      jump\t// in\n    tag_596:\n    tag_595:\n      swap1\n      0x00\n      mstore\n      keccak256(0x00, 0x20)\n      swap1\n      0x06\n      mul\n      add\n        /* \"UsersMixin.sol\":4245:4293   */\n      swap1\n      pop\n        /* \"UsersMixin.sol\":4304:4312   */\n      dup3\n        /* \"UsersMixin.sol\":4301:4612   */\n      iszero\n      tag_598\n      jumpi\n        /* \"UsersMixin.sol\":4323:4327   */\n      dup2\n        /* \"UsersMixin.sol\":4323:4344   */\n      0x05\n      add\n      0x00\n        /* \"UsersMixin.sol\":4323:4346   */\n      dup2\n      sload\n      dup1\n      swap3\n      swap2\n      swap1\n      tag_599\n      swap1\n      tag_216\n      jump\t// in\n    tag_599:\n      swap2\n      swap1\n      pop\n      sstore\n      pop\n        /* \"UsersMixin.sol\":4356:4369   */\n      0x06\n        /* \"UsersMixin.sol\":4356:4385   */\n      0x00\n        /* \"UsersMixin.sol\":4370:4384   */\n      dup8\n        /* \"UsersMixin.sol\":4356:4385   */\n      0xffffffffffffffffffffffffffffffffffffffff\n      and\n      0xffffffffffffffffffffffffffffffffffffffff\n      and\n      dup2\n      mstore\n      0x20\n      add\n      swap1\n      dup2\n      mstore\n      0x20\n      add\n      0x00\n      keccak256\n        /* \"UsersMixin.sol\":4391:4398   */\n      dup2\n        /* \"UsersMixin.sol\":4356:4399   */\n      swap1\n      dup1\n      0x01\n      dup2\n      sload\n      add\n      dup1\n      dup3\n      sstore\n      dup1\n      swap2\n      pop\n      pop\n      0x01\n      swap1\n      sub\n      swap1\n      0x00\n      mstore\n      keccak256(0x00, 0x20)\n      swap1\n      0x06\n      mul\n      add\n      0x00\n      swap1\n      swap2\n      swap1\n      swap2\n      swap1\n      swap2\n      pop\n      0x00\n      dup3\n      add\n      sload\n      dup2\n      0x00\n      add\n      sstore\n      0x01\n      dup3\n      add\n      dup2\n      0x01\n      add\n      swap1\n      dup2\n      tag_601\n      swap2\n      swap1\n      tag_211\n      jump\t// in\n    tag_601:\n      pop\n      0x02\n      dup3\n      add\n      dup2\n      0x02\n      add\n      swap1\n      dup2\n      tag_602\n      swap2\n      swap1\n      tag_211\n      jump\t// in\n    tag_602:\n      pop\n      0x03\n      dup3\n      add\n      dup2\n      0x03\n      add\n      swap1\n      dup2\n      tag_603\n      swap2\n      swap1\n      tag_211\n      jump\t// in\n    tag_603:\n      pop\n      0x04\n      dup3\n      add\n      sload\n      dup2\n      0x04\n      add\n      sstore\n      0x05\n      dup3\n      add\n      sload\n      dup2\n      0x05\n      add\n      sstore\n      pop\n      pop\n        /* \"UsersMixin.sol\":4409:4416   */\n      dup1\n        /* \"UsersMixin.sol\":4409:4429   */\n      0x04\n      add\n      0x00\n        /* \"UsersMixin.sol\":4409:4431   */\n      dup2\n      sload\n      dup1\n      swap3\n      swap2\n      swap1\n      tag_604\n      swap1\n      tag_216\n      jump\t// in\n    tag_604:\n      swap2\n      swap1\n      pop\n      sstore\n      pop\n        /* \"UsersMixin.sol\":4441:4455   */\n      0x08\n        /* \"UsersMixin.sol\":4441:4466   */\n      0x00\n        /* \"UsersMixin.sol\":4456:4465   */\n      dup7\n        /* \"UsersMixin.sol\":4441:4466   */\n      dup2\n      mstore\n      0x20\n      add\n      swap1\n      dup2\n      mstore\n      0x20\n      add\n      0x00\n      keccak256\n        /* \"UsersMixin.sol\":4472:4476   */\n      dup3\n        /* \"UsersMixin.sol\":4441:4477   */\n      swap1\n      dup1\n      0x01\n      dup2\n      sload\n      add\n      dup1\n      dup3\n      sstore\n      dup1\n      swap2\n      pop\n      pop\n      0x01\n      swap1\n      sub\n      swap1\n      0x00\n      mstore\n      keccak256(0x00, 0x20)\n      swap1\n      0x08\n      mul\n      add\n      0x00\n      swap1\n      swap2\n      swap1\n      swap2\n      swap1\n      swap2\n      pop\n      0x00\n      dup3\n      add\n      sload\n      dup2\n      0x00\n      add\n      sstore\n      0x01\n      dup3\n      add\n      0x00\n      swap1\n      sload\n      swap1\n      0x0100\n      exp\n      swap1\n      div\n      0xffffffffffffffffffffffffffffffffffffffff\n      and\n      dup2\n      0x01\n      add\n      exp(0x0100, 0x00)\n      dup2\n      sload\n      dup2\n      0xffffffffffffffffffffffffffffffffffffffff\n      mul\n      not\n      and\n      swap1\n      dup4\n      0xffffffffffffffffffffffffffffffffffffffff\n      and\n      mul\n      or\n      swap1\n      sstore\n      pop\n      0x02\n      dup3\n      add\n      dup2\n      0x02\n      add\n      swap1\n      dup2\n      tag_606\n      swap2\n      swap1\n      tag_211\n      jump\t// in\n    tag_606:\n      pop\n      0x03\n      dup3\n      add\n      dup2\n      0x03\n      add\n      swap1\n      dup2\n      tag_607\n      swap2\n      swap1\n      tag_211\n      jump\t// in\n    tag_607:\n      pop\n      0x04\n      dup3\n      add\n      dup2\n      0x04\n      add\n      swap1\n      dup2\n      tag_608\n      swap2\n      swap1\n      tag_211\n      jump\t// in\n    tag_608:\n      pop\n      0x05\n      dup3\n      add\n      sload\n      dup2\n      0x05\n      add\n      sstore\n      0x06\n      dup3\n      add\n      sload\n      dup2\n      0x06\n      add\n      sstore\n      0x07\n      dup3\n      add\n      dup2\n      0x07\n      add\n      swap1\n      dup2\n      tag_609\n      swap2\n      swap1\n      tag_211\n      jump\t// in\n    tag_609:\n      pop\n      pop\n      pop\n        /* \"UsersMixin.sol\":4487:4506   */\n      0x11\n        /* \"UsersMixin.sol\":4487:4524   */\n      0x00\n        /* \"UsersMixin.sol\":4507:4511   */\n      dup4\n        /* \"UsersMixin.sol\":4507:4523   */\n      0x01\n      add\n      0x00\n      swap1\n      sload\n      swap1\n      0x0100\n      exp\n      swap1\n      div\n      0xffffffffffffffffffffffffffffffffffffffff\n      and\n        /* \"UsersMixin.sol\":4487:4524   */\n      0xffffffffffffffffffffffffffffffffffffffff\n      and\n      0xffffffffffffffffffffffffffffffffffffffff\n      and\n      dup2\n      mstore\n      0x20\n      add\n      swap1\n      dup2\n      mstore\n      0x20\n      add\n      0x00\n      keccak256\n      0x00\n        /* \"UsersMixin.sol\":4487:4526   */\n      dup2\n      sload\n      dup1\n      swap3\n      swap2\n      swap1\n      tag_610\n      swap1\n      tag_216\n      jump\t// in\n    tag_610:\n      swap2\n      swap1\n      pop\n      sstore\n      pop\n        /* \"UsersMixin.sol\":4536:4556   */\n      0x12\n        /* \"UsersMixin.sol\":4536:4567   */\n      0x00\n        /* \"UsersMixin.sol\":4557:4566   */\n      dup7\n        /* \"UsersMixin.sol\":4536:4567   */\n      dup2\n      mstore\n      0x20\n      add\n      swap1\n      dup2\n      mstore\n      0x20\n      add\n      0x00\n      keccak256\n      0x00\n        /* \"UsersMixin.sol\":4536:4569   */\n      dup2\n      sload\n      dup1\n      swap3\n      swap2\n      swap1\n      tag_611\n      swap1\n      tag_216\n      jump\t// in\n    tag_611:\n      swap2\n      swap1\n      pop\n      sstore\n      pop\n        /* \"UsersMixin.sol\":4599:4603   */\n      dup2\n        /* \"UsersMixin.sol\":4579:4587   */\n      0x01\n        /* \"UsersMixin.sol\":4588:4592   */\n      dup4\n        /* \"UsersMixin.sol\":4588:4595   */\n      0x00\n      add\n      sload\n        /* \"UsersMixin.sol\":4579:4596   */\n      dup2\n      sload\n      dup2\n      lt\n      tag_612\n      jumpi\n      tag_613\n      tag_208\n      jump\t// in\n    tag_613:\n    tag_612:\n      swap1\n      0x00\n      mstore\n      keccak256(0x00, 0x20)\n      swap1\n      0x08\n      mul\n      add\n        /* \"UsersMixin.sol\":4579:4603   */\n      0x00\n      dup3\n      add\n      sload\n      dup2\n      0x00\n      add\n      sstore\n      0x01\n      dup3\n      add\n      0x00\n      swap1\n      sload\n      swap1\n      0x0100\n      exp\n      swap1\n      div\n      0xffffffffffffffffffffffffffffffffffffffff\n      and\n      dup2\n      0x01\n      add\n      exp(0x0100, 0x00)\n      dup2\n      sload\n      dup2\n      0xffffffffffffffffffffffffffffffffffffffff\n      mul\n      not\n      and\n      swap1\n      dup4\n      0xffffffffffffffffffffffffffffffffffffffff\n      and\n      mul\n      or\n      swap1\n      sstore\n      pop\n      0x02\n      dup3\n      add\n      dup2\n      0x02\n      add\n      swap1\n      dup2\n      tag_615\n      swap2\n      swap1\n      tag_211\n      jump\t// in\n    tag_615:\n      pop\n      0x03\n      dup3\n      add\n      dup2\n      0x03\n      add\n      swap1\n      dup2\n      tag_616\n      swap2\n      swap1\n      tag_211\n      jump\t// in\n    tag_616:\n      pop\n      0x04\n      dup3\n      add\n      dup2\n      0x04\n      add\n      swap1\n      dup2\n      tag_617\n      swap2\n      swap1\n      tag_211\n      jump\t// in\n    tag_617:\n      pop\n      0x05\n      dup3\n      add\n      sload\n      dup2\n      0x05\n      add\n      sstore\n      0x06\n      dup3\n      add\n      sload\n      dup2\n      0x06\n      add\n      sstore\n      0x07\n      dup3\n      add\n      dup2\n      0x07\n      add\n      swap1\n      dup2\n      tag_618\n      swap2\n      swap1\n      tag_211\n      jump\t// in\n    tag_618:\n      pop\n      swap1\n      pop\n      pop\n        /* \"UsersMixin.sol\":4301:4612   */\n    tag_598:\n        /* \"UsersMixin.sol\":4619:4623   */\n      dup2\n        /* \"UsersMixin.sol\":4619:4644   */\n      0x06\n      add\n      0x00\n        /* \"UsersMixin.sol\":4619:4646   */\n      dup2\n      sload\n      dup1\n      swap3\n      swap2\n      swap1\n      tag_619\n      swap1\n      tag_223\n      jump\t// in\n    tag_619:\n      swap2\n      swap1\n      pop\n      sstore\n      pop\n        /* \"UsersMixin.sol\":4674:4678   */\n      dup2\n        /* \"UsersMixin.sol\":4654:4662   */\n      0x01\n        /* \"UsersMixin.sol\":4663:4667   */\n      dup4\n        /* \"UsersMixin.sol\":4663:4670   */\n      0x00\n      add\n      sload\n        /* \"UsersMixin.sol\":4654:4671   */\n      dup2\n      sload\n      dup2\n      lt\n      tag_620\n      jumpi\n      tag_621\n      tag_208\n      jump\t// in\n    tag_621:\n    tag_620:\n      swap1\n      0x00\n      mstore\n      keccak256(0x00, 0x20)\n      swap1\n      0x08\n      mul\n      add\n        /* \"UsersMixin.sol\":4654:4678   */\n      0x00\n      dup3\n      add\n      sload\n      dup2\n      0x00\n      add\n      sstore\n      0x01\n      dup3\n      add\n      0x00\n      swap1\n      sload\n      swap1\n      0x0100\n      exp\n      swap1\n      div\n      0xffffffffffffffffffffffffffffffffffffffff\n      and\n      dup2\n      0x01\n      add\n      exp(0x0100, 0x00)\n      dup2\n      sload\n      dup2\n      0xffffffffffffffffffffffffffffffffffffffff\n      mul\n      not\n      and\n      swap1\n      dup4\n      0xffffffffffffffffffffffffffffffffffffffff\n      and\n      mul\n      or\n      swap1\n      sstore\n      pop\n      0x02\n      dup3\n      add\n      dup2\n      0x02\n      add\n      swap1\n      dup2\n      tag_623\n      swap2\n      swap1\n      tag_211\n      jump\t// in\n    tag_623:\n      pop\n      0x03\n      dup3\n      add\n      dup2\n      0x03\n      add\n      swap1\n      dup2\n      tag_624\n      swap2\n      swap1\n      tag_211\n      jump\t// in\n    tag_624:\n      pop\n      0x04\n      dup3\n      add\n      dup2\n      0x04\n      add\n      swap1\n      dup2\n      tag_625\n      swap2\n      swap1\n      tag_211\n      jump\t// in\n    tag_625:\n      pop\n      0x05\n      dup3\n      add\n      sload\n      dup2\n      0x05\n      add\n      sstore\n      0x06\n      dup3\n      add\n      sload\n      dup2\n      0x06\n      add\n      sstore\n      0x07\n      dup3\n      add\n      dup2\n      0x07\n      add\n      swap1\n      dup2\n      tag_626\n      swap2\n      swap1\n      tag_211\n      jump\t// in\n    tag_626:\n      pop\n      swap1\n      pop\n      pop\n        /* \"UsersMixin.sol\":4693:4715   */\n      0x0a\n        /* \"UsersMixin.sol\":4693:4731   */\n      0x00\n        /* \"UsersMixin.sol\":4716:4730   */\n      dup8\n        /* \"UsersMixin.sol\":4693:4731   */\n      0xffffffffffffffffffffffffffffffffffffffff\n      and\n      0xffffffffffffffffffffffffffffffffffffffff\n      and\n      dup2\n      mstore\n      0x20\n      add\n      swap1\n      dup2\n      mstore\n      0x20\n      add\n      0x00\n      keccak256\n        /* \"UsersMixin.sol\":4732:4741   */\n      dup5\n        /* \"UsersMixin.sol\":4693:4742   */\n      dup2\n      sload\n      dup2\n      lt\n      tag_627\n      jumpi\n      tag_628\n      tag_208\n      jump\t// in\n    tag_628:\n    tag_627:\n      swap1\n      0x00\n      mstore\n      keccak256(0x00, 0x20)\n      swap1\n      0x06\n      mul\n      add\n      0x00\n        /* \"UsersMixin.sol\":4686:4742   */\n      dup1\n      dup3\n      add\n      0x00\n      swap1\n      sstore\n      0x01\n      dup3\n      add\n      0x00\n      tag_630\n      swap2\n      swap1\n      tag_238\n      jump\t// in\n    tag_630:\n      0x02\n      dup3\n      add\n      0x00\n      tag_631\n      swap2\n      swap1\n      tag_238\n      jump\t// in\n    tag_631:\n      0x03\n      dup3\n      add\n      0x00\n      tag_632\n      swap2\n      swap1\n      tag_238\n      jump\t// in\n    tag_632:\n      0x04\n      dup3\n      add\n      0x00\n      swap1\n      sstore\n      0x05\n      dup3\n      add\n      0x00\n      swap1\n      sstore\n      pop\n      pop\n        /* \"UsersMixin.sol\":4139:4749   */\n      pop\n      pop\n        /* \"UsersMixin.sol\":4023:4749   */\n      pop\n      pop\n      pop\n      pop\n      jump\t// out\n        /* \"UsersStorage.sol\":1060:1108   */\n    tag_191:\n      0x0b\n      dup2\n      dup1\n      mload\n      0x20\n      dup2\n      add\n      dup3\n      add\n      dup1\n      mload\n      dup5\n      dup3\n      mstore\n      0x20\n      dup4\n      add\n      0x20\n      dup6\n      add\n      keccak256\n      dup2\n      dup4\n      mstore\n      dup1\n      swap6\n      pop\n      pop\n      pop\n      pop\n      pop\n      pop\n      0x00\n      swap2\n      pop\n      swap1\n      pop\n      dup1\n      0x00\n      add\n      sload\n      swap1\n      dup1\n      0x01\n      add\n      0x00\n      swap1\n      sload\n      swap1\n      0x0100\n      exp\n      swap1\n      div\n      0xffffffffffffffffffffffffffffffffffffffff\n      and\n      swap1\n      dup1\n      0x02\n      add\n      dup1\n      sload\n      tag_633\n      swap1\n      tag_317\n      jump\t// in\n    tag_633:\n      dup1\n      0x1f\n      add\n      0x20\n      dup1\n      swap2\n      div\n      mul\n      0x20\n      add\n      mload(0x40)\n      swap1\n      dup2\n      add\n      0x40\n      mstore\n      dup1\n      swap3\n      swap2\n      swap1\n      dup2\n      dup2\n      mstore\n      0x20\n      add\n      dup3\n      dup1\n      sload\n      tag_634\n      swap1\n      tag_317\n      jump\t// in\n    tag_634:\n      dup1\n      iszero\n      tag_635\n      jumpi\n      dup1\n      0x1f\n      lt\n      tag_636\n      jumpi\n      0x0100\n      dup1\n      dup4\n      sload\n      div\n      mul\n      dup4\n      mstore\n      swap2\n      0x20\n      add\n      swap2\n      jump(tag_635)\n    tag_636:\n      dup3\n      add\n      swap2\n      swap1\n      0x00\n      mstore\n      keccak256(0x00, 0x20)\n      swap1\n    tag_637:\n      dup2\n      sload\n      dup2\n      mstore\n      swap1\n      0x01\n      add\n      swap1\n      0x20\n      add\n      dup1\n      dup4\n      gt\n      tag_637\n      jumpi\n      dup3\n      swap1\n      sub\n      0x1f\n      and\n      dup3\n      add\n      swap2\n    tag_635:\n      pop\n      pop\n      pop\n      pop\n      pop\n      swap1\n      dup1\n      0x03\n      add\n      dup1\n      sload\n      tag_638\n      swap1\n      tag_317\n      jump\t// in\n    tag_638:\n      dup1\n      0x1f\n      add\n      0x20\n      dup1\n      swap2\n      div\n      mul\n      0x20\n      add\n      mload(0x40)\n      swap1\n      dup2\n      add\n      0x40\n      mstore\n      dup1\n      swap3\n      swap2\n      swap1\n      dup2\n      dup2\n      mstore\n      0x20\n      add\n      dup3\n      dup1\n      sload\n      tag_639\n      swap1\n      tag_317\n      jump\t// in\n    tag_639:\n      dup1\n      iszero\n      tag_640\n      jumpi\n      dup1\n      0x1f\n      lt\n      tag_641\n      jumpi\n      0x0100\n      dup1\n      dup4\n      sload\n      div\n      mul\n      dup4\n      mstore\n      swap2\n      0x20\n      add\n      swap2\n      jump(tag_640)\n    tag_641:\n      dup3\n      add\n      swap2\n      swap1\n      0x00\n      mstore\n      keccak256(0x00, 0x20)\n      swap1\n    tag_642:\n      dup2\n      sload\n      dup2\n      mstore\n      swap1\n      0x01\n      add\n      swap1\n      0x20\n      add\n      dup1\n      dup4\n      gt\n      tag_642\n      jumpi\n      dup3\n      swap1\n      sub\n      0x1f\n      and\n      dup3\n      add\n      swap2\n    tag_640:\n      pop\n      pop\n      pop\n      pop\n      pop\n      swap1\n      dup1\n      0x04\n      add\n      dup1\n      sload\n      tag_643\n      swap1\n      tag_317\n      jump\t// in\n    tag_643:\n      dup1\n      0x1f\n      add\n      0x20\n      dup1\n      swap2\n      div\n      mul\n      0x20\n      add\n      mload(0x40)\n      swap1\n      dup2\n      add\n      0x40\n      mstore\n      dup1\n      swap3\n      swap2\n      swap1\n      dup2\n      dup2\n      mstore\n      0x20\n      add\n      dup3\n      dup1\n      sload\n      tag_644\n      swap1\n      tag_317\n      jump\t// in\n    tag_644:\n      dup1\n      iszero\n      tag_645\n      jumpi\n      dup1\n      0x1f\n      lt\n      tag_646\n      jumpi\n      0x0100\n      dup1\n      dup4\n      sload\n      div\n      mul\n      dup4\n      mstore\n      swap2\n      0x20\n      add\n      swap2\n      jump(tag_645)\n    tag_646:\n      dup3\n      add\n      swap2\n      swap1\n      0x00\n      mstore\n      keccak256(0x00, 0x20)\n      swap1\n    tag_647:\n      dup2\n      sload\n      dup2\n      mstore\n      swap1\n      0x01\n      add\n      swap1\n      0x20\n      add\n      dup1\n      dup4\n      gt\n      tag_647\n      jumpi\n      dup3\n      swap1\n      sub\n      0x1f\n      and\n      dup3\n      add\n      swap2\n    tag_645:\n      pop\n      pop\n      pop\n      pop\n      pop\n      swap1\n      dup1\n      0x05\n      add\n      sload\n      swap1\n      dup1\n      0x06\n      add\n      sload\n      swap1\n      dup1\n      0x07\n      add\n      dup1\n      sload\n      tag_648\n      swap1\n      tag_317\n      jump\t// in\n    tag_648:\n      dup1\n      0x1f\n      add\n      0x20\n      dup1\n      swap2\n      div\n      mul\n      0x20\n      add\n      mload(0x40)\n      swap1\n      dup2\n      add\n      0x40\n      mstore\n      dup1\n      swap3\n      swap2\n      swap1\n      dup2\n      dup2\n      mstore\n      0x20\n      add\n      dup3\n      dup1\n      sload\n      tag_649\n      swap1\n      tag_317\n      jump\t// in\n    tag_649:\n      dup1\n      iszero\n      tag_650\n      jumpi\n      dup1\n      0x1f\n      lt\n      tag_651\n      jumpi\n      0x0100\n      dup1\n      dup4\n      sload\n      div\n      mul\n      dup4\n      mstore\n      swap2\n      0x20\n      add\n      swap2\n      jump(tag_650)\n    tag_651:\n      dup3\n      add\n      swap2\n      swap1\n      0x00\n      mstore\n      keccak256(0x00, 0x20)\n      swap1\n    tag_652:\n      dup2\n      sload\n      dup2\n      mstore\n      swap1\n      0x01\n      add\n      swap1\n      0x20\n      add\n      dup1\n      dup4\n      gt\n      tag_652\n      jumpi\n      dup3\n      swap1\n      sub\n      0x1f\n      and\n      dup3\n      add\n      swap2\n    tag_650:\n      pop\n      pop\n      pop\n      pop\n      pop\n      swap1\n      pop\n      dup9\n      jump\t// out\n        /* \"UsersStorage.sol\":995:1054   */\n    tag_196:\n      mstore(0x20, 0x0a)\n      dup2\n      0x00\n      mstore\n      keccak256(0x00, 0x40)\n      dup2\n      dup2\n      sload\n      dup2\n      lt\n      tag_653\n      jumpi\n      0x00\n      dup1\n      revert\n    tag_653:\n      swap1\n      0x00\n      mstore\n      keccak256(0x00, 0x20)\n      swap1\n      0x06\n      mul\n      add\n      0x00\n      swap2\n      pop\n      swap2\n      pop\n      pop\n      dup1\n      0x00\n      add\n      sload\n      swap1\n      dup1\n      0x01\n      add\n      dup1\n      sload\n      tag_655\n      swap1\n      tag_317\n      jump\t// in\n    tag_655:\n      dup1\n      0x1f\n      add\n      0x20\n      dup1\n      swap2\n      div\n      mul\n      0x20\n      add\n      mload(0x40)\n      swap1\n      dup2\n      add\n      0x40\n      mstore\n      dup1\n      swap3\n      swap2\n      swap1\n      dup2\n      dup2\n      mstore\n      0x20\n      add\n      dup3\n      dup1\n      sload\n      tag_656\n      swap1\n      tag_317\n      jump\t// in\n    tag_656:\n      dup1\n      iszero\n      tag_657\n      jumpi\n      dup1\n      0x1f\n      lt\n      tag_658\n      jumpi\n      0x0100\n      dup1\n      dup4\n      sload\n      div\n      mul\n      dup4\n      mstore\n      swap2\n      0x20\n      add\n      swap2\n      jump(tag_657)\n    tag_658:\n      dup3\n      add\n      swap2\n      swap1\n      0x00\n      mstore\n      keccak256(0x00, 0x20)\n      swap1\n    tag_659:\n      dup2\n      sload\n      dup2\n      mstore\n      swap1\n      0x01\n      add\n      swap1\n      0x20\n      add\n      dup1\n      dup4\n      gt\n      tag_659\n      jumpi\n      dup3\n      swap1\n      sub\n      0x1f\n      and\n      dup3\n      add\n      swap2\n    tag_657:\n      pop\n      pop\n      pop\n      pop\n      pop\n      swap1\n      dup1\n      0x02\n      add\n      dup1\n      sload\n      tag_660\n      swap1\n      tag_317\n      jump\t// in\n    tag_660:\n      dup1\n      0x1f\n      add\n      0x20\n      dup1\n      swap2\n      div\n      mul\n      0x20\n      add\n      mload(0x40)\n      swap1\n      dup2\n      add\n      0x40\n      mstore\n      dup1\n      swap3\n      swap2\n      swap1\n      dup2\n      dup2\n      mstore\n      0x20\n      add\n      dup3\n      dup1\n      sload\n      tag_661\n      swap1\n      tag_317\n      jump\t// in\n    tag_661:\n      dup1\n      iszero\n      tag_662\n      jumpi\n      dup1\n      0x1f\n      lt\n      tag_663\n      jumpi\n      0x0100\n      dup1\n      dup4\n      sload\n      div\n      mul\n      dup4\n      mstore\n      swap2\n      0x20\n      add\n      swap2\n      jump(tag_662)\n    tag_663:\n      dup3\n      add\n      swap2\n      swap1\n      0x00\n      mstore\n      keccak256(0x00, 0x20)\n      swap1\n    tag_664:\n      dup2\n      sload\n      dup2\n      mstore\n      swap1\n      0x01\n      add\n      swap1\n      0x20\n      add\n      dup1\n      dup4\n      gt\n      tag_664\n      jumpi\n      dup3\n      swap1\n      sub\n      0x1f\n      and\n      dup3\n      add\n      swap2\n    tag_662:\n      pop\n      pop\n      pop\n      pop\n      pop\n      swap1\n      dup1\n      0x03\n      add\n      dup1\n      sload\n      tag_665\n      swap1\n      tag_317\n      jump\t// in\n    tag_665:\n      dup1\n      0x1f\n      add\n      0x20\n      dup1\n      swap2\n      div\n      mul\n      0x20\n      add\n      mload(0x40)\n      swap1\n      dup2\n      add\n      0x40\n      mstore\n      dup1\n      swap3\n      swap2\n      swap1\n      dup2\n      dup2\n      mstore\n      0x20\n      add\n      dup3\n      dup1\n      sload\n      tag_666\n      swap1\n      tag_317\n      jump\t// in\n    tag_666:\n      dup1\n      iszero\n      tag_667\n      jumpi\n      dup1\n      0x1f\n      lt\n      tag_668\n      jumpi\n      0x0100\n      dup1\n      dup4\n      sload\n      div\n      mul\n      dup4\n      mstore\n      swap2\n      0x20\n      add\n      swap2\n      jump(tag_667)\n    tag_668:\n      dup3\n      add\n      swap2\n      swap1\n      0x00\n      mstore\n      keccak256(0x00, 0x20)\n      swap1\n    tag_669:\n      dup2\n      sload\n      dup2\n      mstore\n      swap1\n      0x01\n      add\n      swap1\n      0x20\n      add\n      dup1\n      dup4\n      gt\n      tag_669\n      jumpi\n      dup3\n      swap1\n      sub\n      0x1f\n      and\n      dup3\n      add\n      swap2\n    tag_667:\n      pop\n      pop\n      pop\n      pop\n      pop\n      swap1\n      dup1\n      0x04\n      add\n      sload\n      swap1\n      dup1\n      0x05\n      add\n      sload\n      swap1\n      pop\n      dup7\n      jump\t// out\n    tag_202:\n      pop\n      dup1\n      sload\n      0x00\n      dup3\n      sstore\n      0x08\n      mul\n      swap1\n      0x00\n      mstore\n      keccak256(0x00, 0x20)\n      swap1\n      dup2\n      add\n      swap1\n      tag_671\n      swap2\n      swap1\n      tag_672\n      jump\t// in\n    tag_671:\n      pop\n      jump\t// out\n    tag_238:\n      pop\n      dup1\n      sload\n      tag_673\n      swap1\n      tag_317\n      jump\t// in\n    tag_673:\n      0x00\n      dup3\n      sstore\n      dup1\n      0x1f\n      lt\n      tag_675\n      jumpi\n      pop\n      jump(tag_674)\n    tag_675:\n      0x1f\n      add\n      0x20\n      swap1\n      div\n      swap1\n      0x00\n      mstore\n      keccak256(0x00, 0x20)\n      swap1\n      dup2\n      add\n      swap1\n      tag_676\n      swap2\n      swap1\n      tag_677\n      jump\t// in\n    tag_676:\n    tag_674:\n      pop\n      jump\t// out\n    tag_252:\n      pop\n      dup1\n      sload\n      0x00\n      dup3\n      sstore\n      0x06\n      mul\n      swap1\n      0x00\n      mstore\n      keccak256(0x00, 0x20)\n      swap1\n      dup2\n      add\n      swap1\n      tag_679\n      swap2\n      swap1\n      tag_680\n      jump\t// in\n    tag_679:\n      pop\n      jump\t// out\n    tag_672:\n    tag_681:\n      dup1\n      dup3\n      gt\n      iszero\n      tag_682\n      jumpi\n      0x00\n      dup1\n      dup3\n      add\n      0x00\n      swap1\n      sstore\n      0x01\n      dup3\n      add\n      exp(0x0100, 0x00)\n      dup2\n      sload\n      swap1\n      0xffffffffffffffffffffffffffffffffffffffff\n      mul\n      not\n      and\n      swap1\n      sstore\n      0x02\n      dup3\n      add\n      0x00\n      tag_683\n      swap2\n      swap1\n      tag_238\n      jump\t// in\n    tag_683:\n      0x03\n      dup3\n      add\n      0x00\n      tag_684\n      swap2\n      swap1\n      tag_238\n      jump\t// in\n    tag_684:\n      0x04\n      dup3\n      add\n      0x00\n      tag_685\n      swap2\n      swap1\n      tag_238\n      jump\t// in\n    tag_685:\n      0x05\n      dup3\n      add\n      0x00\n      swap1\n      sstore\n      0x06\n      dup3\n      add\n      0x00\n      swap1\n      sstore\n      0x07\n      dup3\n      add\n      0x00\n      tag_686\n      swap2\n      swap1\n      tag_238\n      jump\t// in\n    tag_686:\n      pop\n      0x08\n      add\n      jump(tag_681)\n    tag_682:\n      pop\n      swap1\n      jump\t// out\n    tag_677:\n    tag_687:\n      dup1\n      dup3\n      gt\n      iszero\n      tag_688\n      jumpi\n      0x00\n      dup2\n      0x00\n      swap1\n      sstore\n      pop\n      0x01\n      add\n      jump(tag_687)\n    tag_688:\n      pop\n      swap1\n      jump\t// out\n    tag_680:\n    tag_689:\n      dup1\n      dup3\n      gt\n      iszero\n      tag_690\n      jumpi\n      0x00\n      dup1\n      dup3\n      add\n      0x00\n      swap1\n      sstore\n      0x01\n      dup3\n      add\n      0x00\n      tag_691\n      swap2\n      swap1\n      tag_238\n      jump\t// in\n    tag_691:\n      0x02\n      dup3\n      add\n      0x00\n      tag_692\n      swap2\n      swap1\n      tag_238\n      jump\t// in\n    tag_692:\n      0x03\n      dup3\n      add\n      0x00\n      tag_693\n      swap2\n      swap1\n      tag_238\n      jump\t// in\n    tag_693:\n      0x04\n      dup3\n      add\n      0x00\n      swap1\n      sstore\n      0x05\n      dup3\n      add\n      0x00\n      swap1\n      sstore\n      pop\n      0x06\n      add\n      jump(tag_689)\n    tag_690:\n      pop\n      swap1\n      jump\t// out\n        /* \"#utility.yul\":7:82   */\n    tag_694:\n        /* \"#utility.yul\":40:46   */\n      0x00\n        /* \"#utility.yul\":73:75   */\n      0x40\n        /* \"#utility.yul\":67:76   */\n      mload\n        /* \"#utility.yul\":57:76   */\n      swap1\n      pop\n        /* \"#utility.yul\":7:82   */\n      swap1\n      jump\t// out\n        /* \"#utility.yul\":88:205   */\n    tag_695:\n        /* \"#utility.yul\":197:198   */\n      0x00\n        /* \"#utility.yul\":194:195   */\n      dup1\n        /* \"#utility.yul\":187:199   */\n      revert\n        /* \"#utility.yul\":211:328   */\n    tag_696:\n        /* \"#utility.yul\":320:321   */\n      0x00\n        /* \"#utility.yul\":317:318   */\n      dup1\n        /* \"#utility.yul\":310:322   */\n      revert\n        /* \"#utility.yul\":334:411   */\n    tag_697:\n        /* \"#utility.yul\":371:378   */\n      0x00\n        /* \"#utility.yul\":400:405   */\n      dup2\n        /* \"#utility.yul\":389:405   */\n      swap1\n      pop\n        /* \"#utility.yul\":334:411   */\n      swap2\n      swap1\n      pop\n      jump\t// out\n        /* \"#utility.yul\":417:539   */\n    tag_698:\n        /* \"#utility.yul\":490:514   */\n      tag_762\n        /* \"#utility.yul\":508:513   */\n      dup2\n        /* \"#utility.yul\":490:514   */\n      tag_697\n      jump\t// in\n    tag_762:\n        /* \"#utility.yul\":483:488   */\n      dup2\n        /* \"#utility.yul\":480:515   */\n      eq\n        /* \"#utility.yul\":470:533   */\n      tag_763\n      jumpi\n        /* \"#utility.yul\":529:530   */\n      0x00\n        /* \"#utility.yul\":526:527   */\n      dup1\n        /* \"#utility.yul\":519:531   */\n      revert\n        /* \"#utility.yul\":470:533   */\n    tag_763:\n        /* \"#utility.yul\":417:539   */\n      pop\n      jump\t// out\n        /* \"#utility.yul\":545:684   */\n    tag_699:\n        /* \"#utility.yul\":591:596   */\n      0x00\n        /* \"#utility.yul\":629:635   */\n      dup2\n        /* \"#utility.yul\":616:636   */\n      calldataload\n        /* \"#utility.yul\":607:636   */\n      swap1\n      pop\n        /* \"#utility.yul\":645:678   */\n      tag_765\n        /* \"#utility.yul\":672:677   */\n      dup2\n        /* \"#utility.yul\":645:678   */\n      tag_698\n      jump\t// in\n    tag_765:\n        /* \"#utility.yul\":545:684   */\n      swap3\n      swap2\n      pop\n      pop\n      jump\t// out\n        /* \"#utility.yul\":690:1019   */\n    tag_45:\n        /* \"#utility.yul\":749:755   */\n      0x00\n        /* \"#utility.yul\":798:800   */\n      0x20\n        /* \"#utility.yul\":786:795   */\n      dup3\n        /* \"#utility.yul\":777:784   */\n      dup5\n        /* \"#utility.yul\":773:796   */\n      sub\n        /* \"#utility.yul\":769:801   */\n      slt\n        /* \"#utility.yul\":766:885   */\n      iszero\n      tag_767\n      jumpi\n        /* \"#utility.yul\":804:883   */\n      tag_768\n      tag_695\n      jump\t// in\n    tag_768:\n        /* \"#utility.yul\":766:885   */\n    tag_767:\n        /* \"#utility.yul\":924:925   */\n      0x00\n        /* \"#utility.yul\":949:1002   */\n      tag_769\n        /* \"#utility.yul\":994:1001   */\n      dup5\n        /* \"#utility.yul\":985:991   */\n      dup3\n        /* \"#utility.yul\":974:983   */\n      dup6\n        /* \"#utility.yul\":970:992   */\n      add\n        /* \"#utility.yul\":949:1002   */\n      tag_699\n      jump\t// in\n    tag_769:\n        /* \"#utility.yul\":939:1002   */\n      swap2\n      pop\n        /* \"#utility.yul\":895:1012   */\n      pop\n        /* \"#utility.yul\":690:1019   */\n      swap3\n      swap2\n      pop\n      pop\n      jump\t// out\n        /* \"#utility.yul\":1025:1143   */\n    tag_700:\n        /* \"#utility.yul\":1112:1136   */\n      tag_771\n        /* \"#utility.yul\":1130:1135   */\n      dup2\n        /* \"#utility.yul\":1112:1136   */\n      tag_697\n      jump\t// in\n    tag_771:\n        /* \"#utility.yul\":1107:1110   */\n      dup3\n        /* \"#utility.yul\":1100:1137   */\n      mstore\n        /* \"#utility.yul\":1025:1143   */\n      pop\n      pop\n      jump\t// out\n        /* \"#utility.yul\":1149:1371   */\n    tag_48:\n        /* \"#utility.yul\":1242:1246   */\n      0x00\n        /* \"#utility.yul\":1280:1282   */\n      0x20\n        /* \"#utility.yul\":1269:1278   */\n      dup3\n        /* \"#utility.yul\":1265:1283   */\n      add\n        /* \"#utility.yul\":1257:1283   */\n      swap1\n      pop\n        /* \"#utility.yul\":1293:1364   */\n      tag_773\n        /* \"#utility.yul\":1361:1362   */\n      0x00\n        /* \"#utility.yul\":1350:1359   */\n      dup4\n        /* \"#utility.yul\":1346:1363   */\n      add\n        /* \"#utility.yul\":1337:1343   */\n      dup5\n        /* \"#utility.yul\":1293:1364   */\n      tag_700\n      jump\t// in\n    tag_773:\n        /* \"#utility.yul\":1149:1371   */\n      swap3\n      swap2\n      pop\n      pop\n      jump\t// out\n        /* \"#utility.yul\":1377:1494   */\n    tag_701:\n        /* \"#utility.yul\":1486:1487   */\n      0x00\n        /* \"#utility.yul\":1483:1484   */\n      dup1\n        /* \"#utility.yul\":1476:1488   */\n      revert\n        /* \"#utility.yul\":1500:1602   */\n    tag_702:\n        /* \"#utility.yul\":1541:1547   */\n      0x00\n        /* \"#utility.yul\":1592:1594   */\n      0x1f\n        /* \"#utility.yul\":1588:1595   */\n      not\n        /* \"#utility.yul\":1583:1585   */\n      0x1f\n        /* \"#utility.yul\":1576:1581   */\n      dup4\n        /* \"#utility.yul\":1572:1586   */\n      add\n        /* \"#utility.yul\":1568:1596   */\n      and\n        /* \"#utility.yul\":1558:1596   */\n      swap1\n      pop\n        /* \"#utility.yul\":1500:1602   */\n      swap2\n      swap1\n      pop\n      jump\t// out\n        /* \"#utility.yul\":1608:1788   */\n    tag_703:\n        /* \"#utility.yul\":1656:1733   */\n      0x4e487b7100000000000000000000000000000000000000000000000000000000\n        /* \"#utility.yul\":1653:1654   */\n      0x00\n        /* \"#utility.yul\":1646:1734   */\n      mstore\n        /* \"#utility.yul\":1753:1757   */\n      0x41\n        /* \"#utility.yul\":1750:1751   */\n      0x04\n        /* \"#utility.yul\":1743:1758   */\n      mstore\n        /* \"#utility.yul\":1777:1781   */\n      0x24\n        /* \"#utility.yul\":1774:1775   */\n      0x00\n        /* \"#utility.yul\":1767:1782   */\n      revert\n        /* \"#utility.yul\":1794:2075   */\n    tag_704:\n        /* \"#utility.yul\":1877:1904   */\n      tag_778\n        /* \"#utility.yul\":1899:1903   */\n      dup3\n        /* \"#utility.yul\":1877:1904   */\n      tag_702\n      jump\t// in\n    tag_778:\n        /* \"#utility.yul\":1869:1875   */\n      dup2\n        /* \"#utility.yul\":1865:1905   */\n      add\n        /* \"#utility.yul\":2007:2013   */\n      dup2\n        /* \"#utility.yul\":1995:2005   */\n      dup2\n        /* \"#utility.yul\":1992:2014   */\n      lt\n        /* \"#utility.yul\":1971:1989   */\n      0xffffffffffffffff\n        /* \"#utility.yul\":1959:1969   */\n      dup3\n        /* \"#utility.yul\":1956:1990   */\n      gt\n        /* \"#utility.yul\":1953:2015   */\n      or\n        /* \"#utility.yul\":1950:2038   */\n      iszero\n      tag_779\n      jumpi\n        /* \"#utility.yul\":2018:2036   */\n      tag_780\n      tag_703\n      jump\t// in\n    tag_780:\n        /* \"#utility.yul\":1950:2038   */\n    tag_779:\n        /* \"#utility.yul\":2058:2068   */\n      dup1\n        /* \"#utility.yul\":2054:2056   */\n      0x40\n        /* \"#utility.yul\":2047:2069   */\n      mstore\n        /* \"#utility.yul\":1837:2075   */\n      pop\n        /* \"#utility.yul\":1794:2075   */\n      pop\n      pop\n      jump\t// out\n        /* \"#utility.yul\":2081:2210   */\n    tag_705:\n        /* \"#utility.yul\":2115:2121   */\n      0x00\n        /* \"#utility.yul\":2142:2162   */\n      tag_782\n      tag_694\n      jump\t// in\n    tag_782:\n        /* \"#utility.yul\":2132:2162   */\n      swap1\n      pop\n        /* \"#utility.yul\":2171:2204   */\n      tag_783\n        /* \"#utility.yul\":2199:2203   */\n      dup3\n        /* \"#utility.yul\":2191:2197   */\n      dup3\n        /* \"#utility.yul\":2171:2204   */\n      tag_704\n      jump\t// in\n    tag_783:\n        /* \"#utility.yul\":2081:2210   */\n      swap2\n      swap1\n      pop\n      jump\t// out\n        /* \"#utility.yul\":2216:2527   */\n    tag_706:\n        /* \"#utility.yul\":2293:2297   */\n      0x00\n        /* \"#utility.yul\":2383:2401   */\n      0xffffffffffffffff\n        /* \"#utility.yul\":2375:2381   */\n      dup3\n        /* \"#utility.yul\":2372:2402   */\n      gt\n        /* \"#utility.yul\":2369:2425   */\n      iszero\n      tag_785\n      jumpi\n        /* \"#utility.yul\":2405:2423   */\n      tag_786\n      tag_703\n      jump\t// in\n    tag_786:\n        /* \"#utility.yul\":2369:2425   */\n    tag_785:\n        /* \"#utility.yul\":2455:2459   */\n      0x20\n        /* \"#utility.yul\":2447:2453   */\n      dup3\n        /* \"#utility.yul\":2443:2460   */\n      mul\n        /* \"#utility.yul\":2435:2460   */\n      swap1\n      pop\n        /* \"#utility.yul\":2515:2519   */\n      0x20\n        /* \"#utility.yul\":2509:2513   */\n      dup2\n        /* \"#utility.yul\":2505:2520   */\n      add\n        /* \"#utility.yul\":2497:2520   */\n      swap1\n      pop\n        /* \"#utility.yul\":2216:2527   */\n      swap2\n      swap1\n      pop\n      jump\t// out\n        /* \"#utility.yul\":2533:2650   */\n    tag_707:\n        /* \"#utility.yul\":2642:2643   */\n      0x00\n        /* \"#utility.yul\":2639:2640   */\n      dup1\n        /* \"#utility.yul\":2632:2644   */\n      revert\n        /* \"#utility.yul\":2656:2782   */\n    tag_708:\n        /* \"#utility.yul\":2693:2700   */\n      0x00\n        /* \"#utility.yul\":2733:2775   */\n      0xffffffffffffffffffffffffffffffffffffffff\n        /* \"#utility.yul\":2726:2731   */\n      dup3\n        /* \"#utility.yul\":2722:2776   */\n      and\n        /* \"#utility.yul\":2711:2776   */\n      swap1\n      pop\n        /* \"#utility.yul\":2656:2782   */\n      swap2\n      swap1\n      pop\n      jump\t// out\n        /* \"#utility.yul\":2788:2884   */\n    tag_709:\n        /* \"#utility.yul\":2825:2832   */\n      0x00\n        /* \"#utility.yul\":2854:2878   */\n      tag_790\n        /* \"#utility.yul\":2872:2877   */\n      dup3\n        /* \"#utility.yul\":2854:2878   */\n      tag_708\n      jump\t// in\n    tag_790:\n        /* \"#utility.yul\":2843:2878   */\n      swap1\n      pop\n        /* \"#utility.yul\":2788:2884   */\n      swap2\n      swap1\n      pop\n      jump\t// out\n        /* \"#utility.yul\":2890:3012   */\n    tag_710:\n        /* \"#utility.yul\":2963:2987   */\n      tag_792\n        /* \"#utility.yul\":2981:2986   */\n      dup2\n        /* \"#utility.yul\":2963:2987   */\n      tag_709\n      jump\t// in\n    tag_792:\n        /* \"#utility.yul\":2956:2961   */\n      dup2\n        /* \"#utility.yul\":2953:2988   */\n      eq\n        /* \"#utility.yul\":2943:3006   */\n      tag_793\n      jumpi\n        /* \"#utility.yul\":3002:3003   */\n      0x00\n        /* \"#utility.yul\":2999:3000   */\n      dup1\n        /* \"#utility.yul\":2992:3004   */\n      revert\n        /* \"#utility.yul\":2943:3006   */\n    tag_793:\n        /* \"#utility.yul\":2890:3012   */\n      pop\n      jump\t// out\n        /* \"#utility.yul\":3018:3157   */\n    tag_711:\n        /* \"#utility.yul\":3064:3069   */\n      0x00\n        /* \"#utility.yul\":3102:3108   */\n      dup2\n        /* \"#utility.yul\":3089:3109   */\n      calldataload\n        /* \"#utility.yul\":3080:3109   */\n      swap1\n      pop\n        /* \"#utility.yul\":3118:3151   */\n      tag_795\n        /* \"#utility.yul\":3145:3150   */\n      dup2\n        /* \"#utility.yul\":3118:3151   */\n      tag_710\n      jump\t// in\n    tag_795:\n        /* \"#utility.yul\":3018:3157   */\n      swap3\n      swap2\n      pop\n      pop\n      jump\t// out\n        /* \"#utility.yul\":3180:3890   */\n    tag_712:\n        /* \"#utility.yul\":3276:3281   */\n      0x00\n        /* \"#utility.yul\":3301:3382   */\n      tag_797\n        /* \"#utility.yul\":3317:3381   */\n      tag_798\n        /* \"#utility.yul\":3374:3380   */\n      dup5\n        /* \"#utility.yul\":3317:3381   */\n      tag_706\n      jump\t// in\n    tag_798:\n        /* \"#utility.yul\":3301:3382   */\n      tag_705\n      jump\t// in\n    tag_797:\n        /* \"#utility.yul\":3292:3382   */\n      swap1\n      pop\n        /* \"#utility.yul\":3402:3407   */\n      dup1\n        /* \"#utility.yul\":3431:3437   */\n      dup4\n        /* \"#utility.yul\":3424:3429   */\n      dup3\n        /* \"#utility.yul\":3417:3438   */\n      mstore\n        /* \"#utility.yul\":3465:3469   */\n      0x20\n        /* \"#utility.yul\":3458:3463   */\n      dup3\n        /* \"#utility.yul\":3454:3470   */\n      add\n        /* \"#utility.yul\":3447:3470   */\n      swap1\n      pop\n        /* \"#utility.yul\":3518:3522   */\n      0x20\n        /* \"#utility.yul\":3510:3516   */\n      dup5\n        /* \"#utility.yul\":3506:3523   */\n      mul\n        /* \"#utility.yul\":3498:3504   */\n      dup4\n        /* \"#utility.yul\":3494:3524   */\n      add\n        /* \"#utility.yul\":3547:3550   */\n      dup6\n        /* \"#utility.yul\":3539:3545   */\n      dup2\n        /* \"#utility.yul\":3536:3551   */\n      gt\n        /* \"#utility.yul\":3533:3655   */\n      iszero\n      tag_799\n      jumpi\n        /* \"#utility.yul\":3566:3645   */\n      tag_800\n      tag_707\n      jump\t// in\n    tag_800:\n        /* \"#utility.yul\":3533:3655   */\n    tag_799:\n        /* \"#utility.yul\":3681:3687   */\n      dup4\n        /* \"#utility.yul\":3664:3884   */\n    tag_801:\n        /* \"#utility.yul\":3698:3704   */\n      dup2\n        /* \"#utility.yul\":3693:3696   */\n      dup2\n        /* \"#utility.yul\":3690:3705   */\n      lt\n        /* \"#utility.yul\":3664:3884   */\n      iszero\n      tag_803\n      jumpi\n        /* \"#utility.yul\":3773:3776   */\n      dup1\n        /* \"#utility.yul\":3802:3839   */\n      tag_804\n        /* \"#utility.yul\":3835:3838   */\n      dup9\n        /* \"#utility.yul\":3823:3833   */\n      dup3\n        /* \"#utility.yul\":3802:3839   */\n      tag_711\n      jump\t// in\n    tag_804:\n        /* \"#utility.yul\":3797:3800   */\n      dup5\n        /* \"#utility.yul\":3790:3840   */\n      mstore\n        /* \"#utility.yul\":3869:3873   */\n      0x20\n        /* \"#utility.yul\":3864:3867   */\n      dup5\n        /* \"#utility.yul\":3860:3874   */\n      add\n        /* \"#utility.yul\":3853:3874   */\n      swap4\n      pop\n        /* \"#utility.yul\":3740:3884   */\n      pop\n        /* \"#utility.yul\":3724:3728   */\n      0x20\n        /* \"#utility.yul\":3719:3722   */\n      dup2\n        /* \"#utility.yul\":3715:3729   */\n      add\n        /* \"#utility.yul\":3708:3729   */\n      swap1\n      pop\n        /* \"#utility.yul\":3664:3884   */\n      jump(tag_801)\n    tag_803:\n        /* \"#utility.yul\":3668:3689   */\n      pop\n        /* \"#utility.yul\":3282:3890   */\n      pop\n      pop\n        /* \"#utility.yul\":3180:3890   */\n      swap4\n      swap3\n      pop\n      pop\n      pop\n      jump\t// out\n        /* \"#utility.yul\":3913:4283   */\n    tag_713:\n        /* \"#utility.yul\":3984:3989   */\n      0x00\n        /* \"#utility.yul\":4033:4036   */\n      dup3\n        /* \"#utility.yul\":4026:4030   */\n      0x1f\n        /* \"#utility.yul\":4018:4024   */\n      dup4\n        /* \"#utility.yul\":4014:4031   */\n      add\n        /* \"#utility.yul\":4010:4037   */\n      slt\n        /* \"#utility.yul\":4000:4122   */\n      tag_806\n      jumpi\n        /* \"#utility.yul\":4041:4120   */\n      tag_807\n      tag_701\n      jump\t// in\n    tag_807:\n        /* \"#utility.yul\":4000:4122   */\n    tag_806:\n        /* \"#utility.yul\":4158:4164   */\n      dup2\n        /* \"#utility.yul\":4145:4165   */\n      calldataload\n        /* \"#utility.yul\":4183:4277   */\n      tag_808\n        /* \"#utility.yul\":4273:4276   */\n      dup5\n        /* \"#utility.yul\":4265:4271   */\n      dup3\n        /* \"#utility.yul\":4258:4262   */\n      0x20\n        /* \"#utility.yul\":4250:4256   */\n      dup7\n        /* \"#utility.yul\":4246:4263   */\n      add\n        /* \"#utility.yul\":4183:4277   */\n      tag_712\n      jump\t// in\n    tag_808:\n        /* \"#utility.yul\":4174:4277   */\n      swap2\n      pop\n        /* \"#utility.yul\":3990:4283   */\n      pop\n        /* \"#utility.yul\":3913:4283   */\n      swap3\n      swap2\n      pop\n      pop\n      jump\t// out\n        /* \"#utility.yul\":4289:4828   */\n    tag_51:\n        /* \"#utility.yul\":4373:4379   */\n      0x00\n        /* \"#utility.yul\":4422:4424   */\n      0x20\n        /* \"#utility.yul\":4410:4419   */\n      dup3\n        /* \"#utility.yul\":4401:4408   */\n      dup5\n        /* \"#utility.yul\":4397:4420   */\n      sub\n        /* \"#utility.yul\":4393:4425   */\n      slt\n        /* \"#utility.yul\":4390:4509   */\n      iszero\n      tag_810\n      jumpi\n        /* \"#utility.yul\":4428:4507   */\n      tag_811\n      tag_695\n      jump\t// in\n    tag_811:\n        /* \"#utility.yul\":4390:4509   */\n    tag_810:\n        /* \"#utility.yul\":4576:4577   */\n      0x00\n        /* \"#utility.yul\":4565:4574   */\n      dup3\n        /* \"#utility.yul\":4561:4578   */\n      add\n        /* \"#utility.yul\":4548:4579   */\n      calldataload\n        /* \"#utility.yul\":4606:4624   */\n      0xffffffffffffffff\n        /* \"#utility.yul\":4598:4604   */\n      dup2\n        /* \"#utility.yul\":4595:4625   */\n      gt\n        /* \"#utility.yul\":4592:4709   */\n      iszero\n      tag_812\n      jumpi\n        /* \"#utility.yul\":4628:4707   */\n      tag_813\n      tag_696\n      jump\t// in\n    tag_813:\n        /* \"#utility.yul\":4592:4709   */\n    tag_812:\n        /* \"#utility.yul\":4733:4811   */\n      tag_814\n        /* \"#utility.yul\":4803:4810   */\n      dup5\n        /* \"#utility.yul\":4794:4800   */\n      dup3\n        /* \"#utility.yul\":4783:4792   */\n      dup6\n        /* \"#utility.yul\":4779:4801   */\n      add\n        /* \"#utility.yul\":4733:4811   */\n      tag_713\n      jump\t// in\n    tag_814:\n        /* \"#utility.yul\":4723:4811   */\n      swap2\n      pop\n        /* \"#utility.yul\":4519:4821   */\n      pop\n        /* \"#utility.yul\":4289:4828   */\n      swap3\n      swap2\n      pop\n      pop\n      jump\t// out\n        /* \"#utility.yul\":4834:5599   */\n    tag_55:\n        /* \"#utility.yul\":4920:4926   */\n      0x00\n        /* \"#utility.yul\":4928:4934   */\n      dup1\n        /* \"#utility.yul\":4936:4942   */\n      0x00\n        /* \"#utility.yul\":4944:4950   */\n      dup1\n        /* \"#utility.yul\":4993:4996   */\n      0x80\n        /* \"#utility.yul\":4981:4990   */\n      dup6\n        /* \"#utility.yul\":4972:4979   */\n      dup8\n        /* \"#utility.yul\":4968:4991   */\n      sub\n        /* \"#utility.yul\":4964:4997   */\n      slt\n        /* \"#utility.yul\":4961:5081   */\n      iszero\n      tag_816\n      jumpi\n        /* \"#utility.yul\":5000:5079   */\n      tag_817\n      tag_695\n      jump\t// in\n    tag_817:\n        /* \"#utility.yul\":4961:5081   */\n    tag_816:\n        /* \"#utility.yul\":5120:5121   */\n      0x00\n        /* \"#utility.yul\":5145:5198   */\n      tag_818\n        /* \"#utility.yul\":5190:5197   */\n      dup8\n        /* \"#utility.yul\":5181:5187   */\n      dup3\n        /* \"#utility.yul\":5170:5179   */\n      dup9\n        /* \"#utility.yul\":5166:5188   */\n      add\n        /* \"#utility.yul\":5145:5198   */\n      tag_699\n      jump\t// in\n    tag_818:\n        /* \"#utility.yul\":5135:5198   */\n      swap5\n      pop\n        /* \"#utility.yul\":5091:5208   */\n      pop\n        /* \"#utility.yul\":5247:5249   */\n      0x20\n        /* \"#utility.yul\":5273:5326   */\n      tag_819\n        /* \"#utility.yul\":5318:5325   */\n      dup8\n        /* \"#utility.yul\":5309:5315   */\n      dup3\n        /* \"#utility.yul\":5298:5307   */\n      dup9\n        /* \"#utility.yul\":5294:5316   */\n      add\n        /* \"#utility.yul\":5273:5326   */\n      tag_711\n      jump\t// in\n    tag_819:\n        /* \"#utility.yul\":5263:5326   */\n      swap4\n      pop\n        /* \"#utility.yul\":5218:5336   */\n      pop\n        /* \"#utility.yul\":5375:5377   */\n      0x40\n        /* \"#utility.yul\":5401:5454   */\n      tag_820\n        /* \"#utility.yul\":5446:5453   */\n      dup8\n        /* \"#utility.yul\":5437:5443   */\n      dup3\n        /* \"#utility.yul\":5426:5435   */\n      dup9\n        /* \"#utility.yul\":5422:5444   */\n      add\n        /* \"#utility.yul\":5401:5454   */\n      tag_699\n      jump\t// in\n    tag_820:\n        /* \"#utility.yul\":5391:5454   */\n      swap3\n      pop\n        /* \"#utility.yul\":5346:5464   */\n      pop\n        /* \"#utility.yul\":5503:5505   */\n      0x60\n        /* \"#utility.yul\":5529:5582   */\n      tag_821\n        /* \"#utility.yul\":5574:5581   */\n      dup8\n        /* \"#utility.yul\":5565:5571   */\n      dup3\n        /* \"#utility.yul\":5554:5563   */\n      dup9\n        /* \"#utility.yul\":5550:5572   */\n      add\n        /* \"#utility.yul\":5529:5582   */\n      tag_699\n      jump\t// in\n    tag_821:\n        /* \"#utility.yul\":5519:5582   */\n      swap2\n      pop\n        /* \"#utility.yul\":5474:5592   */\n      pop\n        /* \"#utility.yul\":4834:5599   */\n      swap3\n      swap6\n      swap2\n      swap5\n      pop\n      swap3\n      pop\n      jump\t// out\n        /* \"#utility.yul\":5605:5916   */\n    tag_714:\n        /* \"#utility.yul\":5682:5686   */\n      0x00\n        /* \"#utility.yul\":5772:5790   */\n      0xffffffffffffffff\n        /* \"#utility.yul\":5764:5770   */\n      dup3\n        /* \"#utility.yul\":5761:5791   */\n      gt\n        /* \"#utility.yul\":5758:5814   */\n      iszero\n      tag_823\n      jumpi\n        /* \"#utility.yul\":5794:5812   */\n      tag_824\n      tag_703\n      jump\t// in\n    tag_824:\n        /* \"#utility.yul\":5758:5814   */\n    tag_823:\n        /* \"#utility.yul\":5844:5848   */\n      0x20\n        /* \"#utility.yul\":5836:5842   */\n      dup3\n        /* \"#utility.yul\":5832:5849   */\n      mul\n        /* \"#utility.yul\":5824:5849   */\n      swap1\n      pop\n        /* \"#utility.yul\":5904:5908   */\n      0x20\n        /* \"#utility.yul\":5898:5902   */\n      dup2\n        /* \"#utility.yul\":5894:5909   */\n      add\n        /* \"#utility.yul\":5886:5909   */\n      swap1\n      pop\n        /* \"#utility.yul\":5605:5916   */\n      swap2\n      swap1\n      pop\n      jump\t// out\n        /* \"#utility.yul\":5939:6649   */\n    tag_715:\n        /* \"#utility.yul\":6035:6040   */\n      0x00\n        /* \"#utility.yul\":6060:6141   */\n      tag_826\n        /* \"#utility.yul\":6076:6140   */\n      tag_827\n        /* \"#utility.yul\":6133:6139   */\n      dup5\n        /* \"#utility.yul\":6076:6140   */\n      tag_714\n      jump\t// in\n    tag_827:\n        /* \"#utility.yul\":6060:6141   */\n      tag_705\n      jump\t// in\n    tag_826:\n        /* \"#utility.yul\":6051:6141   */\n      swap1\n      pop\n        /* \"#utility.yul\":6161:6166   */\n      dup1\n        /* \"#utility.yul\":6190:6196   */\n      dup4\n        /* \"#utility.yul\":6183:6188   */\n      dup3\n        /* \"#utility.yul\":6176:6197   */\n      mstore\n        /* \"#utility.yul\":6224:6228   */\n      0x20\n        /* \"#utility.yul\":6217:6222   */\n      dup3\n        /* \"#utility.yul\":6213:6229   */\n      add\n        /* \"#utility.yul\":6206:6229   */\n      swap1\n      pop\n        /* \"#utility.yul\":6277:6281   */\n      0x20\n        /* \"#utility.yul\":6269:6275   */\n      dup5\n        /* \"#utility.yul\":6265:6282   */\n      mul\n        /* \"#utility.yul\":6257:6263   */\n      dup4\n        /* \"#utility.yul\":6253:6283   */\n      add\n        /* \"#utility.yul\":6306:6309   */\n      dup6\n        /* \"#utility.yul\":6298:6304   */\n      dup2\n        /* \"#utility.yul\":6295:6310   */\n      gt\n        /* \"#utility.yul\":6292:6414   */\n      iszero\n      tag_828\n      jumpi\n        /* \"#utility.yul\":6325:6404   */\n      tag_829\n      tag_707\n      jump\t// in\n    tag_829:\n        /* \"#utility.yul\":6292:6414   */\n    tag_828:\n        /* \"#utility.yul\":6440:6446   */\n      dup4\n        /* \"#utility.yul\":6423:6643   */\n    tag_830:\n        /* \"#utility.yul\":6457:6463   */\n      dup2\n        /* \"#utility.yul\":6452:6455   */\n      dup2\n        /* \"#utility.yul\":6449:6464   */\n      lt\n        /* \"#utility.yul\":6423:6643   */\n      iszero\n      tag_832\n      jumpi\n        /* \"#utility.yul\":6532:6535   */\n      dup1\n        /* \"#utility.yul\":6561:6598   */\n      tag_833\n        /* \"#utility.yul\":6594:6597   */\n      dup9\n        /* \"#utility.yul\":6582:6592   */\n      dup3\n        /* \"#utility.yul\":6561:6598   */\n      tag_699\n      jump\t// in\n    tag_833:\n        /* \"#utility.yul\":6556:6559   */\n      dup5\n        /* \"#utility.yul\":6549:6599   */\n      mstore\n        /* \"#utility.yul\":6628:6632   */\n      0x20\n        /* \"#utility.yul\":6623:6626   */\n      dup5\n        /* \"#utility.yul\":6619:6633   */\n      add\n        /* \"#utility.yul\":6612:6633   */\n      swap4\n      pop\n        /* \"#utility.yul\":6499:6643   */\n      pop\n        /* \"#utility.yul\":6483:6487   */\n      0x20\n        /* \"#utility.yul\":6478:6481   */\n      dup2\n        /* \"#utility.yul\":6474:6488   */\n      add\n        /* \"#utility.yul\":6467:6488   */\n      swap1\n      pop\n        /* \"#utility.yul\":6423:6643   */\n      jump(tag_830)\n    tag_832:\n        /* \"#utility.yul\":6427:6448   */\n      pop\n        /* \"#utility.yul\":6041:6649   */\n      pop\n      pop\n        /* \"#utility.yul\":5939:6649   */\n      swap4\n      swap3\n      pop\n      pop\n      pop\n      jump\t// out\n        /* \"#utility.yul\":6672:7042   */\n    tag_716:\n        /* \"#utility.yul\":6743:6748   */\n      0x00\n        /* \"#utility.yul\":6792:6795   */\n      dup3\n        /* \"#utility.yul\":6785:6789   */\n      0x1f\n        /* \"#utility.yul\":6777:6783   */\n      dup4\n        /* \"#utility.yul\":6773:6790   */\n      add\n        /* \"#utility.yul\":6769:6796   */\n      slt\n        /* \"#utility.yul\":6759:6881   */\n      tag_835\n      jumpi\n        /* \"#utility.yul\":6800:6879   */\n      tag_836\n      tag_701\n      jump\t// in\n    tag_836:\n        /* \"#utility.yul\":6759:6881   */\n    tag_835:\n        /* \"#utility.yul\":6917:6923   */\n      dup2\n        /* \"#utility.yul\":6904:6924   */\n      calldataload\n        /* \"#utility.yul\":6942:7036   */\n      tag_837\n        /* \"#utility.yul\":7032:7035   */\n      dup5\n        /* \"#utility.yul\":7024:7030   */\n      dup3\n        /* \"#utility.yul\":7017:7021   */\n      0x20\n        /* \"#utility.yul\":7009:7015   */\n      dup7\n        /* \"#utility.yul\":7005:7022   */\n      add\n        /* \"#utility.yul\":6942:7036   */\n      tag_715\n      jump\t// in\n    tag_837:\n        /* \"#utility.yul\":6933:7036   */\n      swap2\n      pop\n        /* \"#utility.yul\":6749:7042   */\n      pop\n        /* \"#utility.yul\":6672:7042   */\n      swap3\n      swap2\n      pop\n      pop\n      jump\t// out\n        /* \"#utility.yul\":7048:7587   */\n    tag_59:\n        /* \"#utility.yul\":7132:7138   */\n      0x00\n        /* \"#utility.yul\":7181:7183   */\n      0x20\n        /* \"#utility.yul\":7169:7178   */\n      dup3\n        /* \"#utility.yul\":7160:7167   */\n      dup5\n        /* \"#utility.yul\":7156:7179   */\n      sub\n        /* \"#utility.yul\":7152:7184   */\n      slt\n        /* \"#utility.yul\":7149:7268   */\n      iszero\n      tag_839\n      jumpi\n        /* \"#utility.yul\":7187:7266   */\n      tag_840\n      tag_695\n      jump\t// in\n    tag_840:\n        /* \"#utility.yul\":7149:7268   */\n    tag_839:\n        /* \"#utility.yul\":7335:7336   */\n      0x00\n        /* \"#utility.yul\":7324:7333   */\n      dup3\n        /* \"#utility.yul\":7320:7337   */\n      add\n        /* \"#utility.yul\":7307:7338   */\n      calldataload\n        /* \"#utility.yul\":7365:7383   */\n      0xffffffffffffffff\n        /* \"#utility.yul\":7357:7363   */\n      dup2\n        /* \"#utility.yul\":7354:7384   */\n      gt\n        /* \"#utility.yul\":7351:7468   */\n      iszero\n      tag_841\n      jumpi\n        /* \"#utility.yul\":7387:7466   */\n      tag_842\n      tag_696\n      jump\t// in\n    tag_842:\n        /* \"#utility.yul\":7351:7468   */\n    tag_841:\n        /* \"#utility.yul\":7492:7570   */\n      tag_843\n        /* \"#utility.yul\":7562:7569   */\n      dup5\n        /* \"#utility.yul\":7553:7559   */\n      dup3\n        /* \"#utility.yul\":7542:7551   */\n      dup6\n        /* \"#utility.yul\":7538:7560   */\n      add\n        /* \"#utility.yul\":7492:7570   */\n      tag_716\n      jump\t// in\n    tag_843:\n        /* \"#utility.yul\":7482:7570   */\n      swap2\n      pop\n        /* \"#utility.yul\":7278:7580   */\n      pop\n        /* \"#utility.yul\":7048:7587   */\n      swap3\n      swap2\n      pop\n      pop\n      jump\t// out\n        /* \"#utility.yul\":7593:7710   */\n    tag_717:\n        /* \"#utility.yul\":7702:7703   */\n      0x00\n        /* \"#utility.yul\":7699:7700   */\n      dup1\n        /* \"#utility.yul\":7692:7704   */\n      revert\n        /* \"#utility.yul\":7716:8024   */\n    tag_718:\n        /* \"#utility.yul\":7778:7782   */\n      0x00\n        /* \"#utility.yul\":7868:7886   */\n      0xffffffffffffffff\n        /* \"#utility.yul\":7860:7866   */\n      dup3\n        /* \"#utility.yul\":7857:7887   */\n      gt\n        /* \"#utility.yul\":7854:7910   */\n      iszero\n      tag_846\n      jumpi\n        /* \"#utility.yul\":7890:7908   */\n      tag_847\n      tag_703\n      jump\t// in\n    tag_847:\n        /* \"#utility.yul\":7854:7910   */\n    tag_846:\n        /* \"#utility.yul\":7928:7957   */\n      tag_848\n        /* \"#utility.yul\":7950:7956   */\n      dup3\n        /* \"#utility.yul\":7928:7957   */\n      tag_702\n      jump\t// in\n    tag_848:\n        /* \"#utility.yul\":7920:7957   */\n      swap1\n      pop\n        /* \"#utility.yul\":8012:8016   */\n      0x20\n        /* \"#utility.yul\":8006:8010   */\n      dup2\n        /* \"#utility.yul\":8002:8017   */\n      add\n        /* \"#utility.yul\":7994:8017   */\n      swap1\n      pop\n        /* \"#utility.yul\":7716:8024   */\n      swap2\n      swap1\n      pop\n      jump\t// out\n        /* \"#utility.yul\":8030:8176   */\n    tag_719:\n        /* \"#utility.yul\":8127:8133   */\n      dup3\n        /* \"#utility.yul\":8122:8125   */\n      dup2\n        /* \"#utility.yul\":8117:8120   */\n      dup4\n        /* \"#utility.yul\":8104:8134   */\n      calldatacopy\n        /* \"#utility.yul\":8168:8169   */\n      0x00\n        /* \"#utility.yul\":8159:8165   */\n      dup4\n        /* \"#utility.yul\":8154:8157   */\n      dup4\n        /* \"#utility.yul\":8150:8166   */\n      add\n        /* \"#utility.yul\":8143:8170   */\n      mstore\n        /* \"#utility.yul\":8030:8176   */\n      pop\n      pop\n      pop\n      jump\t// out\n        /* \"#utility.yul\":8182:8607   */\n    tag_720:\n        /* \"#utility.yul\":8260:8265   */\n      0x00\n        /* \"#utility.yul\":8285:8351   */\n      tag_851\n        /* \"#utility.yul\":8301:8350   */\n      tag_852\n        /* \"#utility.yul\":8343:8349   */\n      dup5\n        /* \"#utility.yul\":8301:8350   */\n      tag_718\n      jump\t// in\n    tag_852:\n        /* \"#utility.yul\":8285:8351   */\n      tag_705\n      jump\t// in\n    tag_851:\n        /* \"#utility.yul\":8276:8351   */\n      swap1\n      pop\n        /* \"#utility.yul\":8374:8380   */\n      dup3\n        /* \"#utility.yul\":8367:8372   */\n      dup2\n        /* \"#utility.yul\":8360:8381   */\n      mstore\n        /* \"#utility.yul\":8412:8416   */\n      0x20\n        /* \"#utility.yul\":8405:8410   */\n      dup2\n        /* \"#utility.yul\":8401:8417   */\n      add\n        /* \"#utility.yul\":8450:8453   */\n      dup5\n        /* \"#utility.yul\":8441:8447   */\n      dup5\n        /* \"#utility.yul\":8436:8439   */\n      dup5\n        /* \"#utility.yul\":8432:8448   */\n      add\n        /* \"#utility.yul\":8429:8454   */\n      gt\n        /* \"#utility.yul\":8426:8538   */\n      iszero\n      tag_853\n      jumpi\n        /* \"#utility.yul\":8457:8536   */\n      tag_854\n      tag_717\n      jump\t// in\n    tag_854:\n        /* \"#utility.yul\":8426:8538   */\n    tag_853:\n        /* \"#utility.yul\":8547:8601   */\n      tag_855\n        /* \"#utility.yul\":8594:8600   */\n      dup5\n        /* \"#utility.yul\":8589:8592   */\n      dup3\n        /* \"#utility.yul\":8584:8587   */\n      dup6\n        /* \"#utility.yul\":8547:8601   */\n      tag_719\n      jump\t// in\n    tag_855:\n        /* \"#utility.yul\":8266:8607   */\n      pop\n        /* \"#utility.yul\":8182:8607   */\n      swap4\n      swap3\n      pop\n      pop\n      pop\n      jump\t// out\n        /* \"#utility.yul\":8627:8967   */\n    tag_721:\n        /* \"#utility.yul\":8683:8688   */\n      0x00\n        /* \"#utility.yul\":8732:8735   */\n      dup3\n        /* \"#utility.yul\":8725:8729   */\n      0x1f\n        /* \"#utility.yul\":8717:8723   */\n      dup4\n        /* \"#utility.yul\":8713:8730   */\n      add\n        /* \"#utility.yul\":8709:8736   */\n      slt\n        /* \"#utility.yul\":8699:8821   */\n      tag_857\n      jumpi\n        /* \"#utility.yul\":8740:8819   */\n      tag_858\n      tag_701\n      jump\t// in\n    tag_858:\n        /* \"#utility.yul\":8699:8821   */\n    tag_857:\n        /* \"#utility.yul\":8857:8863   */\n      dup2\n        /* \"#utility.yul\":8844:8864   */\n      calldataload\n        /* \"#utility.yul\":8882:8961   */\n      tag_859\n        /* \"#utility.yul\":8957:8960   */\n      dup5\n        /* \"#utility.yul\":8949:8955   */\n      dup3\n        /* \"#utility.yul\":8942:8946   */\n      0x20\n        /* \"#utility.yul\":8934:8940   */\n      dup7\n        /* \"#utility.yul\":8930:8947   */\n      add\n        /* \"#utility.yul\":8882:8961   */\n      tag_720\n      jump\t// in\n    tag_859:\n        /* \"#utility.yul\":8873:8961   */\n      swap2\n      pop\n        /* \"#utility.yul\":8689:8967   */\n      pop\n        /* \"#utility.yul\":8627:8967   */\n      swap3\n      swap2\n      pop\n      pop\n      jump\t// out\n        /* \"#utility.yul\":8973:9482   */\n    tag_63:\n        /* \"#utility.yul\":9042:9048   */\n      0x00\n        /* \"#utility.yul\":9091:9093   */\n      0x20\n        /* \"#utility.yul\":9079:9088   */\n      dup3\n        /* \"#utility.yul\":9070:9077   */\n      dup5\n        /* \"#utility.yul\":9066:9089   */\n      sub\n        /* \"#utility.yul\":9062:9094   */\n      slt\n        /* \"#utility.yul\":9059:9178   */\n      iszero\n      tag_861\n      jumpi\n        /* \"#utility.yul\":9097:9176   */\n      tag_862\n      tag_695\n      jump\t// in\n    tag_862:\n        /* \"#utility.yul\":9059:9178   */\n    tag_861:\n        /* \"#utility.yul\":9245:9246   */\n      0x00\n        /* \"#utility.yul\":9234:9243   */\n      dup3\n        /* \"#utility.yul\":9230:9247   */\n      add\n        /* \"#utility.yul\":9217:9248   */\n      calldataload\n        /* \"#utility.yul\":9275:9293   */\n      0xffffffffffffffff\n        /* \"#utility.yul\":9267:9273   */\n      dup2\n        /* \"#utility.yul\":9264:9294   */\n      gt\n        /* \"#utility.yul\":9261:9378   */\n      iszero\n      tag_863\n      jumpi\n        /* \"#utility.yul\":9297:9376   */\n      tag_864\n      tag_696\n      jump\t// in\n    tag_864:\n        /* \"#utility.yul\":9261:9378   */\n    tag_863:\n        /* \"#utility.yul\":9402:9465   */\n      tag_865\n        /* \"#utility.yul\":9457:9464   */\n      dup5\n        /* \"#utility.yul\":9448:9454   */\n      dup3\n        /* \"#utility.yul\":9437:9446   */\n      dup6\n        /* \"#utility.yul\":9433:9455   */\n      add\n        /* \"#utility.yul\":9402:9465   */\n      tag_721\n      jump\t// in\n    tag_865:\n        /* \"#utility.yul\":9392:9465   */\n      swap2\n      pop\n        /* \"#utility.yul\":9188:9475   */\n      pop\n        /* \"#utility.yul\":8973:9482   */\n      swap3\n      swap2\n      pop\n      pop\n      jump\t// out\n        /* \"#utility.yul\":9488:9817   */\n    tag_73:\n        /* \"#utility.yul\":9547:9553   */\n      0x00\n        /* \"#utility.yul\":9596:9598   */\n      0x20\n        /* \"#utility.yul\":9584:9593   */\n      dup3\n        /* \"#utility.yul\":9575:9582   */\n      dup5\n        /* \"#utility.yul\":9571:9594   */\n      sub\n        /* \"#utility.yul\":9567:9599   */\n      slt\n        /* \"#utility.yul\":9564:9683   */\n      iszero\n      tag_867\n      jumpi\n        /* \"#utility.yul\":9602:9681   */\n      tag_868\n      tag_695\n      jump\t// in\n    tag_868:\n        /* \"#utility.yul\":9564:9683   */\n    tag_867:\n        /* \"#utility.yul\":9722:9723   */\n      0x00\n        /* \"#utility.yul\":9747:9800   */\n      tag_869\n        /* \"#utility.yul\":9792:9799   */\n      dup5\n        /* \"#utility.yul\":9783:9789   */\n      dup3\n        /* \"#utility.yul\":9772:9781   */\n      dup6\n        /* \"#utility.yul\":9768:9790   */\n      add\n        /* \"#utility.yul\":9747:9800   */\n      tag_711\n      jump\t// in\n    tag_869:\n        /* \"#utility.yul\":9737:9800   */\n      swap2\n      pop\n        /* \"#utility.yul\":9693:9810   */\n      pop\n        /* \"#utility.yul\":9488:9817   */\n      swap3\n      swap2\n      pop\n      pop\n      jump\t// out\n        /* \"#utility.yul\":9823:9913   */\n    tag_722:\n        /* \"#utility.yul\":9857:9864   */\n      0x00\n        /* \"#utility.yul\":9900:9905   */\n      dup2\n        /* \"#utility.yul\":9893:9906   */\n      iszero\n        /* \"#utility.yul\":9886:9907   */\n      iszero\n        /* \"#utility.yul\":9875:9907   */\n      swap1\n      pop\n        /* \"#utility.yul\":9823:9913   */\n      swap2\n      swap1\n      pop\n      jump\t// out\n        /* \"#utility.yul\":9919:10028   */\n    tag_723:\n        /* \"#utility.yul\":10000:10021   */\n      tag_872\n        /* \"#utility.yul\":10015:10020   */\n      dup2\n        /* \"#utility.yul\":10000:10021   */\n      tag_722\n      jump\t// in\n    tag_872:\n        /* \"#utility.yul\":9995:9998   */\n      dup3\n        /* \"#utility.yul\":9988:10022   */\n      mstore\n        /* \"#utility.yul\":9919:10028   */\n      pop\n      pop\n      jump\t// out\n        /* \"#utility.yul\":10034:10244   */\n    tag_81:\n        /* \"#utility.yul\":10121:10125   */\n      0x00\n        /* \"#utility.yul\":10159:10161   */\n      0x20\n        /* \"#utility.yul\":10148:10157   */\n      dup3\n        /* \"#utility.yul\":10144:10162   */\n      add\n        /* \"#utility.yul\":10136:10162   */\n      swap1\n      pop\n        /* \"#utility.yul\":10172:10237   */\n      tag_874\n        /* \"#utility.yul\":10234:10235   */\n      0x00\n        /* \"#utility.yul\":10223:10232   */\n      dup4\n        /* \"#utility.yul\":10219:10236   */\n      add\n        /* \"#utility.yul\":10210:10216   */\n      dup5\n        /* \"#utility.yul\":10172:10237   */\n      tag_723\n      jump\t// in\n    tag_874:\n        /* \"#utility.yul\":10034:10244   */\n      swap3\n      swap2\n      pop\n      pop\n      jump\t// out\n        /* \"#utility.yul\":10250:11555   */\n    tag_84:\n        /* \"#utility.yul\":10366:10372   */\n      0x00\n        /* \"#utility.yul\":10374:10380   */\n      dup1\n        /* \"#utility.yul\":10382:10388   */\n      0x00\n        /* \"#utility.yul\":10390:10396   */\n      dup1\n        /* \"#utility.yul\":10439:10442   */\n      0x80\n        /* \"#utility.yul\":10427:10436   */\n      dup6\n        /* \"#utility.yul\":10418:10425   */\n      dup8\n        /* \"#utility.yul\":10414:10437   */\n      sub\n        /* \"#utility.yul\":10410:10443   */\n      slt\n        /* \"#utility.yul\":10407:10527   */\n      iszero\n      tag_876\n      jumpi\n        /* \"#utility.yul\":10446:10525   */\n      tag_877\n      tag_695\n      jump\t// in\n    tag_877:\n        /* \"#utility.yul\":10407:10527   */\n    tag_876:\n        /* \"#utility.yul\":10566:10567   */\n      0x00\n        /* \"#utility.yul\":10591:10644   */\n      tag_878\n        /* \"#utility.yul\":10636:10643   */\n      dup8\n        /* \"#utility.yul\":10627:10633   */\n      dup3\n        /* \"#utility.yul\":10616:10625   */\n      dup9\n        /* \"#utility.yul\":10612:10634   */\n      add\n        /* \"#utility.yul\":10591:10644   */\n      tag_711\n      jump\t// in\n    tag_878:\n        /* \"#utility.yul\":10581:10644   */\n      swap5\n      pop\n        /* \"#utility.yul\":10537:10654   */\n      pop\n        /* \"#utility.yul\":10721:10723   */\n      0x20\n        /* \"#utility.yul\":10710:10719   */\n      dup6\n        /* \"#utility.yul\":10706:10724   */\n      add\n        /* \"#utility.yul\":10693:10725   */\n      calldataload\n        /* \"#utility.yul\":10752:10770   */\n      0xffffffffffffffff\n        /* \"#utility.yul\":10744:10750   */\n      dup2\n        /* \"#utility.yul\":10741:10771   */\n      gt\n        /* \"#utility.yul\":10738:10855   */\n      iszero\n      tag_879\n      jumpi\n        /* \"#utility.yul\":10774:10853   */\n      tag_880\n      tag_696\n      jump\t// in\n    tag_880:\n        /* \"#utility.yul\":10738:10855   */\n    tag_879:\n        /* \"#utility.yul\":10879:10942   */\n      tag_881\n        /* \"#utility.yul\":10934:10941   */\n      dup8\n        /* \"#utility.yul\":10925:10931   */\n      dup3\n        /* \"#utility.yul\":10914:10923   */\n      dup9\n        /* \"#utility.yul\":10910:10932   */\n      add\n        /* \"#utility.yul\":10879:10942   */\n      tag_721\n      jump\t// in\n    tag_881:\n        /* \"#utility.yul\":10869:10942   */\n      swap4\n      pop\n        /* \"#utility.yul\":10664:10952   */\n      pop\n        /* \"#utility.yul\":11019:11021   */\n      0x40\n        /* \"#utility.yul\":11008:11017   */\n      dup6\n        /* \"#utility.yul\":11004:11022   */\n      add\n        /* \"#utility.yul\":10991:11023   */\n      calldataload\n        /* \"#utility.yul\":11050:11068   */\n      0xffffffffffffffff\n        /* \"#utility.yul\":11042:11048   */\n      dup2\n        /* \"#utility.yul\":11039:11069   */\n      gt\n        /* \"#utility.yul\":11036:11153   */\n      iszero\n      tag_882\n      jumpi\n        /* \"#utility.yul\":11072:11151   */\n      tag_883\n      tag_696\n      jump\t// in\n    tag_883:\n        /* \"#utility.yul\":11036:11153   */\n    tag_882:\n        /* \"#utility.yul\":11177:11240   */\n      tag_884\n        /* \"#utility.yul\":11232:11239   */\n      dup8\n        /* \"#utility.yul\":11223:11229   */\n      dup3\n        /* \"#utility.yul\":11212:11221   */\n      dup9\n        /* \"#utility.yul\":11208:11230   */\n      add\n        /* \"#utility.yul\":11177:11240   */\n      tag_721\n      jump\t// in\n    tag_884:\n        /* \"#utility.yul\":11167:11240   */\n      swap3\n      pop\n        /* \"#utility.yul\":10962:11250   */\n      pop\n        /* \"#utility.yul\":11317:11319   */\n      0x60\n        /* \"#utility.yul\":11306:11315   */\n      dup6\n        /* \"#utility.yul\":11302:11320   */\n      add\n        /* \"#utility.yul\":11289:11321   */\n      calldataload\n        /* \"#utility.yul\":11348:11366   */\n      0xffffffffffffffff\n        /* \"#utility.yul\":11340:11346   */\n      dup2\n        /* \"#utility.yul\":11337:11367   */\n      gt\n        /* \"#utility.yul\":11334:11451   */\n      iszero\n      tag_885\n      jumpi\n        /* \"#utility.yul\":11370:11449   */\n      tag_886\n      tag_696\n      jump\t// in\n    tag_886:\n        /* \"#utility.yul\":11334:11451   */\n    tag_885:\n        /* \"#utility.yul\":11475:11538   */\n      tag_887\n        /* \"#utility.yul\":11530:11537   */\n      dup8\n        /* \"#utility.yul\":11521:11527   */\n      dup3\n        /* \"#utility.yul\":11510:11519   */\n      dup9\n        /* \"#utility.yul\":11506:11528   */\n      add\n        /* \"#utility.yul\":11475:11538   */\n      tag_721\n      jump\t// in\n    tag_887:\n        /* \"#utility.yul\":11465:11538   */\n      swap2\n      pop\n        /* \"#utility.yul\":11260:11548   */\n      pop\n        /* \"#utility.yul\":10250:11555   */\n      swap3\n      swap6\n      swap2\n      swap5\n      pop\n      swap3\n      pop\n      jump\t// out\n        /* \"#utility.yul\":11561:12035   */\n    tag_89:\n        /* \"#utility.yul\":11629:11635   */\n      0x00\n        /* \"#utility.yul\":11637:11643   */\n      dup1\n        /* \"#utility.yul\":11686:11688   */\n      0x40\n        /* \"#utility.yul\":11674:11683   */\n      dup4\n        /* \"#utility.yul\":11665:11672   */\n      dup6\n        /* \"#utility.yul\":11661:11684   */\n      sub\n        /* \"#utility.yul\":11657:11689   */\n      slt\n        /* \"#utility.yul\":11654:11773   */\n      iszero\n      tag_889\n      jumpi\n        /* \"#utility.yul\":11692:11771   */\n      tag_890\n      tag_695\n      jump\t// in\n    tag_890:\n        /* \"#utility.yul\":11654:11773   */\n    tag_889:\n        /* \"#utility.yul\":11812:11813   */\n      0x00\n        /* \"#utility.yul\":11837:11890   */\n      tag_891\n        /* \"#utility.yul\":11882:11889   */\n      dup6\n        /* \"#utility.yul\":11873:11879   */\n      dup3\n        /* \"#utility.yul\":11862:11871   */\n      dup7\n        /* \"#utility.yul\":11858:11880   */\n      add\n        /* \"#utility.yul\":11837:11890   */\n      tag_699\n      jump\t// in\n    tag_891:\n        /* \"#utility.yul\":11827:11890   */\n      swap3\n      pop\n        /* \"#utility.yul\":11783:11900   */\n      pop\n        /* \"#utility.yul\":11939:11941   */\n      0x20\n        /* \"#utility.yul\":11965:12018   */\n      tag_892\n        /* \"#utility.yul\":12010:12017   */\n      dup6\n        /* \"#utility.yul\":12001:12007   */\n      dup3\n        /* \"#utility.yul\":11990:11999   */\n      dup7\n        /* \"#utility.yul\":11986:12008   */\n      add\n        /* \"#utility.yul\":11965:12018   */\n      tag_699\n      jump\t// in\n    tag_892:\n        /* \"#utility.yul\":11955:12018   */\n      swap2\n      pop\n        /* \"#utility.yul\":11910:12028   */\n      pop\n        /* \"#utility.yul\":11561:12035   */\n      swap3\n      pop\n      swap3\n      swap1\n      pop\n      jump\t// out\n        /* \"#utility.yul\":12041:12159   */\n    tag_724:\n        /* \"#utility.yul\":12128:12152   */\n      tag_894\n        /* \"#utility.yul\":12146:12151   */\n      dup2\n        /* \"#utility.yul\":12128:12152   */\n      tag_709\n      jump\t// in\n    tag_894:\n        /* \"#utility.yul\":12123:12126   */\n      dup3\n        /* \"#utility.yul\":12116:12153   */\n      mstore\n        /* \"#utility.yul\":12041:12159   */\n      pop\n      pop\n      jump\t// out\n        /* \"#utility.yul\":12165:12264   */\n    tag_725:\n        /* \"#utility.yul\":12217:12223   */\n      0x00\n        /* \"#utility.yul\":12251:12256   */\n      dup2\n        /* \"#utility.yul\":12245:12257   */\n      mload\n        /* \"#utility.yul\":12235:12257   */\n      swap1\n      pop\n        /* \"#utility.yul\":12165:12264   */\n      swap2\n      swap1\n      pop\n      jump\t// out\n        /* \"#utility.yul\":12270:12439   */\n    tag_726:\n        /* \"#utility.yul\":12354:12365   */\n      0x00\n        /* \"#utility.yul\":12388:12394   */\n      dup3\n        /* \"#utility.yul\":12383:12386   */\n      dup3\n        /* \"#utility.yul\":12376:12395   */\n      mstore\n        /* \"#utility.yul\":12428:12432   */\n      0x20\n        /* \"#utility.yul\":12423:12426   */\n      dup3\n        /* \"#utility.yul\":12419:12433   */\n      add\n        /* \"#utility.yul\":12404:12433   */\n      swap1\n      pop\n        /* \"#utility.yul\":12270:12439   */\n      swap3\n      swap2\n      pop\n      pop\n      jump\t// out\n        /* \"#utility.yul\":12445:12691   */\n    tag_727:\n        /* \"#utility.yul\":12526:12527   */\n      0x00\n        /* \"#utility.yul\":12536:12649   */\n    tag_898:\n        /* \"#utility.yul\":12550:12556   */\n      dup4\n        /* \"#utility.yul\":12547:12548   */\n      dup2\n        /* \"#utility.yul\":12544:12557   */\n      lt\n        /* \"#utility.yul\":12536:12649   */\n      iszero\n      tag_900\n      jumpi\n        /* \"#utility.yul\":12635:12636   */\n      dup1\n        /* \"#utility.yul\":12630:12633   */\n      dup3\n        /* \"#utility.yul\":12626:12637   */\n      add\n        /* \"#utility.yul\":12620:12638   */\n      mload\n        /* \"#utility.yul\":12616:12617   */\n      dup2\n        /* \"#utility.yul\":12611:12614   */\n      dup5\n        /* \"#utility.yul\":12607:12618   */\n      add\n        /* \"#utility.yul\":12600:12639   */\n      mstore\n        /* \"#utility.yul\":12572:12574   */\n      0x20\n        /* \"#utility.yul\":12569:12570   */\n      dup2\n        /* \"#utility.yul\":12565:12575   */\n      add\n        /* \"#utility.yul\":12560:12575   */\n      swap1\n      pop\n        /* \"#utility.yul\":12536:12649   */\n      jump(tag_898)\n    tag_900:\n        /* \"#utility.yul\":12683:12684   */\n      0x00\n        /* \"#utility.yul\":12674:12680   */\n      dup5\n        /* \"#utility.yul\":12669:12672   */\n      dup5\n        /* \"#utility.yul\":12665:12681   */\n      add\n        /* \"#utility.yul\":12658:12685   */\n      mstore\n        /* \"#utility.yul\":12507:12691   */\n      pop\n        /* \"#utility.yul\":12445:12691   */\n      pop\n      pop\n      pop\n      jump\t// out\n        /* \"#utility.yul\":12697:13074   */\n    tag_728:\n        /* \"#utility.yul\":12785:12788   */\n      0x00\n        /* \"#utility.yul\":12813:12852   */\n      tag_902\n        /* \"#utility.yul\":12846:12851   */\n      dup3\n        /* \"#utility.yul\":12813:12852   */\n      tag_725\n      jump\t// in\n    tag_902:\n        /* \"#utility.yul\":12868:12939   */\n      tag_903\n        /* \"#utility.yul\":12932:12938   */\n      dup2\n        /* \"#utility.yul\":12927:12930   */\n      dup6\n        /* \"#utility.yul\":12868:12939   */\n      tag_726\n      jump\t// in\n    tag_903:\n        /* \"#utility.yul\":12861:12939   */\n      swap4\n      pop\n        /* \"#utility.yul\":12948:13013   */\n      tag_904\n        /* \"#utility.yul\":13006:13012   */\n      dup2\n        /* \"#utility.yul\":13001:13004   */\n      dup6\n        /* \"#utility.yul\":12994:12998   */\n      0x20\n        /* \"#utility.yul\":12987:12992   */\n      dup7\n        /* \"#utility.yul\":12983:12999   */\n      add\n        /* \"#utility.yul\":12948:13013   */\n      tag_727\n      jump\t// in\n    tag_904:\n        /* \"#utility.yul\":13038:13067   */\n      tag_905\n        /* \"#utility.yul\":13060:13066   */\n      dup2\n        /* \"#utility.yul\":13038:13067   */\n      tag_702\n      jump\t// in\n    tag_905:\n        /* \"#utility.yul\":13033:13036   */\n      dup5\n        /* \"#utility.yul\":13029:13068   */\n      add\n        /* \"#utility.yul\":13022:13068   */\n      swap2\n      pop\n        /* \"#utility.yul\":12789:13074   */\n      pop\n        /* \"#utility.yul\":12697:13074   */\n      swap3\n      swap2\n      pop\n      pop\n      jump\t// out\n        /* \"#utility.yul\":13080:14441   */\n    tag_92:\n        /* \"#utility.yul\":13449:13453   */\n      0x00\n        /* \"#utility.yul\":13487:13490   */\n      0x0100\n        /* \"#utility.yul\":13476:13485   */\n      dup3\n        /* \"#utility.yul\":13472:13491   */\n      add\n        /* \"#utility.yul\":13464:13491   */\n      swap1\n      pop\n        /* \"#utility.yul\":13501:13572   */\n      tag_907\n        /* \"#utility.yul\":13569:13570   */\n      0x00\n        /* \"#utility.yul\":13558:13567   */\n      dup4\n        /* \"#utility.yul\":13554:13571   */\n      add\n        /* \"#utility.yul\":13545:13551   */\n      dup12\n        /* \"#utility.yul\":13501:13572   */\n      tag_700\n      jump\t// in\n    tag_907:\n        /* \"#utility.yul\":13582:13654   */\n      tag_908\n        /* \"#utility.yul\":13650:13652   */\n      0x20\n        /* \"#utility.yul\":13639:13648   */\n      dup4\n        /* \"#utility.yul\":13635:13653   */\n      add\n        /* \"#utility.yul\":13626:13632   */\n      dup11\n        /* \"#utility.yul\":13582:13654   */\n      tag_724\n      jump\t// in\n    tag_908:\n        /* \"#utility.yul\":13701:13710   */\n      dup2\n        /* \"#utility.yul\":13695:13699   */\n      dup2\n        /* \"#utility.yul\":13691:13711   */\n      sub\n        /* \"#utility.yul\":13686:13688   */\n      0x40\n        /* \"#utility.yul\":13675:13684   */\n      dup4\n        /* \"#utility.yul\":13671:13689   */\n      add\n        /* \"#utility.yul\":13664:13712   */\n      mstore\n        /* \"#utility.yul\":13729:13807   */\n      tag_909\n        /* \"#utility.yul\":13802:13806   */\n      dup2\n        /* \"#utility.yul\":13793:13799   */\n      dup10\n        /* \"#utility.yul\":13729:13807   */\n      tag_728\n      jump\t// in\n    tag_909:\n        /* \"#utility.yul\":13721:13807   */\n      swap1\n      pop\n        /* \"#utility.yul\":13854:13863   */\n      dup2\n        /* \"#utility.yul\":13848:13852   */\n      dup2\n        /* \"#utility.yul\":13844:13864   */\n      sub\n        /* \"#utility.yul\":13839:13841   */\n      0x60\n        /* \"#utility.yul\":13828:13837   */\n      dup4\n        /* \"#utility.yul\":13824:13842   */\n      add\n        /* \"#utility.yul\":13817:13865   */\n      mstore\n        /* \"#utility.yul\":13882:13960   */\n      tag_910\n        /* \"#utility.yul\":13955:13959   */\n      dup2\n        /* \"#utility.yul\":13946:13952   */\n      dup9\n        /* \"#utility.yul\":13882:13960   */\n      tag_728\n      jump\t// in\n    tag_910:\n        /* \"#utility.yul\":13874:13960   */\n      swap1\n      pop\n        /* \"#utility.yul\":14008:14017   */\n      dup2\n        /* \"#utility.yul\":14002:14006   */\n      dup2\n        /* \"#utility.yul\":13998:14018   */\n      sub\n        /* \"#utility.yul\":13992:13995   */\n      0x80\n        /* \"#utility.yul\":13981:13990   */\n      dup4\n        /* \"#utility.yul\":13977:13996   */\n      add\n        /* \"#utility.yul\":13970:14019   */\n      mstore\n        /* \"#utility.yul\":14036:14114   */\n      tag_911\n        /* \"#utility.yul\":14109:14113   */\n      dup2\n        /* \"#utility.yul\":14100:14106   */\n      dup8\n        /* \"#utility.yul\":14036:14114   */\n      tag_728\n      jump\t// in\n    tag_911:\n        /* \"#utility.yul\":14028:14114   */\n      swap1\n      pop\n        /* \"#utility.yul\":14124:14197   */\n      tag_912\n        /* \"#utility.yul\":14192:14195   */\n      0xa0\n        /* \"#utility.yul\":14181:14190   */\n      dup4\n        /* \"#utility.yul\":14177:14196   */\n      add\n        /* \"#utility.yul\":14168:14174   */\n      dup7\n        /* \"#utility.yul\":14124:14197   */\n      tag_700\n      jump\t// in\n    tag_912:\n        /* \"#utility.yul\":14207:14280   */\n      tag_913\n        /* \"#utility.yul\":14275:14278   */\n      0xc0\n        /* \"#utility.yul\":14264:14273   */\n      dup4\n        /* \"#utility.yul\":14260:14279   */\n      add\n        /* \"#utility.yul\":14251:14257   */\n      dup6\n        /* \"#utility.yul\":14207:14280   */\n      tag_700\n      jump\t// in\n    tag_913:\n        /* \"#utility.yul\":14328:14337   */\n      dup2\n        /* \"#utility.yul\":14322:14326   */\n      dup2\n        /* \"#utility.yul\":14318:14338   */\n      sub\n        /* \"#utility.yul\":14312:14315   */\n      0xe0\n        /* \"#utility.yul\":14301:14310   */\n      dup4\n        /* \"#utility.yul\":14297:14316   */\n      add\n        /* \"#utility.yul\":14290:14339   */\n      mstore\n        /* \"#utility.yul\":14356:14434   */\n      tag_914\n        /* \"#utility.yul\":14429:14433   */\n      dup2\n        /* \"#utility.yul\":14420:14426   */\n      dup5\n        /* \"#utility.yul\":14356:14434   */\n      tag_728\n      jump\t// in\n    tag_914:\n        /* \"#utility.yul\":14348:14434   */\n      swap1\n      pop\n        /* \"#utility.yul\":13080:14441   */\n      swap10\n      swap9\n      pop\n      pop\n      pop\n      pop\n      pop\n      pop\n      pop\n      pop\n      pop\n      jump\t// out\n        /* \"#utility.yul\":14447:14563   */\n    tag_729:\n        /* \"#utility.yul\":14517:14538   */\n      tag_916\n        /* \"#utility.yul\":14532:14537   */\n      dup2\n        /* \"#utility.yul\":14517:14538   */\n      tag_722\n      jump\t// in\n    tag_916:\n        /* \"#utility.yul\":14510:14515   */\n      dup2\n        /* \"#utility.yul\":14507:14539   */\n      eq\n        /* \"#utility.yul\":14497:14557   */\n      tag_917\n      jumpi\n        /* \"#utility.yul\":14553:14554   */\n      0x00\n        /* \"#utility.yul\":14550:14551   */\n      dup1\n        /* \"#utility.yul\":14543:14555   */\n      revert\n        /* \"#utility.yul\":14497:14557   */\n    tag_917:\n        /* \"#utility.yul\":14447:14563   */\n      pop\n      jump\t// out\n        /* \"#utility.yul\":14569:14702   */\n    tag_730:\n        /* \"#utility.yul\":14612:14617   */\n      0x00\n        /* \"#utility.yul\":14650:14656   */\n      dup2\n        /* \"#utility.yul\":14637:14657   */\n      calldataload\n        /* \"#utility.yul\":14628:14657   */\n      swap1\n      pop\n        /* \"#utility.yul\":14666:14696   */\n      tag_919\n        /* \"#utility.yul\":14690:14695   */\n      dup2\n        /* \"#utility.yul\":14666:14696   */\n      tag_729\n      jump\t// in\n    tag_919:\n        /* \"#utility.yul\":14569:14702   */\n      swap3\n      swap2\n      pop\n      pop\n      jump\t// out\n        /* \"#utility.yul\":14708:15467   */\n    tag_95:\n        /* \"#utility.yul\":14791:14797   */\n      0x00\n        /* \"#utility.yul\":14799:14805   */\n      dup1\n        /* \"#utility.yul\":14807:14813   */\n      0x00\n        /* \"#utility.yul\":14815:14821   */\n      dup1\n        /* \"#utility.yul\":14864:14867   */\n      0x80\n        /* \"#utility.yul\":14852:14861   */\n      dup6\n        /* \"#utility.yul\":14843:14850   */\n      dup8\n        /* \"#utility.yul\":14839:14862   */\n      sub\n        /* \"#utility.yul\":14835:14868   */\n      slt\n        /* \"#utility.yul\":14832:14952   */\n      iszero\n      tag_921\n      jumpi\n        /* \"#utility.yul\":14871:14950   */\n      tag_922\n      tag_695\n      jump\t// in\n    tag_922:\n        /* \"#utility.yul\":14832:14952   */\n    tag_921:\n        /* \"#utility.yul\":14991:14992   */\n      0x00\n        /* \"#utility.yul\":15016:15069   */\n      tag_923\n        /* \"#utility.yul\":15061:15068   */\n      dup8\n        /* \"#utility.yul\":15052:15058   */\n      dup3\n        /* \"#utility.yul\":15041:15050   */\n      dup9\n        /* \"#utility.yul\":15037:15059   */\n      add\n        /* \"#utility.yul\":15016:15069   */\n      tag_711\n      jump\t// in\n    tag_923:\n        /* \"#utility.yul\":15006:15069   */\n      swap5\n      pop\n        /* \"#utility.yul\":14962:15079   */\n      pop\n        /* \"#utility.yul\":15118:15120   */\n      0x20\n        /* \"#utility.yul\":15144:15197   */\n      tag_924\n        /* \"#utility.yul\":15189:15196   */\n      dup8\n        /* \"#utility.yul\":15180:15186   */\n      dup3\n        /* \"#utility.yul\":15169:15178   */\n      dup9\n        /* \"#utility.yul\":15165:15187   */\n      add\n        /* \"#utility.yul\":15144:15197   */\n      tag_699\n      jump\t// in\n    tag_924:\n        /* \"#utility.yul\":15134:15197   */\n      swap4\n      pop\n        /* \"#utility.yul\":15089:15207   */\n      pop\n        /* \"#utility.yul\":15246:15248   */\n      0x40\n        /* \"#utility.yul\":15272:15325   */\n      tag_925\n        /* \"#utility.yul\":15317:15324   */\n      dup8\n        /* \"#utility.yul\":15308:15314   */\n      dup3\n        /* \"#utility.yul\":15297:15306   */\n      dup9\n        /* \"#utility.yul\":15293:15315   */\n      add\n        /* \"#utility.yul\":15272:15325   */\n      tag_699\n      jump\t// in\n    tag_925:\n        /* \"#utility.yul\":15262:15325   */\n      swap3\n      pop\n        /* \"#utility.yul\":15217:15335   */\n      pop\n        /* \"#utility.yul\":15374:15376   */\n      0x60\n        /* \"#utility.yul\":15400:15450   */\n      tag_926\n        /* \"#utility.yul\":15442:15449   */\n      dup8\n        /* \"#utility.yul\":15433:15439   */\n      dup3\n        /* \"#utility.yul\":15422:15431   */\n      dup9\n        /* \"#utility.yul\":15418:15440   */\n      add\n        /* \"#utility.yul\":15400:15450   */\n      tag_730\n      jump\t// in\n    tag_926:\n        /* \"#utility.yul\":15390:15450   */\n      swap2\n      pop\n        /* \"#utility.yul\":15345:15460   */\n      pop\n        /* \"#utility.yul\":14708:15467   */\n      swap3\n      swap6\n      swap2\n      swap5\n      pop\n      swap3\n      pop\n      jump\t// out\n        /* \"#utility.yul\":15473:15695   */\n    tag_106:\n        /* \"#utility.yul\":15566:15570   */\n      0x00\n        /* \"#utility.yul\":15604:15606   */\n      0x20\n        /* \"#utility.yul\":15593:15602   */\n      dup3\n        /* \"#utility.yul\":15589:15607   */\n      add\n        /* \"#utility.yul\":15581:15607   */\n      swap1\n      pop\n        /* \"#utility.yul\":15617:15688   */\n      tag_928\n        /* \"#utility.yul\":15685:15686   */\n      0x00\n        /* \"#utility.yul\":15674:15683   */\n      dup4\n        /* \"#utility.yul\":15670:15687   */\n      add\n        /* \"#utility.yul\":15661:15667   */\n      dup5\n        /* \"#utility.yul\":15617:15688   */\n      tag_724\n      jump\t// in\n    tag_928:\n        /* \"#utility.yul\":15473:15695   */\n      swap3\n      swap2\n      pop\n      pop\n      jump\t// out\n        /* \"#utility.yul\":15701:16749   */\n    tag_112:\n        /* \"#utility.yul\":15994:15998   */\n      0x00\n        /* \"#utility.yul\":16032:16035   */\n      0xc0\n        /* \"#utility.yul\":16021:16030   */\n      dup3\n        /* \"#utility.yul\":16017:16036   */\n      add\n        /* \"#utility.yul\":16009:16036   */\n      swap1\n      pop\n        /* \"#utility.yul\":16046:16117   */\n      tag_930\n        /* \"#utility.yul\":16114:16115   */\n      0x00\n        /* \"#utility.yul\":16103:16112   */\n      dup4\n        /* \"#utility.yul\":16099:16116   */\n      add\n        /* \"#utility.yul\":16090:16096   */\n      dup10\n        /* \"#utility.yul\":16046:16117   */\n      tag_700\n      jump\t// in\n    tag_930:\n        /* \"#utility.yul\":16164:16173   */\n      dup2\n        /* \"#utility.yul\":16158:16162   */\n      dup2\n        /* \"#utility.yul\":16154:16174   */\n      sub\n        /* \"#utility.yul\":16149:16151   */\n      0x20\n        /* \"#utility.yul\":16138:16147   */\n      dup4\n        /* \"#utility.yul\":16134:16152   */\n      add\n        /* \"#utility.yul\":16127:16175   */\n      mstore\n        /* \"#utility.yul\":16192:16270   */\n      tag_931\n        /* \"#utility.yul\":16265:16269   */\n      dup2\n        /* \"#utility.yul\":16256:16262   */\n      dup9\n        /* \"#utility.yul\":16192:16270   */\n      tag_728\n      jump\t// in\n    tag_931:\n        /* \"#utility.yul\":16184:16270   */\n      swap1\n      pop\n        /* \"#utility.yul\":16317:16326   */\n      dup2\n        /* \"#utility.yul\":16311:16315   */\n      dup2\n        /* \"#utility.yul\":16307:16327   */\n      sub\n        /* \"#utility.yul\":16302:16304   */\n      0x40\n        /* \"#utility.yul\":16291:16300   */\n      dup4\n        /* \"#utility.yul\":16287:16305   */\n      add\n        /* \"#utility.yul\":16280:16328   */\n      mstore\n        /* \"#utility.yul\":16345:16423   */\n      tag_932\n        /* \"#utility.yul\":16418:16422   */\n      dup2\n        /* \"#utility.yul\":16409:16415   */\n      dup8\n        /* \"#utility.yul\":16345:16423   */\n      tag_728\n      jump\t// in\n    tag_932:\n        /* \"#utility.yul\":16337:16423   */\n      swap1\n      pop\n        /* \"#utility.yul\":16470:16479   */\n      dup2\n        /* \"#utility.yul\":16464:16468   */\n      dup2\n        /* \"#utility.yul\":16460:16480   */\n      sub\n        /* \"#utility.yul\":16455:16457   */\n      0x60\n        /* \"#utility.yul\":16444:16453   */\n      dup4\n        /* \"#utility.yul\":16440:16458   */\n      add\n        /* \"#utility.yul\":16433:16481   */\n      mstore\n        /* \"#utility.yul\":16498:16576   */\n      tag_933\n        /* \"#utility.yul\":16571:16575   */\n      dup2\n        /* \"#utility.yul\":16562:16568   */\n      dup7\n        /* \"#utility.yul\":16498:16576   */\n      tag_728\n      jump\t// in\n    tag_933:\n        /* \"#utility.yul\":16490:16576   */\n      swap1\n      pop\n        /* \"#utility.yul\":16586:16659   */\n      tag_934\n        /* \"#utility.yul\":16654:16657   */\n      0x80\n        /* \"#utility.yul\":16643:16652   */\n      dup4\n        /* \"#utility.yul\":16639:16658   */\n      add\n        /* \"#utility.yul\":16630:16636   */\n      dup6\n        /* \"#utility.yul\":16586:16659   */\n      tag_700\n      jump\t// in\n    tag_934:\n        /* \"#utility.yul\":16669:16742   */\n      tag_935\n        /* \"#utility.yul\":16737:16740   */\n      0xa0\n        /* \"#utility.yul\":16726:16735   */\n      dup4\n        /* \"#utility.yul\":16722:16741   */\n      add\n        /* \"#utility.yul\":16713:16719   */\n      dup5\n        /* \"#utility.yul\":16669:16742   */\n      tag_700\n      jump\t// in\n    tag_935:\n        /* \"#utility.yul\":15701:16749   */\n      swap8\n      swap7\n      pop\n      pop\n      pop\n      pop\n      pop\n      pop\n      pop\n      jump\t// out\n        /* \"#utility.yul\":16755:17229   */\n    tag_115:\n        /* \"#utility.yul\":16823:16829   */\n      0x00\n        /* \"#utility.yul\":16831:16837   */\n      dup1\n        /* \"#utility.yul\":16880:16882   */\n      0x40\n        /* \"#utility.yul\":16868:16877   */\n      dup4\n        /* \"#utility.yul\":16859:16866   */\n      dup6\n        /* \"#utility.yul\":16855:16878   */\n      sub\n        /* \"#utility.yul\":16851:16883   */\n      slt\n        /* \"#utility.yul\":16848:16967   */\n      iszero\n      tag_937\n      jumpi\n        /* \"#utility.yul\":16886:16965   */\n      tag_938\n      tag_695\n      jump\t// in\n    tag_938:\n        /* \"#utility.yul\":16848:16967   */\n    tag_937:\n        /* \"#utility.yul\":17006:17007   */\n      0x00\n        /* \"#utility.yul\":17031:17084   */\n      tag_939\n        /* \"#utility.yul\":17076:17083   */\n      dup6\n        /* \"#utility.yul\":17067:17073   */\n      dup3\n        /* \"#utility.yul\":17056:17065   */\n      dup7\n        /* \"#utility.yul\":17052:17074   */\n      add\n        /* \"#utility.yul\":17031:17084   */\n      tag_711\n      jump\t// in\n    tag_939:\n        /* \"#utility.yul\":17021:17084   */\n      swap3\n      pop\n        /* \"#utility.yul\":16977:17094   */\n      pop\n        /* \"#utility.yul\":17133:17135   */\n      0x20\n        /* \"#utility.yul\":17159:17212   */\n      tag_940\n        /* \"#utility.yul\":17204:17211   */\n      dup6\n        /* \"#utility.yul\":17195:17201   */\n      dup3\n        /* \"#utility.yul\":17184:17193   */\n      dup7\n        /* \"#utility.yul\":17180:17202   */\n      add\n        /* \"#utility.yul\":17159:17212   */\n      tag_699\n      jump\t// in\n    tag_940:\n        /* \"#utility.yul\":17149:17212   */\n      swap2\n      pop\n        /* \"#utility.yul\":17104:17222   */\n      pop\n        /* \"#utility.yul\":16755:17229   */\n      swap3\n      pop\n      swap3\n      swap1\n      pop\n      jump\t// out\n        /* \"#utility.yul\":17235:17339   */\n    tag_731:\n        /* \"#utility.yul\":17280:17287   */\n      0x00\n        /* \"#utility.yul\":17309:17333   */\n      tag_942\n        /* \"#utility.yul\":17327:17332   */\n      dup3\n        /* \"#utility.yul\":17309:17333   */\n      tag_708\n      jump\t// in\n    tag_942:\n        /* \"#utility.yul\":17298:17333   */\n      swap1\n      pop\n        /* \"#utility.yul\":17235:17339   */\n      swap2\n      swap1\n      pop\n      jump\t// out\n        /* \"#utility.yul\":17345:17483   */\n    tag_732:\n        /* \"#utility.yul\":17426:17458   */\n      tag_944\n        /* \"#utility.yul\":17452:17457   */\n      dup2\n        /* \"#utility.yul\":17426:17458   */\n      tag_731\n      jump\t// in\n    tag_944:\n        /* \"#utility.yul\":17419:17424   */\n      dup2\n        /* \"#utility.yul\":17416:17459   */\n      eq\n        /* \"#utility.yul\":17406:17477   */\n      tag_945\n      jumpi\n        /* \"#utility.yul\":17473:17474   */\n      0x00\n        /* \"#utility.yul\":17470:17471   */\n      dup1\n        /* \"#utility.yul\":17463:17475   */\n      revert\n        /* \"#utility.yul\":17406:17477   */\n    tag_945:\n        /* \"#utility.yul\":17345:17483   */\n      pop\n      jump\t// out\n        /* \"#utility.yul\":17489:17644   */\n    tag_733:\n        /* \"#utility.yul\":17543:17548   */\n      0x00\n        /* \"#utility.yul\":17581:17587   */\n      dup2\n        /* \"#utility.yul\":17568:17588   */\n      calldataload\n        /* \"#utility.yul\":17559:17588   */\n      swap1\n      pop\n        /* \"#utility.yul\":17597:17638   */\n      tag_947\n        /* \"#utility.yul\":17632:17637   */\n      dup2\n        /* \"#utility.yul\":17597:17638   */\n      tag_732\n      jump\t// in\n    tag_947:\n        /* \"#utility.yul\":17489:17644   */\n      swap3\n      swap2\n      pop\n      pop\n      jump\t// out\n        /* \"#utility.yul\":17650:17995   */\n    tag_128:\n        /* \"#utility.yul\":17717:17723   */\n      0x00\n        /* \"#utility.yul\":17766:17768   */\n      0x20\n        /* \"#utility.yul\":17754:17763   */\n      dup3\n        /* \"#utility.yul\":17745:17752   */\n      dup5\n        /* \"#utility.yul\":17741:17764   */\n      sub\n        /* \"#utility.yul\":17737:17769   */\n      slt\n        /* \"#utility.yul\":17734:17853   */\n      iszero\n      tag_949\n      jumpi\n        /* \"#utility.yul\":17772:17851   */\n      tag_950\n      tag_695\n      jump\t// in\n    tag_950:\n        /* \"#utility.yul\":17734:17853   */\n    tag_949:\n        /* \"#utility.yul\":17892:17893   */\n      0x00\n        /* \"#utility.yul\":17917:17978   */\n      tag_951\n        /* \"#utility.yul\":17970:17977   */\n      dup5\n        /* \"#utility.yul\":17961:17967   */\n      dup3\n        /* \"#utility.yul\":17950:17959   */\n      dup6\n        /* \"#utility.yul\":17946:17968   */\n      add\n        /* \"#utility.yul\":17917:17978   */\n      tag_733\n      jump\t// in\n    tag_951:\n        /* \"#utility.yul\":17907:17978   */\n      swap2\n      pop\n        /* \"#utility.yul\":17863:17988   */\n      pop\n        /* \"#utility.yul\":17650:17995   */\n      swap3\n      swap2\n      pop\n      pop\n      jump\t// out\n        /* \"#utility.yul\":18001:19160   */\n    tag_173:\n        /* \"#utility.yul\":18108:18114   */\n      0x00\n        /* \"#utility.yul\":18116:18122   */\n      dup1\n        /* \"#utility.yul\":18124:18130   */\n      0x00\n        /* \"#utility.yul\":18173:18175   */\n      0x60\n        /* \"#utility.yul\":18161:18170   */\n      dup5\n        /* \"#utility.yul\":18152:18159   */\n      dup7\n        /* \"#utility.yul\":18148:18171   */\n      sub\n        /* \"#utility.yul\":18144:18176   */\n      slt\n        /* \"#utility.yul\":18141:18260   */\n      iszero\n      tag_953\n      jumpi\n        /* \"#utility.yul\":18179:18258   */\n      tag_954\n      tag_695\n      jump\t// in\n    tag_954:\n        /* \"#utility.yul\":18141:18260   */\n    tag_953:\n        /* \"#utility.yul\":18327:18328   */\n      0x00\n        /* \"#utility.yul\":18316:18325   */\n      dup5\n        /* \"#utility.yul\":18312:18329   */\n      add\n        /* \"#utility.yul\":18299:18330   */\n      calldataload\n        /* \"#utility.yul\":18357:18375   */\n      0xffffffffffffffff\n        /* \"#utility.yul\":18349:18355   */\n      dup2\n        /* \"#utility.yul\":18346:18376   */\n      gt\n        /* \"#utility.yul\":18343:18460   */\n      iszero\n      tag_955\n      jumpi\n        /* \"#utility.yul\":18379:18458   */\n      tag_956\n      tag_696\n      jump\t// in\n    tag_956:\n        /* \"#utility.yul\":18343:18460   */\n    tag_955:\n        /* \"#utility.yul\":18484:18547   */\n      tag_957\n        /* \"#utility.yul\":18539:18546   */\n      dup7\n        /* \"#utility.yul\":18530:18536   */\n      dup3\n        /* \"#utility.yul\":18519:18528   */\n      dup8\n        /* \"#utility.yul\":18515:18537   */\n      add\n        /* \"#utility.yul\":18484:18547   */\n      tag_721\n      jump\t// in\n    tag_957:\n        /* \"#utility.yul\":18474:18547   */\n      swap4\n      pop\n        /* \"#utility.yul\":18270:18557   */\n      pop\n        /* \"#utility.yul\":18624:18626   */\n      0x20\n        /* \"#utility.yul\":18613:18622   */\n      dup5\n        /* \"#utility.yul\":18609:18627   */\n      add\n        /* \"#utility.yul\":18596:18628   */\n      calldataload\n        /* \"#utility.yul\":18655:18673   */\n      0xffffffffffffffff\n        /* \"#utility.yul\":18647:18653   */\n      dup2\n        /* \"#utility.yul\":18644:18674   */\n      gt\n        /* \"#utility.yul\":18641:18758   */\n      iszero\n      tag_958\n      jumpi\n        /* \"#utility.yul\":18677:18756   */\n      tag_959\n      tag_696\n      jump\t// in\n    tag_959:\n        /* \"#utility.yul\":18641:18758   */\n    tag_958:\n        /* \"#utility.yul\":18782:18845   */\n      tag_960\n        /* \"#utility.yul\":18837:18844   */\n      dup7\n        /* \"#utility.yul\":18828:18834   */\n      dup3\n        /* \"#utility.yul\":18817:18826   */\n      dup8\n        /* \"#utility.yul\":18813:18835   */\n      add\n        /* \"#utility.yul\":18782:18845   */\n      tag_721\n      jump\t// in\n    tag_960:\n        /* \"#utility.yul\":18772:18845   */\n      swap3\n      pop\n        /* \"#utility.yul\":18567:18855   */\n      pop\n        /* \"#utility.yul\":18922:18924   */\n      0x40\n        /* \"#utility.yul\":18911:18920   */\n      dup5\n        /* \"#utility.yul\":18907:18925   */\n      add\n        /* \"#utility.yul\":18894:18926   */\n      calldataload\n        /* \"#utility.yul\":18953:18971   */\n      0xffffffffffffffff\n        /* \"#utility.yul\":18945:18951   */\n      dup2\n        /* \"#utility.yul\":18942:18972   */\n      gt\n        /* \"#utility.yul\":18939:19056   */\n      iszero\n      tag_961\n      jumpi\n        /* \"#utility.yul\":18975:19054   */\n      tag_962\n      tag_696\n      jump\t// in\n    tag_962:\n        /* \"#utility.yul\":18939:19056   */\n    tag_961:\n        /* \"#utility.yul\":19080:19143   */\n      tag_963\n        /* \"#utility.yul\":19135:19142   */\n      dup7\n        /* \"#utility.yul\":19126:19132   */\n      dup3\n        /* \"#utility.yul\":19115:19124   */\n      dup8\n        /* \"#utility.yul\":19111:19133   */\n      add\n        /* \"#utility.yul\":19080:19143   */\n      tag_721\n      jump\t// in\n    tag_963:\n        /* \"#utility.yul\":19070:19143   */\n      swap2\n      pop\n        /* \"#utility.yul\":18865:19153   */\n      pop\n        /* \"#utility.yul\":18001:19160   */\n      swap3\n      pop\n      swap3\n      pop\n      swap3\n      jump\t// out\n        /* \"#utility.yul\":19166:19346   */\n    tag_208:\n        /* \"#utility.yul\":19214:19291   */\n      0x4e487b7100000000000000000000000000000000000000000000000000000000\n        /* \"#utility.yul\":19211:19212   */\n      0x00\n        /* \"#utility.yul\":19204:19292   */\n      mstore\n        /* \"#utility.yul\":19311:19315   */\n      0x32\n        /* \"#utility.yul\":19308:19309   */\n      0x04\n        /* \"#utility.yul\":19301:19316   */\n      mstore\n        /* \"#utility.yul\":19335:19339   */\n      0x24\n        /* \"#utility.yul\":19332:19333   */\n      0x00\n        /* \"#utility.yul\":19325:19340   */\n      revert\n        /* \"#utility.yul\":19352:19532   */\n    tag_734:\n        /* \"#utility.yul\":19400:19477   */\n      0x4e487b7100000000000000000000000000000000000000000000000000000000\n        /* \"#utility.yul\":19397:19398   */\n      0x00\n        /* \"#utility.yul\":19390:19478   */\n      mstore\n        /* \"#utility.yul\":19497:19501   */\n      0x22\n        /* \"#utility.yul\":19494:19495   */\n      0x04\n        /* \"#utility.yul\":19487:19502   */\n      mstore\n        /* \"#utility.yul\":19521:19525   */\n      0x24\n        /* \"#utility.yul\":19518:19519   */\n      0x00\n        /* \"#utility.yul\":19511:19526   */\n      revert\n        /* \"#utility.yul\":19538:19858   */\n    tag_317:\n        /* \"#utility.yul\":19582:19588   */\n      0x00\n        /* \"#utility.yul\":19619:19620   */\n      0x02\n        /* \"#utility.yul\":19613:19617   */\n      dup3\n        /* \"#utility.yul\":19609:19621   */\n      div\n        /* \"#utility.yul\":19599:19621   */\n      swap1\n      pop\n        /* \"#utility.yul\":19666:19667   */\n      0x01\n        /* \"#utility.yul\":19660:19664   */\n      dup3\n        /* \"#utility.yul\":19656:19668   */\n      and\n        /* \"#utility.yul\":19687:19705   */\n      dup1\n        /* \"#utility.yul\":19677:19758   */\n      tag_967\n      jumpi\n        /* \"#utility.yul\":19743:19747   */\n      0x7f\n        /* \"#utility.yul\":19735:19741   */\n      dup3\n        /* \"#utility.yul\":19731:19748   */\n      and\n        /* \"#utility.yul\":19721:19748   */\n      swap2\n      pop\n        /* \"#utility.yul\":19677:19758   */\n    tag_967:\n        /* \"#utility.yul\":19805:19807   */\n      0x20\n        /* \"#utility.yul\":19797:19803   */\n      dup3\n        /* \"#utility.yul\":19794:19808   */\n      lt\n        /* \"#utility.yul\":19774:19792   */\n      dup2\n        /* \"#utility.yul\":19771:19809   */\n      sub\n        /* \"#utility.yul\":19768:19852   */\n      tag_968\n      jumpi\n        /* \"#utility.yul\":19824:19842   */\n      tag_969\n      tag_734\n      jump\t// in\n    tag_969:\n        /* \"#utility.yul\":19768:19852   */\n    tag_968:\n        /* \"#utility.yul\":19589:19858   */\n      pop\n        /* \"#utility.yul\":19538:19858   */\n      swap2\n      swap1\n      pop\n      jump\t// out\n        /* \"#utility.yul\":19864:20013   */\n    tag_735:\n        /* \"#utility.yul\":19913:19919   */\n      0x00\n        /* \"#utility.yul\":19947:19952   */\n      dup2\n        /* \"#utility.yul\":19941:19953   */\n      sload\n        /* \"#utility.yul\":19931:19953   */\n      swap1\n      pop\n        /* \"#utility.yul\":19973:20006   */\n      tag_971\n        /* \"#utility.yul\":19999:20005   */\n      dup2\n        /* \"#utility.yul\":19973:20006   */\n      tag_317\n      jump\t// in\n    tag_971:\n        /* \"#utility.yul\":19963:20006   */\n      swap1\n      pop\n        /* \"#utility.yul\":19864:20013   */\n      swap2\n      swap1\n      pop\n      jump\t// out\n        /* \"#utility.yul\":20019:20160   */\n    tag_736:\n        /* \"#utility.yul\":20068:20072   */\n      0x00\n        /* \"#utility.yul\":20091:20094   */\n      dup2\n        /* \"#utility.yul\":20083:20094   */\n      swap1\n      pop\n        /* \"#utility.yul\":20114:20117   */\n      dup2\n        /* \"#utility.yul\":20111:20112   */\n      0x00\n        /* \"#utility.yul\":20104:20118   */\n      mstore\n        /* \"#utility.yul\":20148:20152   */\n      0x20\n        /* \"#utility.yul\":20145:20146   */\n      0x00\n        /* \"#utility.yul\":20135:20153   */\n      keccak256\n        /* \"#utility.yul\":20127:20153   */\n      swap1\n      pop\n        /* \"#utility.yul\":20019:20160   */\n      swap2\n      swap1\n      pop\n      jump\t// out\n        /* \"#utility.yul\":20166:20259   */\n    tag_737:\n        /* \"#utility.yul\":20203:20209   */\n      0x00\n        /* \"#utility.yul\":20250:20252   */\n      0x20\n        /* \"#utility.yul\":20245:20247   */\n      0x1f\n        /* \"#utility.yul\":20238:20243   */\n      dup4\n        /* \"#utility.yul\":20234:20248   */\n      add\n        /* \"#utility.yul\":20230:20253   */\n      div\n        /* \"#utility.yul\":20220:20253   */\n      swap1\n      pop\n        /* \"#utility.yul\":20166:20259   */\n      swap2\n      swap1\n      pop\n      jump\t// out\n        /* \"#utility.yul\":20265:20372   */\n    tag_738:\n        /* \"#utility.yul\":20309:20317   */\n      0x00\n        /* \"#utility.yul\":20359:20364   */\n      dup3\n        /* \"#utility.yul\":20353:20357   */\n      dup3\n        /* \"#utility.yul\":20349:20365   */\n      shl\n        /* \"#utility.yul\":20328:20365   */\n      swap1\n      pop\n        /* \"#utility.yul\":20265:20372   */\n      swap3\n      swap2\n      pop\n      pop\n      jump\t// out\n        /* \"#utility.yul\":20378:20771   */\n    tag_739:\n        /* \"#utility.yul\":20447:20453   */\n      0x00\n        /* \"#utility.yul\":20497:20498   */\n      0x08\n        /* \"#utility.yul\":20485:20495   */\n      dup4\n        /* \"#utility.yul\":20481:20499   */\n      mul\n        /* \"#utility.yul\":20520:20617   */\n      tag_976\n        /* \"#utility.yul\":20550:20616   */\n      0xffffffffffffffffffffffffffffffffffffffffffffffffffffffffffffffff\n        /* \"#utility.yul\":20539:20548   */\n      dup3\n        /* \"#utility.yul\":20520:20617   */\n      tag_738\n      jump\t// in\n    tag_976:\n        /* \"#utility.yul\":20638:20677   */\n      tag_977\n        /* \"#utility.yul\":20668:20676   */\n      dup7\n        /* \"#utility.yul\":20657:20666   */\n      dup4\n        /* \"#utility.yul\":20638:20677   */\n      tag_738\n      jump\t// in\n    tag_977:\n        /* \"#utility.yul\":20626:20677   */\n      swap6\n      pop\n        /* \"#utility.yul\":20710:20714   */\n      dup1\n        /* \"#utility.yul\":20706:20715   */\n      not\n        /* \"#utility.yul\":20699:20704   */\n      dup5\n        /* \"#utility.yul\":20695:20716   */\n      and\n        /* \"#utility.yul\":20686:20716   */\n      swap4\n      pop\n        /* \"#utility.yul\":20759:20763   */\n      dup1\n        /* \"#utility.yul\":20749:20757   */\n      dup7\n        /* \"#utility.yul\":20745:20764   */\n      and\n        /* \"#utility.yul\":20738:20743   */\n      dup5\n        /* \"#utility.yul\":20735:20765   */\n      or\n        /* \"#utility.yul\":20725:20765   */\n      swap3\n      pop\n        /* \"#utility.yul\":20454:20771   */\n      pop\n      pop\n        /* \"#utility.yul\":20378:20771   */\n      swap4\n      swap3\n      pop\n      pop\n      pop\n      jump\t// out\n        /* \"#utility.yul\":20777:20837   */\n    tag_740:\n        /* \"#utility.yul\":20805:20808   */\n      0x00\n        /* \"#utility.yul\":20826:20831   */\n      dup2\n        /* \"#utility.yul\":20819:20831   */\n      swap1\n      pop\n        /* \"#utility.yul\":20777:20837   */\n      swap2\n      swap1\n      pop\n      jump\t// out\n        /* \"#utility.yul\":20843:20985   */\n    tag_741:\n        /* \"#utility.yul\":20893:20902   */\n      0x00\n        /* \"#utility.yul\":20926:20979   */\n      tag_980\n        /* \"#utility.yul\":20944:20978   */\n      tag_981\n        /* \"#utility.yul\":20953:20977   */\n      tag_982\n        /* \"#utility.yul\":20971:20976   */\n      dup5\n        /* \"#utility.yul\":20953:20977   */\n      tag_697\n      jump\t// in\n    tag_982:\n        /* \"#utility.yul\":20944:20978   */\n      tag_740\n      jump\t// in\n    tag_981:\n        /* \"#utility.yul\":20926:20979   */\n      tag_697\n      jump\t// in\n    tag_980:\n        /* \"#utility.yul\":20913:20979   */\n      swap1\n      pop\n        /* \"#utility.yul\":20843:20985   */\n      swap2\n      swap1\n      pop\n      jump\t// out\n        /* \"#utility.yul\":20991:21066   */\n    tag_742:\n        /* \"#utility.yul\":21034:21037   */\n      0x00\n        /* \"#utility.yul\":21055:21060   */\n      dup2\n        /* \"#utility.yul\":21048:21060   */\n      swap1\n      pop\n        /* \"#utility.yul\":20991:21066   */\n      swap2\n      swap1\n      pop\n      jump\t// out\n        /* \"#utility.yul\":21072:21341   */\n    tag_743:\n        /* \"#utility.yul\":21182:21221   */\n      tag_985\n        /* \"#utility.yul\":21213:21220   */\n      dup4\n        /* \"#utility.yul\":21182:21221   */\n      tag_741\n      jump\t// in\n    tag_985:\n        /* \"#utility.yul\":21243:21334   */\n      tag_986\n        /* \"#utility.yul\":21292:21333   */\n      tag_987\n        /* \"#utility.yul\":21316:21332   */\n      dup3\n        /* \"#utility.yul\":21292:21333   */\n      tag_742\n      jump\t// in\n    tag_987:\n        /* \"#utility.yul\":21284:21290   */\n      dup5\n        /* \"#utility.yul\":21277:21281   */\n      dup5\n        /* \"#utility.yul\":21271:21282   */\n      sload\n        /* \"#utility.yul\":21243:21334   */\n      tag_739\n      jump\t// in\n    tag_986:\n        /* \"#utility.yul\":21237:21241   */\n      dup3\n        /* \"#utility.yul\":21230:21335   */\n      sstore\n        /* \"#utility.yul\":21148:21341   */\n      pop\n        /* \"#utility.yul\":21072:21341   */\n      pop\n      pop\n      pop\n      jump\t// out\n        /* \"#utility.yul\":21347:21420   */\n    tag_744:\n        /* \"#utility.yul\":21392:21395   */\n      0x00\n        /* \"#utility.yul\":21347:21420   */\n      swap1\n      jump\t// out\n        /* \"#utility.yul\":21426:21615   */\n    tag_745:\n        /* \"#utility.yul\":21503:21535   */\n      tag_990\n      tag_744\n      jump\t// in\n    tag_990:\n        /* \"#utility.yul\":21544:21609   */\n      tag_991\n        /* \"#utility.yul\":21602:21608   */\n      dup2\n        /* \"#utility.yul\":21594:21600   */\n      dup5\n        /* \"#utility.yul\":21588:21592   */\n      dup5\n        /* \"#utility.yul\":21544:21609   */\n      tag_743\n      jump\t// in\n    tag_991:\n        /* \"#utility.yul\":21479:21615   */\n      pop\n        /* \"#utility.yul\":21426:21615   */\n      pop\n      pop\n      jump\t// out\n        /* \"#utility.yul\":21621:21807   */\n    tag_746:\n        /* \"#utility.yul\":21681:21801   */\n    tag_993:\n        /* \"#utility.yul\":21698:21701   */\n      dup2\n        /* \"#utility.yul\":21691:21696   */\n      dup2\n        /* \"#utility.yul\":21688:21702   */\n      lt\n        /* \"#utility.yul\":21681:21801   */\n      iszero\n      tag_995\n      jumpi\n        /* \"#utility.yul\":21752:21791   */\n      tag_996\n        /* \"#utility.yul\":21789:21790   */\n      0x00\n        /* \"#utility.yul\":21782:21787   */\n      dup3\n        /* \"#utility.yul\":21752:21791   */\n      tag_745\n      jump\t// in\n    tag_996:\n        /* \"#utility.yul\":21725:21726   */\n      0x01\n        /* \"#utility.yul\":21718:21723   */\n      dup2\n        /* \"#utility.yul\":21714:21727   */\n      add\n        /* \"#utility.yul\":21705:21727   */\n      swap1\n      pop\n        /* \"#utility.yul\":21681:21801   */\n      jump(tag_993)\n    tag_995:\n        /* \"#utility.yul\":21621:21807   */\n      pop\n      pop\n      jump\t// out\n        /* \"#utility.yul\":21813:22356   */\n    tag_747:\n        /* \"#utility.yul\":21914:21916   */\n      0x1f\n        /* \"#utility.yul\":21909:21912   */\n      dup3\n        /* \"#utility.yul\":21906:21917   */\n      gt\n        /* \"#utility.yul\":21903:22349   */\n      iszero\n      tag_998\n      jumpi\n        /* \"#utility.yul\":21948:21986   */\n      tag_999\n        /* \"#utility.yul\":21980:21985   */\n      dup2\n        /* \"#utility.yul\":21948:21986   */\n      tag_736\n      jump\t// in\n    tag_999:\n        /* \"#utility.yul\":22032:22061   */\n      tag_1000\n        /* \"#utility.yul\":22050:22060   */\n      dup5\n        /* \"#utility.yul\":22032:22061   */\n      tag_737\n      jump\t// in\n    tag_1000:\n        /* \"#utility.yul\":22022:22030   */\n      dup2\n        /* \"#utility.yul\":22018:22062   */\n      add\n        /* \"#utility.yul\":22215:22217   */\n      0x20\n        /* \"#utility.yul\":22203:22213   */\n      dup6\n        /* \"#utility.yul\":22200:22218   */\n      lt\n        /* \"#utility.yul\":22197:22246   */\n      iszero\n      tag_1001\n      jumpi\n        /* \"#utility.yul\":22236:22244   */\n      dup2\n        /* \"#utility.yul\":22221:22244   */\n      swap1\n      pop\n        /* \"#utility.yul\":22197:22246   */\n    tag_1001:\n        /* \"#utility.yul\":22259:22339   */\n      tag_1002\n        /* \"#utility.yul\":22315:22337   */\n      tag_1003\n        /* \"#utility.yul\":22333:22336   */\n      dup6\n        /* \"#utility.yul\":22315:22337   */\n      tag_737\n      jump\t// in\n    tag_1003:\n        /* \"#utility.yul\":22305:22313   */\n      dup4\n        /* \"#utility.yul\":22301:22338   */\n      add\n        /* \"#utility.yul\":22288:22299   */\n      dup3\n        /* \"#utility.yul\":22259:22339   */\n      tag_746\n      jump\t// in\n    tag_1002:\n        /* \"#utility.yul\":21918:22349   */\n      pop\n      pop\n        /* \"#utility.yul\":21903:22349   */\n    tag_998:\n        /* \"#utility.yul\":21813:22356   */\n      pop\n      pop\n      pop\n      jump\t// out\n        /* \"#utility.yul\":22362:22479   */\n    tag_748:\n        /* \"#utility.yul\":22416:22424   */\n      0x00\n        /* \"#utility.yul\":22466:22471   */\n      dup3\n        /* \"#utility.yul\":22460:22464   */\n      dup3\n        /* \"#utility.yul\":22456:22472   */\n      shr\n        /* \"#utility.yul\":22435:22472   */\n      swap1\n      pop\n        /* \"#utility.yul\":22362:22479   */\n      swap3\n      swap2\n      pop\n      pop\n      jump\t// out\n        /* \"#utility.yul\":22485:22654   */\n    tag_749:\n        /* \"#utility.yul\":22529:22535   */\n      0x00\n        /* \"#utility.yul\":22562:22613   */\n      tag_1006\n        /* \"#utility.yul\":22610:22611   */\n      0x00\n        /* \"#utility.yul\":22606:22612   */\n      not\n        /* \"#utility.yul\":22598:22603   */\n      dup5\n        /* \"#utility.yul\":22595:22596   */\n      0x08\n        /* \"#utility.yul\":22591:22604   */\n      mul\n        /* \"#utility.yul\":22562:22613   */\n      tag_748\n      jump\t// in\n    tag_1006:\n        /* \"#utility.yul\":22558:22614   */\n      not\n        /* \"#utility.yul\":22643:22647   */\n      dup1\n        /* \"#utility.yul\":22637:22641   */\n      dup4\n        /* \"#utility.yul\":22633:22648   */\n      and\n        /* \"#utility.yul\":22623:22648   */\n      swap2\n      pop\n        /* \"#utility.yul\":22536:22654   */\n      pop\n        /* \"#utility.yul\":22485:22654   */\n      swap3\n      swap2\n      pop\n      pop\n      jump\t// out\n        /* \"#utility.yul\":22659:22954   */\n    tag_750:\n        /* \"#utility.yul\":22735:22739   */\n      0x00\n        /* \"#utility.yul\":22881:22910   */\n      tag_1008\n        /* \"#utility.yul\":22906:22909   */\n      dup4\n        /* \"#utility.yul\":22900:22904   */\n      dup4\n        /* \"#utility.yul\":22881:22910   */\n      tag_749\n      jump\t// in\n    tag_1008:\n        /* \"#utility.yul\":22873:22910   */\n      swap2\n      pop\n        /* \"#utility.yul\":22943:22946   */\n      dup3\n        /* \"#utility.yul\":22940:22941   */\n      0x02\n        /* \"#utility.yul\":22936:22947   */\n      mul\n        /* \"#utility.yul\":22930:22934   */\n      dup3\n        /* \"#utility.yul\":22927:22948   */\n      or\n        /* \"#utility.yul\":22919:22948   */\n      swap1\n      pop\n        /* \"#utility.yul\":22659:22954   */\n      swap3\n      swap2\n      pop\n      pop\n      jump\t// out\n        /* \"#utility.yul\":22959:24410   */\n    tag_211:\n        /* \"#utility.yul\":23070:23073   */\n      dup2\n        /* \"#utility.yul\":23064:23068   */\n      dup2\n        /* \"#utility.yul\":23061:23074   */\n      sub\n        /* \"#utility.yul\":23058:23084   */\n      tag_1010\n      jumpi\n        /* \"#utility.yul\":23077:23082   */\n      pop\n      pop\n      jump(tag_1009)\n        /* \"#utility.yul\":23058:23084   */\n    tag_1010:\n        /* \"#utility.yul\":23108:23142   */\n      tag_1011\n        /* \"#utility.yul\":23138:23141   */\n      dup3\n        /* \"#utility.yul\":23108:23142   */\n      tag_735\n      jump\t// in\n    tag_1011:\n        /* \"#utility.yul\":23207:23225   */\n      0xffffffffffffffff\n        /* \"#utility.yul\":23199:23205   */\n      dup2\n        /* \"#utility.yul\":23196:23226   */\n      gt\n        /* \"#utility.yul\":23193:23249   */\n      iszero\n      tag_1012\n      jumpi\n        /* \"#utility.yul\":23229:23247   */\n      tag_1013\n      tag_703\n      jump\t// in\n    tag_1013:\n        /* \"#utility.yul\":23193:23249   */\n    tag_1012:\n        /* \"#utility.yul\":23273:23311   */\n      tag_1014\n        /* \"#utility.yul\":23305:23309   */\n      dup3\n        /* \"#utility.yul\":23299:23310   */\n      sload\n        /* \"#utility.yul\":23273:23311   */\n      tag_317\n      jump\t// in\n    tag_1014:\n        /* \"#utility.yul\":23358:23425   */\n      tag_1015\n        /* \"#utility.yul\":23418:23424   */\n      dup3\n        /* \"#utility.yul\":23410:23416   */\n      dup3\n        /* \"#utility.yul\":23404:23408   */\n      dup6\n        /* \"#utility.yul\":23358:23425   */\n      tag_747\n      jump\t// in\n    tag_1015:\n        /* \"#utility.yul\":23452:23453   */\n      0x00\n        /* \"#utility.yul\":23481:23483   */\n      0x1f\n        /* \"#utility.yul\":23473:23479   */\n      dup4\n        /* \"#utility.yul\":23470:23484   */\n      gt\n        /* \"#utility.yul\":23498:23499   */\n      0x01\n        /* \"#utility.yul\":23493:24165   */\n      dup2\n      eq\n      tag_1017\n      jumpi\n        /* \"#utility.yul\":24209:24210   */\n      0x00\n        /* \"#utility.yul\":24226:24232   */\n      dup5\n        /* \"#utility.yul\":24223:24300   */\n      iszero\n      tag_1018\n      jumpi\n        /* \"#utility.yul\":24275:24284   */\n      dup3\n        /* \"#utility.yul\":24270:24273   */\n      dup8\n        /* \"#utility.yul\":24266:24285   */\n      add\n        /* \"#utility.yul\":24260:24286   */\n      sload\n        /* \"#utility.yul\":24251:24286   */\n      swap1\n      pop\n        /* \"#utility.yul\":24223:24300   */\n    tag_1018:\n        /* \"#utility.yul\":24326:24393   */\n      tag_1019\n        /* \"#utility.yul\":24386:24392   */\n      dup6\n        /* \"#utility.yul\":24379:24384   */\n      dup3\n        /* \"#utility.yul\":24326:24393   */\n      tag_750\n      jump\t// in\n    tag_1019:\n        /* \"#utility.yul\":24320:24324   */\n      dup7\n        /* \"#utility.yul\":24313:24394   */\n      sstore\n        /* \"#utility.yul\":24182:24404   */\n      pop\n        /* \"#utility.yul\":23463:24404   */\n      jump(tag_1016)\n        /* \"#utility.yul\":23493:24165   */\n    tag_1017:\n        /* \"#utility.yul\":23545:23549   */\n      0x1f\n        /* \"#utility.yul\":23541:23550   */\n      not\n        /* \"#utility.yul\":23533:23539   */\n      dup5\n        /* \"#utility.yul\":23529:23551   */\n      and\n        /* \"#utility.yul\":23571:23607   */\n      tag_1020\n        /* \"#utility.yul\":23603:23606   */\n      dup8\n        /* \"#utility.yul\":23571:23607   */\n      tag_736\n      jump\t// in\n    tag_1020:\n        /* \"#utility.yul\":23564:23607   */\n      swap7\n      pop\n        /* \"#utility.yul\":23634:23671   */\n      tag_1021\n        /* \"#utility.yul\":23666:23670   */\n      dup7\n        /* \"#utility.yul\":23634:23671   */\n      tag_736\n      jump\t// in\n    tag_1021:\n        /* \"#utility.yul\":23693:23694   */\n      0x00\n        /* \"#utility.yul\":23707:23914   */\n    tag_1022:\n        /* \"#utility.yul\":23721:23728   */\n      dup3\n        /* \"#utility.yul\":23718:23719   */\n      dup2\n        /* \"#utility.yul\":23715:23729   */\n      lt\n        /* \"#utility.yul\":23707:23914   */\n      iszero\n      tag_1024\n      jumpi\n        /* \"#utility.yul\":23800:23809   */\n      dup5\n        /* \"#utility.yul\":23795:23798   */\n      dup10\n        /* \"#utility.yul\":23791:23810   */\n      add\n        /* \"#utility.yul\":23785:23811   */\n      sload\n        /* \"#utility.yul\":23777:23783   */\n      dup3\n        /* \"#utility.yul\":23770:23812   */\n      sstore\n        /* \"#utility.yul\":23851:23852   */\n      0x01\n        /* \"#utility.yul\":23843:23849   */\n      dup3\n        /* \"#utility.yul\":23839:23853   */\n      add\n        /* \"#utility.yul\":23829:23853   */\n      swap2\n      pop\n        /* \"#utility.yul\":23898:23899   */\n      0x01\n        /* \"#utility.yul\":23887:23896   */\n      dup6\n        /* \"#utility.yul\":23883:23900   */\n      add\n        /* \"#utility.yul\":23870:23900   */\n      swap5\n      pop\n        /* \"#utility.yul\":23744:23748   */\n      0x20\n        /* \"#utility.yul\":23741:23742   */\n      dup2\n        /* \"#utility.yul\":23737:23749   */\n      add\n        /* \"#utility.yul\":23732:23749   */\n      swap1\n      pop\n        /* \"#utility.yul\":23707:23914   */\n      jump(tag_1022)\n    tag_1024:\n        /* \"#utility.yul\":23942:23948   */\n      dup7\n        /* \"#utility.yul\":23933:23940   */\n      dup4\n        /* \"#utility.yul\":23930:23949   */\n      lt\n        /* \"#utility.yul\":23927:24106   */\n      iszero\n      tag_1025\n      jumpi\n        /* \"#utility.yul\":24000:24009   */\n      dup5\n        /* \"#utility.yul\":23995:23998   */\n      dup10\n        /* \"#utility.yul\":23991:24010   */\n      add\n        /* \"#utility.yul\":23985:24011   */\n      sload\n        /* \"#utility.yul\":24043:24091   */\n      tag_1026\n        /* \"#utility.yul\":24085:24089   */\n      0x1f\n        /* \"#utility.yul\":24077:24083   */\n      dup10\n        /* \"#utility.yul\":24073:24090   */\n      and\n        /* \"#utility.yul\":24062:24071   */\n      dup3\n        /* \"#utility.yul\":24043:24091   */\n      tag_749\n      jump\t// in\n    tag_1026:\n        /* \"#utility.yul\":24035:24041   */\n      dup4\n        /* \"#utility.yul\":24028:24092   */\n      sstore\n        /* \"#utility.yul\":23950:24106   */\n      pop\n        /* \"#utility.yul\":23927:24106   */\n    tag_1025:\n        /* \"#utility.yul\":24152:24153   */\n      0x01\n        /* \"#utility.yul\":24148:24149   */\n      0x02\n        /* \"#utility.yul\":24140:24146   */\n      dup9\n        /* \"#utility.yul\":24136:24150   */\n      mul\n        /* \"#utility.yul\":24132:24154   */\n      add\n        /* \"#utility.yul\":24126:24130   */\n      dup9\n        /* \"#utility.yul\":24119:24155   */\n      sstore\n        /* \"#utility.yul\":23500:24165   */\n      pop\n      pop\n      pop\n        /* \"#utility.yul\":23463:24404   */\n    tag_1016:\n      pop\n        /* \"#utility.yul\":23048:24410   */\n      pop\n      pop\n      pop\n        /* \"#utility.yul\":22959:24410   */\n      pop\n      pop\n    tag_1009:\n      jump\t// out\n        /* \"#utility.yul\":24416:24596   */\n    tag_751:\n        /* \"#utility.yul\":24464:24541   */\n      0x4e487b7100000000000000000000000000000000000000000000000000000000\n        /* \"#utility.yul\":24461:24462   */\n      0x00\n        /* \"#utility.yul\":24454:24542   */\n      mstore\n        /* \"#utility.yul\":24561:24565   */\n      0x11\n        /* \"#utility.yul\":24558:24559   */\n      0x04\n        /* \"#utility.yul\":24551:24566   */\n      mstore\n        /* \"#utility.yul\":24585:24589   */\n      0x24\n        /* \"#utility.yul\":24582:24583   */\n      0x00\n        /* \"#utility.yul\":24575:24590   */\n      revert\n        /* \"#utility.yul\":24602:24835   */\n    tag_216:\n        /* \"#utility.yul\":24641:24644   */\n      0x00\n        /* \"#utility.yul\":24664:24688   */\n      tag_1029\n        /* \"#utility.yul\":24682:24687   */\n      dup3\n        /* \"#utility.yul\":24664:24688   */\n      tag_697\n      jump\t// in\n    tag_1029:\n        /* \"#utility.yul\":24655:24688   */\n      swap2\n      pop\n        /* \"#utility.yul\":24710:24776   */\n      0xffffffffffffffffffffffffffffffffffffffffffffffffffffffffffffffff\n        /* \"#utility.yul\":24703:24708   */\n      dup3\n        /* \"#utility.yul\":24700:24777   */\n      sub\n        /* \"#utility.yul\":24697:24800   */\n      tag_1030\n      jumpi\n        /* \"#utility.yul\":24780:24798   */\n      tag_1031\n      tag_751\n      jump\t// in\n    tag_1031:\n        /* \"#utility.yul\":24697:24800   */\n    tag_1030:\n        /* \"#utility.yul\":24827:24828   */\n      0x01\n        /* \"#utility.yul\":24820:24825   */\n      dup3\n        /* \"#utility.yul\":24816:24829   */\n      add\n        /* \"#utility.yul\":24809:24829   */\n      swap1\n      pop\n        /* \"#utility.yul\":24602:24835   */\n      swap2\n      swap1\n      pop\n      jump\t// out\n        /* \"#utility.yul\":24841:25012   */\n    tag_223:\n        /* \"#utility.yul\":24880:24883   */\n      0x00\n        /* \"#utility.yul\":24903:24927   */\n      tag_1033\n        /* \"#utility.yul\":24921:24926   */\n      dup3\n        /* \"#utility.yul\":24903:24927   */\n      tag_697\n      jump\t// in\n    tag_1033:\n        /* \"#utility.yul\":24894:24927   */\n      swap2\n      pop\n        /* \"#utility.yul\":24949:24953   */\n      0x00\n        /* \"#utility.yul\":24942:24947   */\n      dup3\n        /* \"#utility.yul\":24939:24954   */\n      sub\n        /* \"#utility.yul\":24936:24977   */\n      tag_1034\n      jumpi\n        /* \"#utility.yul\":24957:24975   */\n      tag_1035\n      tag_751\n      jump\t// in\n    tag_1035:\n        /* \"#utility.yul\":24936:24977   */\n    tag_1034:\n        /* \"#utility.yul\":25004:25005   */\n      0x01\n        /* \"#utility.yul\":24997:25002   */\n      dup3\n        /* \"#utility.yul\":24993:25006   */\n      sub\n        /* \"#utility.yul\":24986:25006   */\n      swap1\n      pop\n        /* \"#utility.yul\":24841:25012   */\n      swap2\n      swap1\n      pop\n      jump\t// out\n        /* \"#utility.yul\":25018:26413   */\n    tag_269:\n        /* \"#utility.yul\":25135:25172   */\n      tag_1037\n        /* \"#utility.yul\":25168:25171   */\n      dup3\n        /* \"#utility.yul\":25135:25172   */\n      tag_725\n      jump\t// in\n    tag_1037:\n        /* \"#utility.yul\":25237:25255   */\n      0xffffffffffffffff\n        /* \"#utility.yul\":25229:25235   */\n      dup2\n        /* \"#utility.yul\":25226:25256   */\n      gt\n        /* \"#utility.yul\":25223:25279   */\n      iszero\n      tag_1038\n      jumpi\n        /* \"#utility.yul\":25259:25277   */\n      tag_1039\n      tag_703\n      jump\t// in\n    tag_1039:\n        /* \"#utility.yul\":25223:25279   */\n    tag_1038:\n        /* \"#utility.yul\":25303:25341   */\n      tag_1040\n        /* \"#utility.yul\":25335:25339   */\n      dup3\n        /* \"#utility.yul\":25329:25340   */\n      sload\n        /* \"#utility.yul\":25303:25341   */\n      tag_317\n      jump\t// in\n    tag_1040:\n        /* \"#utility.yul\":25388:25455   */\n      tag_1041\n        /* \"#utility.yul\":25448:25454   */\n      dup3\n        /* \"#utility.yul\":25440:25446   */\n      dup3\n        /* \"#utility.yul\":25434:25438   */\n      dup6\n        /* \"#utility.yul\":25388:25455   */\n      tag_747\n      jump\t// in\n    tag_1041:\n        /* \"#utility.yul\":25482:25483   */\n      0x00\n        /* \"#utility.yul\":25506:25510   */\n      0x20\n        /* \"#utility.yul\":25493:25510   */\n      swap1\n      pop\n        /* \"#utility.yul\":25538:25540   */\n      0x1f\n        /* \"#utility.yul\":25530:25536   */\n      dup4\n        /* \"#utility.yul\":25527:25541   */\n      gt\n        /* \"#utility.yul\":25555:25556   */\n      0x01\n        /* \"#utility.yul\":25550:26168   */\n      dup2\n      eq\n      tag_1043\n      jumpi\n        /* \"#utility.yul\":26212:26213   */\n      0x00\n        /* \"#utility.yul\":26229:26235   */\n      dup5\n        /* \"#utility.yul\":26226:26303   */\n      iszero\n      tag_1044\n      jumpi\n        /* \"#utility.yul\":26278:26287   */\n      dup3\n        /* \"#utility.yul\":26273:26276   */\n      dup8\n        /* \"#utility.yul\":26269:26288   */\n      add\n        /* \"#utility.yul\":26263:26289   */\n      mload\n        /* \"#utility.yul\":26254:26289   */\n      swap1\n      pop\n        /* \"#utility.yul\":26226:26303   */\n    tag_1044:\n        /* \"#utility.yul\":26329:26396   */\n      tag_1045\n        /* \"#utility.yul\":26389:26395   */\n      dup6\n        /* \"#utility.yul\":26382:26387   */\n      dup3\n        /* \"#utility.yul\":26329:26396   */\n      tag_750\n      jump\t// in\n    tag_1045:\n        /* \"#utility.yul\":26323:26327   */\n      dup7\n        /* \"#utility.yul\":26316:26397   */\n      sstore\n        /* \"#utility.yul\":26185:26407   */\n      pop\n        /* \"#utility.yul\":25520:26407   */\n      jump(tag_1042)\n        /* \"#utility.yul\":25550:26168   */\n    tag_1043:\n        /* \"#utility.yul\":25602:25606   */\n      0x1f\n        /* \"#utility.yul\":25598:25607   */\n      not\n        /* \"#utility.yul\":25590:25596   */\n      dup5\n        /* \"#utility.yul\":25586:25608   */\n      and\n        /* \"#utility.yul\":25636:25673   */\n      tag_1046\n        /* \"#utility.yul\":25668:25672   */\n      dup7\n        /* \"#utility.yul\":25636:25673   */\n      tag_736\n      jump\t// in\n    tag_1046:\n        /* \"#utility.yul\":25695:25696   */\n      0x00\n        /* \"#utility.yul\":25709:25917   */\n    tag_1047:\n        /* \"#utility.yul\":25723:25730   */\n      dup3\n        /* \"#utility.yul\":25720:25721   */\n      dup2\n        /* \"#utility.yul\":25717:25731   */\n      lt\n        /* \"#utility.yul\":25709:25917   */\n      iszero\n      tag_1049\n      jumpi\n        /* \"#utility.yul\":25802:25811   */\n      dup5\n        /* \"#utility.yul\":25797:25800   */\n      dup10\n        /* \"#utility.yul\":25793:25812   */\n      add\n        /* \"#utility.yul\":25787:25813   */\n      mload\n        /* \"#utility.yul\":25779:25785   */\n      dup3\n        /* \"#utility.yul\":25772:25814   */\n      sstore\n        /* \"#utility.yul\":25853:25854   */\n      0x01\n        /* \"#utility.yul\":25845:25851   */\n      dup3\n        /* \"#utility.yul\":25841:25855   */\n      add\n        /* \"#utility.yul\":25831:25855   */\n      swap2\n      pop\n        /* \"#utility.yul\":25900:25902   */\n      0x20\n        /* \"#utility.yul\":25889:25898   */\n      dup6\n        /* \"#utility.yul\":25885:25903   */\n      add\n        /* \"#utility.yul\":25872:25903   */\n      swap5\n      pop\n        /* \"#utility.yul\":25746:25750   */\n      0x20\n        /* \"#utility.yul\":25743:25744   */\n      dup2\n        /* \"#utility.yul\":25739:25751   */\n      add\n        /* \"#utility.yul\":25734:25751   */\n      swap1\n      pop\n        /* \"#utility.yul\":25709:25917   */\n      jump(tag_1047)\n    tag_1049:\n        /* \"#utility.yul\":25945:25951   */\n      dup7\n        /* \"#utility.yul\":25936:25943   */\n      dup4\n        /* \"#utility.yul\":25933:25952   */\n      lt\n        /* \"#utility.yul\":25930:26109   */\n      iszero\n      tag_1050\n      jumpi\n        /* \"#utility.yul\":26003:26012   */\n      dup5\n        /* \"#utility.yul\":25998:26001   */\n      dup10\n        /* \"#utility.yul\":25994:26013   */\n      add\n        /* \"#utility.yul\":25988:26014   */\n      mload\n        /* \"#utility.yul\":26046:26094   */\n      tag_1051\n        /* \"#utility.yul\":26088:26092   */\n      0x1f\n        /* \"#utility.yul\":26080:26086   */\n      dup10\n        /* \"#utility.yul\":26076:26093   */\n      and\n        /* \"#utility.yul\":26065:26074   */\n      dup3\n        /* \"#utility.yul\":26046:26094   */\n      tag_749\n      jump\t// in\n    tag_1051:\n        /* \"#utility.yul\":26038:26044   */\n      dup4\n        /* \"#utility.yul\":26031:26095   */\n      sstore\n        /* \"#utility.yul\":25953:26109   */\n      pop\n        /* \"#utility.yul\":25930:26109   */\n    tag_1050:\n        /* \"#utility.yul\":26155:26156   */\n      0x01\n        /* \"#utility.yul\":26151:26152   */\n      0x02\n        /* \"#utility.yul\":26143:26149   */\n      dup9\n        /* \"#utility.yul\":26139:26153   */\n      mul\n        /* \"#utility.yul\":26135:26157   */\n      add\n        /* \"#utility.yul\":26129:26133   */\n      dup9\n        /* \"#utility.yul\":26122:26158   */\n      sstore\n        /* \"#utility.yul\":25557:26168   */\n      pop\n      pop\n      pop\n        /* \"#utility.yul\":25520:26407   */\n    tag_1042:\n      pop\n        /* \"#utility.yul\":25110:26413   */\n      pop\n      pop\n      pop\n        /* \"#utility.yul\":25018:26413   */\n      pop\n      pop\n      jump\t// out\n        /* \"#utility.yul\":26419:26567   */\n    tag_752:\n        /* \"#utility.yul\":26521:26532   */\n      0x00\n        /* \"#utility.yul\":26558:26561   */\n      dup2\n        /* \"#utility.yul\":26543:26561   */\n      swap1\n      pop\n        /* \"#utility.yul\":26419:26567   */\n      swap3\n      swap2\n      pop\n      pop\n      jump\t// out\n        /* \"#utility.yul\":26573:26963   */\n    tag_753:\n        /* \"#utility.yul\":26679:26682   */\n      0x00\n        /* \"#utility.yul\":26707:26746   */\n      tag_1054\n        /* \"#utility.yul\":26740:26745   */\n      dup3\n        /* \"#utility.yul\":26707:26746   */\n      tag_725\n      jump\t// in\n    tag_1054:\n        /* \"#utility.yul\":26762:26851   */\n      tag_1055\n        /* \"#utility.yul\":26844:26850   */\n      dup2\n        /* \"#utility.yul\":26839:26842   */\n      dup6\n        /* \"#utility.yul\":26762:26851   */\n      tag_752\n      jump\t// in\n    tag_1055:\n        /* \"#utility.yul\":26755:26851   */\n      swap4\n      pop\n        /* \"#utility.yul\":26860:26925   */\n      tag_1056\n        /* \"#utility.yul\":26918:26924   */\n      dup2\n        /* \"#utility.yul\":26913:26916   */\n      dup6\n        /* \"#utility.yul\":26906:26910   */\n      0x20\n        /* \"#utility.yul\":26899:26904   */\n      dup7\n        /* \"#utility.yul\":26895:26911   */\n      add\n        /* \"#utility.yul\":26860:26925   */\n      tag_727\n      jump\t// in\n    tag_1056:\n        /* \"#utility.yul\":26950:26956   */\n      dup1\n        /* \"#utility.yul\":26945:26948   */\n      dup5\n        /* \"#utility.yul\":26941:26957   */\n      add\n        /* \"#utility.yul\":26934:26957   */\n      swap2\n      pop\n        /* \"#utility.yul\":26683:26963   */\n      pop\n        /* \"#utility.yul\":26573:26963   */\n      swap3\n      swap2\n      pop\n      pop\n      jump\t// out\n        /* \"#utility.yul\":26969:27244   */\n    tag_279:\n        /* \"#utility.yul\":27101:27104   */\n      0x00\n        /* \"#utility.yul\":27123:27218   */\n      tag_1058\n        /* \"#utility.yul\":27214:27217   */\n      dup3\n        /* \"#utility.yul\":27205:27211   */\n      dup5\n        /* \"#utility.yul\":27123:27218   */\n      tag_753\n      jump\t// in\n    tag_1058:\n        /* \"#utility.yul\":27116:27218   */\n      swap2\n      pop\n        /* \"#utility.yul\":27235:27238   */\n      dup2\n        /* \"#utility.yul\":27228:27238   */\n      swap1\n      pop\n        /* \"#utility.yul\":26969:27244   */\n      swap3\n      swap2\n      pop\n      pop\n      jump\t// out\n        /* \"#utility.yul\":27250:27441   */\n    tag_312:\n        /* \"#utility.yul\":27290:27293   */\n      0x00\n        /* \"#utility.yul\":27309:27329   */\n      tag_1060\n        /* \"#utility.yul\":27327:27328   */\n      dup3\n        /* \"#utility.yul\":27309:27329   */\n      tag_697\n      jump\t// in\n    tag_1060:\n        /* \"#utility.yul\":27304:27329   */\n      swap2\n      pop\n        /* \"#utility.yul\":27343:27363   */\n      tag_1061\n        /* \"#utility.yul\":27361:27362   */\n      dup4\n        /* \"#utility.yul\":27343:27363   */\n      tag_697\n      jump\t// in\n    tag_1061:\n        /* \"#utility.yul\":27338:27363   */\n      swap3\n      pop\n        /* \"#utility.yul\":27386:27387   */\n      dup3\n        /* \"#utility.yul\":27383:27384   */\n      dup3\n        /* \"#utility.yul\":27379:27388   */\n      add\n        /* \"#utility.yul\":27372:27388   */\n      swap1\n      pop\n        /* \"#utility.yul\":27407:27410   */\n      dup1\n        /* \"#utility.yul\":27404:27405   */\n      dup3\n        /* \"#utility.yul\":27401:27411   */\n      gt\n        /* \"#utility.yul\":27398:27434   */\n      iszero\n      tag_1062\n      jumpi\n        /* \"#utility.yul\":27414:27432   */\n      tag_1063\n      tag_751\n      jump\t// in\n    tag_1063:\n        /* \"#utility.yul\":27398:27434   */\n    tag_1062:\n        /* \"#utility.yul\":27250:27441   */\n      swap3\n      swap2\n      pop\n      pop\n      jump\t// out\n        /* \"#utility.yul\":27447:27670   */\n    tag_754:\n        /* \"#utility.yul\":27587:27621   */\n      0x4f6e6c7920746865206d616e616765722063616e207472616e73666572204574\n        /* \"#utility.yul\":27583:27584   */\n      0x00\n        /* \"#utility.yul\":27575:27581   */\n      dup3\n        /* \"#utility.yul\":27571:27585   */\n      add\n        /* \"#utility.yul\":27564:27622   */\n      mstore\n        /* \"#utility.yul\":27656:27662   */\n      0x6865722e00000000000000000000000000000000000000000000000000000000\n        /* \"#utility.yul\":27651:27653   */\n      0x20\n        /* \"#utility.yul\":27643:27649   */\n      dup3\n        /* \"#utility.yul\":27639:27654   */\n      add\n        /* \"#utility.yul\":27632:27663   */\n      mstore\n        /* \"#utility.yul\":27447:27670   */\n      pop\n      jump\t// out\n        /* \"#utility.yul\":27676:28042   */\n    tag_755:\n        /* \"#utility.yul\":27818:27821   */\n      0x00\n        /* \"#utility.yul\":27839:27906   */\n      tag_1066\n        /* \"#utility.yul\":27903:27905   */\n      0x24\n        /* \"#utility.yul\":27898:27901   */\n      dup4\n        /* \"#utility.yul\":27839:27906   */\n      tag_726\n      jump\t// in\n    tag_1066:\n        /* \"#utility.yul\":27832:27906   */\n      swap2\n      pop\n        /* \"#utility.yul\":27915:28008   */\n      tag_1067\n        /* \"#utility.yul\":28004:28007   */\n      dup3\n        /* \"#utility.yul\":27915:28008   */\n      tag_754\n      jump\t// in\n    tag_1067:\n        /* \"#utility.yul\":28033:28035   */\n      0x40\n        /* \"#utility.yul\":28028:28031   */\n      dup3\n        /* \"#utility.yul\":28024:28036   */\n      add\n        /* \"#utility.yul\":28017:28036   */\n      swap1\n      pop\n        /* \"#utility.yul\":27676:28042   */\n      swap2\n      swap1\n      pop\n      jump\t// out\n        /* \"#utility.yul\":28048:28467   */\n    tag_456:\n        /* \"#utility.yul\":28214:28218   */\n      0x00\n        /* \"#utility.yul\":28252:28254   */\n      0x20\n        /* \"#utility.yul\":28241:28250   */\n      dup3\n        /* \"#utility.yul\":28237:28255   */\n      add\n        /* \"#utility.yul\":28229:28255   */\n      swap1\n      pop\n        /* \"#utility.yul\":28301:28310   */\n      dup2\n        /* \"#utility.yul\":28295:28299   */\n      dup2\n        /* \"#utility.yul\":28291:28311   */\n      sub\n        /* \"#utility.yul\":28287:28288   */\n      0x00\n        /* \"#utility.yul\":28276:28285   */\n      dup4\n        /* \"#utility.yul\":28272:28289   */\n      add\n        /* \"#utility.yul\":28265:28312   */\n      mstore\n        /* \"#utility.yul\":28329:28460   */\n      tag_1069\n        /* \"#utility.yul\":28455:28459   */\n      dup2\n        /* \"#utility.yul\":28329:28460   */\n      tag_755\n      jump\t// in\n    tag_1069:\n        /* \"#utility.yul\":28321:28460   */\n      swap1\n      pop\n        /* \"#utility.yul\":28048:28467   */\n      swap2\n      swap1\n      pop\n      jump\t// out\n\n    auxdata: 0xa26469706673582212201d6f5385e84d85acdea23b928deed670ed74109dfa175d6b41a7e36c2ea0895264736f6c63430008120033\n}\n","bytecode":{"linkReferences":{},"object":"608060405234801561001057600080fd5b50336000806101000a81548173ffffffffffffffffffffffffffffffffffffffff021916908373ffffffffffffffffffffffffffffffffffffffff160217905550615aaf80620000616000396000f3fe6080604052600436106101ed5760003560e01c806356c720c31161010d578063c6242a8f116100a0578063d6f775c01161006f578063d6f775c01461073a578063e365a29f1461077e578063f5ab5dde146107bb578063f778d27b146107d7578063feef5e911461081b576101ed565b8063c6242a8f1461066f578063c723bf86146106b1578063c73b302e146106f3578063d05857e01461071e576101ed565b8063a2bdedf4116100dc578063a2bdedf41461058e578063a87430ba146105d2578063ac2c9c0f14610616578063c610d2ce14610653576101ed565b806356c720c3146104e15780636b55e991146104fd5780636ba13a82146105265780639039b99e14610551576101ed565b806330314fee11610185578063481c6a7511610154578063481c6a75146104165780634b77f269146104415780634fc0f8ba1461048357806353b3194c1461049f576101ed565b806330314fee1461035657806337d3f4fa146103725780633a4017b4146103b6578063448cd56e146103d2576101ed565b806319266c51116101c157806319266c51146102835780631b0004d91461029f5780631ec7d4ad146102dc5780632f3f680c14610319576101ed565b80623bd288146101f257806301f2b0111461022f57806304c2eaab1461024b5780631453d9f214610267575b600080fd5b3480156101fe57600080fd5b5061021960048036038101906102149190614af1565b61085d565b6040516102269190614b2d565b60405180910390f35b61024960048036038101906102449190614cff565b610875565b005b61026560048036038101906102609190614d48565b610a5d565b005b610281600480360381019061027c9190614e72565b610e78565b005b61029d60048036038101906102989190614f70565b610fc7565b005b3480156102ab57600080fd5b506102c660048036038101906102c19190614f70565b611179565b6040516102d39190614b2d565b60405180910390f35b3480156102e857600080fd5b5061030360048036038101906102fe9190614fb9565b6111a7565b6040516103109190614b2d565b60405180910390f35b34801561032557600080fd5b50610340600480360381019061033b9190614f70565b6111bf565b60405161034d9190615001565b60405180910390f35b610370600480360381019061036b919061501c565b6111f5565b005b34801561037e57600080fd5b50610399600480360381019061039491906150d7565b611778565b6040516103ad9897969594939291906151a5565b60405180910390f35b6103d060048036038101906103cb919061526b565b611a1d565b005b3480156103de57600080fd5b506103f960048036038101906103f491906150d7565b611f73565b60405161040d9897969594939291906151a5565b60405180910390f35b34801561042257600080fd5b5061042b612218565b60405161043891906152d2565b60405180910390f35b34801561044d57600080fd5b5061046860048036038101906104639190614f70565b61223c565b60405161047a969594939291906152ed565b60405180910390f35b61049d60048036038101906104989190615363565b612426565b005b3480156104ab57600080fd5b506104c660048036038101906104c19190614af1565b61261d565b6040516104d8969594939291906152ed565b60405180910390f35b6104fb60048036038101906104f69190615363565b612801565b005b34801561050957600080fd5b50610524600480360381019061051f91906153e1565b612aab565b005b34801561053257600080fd5b5061053b612b83565b6040516105489190614b2d565b60405180910390f35b34801561055d57600080fd5b5061057860048036038101906105739190614f70565b612b89565b6040516105859190614b2d565b60405180910390f35b34801561059a57600080fd5b506105b560048036038101906105b09190614af1565b612bb7565b6040516105c99897969594939291906151a5565b60405180910390f35b3480156105de57600080fd5b506105f960048036038101906105f49190614fb9565b612e4f565b60405161060d9897969594939291906151a5565b60405180910390f35b34801561062257600080fd5b5061063d60048036038101906106389190614fb9565b6130d7565b60405161064a9190615001565b60405180910390f35b61066d6004803603810190610668919061501c565b6130f7565b005b34801561067b57600080fd5b5061069660048036038101906106919190614af1565b613579565b6040516106a8969594939291906152ed565b60405180910390f35b3480156106bd57600080fd5b506106d860048036038101906106d39190615363565b61375d565b6040516106ea969594939291906152ed565b60405180910390f35b3480156106ff57600080fd5b5061070861394e565b6040516107159190614b2d565b60405180910390f35b6107386004803603810190610733919061540e565b613954565b005b34801561074657600080fd5b50610761600480360381019061075c9190614af1565b613b62565b6040516107759897969594939291906151a5565b60405180910390f35b34801561078a57600080fd5b506107a560048036038101906107a09190614f70565b613dfa565b6040516107b29190615001565b60405180910390f35b6107d560048036038101906107d0919061526b565b613e30565b005b3480156107e357600080fd5b506107fe60048036038101906107f99190614f70565b61447e565b6040516108129897969594939291906151a5565b60405180910390f35b34801561082757600080fd5b50610842600480360381019061083d9190615363565b61471c565b604051610854969594939291906152ed565b60405180910390f35b60126020528060005260406000206000915090505481565b60008054906101000a900473ffffffffffffffffffffffffffffffffffffffff1673ffffffffffffffffffffffffffffffffffffffff163373ffffffffffffffffffffffffffffffffffffffff16146108cd57600080fd5b600360006108db919061490d565b60005b6005811015610a5957600360056000848481518110610900576108ff6154b5565b5b602002602001015173ffffffffffffffffffffffffffffffffffffffff1673ffffffffffffffffffffffffffffffffffffffff1681526020019081526020016000209080600181540180825580915050600190039060005260206000209060080201600090919091909150600082015481600001556001820160009054906101000a900473ffffffffffffffffffffffffffffffffffffffff168160010160006101000a81548173ffffffffffffffffffffffffffffffffffffffff021916908373ffffffffffffffffffffffffffffffffffffffff160217905550600282018160020190816109f09190615706565b5060038201816003019081610a059190615706565b5060048201816004019081610a1a9190615706565b50600582015481600501556006820154816006015560078201816007019081610a439190615706565b5050508080610a519061581d565b9150506108de565b5050565b600e60003373ffffffffffffffffffffffffffffffffffffffff1673ffffffffffffffffffffffffffffffffffffffff16815260200190815260200160002060009054906101000a900460ff16610ab357600080fd5b600060028581548110610ac957610ac86154b5565b5b906000526020600020906006020190506000600560008673ffffffffffffffffffffffffffffffffffffffff1673ffffffffffffffffffffffffffffffffffffffff1681526020019081526020016000209050806005016000815480929190610b3190615865565b9190505550600660008673ffffffffffffffffffffffffffffffffffffffff1673ffffffffffffffffffffffffffffffffffffffff16815260200190815260200160002050601160008673ffffffffffffffffffffffffffffffffffffffff1673ffffffffffffffffffffffffffffffffffffffff1681526020019081526020016000206000815480929190610bc690615865565b9190505550806001826000015481548110610be457610be36154b5565b5b9060005260206000209060080201600082015481600001556001820160009054906101000a900473ffffffffffffffffffffffffffffffffffffffff168160010160006101000a81548173ffffffffffffffffffffffffffffffffffffffff021916908373ffffffffffffffffffffffffffffffffffffffff16021790555060028201816002019081610c779190615706565b5060038201816003019081610c8c9190615706565b5060048201816004019081610ca19190615706565b50600582015481600501556006820154816006015560078201816007019081610cca9190615706565b50905050816004016000815480929190610ce390615865565b9190505550601260008781526020019081526020016000206000815480929190610d0c90615865565b9190505550600660008673ffffffffffffffffffffffffffffffffffffffff1673ffffffffffffffffffffffffffffffffffffffff1681526020019081526020016000208481548110610d6257610d616154b5565b5b9060005260206000209060060201600080820160009055600182016000610d899190614931565b600282016000610d999190614931565b600382016000610da99190614931565b600482016000905560058201600090555050600860008781526020019081526020016000208381548110610de057610ddf6154b5565b5b90600052602060002090600802016000808201600090556001820160006101000a81549073ffffffffffffffffffffffffffffffffffffffff0219169055600282016000610e2e9190614931565b600382016000610e3e9190614931565b600482016000610e4e9190614931565b60058201600090556006820160009055600782016000610e6e9190614931565b5050505050505050565b60008054906101000a900473ffffffffffffffffffffffffffffffffffffffff1673ffffffffffffffffffffffffffffffffffffffff163373ffffffffffffffffffffffffffffffffffffffff1614610ed057600080fd5b60046000610ede9190614971565b60005b6005811015610fc35760046002838381518110610f0157610f006154b5565b5b602002602001015181548110610f1a57610f196154b5565b5b906000526020600020906006020190806001815401808255809150506001900390600052602060002090600602016000909190919091506000820154816000015560018201816001019081610f6f9190615706565b5060028201816002019081610f849190615706565b5060038201816003019081610f999190615706565b50600482015481600401556005820154816005015550508080610fbb9061581d565b915050610ee1565b5050565b600e60003373ffffffffffffffffffffffffffffffffffffffff1673ffffffffffffffffffffffffffffffffffffffff16815260200190815260200160002060009054906101000a900460ff1661101d57600080fd5b6000600560003373ffffffffffffffffffffffffffffffffffffffff1673ffffffffffffffffffffffffffffffffffffffff168152602001908152602001600020905081816007019081611071919061588e565b5080600182600001548154811061108b5761108a6154b5565b5b9060005260206000209060080201600082015481600001556001820160009054906101000a900473ffffffffffffffffffffffffffffffffffffffff168160010160006101000a81548173ffffffffffffffffffffffffffffffffffffffff021916908373ffffffffffffffffffffffffffffffffffffffff1602179055506002820181600201908161111e9190615706565b50600382018160030190816111339190615706565b50600482018160040190816111489190615706565b506005820154816005015560068201548160060155600782018160070190816111719190615706565b509050505050565b600c818051602081018201805184825260208301602085012081835280955050505050506000915090505481565b60116020528060005260406000206000915090505481565b600f818051602081018201805184825260208301602085012081835280955050505050506000915054906101000a900460ff1681565b601083604051611205919061599c565b908152602001604051809103902060009054906101000a900460ff161561122b57600080fd5b6000600560008673ffffffffffffffffffffffffffffffffffffffff1673ffffffffffffffffffffffffffffffffffffffff16815260200190815260200160002090508060050160008154809291906112839061581d565b91905055506000600260018160018154018082558091505003906000526020600020906006020190506014548160000181905550848160010190816112c8919061588e565b50838160030190816112da919061588e565b50828160020190816112ec919061588e565b508060040160008154809291906113029061581d565b91905055506001601086604051611319919061599c565b908152602001604051809103902060006101000a81548160ff0219169083151502179055508060078660405161134f919061599c565b9081526020016040518091039020600082015481600001556001820181600101908161137b9190615706565b50600282018160020190816113909190615706565b50600382018160030190816113a59190615706565b5060048201548160040155600582015481600501559050508160018360000154815481106113d6576113d56154b5565b5b9060005260206000209060080201600082015481600001556001820160009054906101000a900473ffffffffffffffffffffffffffffffffffffffff168160010160006101000a81548173ffffffffffffffffffffffffffffffffffffffff021916908373ffffffffffffffffffffffffffffffffffffffff160217905550600282018160020190816114699190615706565b506003820181600301908161147e9190615706565b50600482018160040190816114939190615706565b506005820154816005015560068201548160060155600782018160070190816114bc9190615706565b5090505060126000601454815260200190815260200160002060008154809291906114e69061581d565b9190505550601160008773ffffffffffffffffffffffffffffffffffffffff1673ffffffffffffffffffffffffffffffffffffffff168152602001908152602001600020600081548092919061153b9061581d565b9190505550600660008773ffffffffffffffffffffffffffffffffffffffff1673ffffffffffffffffffffffffffffffffffffffff16815260200190815260200160002081908060018154018082558091505060019003906000526020600020906006020160009091909190915060008201548160000155600182018160010190816115c79190615706565b50600282018160020190816115dc9190615706565b50600382018160030190816115f19190615706565b5060048201548160040155600582015481600501555050600860006014548152602001908152602001600020829080600181540180825580915050600190039060005260206000209060080201600090919091909150600082015481600001556001820160009054906101000a900473ffffffffffffffffffffffffffffffffffffffff168160010160006101000a81548173ffffffffffffffffffffffffffffffffffffffff021916908373ffffffffffffffffffffffffffffffffffffffff160217905550600282018160020190816116cc9190615706565b50600382018160030190816116e19190615706565b50600482018160040190816116f69190615706565b5060058201548160050155600682015481600601556007820181600701908161171f9190615706565b5050506001600d84604051611734919061599c565b9081526020016040518091039020600082825461175191906159b3565b925050819055506014600081548092919061176b9061581d565b9190505550505050505050565b6008602052816000526040600020818154811061179457600080fd5b9060005260206000209060080201600091509150508060000154908060010160009054906101000a900473ffffffffffffffffffffffffffffffffffffffff16908060020180546117e490615513565b80601f016020809104026020016040519081016040528092919081815260200182805461181090615513565b801561185d5780601f106118325761010080835404028352916020019161185d565b820191906000526020600020905b81548152906001019060200180831161184057829003601f168201915b50505050509080600301805461187290615513565b80601f016020809104026020016040519081016040528092919081815260200182805461189e90615513565b80156118eb5780601f106118c0576101008083540402835291602001916118eb565b820191906000526020600020905b8154815290600101906020018083116118ce57829003601f168201915b50505050509080600401805461190090615513565b80601f016020809104026020016040519081016040528092919081815260200182805461192c90615513565b80156119795780601f1061194e57610100808354040283529160200191611979565b820191906000526020600020905b81548152906001019060200180831161195c57829003601f168201915b50505050509080600501549080600601549080600701805461199a90615513565b80601f01602080910402602001604051908101604052809291908181526020018280546119c690615513565b8015611a135780601f106119e857610100808354040283529160200191611a13565b820191906000526020600020905b8154815290600101906020018083116119f657829003601f168201915b5050505050905088565b600e60008573ffffffffffffffffffffffffffffffffffffffff1673ffffffffffffffffffffffffffffffffffffffff16815260200190815260200160002060009054906101000a900460ff16611a7357600080fd5b600060028481548110611a8957611a886154b5565b5b906000526020600020906006020190506000600560008773ffffffffffffffffffffffffffffffffffffffff1673ffffffffffffffffffffffffffffffffffffffff16815260200190815260200160002090508215611e9c57806005016000815480929190611af79061581d565b9190505550600660008773ffffffffffffffffffffffffffffffffffffffff1673ffffffffffffffffffffffffffffffffffffffff1681526020019081526020016000208290806001815401808255809150506001900390600052602060002090600602016000909190919091506000820154816000015560018201816001019081611b839190615706565b5060028201816002019081611b989190615706565b5060038201816003019081611bad9190615706565b5060048201548160040155600582015481600501555050816004016000815480929190611bd99061581d565b919050555060086000868152602001908152602001600020819080600181540180825580915050600190039060005260206000209060080201600090919091909150600082015481600001556001820160009054906101000a900473ffffffffffffffffffffffffffffffffffffffff168160010160006101000a81548173ffffffffffffffffffffffffffffffffffffffff021916908373ffffffffffffffffffffffffffffffffffffffff16021790555060028201816002019081611ca09190615706565b5060038201816003019081611cb59190615706565b5060048201816004019081611cca9190615706565b50600582015481600501556006820154816006015560078201816007019081611cf39190615706565b505050601160008260010160009054906101000a900473ffffffffffffffffffffffffffffffffffffffff1673ffffffffffffffffffffffffffffffffffffffff1673ffffffffffffffffffffffffffffffffffffffff1681526020019081526020016000206000815480929190611d6a9061581d565b9190505550601260008681526020019081526020016000206000815480929190611d939061581d565b9190505550806001826000015481548110611db157611db06154b5565b5b9060005260206000209060080201600082015481600001556001820160009054906101000a900473ffffffffffffffffffffffffffffffffffffffff168160010160006101000a81548173ffffffffffffffffffffffffffffffffffffffff021916908373ffffffffffffffffffffffffffffffffffffffff16021790555060028201816002019081611e449190615706565b5060038201816003019081611e599190615706565b5060048201816004019081611e6e9190615706565b50600582015481600501556006820154816006015560078201816007019081611e979190615706565b509050505b816005016000815480929190611eb190615865565b9190505550600960008681526020019081526020016000208481548110611edb57611eda6154b5565b5b90600052602060002090600802016000808201600090556001820160006101000a81549073ffffffffffffffffffffffffffffffffffffffff0219169055600282016000611f299190614931565b600382016000611f399190614931565b600482016000611f499190614931565b60058201600090556006820160009055600782016000611f699190614931565b5050505050505050565b60096020528160005260406000208181548110611f8f57600080fd5b9060005260206000209060080201600091509150508060000154908060010160009054906101000a900473ffffffffffffffffffffffffffffffffffffffff1690806002018054611fdf90615513565b80601f016020809104026020016040519081016040528092919081815260200182805461200b90615513565b80156120585780601f1061202d57610100808354040283529160200191612058565b820191906000526020600020905b81548152906001019060200180831161203b57829003601f168201915b50505050509080600301805461206d90615513565b80601f016020809104026020016040519081016040528092919081815260200182805461209990615513565b80156120e65780601f106120bb576101008083540402835291602001916120e6565b820191906000526020600020905b8154815290600101906020018083116120c957829003601f168201915b5050505050908060040180546120fb90615513565b80601f016020809104026020016040519081016040528092919081815260200182805461212790615513565b80156121745780601f1061214957610100808354040283529160200191612174565b820191906000526020600020905b81548152906001019060200180831161215757829003601f168201915b50505050509080600501549080600601549080600701805461219590615513565b80601f01602080910402602001604051908101604052809291908181526020018280546121c190615513565b801561220e5780601f106121e35761010080835404028352916020019161220e565b820191906000526020600020905b8154815290600101906020018083116121f157829003601f168201915b5050505050905088565b60008054906101000a900473ffffffffffffffffffffffffffffffffffffffff1681565b60078180516020810182018051848252602083016020850120818352809550505050505060009150905080600001549080600101805461227b90615513565b80601f01602080910402602001604051908101604052809291908181526020018280546122a790615513565b80156122f45780601f106122c9576101008083540402835291602001916122f4565b820191906000526020600020905b8154815290600101906020018083116122d757829003601f168201915b50505050509080600201805461230990615513565b80601f016020809104026020016040519081016040528092919081815260200182805461233590615513565b80156123825780601f1061235757610100808354040283529160200191612382565b820191906000526020600020905b81548152906001019060200180831161236557829003601f168201915b50505050509080600301805461239790615513565b80601f01602080910402602001604051908101604052809291908181526020018280546123c390615513565b80156124105780601f106123e557610100808354040283529160200191612410565b820191906000526020600020905b8154815290600101906020018083116123f357829003601f168201915b5050505050908060040154908060050154905086565b600e60008373ffffffffffffffffffffffffffffffffffffffff1673ffffffffffffffffffffffffffffffffffffffff16815260200190815260200160002060009054906101000a900460ff1661247c57600080fd5b6000600560008473ffffffffffffffffffffffffffffffffffffffff1673ffffffffffffffffffffffffffffffffffffffff16815260200190815260200160002090506000600283815481106124d5576124d46154b5565b5b906000526020600020906006020190508060050160008154809291906124fa9061581d565b919050555060096000848152602001908152602001600020829080600181540180825580915050600190039060005260206000209060080201600090919091909150600082015481600001556001820160009054906101000a900473ffffffffffffffffffffffffffffffffffffffff168160010160006101000a81548173ffffffffffffffffffffffffffffffffffffffff021916908373ffffffffffffffffffffffffffffffffffffffff160217905550600282018160020190816125c19190615706565b50600382018160030190816125d69190615706565b50600482018160040190816125eb9190615706565b506005820154816005015560068201548160060155600782018160070190816126149190615706565b50505050505050565b6002818154811061262d57600080fd5b906000526020600020906006020160009150905080600001549080600101805461265690615513565b80601f016020809104026020016040519081016040528092919081815260200182805461268290615513565b80156126cf5780601f106126a4576101008083540402835291602001916126cf565b820191906000526020600020905b8154815290600101906020018083116126b257829003601f168201915b5050505050908060020180546126e490615513565b80601f016020809104026020016040519081016040528092919081815260200182805461271090615513565b801561275d5780601f106127325761010080835404028352916020019161275d565b820191906000526020600020905b81548152906001019060200180831161274057829003601f168201915b50505050509080600301805461277290615513565b80601f016020809104026020016040519081016040528092919081815260200182805461279e90615513565b80156127eb5780601f106127c0576101008083540402835291602001916127eb565b820191906000526020600020905b8154815290600101906020018083116127ce57829003601f168201915b5050505050908060040154908060050154905086565b600e60003373ffffffffffffffffffffffffffffffffffffffff1673ffffffffffffffffffffffffffffffffffffffff16815260200190815260200160002060009054906101000a900460ff1661285757600080fd5b6000600560008473ffffffffffffffffffffffffffffffffffffffff1673ffffffffffffffffffffffffffffffffffffffff16815260200190815260200160002090506000600283815481106128b0576128af6154b5565b5b906000526020600020906006020190508160060160008154809291906128d59061581d565b91905055508160018360000154815481106128f3576128f26154b5565b5b9060005260206000209060080201600082015481600001556001820160009054906101000a900473ffffffffffffffffffffffffffffffffffffffff168160010160006101000a81548173ffffffffffffffffffffffffffffffffffffffff021916908373ffffffffffffffffffffffffffffffffffffffff160217905550600282018160020190816129869190615706565b506003820181600301908161299b9190615706565b50600482018160040190816129b09190615706565b506005820154816005015560068201548160060155600782018160070190816129d99190615706565b50905050600a60008573ffffffffffffffffffffffffffffffffffffffff1673ffffffffffffffffffffffffffffffffffffffff1681526020019081526020016000208190806001815401808255809150506001900390600052602060002090600602016000909190919091506000820154816000015560018201816001019081612a649190615706565b5060028201816002019081612a799190615706565b5060038201816003019081612a8e9190615706565b506004820154816004015560058201548160050155505050505050565b60008054906101000a900473ffffffffffffffffffffffffffffffffffffffff1673ffffffffffffffffffffffffffffffffffffffff163373ffffffffffffffffffffffffffffffffffffffff1614612b39576040517f08c379a0000000000000000000000000000000000000000000000000000000008152600401612b3090615a59565b60405180910390fd5b8073ffffffffffffffffffffffffffffffffffffffff166108fc479081150290604051600060405180830381858888f19350505050158015612b7f573d6000803e3d6000fd5b5050565b60135481565b600d818051602081018201805184825260208301602085012081835280955050505050506000915090505481565b60018181548110612bc757600080fd5b90600052602060002090600802016000915090508060000154908060010160009054906101000a900473ffffffffffffffffffffffffffffffffffffffff1690806002018054612c1690615513565b80601f0160208091040260200160405190810160405280929190818152602001828054612c4290615513565b8015612c8f5780601f10612c6457610100808354040283529160200191612c8f565b820191906000526020600020905b815481529060010190602001808311612c7257829003601f168201915b505050505090806003018054612ca490615513565b80601f0160208091040260200160405190810160405280929190818152602001828054612cd090615513565b8015612d1d5780601f10612cf257610100808354040283529160200191612d1d565b820191906000526020600020905b815481529060010190602001808311612d0057829003601f168201915b505050505090806004018054612d3290615513565b80601f0160208091040260200160405190810160405280929190818152602001828054612d5e90615513565b8015612dab5780601f10612d8057610100808354040283529160200191612dab565b820191906000526020600020905b815481529060010190602001808311612d8e57829003601f168201915b505050505090806005015490806006015490806007018054612dcc90615513565b80601f0160208091040260200160405190810160405280929190818152602001828054612df890615513565b8015612e455780601f10612e1a57610100808354040283529160200191612e45565b820191906000526020600020905b815481529060010190602001808311612e2857829003601f168201915b5050505050905088565b60056020528060005260406000206000915090508060000154908060010160009054906101000a900473ffffffffffffffffffffffffffffffffffffffff1690806002018054612e9e90615513565b80601f0160208091040260200160405190810160405280929190818152602001828054612eca90615513565b8015612f175780601f10612eec57610100808354040283529160200191612f17565b820191906000526020600020905b815481529060010190602001808311612efa57829003601f168201915b505050505090806003018054612f2c90615513565b80601f0160208091040260200160405190810160405280929190818152602001828054612f5890615513565b8015612fa55780601f10612f7a57610100808354040283529160200191612fa5565b820191906000526020600020905b815481529060010190602001808311612f8857829003601f168201915b505050505090806004018054612fba90615513565b80601f0160208091040260200160405190810160405280929190818152602001828054612fe690615513565b80156130335780601f1061300857610100808354040283529160200191613033565b820191906000526020600020905b81548152906001019060200180831161301657829003601f168201915b50505050509080600501549080600601549080600701805461305490615513565b80601f016020809104026020016040519081016040528092919081815260200182805461308090615513565b80156130cd5780601f106130a2576101008083540402835291602001916130cd565b820191906000526020600020905b8154815290600101906020018083116130b057829003601f168201915b5050505050905088565b600e6020528060005260406000206000915054906101000a900460ff1681565b600e60008573ffffffffffffffffffffffffffffffffffffffff1673ffffffffffffffffffffffffffffffffffffffff16815260200190815260200160002060009054906101000a900460ff161561314e57600080fd5b600f8360405161315e919061599c565b908152602001604051809103902060009054906101000a900460ff161561318457600080fd5b60006001808160018154018082558091505003906000526020600020906008020190506013548160000181905550848160010160006101000a81548173ffffffffffffffffffffffffffffffffffffffff021916908373ffffffffffffffffffffffffffffffffffffffff16021790555083816002019081613206919061588e565b5082816003019081613218919061588e565b508181600401908161322a919061588e565b50600081600601819055506040518060400160405280600181526020017f300000000000000000000000000000000000000000000000000000000000000081525081600701908161327b919061588e565b5080600560008773ffffffffffffffffffffffffffffffffffffffff1673ffffffffffffffffffffffffffffffffffffffff168152602001908152602001600020600082015481600001556001820160009054906101000a900473ffffffffffffffffffffffffffffffffffffffff168160010160006101000a81548173ffffffffffffffffffffffffffffffffffffffff021916908373ffffffffffffffffffffffffffffffffffffffff160217905550600282018160020190816133419190615706565b50600382018160030190816133569190615706565b506004820181600401908161336b9190615706565b506005820154816005015560068201548160060155600782018160070190816133949190615706565b5090505080600b856040516133a9919061599c565b9081526020016040518091039020600082015481600001556001820160009054906101000a900473ffffffffffffffffffffffffffffffffffffffff168160010160006101000a81548173ffffffffffffffffffffffffffffffffffffffff021916908373ffffffffffffffffffffffffffffffffffffffff1602179055506002820181600201908161343c9190615706565b50600382018160030190816134519190615706565b50600482018160040190816134669190615706565b5060058201548160050155600682015481600601556007820181600701908161348f9190615706565b509050506001600e60008773ffffffffffffffffffffffffffffffffffffffff1673ffffffffffffffffffffffffffffffffffffffff16815260200190815260200160002060006101000a81548160ff0219169083151502179055506001600f856040516134fd919061599c565b908152602001604051809103902060006101000a81548160ff0219169083151502179055506001600c84604051613534919061599c565b9081526020016040518091039020600082825461355191906159b3565b9250508190555060016013600082825461356b91906159b3565b925050819055505050505050565b6004818154811061358957600080fd5b90600052602060002090600602016000915090508060000154908060010180546135b290615513565b80601f01602080910402602001604051908101604052809291908181526020018280546135de90615513565b801561362b5780601f106136005761010080835404028352916020019161362b565b820191906000526020600020905b81548152906001019060200180831161360e57829003601f168201915b50505050509080600201805461364090615513565b80601f016020809104026020016040519081016040528092919081815260200182805461366c90615513565b80156136b95780601f1061368e576101008083540402835291602001916136b9565b820191906000526020600020905b81548152906001019060200180831161369c57829003601f168201915b5050505050908060030180546136ce90615513565b80601f01602080910402602001604051908101604052809291908181526020018280546136fa90615513565b80156137475780601f1061371c57610100808354040283529160200191613747565b820191906000526020600020905b81548152906001019060200180831161372a57829003601f168201915b5050505050908060040154908060050154905086565b6006602052816000526040600020818154811061377957600080fd5b9060005260206000209060060201600091509150508060000154908060010180546137a390615513565b80601f01602080910402602001604051908101604052809291908181526020018280546137cf90615513565b801561381c5780601f106137f15761010080835404028352916020019161381c565b820191906000526020600020905b8154815290600101906020018083116137ff57829003601f168201915b50505050509080600201805461383190615513565b80601f016020809104026020016040519081016040528092919081815260200182805461385d90615513565b80156138aa5780601f1061387f576101008083540402835291602001916138aa565b820191906000526020600020905b81548152906001019060200180831161388d57829003601f168201915b5050505050908060030180546138bf90615513565b80601f01602080910402602001604051908101604052809291908181526020018280546138eb90615513565b80156139385780601f1061390d57610100808354040283529160200191613938565b820191906000526020600020905b81548152906001019060200180831161391b57829003601f168201915b5050505050908060040154908060050154905086565b60145481565b600e60003373ffffffffffffffffffffffffffffffffffffffff1673ffffffffffffffffffffffffffffffffffffffff16815260200190815260200160002060009054906101000a900460ff166139aa57600080fd5b600f836040516139ba919061599c565b908152602001604051809103902060009054906101000a900460ff16156139e057600080fd5b6000600560003373ffffffffffffffffffffffffffffffffffffffff1673ffffffffffffffffffffffffffffffffffffffff168152602001908152602001600020905083816002019081613a34919061588e565b5082816003019081613a46919061588e565b5081816004019081613a58919061588e565b50806001826000015481548110613a7257613a716154b5565b5b9060005260206000209060080201600082015481600001556001820160009054906101000a900473ffffffffffffffffffffffffffffffffffffffff168160010160006101000a81548173ffffffffffffffffffffffffffffffffffffffff021916908373ffffffffffffffffffffffffffffffffffffffff16021790555060028201816002019081613b059190615706565b5060038201816003019081613b1a9190615706565b5060048201816004019081613b2f9190615706565b50600582015481600501556006820154816006015560078201816007019081613b589190615706565b5090505050505050565b60038181548110613b7257600080fd5b90600052602060002090600802016000915090508060000154908060010160009054906101000a900473ffffffffffffffffffffffffffffffffffffffff1690806002018054613bc190615513565b80601f0160208091040260200160405190810160405280929190818152602001828054613bed90615513565b8015613c3a5780601f10613c0f57610100808354040283529160200191613c3a565b820191906000526020600020905b815481529060010190602001808311613c1d57829003601f168201915b505050505090806003018054613c4f90615513565b80601f0160208091040260200160405190810160405280929190818152602001828054613c7b90615513565b8015613cc85780601f10613c9d57610100808354040283529160200191613cc8565b820191906000526020600020905b815481529060010190602001808311613cab57829003601f168201915b505050505090806004018054613cdd90615513565b80601f0160208091040260200160405190810160405280929190818152602001828054613d0990615513565b8015613d565780601f10613d2b57610100808354040283529160200191613d56565b820191906000526020600020905b815481529060010190602001808311613d3957829003601f168201915b505050505090806005015490806006015490806007018054613d7790615513565b80601f0160208091040260200160405190810160405280929190818152602001828054613da390615513565b8015613df05780601f10613dc557610100808354040283529160200191613df0565b820191906000526020600020905b815481529060010190602001808311613dd357829003601f168201915b5050505050905088565b6010818051602081018201805184825260208301602085012081835280955050505050506000915054906101000a900460ff1681565b600e60008573ffffffffffffffffffffffffffffffffffffffff1673ffffffffffffffffffffffffffffffffffffffff16815260200190815260200160002060009054906101000a900460ff16613e8657600080fd5b6000600560008673ffffffffffffffffffffffffffffffffffffffff1673ffffffffffffffffffffffffffffffffffffffff1681526020019081526020016000209050600060028581548110613edf57613ede6154b5565b5b9060005260206000209060060201905082156142af57816005016000815480929190613f0a9061581d565b9190505550600660008773ffffffffffffffffffffffffffffffffffffffff1673ffffffffffffffffffffffffffffffffffffffff1681526020019081526020016000208190806001815401808255809150506001900390600052602060002090600602016000909190919091506000820154816000015560018201816001019081613f969190615706565b5060028201816002019081613fab9190615706565b5060038201816003019081613fc09190615706565b5060048201548160040155600582015481600501555050806004016000815480929190613fec9061581d565b919050555060086000868152602001908152602001600020829080600181540180825580915050600190039060005260206000209060080201600090919091909150600082015481600001556001820160009054906101000a900473ffffffffffffffffffffffffffffffffffffffff168160010160006101000a81548173ffffffffffffffffffffffffffffffffffffffff021916908373ffffffffffffffffffffffffffffffffffffffff160217905550600282018160020190816140b39190615706565b50600382018160030190816140c89190615706565b50600482018160040190816140dd9190615706565b506005820154816005015560068201548160060155600782018160070190816141069190615706565b505050601160008360010160009054906101000a900473ffffffffffffffffffffffffffffffffffffffff1673ffffffffffffffffffffffffffffffffffffffff1673ffffffffffffffffffffffffffffffffffffffff168152602001908152602001600020600081548092919061417d9061581d565b91905055506012600086815260200190815260200160002060008154809291906141a69061581d565b91905055508160018360000154815481106141c4576141c36154b5565b5b9060005260206000209060080201600082015481600001556001820160009054906101000a900473ffffffffffffffffffffffffffffffffffffffff168160010160006101000a81548173ffffffffffffffffffffffffffffffffffffffff021916908373ffffffffffffffffffffffffffffffffffffffff160217905550600282018160020190816142579190615706565b506003820181600301908161426c9190615706565b50600482018160040190816142819190615706565b506005820154816005015560068201548160060155600782018160070190816142aa9190615706565b509050505b8160060160008154809291906142c490615865565b91905055508160018360000154815481106142e2576142e16154b5565b5b9060005260206000209060080201600082015481600001556001820160009054906101000a900473ffffffffffffffffffffffffffffffffffffffff168160010160006101000a81548173ffffffffffffffffffffffffffffffffffffffff021916908373ffffffffffffffffffffffffffffffffffffffff160217905550600282018160020190816143759190615706565b506003820181600301908161438a9190615706565b506004820181600401908161439f9190615706565b506005820154816005015560068201548160060155600782018160070190816143c89190615706565b50905050600a60008773ffffffffffffffffffffffffffffffffffffffff1673ffffffffffffffffffffffffffffffffffffffff168152602001908152602001600020848154811061441d5761441c6154b5565b5b90600052602060002090600602016000808201600090556001820160006144449190614931565b6002820160006144549190614931565b6003820160006144649190614931565b600482016000905560058201600090555050505050505050565b600b818051602081018201805184825260208301602085012081835280955050505050506000915090508060000154908060010160009054906101000a900473ffffffffffffffffffffffffffffffffffffffff16908060020180546144e390615513565b80601f016020809104026020016040519081016040528092919081815260200182805461450f90615513565b801561455c5780601f106145315761010080835404028352916020019161455c565b820191906000526020600020905b81548152906001019060200180831161453f57829003601f168201915b50505050509080600301805461457190615513565b80601f016020809104026020016040519081016040528092919081815260200182805461459d90615513565b80156145ea5780601f106145bf576101008083540402835291602001916145ea565b820191906000526020600020905b8154815290600101906020018083116145cd57829003601f168201915b5050505050908060040180546145ff90615513565b80601f016020809104026020016040519081016040528092919081815260200182805461462b90615513565b80156146785780601f1061464d57610100808354040283529160200191614678565b820191906000526020600020905b81548152906001019060200180831161465b57829003601f168201915b50505050509080600501549080600601549080600701805461469990615513565b80601f01602080910402602001604051908101604052809291908181526020018280546146c590615513565b80156147125780601f106146e757610100808354040283529160200191614712565b820191906000526020600020905b8154815290600101906020018083116146f557829003601f168201915b5050505050905088565b600a602052816000526040600020818154811061473857600080fd5b90600052602060002090600602016000915091505080600001549080600101805461476290615513565b80601f016020809104026020016040519081016040528092919081815260200182805461478e90615513565b80156147db5780601f106147b0576101008083540402835291602001916147db565b820191906000526020600020905b8154815290600101906020018083116147be57829003601f168201915b5050505050908060020180546147f090615513565b80601f016020809104026020016040519081016040528092919081815260200182805461481c90615513565b80156148695780601f1061483e57610100808354040283529160200191614869565b820191906000526020600020905b81548152906001019060200180831161484c57829003601f168201915b50505050509080600301805461487e90615513565b80601f01602080910402602001604051908101604052809291908181526020018280546148aa90615513565b80156148f75780601f106148cc576101008083540402835291602001916148f7565b820191906000526020600020905b8154815290600101906020018083116148da57829003601f168201915b5050505050908060040154908060050154905086565b508054600082556008029060005260206000209081019061492e9190614995565b50565b50805461493d90615513565b6000825580601f1061494f575061496e565b601f01602090049060005260206000209081019061496d9190614a2b565b5b50565b50805460008255600602906000526020600020908101906149929190614a48565b50565b5b80821115614a27576000808201600090556001820160006101000a81549073ffffffffffffffffffffffffffffffffffffffff02191690556002820160006149de9190614931565b6003820160006149ee9190614931565b6004820160006149fe9190614931565b60058201600090556006820160009055600782016000614a1e9190614931565b50600801614996565b5090565b5b80821115614a44576000816000905550600101614a2c565b5090565b5b80821115614aa357600080820160009055600182016000614a6a9190614931565b600282016000614a7a9190614931565b600382016000614a8a9190614931565b6004820160009055600582016000905550600601614a49565b5090565b6000604051905090565b600080fd5b600080fd5b6000819050919050565b614ace81614abb565b8114614ad957600080fd5b50565b600081359050614aeb81614ac5565b92915050565b600060208284031215614b0757614b06614ab1565b5b6000614b1584828501614adc565b91505092915050565b614b2781614abb565b82525050565b6000602082019050614b426000830184614b1e565b92915050565b600080fd5b6000601f19601f8301169050919050565b7f4e487b7100000000000000000000000000000000000000000000000000000000600052604160045260246000fd5b614b9682614b4d565b810181811067ffffffffffffffff82111715614bb557614bb4614b5e565b5b80604052505050565b6000614bc8614aa7565b9050614bd48282614b8d565b919050565b600067ffffffffffffffff821115614bf457614bf3614b5e565b5b602082029050602081019050919050565b600080fd5b600073ffffffffffffffffffffffffffffffffffffffff82169050919050565b6000614c3582614c0a565b9050919050565b614c4581614c2a565b8114614c5057600080fd5b50565b600081359050614c6281614c3c565b92915050565b6000614c7b614c7684614bd9565b614bbe565b90508083825260208201905060208402830185811115614c9e57614c9d614c05565b5b835b81811015614cc75780614cb38882614c53565b845260208401935050602081019050614ca0565b5050509392505050565b600082601f830112614ce657614ce5614b48565b5b8135614cf6848260208601614c68565b91505092915050565b600060208284031215614d1557614d14614ab1565b5b600082013567ffffffffffffffff811115614d3357614d32614ab6565b5b614d3f84828501614cd1565b91505092915050565b60008060008060808587031215614d6257614d61614ab1565b5b6000614d7087828801614adc565b9450506020614d8187828801614c53565b9350506040614d9287828801614adc565b9250506060614da387828801614adc565b91505092959194509250565b600067ffffffffffffffff821115614dca57614dc9614b5e565b5b602082029050602081019050919050565b6000614dee614de984614daf565b614bbe565b90508083825260208201905060208402830185811115614e1157614e10614c05565b5b835b81811015614e3a5780614e268882614adc565b845260208401935050602081019050614e13565b5050509392505050565b600082601f830112614e5957614e58614b48565b5b8135614e69848260208601614ddb565b91505092915050565b600060208284031215614e8857614e87614ab1565b5b600082013567ffffffffffffffff811115614ea657614ea5614ab6565b5b614eb284828501614e44565b91505092915050565b600080fd5b600067ffffffffffffffff821115614edb57614eda614b5e565b5b614ee482614b4d565b9050602081019050919050565b82818337600083830152505050565b6000614f13614f0e84614ec0565b614bbe565b905082815260208101848484011115614f2f57614f2e614ebb565b5b614f3a848285614ef1565b509392505050565b600082601f830112614f5757614f56614b48565b5b8135614f67848260208601614f00565b91505092915050565b600060208284031215614f8657614f85614ab1565b5b600082013567ffffffffffffffff811115614fa457614fa3614ab6565b5b614fb084828501614f42565b91505092915050565b600060208284031215614fcf57614fce614ab1565b5b6000614fdd84828501614c53565b91505092915050565b60008115159050919050565b614ffb81614fe6565b82525050565b60006020820190506150166000830184614ff2565b92915050565b6000806000806080858703121561503657615035614ab1565b5b600061504487828801614c53565b945050602085013567ffffffffffffffff81111561506557615064614ab6565b5b61507187828801614f42565b935050604085013567ffffffffffffffff81111561509257615091614ab6565b5b61509e87828801614f42565b925050606085013567ffffffffffffffff8111156150bf576150be614ab6565b5b6150cb87828801614f42565b91505092959194509250565b600080604083850312156150ee576150ed614ab1565b5b60006150fc85828601614adc565b925050602061510d85828601614adc565b9150509250929050565b61512081614c2a565b82525050565b600081519050919050565b600082825260208201905092915050565b60005b83811015615160578082015181840152602081019050615145565b60008484015250505050565b600061517782615126565b6151818185615131565b9350615191818560208601615142565b61519a81614b4d565b840191505092915050565b6000610100820190506151bb600083018b614b1e565b6151c8602083018a615117565b81810360408301526151da818961516c565b905081810360608301526151ee818861516c565b90508181036080830152615202818761516c565b905061521160a0830186614b1e565b61521e60c0830185614b1e565b81810360e0830152615230818461516c565b90509998505050505050505050565b61524881614fe6565b811461525357600080fd5b50565b6000813590506152658161523f565b92915050565b6000806000806080858703121561528557615284614ab1565b5b600061529387828801614c53565b94505060206152a487828801614adc565b93505060406152b587828801614adc565b92505060606152c687828801615256565b91505092959194509250565b60006020820190506152e76000830184615117565b92915050565b600060c0820190506153026000830189614b1e565b8181036020830152615314818861516c565b90508181036040830152615328818761516c565b9050818103606083015261533c818661516c565b905061534b6080830185614b1e565b61535860a0830184614b1e565b979650505050505050565b6000806040838503121561537a57615379614ab1565b5b600061538885828601614c53565b925050602061539985828601614adc565b9150509250929050565b60006153ae82614c0a565b9050919050565b6153be816153a3565b81146153c957600080fd5b50565b6000813590506153db816153b5565b92915050565b6000602082840312156153f7576153f6614ab1565b5b6000615405848285016153cc565b91505092915050565b60008060006060848603121561542757615426614ab1565b5b600084013567ffffffffffffffff81111561544557615444614ab6565b5b61545186828701614f42565b935050602084013567ffffffffffffffff81111561547257615471614ab6565b5b61547e86828701614f42565b925050604084013567ffffffffffffffff81111561549f5761549e614ab6565b5b6154ab86828701614f42565b9150509250925092565b7f4e487b7100000000000000000000000000000000000000000000000000000000600052603260045260246000fd5b7f4e487b7100000000000000000000000000000000000000000000000000000000600052602260045260246000fd5b6000600282049050600182168061552b57607f821691505b60208210810361553e5761553d6154e4565b5b50919050565b60008154905061555381615513565b9050919050565b60008190508160005260206000209050919050565b60006020601f8301049050919050565b600082821b905092915050565b6000600883026155bc7fffffffffffffffffffffffffffffffffffffffffffffffffffffffffffffffff8261557f565b6155c6868361557f565b95508019841693508086168417925050509392505050565b6000819050919050565b60006156036155fe6155f984614abb565b6155de565b614abb565b9050919050565b6000819050919050565b61561d836155e8565b6156316156298261560a565b84845461558c565b825550505050565b600090565b615646615639565b615651818484615614565b505050565b5b818110156156755761566a60008261563e565b600181019050615657565b5050565b601f8211156156ba5761568b8161555a565b6156948461556f565b810160208510156156a3578190505b6156b76156af8561556f565b830182615656565b50505b505050565b600082821c905092915050565b60006156dd600019846008026156bf565b1980831691505092915050565b60006156f683836156cc565b9150826002028217905092915050565b8181036157145750506157ec565b61571d82615544565b67ffffffffffffffff81111561573657615735614b5e565b5b6157408254615513565b61574b828285615679565b6000601f83116001811461577a5760008415615768578287015490505b61577285826156ea565b8655506157e5565b601f1984166157888761555a565b96506157938661555a565b60005b828110156157bb57848901548255600182019150600185019450602081019050615796565b868310156157d857848901546157d4601f8916826156cc565b8355505b6001600288020188555050505b5050505050505b565b7f4e487b7100000000000000000000000000000000000000000000000000000000600052601160045260246000fd5b600061582882614abb565b91507fffffffffffffffffffffffffffffffffffffffffffffffffffffffffffffffff820361585a576158596157ee565b5b600182019050919050565b600061587082614abb565b915060008203615883576158826157ee565b5b600182039050919050565b61589782615126565b67ffffffffffffffff8111156158b0576158af614b5e565b5b6158ba8254615513565b6158c5828285615679565b600060209050601f8311600181146158f857600084156158e6578287015190505b6158f085826156ea565b865550615958565b601f1984166159068661555a565b60005b8281101561592e57848901518255600182019150602085019450602081019050615909565b8683101561594b5784890151615947601f8916826156cc565b8355505b6001600288020188555050505b505050505050565b600081905092915050565b600061597682615126565b6159808185615960565b9350615990818560208601615142565b80840191505092915050565b60006159a8828461596b565b915081905092915050565b60006159be82614abb565b91506159c983614abb565b92508282019050808211156159e1576159e06157ee565b5b92915050565b7f4f6e6c7920746865206d616e616765722063616e207472616e7366657220457460008201527f6865722e00000000000000000000000000000000000000000000000000000000602082015250565b6000615a43602483615131565b9150615a4e826159e7565b604082019050919050565b60006020820190508181036000830152615a7281615a36565b905091905056fea26469706673582212201d6f5385e84d85acdea23b928deed670ed74109dfa175d6b41a7e36c2ea0895264736f6c63430008120033","opcodes":"PUSH1 0x80 PUSH1 0x40 MSTORE CALLVALUE DUP1 ISZERO PUSH2 0x10 JUMPI PUSH1 0x0 DUP1 REVERT JUMPDEST POP CALLER PUSH1 0x0 DUP1 PUSH2 0x100 EXP DUP2 SLOAD DUP2 PUSH20 0xFFFFFFFFFFFFFFFFFFFFFFFFFFFFFFFFFFFFFFFF MUL NOT AND SWAP1 DUP4 PUSH20 0xFFFFFFFFFFFFFFFFFFFFFFFFFFFFFFFFFFFFFFFF AND MUL OR SWAP1 SSTORE POP PUSH2 0x5AAF DUP1 PUSH3 0x61 PUSH1 0x0 CODECOPY PUSH1 0x0 RETURN INVALID PUSH1 0x80 PUSH1 0x40 MSTORE PUSH1 0x4 CALLDATASIZE LT PUSH2 0x1ED JUMPI PUSH1 0x0 CALLDATALOAD PUSH1 0xE0 SHR DUP1 PUSH4 0x56C720C3 GT PUSH2 0x10D JUMPI DUP1 PUSH4 0xC6242A8F GT PUSH2 0xA0 JUMPI DUP1 PUSH4 0xD6F775C0 GT PUSH2 0x6F JUMPI DUP1 PUSH4 0xD6F775C0 EQ PUSH2 0x73A JUMPI DUP1 PUSH4 0xE365A29F EQ PUSH2 0x77E JUMPI DUP1 PUSH4 0xF5AB5DDE EQ PUSH2 0x7BB JUMPI DUP1 PUSH4 0xF778D27B EQ PUSH2 0x7D7 JUMPI DUP1 PUSH4 0xFEEF5E91 EQ PUSH2 0x81B JUMPI PUSH2 0x1ED JUMP JUMPDEST DUP1 PUSH4 0xC6242A8F EQ PUSH2 0x66F JUMPI DUP1 PUSH4 0xC723BF86 EQ PUSH2 0x6B1 JUMPI DUP1 PUSH4 0xC73B302E EQ PUSH2 0x6F3 JUMPI DUP1 PUSH4 0xD05857E0 EQ PUSH2 0x71E JUMPI PUSH2 0x1ED JUMP JUMPDEST DUP1 PUSH4 0xA2BDEDF4 GT PUSH2 0xDC JUMPI DUP1 PUSH4 0xA2BDEDF4 EQ PUSH2 0x58E JUMPI DUP1 PUSH4 0xA87430BA EQ PUSH2 0x5D2 JUMPI DUP1 PUSH4 0xAC2C9C0F EQ PUSH2 0x616 JUMPI DUP1 PUSH4 0xC610D2CE EQ PUSH2 0x653 JUMPI PUSH2 0x1ED JUMP JUMPDEST DUP1 PUSH4 0x56C720C3 EQ PUSH2 0x4E1 JUMPI DUP1 PUSH4 0x6B55E991 EQ PUSH2 0x4FD JUMPI DUP1 PUSH4 0x6BA13A82 EQ PUSH2 0x526 JUMPI DUP1 PUSH4 0x9039B99E EQ PUSH2 0x551 JUMPI PUSH2 0x1ED JUMP JUMPDEST DUP1 PUSH4 0x30314FEE GT PUSH2 0x185 JUMPI DUP1 PUSH4 0x481C6A75 GT PUSH2 0x154 JUMPI DUP1 PUSH4 0x481C6A75 EQ PUSH2 0x416 JUMPI DUP1 PUSH4 0x4B77F269 EQ PUSH2 0x441 JUMPI DUP1 PUSH4 0x4FC0F8BA EQ PUSH2 0x483 JUMPI DUP1 PUSH4 0x53B3194C EQ PUSH2 0x49F JUMPI PUSH2 0x1ED JUMP JUMPDEST DUP1 PUSH4 0x30314FEE EQ PUSH2 0x356 JUMPI DUP1 PUSH4 0x37D3F4FA EQ PUSH2 0x372 JUMPI DUP1 PUSH4 0x3A4017B4 EQ PUSH2 0x3B6 JUMPI DUP1 PUSH4 0x448CD56E EQ PUSH2 0x3D2 JUMPI PUSH2 0x1ED JUMP JUMPDEST DUP1 PUSH4 0x19266C51 GT PUSH2 0x1C1 JUMPI DUP1 PUSH4 0x19266C51 EQ PUSH2 0x283 JUMPI DUP1 PUSH4 0x1B0004D9 EQ PUSH2 0x29F JUMPI DUP1 PUSH4 0x1EC7D4AD EQ PUSH2 0x2DC JUMPI DUP1 PUSH4 0x2F3F680C EQ PUSH2 0x319 JUMPI PUSH2 0x1ED JUMP JUMPDEST DUP1 PUSH3 0x3BD288 EQ PUSH2 0x1F2 JUMPI DUP1 PUSH4 0x1F2B011 EQ PUSH2 0x22F JUMPI DUP1 PUSH4 0x4C2EAAB EQ PUSH2 0x24B JUMPI DUP1 PUSH4 0x1453D9F2 EQ PUSH2 0x267 JUMPI JUMPDEST PUSH1 0x0 DUP1 REVERT JUMPDEST CALLVALUE DUP1 ISZERO PUSH2 0x1FE JUMPI PUSH1 0x0 DUP1 REVERT JUMPDEST POP PUSH2 0x219 PUSH1 0x4 DUP1 CALLDATASIZE SUB DUP2 ADD SWAP1 PUSH2 0x214 SWAP2 SWAP1 PUSH2 0x4AF1 JUMP JUMPDEST PUSH2 0x85D JUMP JUMPDEST PUSH1 0x40 MLOAD PUSH2 0x226 SWAP2 SWAP1 PUSH2 0x4B2D JUMP JUMPDEST PUSH1 0x40 MLOAD DUP1 SWAP2 SUB SWAP1 RETURN JUMPDEST PUSH2 0x249 PUSH1 0x4 DUP1 CALLDATASIZE SUB DUP2 ADD SWAP1 PUSH2 0x244 SWAP2 SWAP1 PUSH2 0x4CFF JUMP JUMPDEST PUSH2 0x875 JUMP JUMPDEST STOP JUMPDEST PUSH2 0x265 PUSH1 0x4 DUP1 CALLDATASIZE SUB DUP2 ADD SWAP1 PUSH2 0x260 SWAP2 SWAP1 PUSH2 0x4D48 JUMP JUMPDEST PUSH2 0xA5D JUMP JUMPDEST STOP JUMPDEST PUSH2 0x281 PUSH1 0x4 DUP1 CALLDATASIZE SUB DUP2 ADD SWAP1 PUSH2 0x27C SWAP2 SWAP1 PUSH2 0x4E72 JUMP JUMPDEST PUSH2 0xE78 JUMP JUMPDEST STOP JUMPDEST PUSH2 0x29D PUSH1 0x4 DUP1 CALLDATASIZE SUB DUP2 ADD SWAP1 PUSH2 0x298 SWAP2 SWAP1 PUSH2 0x4F70 JUMP JUMPDEST PUSH2 0xFC7 JUMP JUMPDEST STOP JUMPDEST CALLVALUE DUP1 ISZERO PUSH2 0x2AB JUMPI PUSH1 0x0 DUP1 REVERT JUMPDEST POP PUSH2 0x2C6 PUSH1 0x4 DUP1 CALLDATASIZE SUB DUP2 ADD SWAP1 PUSH2 0x2C1 SWAP2 SWAP1 PUSH2 0x4F70 JUMP JUMPDEST PUSH2 0x1179 JUMP JUMPDEST PUSH1 0x40 MLOAD PUSH2 0x2D3 SWAP2 SWAP1 PUSH2 0x4B2D JUMP JUMPDEST PUSH1 0x40 MLOAD DUP1 SWAP2 SUB SWAP1 RETURN JUMPDEST CALLVALUE DUP1 ISZERO PUSH2 0x2E8 JUMPI PUSH1 0x0 DUP1 REVERT JUMPDEST POP PUSH2 0x303 PUSH1 0x4 DUP1 CALLDATASIZE SUB DUP2 ADD SWAP1 PUSH2 0x2FE SWAP2 SWAP1 PUSH2 0x4FB9 JUMP JUMPDEST PUSH2 0x11A7 JUMP JUMPDEST PUSH1 0x40 MLOAD PUSH2 0x310 SWAP2 SWAP1 PUSH2 0x4B2D JUMP JUMPDEST PUSH1 0x40 MLOAD DUP1 SWAP2 SUB SWAP1 RETURN JUMPDEST CALLVALUE DUP1 ISZERO PUSH2 0x325 JUMPI PUSH1 0x0 DUP1 REVERT JUMPDEST POP PUSH2 0x340 PUSH1 0x4 DUP1 CALLDATASIZE SUB DUP2 ADD SWAP1 PUSH2 0x33B SWAP2 SWAP1 PUSH2 0x4F70 JUMP JUMPDEST PUSH2 0x11BF JUMP JUMPDEST PUSH1 0x40 MLOAD PUSH2 0x34D SWAP2 SWAP1 PUSH2 0x5001 JUMP JUMPDEST PUSH1 0x40 MLOAD DUP1 SWAP2 SUB SWAP1 RETURN JUMPDEST PUSH2 0x370 PUSH1 0x4 DUP1 CALLDATASIZE SUB DUP2 ADD SWAP1 PUSH2 0x36B SWAP2 SWAP1 PUSH2 0x501C JUMP JUMPDEST PUSH2 0x11F5 JUMP JUMPDEST STOP JUMPDEST CALLVALUE DUP1 ISZERO PUSH2 0x37E JUMPI PUSH1 0x0 DUP1 REVERT JUMPDEST POP PUSH2 0x399 PUSH1 0x4 DUP1 CALLDATASIZE SUB DUP2 ADD SWAP1 PUSH2 0x394 SWAP2 SWAP1 PUSH2 0x50D7 JUMP JUMPDEST PUSH2 0x1778 JUMP JUMPDEST PUSH1 0x40 MLOAD PUSH2 0x3AD SWAP9 SWAP8 SWAP7 SWAP6 SWAP5 SWAP4 SWAP3 SWAP2 SWAP1 PUSH2 0x51A5 JUMP JUMPDEST PUSH1 0x40 MLOAD DUP1 SWAP2 SUB SWAP1 RETURN JUMPDEST PUSH2 0x3D0 PUSH1 0x4 DUP1 CALLDATASIZE SUB DUP2 ADD SWAP1 PUSH2 0x3CB SWAP2 SWAP1 PUSH2 0x526B JUMP JUMPDEST PUSH2 0x1A1D JUMP JUMPDEST STOP JUMPDEST CALLVALUE DUP1 ISZERO PUSH2 0x3DE JUMPI PUSH1 0x0 DUP1 REVERT JUMPDEST POP PUSH2 0x3F9 PUSH1 0x4 DUP1 CALLDATASIZE SUB DUP2 ADD SWAP1 PUSH2 0x3F4 SWAP2 SWAP1 PUSH2 0x50D7 JUMP JUMPDEST PUSH2 0x1F73 JUMP JUMPDEST PUSH1 0x40 MLOAD PUSH2 0x40D SWAP9 SWAP8 SWAP7 SWAP6 SWAP5 SWAP4 SWAP3 SWAP2 SWAP1 PUSH2 0x51A5 JUMP JUMPDEST PUSH1 0x40 MLOAD DUP1 SWAP2 SUB SWAP1 RETURN JUMPDEST CALLVALUE DUP1 ISZERO PUSH2 0x422 JUMPI PUSH1 0x0 DUP1 REVERT JUMPDEST POP PUSH2 0x42B PUSH2 0x2218 JUMP JUMPDEST PUSH1 0x40 MLOAD PUSH2 0x438 SWAP2 SWAP1 PUSH2 0x52D2 JUMP JUMPDEST PUSH1 0x40 MLOAD DUP1 SWAP2 SUB SWAP1 RETURN JUMPDEST CALLVALUE DUP1 ISZERO PUSH2 0x44D JUMPI PUSH1 0x0 DUP1 REVERT JUMPDEST POP PUSH2 0x468 PUSH1 0x4 DUP1 CALLDATASIZE SUB DUP2 ADD SWAP1 PUSH2 0x463 SWAP2 SWAP1 PUSH2 0x4F70 JUMP JUMPDEST PUSH2 0x223C JUMP JUMPDEST PUSH1 0x40 MLOAD PUSH2 0x47A SWAP7 SWAP6 SWAP5 SWAP4 SWAP3 SWAP2 SWAP1 PUSH2 0x52ED JUMP JUMPDEST PUSH1 0x40 MLOAD DUP1 SWAP2 SUB SWAP1 RETURN JUMPDEST PUSH2 0x49D PUSH1 0x4 DUP1 CALLDATASIZE SUB DUP2 ADD SWAP1 PUSH2 0x498 SWAP2 SWAP1 PUSH2 0x5363 JUMP JUMPDEST PUSH2 0x2426 JUMP JUMPDEST STOP JUMPDEST CALLVALUE DUP1 ISZERO PUSH2 0x4AB JUMPI PUSH1 0x0 DUP1 REVERT JUMPDEST POP PUSH2 0x4C6 PUSH1 0x4 DUP1 CALLDATASIZE SUB DUP2 ADD SWAP1 PUSH2 0x4C1 SWAP2 SWAP1 PUSH2 0x4AF1 JUMP JUMPDEST PUSH2 0x261D JUMP JUMPDEST PUSH1 0x40 MLOAD PUSH2 0x4D8 SWAP7 SWAP6 SWAP5 SWAP4 SWAP3 SWAP2 SWAP1 PUSH2 0x52ED JUMP JUMPDEST PUSH1 0x40 MLOAD DUP1 SWAP2 SUB SWAP1 RETURN JUMPDEST PUSH2 0x4FB PUSH1 0x4 DUP1 CALLDATASIZE SUB DUP2 ADD SWAP1 PUSH2 0x4F6 SWAP2 SWAP1 PUSH2 0x5363 JUMP JUMPDEST PUSH2 0x2801 JUMP JUMPDEST STOP JUMPDEST CALLVALUE DUP1 ISZERO PUSH2 0x509 JUMPI PUSH1 0x0 DUP1 REVERT JUMPDEST POP PUSH2 0x524 PUSH1 0x4 DUP1 CALLDATASIZE SUB DUP2 ADD SWAP1 PUSH2 0x51F SWAP2 SWAP1 PUSH2 0x53E1 JUMP JUMPDEST PUSH2 0x2AAB JUMP JUMPDEST STOP JUMPDEST CALLVALUE DUP1 ISZERO PUSH2 0x532 JUMPI PUSH1 0x0 DUP1 REVERT JUMPDEST POP PUSH2 0x53B PUSH2 0x2B83 JUMP JUMPDEST PUSH1 0x40 MLOAD PUSH2 0x548 SWAP2 SWAP1 PUSH2 0x4B2D JUMP JUMPDEST PUSH1 0x40 MLOAD DUP1 SWAP2 SUB SWAP1 RETURN JUMPDEST CALLVALUE DUP1 ISZERO PUSH2 0x55D JUMPI PUSH1 0x0 DUP1 REVERT JUMPDEST POP PUSH2 0x578 PUSH1 0x4 DUP1 CALLDATASIZE SUB DUP2 ADD SWAP1 PUSH2 0x573 SWAP2 SWAP1 PUSH2 0x4F70 JUMP JUMPDEST PUSH2 0x2B89 JUMP JUMPDEST PUSH1 0x40 MLOAD PUSH2 0x585 SWAP2 SWAP1 PUSH2 0x4B2D JUMP JUMPDEST PUSH1 0x40 MLOAD DUP1 SWAP2 SUB SWAP1 RETURN JUMPDEST CALLVALUE DUP1 ISZERO PUSH2 0x59A JUMPI PUSH1 0x0 DUP1 REVERT JUMPDEST POP PUSH2 0x5B5 PUSH1 0x4 DUP1 CALLDATASIZE SUB DUP2 ADD SWAP1 PUSH2 0x5B0 SWAP2 SWAP1 PUSH2 0x4AF1 JUMP JUMPDEST PUSH2 0x2BB7 JUMP JUMPDEST PUSH1 0x40 MLOAD PUSH2 0x5C9 SWAP9 SWAP8 SWAP7 SWAP6 SWAP5 SWAP4 SWAP3 SWAP2 SWAP1 PUSH2 0x51A5 JUMP JUMPDEST PUSH1 0x40 MLOAD DUP1 SWAP2 SUB SWAP1 RETURN JUMPDEST CALLVALUE DUP1 ISZERO PUSH2 0x5DE JUMPI PUSH1 0x0 DUP1 REVERT JUMPDEST POP PUSH2 0x5F9 PUSH1 0x4 DUP1 CALLDATASIZE SUB DUP2 ADD SWAP1 PUSH2 0x5F4 SWAP2 SWAP1 PUSH2 0x4FB9 JUMP JUMPDEST PUSH2 0x2E4F JUMP JUMPDEST PUSH1 0x40 MLOAD PUSH2 0x60D SWAP9 SWAP8 SWAP7 SWAP6 SWAP5 SWAP4 SWAP3 SWAP2 SWAP1 PUSH2 0x51A5 JUMP JUMPDEST PUSH1 0x40 MLOAD DUP1 SWAP2 SUB SWAP1 RETURN JUMPDEST CALLVALUE DUP1 ISZERO PUSH2 0x622 JUMPI PUSH1 0x0 DUP1 REVERT JUMPDEST POP PUSH2 0x63D PUSH1 0x4 DUP1 CALLDATASIZE SUB DUP2 ADD SWAP1 PUSH2 0x638 SWAP2 SWAP1 PUSH2 0x4FB9 JUMP JUMPDEST PUSH2 0x30D7 JUMP JUMPDEST PUSH1 0x40 MLOAD PUSH2 0x64A SWAP2 SWAP1 PUSH2 0x5001 JUMP JUMPDEST PUSH1 0x40 MLOAD DUP1 SWAP2 SUB SWAP1 RETURN JUMPDEST PUSH2 0x66D PUSH1 0x4 DUP1 CALLDATASIZE SUB DUP2 ADD SWAP1 PUSH2 0x668 SWAP2 SWAP1 PUSH2 0x501C JUMP JUMPDEST PUSH2 0x30F7 JUMP JUMPDEST STOP JUMPDEST CALLVALUE DUP1 ISZERO PUSH2 0x67B JUMPI PUSH1 0x0 DUP1 REVERT JUMPDEST POP PUSH2 0x696 PUSH1 0x4 DUP1 CALLDATASIZE SUB DUP2 ADD SWAP1 PUSH2 0x691 SWAP2 SWAP1 PUSH2 0x4AF1 JUMP JUMPDEST PUSH2 0x3579 JUMP JUMPDEST PUSH1 0x40 MLOAD PUSH2 0x6A8 SWAP7 SWAP6 SWAP5 SWAP4 SWAP3 SWAP2 SWAP1 PUSH2 0x52ED JUMP JUMPDEST PUSH1 0x40 MLOAD DUP1 SWAP2 SUB SWAP1 RETURN JUMPDEST CALLVALUE DUP1 ISZERO PUSH2 0x6BD JUMPI PUSH1 0x0 DUP1 REVERT JUMPDEST POP PUSH2 0x6D8 PUSH1 0x4 DUP1 CALLDATASIZE SUB DUP2 ADD SWAP1 PUSH2 0x6D3 SWAP2 SWAP1 PUSH2 0x5363 JUMP JUMPDEST PUSH2 0x375D JUMP JUMPDEST PUSH1 0x40 MLOAD PUSH2 0x6EA SWAP7 SWAP6 SWAP5 SWAP4 SWAP3 SWAP2 SWAP1 PUSH2 0x52ED JUMP JUMPDEST PUSH1 0x40 MLOAD DUP1 SWAP2 SUB SWAP1 RETURN JUMPDEST CALLVALUE DUP1 ISZERO PUSH2 0x6FF JUMPI PUSH1 0x0 DUP1 REVERT JUMPDEST POP PUSH2 0x708 PUSH2 0x394E JUMP JUMPDEST PUSH1 0x40 MLOAD PUSH2 0x715 SWAP2 SWAP1 PUSH2 0x4B2D JUMP JUMPDEST PUSH1 0x40 MLOAD DUP1 SWAP2 SUB SWAP1 RETURN JUMPDEST PUSH2 0x738 PUSH1 0x4 DUP1 CALLDATASIZE SUB DUP2 ADD SWAP1 PUSH2 0x733 SWAP2 SWAP1 PUSH2 0x540E JUMP JUMPDEST PUSH2 0x3954 JUMP JUMPDEST STOP JUMPDEST CALLVALUE DUP1 ISZERO PUSH2 0x746 JUMPI PUSH1 0x0 DUP1 REVERT JUMPDEST POP PUSH2 0x761 PUSH1 0x4 DUP1 CALLDATASIZE SUB DUP2 ADD SWAP1 PUSH2 0x75C SWAP2 SWAP1 PUSH2 0x4AF1 JUMP JUMPDEST PUSH2 0x3B62 JUMP JUMPDEST PUSH1 0x40 MLOAD PUSH2 0x775 SWAP9 SWAP8 SWAP7 SWAP6 SWAP5 SWAP4 SWAP3 SWAP2 SWAP1 PUSH2 0x51A5 JUMP JUMPDEST PUSH1 0x40 MLOAD DUP1 SWAP2 SUB SWAP1 RETURN JUMPDEST CALLVALUE DUP1 ISZERO PUSH2 0x78A JUMPI PUSH1 0x0 DUP1 REVERT JUMPDEST POP PUSH2 0x7A5 PUSH1 0x4 DUP1 CALLDATASIZE SUB DUP2 ADD SWAP1 PUSH2 0x7A0 SWAP2 SWAP1 PUSH2 0x4F70 JUMP JUMPDEST PUSH2 0x3DFA JUMP JUMPDEST PUSH1 0x40 MLOAD PUSH2 0x7B2 SWAP2 SWAP1 PUSH2 0x5001 JUMP JUMPDEST PUSH1 0x40 MLOAD DUP1 SWAP2 SUB SWAP1 RETURN JUMPDEST PUSH2 0x7D5 PUSH1 0x4 DUP1 CALLDATASIZE SUB DUP2 ADD SWAP1 PUSH2 0x7D0 SWAP2 SWAP1 PUSH2 0x526B JUMP JUMPDEST PUSH2 0x3E30 JUMP JUMPDEST STOP JUMPDEST CALLVALUE DUP1 ISZERO PUSH2 0x7E3 JUMPI PUSH1 0x0 DUP1 REVERT JUMPDEST POP PUSH2 0x7FE PUSH1 0x4 DUP1 CALLDATASIZE SUB DUP2 ADD SWAP1 PUSH2 0x7F9 SWAP2 SWAP1 PUSH2 0x4F70 JUMP JUMPDEST PUSH2 0x447E JUMP JUMPDEST PUSH1 0x40 MLOAD PUSH2 0x812 SWAP9 SWAP8 SWAP7 SWAP6 SWAP5 SWAP4 SWAP3 SWAP2 SWAP1 PUSH2 0x51A5 JUMP JUMPDEST PUSH1 0x40 MLOAD DUP1 SWAP2 SUB SWAP1 RETURN JUMPDEST CALLVALUE DUP1 ISZERO PUSH2 0x827 JUMPI PUSH1 0x0 DUP1 REVERT JUMPDEST POP PUSH2 0x842 PUSH1 0x4 DUP1 CALLDATASIZE SUB DUP2 ADD SWAP1 PUSH2 0x83D SWAP2 SWAP1 PUSH2 0x5363 JUMP JUMPDEST PUSH2 0x471C JUMP JUMPDEST PUSH1 0x40 MLOAD PUSH2 0x854 SWAP7 SWAP6 SWAP5 SWAP4 SWAP3 SWAP2 SWAP1 PUSH2 0x52ED JUMP JUMPDEST PUSH1 0x40 MLOAD DUP1 SWAP2 SUB SWAP1 RETURN JUMPDEST PUSH1 0x12 PUSH1 0x20 MSTORE DUP1 PUSH1 0x0 MSTORE PUSH1 0x40 PUSH1 0x0 KECCAK256 PUSH1 0x0 SWAP2 POP SWAP1 POP SLOAD DUP2 JUMP JUMPDEST PUSH1 0x0 DUP1 SLOAD SWAP1 PUSH2 0x100 EXP SWAP1 DIV PUSH20 0xFFFFFFFFFFFFFFFFFFFFFFFFFFFFFFFFFFFFFFFF AND PUSH20 0xFFFFFFFFFFFFFFFFFFFFFFFFFFFFFFFFFFFFFFFF AND CALLER PUSH20 0xFFFFFFFFFFFFFFFFFFFFFFFFFFFFFFFFFFFFFFFF AND EQ PUSH2 0x8CD JUMPI PUSH1 0x0 DUP1 REVERT JUMPDEST PUSH1 0x3 PUSH1 0x0 PUSH2 0x8DB SWAP2 SWAP1 PUSH2 0x490D JUMP JUMPDEST PUSH1 0x0 JUMPDEST PUSH1 0x5 DUP2 LT ISZERO PUSH2 0xA59 JUMPI PUSH1 0x3 PUSH1 0x5 PUSH1 0x0 DUP5 DUP5 DUP2 MLOAD DUP2 LT PUSH2 0x900 JUMPI PUSH2 0x8FF PUSH2 0x54B5 JUMP JUMPDEST JUMPDEST PUSH1 0x20 MUL PUSH1 0x20 ADD ADD MLOAD PUSH20 0xFFFFFFFFFFFFFFFFFFFFFFFFFFFFFFFFFFFFFFFF AND PUSH20 0xFFFFFFFFFFFFFFFFFFFFFFFFFFFFFFFFFFFFFFFF AND DUP2 MSTORE PUSH1 0x20 ADD SWAP1 DUP2 MSTORE PUSH1 0x20 ADD PUSH1 0x0 KECCAK256 SWAP1 DUP1 PUSH1 0x1 DUP2 SLOAD ADD DUP1 DUP3 SSTORE DUP1 SWAP2 POP POP PUSH1 0x1 SWAP1 SUB SWAP1 PUSH1 0x0 MSTORE PUSH1 0x20 PUSH1 0x0 KECCAK256 SWAP1 PUSH1 0x8 MUL ADD PUSH1 0x0 SWAP1 SWAP2 SWAP1 SWAP2 SWAP1 SWAP2 POP PUSH1 0x0 DUP3 ADD SLOAD DUP2 PUSH1 0x0 ADD SSTORE PUSH1 0x1 DUP3 ADD PUSH1 0x0 SWAP1 SLOAD SWAP1 PUSH2 0x100 EXP SWAP1 DIV PUSH20 0xFFFFFFFFFFFFFFFFFFFFFFFFFFFFFFFFFFFFFFFF AND DUP2 PUSH1 0x1 ADD PUSH1 0x0 PUSH2 0x100 EXP DUP2 SLOAD DUP2 PUSH20 0xFFFFFFFFFFFFFFFFFFFFFFFFFFFFFFFFFFFFFFFF MUL NOT AND SWAP1 DUP4 PUSH20 0xFFFFFFFFFFFFFFFFFFFFFFFFFFFFFFFFFFFFFFFF AND MUL OR SWAP1 SSTORE POP PUSH1 0x2 DUP3 ADD DUP2 PUSH1 0x2 ADD SWAP1 DUP2 PUSH2 0x9F0 SWAP2 SWAP1 PUSH2 0x5706 JUMP JUMPDEST POP PUSH1 0x3 DUP3 ADD DUP2 PUSH1 0x3 ADD SWAP1 DUP2 PUSH2 0xA05 SWAP2 SWAP1 PUSH2 0x5706 JUMP JUMPDEST POP PUSH1 0x4 DUP3 ADD DUP2 PUSH1 0x4 ADD SWAP1 DUP2 PUSH2 0xA1A SWAP2 SWAP1 PUSH2 0x5706 JUMP JUMPDEST POP PUSH1 0x5 DUP3 ADD SLOAD DUP2 PUSH1 0x5 ADD SSTORE PUSH1 0x6 DUP3 ADD SLOAD DUP2 PUSH1 0x6 ADD SSTORE PUSH1 0x7 DUP3 ADD DUP2 PUSH1 0x7 ADD SWAP1 DUP2 PUSH2 0xA43 SWAP2 SWAP1 PUSH2 0x5706 JUMP JUMPDEST POP POP POP DUP1 DUP1 PUSH2 0xA51 SWAP1 PUSH2 0x581D JUMP JUMPDEST SWAP2 POP POP PUSH2 0x8DE JUMP JUMPDEST POP POP JUMP JUMPDEST PUSH1 0xE PUSH1 0x0 CALLER PUSH20 0xFFFFFFFFFFFFFFFFFFFFFFFFFFFFFFFFFFFFFFFF AND PUSH20 0xFFFFFFFFFFFFFFFFFFFFFFFFFFFFFFFFFFFFFFFF AND DUP2 MSTORE PUSH1 0x20 ADD SWAP1 DUP2 MSTORE PUSH1 0x20 ADD PUSH1 0x0 KECCAK256 PUSH1 0x0 SWAP1 SLOAD SWAP1 PUSH2 0x100 EXP SWAP1 DIV PUSH1 0xFF AND PUSH2 0xAB3 JUMPI PUSH1 0x0 DUP1 REVERT JUMPDEST PUSH1 0x0 PUSH1 0x2 DUP6 DUP2 SLOAD DUP2 LT PUSH2 0xAC9 JUMPI PUSH2 0xAC8 PUSH2 0x54B5 JUMP JUMPDEST JUMPDEST SWAP1 PUSH1 0x0 MSTORE PUSH1 0x20 PUSH1 0x0 KECCAK256 SWAP1 PUSH1 0x6 MUL ADD SWAP1 POP PUSH1 0x0 PUSH1 0x5 PUSH1 0x0 DUP7 PUSH20 0xFFFFFFFFFFFFFFFFFFFFFFFFFFFFFFFFFFFFFFFF AND PUSH20 0xFFFFFFFFFFFFFFFFFFFFFFFFFFFFFFFFFFFFFFFF AND DUP2 MSTORE PUSH1 0x20 ADD SWAP1 DUP2 MSTORE PUSH1 0x20 ADD PUSH1 0x0 KECCAK256 SWAP1 POP DUP1 PUSH1 0x5 ADD PUSH1 0x0 DUP2 SLOAD DUP1 SWAP3 SWAP2 SWAP1 PUSH2 0xB31 SWAP1 PUSH2 0x5865 JUMP JUMPDEST SWAP2 SWAP1 POP SSTORE POP PUSH1 0x6 PUSH1 0x0 DUP7 PUSH20 0xFFFFFFFFFFFFFFFFFFFFFFFFFFFFFFFFFFFFFFFF AND PUSH20 0xFFFFFFFFFFFFFFFFFFFFFFFFFFFFFFFFFFFFFFFF AND DUP2 MSTORE PUSH1 0x20 ADD SWAP1 DUP2 MSTORE PUSH1 0x20 ADD PUSH1 0x0 KECCAK256 POP PUSH1 0x11 PUSH1 0x0 DUP7 PUSH20 0xFFFFFFFFFFFFFFFFFFFFFFFFFFFFFFFFFFFFFFFF AND PUSH20 0xFFFFFFFFFFFFFFFFFFFFFFFFFFFFFFFFFFFFFFFF AND DUP2 MSTORE PUSH1 0x20 ADD SWAP1 DUP2 MSTORE PUSH1 0x20 ADD PUSH1 0x0 KECCAK256 PUSH1 0x0 DUP2 SLOAD DUP1 SWAP3 SWAP2 SWAP1 PUSH2 0xBC6 SWAP1 PUSH2 0x5865 JUMP JUMPDEST SWAP2 SWAP1 POP SSTORE POP DUP1 PUSH1 0x1 DUP3 PUSH1 0x0 ADD SLOAD DUP2 SLOAD DUP2 LT PUSH2 0xBE4 JUMPI PUSH2 0xBE3 PUSH2 0x54B5 JUMP JUMPDEST JUMPDEST SWAP1 PUSH1 0x0 MSTORE PUSH1 0x20 PUSH1 0x0 KECCAK256 SWAP1 PUSH1 0x8 MUL ADD PUSH1 0x0 DUP3 ADD SLOAD DUP2 PUSH1 0x0 ADD SSTORE PUSH1 0x1 DUP3 ADD PUSH1 0x0 SWAP1 SLOAD SWAP1 PUSH2 0x100 EXP SWAP1 DIV PUSH20 0xFFFFFFFFFFFFFFFFFFFFFFFFFFFFFFFFFFFFFFFF AND DUP2 PUSH1 0x1 ADD PUSH1 0x0 PUSH2 0x100 EXP DUP2 SLOAD DUP2 PUSH20 0xFFFFFFFFFFFFFFFFFFFFFFFFFFFFFFFFFFFFFFFF MUL NOT AND SWAP1 DUP4 PUSH20 0xFFFFFFFFFFFFFFFFFFFFFFFFFFFFFFFFFFFFFFFF AND MUL OR SWAP1 SSTORE POP PUSH1 0x2 DUP3 ADD DUP2 PUSH1 0x2 ADD SWAP1 DUP2 PUSH2 0xC77 SWAP2 SWAP1 PUSH2 0x5706 JUMP JUMPDEST POP PUSH1 0x3 DUP3 ADD DUP2 PUSH1 0x3 ADD SWAP1 DUP2 PUSH2 0xC8C SWAP2 SWAP1 PUSH2 0x5706 JUMP JUMPDEST POP PUSH1 0x4 DUP3 ADD DUP2 PUSH1 0x4 ADD SWAP1 DUP2 PUSH2 0xCA1 SWAP2 SWAP1 PUSH2 0x5706 JUMP JUMPDEST POP PUSH1 0x5 DUP3 ADD SLOAD DUP2 PUSH1 0x5 ADD SSTORE PUSH1 0x6 DUP3 ADD SLOAD DUP2 PUSH1 0x6 ADD SSTORE PUSH1 0x7 DUP3 ADD DUP2 PUSH1 0x7 ADD SWAP1 DUP2 PUSH2 0xCCA SWAP2 SWAP1 PUSH2 0x5706 JUMP JUMPDEST POP SWAP1 POP POP DUP2 PUSH1 0x4 ADD PUSH1 0x0 DUP2 SLOAD DUP1 SWAP3 SWAP2 SWAP1 PUSH2 0xCE3 SWAP1 PUSH2 0x5865 JUMP JUMPDEST SWAP2 SWAP1 POP SSTORE POP PUSH1 0x12 PUSH1 0x0 DUP8 DUP2 MSTORE PUSH1 0x20 ADD SWAP1 DUP2 MSTORE PUSH1 0x20 ADD PUSH1 0x0 KECCAK256 PUSH1 0x0 DUP2 SLOAD DUP1 SWAP3 SWAP2 SWAP1 PUSH2 0xD0C SWAP1 PUSH2 0x5865 JUMP JUMPDEST SWAP2 SWAP1 POP SSTORE POP PUSH1 0x6 PUSH1 0x0 DUP7 PUSH20 0xFFFFFFFFFFFFFFFFFFFFFFFFFFFFFFFFFFFFFFFF AND PUSH20 0xFFFFFFFFFFFFFFFFFFFFFFFFFFFFFFFFFFFFFFFF AND DUP2 MSTORE PUSH1 0x20 ADD SWAP1 DUP2 MSTORE PUSH1 0x20 ADD PUSH1 0x0 KECCAK256 DUP5 DUP2 SLOAD DUP2 LT PUSH2 0xD62 JUMPI PUSH2 0xD61 PUSH2 0x54B5 JUMP JUMPDEST JUMPDEST SWAP1 PUSH1 0x0 MSTORE PUSH1 0x20 PUSH1 0x0 KECCAK256 SWAP1 PUSH1 0x6 MUL ADD PUSH1 0x0 DUP1 DUP3 ADD PUSH1 0x0 SWAP1 SSTORE PUSH1 0x1 DUP3 ADD PUSH1 0x0 PUSH2 0xD89 SWAP2 SWAP1 PUSH2 0x4931 JUMP JUMPDEST PUSH1 0x2 DUP3 ADD PUSH1 0x0 PUSH2 0xD99 SWAP2 SWAP1 PUSH2 0x4931 JUMP JUMPDEST PUSH1 0x3 DUP3 ADD PUSH1 0x0 PUSH2 0xDA9 SWAP2 SWAP1 PUSH2 0x4931 JUMP JUMPDEST PUSH1 0x4 DUP3 ADD PUSH1 0x0 SWAP1 SSTORE PUSH1 0x5 DUP3 ADD PUSH1 0x0 SWAP1 SSTORE POP POP PUSH1 0x8 PUSH1 0x0 DUP8 DUP2 MSTORE PUSH1 0x20 ADD SWAP1 DUP2 MSTORE PUSH1 0x20 ADD PUSH1 0x0 KECCAK256 DUP4 DUP2 SLOAD DUP2 LT PUSH2 0xDE0 JUMPI PUSH2 0xDDF PUSH2 0x54B5 JUMP JUMPDEST JUMPDEST SWAP1 PUSH1 0x0 MSTORE PUSH1 0x20 PUSH1 0x0 KECCAK256 SWAP1 PUSH1 0x8 MUL ADD PUSH1 0x0 DUP1 DUP3 ADD PUSH1 0x0 SWAP1 SSTORE PUSH1 0x1 DUP3 ADD PUSH1 0x0 PUSH2 0x100 EXP DUP2 SLOAD SWAP1 PUSH20 0xFFFFFFFFFFFFFFFFFFFFFFFFFFFFFFFFFFFFFFFF MUL NOT AND SWAP1 SSTORE PUSH1 0x2 DUP3 ADD PUSH1 0x0 PUSH2 0xE2E SWAP2 SWAP1 PUSH2 0x4931 JUMP JUMPDEST PUSH1 0x3 DUP3 ADD PUSH1 0x0 PUSH2 0xE3E SWAP2 SWAP1 PUSH2 0x4931 JUMP JUMPDEST PUSH1 0x4 DUP3 ADD PUSH1 0x0 PUSH2 0xE4E SWAP2 SWAP1 PUSH2 0x4931 JUMP JUMPDEST PUSH1 0x5 DUP3 ADD PUSH1 0x0 SWAP1 SSTORE PUSH1 0x6 DUP3 ADD PUSH1 0x0 SWAP1 SSTORE PUSH1 0x7 DUP3 ADD PUSH1 0x0 PUSH2 0xE6E SWAP2 SWAP1 PUSH2 0x4931 JUMP JUMPDEST POP POP POP POP POP POP POP POP JUMP JUMPDEST PUSH1 0x0 DUP1 SLOAD SWAP1 PUSH2 0x100 EXP SWAP1 DIV PUSH20 0xFFFFFFFFFFFFFFFFFFFFFFFFFFFFFFFFFFFFFFFF AND PUSH20 0xFFFFFFFFFFFFFFFFFFFFFFFFFFFFFFFFFFFFFFFF AND CALLER PUSH20 0xFFFFFFFFFFFFFFFFFFFFFFFFFFFFFFFFFFFFFFFF AND EQ PUSH2 0xED0 JUMPI PUSH1 0x0 DUP1 REVERT JUMPDEST PUSH1 0x4 PUSH1 0x0 PUSH2 0xEDE SWAP2 SWAP1 PUSH2 0x4971 JUMP JUMPDEST PUSH1 0x0 JUMPDEST PUSH1 0x5 DUP2 LT ISZERO PUSH2 0xFC3 JUMPI PUSH1 0x4 PUSH1 0x2 DUP4 DUP4 DUP2 MLOAD DUP2 LT PUSH2 0xF01 JUMPI PUSH2 0xF00 PUSH2 0x54B5 JUMP JUMPDEST JUMPDEST PUSH1 0x20 MUL PUSH1 0x20 ADD ADD MLOAD DUP2 SLOAD DUP2 LT PUSH2 0xF1A JUMPI PUSH2 0xF19 PUSH2 0x54B5 JUMP JUMPDEST JUMPDEST SWAP1 PUSH1 0x0 MSTORE PUSH1 0x20 PUSH1 0x0 KECCAK256 SWAP1 PUSH1 0x6 MUL ADD SWAP1 DUP1 PUSH1 0x1 DUP2 SLOAD ADD DUP1 DUP3 SSTORE DUP1 SWAP2 POP POP PUSH1 0x1 SWAP1 SUB SWAP1 PUSH1 0x0 MSTORE PUSH1 0x20 PUSH1 0x0 KECCAK256 SWAP1 PUSH1 0x6 MUL ADD PUSH1 0x0 SWAP1 SWAP2 SWAP1 SWAP2 SWAP1 SWAP2 POP PUSH1 0x0 DUP3 ADD SLOAD DUP2 PUSH1 0x0 ADD SSTORE PUSH1 0x1 DUP3 ADD DUP2 PUSH1 0x1 ADD SWAP1 DUP2 PUSH2 0xF6F SWAP2 SWAP1 PUSH2 0x5706 JUMP JUMPDEST POP PUSH1 0x2 DUP3 ADD DUP2 PUSH1 0x2 ADD SWAP1 DUP2 PUSH2 0xF84 SWAP2 SWAP1 PUSH2 0x5706 JUMP JUMPDEST POP PUSH1 0x3 DUP3 ADD DUP2 PUSH1 0x3 ADD SWAP1 DUP2 PUSH2 0xF99 SWAP2 SWAP1 PUSH2 0x5706 JUMP JUMPDEST POP PUSH1 0x4 DUP3 ADD SLOAD DUP2 PUSH1 0x4 ADD SSTORE PUSH1 0x5 DUP3 ADD SLOAD DUP2 PUSH1 0x5 ADD SSTORE POP POP DUP1 DUP1 PUSH2 0xFBB SWAP1 PUSH2 0x581D JUMP JUMPDEST SWAP2 POP POP PUSH2 0xEE1 JUMP JUMPDEST POP POP JUMP JUMPDEST PUSH1 0xE PUSH1 0x0 CALLER PUSH20 0xFFFFFFFFFFFFFFFFFFFFFFFFFFFFFFFFFFFFFFFF AND PUSH20 0xFFFFFFFFFFFFFFFFFFFFFFFFFFFFFFFFFFFFFFFF AND DUP2 MSTORE PUSH1 0x20 ADD SWAP1 DUP2 MSTORE PUSH1 0x20 ADD PUSH1 0x0 KECCAK256 PUSH1 0x0 SWAP1 SLOAD SWAP1 PUSH2 0x100 EXP SWAP1 DIV PUSH1 0xFF AND PUSH2 0x101D JUMPI PUSH1 0x0 DUP1 REVERT JUMPDEST PUSH1 0x0 PUSH1 0x5 PUSH1 0x0 CALLER PUSH20 0xFFFFFFFFFFFFFFFFFFFFFFFFFFFFFFFFFFFFFFFF AND PUSH20 0xFFFFFFFFFFFFFFFFFFFFFFFFFFFFFFFFFFFFFFFF AND DUP2 MSTORE PUSH1 0x20 ADD SWAP1 DUP2 MSTORE PUSH1 0x20 ADD PUSH1 0x0 KECCAK256 SWAP1 POP DUP2 DUP2 PUSH1 0x7 ADD SWAP1 DUP2 PUSH2 0x1071 SWAP2 SWAP1 PUSH2 0x588E JUMP JUMPDEST POP DUP1 PUSH1 0x1 DUP3 PUSH1 0x0 ADD SLOAD DUP2 SLOAD DUP2 LT PUSH2 0x108B JUMPI PUSH2 0x108A PUSH2 0x54B5 JUMP JUMPDEST JUMPDEST SWAP1 PUSH1 0x0 MSTORE PUSH1 0x20 PUSH1 0x0 KECCAK256 SWAP1 PUSH1 0x8 MUL ADD PUSH1 0x0 DUP3 ADD SLOAD DUP2 PUSH1 0x0 ADD SSTORE PUSH1 0x1 DUP3 ADD PUSH1 0x0 SWAP1 SLOAD SWAP1 PUSH2 0x100 EXP SWAP1 DIV PUSH20 0xFFFFFFFFFFFFFFFFFFFFFFFFFFFFFFFFFFFFFFFF AND DUP2 PUSH1 0x1 ADD PUSH1 0x0 PUSH2 0x100 EXP DUP2 SLOAD DUP2 PUSH20 0xFFFFFFFFFFFFFFFFFFFFFFFFFFFFFFFFFFFFFFFF MUL NOT AND SWAP1 DUP4 PUSH20 0xFFFFFFFFFFFFFFFFFFFFFFFFFFFFFFFFFFFFFFFF AND MUL OR SWAP1 SSTORE POP PUSH1 0x2 DUP3 ADD DUP2 PUSH1 0x2 ADD SWAP1 DUP2 PUSH2 0x111E SWAP2 SWAP1 PUSH2 0x5706 JUMP JUMPDEST POP PUSH1 0x3 DUP3 ADD DUP2 PUSH1 0x3 ADD SWAP1 DUP2 PUSH2 0x1133 SWAP2 SWAP1 PUSH2 0x5706 JUMP JUMPDEST POP PUSH1 0x4 DUP3 ADD DUP2 PUSH1 0x4 ADD SWAP1 DUP2 PUSH2 0x1148 SWAP2 SWAP1 PUSH2 0x5706 JUMP JUMPDEST POP PUSH1 0x5 DUP3 ADD SLOAD DUP2 PUSH1 0x5 ADD SSTORE PUSH1 0x6 DUP3 ADD SLOAD DUP2 PUSH1 0x6 ADD SSTORE PUSH1 0x7 DUP3 ADD DUP2 PUSH1 0x7 ADD SWAP1 DUP2 PUSH2 0x1171 SWAP2 SWAP1 PUSH2 0x5706 JUMP JUMPDEST POP SWAP1 POP POP POP POP JUMP JUMPDEST PUSH1 0xC DUP2 DUP1 MLOAD PUSH1 0x20 DUP2 ADD DUP3 ADD DUP1 MLOAD DUP5 DUP3 MSTORE PUSH1 0x20 DUP4 ADD PUSH1 0x20 DUP6 ADD KECCAK256 DUP2 DUP4 MSTORE DUP1 SWAP6 POP POP POP POP POP POP PUSH1 0x0 SWAP2 POP SWAP1 POP SLOAD DUP2 JUMP JUMPDEST PUSH1 0x11 PUSH1 0x20 MSTORE DUP1 PUSH1 0x0 MSTORE PUSH1 0x40 PUSH1 0x0 KECCAK256 PUSH1 0x0 SWAP2 POP SWAP1 POP SLOAD DUP2 JUMP JUMPDEST PUSH1 0xF DUP2 DUP1 MLOAD PUSH1 0x20 DUP2 ADD DUP3 ADD DUP1 MLOAD DUP5 DUP3 MSTORE PUSH1 0x20 DUP4 ADD PUSH1 0x20 DUP6 ADD KECCAK256 DUP2 DUP4 MSTORE DUP1 SWAP6 POP POP POP POP POP POP PUSH1 0x0 SWAP2 POP SLOAD SWAP1 PUSH2 0x100 EXP SWAP1 DIV PUSH1 0xFF AND DUP2 JUMP JUMPDEST PUSH1 0x10 DUP4 PUSH1 0x40 MLOAD PUSH2 0x1205 SWAP2 SWAP1 PUSH2 0x599C JUMP JUMPDEST SWAP1 DUP2 MSTORE PUSH1 0x20 ADD PUSH1 0x40 MLOAD DUP1 SWAP2 SUB SWAP1 KECCAK256 PUSH1 0x0 SWAP1 SLOAD SWAP1 PUSH2 0x100 EXP SWAP1 DIV PUSH1 0xFF AND ISZERO PUSH2 0x122B JUMPI PUSH1 0x0 DUP1 REVERT JUMPDEST PUSH1 0x0 PUSH1 0x5 PUSH1 0x0 DUP7 PUSH20 0xFFFFFFFFFFFFFFFFFFFFFFFFFFFFFFFFFFFFFFFF AND PUSH20 0xFFFFFFFFFFFFFFFFFFFFFFFFFFFFFFFFFFFFFFFF AND DUP2 MSTORE PUSH1 0x20 ADD SWAP1 DUP2 MSTORE PUSH1 0x20 ADD PUSH1 0x0 KECCAK256 SWAP1 POP DUP1 PUSH1 0x5 ADD PUSH1 0x0 DUP2 SLOAD DUP1 SWAP3 SWAP2 SWAP1 PUSH2 0x1283 SWAP1 PUSH2 0x581D JUMP JUMPDEST SWAP2 SWAP1 POP SSTORE POP PUSH1 0x0 PUSH1 0x2 PUSH1 0x1 DUP2 PUSH1 0x1 DUP2 SLOAD ADD DUP1 DUP3 SSTORE DUP1 SWAP2 POP POP SUB SWAP1 PUSH1 0x0 MSTORE PUSH1 0x20 PUSH1 0x0 KECCAK256 SWAP1 PUSH1 0x6 MUL ADD SWAP1 POP PUSH1 0x14 SLOAD DUP2 PUSH1 0x0 ADD DUP2 SWAP1 SSTORE POP DUP5 DUP2 PUSH1 0x1 ADD SWAP1 DUP2 PUSH2 0x12C8 SWAP2 SWAP1 PUSH2 0x588E JUMP JUMPDEST POP DUP4 DUP2 PUSH1 0x3 ADD SWAP1 DUP2 PUSH2 0x12DA SWAP2 SWAP1 PUSH2 0x588E JUMP JUMPDEST POP DUP3 DUP2 PUSH1 0x2 ADD SWAP1 DUP2 PUSH2 0x12EC SWAP2 SWAP1 PUSH2 0x588E JUMP JUMPDEST POP DUP1 PUSH1 0x4 ADD PUSH1 0x0 DUP2 SLOAD DUP1 SWAP3 SWAP2 SWAP1 PUSH2 0x1302 SWAP1 PUSH2 0x581D JUMP JUMPDEST SWAP2 SWAP1 POP SSTORE POP PUSH1 0x1 PUSH1 0x10 DUP7 PUSH1 0x40 MLOAD PUSH2 0x1319 SWAP2 SWAP1 PUSH2 0x599C JUMP JUMPDEST SWAP1 DUP2 MSTORE PUSH1 0x20 ADD PUSH1 0x40 MLOAD DUP1 SWAP2 SUB SWAP1 KECCAK256 PUSH1 0x0 PUSH2 0x100 EXP DUP2 SLOAD DUP2 PUSH1 0xFF MUL NOT AND SWAP1 DUP4 ISZERO ISZERO MUL OR SWAP1 SSTORE POP DUP1 PUSH1 0x7 DUP7 PUSH1 0x40 MLOAD PUSH2 0x134F SWAP2 SWAP1 PUSH2 0x599C JUMP JUMPDEST SWAP1 DUP2 MSTORE PUSH1 0x20 ADD PUSH1 0x40 MLOAD DUP1 SWAP2 SUB SWAP1 KECCAK256 PUSH1 0x0 DUP3 ADD SLOAD DUP2 PUSH1 0x0 ADD SSTORE PUSH1 0x1 DUP3 ADD DUP2 PUSH1 0x1 ADD SWAP1 DUP2 PUSH2 0x137B SWAP2 SWAP1 PUSH2 0x5706 JUMP JUMPDEST POP PUSH1 0x2 DUP3 ADD DUP2 PUSH1 0x2 ADD SWAP1 DUP2 PUSH2 0x1390 SWAP2 SWAP1 PUSH2 0x5706 JUMP JUMPDEST POP PUSH1 0x3 DUP3 ADD DUP2 PUSH1 0x3 ADD SWAP1 DUP2 PUSH2 0x13A5 SWAP2 SWAP1 PUSH2 0x5706 JUMP JUMPDEST POP PUSH1 0x4 DUP3 ADD SLOAD DUP2 PUSH1 0x4 ADD SSTORE PUSH1 0x5 DUP3 ADD SLOAD DUP2 PUSH1 0x5 ADD SSTORE SWAP1 POP POP DUP2 PUSH1 0x1 DUP4 PUSH1 0x0 ADD SLOAD DUP2 SLOAD DUP2 LT PUSH2 0x13D6 JUMPI PUSH2 0x13D5 PUSH2 0x54B5 JUMP JUMPDEST JUMPDEST SWAP1 PUSH1 0x0 MSTORE PUSH1 0x20 PUSH1 0x0 KECCAK256 SWAP1 PUSH1 0x8 MUL ADD PUSH1 0x0 DUP3 ADD SLOAD DUP2 PUSH1 0x0 ADD SSTORE PUSH1 0x1 DUP3 ADD PUSH1 0x0 SWAP1 SLOAD SWAP1 PUSH2 0x100 EXP SWAP1 DIV PUSH20 0xFFFFFFFFFFFFFFFFFFFFFFFFFFFFFFFFFFFFFFFF AND DUP2 PUSH1 0x1 ADD PUSH1 0x0 PUSH2 0x100 EXP DUP2 SLOAD DUP2 PUSH20 0xFFFFFFFFFFFFFFFFFFFFFFFFFFFFFFFFFFFFFFFF MUL NOT AND SWAP1 DUP4 PUSH20 0xFFFFFFFFFFFFFFFFFFFFFFFFFFFFFFFFFFFFFFFF AND MUL OR SWAP1 SSTORE POP PUSH1 0x2 DUP3 ADD DUP2 PUSH1 0x2 ADD SWAP1 DUP2 PUSH2 0x1469 SWAP2 SWAP1 PUSH2 0x5706 JUMP JUMPDEST POP PUSH1 0x3 DUP3 ADD DUP2 PUSH1 0x3 ADD SWAP1 DUP2 PUSH2 0x147E SWAP2 SWAP1 PUSH2 0x5706 JUMP JUMPDEST POP PUSH1 0x4 DUP3 ADD DUP2 PUSH1 0x4 ADD SWAP1 DUP2 PUSH2 0x1493 SWAP2 SWAP1 PUSH2 0x5706 JUMP JUMPDEST POP PUSH1 0x5 DUP3 ADD SLOAD DUP2 PUSH1 0x5 ADD SSTORE PUSH1 0x6 DUP3 ADD SLOAD DUP2 PUSH1 0x6 ADD SSTORE PUSH1 0x7 DUP3 ADD DUP2 PUSH1 0x7 ADD SWAP1 DUP2 PUSH2 0x14BC SWAP2 SWAP1 PUSH2 0x5706 JUMP JUMPDEST POP SWAP1 POP POP PUSH1 0x12 PUSH1 0x0 PUSH1 0x14 SLOAD DUP2 MSTORE PUSH1 0x20 ADD SWAP1 DUP2 MSTORE PUSH1 0x20 ADD PUSH1 0x0 KECCAK256 PUSH1 0x0 DUP2 SLOAD DUP1 SWAP3 SWAP2 SWAP1 PUSH2 0x14E6 SWAP1 PUSH2 0x581D JUMP JUMPDEST SWAP2 SWAP1 POP SSTORE POP PUSH1 0x11 PUSH1 0x0 DUP8 PUSH20 0xFFFFFFFFFFFFFFFFFFFFFFFFFFFFFFFFFFFFFFFF AND PUSH20 0xFFFFFFFFFFFFFFFFFFFFFFFFFFFFFFFFFFFFFFFF AND DUP2 MSTORE PUSH1 0x20 ADD SWAP1 DUP2 MSTORE PUSH1 0x20 ADD PUSH1 0x0 KECCAK256 PUSH1 0x0 DUP2 SLOAD DUP1 SWAP3 SWAP2 SWAP1 PUSH2 0x153B SWAP1 PUSH2 0x581D JUMP JUMPDEST SWAP2 SWAP1 POP SSTORE POP PUSH1 0x6 PUSH1 0x0 DUP8 PUSH20 0xFFFFFFFFFFFFFFFFFFFFFFFFFFFFFFFFFFFFFFFF AND PUSH20 0xFFFFFFFFFFFFFFFFFFFFFFFFFFFFFFFFFFFFFFFF AND DUP2 MSTORE PUSH1 0x20 ADD SWAP1 DUP2 MSTORE PUSH1 0x20 ADD PUSH1 0x0 KECCAK256 DUP2 SWAP1 DUP1 PUSH1 0x1 DUP2 SLOAD ADD DUP1 DUP3 SSTORE DUP1 SWAP2 POP POP PUSH1 0x1 SWAP1 SUB SWAP1 PUSH1 0x0 MSTORE PUSH1 0x20 PUSH1 0x0 KECCAK256 SWAP1 PUSH1 0x6 MUL ADD PUSH1 0x0 SWAP1 SWAP2 SWAP1 SWAP2 SWAP1 SWAP2 POP PUSH1 0x0 DUP3 ADD SLOAD DUP2 PUSH1 0x0 ADD SSTORE PUSH1 0x1 DUP3 ADD DUP2 PUSH1 0x1 ADD SWAP1 DUP2 PUSH2 0x15C7 SWAP2 SWAP1 PUSH2 0x5706 JUMP JUMPDEST POP PUSH1 0x2 DUP3 ADD DUP2 PUSH1 0x2 ADD SWAP1 DUP2 PUSH2 0x15DC SWAP2 SWAP1 PUSH2 0x5706 JUMP JUMPDEST POP PUSH1 0x3 DUP3 ADD DUP2 PUSH1 0x3 ADD SWAP1 DUP2 PUSH2 0x15F1 SWAP2 SWAP1 PUSH2 0x5706 JUMP JUMPDEST POP PUSH1 0x4 DUP3 ADD SLOAD DUP2 PUSH1 0x4 ADD SSTORE PUSH1 0x5 DUP3 ADD SLOAD DUP2 PUSH1 0x5 ADD SSTORE POP POP PUSH1 0x8 PUSH1 0x0 PUSH1 0x14 SLOAD DUP2 MSTORE PUSH1 0x20 ADD SWAP1 DUP2 MSTORE PUSH1 0x20 ADD PUSH1 0x0 KECCAK256 DUP3 SWAP1 DUP1 PUSH1 0x1 DUP2 SLOAD ADD DUP1 DUP3 SSTORE DUP1 SWAP2 POP POP PUSH1 0x1 SWAP1 SUB SWAP1 PUSH1 0x0 MSTORE PUSH1 0x20 PUSH1 0x0 KECCAK256 SWAP1 PUSH1 0x8 MUL ADD PUSH1 0x0 SWAP1 SWAP2 SWAP1 SWAP2 SWAP1 SWAP2 POP PUSH1 0x0 DUP3 ADD SLOAD DUP2 PUSH1 0x0 ADD SSTORE PUSH1 0x1 DUP3 ADD PUSH1 0x0 SWAP1 SLOAD SWAP1 PUSH2 0x100 EXP SWAP1 DIV PUSH20 0xFFFFFFFFFFFFFFFFFFFFFFFFFFFFFFFFFFFFFFFF AND DUP2 PUSH1 0x1 ADD PUSH1 0x0 PUSH2 0x100 EXP DUP2 SLOAD DUP2 PUSH20 0xFFFFFFFFFFFFFFFFFFFFFFFFFFFFFFFFFFFFFFFF MUL NOT AND SWAP1 DUP4 PUSH20 0xFFFFFFFFFFFFFFFFFFFFFFFFFFFFFFFFFFFFFFFF AND MUL OR SWAP1 SSTORE POP PUSH1 0x2 DUP3 ADD DUP2 PUSH1 0x2 ADD SWAP1 DUP2 PUSH2 0x16CC SWAP2 SWAP1 PUSH2 0x5706 JUMP JUMPDEST POP PUSH1 0x3 DUP3 ADD DUP2 PUSH1 0x3 ADD SWAP1 DUP2 PUSH2 0x16E1 SWAP2 SWAP1 PUSH2 0x5706 JUMP JUMPDEST POP PUSH1 0x4 DUP3 ADD DUP2 PUSH1 0x4 ADD SWAP1 DUP2 PUSH2 0x16F6 SWAP2 SWAP1 PUSH2 0x5706 JUMP JUMPDEST POP PUSH1 0x5 DUP3 ADD SLOAD DUP2 PUSH1 0x5 ADD SSTORE PUSH1 0x6 DUP3 ADD SLOAD DUP2 PUSH1 0x6 ADD SSTORE PUSH1 0x7 DUP3 ADD DUP2 PUSH1 0x7 ADD SWAP1 DUP2 PUSH2 0x171F SWAP2 SWAP1 PUSH2 0x5706 JUMP JUMPDEST POP POP POP PUSH1 0x1 PUSH1 0xD DUP5 PUSH1 0x40 MLOAD PUSH2 0x1734 SWAP2 SWAP1 PUSH2 0x599C JUMP JUMPDEST SWAP1 DUP2 MSTORE PUSH1 0x20 ADD PUSH1 0x40 MLOAD DUP1 SWAP2 SUB SWAP1 KECCAK256 PUSH1 0x0 DUP3 DUP3 SLOAD PUSH2 0x1751 SWAP2 SWAP1 PUSH2 0x59B3 JUMP JUMPDEST SWAP3 POP POP DUP2 SWAP1 SSTORE POP PUSH1 0x14 PUSH1 0x0 DUP2 SLOAD DUP1 SWAP3 SWAP2 SWAP1 PUSH2 0x176B SWAP1 PUSH2 0x581D JUMP JUMPDEST SWAP2 SWAP1 POP SSTORE POP POP POP POP POP POP POP JUMP JUMPDEST PUSH1 0x8 PUSH1 0x20 MSTORE DUP2 PUSH1 0x0 MSTORE PUSH1 0x40 PUSH1 0x0 KECCAK256 DUP2 DUP2 SLOAD DUP2 LT PUSH2 0x1794 JUMPI PUSH1 0x0 DUP1 REVERT JUMPDEST SWAP1 PUSH1 0x0 MSTORE PUSH1 0x20 PUSH1 0x0 KECCAK256 SWAP1 PUSH1 0x8 MUL ADD PUSH1 0x0 SWAP2 POP SWAP2 POP POP DUP1 PUSH1 0x0 ADD SLOAD SWAP1 DUP1 PUSH1 0x1 ADD PUSH1 0x0 SWAP1 SLOAD SWAP1 PUSH2 0x100 EXP SWAP1 DIV PUSH20 0xFFFFFFFFFFFFFFFFFFFFFFFFFFFFFFFFFFFFFFFF AND SWAP1 DUP1 PUSH1 0x2 ADD DUP1 SLOAD PUSH2 0x17E4 SWAP1 PUSH2 0x5513 JUMP JUMPDEST DUP1 PUSH1 0x1F ADD PUSH1 0x20 DUP1 SWAP2 DIV MUL PUSH1 0x20 ADD PUSH1 0x40 MLOAD SWAP1 DUP2 ADD PUSH1 0x40 MSTORE DUP1 SWAP3 SWAP2 SWAP1 DUP2 DUP2 MSTORE PUSH1 0x20 ADD DUP3 DUP1 SLOAD PUSH2 0x1810 SWAP1 PUSH2 0x5513 JUMP JUMPDEST DUP1 ISZERO PUSH2 0x185D JUMPI DUP1 PUSH1 0x1F LT PUSH2 0x1832 JUMPI PUSH2 0x100 DUP1 DUP4 SLOAD DIV MUL DUP4 MSTORE SWAP2 PUSH1 0x20 ADD SWAP2 PUSH2 0x185D JUMP JUMPDEST DUP3 ADD SWAP2 SWAP1 PUSH1 0x0 MSTORE PUSH1 0x20 PUSH1 0x0 KECCAK256 SWAP1 JUMPDEST DUP2 SLOAD DUP2 MSTORE SWAP1 PUSH1 0x1 ADD SWAP1 PUSH1 0x20 ADD DUP1 DUP4 GT PUSH2 0x1840 JUMPI DUP3 SWAP1 SUB PUSH1 0x1F AND DUP3 ADD SWAP2 JUMPDEST POP POP POP POP POP SWAP1 DUP1 PUSH1 0x3 ADD DUP1 SLOAD PUSH2 0x1872 SWAP1 PUSH2 0x5513 JUMP JUMPDEST DUP1 PUSH1 0x1F ADD PUSH1 0x20 DUP1 SWAP2 DIV MUL PUSH1 0x20 ADD PUSH1 0x40 MLOAD SWAP1 DUP2 ADD PUSH1 0x40 MSTORE DUP1 SWAP3 SWAP2 SWAP1 DUP2 DUP2 MSTORE PUSH1 0x20 ADD DUP3 DUP1 SLOAD PUSH2 0x189E SWAP1 PUSH2 0x5513 JUMP JUMPDEST DUP1 ISZERO PUSH2 0x18EB JUMPI DUP1 PUSH1 0x1F LT PUSH2 0x18C0 JUMPI PUSH2 0x100 DUP1 DUP4 SLOAD DIV MUL DUP4 MSTORE SWAP2 PUSH1 0x20 ADD SWAP2 PUSH2 0x18EB JUMP JUMPDEST DUP3 ADD SWAP2 SWAP1 PUSH1 0x0 MSTORE PUSH1 0x20 PUSH1 0x0 KECCAK256 SWAP1 JUMPDEST DUP2 SLOAD DUP2 MSTORE SWAP1 PUSH1 0x1 ADD SWAP1 PUSH1 0x20 ADD DUP1 DUP4 GT PUSH2 0x18CE JUMPI DUP3 SWAP1 SUB PUSH1 0x1F AND DUP3 ADD SWAP2 JUMPDEST POP POP POP POP POP SWAP1 DUP1 PUSH1 0x4 ADD DUP1 SLOAD PUSH2 0x1900 SWAP1 PUSH2 0x5513 JUMP JUMPDEST DUP1 PUSH1 0x1F ADD PUSH1 0x20 DUP1 SWAP2 DIV MUL PUSH1 0x20 ADD PUSH1 0x40 MLOAD SWAP1 DUP2 ADD PUSH1 0x40 MSTORE DUP1 SWAP3 SWAP2 SWAP1 DUP2 DUP2 MSTORE PUSH1 0x20 ADD DUP3 DUP1 SLOAD PUSH2 0x192C SWAP1 PUSH2 0x5513 JUMP JUMPDEST DUP1 ISZERO PUSH2 0x1979 JUMPI DUP1 PUSH1 0x1F LT PUSH2 0x194E JUMPI PUSH2 0x100 DUP1 DUP4 SLOAD DIV MUL DUP4 MSTORE SWAP2 PUSH1 0x20 ADD SWAP2 PUSH2 0x1979 JUMP JUMPDEST DUP3 ADD SWAP2 SWAP1 PUSH1 0x0 MSTORE PUSH1 0x20 PUSH1 0x0 KECCAK256 SWAP1 JUMPDEST DUP2 SLOAD DUP2 MSTORE SWAP1 PUSH1 0x1 ADD SWAP1 PUSH1 0x20 ADD DUP1 DUP4 GT PUSH2 0x195C JUMPI DUP3 SWAP1 SUB PUSH1 0x1F AND DUP3 ADD SWAP2 JUMPDEST POP POP POP POP POP SWAP1 DUP1 PUSH1 0x5 ADD SLOAD SWAP1 DUP1 PUSH1 0x6 ADD SLOAD SWAP1 DUP1 PUSH1 0x7 ADD DUP1 SLOAD PUSH2 0x199A SWAP1 PUSH2 0x5513 JUMP JUMPDEST DUP1 PUSH1 0x1F ADD PUSH1 0x20 DUP1 SWAP2 DIV MUL PUSH1 0x20 ADD PUSH1 0x40 MLOAD SWAP1 DUP2 ADD PUSH1 0x40 MSTORE DUP1 SWAP3 SWAP2 SWAP1 DUP2 DUP2 MSTORE PUSH1 0x20 ADD DUP3 DUP1 SLOAD PUSH2 0x19C6 SWAP1 PUSH2 0x5513 JUMP JUMPDEST DUP1 ISZERO PUSH2 0x1A13 JUMPI DUP1 PUSH1 0x1F LT PUSH2 0x19E8 JUMPI PUSH2 0x100 DUP1 DUP4 SLOAD DIV MUL DUP4 MSTORE SWAP2 PUSH1 0x20 ADD SWAP2 PUSH2 0x1A13 JUMP JUMPDEST DUP3 ADD SWAP2 SWAP1 PUSH1 0x0 MSTORE PUSH1 0x20 PUSH1 0x0 KECCAK256 SWAP1 JUMPDEST DUP2 SLOAD DUP2 MSTORE SWAP1 PUSH1 0x1 ADD SWAP1 PUSH1 0x20 ADD DUP1 DUP4 GT PUSH2 0x19F6 JUMPI DUP3 SWAP1 SUB PUSH1 0x1F AND DUP3 ADD SWAP2 JUMPDEST POP POP POP POP POP SWAP1 POP DUP9 JUMP JUMPDEST PUSH1 0xE PUSH1 0x0 DUP6 PUSH20 0xFFFFFFFFFFFFFFFFFFFFFFFFFFFFFFFFFFFFFFFF AND PUSH20 0xFFFFFFFFFFFFFFFFFFFFFFFFFFFFFFFFFFFFFFFF AND DUP2 MSTORE PUSH1 0x20 ADD SWAP1 DUP2 MSTORE PUSH1 0x20 ADD PUSH1 0x0 KECCAK256 PUSH1 0x0 SWAP1 SLOAD SWAP1 PUSH2 0x100 EXP SWAP1 DIV PUSH1 0xFF AND PUSH2 0x1A73 JUMPI PUSH1 0x0 DUP1 REVERT JUMPDEST PUSH1 0x0 PUSH1 0x2 DUP5 DUP2 SLOAD DUP2 LT PUSH2 0x1A89 JUMPI PUSH2 0x1A88 PUSH2 0x54B5 JUMP JUMPDEST JUMPDEST SWAP1 PUSH1 0x0 MSTORE PUSH1 0x20 PUSH1 0x0 KECCAK256 SWAP1 PUSH1 0x6 MUL ADD SWAP1 POP PUSH1 0x0 PUSH1 0x5 PUSH1 0x0 DUP8 PUSH20 0xFFFFFFFFFFFFFFFFFFFFFFFFFFFFFFFFFFFFFFFF AND PUSH20 0xFFFFFFFFFFFFFFFFFFFFFFFFFFFFFFFFFFFFFFFF AND DUP2 MSTORE PUSH1 0x20 ADD SWAP1 DUP2 MSTORE PUSH1 0x20 ADD PUSH1 0x0 KECCAK256 SWAP1 POP DUP3 ISZERO PUSH2 0x1E9C JUMPI DUP1 PUSH1 0x5 ADD PUSH1 0x0 DUP2 SLOAD DUP1 SWAP3 SWAP2 SWAP1 PUSH2 0x1AF7 SWAP1 PUSH2 0x581D JUMP JUMPDEST SWAP2 SWAP1 POP SSTORE POP PUSH1 0x6 PUSH1 0x0 DUP8 PUSH20 0xFFFFFFFFFFFFFFFFFFFFFFFFFFFFFFFFFFFFFFFF AND PUSH20 0xFFFFFFFFFFFFFFFFFFFFFFFFFFFFFFFFFFFFFFFF AND DUP2 MSTORE PUSH1 0x20 ADD SWAP1 DUP2 MSTORE PUSH1 0x20 ADD PUSH1 0x0 KECCAK256 DUP3 SWAP1 DUP1 PUSH1 0x1 DUP2 SLOAD ADD DUP1 DUP3 SSTORE DUP1 SWAP2 POP POP PUSH1 0x1 SWAP1 SUB SWAP1 PUSH1 0x0 MSTORE PUSH1 0x20 PUSH1 0x0 KECCAK256 SWAP1 PUSH1 0x6 MUL ADD PUSH1 0x0 SWAP1 SWAP2 SWAP1 SWAP2 SWAP1 SWAP2 POP PUSH1 0x0 DUP3 ADD SLOAD DUP2 PUSH1 0x0 ADD SSTORE PUSH1 0x1 DUP3 ADD DUP2 PUSH1 0x1 ADD SWAP1 DUP2 PUSH2 0x1B83 SWAP2 SWAP1 PUSH2 0x5706 JUMP JUMPDEST POP PUSH1 0x2 DUP3 ADD DUP2 PUSH1 0x2 ADD SWAP1 DUP2 PUSH2 0x1B98 SWAP2 SWAP1 PUSH2 0x5706 JUMP JUMPDEST POP PUSH1 0x3 DUP3 ADD DUP2 PUSH1 0x3 ADD SWAP1 DUP2 PUSH2 0x1BAD SWAP2 SWAP1 PUSH2 0x5706 JUMP JUMPDEST POP PUSH1 0x4 DUP3 ADD SLOAD DUP2 PUSH1 0x4 ADD SSTORE PUSH1 0x5 DUP3 ADD SLOAD DUP2 PUSH1 0x5 ADD SSTORE POP POP DUP2 PUSH1 0x4 ADD PUSH1 0x0 DUP2 SLOAD DUP1 SWAP3 SWAP2 SWAP1 PUSH2 0x1BD9 SWAP1 PUSH2 0x581D JUMP JUMPDEST SWAP2 SWAP1 POP SSTORE POP PUSH1 0x8 PUSH1 0x0 DUP7 DUP2 MSTORE PUSH1 0x20 ADD SWAP1 DUP2 MSTORE PUSH1 0x20 ADD PUSH1 0x0 KECCAK256 DUP2 SWAP1 DUP1 PUSH1 0x1 DUP2 SLOAD ADD DUP1 DUP3 SSTORE DUP1 SWAP2 POP POP PUSH1 0x1 SWAP1 SUB SWAP1 PUSH1 0x0 MSTORE PUSH1 0x20 PUSH1 0x0 KECCAK256 SWAP1 PUSH1 0x8 MUL ADD PUSH1 0x0 SWAP1 SWAP2 SWAP1 SWAP2 SWAP1 SWAP2 POP PUSH1 0x0 DUP3 ADD SLOAD DUP2 PUSH1 0x0 ADD SSTORE PUSH1 0x1 DUP3 ADD PUSH1 0x0 SWAP1 SLOAD SWAP1 PUSH2 0x100 EXP SWAP1 DIV PUSH20 0xFFFFFFFFFFFFFFFFFFFFFFFFFFFFFFFFFFFFFFFF AND DUP2 PUSH1 0x1 ADD PUSH1 0x0 PUSH2 0x100 EXP DUP2 SLOAD DUP2 PUSH20 0xFFFFFFFFFFFFFFFFFFFFFFFFFFFFFFFFFFFFFFFF MUL NOT AND SWAP1 DUP4 PUSH20 0xFFFFFFFFFFFFFFFFFFFFFFFFFFFFFFFFFFFFFFFF AND MUL OR SWAP1 SSTORE POP PUSH1 0x2 DUP3 ADD DUP2 PUSH1 0x2 ADD SWAP1 DUP2 PUSH2 0x1CA0 SWAP2 SWAP1 PUSH2 0x5706 JUMP JUMPDEST POP PUSH1 0x3 DUP3 ADD DUP2 PUSH1 0x3 ADD SWAP1 DUP2 PUSH2 0x1CB5 SWAP2 SWAP1 PUSH2 0x5706 JUMP JUMPDEST POP PUSH1 0x4 DUP3 ADD DUP2 PUSH1 0x4 ADD SWAP1 DUP2 PUSH2 0x1CCA SWAP2 SWAP1 PUSH2 0x5706 JUMP JUMPDEST POP PUSH1 0x5 DUP3 ADD SLOAD DUP2 PUSH1 0x5 ADD SSTORE PUSH1 0x6 DUP3 ADD SLOAD DUP2 PUSH1 0x6 ADD SSTORE PUSH1 0x7 DUP3 ADD DUP2 PUSH1 0x7 ADD SWAP1 DUP2 PUSH2 0x1CF3 SWAP2 SWAP1 PUSH2 0x5706 JUMP JUMPDEST POP POP POP PUSH1 0x11 PUSH1 0x0 DUP3 PUSH1 0x1 ADD PUSH1 0x0 SWAP1 SLOAD SWAP1 PUSH2 0x100 EXP SWAP1 DIV PUSH20 0xFFFFFFFFFFFFFFFFFFFFFFFFFFFFFFFFFFFFFFFF AND PUSH20 0xFFFFFFFFFFFFFFFFFFFFFFFFFFFFFFFFFFFFFFFF AND PUSH20 0xFFFFFFFFFFFFFFFFFFFFFFFFFFFFFFFFFFFFFFFF AND DUP2 MSTORE PUSH1 0x20 ADD SWAP1 DUP2 MSTORE PUSH1 0x20 ADD PUSH1 0x0 KECCAK256 PUSH1 0x0 DUP2 SLOAD DUP1 SWAP3 SWAP2 SWAP1 PUSH2 0x1D6A SWAP1 PUSH2 0x581D JUMP JUMPDEST SWAP2 SWAP1 POP SSTORE POP PUSH1 0x12 PUSH1 0x0 DUP7 DUP2 MSTORE PUSH1 0x20 ADD SWAP1 DUP2 MSTORE PUSH1 0x20 ADD PUSH1 0x0 KECCAK256 PUSH1 0x0 DUP2 SLOAD DUP1 SWAP3 SWAP2 SWAP1 PUSH2 0x1D93 SWAP1 PUSH2 0x581D JUMP JUMPDEST SWAP2 SWAP1 POP SSTORE POP DUP1 PUSH1 0x1 DUP3 PUSH1 0x0 ADD SLOAD DUP2 SLOAD DUP2 LT PUSH2 0x1DB1 JUMPI PUSH2 0x1DB0 PUSH2 0x54B5 JUMP JUMPDEST JUMPDEST SWAP1 PUSH1 0x0 MSTORE PUSH1 0x20 PUSH1 0x0 KECCAK256 SWAP1 PUSH1 0x8 MUL ADD PUSH1 0x0 DUP3 ADD SLOAD DUP2 PUSH1 0x0 ADD SSTORE PUSH1 0x1 DUP3 ADD PUSH1 0x0 SWAP1 SLOAD SWAP1 PUSH2 0x100 EXP SWAP1 DIV PUSH20 0xFFFFFFFFFFFFFFFFFFFFFFFFFFFFFFFFFFFFFFFF AND DUP2 PUSH1 0x1 ADD PUSH1 0x0 PUSH2 0x100 EXP DUP2 SLOAD DUP2 PUSH20 0xFFFFFFFFFFFFFFFFFFFFFFFFFFFFFFFFFFFFFFFF MUL NOT AND SWAP1 DUP4 PUSH20 0xFFFFFFFFFFFFFFFFFFFFFFFFFFFFFFFFFFFFFFFF AND MUL OR SWAP1 SSTORE POP PUSH1 0x2 DUP3 ADD DUP2 PUSH1 0x2 ADD SWAP1 DUP2 PUSH2 0x1E44 SWAP2 SWAP1 PUSH2 0x5706 JUMP JUMPDEST POP PUSH1 0x3 DUP3 ADD DUP2 PUSH1 0x3 ADD SWAP1 DUP2 PUSH2 0x1E59 SWAP2 SWAP1 PUSH2 0x5706 JUMP JUMPDEST POP PUSH1 0x4 DUP3 ADD DUP2 PUSH1 0x4 ADD SWAP1 DUP2 PUSH2 0x1E6E SWAP2 SWAP1 PUSH2 0x5706 JUMP JUMPDEST POP PUSH1 0x5 DUP3 ADD SLOAD DUP2 PUSH1 0x5 ADD SSTORE PUSH1 0x6 DUP3 ADD SLOAD DUP2 PUSH1 0x6 ADD SSTORE PUSH1 0x7 DUP3 ADD DUP2 PUSH1 0x7 ADD SWAP1 DUP2 PUSH2 0x1E97 SWAP2 SWAP1 PUSH2 0x5706 JUMP JUMPDEST POP SWAP1 POP POP JUMPDEST DUP2 PUSH1 0x5 ADD PUSH1 0x0 DUP2 SLOAD DUP1 SWAP3 SWAP2 SWAP1 PUSH2 0x1EB1 SWAP1 PUSH2 0x5865 JUMP JUMPDEST SWAP2 SWAP1 POP SSTORE POP PUSH1 0x9 PUSH1 0x0 DUP7 DUP2 MSTORE PUSH1 0x20 ADD SWAP1 DUP2 MSTORE PUSH1 0x20 ADD PUSH1 0x0 KECCAK256 DUP5 DUP2 SLOAD DUP2 LT PUSH2 0x1EDB JUMPI PUSH2 0x1EDA PUSH2 0x54B5 JUMP JUMPDEST JUMPDEST SWAP1 PUSH1 0x0 MSTORE PUSH1 0x20 PUSH1 0x0 KECCAK256 SWAP1 PUSH1 0x8 MUL ADD PUSH1 0x0 DUP1 DUP3 ADD PUSH1 0x0 SWAP1 SSTORE PUSH1 0x1 DUP3 ADD PUSH1 0x0 PUSH2 0x100 EXP DUP2 SLOAD SWAP1 PUSH20 0xFFFFFFFFFFFFFFFFFFFFFFFFFFFFFFFFFFFFFFFF MUL NOT AND SWAP1 SSTORE PUSH1 0x2 DUP3 ADD PUSH1 0x0 PUSH2 0x1F29 SWAP2 SWAP1 PUSH2 0x4931 JUMP JUMPDEST PUSH1 0x3 DUP3 ADD PUSH1 0x0 PUSH2 0x1F39 SWAP2 SWAP1 PUSH2 0x4931 JUMP JUMPDEST PUSH1 0x4 DUP3 ADD PUSH1 0x0 PUSH2 0x1F49 SWAP2 SWAP1 PUSH2 0x4931 JUMP JUMPDEST PUSH1 0x5 DUP3 ADD PUSH1 0x0 SWAP1 SSTORE PUSH1 0x6 DUP3 ADD PUSH1 0x0 SWAP1 SSTORE PUSH1 0x7 DUP3 ADD PUSH1 0x0 PUSH2 0x1F69 SWAP2 SWAP1 PUSH2 0x4931 JUMP JUMPDEST POP POP POP POP POP POP POP POP JUMP JUMPDEST PUSH1 0x9 PUSH1 0x20 MSTORE DUP2 PUSH1 0x0 MSTORE PUSH1 0x40 PUSH1 0x0 KECCAK256 DUP2 DUP2 SLOAD DUP2 LT PUSH2 0x1F8F JUMPI PUSH1 0x0 DUP1 REVERT JUMPDEST SWAP1 PUSH1 0x0 MSTORE PUSH1 0x20 PUSH1 0x0 KECCAK256 SWAP1 PUSH1 0x8 MUL ADD PUSH1 0x0 SWAP2 POP SWAP2 POP POP DUP1 PUSH1 0x0 ADD SLOAD SWAP1 DUP1 PUSH1 0x1 ADD PUSH1 0x0 SWAP1 SLOAD SWAP1 PUSH2 0x100 EXP SWAP1 DIV PUSH20 0xFFFFFFFFFFFFFFFFFFFFFFFFFFFFFFFFFFFFFFFF AND SWAP1 DUP1 PUSH1 0x2 ADD DUP1 SLOAD PUSH2 0x1FDF SWAP1 PUSH2 0x5513 JUMP JUMPDEST DUP1 PUSH1 0x1F ADD PUSH1 0x20 DUP1 SWAP2 DIV MUL PUSH1 0x20 ADD PUSH1 0x40 MLOAD SWAP1 DUP2 ADD PUSH1 0x40 MSTORE DUP1 SWAP3 SWAP2 SWAP1 DUP2 DUP2 MSTORE PUSH1 0x20 ADD DUP3 DUP1 SLOAD PUSH2 0x200B SWAP1 PUSH2 0x5513 JUMP JUMPDEST DUP1 ISZERO PUSH2 0x2058 JUMPI DUP1 PUSH1 0x1F LT PUSH2 0x202D JUMPI PUSH2 0x100 DUP1 DUP4 SLOAD DIV MUL DUP4 MSTORE SWAP2 PUSH1 0x20 ADD SWAP2 PUSH2 0x2058 JUMP JUMPDEST DUP3 ADD SWAP2 SWAP1 PUSH1 0x0 MSTORE PUSH1 0x20 PUSH1 0x0 KECCAK256 SWAP1 JUMPDEST DUP2 SLOAD DUP2 MSTORE SWAP1 PUSH1 0x1 ADD SWAP1 PUSH1 0x20 ADD DUP1 DUP4 GT PUSH2 0x203B JUMPI DUP3 SWAP1 SUB PUSH1 0x1F AND DUP3 ADD SWAP2 JUMPDEST POP POP POP POP POP SWAP1 DUP1 PUSH1 0x3 ADD DUP1 SLOAD PUSH2 0x206D SWAP1 PUSH2 0x5513 JUMP JUMPDEST DUP1 PUSH1 0x1F ADD PUSH1 0x20 DUP1 SWAP2 DIV MUL PUSH1 0x20 ADD PUSH1 0x40 MLOAD SWAP1 DUP2 ADD PUSH1 0x40 MSTORE DUP1 SWAP3 SWAP2 SWAP1 DUP2 DUP2 MSTORE PUSH1 0x20 ADD DUP3 DUP1 SLOAD PUSH2 0x2099 SWAP1 PUSH2 0x5513 JUMP JUMPDEST DUP1 ISZERO PUSH2 0x20E6 JUMPI DUP1 PUSH1 0x1F LT PUSH2 0x20BB JUMPI PUSH2 0x100 DUP1 DUP4 SLOAD DIV MUL DUP4 MSTORE SWAP2 PUSH1 0x20 ADD SWAP2 PUSH2 0x20E6 JUMP JUMPDEST DUP3 ADD SWAP2 SWAP1 PUSH1 0x0 MSTORE PUSH1 0x20 PUSH1 0x0 KECCAK256 SWAP1 JUMPDEST DUP2 SLOAD DUP2 MSTORE SWAP1 PUSH1 0x1 ADD SWAP1 PUSH1 0x20 ADD DUP1 DUP4 GT PUSH2 0x20C9 JUMPI DUP3 SWAP1 SUB PUSH1 0x1F AND DUP3 ADD SWAP2 JUMPDEST POP POP POP POP POP SWAP1 DUP1 PUSH1 0x4 ADD DUP1 SLOAD PUSH2 0x20FB SWAP1 PUSH2 0x5513 JUMP JUMPDEST DUP1 PUSH1 0x1F ADD PUSH1 0x20 DUP1 SWAP2 DIV MUL PUSH1 0x20 ADD PUSH1 0x40 MLOAD SWAP1 DUP2 ADD PUSH1 0x40 MSTORE DUP1 SWAP3 SWAP2 SWAP1 DUP2 DUP2 MSTORE PUSH1 0x20 ADD DUP3 DUP1 SLOAD PUSH2 0x2127 SWAP1 PUSH2 0x5513 JUMP JUMPDEST DUP1 ISZERO PUSH2 0x2174 JUMPI DUP1 PUSH1 0x1F LT PUSH2 0x2149 JUMPI PUSH2 0x100 DUP1 DUP4 SLOAD DIV MUL DUP4 MSTORE SWAP2 PUSH1 0x20 ADD SWAP2 PUSH2 0x2174 JUMP JUMPDEST DUP3 ADD SWAP2 SWAP1 PUSH1 0x0 MSTORE PUSH1 0x20 PUSH1 0x0 KECCAK256 SWAP1 JUMPDEST DUP2 SLOAD DUP2 MSTORE SWAP1 PUSH1 0x1 ADD SWAP1 PUSH1 0x20 ADD DUP1 DUP4 GT PUSH2 0x2157 JUMPI DUP3 SWAP1 SUB PUSH1 0x1F AND DUP3 ADD SWAP2 JUMPDEST POP POP POP POP POP SWAP1 DUP1 PUSH1 0x5 ADD SLOAD SWAP1 DUP1 PUSH1 0x6 ADD SLOAD SWAP1 DUP1 PUSH1 0x7 ADD DUP1 SLOAD PUSH2 0x2195 SWAP1 PUSH2 0x5513 JUMP JUMPDEST DUP1 PUSH1 0x1F ADD PUSH1 0x20 DUP1 SWAP2 DIV MUL PUSH1 0x20 ADD PUSH1 0x40 MLOAD SWAP1 DUP2 ADD PUSH1 0x40 MSTORE DUP1 SWAP3 SWAP2 SWAP1 DUP2 DUP2 MSTORE PUSH1 0x20 ADD DUP3 DUP1 SLOAD PUSH2 0x21C1 SWAP1 PUSH2 0x5513 JUMP JUMPDEST DUP1 ISZERO PUSH2 0x220E JUMPI DUP1 PUSH1 0x1F LT PUSH2 0x21E3 JUMPI PUSH2 0x100 DUP1 DUP4 SLOAD DIV MUL DUP4 MSTORE SWAP2 PUSH1 0x20 ADD SWAP2 PUSH2 0x220E JUMP JUMPDEST DUP3 ADD SWAP2 SWAP1 PUSH1 0x0 MSTORE PUSH1 0x20 PUSH1 0x0 KECCAK256 SWAP1 JUMPDEST DUP2 SLOAD DUP2 MSTORE SWAP1 PUSH1 0x1 ADD SWAP1 PUSH1 0x20 ADD DUP1 DUP4 GT PUSH2 0x21F1 JUMPI DUP3 SWAP1 SUB PUSH1 0x1F AND DUP3 ADD SWAP2 JUMPDEST POP POP POP POP POP SWAP1 POP DUP9 JUMP JUMPDEST PUSH1 0x0 DUP1 SLOAD SWAP1 PUSH2 0x100 EXP SWAP1 DIV PUSH20 0xFFFFFFFFFFFFFFFFFFFFFFFFFFFFFFFFFFFFFFFF AND DUP2 JUMP JUMPDEST PUSH1 0x7 DUP2 DUP1 MLOAD PUSH1 0x20 DUP2 ADD DUP3 ADD DUP1 MLOAD DUP5 DUP3 MSTORE PUSH1 0x20 DUP4 ADD PUSH1 0x20 DUP6 ADD KECCAK256 DUP2 DUP4 MSTORE DUP1 SWAP6 POP POP POP POP POP POP PUSH1 0x0 SWAP2 POP SWAP1 POP DUP1 PUSH1 0x0 ADD SLOAD SWAP1 DUP1 PUSH1 0x1 ADD DUP1 SLOAD PUSH2 0x227B SWAP1 PUSH2 0x5513 JUMP JUMPDEST DUP1 PUSH1 0x1F ADD PUSH1 0x20 DUP1 SWAP2 DIV MUL PUSH1 0x20 ADD PUSH1 0x40 MLOAD SWAP1 DUP2 ADD PUSH1 0x40 MSTORE DUP1 SWAP3 SWAP2 SWAP1 DUP2 DUP2 MSTORE PUSH1 0x20 ADD DUP3 DUP1 SLOAD PUSH2 0x22A7 SWAP1 PUSH2 0x5513 JUMP JUMPDEST DUP1 ISZERO PUSH2 0x22F4 JUMPI DUP1 PUSH1 0x1F LT PUSH2 0x22C9 JUMPI PUSH2 0x100 DUP1 DUP4 SLOAD DIV MUL DUP4 MSTORE SWAP2 PUSH1 0x20 ADD SWAP2 PUSH2 0x22F4 JUMP JUMPDEST DUP3 ADD SWAP2 SWAP1 PUSH1 0x0 MSTORE PUSH1 0x20 PUSH1 0x0 KECCAK256 SWAP1 JUMPDEST DUP2 SLOAD DUP2 MSTORE SWAP1 PUSH1 0x1 ADD SWAP1 PUSH1 0x20 ADD DUP1 DUP4 GT PUSH2 0x22D7 JUMPI DUP3 SWAP1 SUB PUSH1 0x1F AND DUP3 ADD SWAP2 JUMPDEST POP POP POP POP POP SWAP1 DUP1 PUSH1 0x2 ADD DUP1 SLOAD PUSH2 0x2309 SWAP1 PUSH2 0x5513 JUMP JUMPDEST DUP1 PUSH1 0x1F ADD PUSH1 0x20 DUP1 SWAP2 DIV MUL PUSH1 0x20 ADD PUSH1 0x40 MLOAD SWAP1 DUP2 ADD PUSH1 0x40 MSTORE DUP1 SWAP3 SWAP2 SWAP1 DUP2 DUP2 MSTORE PUSH1 0x20 ADD DUP3 DUP1 SLOAD PUSH2 0x2335 SWAP1 PUSH2 0x5513 JUMP JUMPDEST DUP1 ISZERO PUSH2 0x2382 JUMPI DUP1 PUSH1 0x1F LT PUSH2 0x2357 JUMPI PUSH2 0x100 DUP1 DUP4 SLOAD DIV MUL DUP4 MSTORE SWAP2 PUSH1 0x20 ADD SWAP2 PUSH2 0x2382 JUMP JUMPDEST DUP3 ADD SWAP2 SWAP1 PUSH1 0x0 MSTORE PUSH1 0x20 PUSH1 0x0 KECCAK256 SWAP1 JUMPDEST DUP2 SLOAD DUP2 MSTORE SWAP1 PUSH1 0x1 ADD SWAP1 PUSH1 0x20 ADD DUP1 DUP4 GT PUSH2 0x2365 JUMPI DUP3 SWAP1 SUB PUSH1 0x1F AND DUP3 ADD SWAP2 JUMPDEST POP POP POP POP POP SWAP1 DUP1 PUSH1 0x3 ADD DUP1 SLOAD PUSH2 0x2397 SWAP1 PUSH2 0x5513 JUMP JUMPDEST DUP1 PUSH1 0x1F ADD PUSH1 0x20 DUP1 SWAP2 DIV MUL PUSH1 0x20 ADD PUSH1 0x40 MLOAD SWAP1 DUP2 ADD PUSH1 0x40 MSTORE DUP1 SWAP3 SWAP2 SWAP1 DUP2 DUP2 MSTORE PUSH1 0x20 ADD DUP3 DUP1 SLOAD PUSH2 0x23C3 SWAP1 PUSH2 0x5513 JUMP JUMPDEST DUP1 ISZERO PUSH2 0x2410 JUMPI DUP1 PUSH1 0x1F LT PUSH2 0x23E5 JUMPI PUSH2 0x100 DUP1 DUP4 SLOAD DIV MUL DUP4 MSTORE SWAP2 PUSH1 0x20 ADD SWAP2 PUSH2 0x2410 JUMP JUMPDEST DUP3 ADD SWAP2 SWAP1 PUSH1 0x0 MSTORE PUSH1 0x20 PUSH1 0x0 KECCAK256 SWAP1 JUMPDEST DUP2 SLOAD DUP2 MSTORE SWAP1 PUSH1 0x1 ADD SWAP1 PUSH1 0x20 ADD DUP1 DUP4 GT PUSH2 0x23F3 JUMPI DUP3 SWAP1 SUB PUSH1 0x1F AND DUP3 ADD SWAP2 JUMPDEST POP POP POP POP POP SWAP1 DUP1 PUSH1 0x4 ADD SLOAD SWAP1 DUP1 PUSH1 0x5 ADD SLOAD SWAP1 POP DUP7 JUMP JUMPDEST PUSH1 0xE PUSH1 0x0 DUP4 PUSH20 0xFFFFFFFFFFFFFFFFFFFFFFFFFFFFFFFFFFFFFFFF AND PUSH20 0xFFFFFFFFFFFFFFFFFFFFFFFFFFFFFFFFFFFFFFFF AND DUP2 MSTORE PUSH1 0x20 ADD SWAP1 DUP2 MSTORE PUSH1 0x20 ADD PUSH1 0x0 KECCAK256 PUSH1 0x0 SWAP1 SLOAD SWAP1 PUSH2 0x100 EXP SWAP1 DIV PUSH1 0xFF AND PUSH2 0x247C JUMPI PUSH1 0x0 DUP1 REVERT JUMPDEST PUSH1 0x0 PUSH1 0x5 PUSH1 0x0 DUP5 PUSH20 0xFFFFFFFFFFFFFFFFFFFFFFFFFFFFFFFFFFFFFFFF AND PUSH20 0xFFFFFFFFFFFFFFFFFFFFFFFFFFFFFFFFFFFFFFFF AND DUP2 MSTORE PUSH1 0x20 ADD SWAP1 DUP2 MSTORE PUSH1 0x20 ADD PUSH1 0x0 KECCAK256 SWAP1 POP PUSH1 0x0 PUSH1 0x2 DUP4 DUP2 SLOAD DUP2 LT PUSH2 0x24D5 JUMPI PUSH2 0x24D4 PUSH2 0x54B5 JUMP JUMPDEST JUMPDEST SWAP1 PUSH1 0x0 MSTORE PUSH1 0x20 PUSH1 0x0 KECCAK256 SWAP1 PUSH1 0x6 MUL ADD SWAP1 POP DUP1 PUSH1 0x5 ADD PUSH1 0x0 DUP2 SLOAD DUP1 SWAP3 SWAP2 SWAP1 PUSH2 0x24FA SWAP1 PUSH2 0x581D JUMP JUMPDEST SWAP2 SWAP1 POP SSTORE POP PUSH1 0x9 PUSH1 0x0 DUP5 DUP2 MSTORE PUSH1 0x20 ADD SWAP1 DUP2 MSTORE PUSH1 0x20 ADD PUSH1 0x0 KECCAK256 DUP3 SWAP1 DUP1 PUSH1 0x1 DUP2 SLOAD ADD DUP1 DUP3 SSTORE DUP1 SWAP2 POP POP PUSH1 0x1 SWAP1 SUB SWAP1 PUSH1 0x0 MSTORE PUSH1 0x20 PUSH1 0x0 KECCAK256 SWAP1 PUSH1 0x8 MUL ADD PUSH1 0x0 SWAP1 SWAP2 SWAP1 SWAP2 SWAP1 SWAP2 POP PUSH1 0x0 DUP3 ADD SLOAD DUP2 PUSH1 0x0 ADD SSTORE PUSH1 0x1 DUP3 ADD PUSH1 0x0 SWAP1 SLOAD SWAP1 PUSH2 0x100 EXP SWAP1 DIV PUSH20 0xFFFFFFFFFFFFFFFFFFFFFFFFFFFFFFFFFFFFFFFF AND DUP2 PUSH1 0x1 ADD PUSH1 0x0 PUSH2 0x100 EXP DUP2 SLOAD DUP2 PUSH20 0xFFFFFFFFFFFFFFFFFFFFFFFFFFFFFFFFFFFFFFFF MUL NOT AND SWAP1 DUP4 PUSH20 0xFFFFFFFFFFFFFFFFFFFFFFFFFFFFFFFFFFFFFFFF AND MUL OR SWAP1 SSTORE POP PUSH1 0x2 DUP3 ADD DUP2 PUSH1 0x2 ADD SWAP1 DUP2 PUSH2 0x25C1 SWAP2 SWAP1 PUSH2 0x5706 JUMP JUMPDEST POP PUSH1 0x3 DUP3 ADD DUP2 PUSH1 0x3 ADD SWAP1 DUP2 PUSH2 0x25D6 SWAP2 SWAP1 PUSH2 0x5706 JUMP JUMPDEST POP PUSH1 0x4 DUP3 ADD DUP2 PUSH1 0x4 ADD SWAP1 DUP2 PUSH2 0x25EB SWAP2 SWAP1 PUSH2 0x5706 JUMP JUMPDEST POP PUSH1 0x5 DUP3 ADD SLOAD DUP2 PUSH1 0x5 ADD SSTORE PUSH1 0x6 DUP3 ADD SLOAD DUP2 PUSH1 0x6 ADD SSTORE PUSH1 0x7 DUP3 ADD DUP2 PUSH1 0x7 ADD SWAP1 DUP2 PUSH2 0x2614 SWAP2 SWAP1 PUSH2 0x5706 JUMP JUMPDEST POP POP POP POP POP POP POP JUMP JUMPDEST PUSH1 0x2 DUP2 DUP2 SLOAD DUP2 LT PUSH2 0x262D JUMPI PUSH1 0x0 DUP1 REVERT JUMPDEST SWAP1 PUSH1 0x0 MSTORE PUSH1 0x20 PUSH1 0x0 KECCAK256 SWAP1 PUSH1 0x6 MUL ADD PUSH1 0x0 SWAP2 POP SWAP1 POP DUP1 PUSH1 0x0 ADD SLOAD SWAP1 DUP1 PUSH1 0x1 ADD DUP1 SLOAD PUSH2 0x2656 SWAP1 PUSH2 0x5513 JUMP JUMPDEST DUP1 PUSH1 0x1F ADD PUSH1 0x20 DUP1 SWAP2 DIV MUL PUSH1 0x20 ADD PUSH1 0x40 MLOAD SWAP1 DUP2 ADD PUSH1 0x40 MSTORE DUP1 SWAP3 SWAP2 SWAP1 DUP2 DUP2 MSTORE PUSH1 0x20 ADD DUP3 DUP1 SLOAD PUSH2 0x2682 SWAP1 PUSH2 0x5513 JUMP JUMPDEST DUP1 ISZERO PUSH2 0x26CF JUMPI DUP1 PUSH1 0x1F LT PUSH2 0x26A4 JUMPI PUSH2 0x100 DUP1 DUP4 SLOAD DIV MUL DUP4 MSTORE SWAP2 PUSH1 0x20 ADD SWAP2 PUSH2 0x26CF JUMP JUMPDEST DUP3 ADD SWAP2 SWAP1 PUSH1 0x0 MSTORE PUSH1 0x20 PUSH1 0x0 KECCAK256 SWAP1 JUMPDEST DUP2 SLOAD DUP2 MSTORE SWAP1 PUSH1 0x1 ADD SWAP1 PUSH1 0x20 ADD DUP1 DUP4 GT PUSH2 0x26B2 JUMPI DUP3 SWAP1 SUB PUSH1 0x1F AND DUP3 ADD SWAP2 JUMPDEST POP POP POP POP POP SWAP1 DUP1 PUSH1 0x2 ADD DUP1 SLOAD PUSH2 0x26E4 SWAP1 PUSH2 0x5513 JUMP JUMPDEST DUP1 PUSH1 0x1F ADD PUSH1 0x20 DUP1 SWAP2 DIV MUL PUSH1 0x20 ADD PUSH1 0x40 MLOAD SWAP1 DUP2 ADD PUSH1 0x40 MSTORE DUP1 SWAP3 SWAP2 SWAP1 DUP2 DUP2 MSTORE PUSH1 0x20 ADD DUP3 DUP1 SLOAD PUSH2 0x2710 SWAP1 PUSH2 0x5513 JUMP JUMPDEST DUP1 ISZERO PUSH2 0x275D JUMPI DUP1 PUSH1 0x1F LT PUSH2 0x2732 JUMPI PUSH2 0x100 DUP1 DUP4 SLOAD DIV MUL DUP4 MSTORE SWAP2 PUSH1 0x20 ADD SWAP2 PUSH2 0x275D JUMP JUMPDEST DUP3 ADD SWAP2 SWAP1 PUSH1 0x0 MSTORE PUSH1 0x20 PUSH1 0x0 KECCAK256 SWAP1 JUMPDEST DUP2 SLOAD DUP2 MSTORE SWAP1 PUSH1 0x1 ADD SWAP1 PUSH1 0x20 ADD DUP1 DUP4 GT PUSH2 0x2740 JUMPI DUP3 SWAP1 SUB PUSH1 0x1F AND DUP3 ADD SWAP2 JUMPDEST POP POP POP POP POP SWAP1 DUP1 PUSH1 0x3 ADD DUP1 SLOAD PUSH2 0x2772 SWAP1 PUSH2 0x5513 JUMP JUMPDEST DUP1 PUSH1 0x1F ADD PUSH1 0x20 DUP1 SWAP2 DIV MUL PUSH1 0x20 ADD PUSH1 0x40 MLOAD SWAP1 DUP2 ADD PUSH1 0x40 MSTORE DUP1 SWAP3 SWAP2 SWAP1 DUP2 DUP2 MSTORE PUSH1 0x20 ADD DUP3 DUP1 SLOAD PUSH2 0x279E SWAP1 PUSH2 0x5513 JUMP JUMPDEST DUP1 ISZERO PUSH2 0x27EB JUMPI DUP1 PUSH1 0x1F LT PUSH2 0x27C0 JUMPI PUSH2 0x100 DUP1 DUP4 SLOAD DIV MUL DUP4 MSTORE SWAP2 PUSH1 0x20 ADD SWAP2 PUSH2 0x27EB JUMP JUMPDEST DUP3 ADD SWAP2 SWAP1 PUSH1 0x0 MSTORE PUSH1 0x20 PUSH1 0x0 KECCAK256 SWAP1 JUMPDEST DUP2 SLOAD DUP2 MSTORE SWAP1 PUSH1 0x1 ADD SWAP1 PUSH1 0x20 ADD DUP1 DUP4 GT PUSH2 0x27CE JUMPI DUP3 SWAP1 SUB PUSH1 0x1F AND DUP3 ADD SWAP2 JUMPDEST POP POP POP POP POP SWAP1 DUP1 PUSH1 0x4 ADD SLOAD SWAP1 DUP1 PUSH1 0x5 ADD SLOAD SWAP1 POP DUP7 JUMP JUMPDEST PUSH1 0xE PUSH1 0x0 CALLER PUSH20 0xFFFFFFFFFFFFFFFFFFFFFFFFFFFFFFFFFFFFFFFF AND PUSH20 0xFFFFFFFFFFFFFFFFFFFFFFFFFFFFFFFFFFFFFFFF AND DUP2 MSTORE PUSH1 0x20 ADD SWAP1 DUP2 MSTORE PUSH1 0x20 ADD PUSH1 0x0 KECCAK256 PUSH1 0x0 SWAP1 SLOAD SWAP1 PUSH2 0x100 EXP SWAP1 DIV PUSH1 0xFF AND PUSH2 0x2857 JUMPI PUSH1 0x0 DUP1 REVERT JUMPDEST PUSH1 0x0 PUSH1 0x5 PUSH1 0x0 DUP5 PUSH20 0xFFFFFFFFFFFFFFFFFFFFFFFFFFFFFFFFFFFFFFFF AND PUSH20 0xFFFFFFFFFFFFFFFFFFFFFFFFFFFFFFFFFFFFFFFF AND DUP2 MSTORE PUSH1 0x20 ADD SWAP1 DUP2 MSTORE PUSH1 0x20 ADD PUSH1 0x0 KECCAK256 SWAP1 POP PUSH1 0x0 PUSH1 0x2 DUP4 DUP2 SLOAD DUP2 LT PUSH2 0x28B0 JUMPI PUSH2 0x28AF PUSH2 0x54B5 JUMP JUMPDEST JUMPDEST SWAP1 PUSH1 0x0 MSTORE PUSH1 0x20 PUSH1 0x0 KECCAK256 SWAP1 PUSH1 0x6 MUL ADD SWAP1 POP DUP2 PUSH1 0x6 ADD PUSH1 0x0 DUP2 SLOAD DUP1 SWAP3 SWAP2 SWAP1 PUSH2 0x28D5 SWAP1 PUSH2 0x581D JUMP JUMPDEST SWAP2 SWAP1 POP SSTORE POP DUP2 PUSH1 0x1 DUP4 PUSH1 0x0 ADD SLOAD DUP2 SLOAD DUP2 LT PUSH2 0x28F3 JUMPI PUSH2 0x28F2 PUSH2 0x54B5 JUMP JUMPDEST JUMPDEST SWAP1 PUSH1 0x0 MSTORE PUSH1 0x20 PUSH1 0x0 KECCAK256 SWAP1 PUSH1 0x8 MUL ADD PUSH1 0x0 DUP3 ADD SLOAD DUP2 PUSH1 0x0 ADD SSTORE PUSH1 0x1 DUP3 ADD PUSH1 0x0 SWAP1 SLOAD SWAP1 PUSH2 0x100 EXP SWAP1 DIV PUSH20 0xFFFFFFFFFFFFFFFFFFFFFFFFFFFFFFFFFFFFFFFF AND DUP2 PUSH1 0x1 ADD PUSH1 0x0 PUSH2 0x100 EXP DUP2 SLOAD DUP2 PUSH20 0xFFFFFFFFFFFFFFFFFFFFFFFFFFFFFFFFFFFFFFFF MUL NOT AND SWAP1 DUP4 PUSH20 0xFFFFFFFFFFFFFFFFFFFFFFFFFFFFFFFFFFFFFFFF AND MUL OR SWAP1 SSTORE POP PUSH1 0x2 DUP3 ADD DUP2 PUSH1 0x2 ADD SWAP1 DUP2 PUSH2 0x2986 SWAP2 SWAP1 PUSH2 0x5706 JUMP JUMPDEST POP PUSH1 0x3 DUP3 ADD DUP2 PUSH1 0x3 ADD SWAP1 DUP2 PUSH2 0x299B SWAP2 SWAP1 PUSH2 0x5706 JUMP JUMPDEST POP PUSH1 0x4 DUP3 ADD DUP2 PUSH1 0x4 ADD SWAP1 DUP2 PUSH2 0x29B0 SWAP2 SWAP1 PUSH2 0x5706 JUMP JUMPDEST POP PUSH1 0x5 DUP3 ADD SLOAD DUP2 PUSH1 0x5 ADD SSTORE PUSH1 0x6 DUP3 ADD SLOAD DUP2 PUSH1 0x6 ADD SSTORE PUSH1 0x7 DUP3 ADD DUP2 PUSH1 0x7 ADD SWAP1 DUP2 PUSH2 0x29D9 SWAP2 SWAP1 PUSH2 0x5706 JUMP JUMPDEST POP SWAP1 POP POP PUSH1 0xA PUSH1 0x0 DUP6 PUSH20 0xFFFFFFFFFFFFFFFFFFFFFFFFFFFFFFFFFFFFFFFF AND PUSH20 0xFFFFFFFFFFFFFFFFFFFFFFFFFFFFFFFFFFFFFFFF AND DUP2 MSTORE PUSH1 0x20 ADD SWAP1 DUP2 MSTORE PUSH1 0x20 ADD PUSH1 0x0 KECCAK256 DUP2 SWAP1 DUP1 PUSH1 0x1 DUP2 SLOAD ADD DUP1 DUP3 SSTORE DUP1 SWAP2 POP POP PUSH1 0x1 SWAP1 SUB SWAP1 PUSH1 0x0 MSTORE PUSH1 0x20 PUSH1 0x0 KECCAK256 SWAP1 PUSH1 0x6 MUL ADD PUSH1 0x0 SWAP1 SWAP2 SWAP1 SWAP2 SWAP1 SWAP2 POP PUSH1 0x0 DUP3 ADD SLOAD DUP2 PUSH1 0x0 ADD SSTORE PUSH1 0x1 DUP3 ADD DUP2 PUSH1 0x1 ADD SWAP1 DUP2 PUSH2 0x2A64 SWAP2 SWAP1 PUSH2 0x5706 JUMP JUMPDEST POP PUSH1 0x2 DUP3 ADD DUP2 PUSH1 0x2 ADD SWAP1 DUP2 PUSH2 0x2A79 SWAP2 SWAP1 PUSH2 0x5706 JUMP JUMPDEST POP PUSH1 0x3 DUP3 ADD DUP2 PUSH1 0x3 ADD SWAP1 DUP2 PUSH2 0x2A8E SWAP2 SWAP1 PUSH2 0x5706 JUMP JUMPDEST POP PUSH1 0x4 DUP3 ADD SLOAD DUP2 PUSH1 0x4 ADD SSTORE PUSH1 0x5 DUP3 ADD SLOAD DUP2 PUSH1 0x5 ADD SSTORE POP POP POP POP POP POP JUMP JUMPDEST PUSH1 0x0 DUP1 SLOAD SWAP1 PUSH2 0x100 EXP SWAP1 DIV PUSH20 0xFFFFFFFFFFFFFFFFFFFFFFFFFFFFFFFFFFFFFFFF AND PUSH20 0xFFFFFFFFFFFFFFFFFFFFFFFFFFFFFFFFFFFFFFFF AND CALLER PUSH20 0xFFFFFFFFFFFFFFFFFFFFFFFFFFFFFFFFFFFFFFFF AND EQ PUSH2 0x2B39 JUMPI PUSH1 0x40 MLOAD PUSH32 0x8C379A000000000000000000000000000000000000000000000000000000000 DUP2 MSTORE PUSH1 0x4 ADD PUSH2 0x2B30 SWAP1 PUSH2 0x5A59 JUMP JUMPDEST PUSH1 0x40 MLOAD DUP1 SWAP2 SUB SWAP1 REVERT JUMPDEST DUP1 PUSH20 0xFFFFFFFFFFFFFFFFFFFFFFFFFFFFFFFFFFFFFFFF AND PUSH2 0x8FC SELFBALANCE SWAP1 DUP2 ISZERO MUL SWAP1 PUSH1 0x40 MLOAD PUSH1 0x0 PUSH1 0x40 MLOAD DUP1 DUP4 SUB DUP2 DUP6 DUP9 DUP9 CALL SWAP4 POP POP POP POP ISZERO DUP1 ISZERO PUSH2 0x2B7F JUMPI RETURNDATASIZE PUSH1 0x0 DUP1 RETURNDATACOPY RETURNDATASIZE PUSH1 0x0 REVERT JUMPDEST POP POP JUMP JUMPDEST PUSH1 0x13 SLOAD DUP2 JUMP JUMPDEST PUSH1 0xD DUP2 DUP1 MLOAD PUSH1 0x20 DUP2 ADD DUP3 ADD DUP1 MLOAD DUP5 DUP3 MSTORE PUSH1 0x20 DUP4 ADD PUSH1 0x20 DUP6 ADD KECCAK256 DUP2 DUP4 MSTORE DUP1 SWAP6 POP POP POP POP POP POP PUSH1 0x0 SWAP2 POP SWAP1 POP SLOAD DUP2 JUMP JUMPDEST PUSH1 0x1 DUP2 DUP2 SLOAD DUP2 LT PUSH2 0x2BC7 JUMPI PUSH1 0x0 DUP1 REVERT JUMPDEST SWAP1 PUSH1 0x0 MSTORE PUSH1 0x20 PUSH1 0x0 KECCAK256 SWAP1 PUSH1 0x8 MUL ADD PUSH1 0x0 SWAP2 POP SWAP1 POP DUP1 PUSH1 0x0 ADD SLOAD SWAP1 DUP1 PUSH1 0x1 ADD PUSH1 0x0 SWAP1 SLOAD SWAP1 PUSH2 0x100 EXP SWAP1 DIV PUSH20 0xFFFFFFFFFFFFFFFFFFFFFFFFFFFFFFFFFFFFFFFF AND SWAP1 DUP1 PUSH1 0x2 ADD DUP1 SLOAD PUSH2 0x2C16 SWAP1 PUSH2 0x5513 JUMP JUMPDEST DUP1 PUSH1 0x1F ADD PUSH1 0x20 DUP1 SWAP2 DIV MUL PUSH1 0x20 ADD PUSH1 0x40 MLOAD SWAP1 DUP2 ADD PUSH1 0x40 MSTORE DUP1 SWAP3 SWAP2 SWAP1 DUP2 DUP2 MSTORE PUSH1 0x20 ADD DUP3 DUP1 SLOAD PUSH2 0x2C42 SWAP1 PUSH2 0x5513 JUMP JUMPDEST DUP1 ISZERO PUSH2 0x2C8F JUMPI DUP1 PUSH1 0x1F LT PUSH2 0x2C64 JUMPI PUSH2 0x100 DUP1 DUP4 SLOAD DIV MUL DUP4 MSTORE SWAP2 PUSH1 0x20 ADD SWAP2 PUSH2 0x2C8F JUMP JUMPDEST DUP3 ADD SWAP2 SWAP1 PUSH1 0x0 MSTORE PUSH1 0x20 PUSH1 0x0 KECCAK256 SWAP1 JUMPDEST DUP2 SLOAD DUP2 MSTORE SWAP1 PUSH1 0x1 ADD SWAP1 PUSH1 0x20 ADD DUP1 DUP4 GT PUSH2 0x2C72 JUMPI DUP3 SWAP1 SUB PUSH1 0x1F AND DUP3 ADD SWAP2 JUMPDEST POP POP POP POP POP SWAP1 DUP1 PUSH1 0x3 ADD DUP1 SLOAD PUSH2 0x2CA4 SWAP1 PUSH2 0x5513 JUMP JUMPDEST DUP1 PUSH1 0x1F ADD PUSH1 0x20 DUP1 SWAP2 DIV MUL PUSH1 0x20 ADD PUSH1 0x40 MLOAD SWAP1 DUP2 ADD PUSH1 0x40 MSTORE DUP1 SWAP3 SWAP2 SWAP1 DUP2 DUP2 MSTORE PUSH1 0x20 ADD DUP3 DUP1 SLOAD PUSH2 0x2CD0 SWAP1 PUSH2 0x5513 JUMP JUMPDEST DUP1 ISZERO PUSH2 0x2D1D JUMPI DUP1 PUSH1 0x1F LT PUSH2 0x2CF2 JUMPI PUSH2 0x100 DUP1 DUP4 SLOAD DIV MUL DUP4 MSTORE SWAP2 PUSH1 0x20 ADD SWAP2 PUSH2 0x2D1D JUMP JUMPDEST DUP3 ADD SWAP2 SWAP1 PUSH1 0x0 MSTORE PUSH1 0x20 PUSH1 0x0 KECCAK256 SWAP1 JUMPDEST DUP2 SLOAD DUP2 MSTORE SWAP1 PUSH1 0x1 ADD SWAP1 PUSH1 0x20 ADD DUP1 DUP4 GT PUSH2 0x2D00 JUMPI DUP3 SWAP1 SUB PUSH1 0x1F AND DUP3 ADD SWAP2 JUMPDEST POP POP POP POP POP SWAP1 DUP1 PUSH1 0x4 ADD DUP1 SLOAD PUSH2 0x2D32 SWAP1 PUSH2 0x5513 JUMP JUMPDEST DUP1 PUSH1 0x1F ADD PUSH1 0x20 DUP1 SWAP2 DIV MUL PUSH1 0x20 ADD PUSH1 0x40 MLOAD SWAP1 DUP2 ADD PUSH1 0x40 MSTORE DUP1 SWAP3 SWAP2 SWAP1 DUP2 DUP2 MSTORE PUSH1 0x20 ADD DUP3 DUP1 SLOAD PUSH2 0x2D5E SWAP1 PUSH2 0x5513 JUMP JUMPDEST DUP1 ISZERO PUSH2 0x2DAB JUMPI DUP1 PUSH1 0x1F LT PUSH2 0x2D80 JUMPI PUSH2 0x100 DUP1 DUP4 SLOAD DIV MUL DUP4 MSTORE SWAP2 PUSH1 0x20 ADD SWAP2 PUSH2 0x2DAB JUMP JUMPDEST DUP3 ADD SWAP2 SWAP1 PUSH1 0x0 MSTORE PUSH1 0x20 PUSH1 0x0 KECCAK256 SWAP1 JUMPDEST DUP2 SLOAD DUP2 MSTORE SWAP1 PUSH1 0x1 ADD SWAP1 PUSH1 0x20 ADD DUP1 DUP4 GT PUSH2 0x2D8E JUMPI DUP3 SWAP1 SUB PUSH1 0x1F AND DUP3 ADD SWAP2 JUMPDEST POP POP POP POP POP SWAP1 DUP1 PUSH1 0x5 ADD SLOAD SWAP1 DUP1 PUSH1 0x6 ADD SLOAD SWAP1 DUP1 PUSH1 0x7 ADD DUP1 SLOAD PUSH2 0x2DCC SWAP1 PUSH2 0x5513 JUMP JUMPDEST DUP1 PUSH1 0x1F ADD PUSH1 0x20 DUP1 SWAP2 DIV MUL PUSH1 0x20 ADD PUSH1 0x40 MLOAD SWAP1 DUP2 ADD PUSH1 0x40 MSTORE DUP1 SWAP3 SWAP2 SWAP1 DUP2 DUP2 MSTORE PUSH1 0x20 ADD DUP3 DUP1 SLOAD PUSH2 0x2DF8 SWAP1 PUSH2 0x5513 JUMP JUMPDEST DUP1 ISZERO PUSH2 0x2E45 JUMPI DUP1 PUSH1 0x1F LT PUSH2 0x2E1A JUMPI PUSH2 0x100 DUP1 DUP4 SLOAD DIV MUL DUP4 MSTORE SWAP2 PUSH1 0x20 ADD SWAP2 PUSH2 0x2E45 JUMP JUMPDEST DUP3 ADD SWAP2 SWAP1 PUSH1 0x0 MSTORE PUSH1 0x20 PUSH1 0x0 KECCAK256 SWAP1 JUMPDEST DUP2 SLOAD DUP2 MSTORE SWAP1 PUSH1 0x1 ADD SWAP1 PUSH1 0x20 ADD DUP1 DUP4 GT PUSH2 0x2E28 JUMPI DUP3 SWAP1 SUB PUSH1 0x1F AND DUP3 ADD SWAP2 JUMPDEST POP POP POP POP POP SWAP1 POP DUP9 JUMP JUMPDEST PUSH1 0x5 PUSH1 0x20 MSTORE DUP1 PUSH1 0x0 MSTORE PUSH1 0x40 PUSH1 0x0 KECCAK256 PUSH1 0x0 SWAP2 POP SWAP1 POP DUP1 PUSH1 0x0 ADD SLOAD SWAP1 DUP1 PUSH1 0x1 ADD PUSH1 0x0 SWAP1 SLOAD SWAP1 PUSH2 0x100 EXP SWAP1 DIV PUSH20 0xFFFFFFFFFFFFFFFFFFFFFFFFFFFFFFFFFFFFFFFF AND SWAP1 DUP1 PUSH1 0x2 ADD DUP1 SLOAD PUSH2 0x2E9E SWAP1 PUSH2 0x5513 JUMP JUMPDEST DUP1 PUSH1 0x1F ADD PUSH1 0x20 DUP1 SWAP2 DIV MUL PUSH1 0x20 ADD PUSH1 0x40 MLOAD SWAP1 DUP2 ADD PUSH1 0x40 MSTORE DUP1 SWAP3 SWAP2 SWAP1 DUP2 DUP2 MSTORE PUSH1 0x20 ADD DUP3 DUP1 SLOAD PUSH2 0x2ECA SWAP1 PUSH2 0x5513 JUMP JUMPDEST DUP1 ISZERO PUSH2 0x2F17 JUMPI DUP1 PUSH1 0x1F LT PUSH2 0x2EEC JUMPI PUSH2 0x100 DUP1 DUP4 SLOAD DIV MUL DUP4 MSTORE SWAP2 PUSH1 0x20 ADD SWAP2 PUSH2 0x2F17 JUMP JUMPDEST DUP3 ADD SWAP2 SWAP1 PUSH1 0x0 MSTORE PUSH1 0x20 PUSH1 0x0 KECCAK256 SWAP1 JUMPDEST DUP2 SLOAD DUP2 MSTORE SWAP1 PUSH1 0x1 ADD SWAP1 PUSH1 0x20 ADD DUP1 DUP4 GT PUSH2 0x2EFA JUMPI DUP3 SWAP1 SUB PUSH1 0x1F AND DUP3 ADD SWAP2 JUMPDEST POP POP POP POP POP SWAP1 DUP1 PUSH1 0x3 ADD DUP1 SLOAD PUSH2 0x2F2C SWAP1 PUSH2 0x5513 JUMP JUMPDEST DUP1 PUSH1 0x1F ADD PUSH1 0x20 DUP1 SWAP2 DIV MUL PUSH1 0x20 ADD PUSH1 0x40 MLOAD SWAP1 DUP2 ADD PUSH1 0x40 MSTORE DUP1 SWAP3 SWAP2 SWAP1 DUP2 DUP2 MSTORE PUSH1 0x20 ADD DUP3 DUP1 SLOAD PUSH2 0x2F58 SWAP1 PUSH2 0x5513 JUMP JUMPDEST DUP1 ISZERO PUSH2 0x2FA5 JUMPI DUP1 PUSH1 0x1F LT PUSH2 0x2F7A JUMPI PUSH2 0x100 DUP1 DUP4 SLOAD DIV MUL DUP4 MSTORE SWAP2 PUSH1 0x20 ADD SWAP2 PUSH2 0x2FA5 JUMP JUMPDEST DUP3 ADD SWAP2 SWAP1 PUSH1 0x0 MSTORE PUSH1 0x20 PUSH1 0x0 KECCAK256 SWAP1 JUMPDEST DUP2 SLOAD DUP2 MSTORE SWAP1 PUSH1 0x1 ADD SWAP1 PUSH1 0x20 ADD DUP1 DUP4 GT PUSH2 0x2F88 JUMPI DUP3 SWAP1 SUB PUSH1 0x1F AND DUP3 ADD SWAP2 JUMPDEST POP POP POP POP POP SWAP1 DUP1 PUSH1 0x4 ADD DUP1 SLOAD PUSH2 0x2FBA SWAP1 PUSH2 0x5513 JUMP JUMPDEST DUP1 PUSH1 0x1F ADD PUSH1 0x20 DUP1 SWAP2 DIV MUL PUSH1 0x20 ADD PUSH1 0x40 MLOAD SWAP1 DUP2 ADD PUSH1 0x40 MSTORE DUP1 SWAP3 SWAP2 SWAP1 DUP2 DUP2 MSTORE PUSH1 0x20 ADD DUP3 DUP1 SLOAD PUSH2 0x2FE6 SWAP1 PUSH2 0x5513 JUMP JUMPDEST DUP1 ISZERO PUSH2 0x3033 JUMPI DUP1 PUSH1 0x1F LT PUSH2 0x3008 JUMPI PUSH2 0x100 DUP1 DUP4 SLOAD DIV MUL DUP4 MSTORE SWAP2 PUSH1 0x20 ADD SWAP2 PUSH2 0x3033 JUMP JUMPDEST DUP3 ADD SWAP2 SWAP1 PUSH1 0x0 MSTORE PUSH1 0x20 PUSH1 0x0 KECCAK256 SWAP1 JUMPDEST DUP2 SLOAD DUP2 MSTORE SWAP1 PUSH1 0x1 ADD SWAP1 PUSH1 0x20 ADD DUP1 DUP4 GT PUSH2 0x3016 JUMPI DUP3 SWAP1 SUB PUSH1 0x1F AND DUP3 ADD SWAP2 JUMPDEST POP POP POP POP POP SWAP1 DUP1 PUSH1 0x5 ADD SLOAD SWAP1 DUP1 PUSH1 0x6 ADD SLOAD SWAP1 DUP1 PUSH1 0x7 ADD DUP1 SLOAD PUSH2 0x3054 SWAP1 PUSH2 0x5513 JUMP JUMPDEST DUP1 PUSH1 0x1F ADD PUSH1 0x20 DUP1 SWAP2 DIV MUL PUSH1 0x20 ADD PUSH1 0x40 MLOAD SWAP1 DUP2 ADD PUSH1 0x40 MSTORE DUP1 SWAP3 SWAP2 SWAP1 DUP2 DUP2 MSTORE PUSH1 0x20 ADD DUP3 DUP1 SLOAD PUSH2 0x3080 SWAP1 PUSH2 0x5513 JUMP JUMPDEST DUP1 ISZERO PUSH2 0x30CD JUMPI DUP1 PUSH1 0x1F LT PUSH2 0x30A2 JUMPI PUSH2 0x100 DUP1 DUP4 SLOAD DIV MUL DUP4 MSTORE SWAP2 PUSH1 0x20 ADD SWAP2 PUSH2 0x30CD JUMP JUMPDEST DUP3 ADD SWAP2 SWAP1 PUSH1 0x0 MSTORE PUSH1 0x20 PUSH1 0x0 KECCAK256 SWAP1 JUMPDEST DUP2 SLOAD DUP2 MSTORE SWAP1 PUSH1 0x1 ADD SWAP1 PUSH1 0x20 ADD DUP1 DUP4 GT PUSH2 0x30B0 JUMPI DUP3 SWAP1 SUB PUSH1 0x1F AND DUP3 ADD SWAP2 JUMPDEST POP POP POP POP POP SWAP1 POP DUP9 JUMP JUMPDEST PUSH1 0xE PUSH1 0x20 MSTORE DUP1 PUSH1 0x0 MSTORE PUSH1 0x40 PUSH1 0x0 KECCAK256 PUSH1 0x0 SWAP2 POP SLOAD SWAP1 PUSH2 0x100 EXP SWAP1 DIV PUSH1 0xFF AND DUP2 JUMP JUMPDEST PUSH1 0xE PUSH1 0x0 DUP6 PUSH20 0xFFFFFFFFFFFFFFFFFFFFFFFFFFFFFFFFFFFFFFFF AND PUSH20 0xFFFFFFFFFFFFFFFFFFFFFFFFFFFFFFFFFFFFFFFF AND DUP2 MSTORE PUSH1 0x20 ADD SWAP1 DUP2 MSTORE PUSH1 0x20 ADD PUSH1 0x0 KECCAK256 PUSH1 0x0 SWAP1 SLOAD SWAP1 PUSH2 0x100 EXP SWAP1 DIV PUSH1 0xFF AND ISZERO PUSH2 0x314E JUMPI PUSH1 0x0 DUP1 REVERT JUMPDEST PUSH1 0xF DUP4 PUSH1 0x40 MLOAD PUSH2 0x315E SWAP2 SWAP1 PUSH2 0x599C JUMP JUMPDEST SWAP1 DUP2 MSTORE PUSH1 0x20 ADD PUSH1 0x40 MLOAD DUP1 SWAP2 SUB SWAP1 KECCAK256 PUSH1 0x0 SWAP1 SLOAD SWAP1 PUSH2 0x100 EXP SWAP1 DIV PUSH1 0xFF AND ISZERO PUSH2 0x3184 JUMPI PUSH1 0x0 DUP1 REVERT JUMPDEST PUSH1 0x0 PUSH1 0x1 DUP1 DUP2 PUSH1 0x1 DUP2 SLOAD ADD DUP1 DUP3 SSTORE DUP1 SWAP2 POP POP SUB SWAP1 PUSH1 0x0 MSTORE PUSH1 0x20 PUSH1 0x0 KECCAK256 SWAP1 PUSH1 0x8 MUL ADD SWAP1 POP PUSH1 0x13 SLOAD DUP2 PUSH1 0x0 ADD DUP2 SWAP1 SSTORE POP DUP5 DUP2 PUSH1 0x1 ADD PUSH1 0x0 PUSH2 0x100 EXP DUP2 SLOAD DUP2 PUSH20 0xFFFFFFFFFFFFFFFFFFFFFFFFFFFFFFFFFFFFFFFF MUL NOT AND SWAP1 DUP4 PUSH20 0xFFFFFFFFFFFFFFFFFFFFFFFFFFFFFFFFFFFFFFFF AND MUL OR SWAP1 SSTORE POP DUP4 DUP2 PUSH1 0x2 ADD SWAP1 DUP2 PUSH2 0x3206 SWAP2 SWAP1 PUSH2 0x588E JUMP JUMPDEST POP DUP3 DUP2 PUSH1 0x3 ADD SWAP1 DUP2 PUSH2 0x3218 SWAP2 SWAP1 PUSH2 0x588E JUMP JUMPDEST POP DUP2 DUP2 PUSH1 0x4 ADD SWAP1 DUP2 PUSH2 0x322A SWAP2 SWAP1 PUSH2 0x588E JUMP JUMPDEST POP PUSH1 0x0 DUP2 PUSH1 0x6 ADD DUP2 SWAP1 SSTORE POP PUSH1 0x40 MLOAD DUP1 PUSH1 0x40 ADD PUSH1 0x40 MSTORE DUP1 PUSH1 0x1 DUP2 MSTORE PUSH1 0x20 ADD PUSH32 0x3000000000000000000000000000000000000000000000000000000000000000 DUP2 MSTORE POP DUP2 PUSH1 0x7 ADD SWAP1 DUP2 PUSH2 0x327B SWAP2 SWAP1 PUSH2 0x588E JUMP JUMPDEST POP DUP1 PUSH1 0x5 PUSH1 0x0 DUP8 PUSH20 0xFFFFFFFFFFFFFFFFFFFFFFFFFFFFFFFFFFFFFFFF AND PUSH20 0xFFFFFFFFFFFFFFFFFFFFFFFFFFFFFFFFFFFFFFFF AND DUP2 MSTORE PUSH1 0x20 ADD SWAP1 DUP2 MSTORE PUSH1 0x20 ADD PUSH1 0x0 KECCAK256 PUSH1 0x0 DUP3 ADD SLOAD DUP2 PUSH1 0x0 ADD SSTORE PUSH1 0x1 DUP3 ADD PUSH1 0x0 SWAP1 SLOAD SWAP1 PUSH2 0x100 EXP SWAP1 DIV PUSH20 0xFFFFFFFFFFFFFFFFFFFFFFFFFFFFFFFFFFFFFFFF AND DUP2 PUSH1 0x1 ADD PUSH1 0x0 PUSH2 0x100 EXP DUP2 SLOAD DUP2 PUSH20 0xFFFFFFFFFFFFFFFFFFFFFFFFFFFFFFFFFFFFFFFF MUL NOT AND SWAP1 DUP4 PUSH20 0xFFFFFFFFFFFFFFFFFFFFFFFFFFFFFFFFFFFFFFFF AND MUL OR SWAP1 SSTORE POP PUSH1 0x2 DUP3 ADD DUP2 PUSH1 0x2 ADD SWAP1 DUP2 PUSH2 0x3341 SWAP2 SWAP1 PUSH2 0x5706 JUMP JUMPDEST POP PUSH1 0x3 DUP3 ADD DUP2 PUSH1 0x3 ADD SWAP1 DUP2 PUSH2 0x3356 SWAP2 SWAP1 PUSH2 0x5706 JUMP JUMPDEST POP PUSH1 0x4 DUP3 ADD DUP2 PUSH1 0x4 ADD SWAP1 DUP2 PUSH2 0x336B SWAP2 SWAP1 PUSH2 0x5706 JUMP JUMPDEST POP PUSH1 0x5 DUP3 ADD SLOAD DUP2 PUSH1 0x5 ADD SSTORE PUSH1 0x6 DUP3 ADD SLOAD DUP2 PUSH1 0x6 ADD SSTORE PUSH1 0x7 DUP3 ADD DUP2 PUSH1 0x7 ADD SWAP1 DUP2 PUSH2 0x3394 SWAP2 SWAP1 PUSH2 0x5706 JUMP JUMPDEST POP SWAP1 POP POP DUP1 PUSH1 0xB DUP6 PUSH1 0x40 MLOAD PUSH2 0x33A9 SWAP2 SWAP1 PUSH2 0x599C JUMP JUMPDEST SWAP1 DUP2 MSTORE PUSH1 0x20 ADD PUSH1 0x40 MLOAD DUP1 SWAP2 SUB SWAP1 KECCAK256 PUSH1 0x0 DUP3 ADD SLOAD DUP2 PUSH1 0x0 ADD SSTORE PUSH1 0x1 DUP3 ADD PUSH1 0x0 SWAP1 SLOAD SWAP1 PUSH2 0x100 EXP SWAP1 DIV PUSH20 0xFFFFFFFFFFFFFFFFFFFFFFFFFFFFFFFFFFFFFFFF AND DUP2 PUSH1 0x1 ADD PUSH1 0x0 PUSH2 0x100 EXP DUP2 SLOAD DUP2 PUSH20 0xFFFFFFFFFFFFFFFFFFFFFFFFFFFFFFFFFFFFFFFF MUL NOT AND SWAP1 DUP4 PUSH20 0xFFFFFFFFFFFFFFFFFFFFFFFFFFFFFFFFFFFFFFFF AND MUL OR SWAP1 SSTORE POP PUSH1 0x2 DUP3 ADD DUP2 PUSH1 0x2 ADD SWAP1 DUP2 PUSH2 0x343C SWAP2 SWAP1 PUSH2 0x5706 JUMP JUMPDEST POP PUSH1 0x3 DUP3 ADD DUP2 PUSH1 0x3 ADD SWAP1 DUP2 PUSH2 0x3451 SWAP2 SWAP1 PUSH2 0x5706 JUMP JUMPDEST POP PUSH1 0x4 DUP3 ADD DUP2 PUSH1 0x4 ADD SWAP1 DUP2 PUSH2 0x3466 SWAP2 SWAP1 PUSH2 0x5706 JUMP JUMPDEST POP PUSH1 0x5 DUP3 ADD SLOAD DUP2 PUSH1 0x5 ADD SSTORE PUSH1 0x6 DUP3 ADD SLOAD DUP2 PUSH1 0x6 ADD SSTORE PUSH1 0x7 DUP3 ADD DUP2 PUSH1 0x7 ADD SWAP1 DUP2 PUSH2 0x348F SWAP2 SWAP1 PUSH2 0x5706 JUMP JUMPDEST POP SWAP1 POP POP PUSH1 0x1 PUSH1 0xE PUSH1 0x0 DUP8 PUSH20 0xFFFFFFFFFFFFFFFFFFFFFFFFFFFFFFFFFFFFFFFF AND PUSH20 0xFFFFFFFFFFFFFFFFFFFFFFFFFFFFFFFFFFFFFFFF AND DUP2 MSTORE PUSH1 0x20 ADD SWAP1 DUP2 MSTORE PUSH1 0x20 ADD PUSH1 0x0 KECCAK256 PUSH1 0x0 PUSH2 0x100 EXP DUP2 SLOAD DUP2 PUSH1 0xFF MUL NOT AND SWAP1 DUP4 ISZERO ISZERO MUL OR SWAP1 SSTORE POP PUSH1 0x1 PUSH1 0xF DUP6 PUSH1 0x40 MLOAD PUSH2 0x34FD SWAP2 SWAP1 PUSH2 0x599C JUMP JUMPDEST SWAP1 DUP2 MSTORE PUSH1 0x20 ADD PUSH1 0x40 MLOAD DUP1 SWAP2 SUB SWAP1 KECCAK256 PUSH1 0x0 PUSH2 0x100 EXP DUP2 SLOAD DUP2 PUSH1 0xFF MUL NOT AND SWAP1 DUP4 ISZERO ISZERO MUL OR SWAP1 SSTORE POP PUSH1 0x1 PUSH1 0xC DUP5 PUSH1 0x40 MLOAD PUSH2 0x3534 SWAP2 SWAP1 PUSH2 0x599C JUMP JUMPDEST SWAP1 DUP2 MSTORE PUSH1 0x20 ADD PUSH1 0x40 MLOAD DUP1 SWAP2 SUB SWAP1 KECCAK256 PUSH1 0x0 DUP3 DUP3 SLOAD PUSH2 0x3551 SWAP2 SWAP1 PUSH2 0x59B3 JUMP JUMPDEST SWAP3 POP POP DUP2 SWAP1 SSTORE POP PUSH1 0x1 PUSH1 0x13 PUSH1 0x0 DUP3 DUP3 SLOAD PUSH2 0x356B SWAP2 SWAP1 PUSH2 0x59B3 JUMP JUMPDEST SWAP3 POP POP DUP2 SWAP1 SSTORE POP POP POP POP POP POP JUMP JUMPDEST PUSH1 0x4 DUP2 DUP2 SLOAD DUP2 LT PUSH2 0x3589 JUMPI PUSH1 0x0 DUP1 REVERT JUMPDEST SWAP1 PUSH1 0x0 MSTORE PUSH1 0x20 PUSH1 0x0 KECCAK256 SWAP1 PUSH1 0x6 MUL ADD PUSH1 0x0 SWAP2 POP SWAP1 POP DUP1 PUSH1 0x0 ADD SLOAD SWAP1 DUP1 PUSH1 0x1 ADD DUP1 SLOAD PUSH2 0x35B2 SWAP1 PUSH2 0x5513 JUMP JUMPDEST DUP1 PUSH1 0x1F ADD PUSH1 0x20 DUP1 SWAP2 DIV MUL PUSH1 0x20 ADD PUSH1 0x40 MLOAD SWAP1 DUP2 ADD PUSH1 0x40 MSTORE DUP1 SWAP3 SWAP2 SWAP1 DUP2 DUP2 MSTORE PUSH1 0x20 ADD DUP3 DUP1 SLOAD PUSH2 0x35DE SWAP1 PUSH2 0x5513 JUMP JUMPDEST DUP1 ISZERO PUSH2 0x362B JUMPI DUP1 PUSH1 0x1F LT PUSH2 0x3600 JUMPI PUSH2 0x100 DUP1 DUP4 SLOAD DIV MUL DUP4 MSTORE SWAP2 PUSH1 0x20 ADD SWAP2 PUSH2 0x362B JUMP JUMPDEST DUP3 ADD SWAP2 SWAP1 PUSH1 0x0 MSTORE PUSH1 0x20 PUSH1 0x0 KECCAK256 SWAP1 JUMPDEST DUP2 SLOAD DUP2 MSTORE SWAP1 PUSH1 0x1 ADD SWAP1 PUSH1 0x20 ADD DUP1 DUP4 GT PUSH2 0x360E JUMPI DUP3 SWAP1 SUB PUSH1 0x1F AND DUP3 ADD SWAP2 JUMPDEST POP POP POP POP POP SWAP1 DUP1 PUSH1 0x2 ADD DUP1 SLOAD PUSH2 0x3640 SWAP1 PUSH2 0x5513 JUMP JUMPDEST DUP1 PUSH1 0x1F ADD PUSH1 0x20 DUP1 SWAP2 DIV MUL PUSH1 0x20 ADD PUSH1 0x40 MLOAD SWAP1 DUP2 ADD PUSH1 0x40 MSTORE DUP1 SWAP3 SWAP2 SWAP1 DUP2 DUP2 MSTORE PUSH1 0x20 ADD DUP3 DUP1 SLOAD PUSH2 0x366C SWAP1 PUSH2 0x5513 JUMP JUMPDEST DUP1 ISZERO PUSH2 0x36B9 JUMPI DUP1 PUSH1 0x1F LT PUSH2 0x368E JUMPI PUSH2 0x100 DUP1 DUP4 SLOAD DIV MUL DUP4 MSTORE SWAP2 PUSH1 0x20 ADD SWAP2 PUSH2 0x36B9 JUMP JUMPDEST DUP3 ADD SWAP2 SWAP1 PUSH1 0x0 MSTORE PUSH1 0x20 PUSH1 0x0 KECCAK256 SWAP1 JUMPDEST DUP2 SLOAD DUP2 MSTORE SWAP1 PUSH1 0x1 ADD SWAP1 PUSH1 0x20 ADD DUP1 DUP4 GT PUSH2 0x369C JUMPI DUP3 SWAP1 SUB PUSH1 0x1F AND DUP3 ADD SWAP2 JUMPDEST POP POP POP POP POP SWAP1 DUP1 PUSH1 0x3 ADD DUP1 SLOAD PUSH2 0x36CE SWAP1 PUSH2 0x5513 JUMP JUMPDEST DUP1 PUSH1 0x1F ADD PUSH1 0x20 DUP1 SWAP2 DIV MUL PUSH1 0x20 ADD PUSH1 0x40 MLOAD SWAP1 DUP2 ADD PUSH1 0x40 MSTORE DUP1 SWAP3 SWAP2 SWAP1 DUP2 DUP2 MSTORE PUSH1 0x20 ADD DUP3 DUP1 SLOAD PUSH2 0x36FA SWAP1 PUSH2 0x5513 JUMP JUMPDEST DUP1 ISZERO PUSH2 0x3747 JUMPI DUP1 PUSH1 0x1F LT PUSH2 0x371C JUMPI PUSH2 0x100 DUP1 DUP4 SLOAD DIV MUL DUP4 MSTORE SWAP2 PUSH1 0x20 ADD SWAP2 PUSH2 0x3747 JUMP JUMPDEST DUP3 ADD SWAP2 SWAP1 PUSH1 0x0 MSTORE PUSH1 0x20 PUSH1 0x0 KECCAK256 SWAP1 JUMPDEST DUP2 SLOAD DUP2 MSTORE SWAP1 PUSH1 0x1 ADD SWAP1 PUSH1 0x20 ADD DUP1 DUP4 GT PUSH2 0x372A JUMPI DUP3 SWAP1 SUB PUSH1 0x1F AND DUP3 ADD SWAP2 JUMPDEST POP POP POP POP POP SWAP1 DUP1 PUSH1 0x4 ADD SLOAD SWAP1 DUP1 PUSH1 0x5 ADD SLOAD SWAP1 POP DUP7 JUMP JUMPDEST PUSH1 0x6 PUSH1 0x20 MSTORE DUP2 PUSH1 0x0 MSTORE PUSH1 0x40 PUSH1 0x0 KECCAK256 DUP2 DUP2 SLOAD DUP2 LT PUSH2 0x3779 JUMPI PUSH1 0x0 DUP1 REVERT JUMPDEST SWAP1 PUSH1 0x0 MSTORE PUSH1 0x20 PUSH1 0x0 KECCAK256 SWAP1 PUSH1 0x6 MUL ADD PUSH1 0x0 SWAP2 POP SWAP2 POP POP DUP1 PUSH1 0x0 ADD SLOAD SWAP1 DUP1 PUSH1 0x1 ADD DUP1 SLOAD PUSH2 0x37A3 SWAP1 PUSH2 0x5513 JUMP JUMPDEST DUP1 PUSH1 0x1F ADD PUSH1 0x20 DUP1 SWAP2 DIV MUL PUSH1 0x20 ADD PUSH1 0x40 MLOAD SWAP1 DUP2 ADD PUSH1 0x40 MSTORE DUP1 SWAP3 SWAP2 SWAP1 DUP2 DUP2 MSTORE PUSH1 0x20 ADD DUP3 DUP1 SLOAD PUSH2 0x37CF SWAP1 PUSH2 0x5513 JUMP JUMPDEST DUP1 ISZERO PUSH2 0x381C JUMPI DUP1 PUSH1 0x1F LT PUSH2 0x37F1 JUMPI PUSH2 0x100 DUP1 DUP4 SLOAD DIV MUL DUP4 MSTORE SWAP2 PUSH1 0x20 ADD SWAP2 PUSH2 0x381C JUMP JUMPDEST DUP3 ADD SWAP2 SWAP1 PUSH1 0x0 MSTORE PUSH1 0x20 PUSH1 0x0 KECCAK256 SWAP1 JUMPDEST DUP2 SLOAD DUP2 MSTORE SWAP1 PUSH1 0x1 ADD SWAP1 PUSH1 0x20 ADD DUP1 DUP4 GT PUSH2 0x37FF JUMPI DUP3 SWAP1 SUB PUSH1 0x1F AND DUP3 ADD SWAP2 JUMPDEST POP POP POP POP POP SWAP1 DUP1 PUSH1 0x2 ADD DUP1 SLOAD PUSH2 0x3831 SWAP1 PUSH2 0x5513 JUMP JUMPDEST DUP1 PUSH1 0x1F ADD PUSH1 0x20 DUP1 SWAP2 DIV MUL PUSH1 0x20 ADD PUSH1 0x40 MLOAD SWAP1 DUP2 ADD PUSH1 0x40 MSTORE DUP1 SWAP3 SWAP2 SWAP1 DUP2 DUP2 MSTORE PUSH1 0x20 ADD DUP3 DUP1 SLOAD PUSH2 0x385D SWAP1 PUSH2 0x5513 JUMP JUMPDEST DUP1 ISZERO PUSH2 0x38AA JUMPI DUP1 PUSH1 0x1F LT PUSH2 0x387F JUMPI PUSH2 0x100 DUP1 DUP4 SLOAD DIV MUL DUP4 MSTORE SWAP2 PUSH1 0x20 ADD SWAP2 PUSH2 0x38AA JUMP JUMPDEST DUP3 ADD SWAP2 SWAP1 PUSH1 0x0 MSTORE PUSH1 0x20 PUSH1 0x0 KECCAK256 SWAP1 JUMPDEST DUP2 SLOAD DUP2 MSTORE SWAP1 PUSH1 0x1 ADD SWAP1 PUSH1 0x20 ADD DUP1 DUP4 GT PUSH2 0x388D JUMPI DUP3 SWAP1 SUB PUSH1 0x1F AND DUP3 ADD SWAP2 JUMPDEST POP POP POP POP POP SWAP1 DUP1 PUSH1 0x3 ADD DUP1 SLOAD PUSH2 0x38BF SWAP1 PUSH2 0x5513 JUMP JUMPDEST DUP1 PUSH1 0x1F ADD PUSH1 0x20 DUP1 SWAP2 DIV MUL PUSH1 0x20 ADD PUSH1 0x40 MLOAD SWAP1 DUP2 ADD PUSH1 0x40 MSTORE DUP1 SWAP3 SWAP2 SWAP1 DUP2 DUP2 MSTORE PUSH1 0x20 ADD DUP3 DUP1 SLOAD PUSH2 0x38EB SWAP1 PUSH2 0x5513 JUMP JUMPDEST DUP1 ISZERO PUSH2 0x3938 JUMPI DUP1 PUSH1 0x1F LT PUSH2 0x390D JUMPI PUSH2 0x100 DUP1 DUP4 SLOAD DIV MUL DUP4 MSTORE SWAP2 PUSH1 0x20 ADD SWAP2 PUSH2 0x3938 JUMP JUMPDEST DUP3 ADD SWAP2 SWAP1 PUSH1 0x0 MSTORE PUSH1 0x20 PUSH1 0x0 KECCAK256 SWAP1 JUMPDEST DUP2 SLOAD DUP2 MSTORE SWAP1 PUSH1 0x1 ADD SWAP1 PUSH1 0x20 ADD DUP1 DUP4 GT PUSH2 0x391B JUMPI DUP3 SWAP1 SUB PUSH1 0x1F AND DUP3 ADD SWAP2 JUMPDEST POP POP POP POP POP SWAP1 DUP1 PUSH1 0x4 ADD SLOAD SWAP1 DUP1 PUSH1 0x5 ADD SLOAD SWAP1 POP DUP7 JUMP JUMPDEST PUSH1 0x14 SLOAD DUP2 JUMP JUMPDEST PUSH1 0xE PUSH1 0x0 CALLER PUSH20 0xFFFFFFFFFFFFFFFFFFFFFFFFFFFFFFFFFFFFFFFF AND PUSH20 0xFFFFFFFFFFFFFFFFFFFFFFFFFFFFFFFFFFFFFFFF AND DUP2 MSTORE PUSH1 0x20 ADD SWAP1 DUP2 MSTORE PUSH1 0x20 ADD PUSH1 0x0 KECCAK256 PUSH1 0x0 SWAP1 SLOAD SWAP1 PUSH2 0x100 EXP SWAP1 DIV PUSH1 0xFF AND PUSH2 0x39AA JUMPI PUSH1 0x0 DUP1 REVERT JUMPDEST PUSH1 0xF DUP4 PUSH1 0x40 MLOAD PUSH2 0x39BA SWAP2 SWAP1 PUSH2 0x599C JUMP JUMPDEST SWAP1 DUP2 MSTORE PUSH1 0x20 ADD PUSH1 0x40 MLOAD DUP1 SWAP2 SUB SWAP1 KECCAK256 PUSH1 0x0 SWAP1 SLOAD SWAP1 PUSH2 0x100 EXP SWAP1 DIV PUSH1 0xFF AND ISZERO PUSH2 0x39E0 JUMPI PUSH1 0x0 DUP1 REVERT JUMPDEST PUSH1 0x0 PUSH1 0x5 PUSH1 0x0 CALLER PUSH20 0xFFFFFFFFFFFFFFFFFFFFFFFFFFFFFFFFFFFFFFFF AND PUSH20 0xFFFFFFFFFFFFFFFFFFFFFFFFFFFFFFFFFFFFFFFF AND DUP2 MSTORE PUSH1 0x20 ADD SWAP1 DUP2 MSTORE PUSH1 0x20 ADD PUSH1 0x0 KECCAK256 SWAP1 POP DUP4 DUP2 PUSH1 0x2 ADD SWAP1 DUP2 PUSH2 0x3A34 SWAP2 SWAP1 PUSH2 0x588E JUMP JUMPDEST POP DUP3 DUP2 PUSH1 0x3 ADD SWAP1 DUP2 PUSH2 0x3A46 SWAP2 SWAP1 PUSH2 0x588E JUMP JUMPDEST POP DUP2 DUP2 PUSH1 0x4 ADD SWAP1 DUP2 PUSH2 0x3A58 SWAP2 SWAP1 PUSH2 0x588E JUMP JUMPDEST POP DUP1 PUSH1 0x1 DUP3 PUSH1 0x0 ADD SLOAD DUP2 SLOAD DUP2 LT PUSH2 0x3A72 JUMPI PUSH2 0x3A71 PUSH2 0x54B5 JUMP JUMPDEST JUMPDEST SWAP1 PUSH1 0x0 MSTORE PUSH1 0x20 PUSH1 0x0 KECCAK256 SWAP1 PUSH1 0x8 MUL ADD PUSH1 0x0 DUP3 ADD SLOAD DUP2 PUSH1 0x0 ADD SSTORE PUSH1 0x1 DUP3 ADD PUSH1 0x0 SWAP1 SLOAD SWAP1 PUSH2 0x100 EXP SWAP1 DIV PUSH20 0xFFFFFFFFFFFFFFFFFFFFFFFFFFFFFFFFFFFFFFFF AND DUP2 PUSH1 0x1 ADD PUSH1 0x0 PUSH2 0x100 EXP DUP2 SLOAD DUP2 PUSH20 0xFFFFFFFFFFFFFFFFFFFFFFFFFFFFFFFFFFFFFFFF MUL NOT AND SWAP1 DUP4 PUSH20 0xFFFFFFFFFFFFFFFFFFFFFFFFFFFFFFFFFFFFFFFF AND MUL OR SWAP1 SSTORE POP PUSH1 0x2 DUP3 ADD DUP2 PUSH1 0x2 ADD SWAP1 DUP2 PUSH2 0x3B05 SWAP2 SWAP1 PUSH2 0x5706 JUMP JUMPDEST POP PUSH1 0x3 DUP3 ADD DUP2 PUSH1 0x3 ADD SWAP1 DUP2 PUSH2 0x3B1A SWAP2 SWAP1 PUSH2 0x5706 JUMP JUMPDEST POP PUSH1 0x4 DUP3 ADD DUP2 PUSH1 0x4 ADD SWAP1 DUP2 PUSH2 0x3B2F SWAP2 SWAP1 PUSH2 0x5706 JUMP JUMPDEST POP PUSH1 0x5 DUP3 ADD SLOAD DUP2 PUSH1 0x5 ADD SSTORE PUSH1 0x6 DUP3 ADD SLOAD DUP2 PUSH1 0x6 ADD SSTORE PUSH1 0x7 DUP3 ADD DUP2 PUSH1 0x7 ADD SWAP1 DUP2 PUSH2 0x3B58 SWAP2 SWAP1 PUSH2 0x5706 JUMP JUMPDEST POP SWAP1 POP POP POP POP POP POP JUMP JUMPDEST PUSH1 0x3 DUP2 DUP2 SLOAD DUP2 LT PUSH2 0x3B72 JUMPI PUSH1 0x0 DUP1 REVERT JUMPDEST SWAP1 PUSH1 0x0 MSTORE PUSH1 0x20 PUSH1 0x0 KECCAK256 SWAP1 PUSH1 0x8 MUL ADD PUSH1 0x0 SWAP2 POP SWAP1 POP DUP1 PUSH1 0x0 ADD SLOAD SWAP1 DUP1 PUSH1 0x1 ADD PUSH1 0x0 SWAP1 SLOAD SWAP1 PUSH2 0x100 EXP SWAP1 DIV PUSH20 0xFFFFFFFFFFFFFFFFFFFFFFFFFFFFFFFFFFFFFFFF AND SWAP1 DUP1 PUSH1 0x2 ADD DUP1 SLOAD PUSH2 0x3BC1 SWAP1 PUSH2 0x5513 JUMP JUMPDEST DUP1 PUSH1 0x1F ADD PUSH1 0x20 DUP1 SWAP2 DIV MUL PUSH1 0x20 ADD PUSH1 0x40 MLOAD SWAP1 DUP2 ADD PUSH1 0x40 MSTORE DUP1 SWAP3 SWAP2 SWAP1 DUP2 DUP2 MSTORE PUSH1 0x20 ADD DUP3 DUP1 SLOAD PUSH2 0x3BED SWAP1 PUSH2 0x5513 JUMP JUMPDEST DUP1 ISZERO PUSH2 0x3C3A JUMPI DUP1 PUSH1 0x1F LT PUSH2 0x3C0F JUMPI PUSH2 0x100 DUP1 DUP4 SLOAD DIV MUL DUP4 MSTORE SWAP2 PUSH1 0x20 ADD SWAP2 PUSH2 0x3C3A JUMP JUMPDEST DUP3 ADD SWAP2 SWAP1 PUSH1 0x0 MSTORE PUSH1 0x20 PUSH1 0x0 KECCAK256 SWAP1 JUMPDEST DUP2 SLOAD DUP2 MSTORE SWAP1 PUSH1 0x1 ADD SWAP1 PUSH1 0x20 ADD DUP1 DUP4 GT PUSH2 0x3C1D JUMPI DUP3 SWAP1 SUB PUSH1 0x1F AND DUP3 ADD SWAP2 JUMPDEST POP POP POP POP POP SWAP1 DUP1 PUSH1 0x3 ADD DUP1 SLOAD PUSH2 0x3C4F SWAP1 PUSH2 0x5513 JUMP JUMPDEST DUP1 PUSH1 0x1F ADD PUSH1 0x20 DUP1 SWAP2 DIV MUL PUSH1 0x20 ADD PUSH1 0x40 MLOAD SWAP1 DUP2 ADD PUSH1 0x40 MSTORE DUP1 SWAP3 SWAP2 SWAP1 DUP2 DUP2 MSTORE PUSH1 0x20 ADD DUP3 DUP1 SLOAD PUSH2 0x3C7B SWAP1 PUSH2 0x5513 JUMP JUMPDEST DUP1 ISZERO PUSH2 0x3CC8 JUMPI DUP1 PUSH1 0x1F LT PUSH2 0x3C9D JUMPI PUSH2 0x100 DUP1 DUP4 SLOAD DIV MUL DUP4 MSTORE SWAP2 PUSH1 0x20 ADD SWAP2 PUSH2 0x3CC8 JUMP JUMPDEST DUP3 ADD SWAP2 SWAP1 PUSH1 0x0 MSTORE PUSH1 0x20 PUSH1 0x0 KECCAK256 SWAP1 JUMPDEST DUP2 SLOAD DUP2 MSTORE SWAP1 PUSH1 0x1 ADD SWAP1 PUSH1 0x20 ADD DUP1 DUP4 GT PUSH2 0x3CAB JUMPI DUP3 SWAP1 SUB PUSH1 0x1F AND DUP3 ADD SWAP2 JUMPDEST POP POP POP POP POP SWAP1 DUP1 PUSH1 0x4 ADD DUP1 SLOAD PUSH2 0x3CDD SWAP1 PUSH2 0x5513 JUMP JUMPDEST DUP1 PUSH1 0x1F ADD PUSH1 0x20 DUP1 SWAP2 DIV MUL PUSH1 0x20 ADD PUSH1 0x40 MLOAD SWAP1 DUP2 ADD PUSH1 0x40 MSTORE DUP1 SWAP3 SWAP2 SWAP1 DUP2 DUP2 MSTORE PUSH1 0x20 ADD DUP3 DUP1 SLOAD PUSH2 0x3D09 SWAP1 PUSH2 0x5513 JUMP JUMPDEST DUP1 ISZERO PUSH2 0x3D56 JUMPI DUP1 PUSH1 0x1F LT PUSH2 0x3D2B JUMPI PUSH2 0x100 DUP1 DUP4 SLOAD DIV MUL DUP4 MSTORE SWAP2 PUSH1 0x20 ADD SWAP2 PUSH2 0x3D56 JUMP JUMPDEST DUP3 ADD SWAP2 SWAP1 PUSH1 0x0 MSTORE PUSH1 0x20 PUSH1 0x0 KECCAK256 SWAP1 JUMPDEST DUP2 SLOAD DUP2 MSTORE SWAP1 PUSH1 0x1 ADD SWAP1 PUSH1 0x20 ADD DUP1 DUP4 GT PUSH2 0x3D39 JUMPI DUP3 SWAP1 SUB PUSH1 0x1F AND DUP3 ADD SWAP2 JUMPDEST POP POP POP POP POP SWAP1 DUP1 PUSH1 0x5 ADD SLOAD SWAP1 DUP1 PUSH1 0x6 ADD SLOAD SWAP1 DUP1 PUSH1 0x7 ADD DUP1 SLOAD PUSH2 0x3D77 SWAP1 PUSH2 0x5513 JUMP JUMPDEST DUP1 PUSH1 0x1F ADD PUSH1 0x20 DUP1 SWAP2 DIV MUL PUSH1 0x20 ADD PUSH1 0x40 MLOAD SWAP1 DUP2 ADD PUSH1 0x40 MSTORE DUP1 SWAP3 SWAP2 SWAP1 DUP2 DUP2 MSTORE PUSH1 0x20 ADD DUP3 DUP1 SLOAD PUSH2 0x3DA3 SWAP1 PUSH2 0x5513 JUMP JUMPDEST DUP1 ISZERO PUSH2 0x3DF0 JUMPI DUP1 PUSH1 0x1F LT PUSH2 0x3DC5 JUMPI PUSH2 0x100 DUP1 DUP4 SLOAD DIV MUL DUP4 MSTORE SWAP2 PUSH1 0x20 ADD SWAP2 PUSH2 0x3DF0 JUMP JUMPDEST DUP3 ADD SWAP2 SWAP1 PUSH1 0x0 MSTORE PUSH1 0x20 PUSH1 0x0 KECCAK256 SWAP1 JUMPDEST DUP2 SLOAD DUP2 MSTORE SWAP1 PUSH1 0x1 ADD SWAP1 PUSH1 0x20 ADD DUP1 DUP4 GT PUSH2 0x3DD3 JUMPI DUP3 SWAP1 SUB PUSH1 0x1F AND DUP3 ADD SWAP2 JUMPDEST POP POP POP POP POP SWAP1 POP DUP9 JUMP JUMPDEST PUSH1 0x10 DUP2 DUP1 MLOAD PUSH1 0x20 DUP2 ADD DUP3 ADD DUP1 MLOAD DUP5 DUP3 MSTORE PUSH1 0x20 DUP4 ADD PUSH1 0x20 DUP6 ADD KECCAK256 DUP2 DUP4 MSTORE DUP1 SWAP6 POP POP POP POP POP POP PUSH1 0x0 SWAP2 POP SLOAD SWAP1 PUSH2 0x100 EXP SWAP1 DIV PUSH1 0xFF AND DUP2 JUMP JUMPDEST PUSH1 0xE PUSH1 0x0 DUP6 PUSH20 0xFFFFFFFFFFFFFFFFFFFFFFFFFFFFFFFFFFFFFFFF AND PUSH20 0xFFFFFFFFFFFFFFFFFFFFFFFFFFFFFFFFFFFFFFFF AND DUP2 MSTORE PUSH1 0x20 ADD SWAP1 DUP2 MSTORE PUSH1 0x20 ADD PUSH1 0x0 KECCAK256 PUSH1 0x0 SWAP1 SLOAD SWAP1 PUSH2 0x100 EXP SWAP1 DIV PUSH1 0xFF AND PUSH2 0x3E86 JUMPI PUSH1 0x0 DUP1 REVERT JUMPDEST PUSH1 0x0 PUSH1 0x5 PUSH1 0x0 DUP7 PUSH20 0xFFFFFFFFFFFFFFFFFFFFFFFFFFFFFFFFFFFFFFFF AND PUSH20 0xFFFFFFFFFFFFFFFFFFFFFFFFFFFFFFFFFFFFFFFF AND DUP2 MSTORE PUSH1 0x20 ADD SWAP1 DUP2 MSTORE PUSH1 0x20 ADD PUSH1 0x0 KECCAK256 SWAP1 POP PUSH1 0x0 PUSH1 0x2 DUP6 DUP2 SLOAD DUP2 LT PUSH2 0x3EDF JUMPI PUSH2 0x3EDE PUSH2 0x54B5 JUMP JUMPDEST JUMPDEST SWAP1 PUSH1 0x0 MSTORE PUSH1 0x20 PUSH1 0x0 KECCAK256 SWAP1 PUSH1 0x6 MUL ADD SWAP1 POP DUP3 ISZERO PUSH2 0x42AF JUMPI DUP2 PUSH1 0x5 ADD PUSH1 0x0 DUP2 SLOAD DUP1 SWAP3 SWAP2 SWAP1 PUSH2 0x3F0A SWAP1 PUSH2 0x581D JUMP JUMPDEST SWAP2 SWAP1 POP SSTORE POP PUSH1 0x6 PUSH1 0x0 DUP8 PUSH20 0xFFFFFFFFFFFFFFFFFFFFFFFFFFFFFFFFFFFFFFFF AND PUSH20 0xFFFFFFFFFFFFFFFFFFFFFFFFFFFFFFFFFFFFFFFF AND DUP2 MSTORE PUSH1 0x20 ADD SWAP1 DUP2 MSTORE PUSH1 0x20 ADD PUSH1 0x0 KECCAK256 DUP2 SWAP1 DUP1 PUSH1 0x1 DUP2 SLOAD ADD DUP1 DUP3 SSTORE DUP1 SWAP2 POP POP PUSH1 0x1 SWAP1 SUB SWAP1 PUSH1 0x0 MSTORE PUSH1 0x20 PUSH1 0x0 KECCAK256 SWAP1 PUSH1 0x6 MUL ADD PUSH1 0x0 SWAP1 SWAP2 SWAP1 SWAP2 SWAP1 SWAP2 POP PUSH1 0x0 DUP3 ADD SLOAD DUP2 PUSH1 0x0 ADD SSTORE PUSH1 0x1 DUP3 ADD DUP2 PUSH1 0x1 ADD SWAP1 DUP2 PUSH2 0x3F96 SWAP2 SWAP1 PUSH2 0x5706 JUMP JUMPDEST POP PUSH1 0x2 DUP3 ADD DUP2 PUSH1 0x2 ADD SWAP1 DUP2 PUSH2 0x3FAB SWAP2 SWAP1 PUSH2 0x5706 JUMP JUMPDEST POP PUSH1 0x3 DUP3 ADD DUP2 PUSH1 0x3 ADD SWAP1 DUP2 PUSH2 0x3FC0 SWAP2 SWAP1 PUSH2 0x5706 JUMP JUMPDEST POP PUSH1 0x4 DUP3 ADD SLOAD DUP2 PUSH1 0x4 ADD SSTORE PUSH1 0x5 DUP3 ADD SLOAD DUP2 PUSH1 0x5 ADD SSTORE POP POP DUP1 PUSH1 0x4 ADD PUSH1 0x0 DUP2 SLOAD DUP1 SWAP3 SWAP2 SWAP1 PUSH2 0x3FEC SWAP1 PUSH2 0x581D JUMP JUMPDEST SWAP2 SWAP1 POP SSTORE POP PUSH1 0x8 PUSH1 0x0 DUP7 DUP2 MSTORE PUSH1 0x20 ADD SWAP1 DUP2 MSTORE PUSH1 0x20 ADD PUSH1 0x0 KECCAK256 DUP3 SWAP1 DUP1 PUSH1 0x1 DUP2 SLOAD ADD DUP1 DUP3 SSTORE DUP1 SWAP2 POP POP PUSH1 0x1 SWAP1 SUB SWAP1 PUSH1 0x0 MSTORE PUSH1 0x20 PUSH1 0x0 KECCAK256 SWAP1 PUSH1 0x8 MUL ADD PUSH1 0x0 SWAP1 SWAP2 SWAP1 SWAP2 SWAP1 SWAP2 POP PUSH1 0x0 DUP3 ADD SLOAD DUP2 PUSH1 0x0 ADD SSTORE PUSH1 0x1 DUP3 ADD PUSH1 0x0 SWAP1 SLOAD SWAP1 PUSH2 0x100 EXP SWAP1 DIV PUSH20 0xFFFFFFFFFFFFFFFFFFFFFFFFFFFFFFFFFFFFFFFF AND DUP2 PUSH1 0x1 ADD PUSH1 0x0 PUSH2 0x100 EXP DUP2 SLOAD DUP2 PUSH20 0xFFFFFFFFFFFFFFFFFFFFFFFFFFFFFFFFFFFFFFFF MUL NOT AND SWAP1 DUP4 PUSH20 0xFFFFFFFFFFFFFFFFFFFFFFFFFFFFFFFFFFFFFFFF AND MUL OR SWAP1 SSTORE POP PUSH1 0x2 DUP3 ADD DUP2 PUSH1 0x2 ADD SWAP1 DUP2 PUSH2 0x40B3 SWAP2 SWAP1 PUSH2 0x5706 JUMP JUMPDEST POP PUSH1 0x3 DUP3 ADD DUP2 PUSH1 0x3 ADD SWAP1 DUP2 PUSH2 0x40C8 SWAP2 SWAP1 PUSH2 0x5706 JUMP JUMPDEST POP PUSH1 0x4 DUP3 ADD DUP2 PUSH1 0x4 ADD SWAP1 DUP2 PUSH2 0x40DD SWAP2 SWAP1 PUSH2 0x5706 JUMP JUMPDEST POP PUSH1 0x5 DUP3 ADD SLOAD DUP2 PUSH1 0x5 ADD SSTORE PUSH1 0x6 DUP3 ADD SLOAD DUP2 PUSH1 0x6 ADD SSTORE PUSH1 0x7 DUP3 ADD DUP2 PUSH1 0x7 ADD SWAP1 DUP2 PUSH2 0x4106 SWAP2 SWAP1 PUSH2 0x5706 JUMP JUMPDEST POP POP POP PUSH1 0x11 PUSH1 0x0 DUP4 PUSH1 0x1 ADD PUSH1 0x0 SWAP1 SLOAD SWAP1 PUSH2 0x100 EXP SWAP1 DIV PUSH20 0xFFFFFFFFFFFFFFFFFFFFFFFFFFFFFFFFFFFFFFFF AND PUSH20 0xFFFFFFFFFFFFFFFFFFFFFFFFFFFFFFFFFFFFFFFF AND PUSH20 0xFFFFFFFFFFFFFFFFFFFFFFFFFFFFFFFFFFFFFFFF AND DUP2 MSTORE PUSH1 0x20 ADD SWAP1 DUP2 MSTORE PUSH1 0x20 ADD PUSH1 0x0 KECCAK256 PUSH1 0x0 DUP2 SLOAD DUP1 SWAP3 SWAP2 SWAP1 PUSH2 0x417D SWAP1 PUSH2 0x581D JUMP JUMPDEST SWAP2 SWAP1 POP SSTORE POP PUSH1 0x12 PUSH1 0x0 DUP7 DUP2 MSTORE PUSH1 0x20 ADD SWAP1 DUP2 MSTORE PUSH1 0x20 ADD PUSH1 0x0 KECCAK256 PUSH1 0x0 DUP2 SLOAD DUP1 SWAP3 SWAP2 SWAP1 PUSH2 0x41A6 SWAP1 PUSH2 0x581D JUMP JUMPDEST SWAP2 SWAP1 POP SSTORE POP DUP2 PUSH1 0x1 DUP4 PUSH1 0x0 ADD SLOAD DUP2 SLOAD DUP2 LT PUSH2 0x41C4 JUMPI PUSH2 0x41C3 PUSH2 0x54B5 JUMP JUMPDEST JUMPDEST SWAP1 PUSH1 0x0 MSTORE PUSH1 0x20 PUSH1 0x0 KECCAK256 SWAP1 PUSH1 0x8 MUL ADD PUSH1 0x0 DUP3 ADD SLOAD DUP2 PUSH1 0x0 ADD SSTORE PUSH1 0x1 DUP3 ADD PUSH1 0x0 SWAP1 SLOAD SWAP1 PUSH2 0x100 EXP SWAP1 DIV PUSH20 0xFFFFFFFFFFFFFFFFFFFFFFFFFFFFFFFFFFFFFFFF AND DUP2 PUSH1 0x1 ADD PUSH1 0x0 PUSH2 0x100 EXP DUP2 SLOAD DUP2 PUSH20 0xFFFFFFFFFFFFFFFFFFFFFFFFFFFFFFFFFFFFFFFF MUL NOT AND SWAP1 DUP4 PUSH20 0xFFFFFFFFFFFFFFFFFFFFFFFFFFFFFFFFFFFFFFFF AND MUL OR SWAP1 SSTORE POP PUSH1 0x2 DUP3 ADD DUP2 PUSH1 0x2 ADD SWAP1 DUP2 PUSH2 0x4257 SWAP2 SWAP1 PUSH2 0x5706 JUMP JUMPDEST POP PUSH1 0x3 DUP3 ADD DUP2 PUSH1 0x3 ADD SWAP1 DUP2 PUSH2 0x426C SWAP2 SWAP1 PUSH2 0x5706 JUMP JUMPDEST POP PUSH1 0x4 DUP3 ADD DUP2 PUSH1 0x4 ADD SWAP1 DUP2 PUSH2 0x4281 SWAP2 SWAP1 PUSH2 0x5706 JUMP JUMPDEST POP PUSH1 0x5 DUP3 ADD SLOAD DUP2 PUSH1 0x5 ADD SSTORE PUSH1 0x6 DUP3 ADD SLOAD DUP2 PUSH1 0x6 ADD SSTORE PUSH1 0x7 DUP3 ADD DUP2 PUSH1 0x7 ADD SWAP1 DUP2 PUSH2 0x42AA SWAP2 SWAP1 PUSH2 0x5706 JUMP JUMPDEST POP SWAP1 POP POP JUMPDEST DUP2 PUSH1 0x6 ADD PUSH1 0x0 DUP2 SLOAD DUP1 SWAP3 SWAP2 SWAP1 PUSH2 0x42C4 SWAP1 PUSH2 0x5865 JUMP JUMPDEST SWAP2 SWAP1 POP SSTORE POP DUP2 PUSH1 0x1 DUP4 PUSH1 0x0 ADD SLOAD DUP2 SLOAD DUP2 LT PUSH2 0x42E2 JUMPI PUSH2 0x42E1 PUSH2 0x54B5 JUMP JUMPDEST JUMPDEST SWAP1 PUSH1 0x0 MSTORE PUSH1 0x20 PUSH1 0x0 KECCAK256 SWAP1 PUSH1 0x8 MUL ADD PUSH1 0x0 DUP3 ADD SLOAD DUP2 PUSH1 0x0 ADD SSTORE PUSH1 0x1 DUP3 ADD PUSH1 0x0 SWAP1 SLOAD SWAP1 PUSH2 0x100 EXP SWAP1 DIV PUSH20 0xFFFFFFFFFFFFFFFFFFFFFFFFFFFFFFFFFFFFFFFF AND DUP2 PUSH1 0x1 ADD PUSH1 0x0 PUSH2 0x100 EXP DUP2 SLOAD DUP2 PUSH20 0xFFFFFFFFFFFFFFFFFFFFFFFFFFFFFFFFFFFFFFFF MUL NOT AND SWAP1 DUP4 PUSH20 0xFFFFFFFFFFFFFFFFFFFFFFFFFFFFFFFFFFFFFFFF AND MUL OR SWAP1 SSTORE POP PUSH1 0x2 DUP3 ADD DUP2 PUSH1 0x2 ADD SWAP1 DUP2 PUSH2 0x4375 SWAP2 SWAP1 PUSH2 0x5706 JUMP JUMPDEST POP PUSH1 0x3 DUP3 ADD DUP2 PUSH1 0x3 ADD SWAP1 DUP2 PUSH2 0x438A SWAP2 SWAP1 PUSH2 0x5706 JUMP JUMPDEST POP PUSH1 0x4 DUP3 ADD DUP2 PUSH1 0x4 ADD SWAP1 DUP2 PUSH2 0x439F SWAP2 SWAP1 PUSH2 0x5706 JUMP JUMPDEST POP PUSH1 0x5 DUP3 ADD SLOAD DUP2 PUSH1 0x5 ADD SSTORE PUSH1 0x6 DUP3 ADD SLOAD DUP2 PUSH1 0x6 ADD SSTORE PUSH1 0x7 DUP3 ADD DUP2 PUSH1 0x7 ADD SWAP1 DUP2 PUSH2 0x43C8 SWAP2 SWAP1 PUSH2 0x5706 JUMP JUMPDEST POP SWAP1 POP POP PUSH1 0xA PUSH1 0x0 DUP8 PUSH20 0xFFFFFFFFFFFFFFFFFFFFFFFFFFFFFFFFFFFFFFFF AND PUSH20 0xFFFFFFFFFFFFFFFFFFFFFFFFFFFFFFFFFFFFFFFF AND DUP2 MSTORE PUSH1 0x20 ADD SWAP1 DUP2 MSTORE PUSH1 0x20 ADD PUSH1 0x0 KECCAK256 DUP5 DUP2 SLOAD DUP2 LT PUSH2 0x441D JUMPI PUSH2 0x441C PUSH2 0x54B5 JUMP JUMPDEST JUMPDEST SWAP1 PUSH1 0x0 MSTORE PUSH1 0x20 PUSH1 0x0 KECCAK256 SWAP1 PUSH1 0x6 MUL ADD PUSH1 0x0 DUP1 DUP3 ADD PUSH1 0x0 SWAP1 SSTORE PUSH1 0x1 DUP3 ADD PUSH1 0x0 PUSH2 0x4444 SWAP2 SWAP1 PUSH2 0x4931 JUMP JUMPDEST PUSH1 0x2 DUP3 ADD PUSH1 0x0 PUSH2 0x4454 SWAP2 SWAP1 PUSH2 0x4931 JUMP JUMPDEST PUSH1 0x3 DUP3 ADD PUSH1 0x0 PUSH2 0x4464 SWAP2 SWAP1 PUSH2 0x4931 JUMP JUMPDEST PUSH1 0x4 DUP3 ADD PUSH1 0x0 SWAP1 SSTORE PUSH1 0x5 DUP3 ADD PUSH1 0x0 SWAP1 SSTORE POP POP POP POP POP POP POP POP JUMP JUMPDEST PUSH1 0xB DUP2 DUP1 MLOAD PUSH1 0x20 DUP2 ADD DUP3 ADD DUP1 MLOAD DUP5 DUP3 MSTORE PUSH1 0x20 DUP4 ADD PUSH1 0x20 DUP6 ADD KECCAK256 DUP2 DUP4 MSTORE DUP1 SWAP6 POP POP POP POP POP POP PUSH1 0x0 SWAP2 POP SWAP1 POP DUP1 PUSH1 0x0 ADD SLOAD SWAP1 DUP1 PUSH1 0x1 ADD PUSH1 0x0 SWAP1 SLOAD SWAP1 PUSH2 0x100 EXP SWAP1 DIV PUSH20 0xFFFFFFFFFFFFFFFFFFFFFFFFFFFFFFFFFFFFFFFF AND SWAP1 DUP1 PUSH1 0x2 ADD DUP1 SLOAD PUSH2 0x44E3 SWAP1 PUSH2 0x5513 JUMP JUMPDEST DUP1 PUSH1 0x1F ADD PUSH1 0x20 DUP1 SWAP2 DIV MUL PUSH1 0x20 ADD PUSH1 0x40 MLOAD SWAP1 DUP2 ADD PUSH1 0x40 MSTORE DUP1 SWAP3 SWAP2 SWAP1 DUP2 DUP2 MSTORE PUSH1 0x20 ADD DUP3 DUP1 SLOAD PUSH2 0x450F SWAP1 PUSH2 0x5513 JUMP JUMPDEST DUP1 ISZERO PUSH2 0x455C JUMPI DUP1 PUSH1 0x1F LT PUSH2 0x4531 JUMPI PUSH2 0x100 DUP1 DUP4 SLOAD DIV MUL DUP4 MSTORE SWAP2 PUSH1 0x20 ADD SWAP2 PUSH2 0x455C JUMP JUMPDEST DUP3 ADD SWAP2 SWAP1 PUSH1 0x0 MSTORE PUSH1 0x20 PUSH1 0x0 KECCAK256 SWAP1 JUMPDEST DUP2 SLOAD DUP2 MSTORE SWAP1 PUSH1 0x1 ADD SWAP1 PUSH1 0x20 ADD DUP1 DUP4 GT PUSH2 0x453F JUMPI DUP3 SWAP1 SUB PUSH1 0x1F AND DUP3 ADD SWAP2 JUMPDEST POP POP POP POP POP SWAP1 DUP1 PUSH1 0x3 ADD DUP1 SLOAD PUSH2 0x4571 SWAP1 PUSH2 0x5513 JUMP JUMPDEST DUP1 PUSH1 0x1F ADD PUSH1 0x20 DUP1 SWAP2 DIV MUL PUSH1 0x20 ADD PUSH1 0x40 MLOAD SWAP1 DUP2 ADD PUSH1 0x40 MSTORE DUP1 SWAP3 SWAP2 SWAP1 DUP2 DUP2 MSTORE PUSH1 0x20 ADD DUP3 DUP1 SLOAD PUSH2 0x459D SWAP1 PUSH2 0x5513 JUMP JUMPDEST DUP1 ISZERO PUSH2 0x45EA JUMPI DUP1 PUSH1 0x1F LT PUSH2 0x45BF JUMPI PUSH2 0x100 DUP1 DUP4 SLOAD DIV MUL DUP4 MSTORE SWAP2 PUSH1 0x20 ADD SWAP2 PUSH2 0x45EA JUMP JUMPDEST DUP3 ADD SWAP2 SWAP1 PUSH1 0x0 MSTORE PUSH1 0x20 PUSH1 0x0 KECCAK256 SWAP1 JUMPDEST DUP2 SLOAD DUP2 MSTORE SWAP1 PUSH1 0x1 ADD SWAP1 PUSH1 0x20 ADD DUP1 DUP4 GT PUSH2 0x45CD JUMPI DUP3 SWAP1 SUB PUSH1 0x1F AND DUP3 ADD SWAP2 JUMPDEST POP POP POP POP POP SWAP1 DUP1 PUSH1 0x4 ADD DUP1 SLOAD PUSH2 0x45FF SWAP1 PUSH2 0x5513 JUMP JUMPDEST DUP1 PUSH1 0x1F ADD PUSH1 0x20 DUP1 SWAP2 DIV MUL PUSH1 0x20 ADD PUSH1 0x40 MLOAD SWAP1 DUP2 ADD PUSH1 0x40 MSTORE DUP1 SWAP3 SWAP2 SWAP1 DUP2 DUP2 MSTORE PUSH1 0x20 ADD DUP3 DUP1 SLOAD PUSH2 0x462B SWAP1 PUSH2 0x5513 JUMP JUMPDEST DUP1 ISZERO PUSH2 0x4678 JUMPI DUP1 PUSH1 0x1F LT PUSH2 0x464D JUMPI PUSH2 0x100 DUP1 DUP4 SLOAD DIV MUL DUP4 MSTORE SWAP2 PUSH1 0x20 ADD SWAP2 PUSH2 0x4678 JUMP JUMPDEST DUP3 ADD SWAP2 SWAP1 PUSH1 0x0 MSTORE PUSH1 0x20 PUSH1 0x0 KECCAK256 SWAP1 JUMPDEST DUP2 SLOAD DUP2 MSTORE SWAP1 PUSH1 0x1 ADD SWAP1 PUSH1 0x20 ADD DUP1 DUP4 GT PUSH2 0x465B JUMPI DUP3 SWAP1 SUB PUSH1 0x1F AND DUP3 ADD SWAP2 JUMPDEST POP POP POP POP POP SWAP1 DUP1 PUSH1 0x5 ADD SLOAD SWAP1 DUP1 PUSH1 0x6 ADD SLOAD SWAP1 DUP1 PUSH1 0x7 ADD DUP1 SLOAD PUSH2 0x4699 SWAP1 PUSH2 0x5513 JUMP JUMPDEST DUP1 PUSH1 0x1F ADD PUSH1 0x20 DUP1 SWAP2 DIV MUL PUSH1 0x20 ADD PUSH1 0x40 MLOAD SWAP1 DUP2 ADD PUSH1 0x40 MSTORE DUP1 SWAP3 SWAP2 SWAP1 DUP2 DUP2 MSTORE PUSH1 0x20 ADD DUP3 DUP1 SLOAD PUSH2 0x46C5 SWAP1 PUSH2 0x5513 JUMP JUMPDEST DUP1 ISZERO PUSH2 0x4712 JUMPI DUP1 PUSH1 0x1F LT PUSH2 0x46E7 JUMPI PUSH2 0x100 DUP1 DUP4 SLOAD DIV MUL DUP4 MSTORE SWAP2 PUSH1 0x20 ADD SWAP2 PUSH2 0x4712 JUMP JUMPDEST DUP3 ADD SWAP2 SWAP1 PUSH1 0x0 MSTORE PUSH1 0x20 PUSH1 0x0 KECCAK256 SWAP1 JUMPDEST DUP2 SLOAD DUP2 MSTORE SWAP1 PUSH1 0x1 ADD SWAP1 PUSH1 0x20 ADD DUP1 DUP4 GT PUSH2 0x46F5 JUMPI DUP3 SWAP1 SUB PUSH1 0x1F AND DUP3 ADD SWAP2 JUMPDEST POP POP POP POP POP SWAP1 POP DUP9 JUMP JUMPDEST PUSH1 0xA PUSH1 0x20 MSTORE DUP2 PUSH1 0x0 MSTORE PUSH1 0x40 PUSH1 0x0 KECCAK256 DUP2 DUP2 SLOAD DUP2 LT PUSH2 0x4738 JUMPI PUSH1 0x0 DUP1 REVERT JUMPDEST SWAP1 PUSH1 0x0 MSTORE PUSH1 0x20 PUSH1 0x0 KECCAK256 SWAP1 PUSH1 0x6 MUL ADD PUSH1 0x0 SWAP2 POP SWAP2 POP POP DUP1 PUSH1 0x0 ADD SLOAD SWAP1 DUP1 PUSH1 0x1 ADD DUP1 SLOAD PUSH2 0x4762 SWAP1 PUSH2 0x5513 JUMP JUMPDEST DUP1 PUSH1 0x1F ADD PUSH1 0x20 DUP1 SWAP2 DIV MUL PUSH1 0x20 ADD PUSH1 0x40 MLOAD SWAP1 DUP2 ADD PUSH1 0x40 MSTORE DUP1 SWAP3 SWAP2 SWAP1 DUP2 DUP2 MSTORE PUSH1 0x20 ADD DUP3 DUP1 SLOAD PUSH2 0x478E SWAP1 PUSH2 0x5513 JUMP JUMPDEST DUP1 ISZERO PUSH2 0x47DB JUMPI DUP1 PUSH1 0x1F LT PUSH2 0x47B0 JUMPI PUSH2 0x100 DUP1 DUP4 SLOAD DIV MUL DUP4 MSTORE SWAP2 PUSH1 0x20 ADD SWAP2 PUSH2 0x47DB JUMP JUMPDEST DUP3 ADD SWAP2 SWAP1 PUSH1 0x0 MSTORE PUSH1 0x20 PUSH1 0x0 KECCAK256 SWAP1 JUMPDEST DUP2 SLOAD DUP2 MSTORE SWAP1 PUSH1 0x1 ADD SWAP1 PUSH1 0x20 ADD DUP1 DUP4 GT PUSH2 0x47BE JUMPI DUP3 SWAP1 SUB PUSH1 0x1F AND DUP3 ADD SWAP2 JUMPDEST POP POP POP POP POP SWAP1 DUP1 PUSH1 0x2 ADD DUP1 SLOAD PUSH2 0x47F0 SWAP1 PUSH2 0x5513 JUMP JUMPDEST DUP1 PUSH1 0x1F ADD PUSH1 0x20 DUP1 SWAP2 DIV MUL PUSH1 0x20 ADD PUSH1 0x40 MLOAD SWAP1 DUP2 ADD PUSH1 0x40 MSTORE DUP1 SWAP3 SWAP2 SWAP1 DUP2 DUP2 MSTORE PUSH1 0x20 ADD DUP3 DUP1 SLOAD PUSH2 0x481C SWAP1 PUSH2 0x5513 JUMP JUMPDEST DUP1 ISZERO PUSH2 0x4869 JUMPI DUP1 PUSH1 0x1F LT PUSH2 0x483E JUMPI PUSH2 0x100 DUP1 DUP4 SLOAD DIV MUL DUP4 MSTORE SWAP2 PUSH1 0x20 ADD SWAP2 PUSH2 0x4869 JUMP JUMPDEST DUP3 ADD SWAP2 SWAP1 PUSH1 0x0 MSTORE PUSH1 0x20 PUSH1 0x0 KECCAK256 SWAP1 JUMPDEST DUP2 SLOAD DUP2 MSTORE SWAP1 PUSH1 0x1 ADD SWAP1 PUSH1 0x20 ADD DUP1 DUP4 GT PUSH2 0x484C JUMPI DUP3 SWAP1 SUB PUSH1 0x1F AND DUP3 ADD SWAP2 JUMPDEST POP POP POP POP POP SWAP1 DUP1 PUSH1 0x3 ADD DUP1 SLOAD PUSH2 0x487E SWAP1 PUSH2 0x5513 JUMP JUMPDEST DUP1 PUSH1 0x1F ADD PUSH1 0x20 DUP1 SWAP2 DIV MUL PUSH1 0x20 ADD PUSH1 0x40 MLOAD SWAP1 DUP2 ADD PUSH1 0x40 MSTORE DUP1 SWAP3 SWAP2 SWAP1 DUP2 DUP2 MSTORE PUSH1 0x20 ADD DUP3 DUP1 SLOAD PUSH2 0x48AA SWAP1 PUSH2 0x5513 JUMP JUMPDEST DUP1 ISZERO PUSH2 0x48F7 JUMPI DUP1 PUSH1 0x1F LT PUSH2 0x48CC JUMPI PUSH2 0x100 DUP1 DUP4 SLOAD DIV MUL DUP4 MSTORE SWAP2 PUSH1 0x20 ADD SWAP2 PUSH2 0x48F7 JUMP JUMPDEST DUP3 ADD SWAP2 SWAP1 PUSH1 0x0 MSTORE PUSH1 0x20 PUSH1 0x0 KECCAK256 SWAP1 JUMPDEST DUP2 SLOAD DUP2 MSTORE SWAP1 PUSH1 0x1 ADD SWAP1 PUSH1 0x20 ADD DUP1 DUP4 GT PUSH2 0x48DA JUMPI DUP3 SWAP1 SUB PUSH1 0x1F AND DUP3 ADD SWAP2 JUMPDEST POP POP POP POP POP SWAP1 DUP1 PUSH1 0x4 ADD SLOAD SWAP1 DUP1 PUSH1 0x5 ADD SLOAD SWAP1 POP DUP7 JUMP JUMPDEST POP DUP1 SLOAD PUSH1 0x0 DUP3 SSTORE PUSH1 0x8 MUL SWAP1 PUSH1 0x0 MSTORE PUSH1 0x20 PUSH1 0x0 KECCAK256 SWAP1 DUP2 ADD SWAP1 PUSH2 0x492E SWAP2 SWAP1 PUSH2 0x4995 JUMP JUMPDEST POP JUMP JUMPDEST POP DUP1 SLOAD PUSH2 0x493D SWAP1 PUSH2 0x5513 JUMP JUMPDEST PUSH1 0x0 DUP3 SSTORE DUP1 PUSH1 0x1F LT PUSH2 0x494F JUMPI POP PUSH2 0x496E JUMP JUMPDEST PUSH1 0x1F ADD PUSH1 0x20 SWAP1 DIV SWAP1 PUSH1 0x0 MSTORE PUSH1 0x20 PUSH1 0x0 KECCAK256 SWAP1 DUP2 ADD SWAP1 PUSH2 0x496D SWAP2 SWAP1 PUSH2 0x4A2B JUMP JUMPDEST JUMPDEST POP JUMP JUMPDEST POP DUP1 SLOAD PUSH1 0x0 DUP3 SSTORE PUSH1 0x6 MUL SWAP1 PUSH1 0x0 MSTORE PUSH1 0x20 PUSH1 0x0 KECCAK256 SWAP1 DUP2 ADD SWAP1 PUSH2 0x4992 SWAP2 SWAP1 PUSH2 0x4A48 JUMP JUMPDEST POP JUMP JUMPDEST JUMPDEST DUP1 DUP3 GT ISZERO PUSH2 0x4A27 JUMPI PUSH1 0x0 DUP1 DUP3 ADD PUSH1 0x0 SWAP1 SSTORE PUSH1 0x1 DUP3 ADD PUSH1 0x0 PUSH2 0x100 EXP DUP2 SLOAD SWAP1 PUSH20 0xFFFFFFFFFFFFFFFFFFFFFFFFFFFFFFFFFFFFFFFF MUL NOT AND SWAP1 SSTORE PUSH1 0x2 DUP3 ADD PUSH1 0x0 PUSH2 0x49DE SWAP2 SWAP1 PUSH2 0x4931 JUMP JUMPDEST PUSH1 0x3 DUP3 ADD PUSH1 0x0 PUSH2 0x49EE SWAP2 SWAP1 PUSH2 0x4931 JUMP JUMPDEST PUSH1 0x4 DUP3 ADD PUSH1 0x0 PUSH2 0x49FE SWAP2 SWAP1 PUSH2 0x4931 JUMP JUMPDEST PUSH1 0x5 DUP3 ADD PUSH1 0x0 SWAP1 SSTORE PUSH1 0x6 DUP3 ADD PUSH1 0x0 SWAP1 SSTORE PUSH1 0x7 DUP3 ADD PUSH1 0x0 PUSH2 0x4A1E SWAP2 SWAP1 PUSH2 0x4931 JUMP JUMPDEST POP PUSH1 0x8 ADD PUSH2 0x4996 JUMP JUMPDEST POP SWAP1 JUMP JUMPDEST JUMPDEST DUP1 DUP3 GT ISZERO PUSH2 0x4A44 JUMPI PUSH1 0x0 DUP2 PUSH1 0x0 SWAP1 SSTORE POP PUSH1 0x1 ADD PUSH2 0x4A2C JUMP JUMPDEST POP SWAP1 JUMP JUMPDEST JUMPDEST DUP1 DUP3 GT ISZERO PUSH2 0x4AA3 JUMPI PUSH1 0x0 DUP1 DUP3 ADD PUSH1 0x0 SWAP1 SSTORE PUSH1 0x1 DUP3 ADD PUSH1 0x0 PUSH2 0x4A6A SWAP2 SWAP1 PUSH2 0x4931 JUMP JUMPDEST PUSH1 0x2 DUP3 ADD PUSH1 0x0 PUSH2 0x4A7A SWAP2 SWAP1 PUSH2 0x4931 JUMP JUMPDEST PUSH1 0x3 DUP3 ADD PUSH1 0x0 PUSH2 0x4A8A SWAP2 SWAP1 PUSH2 0x4931 JUMP JUMPDEST PUSH1 0x4 DUP3 ADD PUSH1 0x0 SWAP1 SSTORE PUSH1 0x5 DUP3 ADD PUSH1 0x0 SWAP1 SSTORE POP PUSH1 0x6 ADD PUSH2 0x4A49 JUMP JUMPDEST POP SWAP1 JUMP JUMPDEST PUSH1 0x0 PUSH1 0x40 MLOAD SWAP1 POP SWAP1 JUMP JUMPDEST PUSH1 0x0 DUP1 REVERT JUMPDEST PUSH1 0x0 DUP1 REVERT JUMPDEST PUSH1 0x0 DUP2 SWAP1 POP SWAP2 SWAP1 POP JUMP JUMPDEST PUSH2 0x4ACE DUP2 PUSH2 0x4ABB JUMP JUMPDEST DUP2 EQ PUSH2 0x4AD9 JUMPI PUSH1 0x0 DUP1 REVERT JUMPDEST POP JUMP JUMPDEST PUSH1 0x0 DUP2 CALLDATALOAD SWAP1 POP PUSH2 0x4AEB DUP2 PUSH2 0x4AC5 JUMP JUMPDEST SWAP3 SWAP2 POP POP JUMP JUMPDEST PUSH1 0x0 PUSH1 0x20 DUP3 DUP5 SUB SLT ISZERO PUSH2 0x4B07 JUMPI PUSH2 0x4B06 PUSH2 0x4AB1 JUMP JUMPDEST JUMPDEST PUSH1 0x0 PUSH2 0x4B15 DUP5 DUP3 DUP6 ADD PUSH2 0x4ADC JUMP JUMPDEST SWAP2 POP POP SWAP3 SWAP2 POP POP JUMP JUMPDEST PUSH2 0x4B27 DUP2 PUSH2 0x4ABB JUMP JUMPDEST DUP3 MSTORE POP POP JUMP JUMPDEST PUSH1 0x0 PUSH1 0x20 DUP3 ADD SWAP1 POP PUSH2 0x4B42 PUSH1 0x0 DUP4 ADD DUP5 PUSH2 0x4B1E JUMP JUMPDEST SWAP3 SWAP2 POP POP JUMP JUMPDEST PUSH1 0x0 DUP1 REVERT JUMPDEST PUSH1 0x0 PUSH1 0x1F NOT PUSH1 0x1F DUP4 ADD AND SWAP1 POP SWAP2 SWAP1 POP JUMP JUMPDEST PUSH32 0x4E487B7100000000000000000000000000000000000000000000000000000000 PUSH1 0x0 MSTORE PUSH1 0x41 PUSH1 0x4 MSTORE PUSH1 0x24 PUSH1 0x0 REVERT JUMPDEST PUSH2 0x4B96 DUP3 PUSH2 0x4B4D JUMP JUMPDEST DUP2 ADD DUP2 DUP2 LT PUSH8 0xFFFFFFFFFFFFFFFF DUP3 GT OR ISZERO PUSH2 0x4BB5 JUMPI PUSH2 0x4BB4 PUSH2 0x4B5E JUMP JUMPDEST JUMPDEST DUP1 PUSH1 0x40 MSTORE POP POP POP JUMP JUMPDEST PUSH1 0x0 PUSH2 0x4BC8 PUSH2 0x4AA7 JUMP JUMPDEST SWAP1 POP PUSH2 0x4BD4 DUP3 DUP3 PUSH2 0x4B8D JUMP JUMPDEST SWAP2 SWAP1 POP JUMP JUMPDEST PUSH1 0x0 PUSH8 0xFFFFFFFFFFFFFFFF DUP3 GT ISZERO PUSH2 0x4BF4 JUMPI PUSH2 0x4BF3 PUSH2 0x4B5E JUMP JUMPDEST JUMPDEST PUSH1 0x20 DUP3 MUL SWAP1 POP PUSH1 0x20 DUP2 ADD SWAP1 POP SWAP2 SWAP1 POP JUMP JUMPDEST PUSH1 0x0 DUP1 REVERT JUMPDEST PUSH1 0x0 PUSH20 0xFFFFFFFFFFFFFFFFFFFFFFFFFFFFFFFFFFFFFFFF DUP3 AND SWAP1 POP SWAP2 SWAP1 POP JUMP JUMPDEST PUSH1 0x0 PUSH2 0x4C35 DUP3 PUSH2 0x4C0A JUMP JUMPDEST SWAP1 POP SWAP2 SWAP1 POP JUMP JUMPDEST PUSH2 0x4C45 DUP2 PUSH2 0x4C2A JUMP JUMPDEST DUP2 EQ PUSH2 0x4C50 JUMPI PUSH1 0x0 DUP1 REVERT JUMPDEST POP JUMP JUMPDEST PUSH1 0x0 DUP2 CALLDATALOAD SWAP1 POP PUSH2 0x4C62 DUP2 PUSH2 0x4C3C JUMP JUMPDEST SWAP3 SWAP2 POP POP JUMP JUMPDEST PUSH1 0x0 PUSH2 0x4C7B PUSH2 0x4C76 DUP5 PUSH2 0x4BD9 JUMP JUMPDEST PUSH2 0x4BBE JUMP JUMPDEST SWAP1 POP DUP1 DUP4 DUP3 MSTORE PUSH1 0x20 DUP3 ADD SWAP1 POP PUSH1 0x20 DUP5 MUL DUP4 ADD DUP6 DUP2 GT ISZERO PUSH2 0x4C9E JUMPI PUSH2 0x4C9D PUSH2 0x4C05 JUMP JUMPDEST JUMPDEST DUP4 JUMPDEST DUP2 DUP2 LT ISZERO PUSH2 0x4CC7 JUMPI DUP1 PUSH2 0x4CB3 DUP9 DUP3 PUSH2 0x4C53 JUMP JUMPDEST DUP5 MSTORE PUSH1 0x20 DUP5 ADD SWAP4 POP POP PUSH1 0x20 DUP2 ADD SWAP1 POP PUSH2 0x4CA0 JUMP JUMPDEST POP POP POP SWAP4 SWAP3 POP POP POP JUMP JUMPDEST PUSH1 0x0 DUP3 PUSH1 0x1F DUP4 ADD SLT PUSH2 0x4CE6 JUMPI PUSH2 0x4CE5 PUSH2 0x4B48 JUMP JUMPDEST JUMPDEST DUP2 CALLDATALOAD PUSH2 0x4CF6 DUP5 DUP3 PUSH1 0x20 DUP7 ADD PUSH2 0x4C68 JUMP JUMPDEST SWAP2 POP POP SWAP3 SWAP2 POP POP JUMP JUMPDEST PUSH1 0x0 PUSH1 0x20 DUP3 DUP5 SUB SLT ISZERO PUSH2 0x4D15 JUMPI PUSH2 0x4D14 PUSH2 0x4AB1 JUMP JUMPDEST JUMPDEST PUSH1 0x0 DUP3 ADD CALLDATALOAD PUSH8 0xFFFFFFFFFFFFFFFF DUP2 GT ISZERO PUSH2 0x4D33 JUMPI PUSH2 0x4D32 PUSH2 0x4AB6 JUMP JUMPDEST JUMPDEST PUSH2 0x4D3F DUP5 DUP3 DUP6 ADD PUSH2 0x4CD1 JUMP JUMPDEST SWAP2 POP POP SWAP3 SWAP2 POP POP JUMP JUMPDEST PUSH1 0x0 DUP1 PUSH1 0x0 DUP1 PUSH1 0x80 DUP6 DUP8 SUB SLT ISZERO PUSH2 0x4D62 JUMPI PUSH2 0x4D61 PUSH2 0x4AB1 JUMP JUMPDEST JUMPDEST PUSH1 0x0 PUSH2 0x4D70 DUP8 DUP3 DUP9 ADD PUSH2 0x4ADC JUMP JUMPDEST SWAP5 POP POP PUSH1 0x20 PUSH2 0x4D81 DUP8 DUP3 DUP9 ADD PUSH2 0x4C53 JUMP JUMPDEST SWAP4 POP POP PUSH1 0x40 PUSH2 0x4D92 DUP8 DUP3 DUP9 ADD PUSH2 0x4ADC JUMP JUMPDEST SWAP3 POP POP PUSH1 0x60 PUSH2 0x4DA3 DUP8 DUP3 DUP9 ADD PUSH2 0x4ADC JUMP JUMPDEST SWAP2 POP POP SWAP3 SWAP6 SWAP2 SWAP5 POP SWAP3 POP JUMP JUMPDEST PUSH1 0x0 PUSH8 0xFFFFFFFFFFFFFFFF DUP3 GT ISZERO PUSH2 0x4DCA JUMPI PUSH2 0x4DC9 PUSH2 0x4B5E JUMP JUMPDEST JUMPDEST PUSH1 0x20 DUP3 MUL SWAP1 POP PUSH1 0x20 DUP2 ADD SWAP1 POP SWAP2 SWAP1 POP JUMP JUMPDEST PUSH1 0x0 PUSH2 0x4DEE PUSH2 0x4DE9 DUP5 PUSH2 0x4DAF JUMP JUMPDEST PUSH2 0x4BBE JUMP JUMPDEST SWAP1 POP DUP1 DUP4 DUP3 MSTORE PUSH1 0x20 DUP3 ADD SWAP1 POP PUSH1 0x20 DUP5 MUL DUP4 ADD DUP6 DUP2 GT ISZERO PUSH2 0x4E11 JUMPI PUSH2 0x4E10 PUSH2 0x4C05 JUMP JUMPDEST JUMPDEST DUP4 JUMPDEST DUP2 DUP2 LT ISZERO PUSH2 0x4E3A JUMPI DUP1 PUSH2 0x4E26 DUP9 DUP3 PUSH2 0x4ADC JUMP JUMPDEST DUP5 MSTORE PUSH1 0x20 DUP5 ADD SWAP4 POP POP PUSH1 0x20 DUP2 ADD SWAP1 POP PUSH2 0x4E13 JUMP JUMPDEST POP POP POP SWAP4 SWAP3 POP POP POP JUMP JUMPDEST PUSH1 0x0 DUP3 PUSH1 0x1F DUP4 ADD SLT PUSH2 0x4E59 JUMPI PUSH2 0x4E58 PUSH2 0x4B48 JUMP JUMPDEST JUMPDEST DUP2 CALLDATALOAD PUSH2 0x4E69 DUP5 DUP3 PUSH1 0x20 DUP7 ADD PUSH2 0x4DDB JUMP JUMPDEST SWAP2 POP POP SWAP3 SWAP2 POP POP JUMP JUMPDEST PUSH1 0x0 PUSH1 0x20 DUP3 DUP5 SUB SLT ISZERO PUSH2 0x4E88 JUMPI PUSH2 0x4E87 PUSH2 0x4AB1 JUMP JUMPDEST JUMPDEST PUSH1 0x0 DUP3 ADD CALLDATALOAD PUSH8 0xFFFFFFFFFFFFFFFF DUP2 GT ISZERO PUSH2 0x4EA6 JUMPI PUSH2 0x4EA5 PUSH2 0x4AB6 JUMP JUMPDEST JUMPDEST PUSH2 0x4EB2 DUP5 DUP3 DUP6 ADD PUSH2 0x4E44 JUMP JUMPDEST SWAP2 POP POP SWAP3 SWAP2 POP POP JUMP JUMPDEST PUSH1 0x0 DUP1 REVERT JUMPDEST PUSH1 0x0 PUSH8 0xFFFFFFFFFFFFFFFF DUP3 GT ISZERO PUSH2 0x4EDB JUMPI PUSH2 0x4EDA PUSH2 0x4B5E JUMP JUMPDEST JUMPDEST PUSH2 0x4EE4 DUP3 PUSH2 0x4B4D JUMP JUMPDEST SWAP1 POP PUSH1 0x20 DUP2 ADD SWAP1 POP SWAP2 SWAP1 POP JUMP JUMPDEST DUP3 DUP2 DUP4 CALLDATACOPY PUSH1 0x0 DUP4 DUP4 ADD MSTORE POP POP POP JUMP JUMPDEST PUSH1 0x0 PUSH2 0x4F13 PUSH2 0x4F0E DUP5 PUSH2 0x4EC0 JUMP JUMPDEST PUSH2 0x4BBE JUMP JUMPDEST SWAP1 POP DUP3 DUP2 MSTORE PUSH1 0x20 DUP2 ADD DUP5 DUP5 DUP5 ADD GT ISZERO PUSH2 0x4F2F JUMPI PUSH2 0x4F2E PUSH2 0x4EBB JUMP JUMPDEST JUMPDEST PUSH2 0x4F3A DUP5 DUP3 DUP6 PUSH2 0x4EF1 JUMP JUMPDEST POP SWAP4 SWAP3 POP POP POP JUMP JUMPDEST PUSH1 0x0 DUP3 PUSH1 0x1F DUP4 ADD SLT PUSH2 0x4F57 JUMPI PUSH2 0x4F56 PUSH2 0x4B48 JUMP JUMPDEST JUMPDEST DUP2 CALLDATALOAD PUSH2 0x4F67 DUP5 DUP3 PUSH1 0x20 DUP7 ADD PUSH2 0x4F00 JUMP JUMPDEST SWAP2 POP POP SWAP3 SWAP2 POP POP JUMP JUMPDEST PUSH1 0x0 PUSH1 0x20 DUP3 DUP5 SUB SLT ISZERO PUSH2 0x4F86 JUMPI PUSH2 0x4F85 PUSH2 0x4AB1 JUMP JUMPDEST JUMPDEST PUSH1 0x0 DUP3 ADD CALLDATALOAD PUSH8 0xFFFFFFFFFFFFFFFF DUP2 GT ISZERO PUSH2 0x4FA4 JUMPI PUSH2 0x4FA3 PUSH2 0x4AB6 JUMP JUMPDEST JUMPDEST PUSH2 0x4FB0 DUP5 DUP3 DUP6 ADD PUSH2 0x4F42 JUMP JUMPDEST SWAP2 POP POP SWAP3 SWAP2 POP POP JUMP JUMPDEST PUSH1 0x0 PUSH1 0x20 DUP3 DUP5 SUB SLT ISZERO PUSH2 0x4FCF JUMPI PUSH2 0x4FCE PUSH2 0x4AB1 JUMP JUMPDEST JUMPDEST PUSH1 0x0 PUSH2 0x4FDD DUP5 DUP3 DUP6 ADD PUSH2 0x4C53 JUMP JUMPDEST SWAP2 POP POP SWAP3 SWAP2 POP POP JUMP JUMPDEST PUSH1 0x0 DUP2 ISZERO ISZERO SWAP1 POP SWAP2 SWAP1 POP JUMP JUMPDEST PUSH2 0x4FFB DUP2 PUSH2 0x4FE6 JUMP JUMPDEST DUP3 MSTORE POP POP JUMP JUMPDEST PUSH1 0x0 PUSH1 0x20 DUP3 ADD SWAP1 POP PUSH2 0x5016 PUSH1 0x0 DUP4 ADD DUP5 PUSH2 0x4FF2 JUMP JUMPDEST SWAP3 SWAP2 POP POP JUMP JUMPDEST PUSH1 0x0 DUP1 PUSH1 0x0 DUP1 PUSH1 0x80 DUP6 DUP8 SUB SLT ISZERO PUSH2 0x5036 JUMPI PUSH2 0x5035 PUSH2 0x4AB1 JUMP JUMPDEST JUMPDEST PUSH1 0x0 PUSH2 0x5044 DUP8 DUP3 DUP9 ADD PUSH2 0x4C53 JUMP JUMPDEST SWAP5 POP POP PUSH1 0x20 DUP6 ADD CALLDATALOAD PUSH8 0xFFFFFFFFFFFFFFFF DUP2 GT ISZERO PUSH2 0x5065 JUMPI PUSH2 0x5064 PUSH2 0x4AB6 JUMP JUMPDEST JUMPDEST PUSH2 0x5071 DUP8 DUP3 DUP9 ADD PUSH2 0x4F42 JUMP JUMPDEST SWAP4 POP POP PUSH1 0x40 DUP6 ADD CALLDATALOAD PUSH8 0xFFFFFFFFFFFFFFFF DUP2 GT ISZERO PUSH2 0x5092 JUMPI PUSH2 0x5091 PUSH2 0x4AB6 JUMP JUMPDEST JUMPDEST PUSH2 0x509E DUP8 DUP3 DUP9 ADD PUSH2 0x4F42 JUMP JUMPDEST SWAP3 POP POP PUSH1 0x60 DUP6 ADD CALLDATALOAD PUSH8 0xFFFFFFFFFFFFFFFF DUP2 GT ISZERO PUSH2 0x50BF JUMPI PUSH2 0x50BE PUSH2 0x4AB6 JUMP JUMPDEST JUMPDEST PUSH2 0x50CB DUP8 DUP3 DUP9 ADD PUSH2 0x4F42 JUMP JUMPDEST SWAP2 POP POP SWAP3 SWAP6 SWAP2 SWAP5 POP SWAP3 POP JUMP JUMPDEST PUSH1 0x0 DUP1 PUSH1 0x40 DUP4 DUP6 SUB SLT ISZERO PUSH2 0x50EE JUMPI PUSH2 0x50ED PUSH2 0x4AB1 JUMP JUMPDEST JUMPDEST PUSH1 0x0 PUSH2 0x50FC DUP6 DUP3 DUP7 ADD PUSH2 0x4ADC JUMP JUMPDEST SWAP3 POP POP PUSH1 0x20 PUSH2 0x510D DUP6 DUP3 DUP7 ADD PUSH2 0x4ADC JUMP JUMPDEST SWAP2 POP POP SWAP3 POP SWAP3 SWAP1 POP JUMP JUMPDEST PUSH2 0x5120 DUP2 PUSH2 0x4C2A JUMP JUMPDEST DUP3 MSTORE POP POP JUMP JUMPDEST PUSH1 0x0 DUP2 MLOAD SWAP1 POP SWAP2 SWAP1 POP JUMP JUMPDEST PUSH1 0x0 DUP3 DUP3 MSTORE PUSH1 0x20 DUP3 ADD SWAP1 POP SWAP3 SWAP2 POP POP JUMP JUMPDEST PUSH1 0x0 JUMPDEST DUP4 DUP2 LT ISZERO PUSH2 0x5160 JUMPI DUP1 DUP3 ADD MLOAD DUP2 DUP5 ADD MSTORE PUSH1 0x20 DUP2 ADD SWAP1 POP PUSH2 0x5145 JUMP JUMPDEST PUSH1 0x0 DUP5 DUP5 ADD MSTORE POP POP POP POP JUMP JUMPDEST PUSH1 0x0 PUSH2 0x5177 DUP3 PUSH2 0x5126 JUMP JUMPDEST PUSH2 0x5181 DUP2 DUP6 PUSH2 0x5131 JUMP JUMPDEST SWAP4 POP PUSH2 0x5191 DUP2 DUP6 PUSH1 0x20 DUP7 ADD PUSH2 0x5142 JUMP JUMPDEST PUSH2 0x519A DUP2 PUSH2 0x4B4D JUMP JUMPDEST DUP5 ADD SWAP2 POP POP SWAP3 SWAP2 POP POP JUMP JUMPDEST PUSH1 0x0 PUSH2 0x100 DUP3 ADD SWAP1 POP PUSH2 0x51BB PUSH1 0x0 DUP4 ADD DUP12 PUSH2 0x4B1E JUMP JUMPDEST PUSH2 0x51C8 PUSH1 0x20 DUP4 ADD DUP11 PUSH2 0x5117 JUMP JUMPDEST DUP2 DUP2 SUB PUSH1 0x40 DUP4 ADD MSTORE PUSH2 0x51DA DUP2 DUP10 PUSH2 0x516C JUMP JUMPDEST SWAP1 POP DUP2 DUP2 SUB PUSH1 0x60 DUP4 ADD MSTORE PUSH2 0x51EE DUP2 DUP9 PUSH2 0x516C JUMP JUMPDEST SWAP1 POP DUP2 DUP2 SUB PUSH1 0x80 DUP4 ADD MSTORE PUSH2 0x5202 DUP2 DUP8 PUSH2 0x516C JUMP JUMPDEST SWAP1 POP PUSH2 0x5211 PUSH1 0xA0 DUP4 ADD DUP7 PUSH2 0x4B1E JUMP JUMPDEST PUSH2 0x521E PUSH1 0xC0 DUP4 ADD DUP6 PUSH2 0x4B1E JUMP JUMPDEST DUP2 DUP2 SUB PUSH1 0xE0 DUP4 ADD MSTORE PUSH2 0x5230 DUP2 DUP5 PUSH2 0x516C JUMP JUMPDEST SWAP1 POP SWAP10 SWAP9 POP POP POP POP POP POP POP POP POP JUMP JUMPDEST PUSH2 0x5248 DUP2 PUSH2 0x4FE6 JUMP JUMPDEST DUP2 EQ PUSH2 0x5253 JUMPI PUSH1 0x0 DUP1 REVERT JUMPDEST POP JUMP JUMPDEST PUSH1 0x0 DUP2 CALLDATALOAD SWAP1 POP PUSH2 0x5265 DUP2 PUSH2 0x523F JUMP JUMPDEST SWAP3 SWAP2 POP POP JUMP JUMPDEST PUSH1 0x0 DUP1 PUSH1 0x0 DUP1 PUSH1 0x80 DUP6 DUP8 SUB SLT ISZERO PUSH2 0x5285 JUMPI PUSH2 0x5284 PUSH2 0x4AB1 JUMP JUMPDEST JUMPDEST PUSH1 0x0 PUSH2 0x5293 DUP8 DUP3 DUP9 ADD PUSH2 0x4C53 JUMP JUMPDEST SWAP5 POP POP PUSH1 0x20 PUSH2 0x52A4 DUP8 DUP3 DUP9 ADD PUSH2 0x4ADC JUMP JUMPDEST SWAP4 POP POP PUSH1 0x40 PUSH2 0x52B5 DUP8 DUP3 DUP9 ADD PUSH2 0x4ADC JUMP JUMPDEST SWAP3 POP POP PUSH1 0x60 PUSH2 0x52C6 DUP8 DUP3 DUP9 ADD PUSH2 0x5256 JUMP JUMPDEST SWAP2 POP POP SWAP3 SWAP6 SWAP2 SWAP5 POP SWAP3 POP JUMP JUMPDEST PUSH1 0x0 PUSH1 0x20 DUP3 ADD SWAP1 POP PUSH2 0x52E7 PUSH1 0x0 DUP4 ADD DUP5 PUSH2 0x5117 JUMP JUMPDEST SWAP3 SWAP2 POP POP JUMP JUMPDEST PUSH1 0x0 PUSH1 0xC0 DUP3 ADD SWAP1 POP PUSH2 0x5302 PUSH1 0x0 DUP4 ADD DUP10 PUSH2 0x4B1E JUMP JUMPDEST DUP2 DUP2 SUB PUSH1 0x20 DUP4 ADD MSTORE PUSH2 0x5314 DUP2 DUP9 PUSH2 0x516C JUMP JUMPDEST SWAP1 POP DUP2 DUP2 SUB PUSH1 0x40 DUP4 ADD MSTORE PUSH2 0x5328 DUP2 DUP8 PUSH2 0x516C JUMP JUMPDEST SWAP1 POP DUP2 DUP2 SUB PUSH1 0x60 DUP4 ADD MSTORE PUSH2 0x533C DUP2 DUP7 PUSH2 0x516C JUMP JUMPDEST SWAP1 POP PUSH2 0x534B PUSH1 0x80 DUP4 ADD DUP6 PUSH2 0x4B1E JUMP JUMPDEST PUSH2 0x5358 PUSH1 0xA0 DUP4 ADD DUP5 PUSH2 0x4B1E JUMP JUMPDEST SWAP8 SWAP7 POP POP POP POP POP POP POP JUMP JUMPDEST PUSH1 0x0 DUP1 PUSH1 0x40 DUP4 DUP6 SUB SLT ISZERO PUSH2 0x537A JUMPI PUSH2 0x5379 PUSH2 0x4AB1 JUMP JUMPDEST JUMPDEST PUSH1 0x0 PUSH2 0x5388 DUP6 DUP3 DUP7 ADD PUSH2 0x4C53 JUMP JUMPDEST SWAP3 POP POP PUSH1 0x20 PUSH2 0x5399 DUP6 DUP3 DUP7 ADD PUSH2 0x4ADC JUMP JUMPDEST SWAP2 POP POP SWAP3 POP SWAP3 SWAP1 POP JUMP JUMPDEST PUSH1 0x0 PUSH2 0x53AE DUP3 PUSH2 0x4C0A JUMP JUMPDEST SWAP1 POP SWAP2 SWAP1 POP JUMP JUMPDEST PUSH2 0x53BE DUP2 PUSH2 0x53A3 JUMP JUMPDEST DUP2 EQ PUSH2 0x53C9 JUMPI PUSH1 0x0 DUP1 REVERT JUMPDEST POP JUMP JUMPDEST PUSH1 0x0 DUP2 CALLDATALOAD SWAP1 POP PUSH2 0x53DB DUP2 PUSH2 0x53B5 JUMP JUMPDEST SWAP3 SWAP2 POP POP JUMP JUMPDEST PUSH1 0x0 PUSH1 0x20 DUP3 DUP5 SUB SLT ISZERO PUSH2 0x53F7 JUMPI PUSH2 0x53F6 PUSH2 0x4AB1 JUMP JUMPDEST JUMPDEST PUSH1 0x0 PUSH2 0x5405 DUP5 DUP3 DUP6 ADD PUSH2 0x53CC JUMP JUMPDEST SWAP2 POP POP SWAP3 SWAP2 POP POP JUMP JUMPDEST PUSH1 0x0 DUP1 PUSH1 0x0 PUSH1 0x60 DUP5 DUP7 SUB SLT ISZERO PUSH2 0x5427 JUMPI PUSH2 0x5426 PUSH2 0x4AB1 JUMP JUMPDEST JUMPDEST PUSH1 0x0 DUP5 ADD CALLDATALOAD PUSH8 0xFFFFFFFFFFFFFFFF DUP2 GT ISZERO PUSH2 0x5445 JUMPI PUSH2 0x5444 PUSH2 0x4AB6 JUMP JUMPDEST JUMPDEST PUSH2 0x5451 DUP7 DUP3 DUP8 ADD PUSH2 0x4F42 JUMP JUMPDEST SWAP4 POP POP PUSH1 0x20 DUP5 ADD CALLDATALOAD PUSH8 0xFFFFFFFFFFFFFFFF DUP2 GT ISZERO PUSH2 0x5472 JUMPI PUSH2 0x5471 PUSH2 0x4AB6 JUMP JUMPDEST JUMPDEST PUSH2 0x547E DUP7 DUP3 DUP8 ADD PUSH2 0x4F42 JUMP JUMPDEST SWAP3 POP POP PUSH1 0x40 DUP5 ADD CALLDATALOAD PUSH8 0xFFFFFFFFFFFFFFFF DUP2 GT ISZERO PUSH2 0x549F JUMPI PUSH2 0x549E PUSH2 0x4AB6 JUMP JUMPDEST JUMPDEST PUSH2 0x54AB DUP7 DUP3 DUP8 ADD PUSH2 0x4F42 JUMP JUMPDEST SWAP2 POP POP SWAP3 POP SWAP3 POP SWAP3 JUMP JUMPDEST PUSH32 0x4E487B7100000000000000000000000000000000000000000000000000000000 PUSH1 0x0 MSTORE PUSH1 0x32 PUSH1 0x4 MSTORE PUSH1 0x24 PUSH1 0x0 REVERT JUMPDEST PUSH32 0x4E487B7100000000000000000000000000000000000000000000000000000000 PUSH1 0x0 MSTORE PUSH1 0x22 PUSH1 0x4 MSTORE PUSH1 0x24 PUSH1 0x0 REVERT JUMPDEST PUSH1 0x0 PUSH1 0x2 DUP3 DIV SWAP1 POP PUSH1 0x1 DUP3 AND DUP1 PUSH2 0x552B JUMPI PUSH1 0x7F DUP3 AND SWAP2 POP JUMPDEST PUSH1 0x20 DUP3 LT DUP2 SUB PUSH2 0x553E JUMPI PUSH2 0x553D PUSH2 0x54E4 JUMP JUMPDEST JUMPDEST POP SWAP2 SWAP1 POP JUMP JUMPDEST PUSH1 0x0 DUP2 SLOAD SWAP1 POP PUSH2 0x5553 DUP2 PUSH2 0x5513 JUMP JUMPDEST SWAP1 POP SWAP2 SWAP1 POP JUMP JUMPDEST PUSH1 0x0 DUP2 SWAP1 POP DUP2 PUSH1 0x0 MSTORE PUSH1 0x20 PUSH1 0x0 KECCAK256 SWAP1 POP SWAP2 SWAP1 POP JUMP JUMPDEST PUSH1 0x0 PUSH1 0x20 PUSH1 0x1F DUP4 ADD DIV SWAP1 POP SWAP2 SWAP1 POP JUMP JUMPDEST PUSH1 0x0 DUP3 DUP3 SHL SWAP1 POP SWAP3 SWAP2 POP POP JUMP JUMPDEST PUSH1 0x0 PUSH1 0x8 DUP4 MUL PUSH2 0x55BC PUSH32 0xFFFFFFFFFFFFFFFFFFFFFFFFFFFFFFFFFFFFFFFFFFFFFFFFFFFFFFFFFFFFFFFF DUP3 PUSH2 0x557F JUMP JUMPDEST PUSH2 0x55C6 DUP7 DUP4 PUSH2 0x557F JUMP JUMPDEST SWAP6 POP DUP1 NOT DUP5 AND SWAP4 POP DUP1 DUP7 AND DUP5 OR SWAP3 POP POP POP SWAP4 SWAP3 POP POP POP JUMP JUMPDEST PUSH1 0x0 DUP2 SWAP1 POP SWAP2 SWAP1 POP JUMP JUMPDEST PUSH1 0x0 PUSH2 0x5603 PUSH2 0x55FE PUSH2 0x55F9 DUP5 PUSH2 0x4ABB JUMP JUMPDEST PUSH2 0x55DE JUMP JUMPDEST PUSH2 0x4ABB JUMP JUMPDEST SWAP1 POP SWAP2 SWAP1 POP JUMP JUMPDEST PUSH1 0x0 DUP2 SWAP1 POP SWAP2 SWAP1 POP JUMP JUMPDEST PUSH2 0x561D DUP4 PUSH2 0x55E8 JUMP JUMPDEST PUSH2 0x5631 PUSH2 0x5629 DUP3 PUSH2 0x560A JUMP JUMPDEST DUP5 DUP5 SLOAD PUSH2 0x558C JUMP JUMPDEST DUP3 SSTORE POP POP POP POP JUMP JUMPDEST PUSH1 0x0 SWAP1 JUMP JUMPDEST PUSH2 0x5646 PUSH2 0x5639 JUMP JUMPDEST PUSH2 0x5651 DUP2 DUP5 DUP5 PUSH2 0x5614 JUMP JUMPDEST POP POP POP JUMP JUMPDEST JUMPDEST DUP2 DUP2 LT ISZERO PUSH2 0x5675 JUMPI PUSH2 0x566A PUSH1 0x0 DUP3 PUSH2 0x563E JUMP JUMPDEST PUSH1 0x1 DUP2 ADD SWAP1 POP PUSH2 0x5657 JUMP JUMPDEST POP POP JUMP JUMPDEST PUSH1 0x1F DUP3 GT ISZERO PUSH2 0x56BA JUMPI PUSH2 0x568B DUP2 PUSH2 0x555A JUMP JUMPDEST PUSH2 0x5694 DUP5 PUSH2 0x556F JUMP JUMPDEST DUP2 ADD PUSH1 0x20 DUP6 LT ISZERO PUSH2 0x56A3 JUMPI DUP2 SWAP1 POP JUMPDEST PUSH2 0x56B7 PUSH2 0x56AF DUP6 PUSH2 0x556F JUMP JUMPDEST DUP4 ADD DUP3 PUSH2 0x5656 JUMP JUMPDEST POP POP JUMPDEST POP POP POP JUMP JUMPDEST PUSH1 0x0 DUP3 DUP3 SHR SWAP1 POP SWAP3 SWAP2 POP POP JUMP JUMPDEST PUSH1 0x0 PUSH2 0x56DD PUSH1 0x0 NOT DUP5 PUSH1 0x8 MUL PUSH2 0x56BF JUMP JUMPDEST NOT DUP1 DUP4 AND SWAP2 POP POP SWAP3 SWAP2 POP POP JUMP JUMPDEST PUSH1 0x0 PUSH2 0x56F6 DUP4 DUP4 PUSH2 0x56CC JUMP JUMPDEST SWAP2 POP DUP3 PUSH1 0x2 MUL DUP3 OR SWAP1 POP SWAP3 SWAP2 POP POP JUMP JUMPDEST DUP2 DUP2 SUB PUSH2 0x5714 JUMPI POP POP PUSH2 0x57EC JUMP JUMPDEST PUSH2 0x571D DUP3 PUSH2 0x5544 JUMP JUMPDEST PUSH8 0xFFFFFFFFFFFFFFFF DUP2 GT ISZERO PUSH2 0x5736 JUMPI PUSH2 0x5735 PUSH2 0x4B5E JUMP JUMPDEST JUMPDEST PUSH2 0x5740 DUP3 SLOAD PUSH2 0x5513 JUMP JUMPDEST PUSH2 0x574B DUP3 DUP3 DUP6 PUSH2 0x5679 JUMP JUMPDEST PUSH1 0x0 PUSH1 0x1F DUP4 GT PUSH1 0x1 DUP2 EQ PUSH2 0x577A JUMPI PUSH1 0x0 DUP5 ISZERO PUSH2 0x5768 JUMPI DUP3 DUP8 ADD SLOAD SWAP1 POP JUMPDEST PUSH2 0x5772 DUP6 DUP3 PUSH2 0x56EA JUMP JUMPDEST DUP7 SSTORE POP PUSH2 0x57E5 JUMP JUMPDEST PUSH1 0x1F NOT DUP5 AND PUSH2 0x5788 DUP8 PUSH2 0x555A JUMP JUMPDEST SWAP7 POP PUSH2 0x5793 DUP7 PUSH2 0x555A JUMP JUMPDEST PUSH1 0x0 JUMPDEST DUP3 DUP2 LT ISZERO PUSH2 0x57BB JUMPI DUP5 DUP10 ADD SLOAD DUP3 SSTORE PUSH1 0x1 DUP3 ADD SWAP2 POP PUSH1 0x1 DUP6 ADD SWAP5 POP PUSH1 0x20 DUP2 ADD SWAP1 POP PUSH2 0x5796 JUMP JUMPDEST DUP7 DUP4 LT ISZERO PUSH2 0x57D8 JUMPI DUP5 DUP10 ADD SLOAD PUSH2 0x57D4 PUSH1 0x1F DUP10 AND DUP3 PUSH2 0x56CC JUMP JUMPDEST DUP4 SSTORE POP JUMPDEST PUSH1 0x1 PUSH1 0x2 DUP9 MUL ADD DUP9 SSTORE POP POP POP JUMPDEST POP POP POP POP POP POP JUMPDEST JUMP JUMPDEST PUSH32 0x4E487B7100000000000000000000000000000000000000000000000000000000 PUSH1 0x0 MSTORE PUSH1 0x11 PUSH1 0x4 MSTORE PUSH1 0x24 PUSH1 0x0 REVERT JUMPDEST PUSH1 0x0 PUSH2 0x5828 DUP3 PUSH2 0x4ABB JUMP JUMPDEST SWAP2 POP PUSH32 0xFFFFFFFFFFFFFFFFFFFFFFFFFFFFFFFFFFFFFFFFFFFFFFFFFFFFFFFFFFFFFFFF DUP3 SUB PUSH2 0x585A JUMPI PUSH2 0x5859 PUSH2 0x57EE JUMP JUMPDEST JUMPDEST PUSH1 0x1 DUP3 ADD SWAP1 POP SWAP2 SWAP1 POP JUMP JUMPDEST PUSH1 0x0 PUSH2 0x5870 DUP3 PUSH2 0x4ABB JUMP JUMPDEST SWAP2 POP PUSH1 0x0 DUP3 SUB PUSH2 0x5883 JUMPI PUSH2 0x5882 PUSH2 0x57EE JUMP JUMPDEST JUMPDEST PUSH1 0x1 DUP3 SUB SWAP1 POP SWAP2 SWAP1 POP JUMP JUMPDEST PUSH2 0x5897 DUP3 PUSH2 0x5126 JUMP JUMPDEST PUSH8 0xFFFFFFFFFFFFFFFF DUP2 GT ISZERO PUSH2 0x58B0 JUMPI PUSH2 0x58AF PUSH2 0x4B5E JUMP JUMPDEST JUMPDEST PUSH2 0x58BA DUP3 SLOAD PUSH2 0x5513 JUMP JUMPDEST PUSH2 0x58C5 DUP3 DUP3 DUP6 PUSH2 0x5679 JUMP JUMPDEST PUSH1 0x0 PUSH1 0x20 SWAP1 POP PUSH1 0x1F DUP4 GT PUSH1 0x1 DUP2 EQ PUSH2 0x58F8 JUMPI PUSH1 0x0 DUP5 ISZERO PUSH2 0x58E6 JUMPI DUP3 DUP8 ADD MLOAD SWAP1 POP JUMPDEST PUSH2 0x58F0 DUP6 DUP3 PUSH2 0x56EA JUMP JUMPDEST DUP7 SSTORE POP PUSH2 0x5958 JUMP JUMPDEST PUSH1 0x1F NOT DUP5 AND PUSH2 0x5906 DUP7 PUSH2 0x555A JUMP JUMPDEST PUSH1 0x0 JUMPDEST DUP3 DUP2 LT ISZERO PUSH2 0x592E JUMPI DUP5 DUP10 ADD MLOAD DUP3 SSTORE PUSH1 0x1 DUP3 ADD SWAP2 POP PUSH1 0x20 DUP6 ADD SWAP5 POP PUSH1 0x20 DUP2 ADD SWAP1 POP PUSH2 0x5909 JUMP JUMPDEST DUP7 DUP4 LT ISZERO PUSH2 0x594B JUMPI DUP5 DUP10 ADD MLOAD PUSH2 0x5947 PUSH1 0x1F DUP10 AND DUP3 PUSH2 0x56CC JUMP JUMPDEST DUP4 SSTORE POP JUMPDEST PUSH1 0x1 PUSH1 0x2 DUP9 MUL ADD DUP9 SSTORE POP POP POP JUMPDEST POP POP POP POP POP POP JUMP JUMPDEST PUSH1 0x0 DUP2 SWAP1 POP SWAP3 SWAP2 POP POP JUMP JUMPDEST PUSH1 0x0 PUSH2 0x5976 DUP3 PUSH2 0x5126 JUMP JUMPDEST PUSH2 0x5980 DUP2 DUP6 PUSH2 0x5960 JUMP JUMPDEST SWAP4 POP PUSH2 0x5990 DUP2 DUP6 PUSH1 0x20 DUP7 ADD PUSH2 0x5142 JUMP JUMPDEST DUP1 DUP5 ADD SWAP2 POP POP SWAP3 SWAP2 POP POP JUMP JUMPDEST PUSH1 0x0 PUSH2 0x59A8 DUP3 DUP5 PUSH2 0x596B JUMP JUMPDEST SWAP2 POP DUP2 SWAP1 POP SWAP3 SWAP2 POP POP JUMP JUMPDEST PUSH1 0x0 PUSH2 0x59BE DUP3 PUSH2 0x4ABB JUMP JUMPDEST SWAP2 POP PUSH2 0x59C9 DUP4 PUSH2 0x4ABB JUMP JUMPDEST SWAP3 POP DUP3 DUP3 ADD SWAP1 POP DUP1 DUP3 GT ISZERO PUSH2 0x59E1 JUMPI PUSH2 0x59E0 PUSH2 0x57EE JUMP JUMPDEST JUMPDEST SWAP3 SWAP2 POP POP JUMP JUMPDEST PUSH32 0x4F6E6C7920746865206D616E616765722063616E207472616E73666572204574 PUSH1 0x0 DUP3 ADD MSTORE PUSH32 0x6865722E00000000000000000000000000000000000000000000000000000000 PUSH1 0x20 DUP3 ADD MSTORE POP JUMP JUMPDEST PUSH1 0x0 PUSH2 0x5A43 PUSH1 0x24 DUP4 PUSH2 0x5131 JUMP JUMPDEST SWAP2 POP PUSH2 0x5A4E DUP3 PUSH2 0x59E7 JUMP JUMPDEST PUSH1 0x40 DUP3 ADD SWAP1 POP SWAP2 SWAP1 POP JUMP JUMPDEST PUSH1 0x0 PUSH1 0x20 DUP3 ADD SWAP1 POP DUP2 DUP2 SUB PUSH1 0x0 DUP4 ADD MSTORE PUSH2 0x5A72 DUP2 PUSH2 0x5A36 JUMP JUMPDEST SWAP1 POP SWAP2 SWAP1 POP JUMP INVALID LOG2 PUSH5 0x6970667358 0x22 SLT KECCAK256 SAR PUSH16 0x5385E84D85ACDEA23B928DEED670ED74 LT SWAP14 STATICCALL OR 0x5D PUSH12 0x41A7E36C2EA0895264736F6C PUSH4 0x43000812 STOP CALLER "},"gasEstimates":{"creation":{"codeDepositCost":"4643000","executionCost":"29702","totalCost":"4672702"},"external":{"allProjects(uint256)":"infinite","allUsers(uint256)":"infinite","answerJoinRequest(address,uint256,uint256,bool)":"infinite","answerRecruitRequest(address,uint256,uint256,bool)":"infinite","codenameTaken(string)":"infinite","createProject(address,string,string,string)":"infinite","createUser(address,string,string,string)":"infinite","featuredProfiles(uint256)":"infinite","featuredProjects(uint256)":"infinite","fieldCount(string)":"infinite","getProjectByName(string)":"infinite","getUserByCodename(string)":"infinite","manager()":"2556","modifyFeaturedProfiles(address[])":"infinite","modifyFeaturedProjects(uint256[])":"infinite","modifyUser(string,string,string)":"infinite","profCount(string)":"infinite","projectJoinRequest(address,uint256)":"infinite","projectMembers(uint256,uint256)":"infinite","projectMembersLength(uint256)":"infinite","projectNameTaken(string)":"infinite","projectPendingRequests(uint256,uint256)":"infinite","projectsCount()":"2518","recruitJoinRequest(address,uint256)":"infinite","recruitPendingRequests(address,uint256)":"infinite","removeUserFromProject(uint256,address,uint256,uint256)":"infinite","subscribeToNotifications(string)":"infinite","transferEther(address)":"infinite","users(address)":"infinite","usersCount()":"2519","usersProjects(address,uint256)":"infinite","usersProjectsLength(address)":"2904","walletRegistered(address)":"2934"}},"methodIdentifiers":{"allProjects(uint256)":"53b3194c","allUsers(uint256)":"a2bdedf4","answerJoinRequest(address,uint256,uint256,bool)":"3a4017b4","answerRecruitRequest(address,uint256,uint256,bool)":"f5ab5dde","codenameTaken(string)":"2f3f680c","createProject(address,string,string,string)":"30314fee","createUser(address,string,string,string)":"c610d2ce","featuredProfiles(uint256)":"d6f775c0","featuredProjects(uint256)":"c6242a8f","fieldCount(string)":"9039b99e","getProjectByName(string)":"4b77f269","getUserByCodename(string)":"f778d27b","manager()":"481c6a75","modifyFeaturedProfiles(address[])":"01f2b011","modifyFeaturedProjects(uint256[])":"1453d9f2","modifyUser(string,string,string)":"d05857e0","profCount(string)":"1b0004d9","projectJoinRequest(address,uint256)":"4fc0f8ba","projectMembers(uint256,uint256)":"37d3f4fa","projectMembersLength(uint256)":"003bd288","projectNameTaken(string)":"e365a29f","projectPendingRequests(uint256,uint256)":"448cd56e","projectsCount()":"c73b302e","recruitJoinRequest(address,uint256)":"56c720c3","recruitPendingRequests(address,uint256)":"feef5e91","removeUserFromProject(uint256,address,uint256,uint256)":"04c2eaab","subscribeToNotifications(string)":"19266c51","transferEther(address)":"6b55e991","users(address)":"a87430ba","usersCount()":"6ba13a82","usersProjects(address,uint256)":"c723bf86","usersProjectsLength(address)":"1ec7d4ad","walletRegistered(address)":"ac2c9c0f"}},"storageLayout":{"storage":[{"astId":797,"contract":"Users.sol:Users","label":"manager","offset":0,"slot":"0","type":"t_address"},{"astId":831,"contract":"Users.sol:Users","label":"allUsers","offset":0,"slot":"1","type":"t_array(t_struct(User)814_storage)dyn_storage"},{"astId":835,"contract":"Users.sol:Users","label":"allProjects","offset":0,"slot":"2","type":"t_array(t_struct(Project)827_storage)dyn_storage"},{"astId":839,"contract":"Users.sol:Users","label":"featuredProfiles","offset":0,"slot":"3","type":"t_array(t_struct(User)814_storage)dyn_storage"},{"astId":843,"contract":"Users.sol:Users","label":"featuredProjects","offset":0,"slot":"4","type":"t_array(t_struct(Project)827_storage)dyn_storage"},{"astId":848,"contract":"Users.sol:Users","label":"users","offset":0,"slot":"5","type":"t_mapping(t_address,t_struct(User)814_storage)"},{"astId":854,"contract":"Users.sol:Users","label":"usersProjects","offset":0,"slot":"6","type":"t_mapping(t_address,t_array(t_struct(Project)827_storage)dyn_storage)"},{"astId":859,"contract":"Users.sol:Users","label":"getProjectByName","offset":0,"slot":"7","type":"t_mapping(t_string_memory_ptr,t_struct(Project)827_storage)"},{"astId":865,"contract":"Users.sol:Users","label":"projectMembers","offset":0,"slot":"8","type":"t_mapping(t_uint256,t_array(t_struct(User)814_storage)dyn_storage)"},{"astId":871,"contract":"Users.sol:Users","label":"projectPendingRequests","offset":0,"slot":"9","type":"t_mapping(t_uint256,t_array(t_struct(User)814_storage)dyn_storage)"},{"astId":877,"contract":"Users.sol:Users","label":"recruitPendingRequests","offset":0,"slot":"10","type":"t_mapping(t_address,t_array(t_struct(Project)827_storage)dyn_storage)"},{"astId":882,"contract":"Users.sol:Users","label":"getUserByCodename","offset":0,"slot":"11","type":"t_mapping(t_string_memory_ptr,t_struct(User)814_storage)"},{"astId":886,"contract":"Users.sol:Users","label":"profCount","offset":0,"slot":"12","type":"t_mapping(t_string_memory_ptr,t_uint256)"},{"astId":890,"contract":"Users.sol:Users","label":"fieldCount","offset":0,"slot":"13","type":"t_mapping(t_string_memory_ptr,t_uint256)"},{"astId":894,"contract":"Users.sol:Users","label":"walletRegistered","offset":0,"slot":"14","type":"t_mapping(t_address,t_bool)"},{"astId":898,"contract":"Users.sol:Users","label":"codenameTaken","offset":0,"slot":"15","type":"t_mapping(t_string_memory_ptr,t_bool)"},{"astId":902,"contract":"Users.sol:Users","label":"projectNameTaken","offset":0,"slot":"16","type":"t_mapping(t_string_memory_ptr,t_bool)"},{"astId":906,"contract":"Users.sol:Users","label":"usersProjectsLength","offset":0,"slot":"17","type":"t_mapping(t_address,t_uint256)"},{"astId":910,"contract":"Users.sol:Users","label":"projectMembersLength","offset":0,"slot":"18","type":"t_mapping(t_uint256,t_uint256)"},{"astId":912,"contract":"Users.sol:Users","label":"usersCount","offset":0,"slot":"19","type":"t_uint256"},{"astId":914,"contract":"Users.sol:Users","label":"projectsCount","offset":0,"slot":"20","type":"t_uint256"}],"types":{"t_address":{"encoding":"inplace","label":"address","numberOfBytes":"20"},"t_array(t_struct(Project)827_storage)dyn_storage":{"base":"t_struct(Project)827_storage","encoding":"dynamic_array","label":"struct UsersStorage.Project[]","numberOfBytes":"32"},"t_array(t_struct(User)814_storage)dyn_storage":{"base":"t_struct(User)814_storage","encoding":"dynamic_array","label":"struct UsersStorage.User[]","numberOfBytes":"32"},"t_bool":{"encoding":"inplace","label":"bool","numberOfBytes":"1"},"t_mapping(t_address,t_array(t_struct(Project)827_storage)dyn_storage)":{"encoding":"mapping","key":"t_address","label":"mapping(address => struct UsersStorage.Project[])","numberOfBytes":"32","value":"t_array(t_struct(Project)827_storage)dyn_storage"},"t_mapping(t_address,t_bool)":{"encoding":"mapping","key":"t_address","label":"mapping(address => bool)","numberOfBytes":"32","value":"t_bool"},"t_mapping(t_address,t_struct(User)814_storage)":{"encoding":"mapping","key":"t_address","label":"mapping(address => struct UsersStorage.User)","numberOfBytes":"32","value":"t_struct(User)814_storage"},"t_mapping(t_address,t_uint256)":{"encoding":"mapping","key":"t_address","label":"mapping(address => uint256)","numberOfBytes":"32","value":"t_uint256"},"t_mapping(t_string_memory_ptr,t_bool)":{"encoding":"mapping","key":"t_string_memory_ptr","label":"mapping(string => bool)","numberOfBytes":"32","value":"t_bool"},"t_mapping(t_string_memory_ptr,t_struct(Project)827_storage)":{"encoding":"mapping","key":"t_string_memory_ptr","label":"mapping(string => struct UsersStorage.Project)","numberOfBytes":"32","value":"t_struct(Project)827_storage"},"t_mapping(t_string_memory_ptr,t_struct(User)814_storage)":{"encoding":"mapping","key":"t_string_memory_ptr","label":"mapping(string => struct UsersStorage.User)","numberOfBytes":"32","value":"t_struct(User)814_storage"},"t_mapping(t_string_memory_ptr,t_uint256)":{"encoding":"mapping","key":"t_string_memory_ptr","label":"mapping(string => uint256)","numberOfBytes":"32","value":"t_uint256"},"t_mapping(t_uint256,t_array(t_struct(User)814_storage)dyn_storage)":{"encoding":"mapping","key":"t_uint256","label":"mapping(uint256 => struct UsersStorage.User[])","numberOfBytes":"32","value":"t_array(t_struct(User)814_storage)dyn_storage"},"t_mapping(t_uint256,t_uint256)":{"encoding":"mapping","key":"t_uint256","label":"mapping(uint256 => uint256)","numberOfBytes":"32","value":"t_uint256"},"t_string_memory_ptr":{"encoding":"bytes","label":"string","numberOfBytes":"32"},"t_string_storage":{"encoding":"bytes","label":"string","numberOfBytes":"32"},"t_struct(Project)827_storage":{"encoding":"inplace","label":"struct UsersStorage.Project","members":[{"astId":816,"contract":"Users.sol:Users","label":"id","offset":0,"slot":"0","type":"t_uint256"},{"astId":818,"contract":"Users.sol:Users","label":"name","offset":0,"slot":"1","type":"t_string_storage"},{"astId":820,"contract":"Users.sol:Users","label":"field","offset":0,"slot":"2","type":"t_string_storage"},{"astId":822,"contract":"Users.sol:Users","label":"mission","offset":0,"slot":"3","type":"t_string_storage"},{"astId":824,"contract":"Users.sol:Users","label":"membersCount","offset":0,"slot":"4","type":"t_uint256"},{"astId":826,"contract":"Users.sol:Users","label":"pendingRequests","offset":0,"slot":"5","type":"t_uint256"}],"numberOfBytes":"192"},"t_struct(User)814_storage":{"encoding":"inplace","label":"struct UsersStorage.User","members":[{"astId":799,"contract":"Users.sol:Users","label":"id","offset":0,"slot":"0","type":"t_uint256"},{"astId":801,"contract":"Users.sol:Users","label":"userAddress","offset":0,"slot":"1","type":"t_address"},{"astId":803,"contract":"Users.sol:Users","label":"codename","offset":0,"slot":"2","type":"t_string_storage"},{"astId":805,"contract":"Users.sol:Users","label":"profession","offset":0,"slot":"3","type":"t_string_storage"},{"astId":807,"contract":"Users.sol:Users","label":"description","offset":0,"slot":"4","type":"t_string_storage"},{"astId":809,"contract":"Users.sol:Users","label":"projectsInvolved","offset":0,"slot":"5","type":"t_uint256"},{"astId":811,"contract":"Users.sol:Users","label":"pendingRequestsCount","offset":0,"slot":"6","type":"t_uint256"},{"astId":813,"contract":"Users.sol:Users","label":"mongoNotificationsId","offset":0,"slot":"7","type":"t_string_storage"}],"numberOfBytes":"256"},"t_uint256":{"encoding":"inplace","label":"uint256","numberOfBytes":"32"}}},"userdoc":{"kind":"user","methods":{},"version":1}}